{
	"UniswapV2Router02.sol": {
		"UniswapV2Router02": {
			"abi": [
				{
					"inputs": [
						{
							"internalType": "address",
							"name": "_factory",
							"type": "address"
						},
						{
							"internalType": "address",
							"name": "_WETH",
							"type": "address"
						},
						{
							"internalType": "uint256",
							"name": "_adminFee",
							"type": "uint256"
						}
					],
					"stateMutability": "nonpayable",
					"type": "constructor"
				},
				{
					"inputs": [],
					"name": "WETH",
					"outputs": [
						{
							"internalType": "address",
							"name": "",
							"type": "address"
						}
					],
					"stateMutability": "view",
					"type": "function"
				},
				{
					"inputs": [
						{
							"internalType": "address",
							"name": "tokenA",
							"type": "address"
						},
						{
							"internalType": "address",
							"name": "tokenB",
							"type": "address"
						},
						{
							"internalType": "uint256",
							"name": "amountADesired",
							"type": "uint256"
						},
						{
							"internalType": "uint256",
							"name": "amountBDesired",
							"type": "uint256"
						},
						{
							"internalType": "uint256",
							"name": "amountAMin",
							"type": "uint256"
						},
						{
							"internalType": "uint256",
							"name": "amountBMin",
							"type": "uint256"
						},
						{
							"internalType": "address",
							"name": "to",
							"type": "address"
						},
						{
							"internalType": "uint256",
							"name": "deadline",
							"type": "uint256"
						}
					],
					"name": "addLiquidity",
					"outputs": [
						{
							"internalType": "uint256",
							"name": "amountA",
							"type": "uint256"
						},
						{
							"internalType": "uint256",
							"name": "amountB",
							"type": "uint256"
						},
						{
							"internalType": "uint256",
							"name": "liquidity",
							"type": "uint256"
						}
					],
					"stateMutability": "nonpayable",
					"type": "function"
				},
				{
					"inputs": [
						{
							"internalType": "address",
							"name": "token",
							"type": "address"
						},
						{
							"internalType": "uint256",
							"name": "amountTokenDesired",
							"type": "uint256"
						},
						{
							"internalType": "uint256",
							"name": "amountTokenMin",
							"type": "uint256"
						},
						{
							"internalType": "uint256",
							"name": "amountETHMin",
							"type": "uint256"
						},
						{
							"internalType": "address",
							"name": "to",
							"type": "address"
						},
						{
							"internalType": "uint256",
							"name": "deadline",
							"type": "uint256"
						}
					],
					"name": "addLiquidityETH",
					"outputs": [
						{
							"internalType": "uint256",
							"name": "amountToken",
							"type": "uint256"
						},
						{
							"internalType": "uint256",
							"name": "amountETH",
							"type": "uint256"
						},
						{
							"internalType": "uint256",
							"name": "liquidity",
							"type": "uint256"
						}
					],
					"stateMutability": "payable",
					"type": "function"
				},
				{
					"inputs": [],
					"name": "adminFee",
					"outputs": [
						{
							"internalType": "uint256",
							"name": "",
							"type": "uint256"
						}
					],
					"stateMutability": "view",
					"type": "function"
				},
				{
					"inputs": [],
					"name": "factory",
					"outputs": [
						{
							"internalType": "address",
							"name": "",
							"type": "address"
						}
					],
					"stateMutability": "view",
					"type": "function"
				},
				{
					"inputs": [],
					"name": "getAdminFee",
					"outputs": [
						{
							"internalType": "uint256",
							"name": "",
							"type": "uint256"
						}
					],
					"stateMutability": "view",
					"type": "function"
				},
				{
					"inputs": [
						{
							"internalType": "uint256",
							"name": "amountOut",
							"type": "uint256"
						},
						{
							"internalType": "uint256",
							"name": "reserveIn",
							"type": "uint256"
						},
						{
							"internalType": "uint256",
							"name": "reserveOut",
							"type": "uint256"
						}
					],
					"name": "getAmountIn",
					"outputs": [
						{
							"internalType": "uint256",
							"name": "amountIn",
							"type": "uint256"
						}
					],
					"stateMutability": "view",
					"type": "function"
				},
				{
					"inputs": [
						{
							"internalType": "uint256",
							"name": "amountIn",
							"type": "uint256"
						},
						{
							"internalType": "uint256",
							"name": "reserveIn",
							"type": "uint256"
						},
						{
							"internalType": "uint256",
							"name": "reserveOut",
							"type": "uint256"
						}
					],
					"name": "getAmountOut",
					"outputs": [
						{
							"internalType": "uint256",
							"name": "amountOut",
							"type": "uint256"
						}
					],
					"stateMutability": "view",
					"type": "function"
				},
				{
					"inputs": [
						{
							"internalType": "uint256",
							"name": "amountOut",
							"type": "uint256"
						},
						{
							"internalType": "address[]",
							"name": "path",
							"type": "address[]"
						}
					],
					"name": "getAmountsIn",
					"outputs": [
						{
							"internalType": "uint256[]",
							"name": "amounts",
							"type": "uint256[]"
						}
					],
					"stateMutability": "view",
					"type": "function"
				},
				{
					"inputs": [
						{
							"internalType": "uint256",
							"name": "amountIn",
							"type": "uint256"
						},
						{
							"internalType": "address[]",
							"name": "path",
							"type": "address[]"
						}
					],
					"name": "getAmountsOut",
					"outputs": [
						{
							"internalType": "uint256[]",
							"name": "amounts",
							"type": "uint256[]"
						}
					],
					"stateMutability": "view",
					"type": "function"
				},
				{
					"inputs": [
						{
							"internalType": "uint256",
							"name": "amountA",
							"type": "uint256"
						},
						{
							"internalType": "uint256",
							"name": "reserveA",
							"type": "uint256"
						},
						{
							"internalType": "uint256",
							"name": "reserveB",
							"type": "uint256"
						}
					],
					"name": "quote",
					"outputs": [
						{
							"internalType": "uint256",
							"name": "amountB",
							"type": "uint256"
						}
					],
					"stateMutability": "pure",
					"type": "function"
				},
				{
					"inputs": [
						{
							"internalType": "address",
							"name": "tokenA",
							"type": "address"
						},
						{
							"internalType": "address",
							"name": "tokenB",
							"type": "address"
						},
						{
							"internalType": "uint256",
							"name": "liquidity",
							"type": "uint256"
						},
						{
							"internalType": "uint256",
							"name": "amountAMin",
							"type": "uint256"
						},
						{
							"internalType": "uint256",
							"name": "amountBMin",
							"type": "uint256"
						},
						{
							"internalType": "address",
							"name": "to",
							"type": "address"
						},
						{
							"internalType": "uint256",
							"name": "deadline",
							"type": "uint256"
						}
					],
					"name": "removeLiquidity",
					"outputs": [
						{
							"internalType": "uint256",
							"name": "amountA",
							"type": "uint256"
						},
						{
							"internalType": "uint256",
							"name": "amountB",
							"type": "uint256"
						}
					],
					"stateMutability": "nonpayable",
					"type": "function"
				},
				{
					"inputs": [
						{
							"internalType": "address",
							"name": "token",
							"type": "address"
						},
						{
							"internalType": "uint256",
							"name": "liquidity",
							"type": "uint256"
						},
						{
							"internalType": "uint256",
							"name": "amountTokenMin",
							"type": "uint256"
						},
						{
							"internalType": "uint256",
							"name": "amountETHMin",
							"type": "uint256"
						},
						{
							"internalType": "address",
							"name": "to",
							"type": "address"
						},
						{
							"internalType": "uint256",
							"name": "deadline",
							"type": "uint256"
						}
					],
					"name": "removeLiquidityETH",
					"outputs": [
						{
							"internalType": "uint256",
							"name": "amountToken",
							"type": "uint256"
						},
						{
							"internalType": "uint256",
							"name": "amountETH",
							"type": "uint256"
						}
					],
					"stateMutability": "nonpayable",
					"type": "function"
				},
				{
					"inputs": [
						{
							"internalType": "address",
							"name": "token",
							"type": "address"
						},
						{
							"internalType": "uint256",
							"name": "liquidity",
							"type": "uint256"
						},
						{
							"internalType": "uint256",
							"name": "amountTokenMin",
							"type": "uint256"
						},
						{
							"internalType": "uint256",
							"name": "amountETHMin",
							"type": "uint256"
						},
						{
							"internalType": "address",
							"name": "to",
							"type": "address"
						},
						{
							"internalType": "uint256",
							"name": "deadline",
							"type": "uint256"
						}
					],
					"name": "removeLiquidityETHSupportingFeeOnTransferTokens",
					"outputs": [
						{
							"internalType": "uint256",
							"name": "amountETH",
							"type": "uint256"
						}
					],
					"stateMutability": "nonpayable",
					"type": "function"
				},
				{
					"inputs": [
						{
							"internalType": "address",
							"name": "token",
							"type": "address"
						},
						{
							"internalType": "uint256",
							"name": "liquidity",
							"type": "uint256"
						},
						{
							"internalType": "uint256",
							"name": "amountTokenMin",
							"type": "uint256"
						},
						{
							"internalType": "uint256",
							"name": "amountETHMin",
							"type": "uint256"
						},
						{
							"internalType": "address",
							"name": "to",
							"type": "address"
						},
						{
							"internalType": "uint256",
							"name": "deadline",
							"type": "uint256"
						},
						{
							"internalType": "bool",
							"name": "approveMax",
							"type": "bool"
						},
						{
							"internalType": "uint8",
							"name": "v",
							"type": "uint8"
						},
						{
							"internalType": "bytes32",
							"name": "r",
							"type": "bytes32"
						},
						{
							"internalType": "bytes32",
							"name": "s",
							"type": "bytes32"
						}
					],
					"name": "removeLiquidityETHWithPermit",
					"outputs": [
						{
							"internalType": "uint256",
							"name": "amountToken",
							"type": "uint256"
						},
						{
							"internalType": "uint256",
							"name": "amountETH",
							"type": "uint256"
						}
					],
					"stateMutability": "nonpayable",
					"type": "function"
				},
				{
					"inputs": [
						{
							"internalType": "address",
							"name": "token",
							"type": "address"
						},
						{
							"internalType": "uint256",
							"name": "liquidity",
							"type": "uint256"
						},
						{
							"internalType": "uint256",
							"name": "amountTokenMin",
							"type": "uint256"
						},
						{
							"internalType": "uint256",
							"name": "amountETHMin",
							"type": "uint256"
						},
						{
							"internalType": "address",
							"name": "to",
							"type": "address"
						},
						{
							"internalType": "uint256",
							"name": "deadline",
							"type": "uint256"
						},
						{
							"internalType": "bool",
							"name": "approveMax",
							"type": "bool"
						},
						{
							"internalType": "uint8",
							"name": "v",
							"type": "uint8"
						},
						{
							"internalType": "bytes32",
							"name": "r",
							"type": "bytes32"
						},
						{
							"internalType": "bytes32",
							"name": "s",
							"type": "bytes32"
						}
					],
					"name": "removeLiquidityETHWithPermitSupportingFeeOnTransferTokens",
					"outputs": [
						{
							"internalType": "uint256",
							"name": "amountETH",
							"type": "uint256"
						}
					],
					"stateMutability": "nonpayable",
					"type": "function"
				},
				{
					"inputs": [
						{
							"internalType": "address",
							"name": "tokenA",
							"type": "address"
						},
						{
							"internalType": "address",
							"name": "tokenB",
							"type": "address"
						},
						{
							"internalType": "uint256",
							"name": "liquidity",
							"type": "uint256"
						},
						{
							"internalType": "uint256",
							"name": "amountAMin",
							"type": "uint256"
						},
						{
							"internalType": "uint256",
							"name": "amountBMin",
							"type": "uint256"
						},
						{
							"internalType": "address",
							"name": "to",
							"type": "address"
						},
						{
							"internalType": "uint256",
							"name": "deadline",
							"type": "uint256"
						},
						{
							"internalType": "bool",
							"name": "approveMax",
							"type": "bool"
						},
						{
							"internalType": "uint8",
							"name": "v",
							"type": "uint8"
						},
						{
							"internalType": "bytes32",
							"name": "r",
							"type": "bytes32"
						},
						{
							"internalType": "bytes32",
							"name": "s",
							"type": "bytes32"
						}
					],
					"name": "removeLiquidityWithPermit",
					"outputs": [
						{
							"internalType": "uint256",
							"name": "amountA",
							"type": "uint256"
						},
						{
							"internalType": "uint256",
							"name": "amountB",
							"type": "uint256"
						}
					],
					"stateMutability": "nonpayable",
					"type": "function"
				},
				{
					"inputs": [
						{
							"internalType": "uint256",
							"name": "amountOut",
							"type": "uint256"
						},
						{
							"internalType": "address[]",
							"name": "path",
							"type": "address[]"
						},
						{
							"internalType": "address",
							"name": "to",
							"type": "address"
						},
						{
							"internalType": "uint256",
							"name": "deadline",
							"type": "uint256"
						}
					],
					"name": "swapETHForExactTokens",
					"outputs": [
						{
							"internalType": "uint256[]",
							"name": "amounts",
							"type": "uint256[]"
						}
					],
					"stateMutability": "payable",
					"type": "function"
				},
				{
					"inputs": [
						{
							"internalType": "uint256",
							"name": "amountOutMin",
							"type": "uint256"
						},
						{
							"internalType": "address[]",
							"name": "path",
							"type": "address[]"
						},
						{
							"internalType": "address",
							"name": "to",
							"type": "address"
						},
						{
							"internalType": "uint256",
							"name": "deadline",
							"type": "uint256"
						}
					],
					"name": "swapExactETHForTokens",
					"outputs": [
						{
							"internalType": "uint256[]",
							"name": "amounts",
							"type": "uint256[]"
						}
					],
					"stateMutability": "payable",
					"type": "function"
				},
				{
					"inputs": [
						{
							"internalType": "uint256",
							"name": "amountOutMin",
							"type": "uint256"
						},
						{
							"internalType": "address[]",
							"name": "path",
							"type": "address[]"
						},
						{
							"internalType": "address",
							"name": "to",
							"type": "address"
						},
						{
							"internalType": "uint256",
							"name": "deadline",
							"type": "uint256"
						}
					],
					"name": "swapExactETHForTokensSupportingFeeOnTransferTokens",
					"outputs": [],
					"stateMutability": "payable",
					"type": "function"
				},
				{
					"inputs": [
						{
							"internalType": "uint256",
							"name": "amountIn",
							"type": "uint256"
						},
						{
							"internalType": "uint256",
							"name": "amountOutMin",
							"type": "uint256"
						},
						{
							"internalType": "address[]",
							"name": "path",
							"type": "address[]"
						},
						{
							"internalType": "address",
							"name": "to",
							"type": "address"
						},
						{
							"internalType": "uint256",
							"name": "deadline",
							"type": "uint256"
						}
					],
					"name": "swapExactTokensForETH",
					"outputs": [
						{
							"internalType": "uint256[]",
							"name": "amounts",
							"type": "uint256[]"
						}
					],
					"stateMutability": "nonpayable",
					"type": "function"
				},
				{
					"inputs": [
						{
							"internalType": "uint256",
							"name": "amountIn",
							"type": "uint256"
						},
						{
							"internalType": "uint256",
							"name": "amountOutMin",
							"type": "uint256"
						},
						{
							"internalType": "address[]",
							"name": "path",
							"type": "address[]"
						},
						{
							"internalType": "address",
							"name": "to",
							"type": "address"
						},
						{
							"internalType": "uint256",
							"name": "deadline",
							"type": "uint256"
						}
					],
					"name": "swapExactTokensForETHSupportingFeeOnTransferTokens",
					"outputs": [],
					"stateMutability": "nonpayable",
					"type": "function"
				},
				{
					"inputs": [
						{
							"internalType": "uint256",
							"name": "amountIn",
							"type": "uint256"
						},
						{
							"internalType": "uint256",
							"name": "amountOutMin",
							"type": "uint256"
						},
						{
							"internalType": "address[]",
							"name": "path",
							"type": "address[]"
						},
						{
							"internalType": "address",
							"name": "to",
							"type": "address"
						},
						{
							"internalType": "uint256",
							"name": "deadline",
							"type": "uint256"
						}
					],
					"name": "swapExactTokensForTokens",
					"outputs": [
						{
							"internalType": "uint256[]",
							"name": "amounts",
							"type": "uint256[]"
						}
					],
					"stateMutability": "nonpayable",
					"type": "function"
				},
				{
					"inputs": [
						{
							"internalType": "uint256",
							"name": "amountIn",
							"type": "uint256"
						},
						{
							"internalType": "uint256",
							"name": "amountOutMin",
							"type": "uint256"
						},
						{
							"internalType": "address[]",
							"name": "path",
							"type": "address[]"
						},
						{
							"internalType": "address",
							"name": "to",
							"type": "address"
						},
						{
							"internalType": "uint256",
							"name": "deadline",
							"type": "uint256"
						}
					],
					"name": "swapExactTokensForTokensSupportingFeeOnTransferTokens",
					"outputs": [],
					"stateMutability": "nonpayable",
					"type": "function"
				},
				{
					"inputs": [
						{
							"internalType": "uint256",
							"name": "amountOut",
							"type": "uint256"
						},
						{
							"internalType": "uint256",
							"name": "amountInMax",
							"type": "uint256"
						},
						{
							"internalType": "address[]",
							"name": "path",
							"type": "address[]"
						},
						{
							"internalType": "address",
							"name": "to",
							"type": "address"
						},
						{
							"internalType": "uint256",
							"name": "deadline",
							"type": "uint256"
						}
					],
					"name": "swapTokensForExactETH",
					"outputs": [
						{
							"internalType": "uint256[]",
							"name": "amounts",
							"type": "uint256[]"
						}
					],
					"stateMutability": "nonpayable",
					"type": "function"
				},
				{
					"inputs": [
						{
							"internalType": "uint256",
							"name": "amountOut",
							"type": "uint256"
						},
						{
							"internalType": "uint256",
							"name": "amountInMax",
							"type": "uint256"
						},
						{
							"internalType": "address[]",
							"name": "path",
							"type": "address[]"
						},
						{
							"internalType": "address",
							"name": "to",
							"type": "address"
						},
						{
							"internalType": "uint256",
							"name": "deadline",
							"type": "uint256"
						}
					],
					"name": "swapTokensForExactTokens",
					"outputs": [
						{
							"internalType": "uint256[]",
							"name": "amounts",
							"type": "uint256[]"
						}
					],
					"stateMutability": "nonpayable",
					"type": "function"
				},
				{
					"stateMutability": "payable",
					"type": "receive"
				}
			],
			"devdoc": {
				"kind": "dev",
				"methods": {},
				"version": 1
			},
			"evm": {
				"assembly": "    /* \"UniswapV2Router02.sol\":398:19326  contract UniswapV2Router02 is IUniswapV2Router02 {\r... */\n  mstore(0x40, 0xc0)\n    /* \"UniswapV2Router02.sol\":754:916  constructor(address _factory, address _WETH, uint256 _adminFee) public {\r... */\n  callvalue\n  dup1\n  iszero\n  tag_1\n  jumpi\n  0x00\n  dup1\n  revert\ntag_1:\n  pop\n  mload(0x40)\n  sub(codesize, bytecodeSize)\n  dup1\n  bytecodeSize\n  dup4\n  codecopy\n  dup2\n  dup2\n  add\n  0x40\n  mstore\n  0x60\n  dup2\n  lt\n  iszero\n  tag_2\n  jumpi\n  0x00\n  dup1\n  revert\ntag_2:\n  pop\n  dup1\n  mload\n  0x20\n  dup3\n  add\n  mload\n  0x40\n  swap1\n  swap3\n  add\n  mload\n  not(sub(shl(0x60, 0x01), 0x01))\n  0x60\n    /* \"UniswapV2Router02.sol\":836:854  factory = _factory */\n  swap3\n  dup4\n  shl\n  dup2\n  and\n  0x80\n  mstore\n    /* \"UniswapV2Router02.sol\":865:877  WETH = _WETH */\n  swap3\n  swap1\n  swap2\n  shl\n  swap1\n  swap2\n  and\n  0xa0\n  mstore\n    /* \"UniswapV2Router02.sol\":888:896  adminFee */\n  0x00\n    /* \"UniswapV2Router02.sol\":888:908  adminFee = _adminFee */\n  sstore\n    /* \"UniswapV2Router02.sol\":398:19326  contract UniswapV2Router02 is IUniswapV2Router02 {\r... */\n  shr(0x60, mload(0x80))\n  shr(0x60, mload(0xa0))\n  codecopy(0x00, dataOffset(sub_0), dataSize(sub_0))\n  assignImmutable(\"0x8f59e018e114ef4f0f13f738daa411333c6421e3f33ae68ce5c638756a827d85\")\n  assignImmutable(\"0xb4bf3508f2fd7bb126e7af9e4fe31dbb3cdf386df5936668ea4d8292a4a1b188\")\n  return(0x00, dataSize(sub_0))\nstop\n\nsub_0: assembly {\n        /* \"UniswapV2Router02.sol\":398:19326  contract UniswapV2Router02 is IUniswapV2Router02 {\r... */\n      mstore(0x40, 0x80)\n      jumpi(tag_1, lt(calldatasize, 0x04))\n      shr(0xe0, calldataload(0x00))\n      dup1\n      0x8803dbee\n      gt\n      tag_29\n      jumpi\n      dup1\n      0xbaa2abde\n      gt\n      tag_30\n      jumpi\n      dup1\n      0xded9382a\n      gt\n      tag_31\n      jumpi\n      dup1\n      0xded9382a\n      eq\n      tag_25\n      jumpi\n      dup1\n      0xe8e33700\n      eq\n      tag_26\n      jumpi\n      dup1\n      0xf305d719\n      eq\n      tag_27\n      jumpi\n      dup1\n      0xfb3bdb41\n      eq\n      tag_28\n      jumpi\n      jump(tag_2)\n    tag_31:\n      dup1\n      0xbaa2abde\n      eq\n      tag_22\n      jumpi\n      dup1\n      0xc45a0155\n      eq\n      tag_23\n      jumpi\n      dup1\n      0xd06ca61f\n      eq\n      tag_24\n      jumpi\n      jump(tag_2)\n    tag_30:\n      dup1\n      0x8803dbee\n      eq\n      tag_16\n      jumpi\n      dup1\n      0xa0be06f9\n      eq\n      tag_17\n      jumpi\n      dup1\n      0xad5c4648\n      eq\n      tag_18\n      jumpi\n      dup1\n      0xad615dec\n      eq\n      tag_19\n      jumpi\n      dup1\n      0xaf2979eb\n      eq\n      tag_20\n      jumpi\n      dup1\n      0xb6f9de95\n      eq\n      tag_21\n      jumpi\n      jump(tag_2)\n    tag_29:\n      dup1\n      0x38ed1739\n      gt\n      tag_32\n      jumpi\n      dup1\n      0x5c11d795\n      gt\n      tag_33\n      jumpi\n      dup1\n      0x5c11d795\n      eq\n      tag_12\n      jumpi\n      dup1\n      0x791ac947\n      eq\n      tag_13\n      jumpi\n      dup1\n      0x7ff36ab5\n      eq\n      tag_14\n      jumpi\n      dup1\n      0x85f8c259\n      eq\n      tag_15\n      jumpi\n      jump(tag_2)\n    tag_33:\n      dup1\n      0x38ed1739\n      eq\n      tag_9\n      jumpi\n      dup1\n      0x4a25d94a\n      eq\n      tag_10\n      jumpi\n      dup1\n      0x5b0d5984\n      eq\n      tag_11\n      jumpi\n      jump(tag_2)\n    tag_32:\n      dup1\n      0x02751cec\n      eq\n      tag_3\n      jumpi\n      dup1\n      0x054d50d4\n      eq\n      tag_4\n      jumpi\n      dup1\n      0x18cbafe5\n      eq\n      tag_5\n      jumpi\n      dup1\n      0x1f00ca74\n      eq\n      tag_6\n      jumpi\n      dup1\n      0x2195995c\n      eq\n      tag_7\n      jumpi\n      dup1\n      0x2a905ccc\n      eq\n      tag_8\n      jumpi\n      jump(tag_2)\n    tag_1:\n      jumpi(tag_2, calldatasize)\n        /* \"UniswapV2Router02.sol\":969:979  msg.sender */\n      caller\n      sub(shl(0xa0, 0x01), 0x01)\n        /* \"UniswapV2Router02.sol\":983:987  WETH */\n      immutable(\"0x8f59e018e114ef4f0f13f738daa411333c6421e3f33ae68ce5c638756a827d85\")\n        /* \"UniswapV2Router02.sol\":969:987  msg.sender == WETH */\n      and\n      eq\n        /* \"UniswapV2Router02.sol\":962:988  assert(msg.sender == WETH) */\n      tag_36\n      jumpi\n      invalid\n    tag_36:\n        /* \"UniswapV2Router02.sol\":398:19326  contract UniswapV2Router02 is IUniswapV2Router02 {\r... */\n      stop\n    tag_2:\n      0x00\n      dup1\n      revert\n        /* \"UniswapV2Router02.sol\":5126:5799  function removeLiquidityETH(\r... */\n    tag_3:\n      callvalue\n      dup1\n      iszero\n      tag_37\n      jumpi\n      0x00\n      dup1\n      revert\n    tag_37:\n      pop\n      tag_38\n      0x04\n      dup1\n      calldatasize\n      sub\n      0xc0\n      dup2\n      lt\n      iszero\n      tag_39\n      jumpi\n      0x00\n      dup1\n      revert\n    tag_39:\n      pop\n      sub(shl(0xa0, 0x01), 0x01)\n      dup2\n      calldataload\n      dup2\n      and\n      swap2\n      0x20\n      dup2\n      add\n      calldataload\n      swap2\n      0x40\n      dup3\n      add\n      calldataload\n      swap2\n      0x60\n      dup2\n      add\n      calldataload\n      swap2\n      0x80\n      dup3\n      add\n      calldataload\n      and\n      swap1\n      0xa0\n      add\n      calldataload\n      tag_40\n      jump\t// in\n    tag_38:\n      0x40\n      dup1\n      mload\n      swap3\n      dup4\n      mstore\n      0x20\n      dup4\n      add\n      swap2\n      swap1\n      swap2\n      mstore\n      dup1\n      mload\n      swap2\n      dup3\n      swap1\n      sub\n      add\n      swap1\n      return\n        /* \"UniswapV2Router02.sol\":18257:18503  function getAmountOut(\r... */\n    tag_4:\n      callvalue\n      dup1\n      iszero\n      tag_41\n      jumpi\n      0x00\n      dup1\n      revert\n    tag_41:\n      pop\n      tag_42\n      0x04\n      dup1\n      calldatasize\n      sub\n      0x60\n      dup2\n      lt\n      iszero\n      tag_43\n      jumpi\n      0x00\n      dup1\n      revert\n    tag_43:\n      pop\n      dup1\n      calldataload\n      swap1\n      0x20\n      dup2\n      add\n      calldataload\n      swap1\n      0x40\n      add\n      calldataload\n      tag_44\n      jump\t// in\n    tag_42:\n      0x40\n      dup1\n      mload\n      swap2\n      dup3\n      mstore\n      mload\n      swap1\n      dup2\n      swap1\n      sub\n      0x20\n      add\n      swap1\n      return\n        /* \"UniswapV2Router02.sol\":12510:13401  function swapExactTokensForETH(\r... */\n    tag_5:\n      callvalue\n      dup1\n      iszero\n      tag_45\n      jumpi\n      0x00\n      dup1\n      revert\n    tag_45:\n      pop\n      tag_46\n      0x04\n      dup1\n      calldatasize\n      sub\n      0xa0\n      dup2\n      lt\n      iszero\n      tag_47\n      jumpi\n      0x00\n      dup1\n      revert\n    tag_47:\n      dup2\n      calldataload\n      swap2\n      0x20\n      dup2\n      add\n      calldataload\n      swap2\n      dup2\n      add\n      swap1\n      0x60\n      dup2\n      add\n      0x40\n      dup3\n      add\n      calldataload\n      shl(0x20, 0x01)\n      dup2\n      gt\n      iszero\n      tag_48\n      jumpi\n      0x00\n      dup1\n      revert\n    tag_48:\n      dup3\n      add\n      dup4\n      0x20\n      dup3\n      add\n      gt\n      iszero\n      tag_49\n      jumpi\n      0x00\n      dup1\n      revert\n    tag_49:\n      dup1\n      calldataload\n      swap1\n      0x20\n      add\n      swap2\n      dup5\n      0x20\n      dup4\n      mul\n      dup5\n      add\n      gt\n      shl(0x20, 0x01)\n      dup4\n      gt\n      or\n      iszero\n      tag_50\n      jumpi\n      0x00\n      dup1\n      revert\n    tag_50:\n      swap2\n      swap4\n      pop\n      swap2\n      pop\n      sub(shl(0xa0, 0x01), 0x01)\n      dup2\n      calldataload\n      and\n      swap1\n      0x20\n      add\n      calldataload\n      tag_51\n      jump\t// in\n    tag_46:\n      0x40\n      dup1\n      mload\n      0x20\n      dup1\n      dup3\n      mstore\n      dup4\n      mload\n      dup2\n      dup4\n      add\n      mstore\n      dup4\n      mload\n      swap2\n      swap3\n      dup4\n      swap3\n      swap1\n      dup4\n      add\n      swap2\n      dup6\n      dup2\n      add\n      swap2\n      mul\n      dup1\n      dup4\n      dup4\n      0x00\n    tag_52:\n      dup4\n      dup2\n      lt\n      iszero\n      tag_54\n      jumpi\n      dup2\n      dup2\n      add\n      mload\n      dup4\n      dup3\n      add\n      mstore\n      0x20\n      add\n      jump(tag_52)\n    tag_54:\n      pop\n      pop\n      pop\n      pop\n      swap1\n      pop\n      add\n      swap3\n      pop\n      pop\n      pop\n      mload(0x40)\n      dup1\n      swap2\n      sub\n      swap1\n      return\n        /* \"UniswapV2Router02.sol\":19000:19228  function getAmountsIn(\r... */\n    tag_6:\n      callvalue\n      dup1\n      iszero\n      tag_55\n      jumpi\n      0x00\n      dup1\n      revert\n    tag_55:\n      pop\n      tag_46\n      0x04\n      dup1\n      calldatasize\n      sub\n      0x40\n      dup2\n      lt\n      iszero\n      tag_57\n      jumpi\n      0x00\n      dup1\n      revert\n    tag_57:\n      dup2\n      calldataload\n      swap2\n      swap1\n      dup2\n      add\n      swap1\n      0x40\n      dup2\n      add\n      0x20\n      dup3\n      add\n      calldataload\n      shl(0x20, 0x01)\n      dup2\n      gt\n      iszero\n      tag_58\n      jumpi\n      0x00\n      dup1\n      revert\n    tag_58:\n      dup3\n      add\n      dup4\n      0x20\n      dup3\n      add\n      gt\n      iszero\n      tag_59\n      jumpi\n      0x00\n      dup1\n      revert\n    tag_59:\n      dup1\n      calldataload\n      swap1\n      0x20\n      add\n      swap2\n      dup5\n      0x20\n      dup4\n      mul\n      dup5\n      add\n      gt\n      shl(0x20, 0x01)\n      dup4\n      gt\n      or\n      iszero\n      tag_60\n      jumpi\n      0x00\n      dup1\n      revert\n    tag_60:\n      swap2\n      swap1\n      dup1\n      dup1\n      0x20\n      mul\n      0x20\n      add\n      mload(0x40)\n      swap1\n      dup2\n      add\n      0x40\n      mstore\n      dup1\n      swap4\n      swap3\n      swap2\n      swap1\n      dup2\n      dup2\n      mstore\n      0x20\n      add\n      dup4\n      dup4\n      0x20\n      mul\n      dup1\n      dup3\n      dup5\n      calldatacopy\n      0x00\n      swap3\n      add\n      swap2\n      swap1\n      swap2\n      mstore\n      pop\n      swap3\n      swap6\n      pop\n      tag_61\n      swap5\n      pop\n      pop\n      pop\n      pop\n      pop\n      jump\t// in\n        /* \"UniswapV2Router02.sol\":5807:6511  function removeLiquidityWithPermit(\r... */\n    tag_7:\n      callvalue\n      dup1\n      iszero\n      tag_65\n      jumpi\n      0x00\n      dup1\n      revert\n    tag_65:\n      pop\n      tag_38\n      0x04\n      dup1\n      calldatasize\n      sub\n      0x0160\n      dup2\n      lt\n      iszero\n      tag_67\n      jumpi\n      0x00\n      dup1\n      revert\n    tag_67:\n      pop\n      sub(shl(0xa0, 0x01), 0x01)\n      dup2\n      calldataload\n      dup2\n      and\n      swap2\n      0x20\n      dup2\n      add\n      calldataload\n      dup3\n      and\n      swap2\n      0x40\n      dup3\n      add\n      calldataload\n      swap2\n      0x60\n      dup2\n      add\n      calldataload\n      swap2\n      0x80\n      dup3\n      add\n      calldataload\n      swap2\n      0xa0\n      dup2\n      add\n      calldataload\n      swap1\n      swap2\n      and\n      swap1\n      0xc0\n      dup2\n      add\n      calldataload\n      swap1\n      0xe0\n      dup2\n      add\n      calldataload\n      iszero\n      iszero\n      swap1\n      0xff\n      0x0100\n      dup3\n      add\n      calldataload\n      and\n      swap1\n      0x0120\n      dup2\n      add\n      calldataload\n      swap1\n      0x0140\n      add\n      calldataload\n      tag_68\n      jump\t// in\n        /* \"UniswapV2Router02.sol\":19236:19323  function getAdminFee() public view returns (uint256) {\r... */\n    tag_8:\n      callvalue\n      dup1\n      iszero\n      tag_69\n      jumpi\n      0x00\n      dup1\n      revert\n    tag_69:\n      pop\n      tag_42\n      tag_71\n      jump\t// in\n        /* \"UniswapV2Router02.sol\":9616:10283  function swapExactTokensForTokens(\r... */\n    tag_9:\n      callvalue\n      dup1\n      iszero\n      tag_72\n      jumpi\n      0x00\n      dup1\n      revert\n    tag_72:\n      pop\n      tag_46\n      0x04\n      dup1\n      calldatasize\n      sub\n      0xa0\n      dup2\n      lt\n      iszero\n      tag_74\n      jumpi\n      0x00\n      dup1\n      revert\n    tag_74:\n      dup2\n      calldataload\n      swap2\n      0x20\n      dup2\n      add\n      calldataload\n      swap2\n      dup2\n      add\n      swap1\n      0x60\n      dup2\n      add\n      0x40\n      dup3\n      add\n      calldataload\n      shl(0x20, 0x01)\n      dup2\n      gt\n      iszero\n      tag_75\n      jumpi\n      0x00\n      dup1\n      revert\n    tag_75:\n      dup3\n      add\n      dup4\n      0x20\n      dup3\n      add\n      gt\n      iszero\n      tag_76\n      jumpi\n      0x00\n      dup1\n      revert\n    tag_76:\n      dup1\n      calldataload\n      swap1\n      0x20\n      add\n      swap2\n      dup5\n      0x20\n      dup4\n      mul\n      dup5\n      add\n      gt\n      shl(0x20, 0x01)\n      dup4\n      gt\n      or\n      iszero\n      tag_77\n      jumpi\n      0x00\n      dup1\n      revert\n    tag_77:\n      swap2\n      swap4\n      pop\n      swap2\n      pop\n      sub(shl(0xa0, 0x01), 0x01)\n      dup2\n      calldataload\n      and\n      swap1\n      0x20\n      add\n      calldataload\n      tag_78\n      jump\t// in\n        /* \"UniswapV2Router02.sol\":11633:12502  function swapTokensForExactETH(\r... */\n    tag_10:\n      callvalue\n      dup1\n      iszero\n      tag_82\n      jumpi\n      0x00\n      dup1\n      revert\n    tag_82:\n      pop\n      tag_46\n      0x04\n      dup1\n      calldatasize\n      sub\n      0xa0\n      dup2\n      lt\n      iszero\n      tag_84\n      jumpi\n      0x00\n      dup1\n      revert\n    tag_84:\n      dup2\n      calldataload\n      swap2\n      0x20\n      dup2\n      add\n      calldataload\n      swap2\n      dup2\n      add\n      swap1\n      0x60\n      dup2\n      add\n      0x40\n      dup3\n      add\n      calldataload\n      shl(0x20, 0x01)\n      dup2\n      gt\n      iszero\n      tag_85\n      jumpi\n      0x00\n      dup1\n      revert\n    tag_85:\n      dup3\n      add\n      dup4\n      0x20\n      dup3\n      add\n      gt\n      iszero\n      tag_86\n      jumpi\n      0x00\n      dup1\n      revert\n    tag_86:\n      dup1\n      calldataload\n      swap1\n      0x20\n      add\n      swap2\n      dup5\n      0x20\n      dup4\n      mul\n      dup5\n      add\n      gt\n      shl(0x20, 0x01)\n      dup4\n      gt\n      or\n      iszero\n      tag_87\n      jumpi\n      0x00\n      dup1\n      revert\n    tag_87:\n      swap2\n      swap4\n      pop\n      swap2\n      pop\n      sub(shl(0xa0, 0x01), 0x01)\n      dup2\n      calldataload\n      and\n      swap1\n      0x20\n      add\n      calldataload\n      tag_88\n      jump\t// in\n        /* \"UniswapV2Router02.sol\":7900:8710  function removeLiquidityETHWithPermitSupportingFeeOnTransferTokens(\r... */\n    tag_11:\n      callvalue\n      dup1\n      iszero\n      tag_92\n      jumpi\n      0x00\n      dup1\n      revert\n    tag_92:\n      pop\n      tag_42\n      0x04\n      dup1\n      calldatasize\n      sub\n      0x0140\n      dup2\n      lt\n      iszero\n      tag_94\n      jumpi\n      0x00\n      dup1\n      revert\n    tag_94:\n      pop\n      sub(shl(0xa0, 0x01), 0x01)\n      dup2\n      calldataload\n      dup2\n      and\n      swap2\n      0x20\n      dup2\n      add\n      calldataload\n      swap2\n      0x40\n      dup3\n      add\n      calldataload\n      swap2\n      0x60\n      dup2\n      add\n      calldataload\n      swap2\n      0x80\n      dup3\n      add\n      calldataload\n      and\n      swap1\n      0xa0\n      dup2\n      add\n      calldataload\n      swap1\n      0xc0\n      dup2\n      add\n      calldataload\n      iszero\n      iszero\n      swap1\n      0xff\n      0xe0\n      dup3\n      add\n      calldataload\n      and\n      swap1\n      0x0100\n      dup2\n      add\n      calldataload\n      swap1\n      0x0120\n      add\n      calldataload\n      tag_95\n      jump\t// in\n        /* \"UniswapV2Router02.sol\":15607:16360  function swapExactTokensForTokensSupportingFeeOnTransferTokens(\r... */\n    tag_12:\n      callvalue\n      dup1\n      iszero\n      tag_96\n      jumpi\n      0x00\n      dup1\n      revert\n    tag_96:\n      pop\n      tag_36\n      0x04\n      dup1\n      calldatasize\n      sub\n      0xa0\n      dup2\n      lt\n      iszero\n      tag_98\n      jumpi\n      0x00\n      dup1\n      revert\n    tag_98:\n      dup2\n      calldataload\n      swap2\n      0x20\n      dup2\n      add\n      calldataload\n      swap2\n      dup2\n      add\n      swap1\n      0x60\n      dup2\n      add\n      0x40\n      dup3\n      add\n      calldataload\n      shl(0x20, 0x01)\n      dup2\n      gt\n      iszero\n      tag_99\n      jumpi\n      0x00\n      dup1\n      revert\n    tag_99:\n      dup3\n      add\n      dup4\n      0x20\n      dup3\n      add\n      gt\n      iszero\n      tag_100\n      jumpi\n      0x00\n      dup1\n      revert\n    tag_100:\n      dup1\n      calldataload\n      swap1\n      0x20\n      add\n      swap2\n      dup5\n      0x20\n      dup4\n      mul\n      dup5\n      add\n      gt\n      shl(0x20, 0x01)\n      dup4\n      gt\n      or\n      iszero\n      tag_101\n      jumpi\n      0x00\n      dup1\n      revert\n    tag_101:\n      swap2\n      swap4\n      pop\n      swap2\n      pop\n      sub(shl(0xa0, 0x01), 0x01)\n      dup2\n      calldataload\n      and\n      swap1\n      0x20\n      add\n      calldataload\n      tag_102\n      jump\t// in\n        /* \"UniswapV2Router02.sol\":17176:18017  function swapExactTokensForETHSupportingFeeOnTransferTokens(\r... */\n    tag_13:\n      callvalue\n      dup1\n      iszero\n      tag_103\n      jumpi\n      0x00\n      dup1\n      revert\n    tag_103:\n      pop\n      tag_36\n      0x04\n      dup1\n      calldatasize\n      sub\n      0xa0\n      dup2\n      lt\n      iszero\n      tag_105\n      jumpi\n      0x00\n      dup1\n      revert\n    tag_105:\n      dup2\n      calldataload\n      swap2\n      0x20\n      dup2\n      add\n      calldataload\n      swap2\n      dup2\n      add\n      swap1\n      0x60\n      dup2\n      add\n      0x40\n      dup3\n      add\n      calldataload\n      shl(0x20, 0x01)\n      dup2\n      gt\n      iszero\n      tag_106\n      jumpi\n      0x00\n      dup1\n      revert\n    tag_106:\n      dup3\n      add\n      dup4\n      0x20\n      dup3\n      add\n      gt\n      iszero\n      tag_107\n      jumpi\n      0x00\n      dup1\n      revert\n    tag_107:\n      dup1\n      calldataload\n      swap1\n      0x20\n      add\n      swap2\n      dup5\n      0x20\n      dup4\n      mul\n      dup5\n      add\n      gt\n      shl(0x20, 0x01)\n      dup4\n      gt\n      or\n      iszero\n      tag_108\n      jumpi\n      0x00\n      dup1\n      revert\n    tag_108:\n      swap2\n      swap4\n      pop\n      swap2\n      pop\n      sub(shl(0xa0, 0x01), 0x01)\n      dup2\n      calldataload\n      and\n      swap1\n      0x20\n      add\n      calldataload\n      tag_109\n      jump\t// in\n        /* \"UniswapV2Router02.sol\":10944:11625  function swapExactETHForTokens(\r... */\n    tag_14:\n      tag_46\n      0x04\n      dup1\n      calldatasize\n      sub\n      0x80\n      dup2\n      lt\n      iszero\n      tag_111\n      jumpi\n      0x00\n      dup1\n      revert\n    tag_111:\n      dup2\n      calldataload\n      swap2\n      swap1\n      dup2\n      add\n      swap1\n      0x40\n      dup2\n      add\n      0x20\n      dup3\n      add\n      calldataload\n      shl(0x20, 0x01)\n      dup2\n      gt\n      iszero\n      tag_112\n      jumpi\n      0x00\n      dup1\n      revert\n    tag_112:\n      dup3\n      add\n      dup4\n      0x20\n      dup3\n      add\n      gt\n      iszero\n      tag_113\n      jumpi\n      0x00\n      dup1\n      revert\n    tag_113:\n      dup1\n      calldataload\n      swap1\n      0x20\n      add\n      swap2\n      dup5\n      0x20\n      dup4\n      mul\n      dup5\n      add\n      gt\n      shl(0x20, 0x01)\n      dup4\n      gt\n      or\n      iszero\n      tag_114\n      jumpi\n      0x00\n      dup1\n      revert\n    tag_114:\n      swap2\n      swap4\n      pop\n      swap2\n      pop\n      sub(shl(0xa0, 0x01), 0x01)\n      dup2\n      calldataload\n      and\n      swap1\n      0x20\n      add\n      calldataload\n      tag_115\n      jump\t// in\n        /* \"UniswapV2Router02.sol\":18511:18756  function getAmountIn(\r... */\n    tag_15:\n      callvalue\n      dup1\n      iszero\n      tag_119\n      jumpi\n      0x00\n      dup1\n      revert\n    tag_119:\n      pop\n      tag_42\n      0x04\n      dup1\n      calldatasize\n      sub\n      0x60\n      dup2\n      lt\n      iszero\n      tag_121\n      jumpi\n      0x00\n      dup1\n      revert\n    tag_121:\n      pop\n      dup1\n      calldataload\n      swap1\n      0x20\n      dup2\n      add\n      calldataload\n      swap1\n      0x40\n      add\n      calldataload\n      tag_122\n      jump\t// in\n        /* \"UniswapV2Router02.sol\":10291:10936  function swapTokensForExactTokens(\r... */\n    tag_16:\n      callvalue\n      dup1\n      iszero\n      tag_123\n      jumpi\n      0x00\n      dup1\n      revert\n    tag_123:\n      pop\n      tag_46\n      0x04\n      dup1\n      calldatasize\n      sub\n      0xa0\n      dup2\n      lt\n      iszero\n      tag_125\n      jumpi\n      0x00\n      dup1\n      revert\n    tag_125:\n      dup2\n      calldataload\n      swap2\n      0x20\n      dup2\n      add\n      calldataload\n      swap2\n      dup2\n      add\n      swap1\n      0x60\n      dup2\n      add\n      0x40\n      dup3\n      add\n      calldataload\n      shl(0x20, 0x01)\n      dup2\n      gt\n      iszero\n      tag_126\n      jumpi\n      0x00\n      dup1\n      revert\n    tag_126:\n      dup3\n      add\n      dup4\n      0x20\n      dup3\n      add\n      gt\n      iszero\n      tag_127\n      jumpi\n      0x00\n      dup1\n      revert\n    tag_127:\n      dup1\n      calldataload\n      swap1\n      0x20\n      add\n      swap2\n      dup5\n      0x20\n      dup4\n      mul\n      dup5\n      add\n      gt\n      shl(0x20, 0x01)\n      dup4\n      gt\n      or\n      iszero\n      tag_128\n      jumpi\n      0x00\n      dup1\n      revert\n    tag_128:\n      swap2\n      swap4\n      pop\n      swap2\n      pop\n      sub(shl(0xa0, 0x01), 0x01)\n      dup2\n      calldataload\n      and\n      swap1\n      0x20\n      add\n      calldataload\n      tag_129\n      jump\t// in\n        /* \"UniswapV2Router02.sol\":579:611  uint256 public override adminFee */\n    tag_17:\n      callvalue\n      dup1\n      iszero\n      tag_133\n      jumpi\n      0x00\n      dup1\n      revert\n    tag_133:\n      pop\n      tag_42\n      tag_135\n      jump\t// in\n        /* \"UniswapV2Router02.sol\":534:572  address public immutable override WETH */\n    tag_18:\n      callvalue\n      dup1\n      iszero\n      tag_136\n      jumpi\n      0x00\n      dup1\n      revert\n    tag_136:\n      pop\n      tag_137\n      tag_138\n      jump\t// in\n    tag_137:\n      0x40\n      dup1\n      mload\n      sub(shl(0xa0, 0x01), 0x01)\n      swap1\n      swap3\n      and\n      dup3\n      mstore\n      mload\n      swap1\n      dup2\n      swap1\n      sub\n      0x20\n      add\n      swap1\n      return\n        /* \"UniswapV2Router02.sol\":18061:18249  function quote(uint amountA, uint reserveA, uint reserveB) public pure virtual override returns (uint amountB) {\r... */\n    tag_19:\n      callvalue\n      dup1\n      iszero\n      tag_139\n      jumpi\n      0x00\n      dup1\n      revert\n    tag_139:\n      pop\n      tag_42\n      0x04\n      dup1\n      calldatasize\n      sub\n      0x60\n      dup2\n      lt\n      iszero\n      tag_141\n      jumpi\n      0x00\n      dup1\n      revert\n    tag_141:\n      pop\n      dup1\n      calldataload\n      swap1\n      0x20\n      dup2\n      add\n      calldataload\n      swap1\n      0x40\n      add\n      calldataload\n      tag_142\n      jump\t// in\n        /* \"UniswapV2Router02.sol\":7294:7892  function removeLiquidityETHSupportingFeeOnTransferTokens(\r... */\n    tag_20:\n      callvalue\n      dup1\n      iszero\n      tag_143\n      jumpi\n      0x00\n      dup1\n      revert\n    tag_143:\n      pop\n      tag_42\n      0x04\n      dup1\n      calldatasize\n      sub\n      0xc0\n      dup2\n      lt\n      iszero\n      tag_145\n      jumpi\n      0x00\n      dup1\n      revert\n    tag_145:\n      pop\n      sub(shl(0xa0, 0x01), 0x01)\n      dup2\n      calldataload\n      dup2\n      and\n      swap2\n      0x20\n      dup2\n      add\n      calldataload\n      swap2\n      0x40\n      dup3\n      add\n      calldataload\n      swap2\n      0x60\n      dup2\n      add\n      calldataload\n      swap2\n      0x80\n      dup3\n      add\n      calldataload\n      and\n      swap1\n      0xa0\n      add\n      calldataload\n      tag_146\n      jump\t// in\n        /* \"UniswapV2Router02.sol\":16368:17168  function swapExactETHForTokensSupportingFeeOnTransferTokens(\r... */\n    tag_21:\n      tag_36\n      0x04\n      dup1\n      calldatasize\n      sub\n      0x80\n      dup2\n      lt\n      iszero\n      tag_148\n      jumpi\n      0x00\n      dup1\n      revert\n    tag_148:\n      dup2\n      calldataload\n      swap2\n      swap1\n      dup2\n      add\n      swap1\n      0x40\n      dup2\n      add\n      0x20\n      dup3\n      add\n      calldataload\n      shl(0x20, 0x01)\n      dup2\n      gt\n      iszero\n      tag_149\n      jumpi\n      0x00\n      dup1\n      revert\n    tag_149:\n      dup3\n      add\n      dup4\n      0x20\n      dup3\n      add\n      gt\n      iszero\n      tag_150\n      jumpi\n      0x00\n      dup1\n      revert\n    tag_150:\n      dup1\n      calldataload\n      swap1\n      0x20\n      add\n      swap2\n      dup5\n      0x20\n      dup4\n      mul\n      dup5\n      add\n      gt\n      shl(0x20, 0x01)\n      dup4\n      gt\n      or\n      iszero\n      tag_151\n      jumpi\n      0x00\n      dup1\n      revert\n    tag_151:\n      swap2\n      swap4\n      pop\n      swap2\n      pop\n      sub(shl(0xa0, 0x01), 0x01)\n      dup2\n      calldataload\n      and\n      swap1\n      0x20\n      add\n      calldataload\n      tag_152\n      jump\t// in\n        /* \"UniswapV2Router02.sol\":4252:5118  function removeLiquidity(\r... */\n    tag_22:\n      callvalue\n      dup1\n      iszero\n      tag_153\n      jumpi\n      0x00\n      dup1\n      revert\n    tag_153:\n      pop\n      tag_38\n      0x04\n      dup1\n      calldatasize\n      sub\n      0xe0\n      dup2\n      lt\n      iszero\n      tag_155\n      jumpi\n      0x00\n      dup1\n      revert\n    tag_155:\n      pop\n      sub(shl(0xa0, 0x01), 0x01)\n      dup2\n      calldataload\n      dup2\n      and\n      swap2\n      0x20\n      dup2\n      add\n      calldataload\n      dup3\n      and\n      swap2\n      0x40\n      dup3\n      add\n      calldataload\n      swap2\n      0x60\n      dup2\n      add\n      calldataload\n      swap2\n      0x80\n      dup3\n      add\n      calldataload\n      swap2\n      0xa0\n      dup2\n      add\n      calldataload\n      swap1\n      swap2\n      and\n      swap1\n      0xc0\n      add\n      calldataload\n      tag_156\n      jump\t// in\n        /* \"UniswapV2Router02.sol\":486:527  address public immutable override factory */\n    tag_23:\n      callvalue\n      dup1\n      iszero\n      tag_157\n      jumpi\n      0x00\n      dup1\n      revert\n    tag_157:\n      pop\n      tag_137\n      tag_159\n      jump\t// in\n        /* \"UniswapV2Router02.sol\":18764:18992  function getAmountsOut(\r... */\n    tag_24:\n      callvalue\n      dup1\n      iszero\n      tag_160\n      jumpi\n      0x00\n      dup1\n      revert\n    tag_160:\n      pop\n      tag_46\n      0x04\n      dup1\n      calldatasize\n      sub\n      0x40\n      dup2\n      lt\n      iszero\n      tag_162\n      jumpi\n      0x00\n      dup1\n      revert\n    tag_162:\n      dup2\n      calldataload\n      swap2\n      swap1\n      dup2\n      add\n      swap1\n      0x40\n      dup2\n      add\n      0x20\n      dup3\n      add\n      calldataload\n      shl(0x20, 0x01)\n      dup2\n      gt\n      iszero\n      tag_163\n      jumpi\n      0x00\n      dup1\n      revert\n    tag_163:\n      dup3\n      add\n      dup4\n      0x20\n      dup3\n      add\n      gt\n      iszero\n      tag_164\n      jumpi\n      0x00\n      dup1\n      revert\n    tag_164:\n      dup1\n      calldataload\n      swap1\n      0x20\n      add\n      swap2\n      dup5\n      0x20\n      dup4\n      mul\n      dup5\n      add\n      gt\n      shl(0x20, 0x01)\n      dup4\n      gt\n      or\n      iszero\n      tag_165\n      jumpi\n      0x00\n      dup1\n      revert\n    tag_165:\n      swap2\n      swap1\n      dup1\n      dup1\n      0x20\n      mul\n      0x20\n      add\n      mload(0x40)\n      swap1\n      dup2\n      add\n      0x40\n      mstore\n      dup1\n      swap4\n      swap3\n      swap2\n      swap1\n      dup2\n      dup2\n      mstore\n      0x20\n      add\n      dup4\n      dup4\n      0x20\n      mul\n      dup1\n      dup3\n      dup5\n      calldatacopy\n      0x00\n      swap3\n      add\n      swap2\n      swap1\n      swap2\n      mstore\n      pop\n      swap3\n      swap6\n      pop\n      tag_166\n      swap5\n      pop\n      pop\n      pop\n      pop\n      pop\n      jump\t// in\n        /* \"UniswapV2Router02.sol\":6519:7215  function removeLiquidityETHWithPermit(\r... */\n    tag_25:\n      callvalue\n      dup1\n      iszero\n      tag_170\n      jumpi\n      0x00\n      dup1\n      revert\n    tag_170:\n      pop\n      tag_38\n      0x04\n      dup1\n      calldatasize\n      sub\n      0x0140\n      dup2\n      lt\n      iszero\n      tag_172\n      jumpi\n      0x00\n      dup1\n      revert\n    tag_172:\n      pop\n      sub(shl(0xa0, 0x01), 0x01)\n      dup2\n      calldataload\n      dup2\n      and\n      swap2\n      0x20\n      dup2\n      add\n      calldataload\n      swap2\n      0x40\n      dup3\n      add\n      calldataload\n      swap2\n      0x60\n      dup2\n      add\n      calldataload\n      swap2\n      0x80\n      dup3\n      add\n      calldataload\n      and\n      swap1\n      0xa0\n      dup2\n      add\n      calldataload\n      swap1\n      0xc0\n      dup2\n      add\n      calldataload\n      iszero\n      iszero\n      swap1\n      0xff\n      0xe0\n      dup3\n      add\n      calldataload\n      and\n      swap1\n      0x0100\n      dup2\n      add\n      calldataload\n      swap1\n      0x0120\n      add\n      calldataload\n      tag_173\n      jump\t// in\n        /* \"UniswapV2Router02.sol\":2489:3227  function addLiquidity(\r... */\n    tag_26:\n      callvalue\n      dup1\n      iszero\n      tag_174\n      jumpi\n      0x00\n      dup1\n      revert\n    tag_174:\n      pop\n      tag_175\n      0x04\n      dup1\n      calldatasize\n      sub\n      0x0100\n      dup2\n      lt\n      iszero\n      tag_176\n      jumpi\n      0x00\n      dup1\n      revert\n    tag_176:\n      pop\n      sub(shl(0xa0, 0x01), 0x01)\n      dup2\n      calldataload\n      dup2\n      and\n      swap2\n      0x20\n      dup2\n      add\n      calldataload\n      dup3\n      and\n      swap2\n      0x40\n      dup3\n      add\n      calldataload\n      swap2\n      0x60\n      dup2\n      add\n      calldataload\n      swap2\n      0x80\n      dup3\n      add\n      calldataload\n      swap2\n      0xa0\n      dup2\n      add\n      calldataload\n      swap2\n      0xc0\n      dup3\n      add\n      calldataload\n      and\n      swap1\n      0xe0\n      add\n      calldataload\n      tag_177\n      jump\t// in\n    tag_175:\n      0x40\n      dup1\n      mload\n      swap4\n      dup5\n      mstore\n      0x20\n      dup5\n      add\n      swap3\n      swap1\n      swap3\n      mstore\n      dup3\n      dup3\n      add\n      mstore\n      mload\n      swap1\n      dup2\n      swap1\n      sub\n      0x60\n      add\n      swap1\n      return\n        /* \"UniswapV2Router02.sol\":3235:4209  function addLiquidityETH(\r... */\n    tag_27:\n      tag_175\n      0x04\n      dup1\n      calldatasize\n      sub\n      0xc0\n      dup2\n      lt\n      iszero\n      tag_179\n      jumpi\n      0x00\n      dup1\n      revert\n    tag_179:\n      pop\n      sub(shl(0xa0, 0x01), 0x01)\n      dup2\n      calldataload\n      dup2\n      and\n      swap2\n      0x20\n      dup2\n      add\n      calldataload\n      swap2\n      0x40\n      dup3\n      add\n      calldataload\n      swap2\n      0x60\n      dup2\n      add\n      calldataload\n      swap2\n      0x80\n      dup3\n      add\n      calldataload\n      and\n      swap1\n      0xa0\n      add\n      calldataload\n      tag_180\n      jump\t// in\n        /* \"UniswapV2Router02.sol\":13409:14203  function swapETHForExactTokens(\r... */\n    tag_28:\n      tag_46\n      0x04\n      dup1\n      calldatasize\n      sub\n      0x80\n      dup2\n      lt\n      iszero\n      tag_182\n      jumpi\n      0x00\n      dup1\n      revert\n    tag_182:\n      dup2\n      calldataload\n      swap2\n      swap1\n      dup2\n      add\n      swap1\n      0x40\n      dup2\n      add\n      0x20\n      dup3\n      add\n      calldataload\n      shl(0x20, 0x01)\n      dup2\n      gt\n      iszero\n      tag_183\n      jumpi\n      0x00\n      dup1\n      revert\n    tag_183:\n      dup3\n      add\n      dup4\n      0x20\n      dup3\n      add\n      gt\n      iszero\n      tag_184\n      jumpi\n      0x00\n      dup1\n      revert\n    tag_184:\n      dup1\n      calldataload\n      swap1\n      0x20\n      add\n      swap2\n      dup5\n      0x20\n      dup4\n      mul\n      dup5\n      add\n      gt\n      shl(0x20, 0x01)\n      dup4\n      gt\n      or\n      iszero\n      tag_185\n      jumpi\n      0x00\n      dup1\n      revert\n    tag_185:\n      swap2\n      swap4\n      pop\n      swap2\n      pop\n      sub(shl(0xa0, 0x01), 0x01)\n      dup2\n      calldataload\n      and\n      swap1\n      0x20\n      add\n      calldataload\n      tag_186\n      jump\t// in\n        /* \"UniswapV2Router02.sol\":5126:5799  function removeLiquidityETH(\r... */\n    tag_40:\n        /* \"UniswapV2Router02.sol\":5363:5379  uint amountToken */\n      0x00\n        /* \"UniswapV2Router02.sol\":5381:5395  uint amountETH */\n      dup1\n        /* \"UniswapV2Router02.sol\":5344:5352  deadline */\n      dup3\n        /* \"UniswapV2Router02.sol\":682:697  block.timestamp */\n      timestamp\n        /* \"UniswapV2Router02.sol\":670:678  deadline */\n      dup2\n        /* \"UniswapV2Router02.sol\":670:697  deadline >= block.timestamp */\n      lt\n      iszero\n        /* \"UniswapV2Router02.sol\":662:726  require(deadline >= block.timestamp, 'UniswapV2Router: EXPIRED') */\n      tag_191\n      jumpi\n      0x40\n      dup1\n      mload\n      shl(0xe5, 0x461bcd)\n      dup2\n      mstore\n      0x20\n      0x04\n      dup3\n      add\n      mstore\n      0x18\n      0x24\n      dup3\n      add\n      mstore\n      0x00\n      dup1\n      mload\n      0x20\n      data_ee5734acb032ffb1bbaf889d52ccf9fbd1ce0f1ae12bee2c46068d51b910e2c5\n      dup4\n      codecopy\n      dup2\n      mload\n      swap2\n      mstore\n      0x44\n      dup3\n      add\n      mstore\n      swap1\n      mload\n      swap1\n      dup2\n      swap1\n      sub\n      0x64\n      add\n      swap1\n      revert\n    tag_191:\n        /* \"UniswapV2Router02.sol\":5435:5631  removeLiquidity(\r... */\n      tag_193\n        /* \"UniswapV2Router02.sol\":5465:5470  token */\n      dup10\n        /* \"UniswapV2Router02.sol\":5485:5489  WETH */\n      immutable(\"0x8f59e018e114ef4f0f13f738daa411333c6421e3f33ae68ce5c638756a827d85\")\n        /* \"UniswapV2Router02.sol\":5504:5513  liquidity */\n      dup11\n        /* \"UniswapV2Router02.sol\":5528:5542  amountTokenMin */\n      dup11\n        /* \"UniswapV2Router02.sol\":5557:5569  amountETHMin */\n      dup11\n        /* \"UniswapV2Router02.sol\":5592:5596  this */\n      address\n        /* \"UniswapV2Router02.sol\":5612:5620  deadline */\n      dup11\n        /* \"UniswapV2Router02.sol\":5435:5450  removeLiquidity */\n      tag_156\n        /* \"UniswapV2Router02.sol\":5435:5631  removeLiquidity(\r... */\n      jump\t// in\n    tag_193:\n        /* \"UniswapV2Router02.sol\":5408:5631  (amountToken, amountETH) = removeLiquidity(\r... */\n      swap1\n      swap4\n      pop\n      swap2\n      pop\n        /* \"UniswapV2Router02.sol\":5642:5693  TransferHelper.safeTransfer(token, to, amountToken) */\n      tag_194\n        /* \"UniswapV2Router02.sol\":5670:5675  token */\n      dup10\n        /* \"UniswapV2Router02.sol\":5677:5679  to */\n      dup7\n        /* \"UniswapV2Router02.sol\":5408:5631  (amountToken, amountETH) = removeLiquidity(\r... */\n      dup6\n        /* \"UniswapV2Router02.sol\":5642:5669  TransferHelper.safeTransfer */\n      tag_195\n        /* \"UniswapV2Router02.sol\":5642:5693  TransferHelper.safeTransfer(token, to, amountToken) */\n      jump\t// in\n    tag_194:\n        /* \"UniswapV2Router02.sol\":5710:5714  WETH */\n      immutable(\"0x8f59e018e114ef4f0f13f738daa411333c6421e3f33ae68ce5c638756a827d85\")\n      sub(shl(0xa0, 0x01), 0x01)\n        /* \"UniswapV2Router02.sol\":5704:5724  IWETH(WETH).withdraw */\n      and\n      0x2e1a7d4d\n        /* \"UniswapV2Router02.sol\":5725:5734  amountETH */\n      dup4\n        /* \"UniswapV2Router02.sol\":5704:5735  IWETH(WETH).withdraw(amountETH) */\n      mload(0x40)\n      dup3\n      0xffffffff\n      and\n      0xe0\n      shl\n      dup2\n      mstore\n      0x04\n      add\n      dup1\n      dup3\n      dup2\n      mstore\n      0x20\n      add\n      swap2\n      pop\n      pop\n      0x00\n      mload(0x40)\n      dup1\n      dup4\n      sub\n      dup2\n      0x00\n      dup8\n      dup1\n      extcodesize\n      iszero\n      dup1\n      iszero\n      tag_196\n      jumpi\n      0x00\n      dup1\n      revert\n    tag_196:\n      pop\n      gas\n      call\n      iszero\n      dup1\n      iszero\n      tag_198\n      jumpi\n      returndatasize\n      0x00\n      dup1\n      returndatacopy\n      revert(0x00, returndatasize)\n    tag_198:\n      pop\n      pop\n      pop\n      pop\n        /* \"UniswapV2Router02.sol\":5746:5791  TransferHelper.safeTransferETH(to, amountETH) */\n      tag_199\n        /* \"UniswapV2Router02.sol\":5777:5779  to */\n      dup6\n        /* \"UniswapV2Router02.sol\":5781:5790  amountETH */\n      dup4\n        /* \"UniswapV2Router02.sol\":5746:5776  TransferHelper.safeTransferETH */\n      tag_200\n        /* \"UniswapV2Router02.sol\":5746:5791  TransferHelper.safeTransferETH(to, amountETH) */\n      jump\t// in\n    tag_199:\n        /* \"UniswapV2Router02.sol\":5126:5799  function removeLiquidityETH(\r... */\n      pop\n      swap7\n      pop\n      swap7\n      swap5\n      pop\n      pop\n      pop\n      pop\n      pop\n      jump\t// out\n        /* \"UniswapV2Router02.sol\":18257:18503  function getAmountOut(\r... */\n    tag_44:\n        /* \"UniswapV2Router02.sol\":18399:18413  uint amountOut */\n      0x00\n        /* \"UniswapV2Router02.sol\":18433:18495  UniswapV2Library.getAmountOut(amountIn, reserveIn, reserveOut) */\n      tag_202\n        /* \"UniswapV2Router02.sol\":18463:18471  amountIn */\n      dup5\n        /* \"UniswapV2Router02.sol\":18473:18482  reserveIn */\n      dup5\n        /* \"UniswapV2Router02.sol\":18484:18494  reserveOut */\n      dup5\n        /* \"UniswapV2Router02.sol\":18433:18462  UniswapV2Library.getAmountOut */\n      tag_203\n        /* \"UniswapV2Router02.sol\":18433:18495  UniswapV2Library.getAmountOut(amountIn, reserveIn, reserveOut) */\n      jump\t// in\n    tag_202:\n        /* \"UniswapV2Router02.sol\":18426:18495  return UniswapV2Library.getAmountOut(amountIn, reserveIn, reserveOut) */\n      swap5\n        /* \"UniswapV2Router02.sol\":18257:18503  function getAmountOut(\r... */\n      swap4\n      pop\n      pop\n      pop\n      pop\n      jump\t// out\n        /* \"UniswapV2Router02.sol\":12510:13401  function swapExactTokensForETH(\r... */\n    tag_51:\n        /* \"UniswapV2Router02.sol\":12731:12752  uint[] memory amounts */\n      0x60\n        /* \"UniswapV2Router02.sol\":12712:12720  deadline */\n      dup2\n        /* \"UniswapV2Router02.sol\":682:697  block.timestamp */\n      timestamp\n        /* \"UniswapV2Router02.sol\":670:678  deadline */\n      dup2\n        /* \"UniswapV2Router02.sol\":670:697  deadline >= block.timestamp */\n      lt\n      iszero\n        /* \"UniswapV2Router02.sol\":662:726  require(deadline >= block.timestamp, 'UniswapV2Router: EXPIRED') */\n      tag_205\n      jumpi\n      0x40\n      dup1\n      mload\n      shl(0xe5, 0x461bcd)\n      dup2\n      mstore\n      0x20\n      0x04\n      dup3\n      add\n      mstore\n      0x18\n      0x24\n      dup3\n      add\n      mstore\n      0x00\n      dup1\n      mload\n      0x20\n      data_ee5734acb032ffb1bbaf889d52ccf9fbd1ce0f1ae12bee2c46068d51b910e2c5\n      dup4\n      codecopy\n      dup2\n      mload\n      swap2\n      mstore\n      0x44\n      dup3\n      add\n      mstore\n      swap1\n      mload\n      swap1\n      dup2\n      swap1\n      sub\n      0x64\n      add\n      swap1\n      revert\n    tag_205:\n      sub(shl(0xa0, 0x01), 0x01)\n        /* \"UniswapV2Router02.sol\":12798:12802  WETH */\n      immutable(\"0x8f59e018e114ef4f0f13f738daa411333c6421e3f33ae68ce5c638756a827d85\")\n        /* \"UniswapV2Router02.sol\":12773:12802  path[path.length - 1] == WETH */\n      and\n        /* \"UniswapV2Router02.sol\":12773:12777  path */\n      dup7\n      dup7\n      not(0x00)\n        /* \"UniswapV2Router02.sol\":12778:12793  path.length - 1 */\n      dup2\n      add\n        /* \"UniswapV2Router02.sol\":12773:12794  path[path.length - 1] */\n      dup2\n      dup2\n      lt\n      tag_207\n      jumpi\n      invalid\n    tag_207:\n      swap1\n      pop\n      0x20\n      mul\n      add\n      calldataload\n      sub(shl(0xa0, 0x01), 0x01)\n      and\n      sub(shl(0xa0, 0x01), 0x01)\n        /* \"UniswapV2Router02.sol\":12773:12802  path[path.length - 1] == WETH */\n      and\n      eq\n        /* \"UniswapV2Router02.sol\":12765:12836  require(path[path.length - 1] == WETH, 'UniswapV2Router: INVALID_PATH') */\n      tag_208\n      jumpi\n      0x40\n      dup1\n      mload\n      shl(0xe5, 0x461bcd)\n      dup2\n      mstore\n      0x20\n      0x04\n      dup3\n      add\n      mstore\n      0x1d\n      0x24\n      dup3\n      add\n      mstore\n      0x00\n      dup1\n      mload\n      0x20\n      data_c80e789ddaeb930b746bbbcb3afe8331d926679fd96f65d8c7468b735c0a14f2\n      dup4\n      codecopy\n      dup2\n      mload\n      swap2\n      mstore\n      0x44\n      dup3\n      add\n      mstore\n      swap1\n      mload\n      swap1\n      dup2\n      swap1\n      sub\n      0x64\n      add\n      swap1\n      revert\n    tag_208:\n        /* \"UniswapV2Router02.sol\":12857:12912  UniswapV2Library.getAmountsOut(factory, amountIn, path) */\n      tag_209\n        /* \"UniswapV2Router02.sol\":12888:12895  factory */\n      immutable(\"0xb4bf3508f2fd7bb126e7af9e4fe31dbb3cdf386df5936668ea4d8292a4a1b188\")\n        /* \"UniswapV2Router02.sol\":12897:12905  amountIn */\n      dup10\n        /* \"UniswapV2Router02.sol\":12907:12911  path */\n      dup9\n      dup9\n        /* \"UniswapV2Router02.sol\":12857:12912  UniswapV2Library.getAmountsOut(factory, amountIn, path) */\n      dup1\n      dup1\n      0x20\n      mul\n      0x20\n      add\n      mload(0x40)\n      swap1\n      dup2\n      add\n      0x40\n      mstore\n      dup1\n      swap4\n      swap3\n      swap2\n      swap1\n      dup2\n      dup2\n      mstore\n      0x20\n      add\n      dup4\n      dup4\n      0x20\n      mul\n      dup1\n      dup3\n      dup5\n      calldatacopy\n      0x00\n      swap3\n      add\n      swap2\n      swap1\n      swap2\n      mstore\n      pop\n        /* \"UniswapV2Router02.sol\":12857:12887  UniswapV2Library.getAmountsOut */\n      tag_210\n      swap3\n      pop\n      pop\n      pop\n        /* \"UniswapV2Router02.sol\":12857:12912  UniswapV2Library.getAmountsOut(factory, amountIn, path) */\n      jump\t// in\n    tag_209:\n        /* \"UniswapV2Router02.sol\":12847:12912  amounts = UniswapV2Library.getAmountsOut(factory, amountIn, path) */\n      swap2\n      pop\n        /* \"UniswapV2Router02.sol\":12962:12974  amountOutMin */\n      dup7\n        /* \"UniswapV2Router02.sol\":12931:12938  amounts */\n      dup3\n        /* \"UniswapV2Router02.sol\":12956:12957  1 */\n      0x01\n        /* \"UniswapV2Router02.sol\":12939:12946  amounts */\n      dup5\n        /* \"UniswapV2Router02.sol\":12939:12953  amounts.length */\n      mload\n        /* \"UniswapV2Router02.sol\":12939:12957  amounts.length - 1 */\n      sub\n        /* \"UniswapV2Router02.sol\":12931:12958  amounts[amounts.length - 1] */\n      dup2\n      mload\n      dup2\n      lt\n      tag_211\n      jumpi\n      invalid\n    tag_211:\n      0x20\n      mul\n      0x20\n      add\n      add\n      mload\n        /* \"UniswapV2Router02.sol\":12931:12974  amounts[amounts.length - 1] >= amountOutMin */\n      lt\n      iszero\n        /* \"UniswapV2Router02.sol\":12923:13022  require(amounts[amounts.length - 1] >= amountOutMin, 'UniswapV2Router: INSUFFICIENT_OUTPUT_AMOUNT') */\n      tag_212\n      jumpi\n      mload(0x40)\n      shl(0xe5, 0x461bcd)\n      dup2\n      mstore\n      0x04\n      add\n      dup1\n      dup1\n      0x20\n      add\n      dup3\n      dup2\n      sub\n      dup3\n      mstore\n      0x2b\n      dup2\n      mstore\n      0x20\n      add\n      dup1\n      data_d4ea67bea551891ab36be726b8e631181246034dffcfd5c0bbfad1e9d1729432\n      0x2b\n      swap2\n      codecopy\n      0x40\n      add\n      swap2\n      pop\n      pop\n      mload(0x40)\n      dup1\n      swap2\n      sub\n      swap1\n      revert\n    tag_212:\n        /* \"UniswapV2Router02.sol\":13033:13213  TransferHelper.safeTransferFrom(\r... */\n      tag_213\n        /* \"UniswapV2Router02.sol\":13079:13083  path */\n      dup7\n      dup7\n        /* \"UniswapV2Router02.sol\":13084:13085  0 */\n      0x00\n        /* \"UniswapV2Router02.sol\":13079:13086  path[0] */\n      dup2\n      dup2\n      lt\n      tag_214\n      jumpi\n      invalid\n    tag_214:\n      swap1\n      pop\n      0x20\n      mul\n      add\n      calldataload\n      sub(shl(0xa0, 0x01), 0x01)\n      and\n        /* \"UniswapV2Router02.sol\":13101:13111  msg.sender */\n      caller\n        /* \"UniswapV2Router02.sol\":13126:13177  UniswapV2Library.pairFor(factory, path[0], path[1]) */\n      tag_215\n        /* \"UniswapV2Router02.sol\":13151:13158  factory */\n      immutable(\"0xb4bf3508f2fd7bb126e7af9e4fe31dbb3cdf386df5936668ea4d8292a4a1b188\")\n        /* \"UniswapV2Router02.sol\":13160:13164  path */\n      dup11\n      dup11\n        /* \"UniswapV2Router02.sol\":13165:13166  0 */\n      0x00\n        /* \"UniswapV2Router02.sol\":13160:13167  path[0] */\n      dup2\n      dup2\n      lt\n      tag_216\n      jumpi\n      invalid\n    tag_216:\n      swap1\n      pop\n      0x20\n      mul\n      add\n      calldataload\n      sub(shl(0xa0, 0x01), 0x01)\n      and\n        /* \"UniswapV2Router02.sol\":13169:13173  path */\n      dup12\n      dup12\n        /* \"UniswapV2Router02.sol\":13174:13175  1 */\n      0x01\n        /* \"UniswapV2Router02.sol\":13169:13176  path[1] */\n      dup2\n      dup2\n      lt\n      tag_217\n      jumpi\n      invalid\n    tag_217:\n      swap1\n      pop\n      0x20\n      mul\n      add\n      calldataload\n      sub(shl(0xa0, 0x01), 0x01)\n      and\n        /* \"UniswapV2Router02.sol\":13126:13150  UniswapV2Library.pairFor */\n      tag_218\n        /* \"UniswapV2Router02.sol\":13126:13177  UniswapV2Library.pairFor(factory, path[0], path[1]) */\n      jump\t// in\n    tag_215:\n        /* \"UniswapV2Router02.sol\":13192:13199  amounts */\n      dup6\n        /* \"UniswapV2Router02.sol\":13200:13201  0 */\n      0x00\n        /* \"UniswapV2Router02.sol\":13192:13202  amounts[0] */\n      dup2\n      mload\n      dup2\n      lt\n      tag_219\n      jumpi\n      invalid\n    tag_219:\n      0x20\n      mul\n      0x20\n      add\n      add\n      mload\n        /* \"UniswapV2Router02.sol\":13033:13064  TransferHelper.safeTransferFrom */\n      tag_220\n        /* \"UniswapV2Router02.sol\":13033:13213  TransferHelper.safeTransferFrom(\r... */\n      jump\t// in\n    tag_213:\n        /* \"UniswapV2Router02.sol\":13224:13259  _swap(amounts, path, address(this)) */\n      tag_221\n        /* \"UniswapV2Router02.sol\":13230:13237  amounts */\n      dup3\n        /* \"UniswapV2Router02.sol\":13239:13243  path */\n      dup8\n      dup8\n        /* \"UniswapV2Router02.sol\":13224:13259  _swap(amounts, path, address(this)) */\n      dup1\n      dup1\n      0x20\n      mul\n      0x20\n      add\n      mload(0x40)\n      swap1\n      dup2\n      add\n      0x40\n      mstore\n      dup1\n      swap4\n      swap3\n      swap2\n      swap1\n      dup2\n      dup2\n      mstore\n      0x20\n      add\n      dup4\n      dup4\n      0x20\n      mul\n      dup1\n      dup3\n      dup5\n      calldatacopy\n      0x00\n      swap3\n      add\n      swap2\n      swap1\n      swap2\n      mstore\n      pop\n        /* \"UniswapV2Router02.sol\":13253:13257  this */\n      address\n      swap3\n      pop\n        /* \"UniswapV2Router02.sol\":13224:13229  _swap */\n      tag_222\n      swap2\n      pop\n      pop\n        /* \"UniswapV2Router02.sol\":13224:13259  _swap(amounts, path, address(this)) */\n      jump\t// in\n    tag_221:\n        /* \"UniswapV2Router02.sol\":13276:13280  WETH */\n      immutable(\"0x8f59e018e114ef4f0f13f738daa411333c6421e3f33ae68ce5c638756a827d85\")\n      sub(shl(0xa0, 0x01), 0x01)\n        /* \"UniswapV2Router02.sol\":13270:13290  IWETH(WETH).withdraw */\n      and\n      0x2e1a7d4d\n        /* \"UniswapV2Router02.sol\":13291:13298  amounts */\n      dup4\n        /* \"UniswapV2Router02.sol\":13316:13317  1 */\n      0x01\n        /* \"UniswapV2Router02.sol\":13299:13306  amounts */\n      dup6\n        /* \"UniswapV2Router02.sol\":13299:13313  amounts.length */\n      mload\n        /* \"UniswapV2Router02.sol\":13299:13317  amounts.length - 1 */\n      sub\n        /* \"UniswapV2Router02.sol\":13291:13318  amounts[amounts.length - 1] */\n      dup2\n      mload\n      dup2\n      lt\n      tag_223\n      jumpi\n      invalid\n    tag_223:\n      0x20\n      mul\n      0x20\n      add\n      add\n      mload\n        /* \"UniswapV2Router02.sol\":13270:13319  IWETH(WETH).withdraw(amounts[amounts.length - 1]) */\n      mload(0x40)\n      dup3\n      0xffffffff\n      and\n      0xe0\n      shl\n      dup2\n      mstore\n      0x04\n      add\n      dup1\n      dup3\n      dup2\n      mstore\n      0x20\n      add\n      swap2\n      pop\n      pop\n      0x00\n      mload(0x40)\n      dup1\n      dup4\n      sub\n      dup2\n      0x00\n      dup8\n      dup1\n      extcodesize\n      iszero\n      dup1\n      iszero\n      tag_224\n      jumpi\n      0x00\n      dup1\n      revert\n    tag_224:\n      pop\n      gas\n      call\n      iszero\n      dup1\n      iszero\n      tag_226\n      jumpi\n      returndatasize\n      0x00\n      dup1\n      returndatacopy\n      revert(0x00, returndatasize)\n    tag_226:\n      pop\n      pop\n      pop\n      pop\n        /* \"UniswapV2Router02.sol\":13330:13393  TransferHelper.safeTransferETH(to, amounts[amounts.length - 1]) */\n      tag_227\n        /* \"UniswapV2Router02.sol\":13361:13363  to */\n      dup5\n        /* \"UniswapV2Router02.sol\":13365:13372  amounts */\n      dup4\n        /* \"UniswapV2Router02.sol\":13390:13391  1 */\n      0x01\n        /* \"UniswapV2Router02.sol\":13373:13380  amounts */\n      dup6\n        /* \"UniswapV2Router02.sol\":13373:13387  amounts.length */\n      mload\n        /* \"UniswapV2Router02.sol\":13373:13391  amounts.length - 1 */\n      sub\n        /* \"UniswapV2Router02.sol\":13365:13392  amounts[amounts.length - 1] */\n      dup2\n      mload\n      dup2\n      lt\n      tag_228\n      jumpi\n      invalid\n    tag_228:\n      0x20\n      mul\n      0x20\n      add\n      add\n      mload\n        /* \"UniswapV2Router02.sol\":13330:13360  TransferHelper.safeTransferETH */\n      tag_200\n        /* \"UniswapV2Router02.sol\":13330:13393  TransferHelper.safeTransferETH(to, amounts[amounts.length - 1]) */\n      jump\t// in\n    tag_227:\n        /* \"UniswapV2Router02.sol\":12510:13401  function swapExactTokensForETH(\r... */\n      pop\n      swap7\n      swap6\n      pop\n      pop\n      pop\n      pop\n      pop\n      pop\n      jump\t// out\n        /* \"UniswapV2Router02.sol\":19000:19228  function getAmountsIn(\r... */\n    tag_61:\n        /* \"UniswapV2Router02.sol\":19124:19145  uint[] memory amounts */\n      0x60\n        /* \"UniswapV2Router02.sol\":19165:19220  UniswapV2Library.getAmountsIn(factory, amountOut, path) */\n      tag_230\n        /* \"UniswapV2Router02.sol\":19195:19202  factory */\n      immutable(\"0xb4bf3508f2fd7bb126e7af9e4fe31dbb3cdf386df5936668ea4d8292a4a1b188\")\n        /* \"UniswapV2Router02.sol\":19204:19213  amountOut */\n      dup5\n        /* \"UniswapV2Router02.sol\":19215:19219  path */\n      dup5\n        /* \"UniswapV2Router02.sol\":19165:19194  UniswapV2Library.getAmountsIn */\n      tag_231\n        /* \"UniswapV2Router02.sol\":19165:19220  UniswapV2Library.getAmountsIn(factory, amountOut, path) */\n      jump\t// in\n    tag_230:\n        /* \"UniswapV2Router02.sol\":19158:19220  return UniswapV2Library.getAmountsIn(factory, amountOut, path) */\n      swap1\n      pop\n        /* \"UniswapV2Router02.sol\":19000:19228  function getAmountsIn(\r... */\n    tag_229:\n      swap3\n      swap2\n      pop\n      pop\n      jump\t// out\n        /* \"UniswapV2Router02.sol\":5807:6511  function removeLiquidityWithPermit(\r... */\n    tag_68:\n        /* \"UniswapV2Router02.sol\":6140:6152  uint amountA */\n      0x00\n        /* \"UniswapV2Router02.sol\":6154:6166  uint amountB */\n      dup1\n        /* \"UniswapV2Router02.sol\":6179:6191  address pair */\n      0x00\n        /* \"UniswapV2Router02.sol\":6194:6243  UniswapV2Library.pairFor(factory, tokenA, tokenB) */\n      tag_233\n        /* \"UniswapV2Router02.sol\":6219:6226  factory */\n      immutable(\"0xb4bf3508f2fd7bb126e7af9e4fe31dbb3cdf386df5936668ea4d8292a4a1b188\")\n        /* \"UniswapV2Router02.sol\":6228:6234  tokenA */\n      dup16\n        /* \"UniswapV2Router02.sol\":6236:6242  tokenB */\n      dup16\n        /* \"UniswapV2Router02.sol\":6194:6218  UniswapV2Library.pairFor */\n      tag_218\n        /* \"UniswapV2Router02.sol\":6194:6243  UniswapV2Library.pairFor(factory, tokenA, tokenB) */\n      jump\t// in\n    tag_233:\n        /* \"UniswapV2Router02.sol\":6179:6243  address pair = UniswapV2Library.pairFor(factory, tokenA, tokenB) */\n      swap1\n      pop\n        /* \"UniswapV2Router02.sol\":6254:6264  uint value */\n      0x00\n        /* \"UniswapV2Router02.sol\":6267:6277  approveMax */\n      dup8\n        /* \"UniswapV2Router02.sol\":6267:6300  approveMax ? uint(-1) : liquidity */\n      tag_234\n      jumpi\n        /* \"UniswapV2Router02.sol\":6291:6300  liquidity */\n      dup13\n        /* \"UniswapV2Router02.sol\":6267:6300  approveMax ? uint(-1) : liquidity */\n      jump(tag_235)\n    tag_234:\n      not(0x00)\n    tag_235:\n        /* \"UniswapV2Router02.sol\":6311:6391  IUniswapV2Pair(pair).permit(msg.sender, address(this), value, deadline, v, r, s) */\n      0x40\n      dup1\n      mload\n      shl(0xe0, 0xd505accf)\n      dup2\n      mstore\n        /* \"UniswapV2Router02.sol\":6339:6349  msg.sender */\n      caller\n        /* \"UniswapV2Router02.sol\":6311:6391  IUniswapV2Pair(pair).permit(msg.sender, address(this), value, deadline, v, r, s) */\n      0x04\n      dup3\n      add\n      mstore\n        /* \"UniswapV2Router02.sol\":6359:6363  this */\n      address\n        /* \"UniswapV2Router02.sol\":6311:6391  IUniswapV2Pair(pair).permit(msg.sender, address(this), value, deadline, v, r, s) */\n      0x24\n      dup3\n      add\n      mstore\n      0x44\n      dup2\n      add\n      dup4\n      swap1\n      mstore\n      0x64\n      dup2\n      add\n      dup13\n      swap1\n      mstore\n      0xff\n      dup11\n      and\n      0x84\n      dup3\n      add\n      mstore\n      0xa4\n      dup2\n      add\n      dup10\n      swap1\n      mstore\n      0xc4\n      dup2\n      add\n      dup9\n      swap1\n      mstore\n      swap1\n      mload\n        /* \"UniswapV2Router02.sol\":6254:6300  uint value = approveMax ? uint(-1) : liquidity */\n      swap2\n      swap3\n      pop\n      sub(shl(0xa0, 0x01), 0x01)\n        /* \"UniswapV2Router02.sol\":6311:6338  IUniswapV2Pair(pair).permit */\n      dup5\n      and\n      swap2\n      0xd505accf\n      swap2\n        /* \"UniswapV2Router02.sol\":6311:6391  IUniswapV2Pair(pair).permit(msg.sender, address(this), value, deadline, v, r, s) */\n      0xe4\n      dup1\n      dup3\n      add\n      swap3\n      0x00\n      swap3\n      swap1\n      swap2\n      swap1\n      dup3\n      swap1\n      sub\n      add\n      dup2\n      dup4\n        /* \"UniswapV2Router02.sol\":6311:6338  IUniswapV2Pair(pair).permit */\n      dup8\n        /* \"UniswapV2Router02.sol\":6311:6391  IUniswapV2Pair(pair).permit(msg.sender, address(this), value, deadline, v, r, s) */\n      dup1\n      extcodesize\n      iszero\n      dup1\n      iszero\n      tag_236\n      jumpi\n      0x00\n      dup1\n      revert\n    tag_236:\n      pop\n      gas\n      call\n      iszero\n      dup1\n      iszero\n      tag_238\n      jumpi\n      returndatasize\n      0x00\n      dup1\n      returndatacopy\n      revert(0x00, returndatasize)\n    tag_238:\n      pop\n      pop\n      pop\n      pop\n        /* \"UniswapV2Router02.sol\":6423:6503  removeLiquidity(tokenA, tokenB, liquidity, amountAMin, amountBMin, to, deadline) */\n      tag_239\n        /* \"UniswapV2Router02.sol\":6439:6445  tokenA */\n      dup16\n        /* \"UniswapV2Router02.sol\":6447:6453  tokenB */\n      dup16\n        /* \"UniswapV2Router02.sol\":6455:6464  liquidity */\n      dup16\n        /* \"UniswapV2Router02.sol\":6466:6476  amountAMin */\n      dup16\n        /* \"UniswapV2Router02.sol\":6478:6488  amountBMin */\n      dup16\n        /* \"UniswapV2Router02.sol\":6490:6492  to */\n      dup16\n        /* \"UniswapV2Router02.sol\":6494:6502  deadline */\n      dup16\n        /* \"UniswapV2Router02.sol\":6423:6438  removeLiquidity */\n      tag_156\n        /* \"UniswapV2Router02.sol\":6423:6503  removeLiquidity(tokenA, tokenB, liquidity, amountAMin, amountBMin, to, deadline) */\n      jump\t// in\n    tag_239:\n        /* \"UniswapV2Router02.sol\":6402:6503  (amountA, amountB) = removeLiquidity(tokenA, tokenB, liquidity, amountAMin, amountBMin, to, deadline) */\n      dup1\n      swap5\n      pop\n      dup2\n      swap6\n      pop\n      pop\n      pop\n        /* \"UniswapV2Router02.sol\":5807:6511  function removeLiquidityWithPermit(\r... */\n      pop\n      pop\n      swap12\n      pop\n      swap12\n      swap10\n      pop\n      pop\n      pop\n      pop\n      pop\n      pop\n      pop\n      pop\n      pop\n      pop\n      jump\t// out\n        /* \"UniswapV2Router02.sol\":19236:19323  function getAdminFee() public view returns (uint256) {\r... */\n    tag_71:\n        /* \"UniswapV2Router02.sol\":19280:19287  uint256 */\n      0x00\n        /* \"UniswapV2Router02.sol\":19307:19315  adminFee */\n      sload\n        /* \"UniswapV2Router02.sol\":19236:19323  function getAdminFee() public view returns (uint256) {\r... */\n      swap1\n      jump\t// out\n        /* \"UniswapV2Router02.sol\":9616:10283  function swapExactTokensForTokens(\r... */\n    tag_78:\n        /* \"UniswapV2Router02.sol\":9840:9861  uint[] memory amounts */\n      0x60\n        /* \"UniswapV2Router02.sol\":9821:9829  deadline */\n      dup2\n        /* \"UniswapV2Router02.sol\":682:697  block.timestamp */\n      timestamp\n        /* \"UniswapV2Router02.sol\":670:678  deadline */\n      dup2\n        /* \"UniswapV2Router02.sol\":670:697  deadline >= block.timestamp */\n      lt\n      iszero\n        /* \"UniswapV2Router02.sol\":662:726  require(deadline >= block.timestamp, 'UniswapV2Router: EXPIRED') */\n      tag_242\n      jumpi\n      0x40\n      dup1\n      mload\n      shl(0xe5, 0x461bcd)\n      dup2\n      mstore\n      0x20\n      0x04\n      dup3\n      add\n      mstore\n      0x18\n      0x24\n      dup3\n      add\n      mstore\n      0x00\n      dup1\n      mload\n      0x20\n      data_ee5734acb032ffb1bbaf889d52ccf9fbd1ce0f1ae12bee2c46068d51b910e2c5\n      dup4\n      codecopy\n      dup2\n      mload\n      swap2\n      mstore\n      0x44\n      dup3\n      add\n      mstore\n      swap1\n      mload\n      swap1\n      dup2\n      swap1\n      sub\n      0x64\n      add\n      swap1\n      revert\n    tag_242:\n        /* \"UniswapV2Router02.sol\":9884:9939  UniswapV2Library.getAmountsOut(factory, amountIn, path) */\n      tag_244\n        /* \"UniswapV2Router02.sol\":9915:9922  factory */\n      immutable(\"0xb4bf3508f2fd7bb126e7af9e4fe31dbb3cdf386df5936668ea4d8292a4a1b188\")\n        /* \"UniswapV2Router02.sol\":9924:9932  amountIn */\n      dup10\n        /* \"UniswapV2Router02.sol\":9934:9938  path */\n      dup9\n      dup9\n        /* \"UniswapV2Router02.sol\":9884:9939  UniswapV2Library.getAmountsOut(factory, amountIn, path) */\n      dup1\n      dup1\n      0x20\n      mul\n      0x20\n      add\n      mload(0x40)\n      swap1\n      dup2\n      add\n      0x40\n      mstore\n      dup1\n      swap4\n      swap3\n      swap2\n      swap1\n      dup2\n      dup2\n      mstore\n      0x20\n      add\n      dup4\n      dup4\n      0x20\n      mul\n      dup1\n      dup3\n      dup5\n      calldatacopy\n      0x00\n      swap3\n      add\n      swap2\n      swap1\n      swap2\n      mstore\n      pop\n        /* \"UniswapV2Router02.sol\":9884:9914  UniswapV2Library.getAmountsOut */\n      tag_210\n      swap3\n      pop\n      pop\n      pop\n        /* \"UniswapV2Router02.sol\":9884:9939  UniswapV2Library.getAmountsOut(factory, amountIn, path) */\n      jump\t// in\n    tag_244:\n        /* \"UniswapV2Router02.sol\":9874:9939  amounts = UniswapV2Library.getAmountsOut(factory, amountIn, path) */\n      swap2\n      pop\n        /* \"UniswapV2Router02.sol\":9989:10001  amountOutMin */\n      dup7\n        /* \"UniswapV2Router02.sol\":9958:9965  amounts */\n      dup3\n        /* \"UniswapV2Router02.sol\":9983:9984  1 */\n      0x01\n        /* \"UniswapV2Router02.sol\":9966:9973  amounts */\n      dup5\n        /* \"UniswapV2Router02.sol\":9966:9980  amounts.length */\n      mload\n        /* \"UniswapV2Router02.sol\":9966:9984  amounts.length - 1 */\n      sub\n        /* \"UniswapV2Router02.sol\":9958:9985  amounts[amounts.length - 1] */\n      dup2\n      mload\n      dup2\n      lt\n      tag_245\n      jumpi\n      invalid\n    tag_245:\n      0x20\n      mul\n      0x20\n      add\n      add\n      mload\n        /* \"UniswapV2Router02.sol\":9958:10001  amounts[amounts.length - 1] >= amountOutMin */\n      lt\n      iszero\n        /* \"UniswapV2Router02.sol\":9950:10049  require(amounts[amounts.length - 1] >= amountOutMin, 'UniswapV2Router: INSUFFICIENT_OUTPUT_AMOUNT') */\n      tag_246\n      jumpi\n      mload(0x40)\n      shl(0xe5, 0x461bcd)\n      dup2\n      mstore\n      0x04\n      add\n      dup1\n      dup1\n      0x20\n      add\n      dup3\n      dup2\n      sub\n      dup3\n      mstore\n      0x2b\n      dup2\n      mstore\n      0x20\n      add\n      dup1\n      data_d4ea67bea551891ab36be726b8e631181246034dffcfd5c0bbfad1e9d1729432\n      0x2b\n      swap2\n      codecopy\n      0x40\n      add\n      swap2\n      pop\n      pop\n      mload(0x40)\n      dup1\n      swap2\n      sub\n      swap1\n      revert\n    tag_246:\n        /* \"UniswapV2Router02.sol\":10060:10240  TransferHelper.safeTransferFrom(\r... */\n      tag_247\n        /* \"UniswapV2Router02.sol\":10106:10110  path */\n      dup7\n      dup7\n        /* \"UniswapV2Router02.sol\":10111:10112  0 */\n      0x00\n        /* \"UniswapV2Router02.sol\":10106:10113  path[0] */\n      dup2\n      dup2\n      lt\n      tag_214\n      jumpi\n      invalid\n        /* \"UniswapV2Router02.sol\":10060:10240  TransferHelper.safeTransferFrom(\r... */\n    tag_247:\n        /* \"UniswapV2Router02.sol\":10251:10275  _swap(amounts, path, to) */\n      tag_227\n        /* \"UniswapV2Router02.sol\":10257:10264  amounts */\n      dup3\n        /* \"UniswapV2Router02.sol\":10266:10270  path */\n      dup8\n      dup8\n        /* \"UniswapV2Router02.sol\":10251:10275  _swap(amounts, path, to) */\n      dup1\n      dup1\n      0x20\n      mul\n      0x20\n      add\n      mload(0x40)\n      swap1\n      dup2\n      add\n      0x40\n      mstore\n      dup1\n      swap4\n      swap3\n      swap2\n      swap1\n      dup2\n      dup2\n      mstore\n      0x20\n      add\n      dup4\n      dup4\n      0x20\n      mul\n      dup1\n      dup3\n      dup5\n      calldatacopy\n      0x00\n      swap3\n      add\n      swap2\n      swap1\n      swap2\n      mstore\n      pop\n        /* \"UniswapV2Router02.sol\":10272:10274  to */\n      dup10\n      swap3\n      pop\n        /* \"UniswapV2Router02.sol\":10251:10256  _swap */\n      tag_222\n      swap2\n      pop\n      pop\n        /* \"UniswapV2Router02.sol\":10251:10275  _swap(amounts, path, to) */\n      jump\t// in\n        /* \"UniswapV2Router02.sol\":11633:12502  function swapTokensForExactETH(\r... */\n    tag_88:\n        /* \"UniswapV2Router02.sol\":11854:11875  uint[] memory amounts */\n      0x60\n        /* \"UniswapV2Router02.sol\":11835:11843  deadline */\n      dup2\n        /* \"UniswapV2Router02.sol\":682:697  block.timestamp */\n      timestamp\n        /* \"UniswapV2Router02.sol\":670:678  deadline */\n      dup2\n        /* \"UniswapV2Router02.sol\":670:697  deadline >= block.timestamp */\n      lt\n      iszero\n        /* \"UniswapV2Router02.sol\":662:726  require(deadline >= block.timestamp, 'UniswapV2Router: EXPIRED') */\n      tag_255\n      jumpi\n      0x40\n      dup1\n      mload\n      shl(0xe5, 0x461bcd)\n      dup2\n      mstore\n      0x20\n      0x04\n      dup3\n      add\n      mstore\n      0x18\n      0x24\n      dup3\n      add\n      mstore\n      0x00\n      dup1\n      mload\n      0x20\n      data_ee5734acb032ffb1bbaf889d52ccf9fbd1ce0f1ae12bee2c46068d51b910e2c5\n      dup4\n      codecopy\n      dup2\n      mload\n      swap2\n      mstore\n      0x44\n      dup3\n      add\n      mstore\n      swap1\n      mload\n      swap1\n      dup2\n      swap1\n      sub\n      0x64\n      add\n      swap1\n      revert\n    tag_255:\n      sub(shl(0xa0, 0x01), 0x01)\n        /* \"UniswapV2Router02.sol\":11921:11925  WETH */\n      immutable(\"0x8f59e018e114ef4f0f13f738daa411333c6421e3f33ae68ce5c638756a827d85\")\n        /* \"UniswapV2Router02.sol\":11896:11925  path[path.length - 1] == WETH */\n      and\n        /* \"UniswapV2Router02.sol\":11896:11900  path */\n      dup7\n      dup7\n      not(0x00)\n        /* \"UniswapV2Router02.sol\":11901:11916  path.length - 1 */\n      dup2\n      add\n        /* \"UniswapV2Router02.sol\":11896:11917  path[path.length - 1] */\n      dup2\n      dup2\n      lt\n      tag_257\n      jumpi\n      invalid\n    tag_257:\n      swap1\n      pop\n      0x20\n      mul\n      add\n      calldataload\n      sub(shl(0xa0, 0x01), 0x01)\n      and\n      sub(shl(0xa0, 0x01), 0x01)\n        /* \"UniswapV2Router02.sol\":11896:11925  path[path.length - 1] == WETH */\n      and\n      eq\n        /* \"UniswapV2Router02.sol\":11888:11959  require(path[path.length - 1] == WETH, 'UniswapV2Router: INVALID_PATH') */\n      tag_258\n      jumpi\n      0x40\n      dup1\n      mload\n      shl(0xe5, 0x461bcd)\n      dup2\n      mstore\n      0x20\n      0x04\n      dup3\n      add\n      mstore\n      0x1d\n      0x24\n      dup3\n      add\n      mstore\n      0x00\n      dup1\n      mload\n      0x20\n      data_c80e789ddaeb930b746bbbcb3afe8331d926679fd96f65d8c7468b735c0a14f2\n      dup4\n      codecopy\n      dup2\n      mload\n      swap2\n      mstore\n      0x44\n      dup3\n      add\n      mstore\n      swap1\n      mload\n      swap1\n      dup2\n      swap1\n      sub\n      0x64\n      add\n      swap1\n      revert\n    tag_258:\n        /* \"UniswapV2Router02.sol\":11980:12035  UniswapV2Library.getAmountsIn(factory, amountOut, path) */\n      tag_259\n        /* \"UniswapV2Router02.sol\":12010:12017  factory */\n      immutable(\"0xb4bf3508f2fd7bb126e7af9e4fe31dbb3cdf386df5936668ea4d8292a4a1b188\")\n        /* \"UniswapV2Router02.sol\":12019:12028  amountOut */\n      dup10\n        /* \"UniswapV2Router02.sol\":12030:12034  path */\n      dup9\n      dup9\n        /* \"UniswapV2Router02.sol\":11980:12035  UniswapV2Library.getAmountsIn(factory, amountOut, path) */\n      dup1\n      dup1\n      0x20\n      mul\n      0x20\n      add\n      mload(0x40)\n      swap1\n      dup2\n      add\n      0x40\n      mstore\n      dup1\n      swap4\n      swap3\n      swap2\n      swap1\n      dup2\n      dup2\n      mstore\n      0x20\n      add\n      dup4\n      dup4\n      0x20\n      mul\n      dup1\n      dup3\n      dup5\n      calldatacopy\n      0x00\n      swap3\n      add\n      swap2\n      swap1\n      swap2\n      mstore\n      pop\n        /* \"UniswapV2Router02.sol\":11980:12009  UniswapV2Library.getAmountsIn */\n      tag_231\n      swap3\n      pop\n      pop\n      pop\n        /* \"UniswapV2Router02.sol\":11980:12035  UniswapV2Library.getAmountsIn(factory, amountOut, path) */\n      jump\t// in\n    tag_259:\n        /* \"UniswapV2Router02.sol\":11970:12035  amounts = UniswapV2Library.getAmountsIn(factory, amountOut, path) */\n      swap2\n      pop\n        /* \"UniswapV2Router02.sol\":12068:12079  amountInMax */\n      dup7\n        /* \"UniswapV2Router02.sol\":12054:12061  amounts */\n      dup3\n        /* \"UniswapV2Router02.sol\":12062:12063  0 */\n      0x00\n        /* \"UniswapV2Router02.sol\":12054:12064  amounts[0] */\n      dup2\n      mload\n      dup2\n      lt\n      tag_260\n      jumpi\n      invalid\n    tag_260:\n      0x20\n      mul\n      0x20\n      add\n      add\n      mload\n        /* \"UniswapV2Router02.sol\":12054:12079  amounts[0] <= amountInMax */\n      gt\n      iszero\n        /* \"UniswapV2Router02.sol\":12046:12123  require(amounts[0] <= amountInMax, 'UniswapV2Router: EXCESSIVE_INPUT_AMOUNT') */\n      tag_212\n      jumpi\n      mload(0x40)\n      shl(0xe5, 0x461bcd)\n      dup2\n      mstore\n      0x04\n      add\n      dup1\n      dup1\n      0x20\n      add\n      dup3\n      dup2\n      sub\n      dup3\n      mstore\n      0x27\n      dup2\n      mstore\n      0x20\n      add\n      dup1\n      data_bb18004cd22eaad7ea393d184ea6ac1df1428db36bb6fbff8af486232d68ae2c\n      0x27\n      swap2\n      codecopy\n      0x40\n      add\n      swap2\n      pop\n      pop\n      mload(0x40)\n      dup1\n      swap2\n      sub\n      swap1\n      revert\n        /* \"UniswapV2Router02.sol\":7900:8710  function removeLiquidityETHWithPermitSupportingFeeOnTransferTokens(\r... */\n    tag_95:\n        /* \"UniswapV2Router02.sol\":8245:8259  uint amountETH */\n      0x00\n        /* \"UniswapV2Router02.sol\":8272:8284  address pair */\n      dup1\n        /* \"UniswapV2Router02.sol\":8287:8333  UniswapV2Library.pairFor(factory, token, WETH) */\n      tag_276\n        /* \"UniswapV2Router02.sol\":8312:8319  factory */\n      immutable(\"0xb4bf3508f2fd7bb126e7af9e4fe31dbb3cdf386df5936668ea4d8292a4a1b188\")\n        /* \"UniswapV2Router02.sol\":8321:8326  token */\n      dup14\n        /* \"UniswapV2Router02.sol\":8328:8332  WETH */\n      immutable(\"0x8f59e018e114ef4f0f13f738daa411333c6421e3f33ae68ce5c638756a827d85\")\n        /* \"UniswapV2Router02.sol\":8287:8311  UniswapV2Library.pairFor */\n      tag_218\n        /* \"UniswapV2Router02.sol\":8287:8333  UniswapV2Library.pairFor(factory, token, WETH) */\n      jump\t// in\n    tag_276:\n        /* \"UniswapV2Router02.sol\":8272:8333  address pair = UniswapV2Library.pairFor(factory, token, WETH) */\n      swap1\n      pop\n        /* \"UniswapV2Router02.sol\":8344:8354  uint value */\n      0x00\n        /* \"UniswapV2Router02.sol\":8357:8367  approveMax */\n      dup7\n        /* \"UniswapV2Router02.sol\":8357:8390  approveMax ? uint(-1) : liquidity */\n      tag_277\n      jumpi\n        /* \"UniswapV2Router02.sol\":8381:8390  liquidity */\n      dup12\n        /* \"UniswapV2Router02.sol\":8357:8390  approveMax ? uint(-1) : liquidity */\n      jump(tag_278)\n    tag_277:\n      not(0x00)\n    tag_278:\n        /* \"UniswapV2Router02.sol\":8401:8481  IUniswapV2Pair(pair).permit(msg.sender, address(this), value, deadline, v, r, s) */\n      0x40\n      dup1\n      mload\n      shl(0xe0, 0xd505accf)\n      dup2\n      mstore\n        /* \"UniswapV2Router02.sol\":8429:8439  msg.sender */\n      caller\n        /* \"UniswapV2Router02.sol\":8401:8481  IUniswapV2Pair(pair).permit(msg.sender, address(this), value, deadline, v, r, s) */\n      0x04\n      dup3\n      add\n      mstore\n        /* \"UniswapV2Router02.sol\":8449:8453  this */\n      address\n        /* \"UniswapV2Router02.sol\":8401:8481  IUniswapV2Pair(pair).permit(msg.sender, address(this), value, deadline, v, r, s) */\n      0x24\n      dup3\n      add\n      mstore\n      0x44\n      dup2\n      add\n      dup4\n      swap1\n      mstore\n      0x64\n      dup2\n      add\n      dup12\n      swap1\n      mstore\n      0xff\n      dup10\n      and\n      0x84\n      dup3\n      add\n      mstore\n      0xa4\n      dup2\n      add\n      dup9\n      swap1\n      mstore\n      0xc4\n      dup2\n      add\n      dup8\n      swap1\n      mstore\n      swap1\n      mload\n        /* \"UniswapV2Router02.sol\":8344:8390  uint value = approveMax ? uint(-1) : liquidity */\n      swap2\n      swap3\n      pop\n      sub(shl(0xa0, 0x01), 0x01)\n        /* \"UniswapV2Router02.sol\":8401:8428  IUniswapV2Pair(pair).permit */\n      dup5\n      and\n      swap2\n      0xd505accf\n      swap2\n        /* \"UniswapV2Router02.sol\":8401:8481  IUniswapV2Pair(pair).permit(msg.sender, address(this), value, deadline, v, r, s) */\n      0xe4\n      dup1\n      dup3\n      add\n      swap3\n      0x00\n      swap3\n      swap1\n      swap2\n      swap1\n      dup3\n      swap1\n      sub\n      add\n      dup2\n      dup4\n        /* \"UniswapV2Router02.sol\":8401:8428  IUniswapV2Pair(pair).permit */\n      dup8\n        /* \"UniswapV2Router02.sol\":8401:8481  IUniswapV2Pair(pair).permit(msg.sender, address(this), value, deadline, v, r, s) */\n      dup1\n      extcodesize\n      iszero\n      dup1\n      iszero\n      tag_279\n      jumpi\n      0x00\n      dup1\n      revert\n    tag_279:\n      pop\n      gas\n      call\n      iszero\n      dup1\n      iszero\n      tag_281\n      jumpi\n      returndatasize\n      0x00\n      dup1\n      returndatacopy\n      revert(0x00, returndatasize)\n    tag_281:\n      pop\n      pop\n      pop\n      pop\n        /* \"UniswapV2Router02.sol\":8504:8702  removeLiquidityETHSupportingFeeOnTransferTokens(\r... */\n      tag_282\n        /* \"UniswapV2Router02.sol\":8566:8571  token */\n      dup14\n        /* \"UniswapV2Router02.sol\":8586:8595  liquidity */\n      dup14\n        /* \"UniswapV2Router02.sol\":8610:8624  amountTokenMin */\n      dup14\n        /* \"UniswapV2Router02.sol\":8639:8651  amountETHMin */\n      dup14\n        /* \"UniswapV2Router02.sol\":8666:8668  to */\n      dup14\n        /* \"UniswapV2Router02.sol\":8683:8691  deadline */\n      dup14\n        /* \"UniswapV2Router02.sol\":8504:8551  removeLiquidityETHSupportingFeeOnTransferTokens */\n      tag_146\n        /* \"UniswapV2Router02.sol\":8504:8702  removeLiquidityETHSupportingFeeOnTransferTokens(\r... */\n      jump\t// in\n    tag_282:\n        /* \"UniswapV2Router02.sol\":8492:8702  amountETH = removeLiquidityETHSupportingFeeOnTransferTokens(\r... */\n      swap14\n        /* \"UniswapV2Router02.sol\":7900:8710  function removeLiquidityETHWithPermitSupportingFeeOnTransferTokens(\r... */\n      swap13\n      pop\n      pop\n      pop\n      pop\n      pop\n      pop\n      pop\n      pop\n      pop\n      pop\n      pop\n      pop\n      pop\n      jump\t// out\n        /* \"UniswapV2Router02.sol\":15607:16360  function swapExactTokensForTokensSupportingFeeOnTransferTokens(\r... */\n    tag_102:\n        /* \"UniswapV2Router02.sol\":15841:15849  deadline */\n      dup1\n        /* \"UniswapV2Router02.sol\":682:697  block.timestamp */\n      timestamp\n        /* \"UniswapV2Router02.sol\":670:678  deadline */\n      dup2\n        /* \"UniswapV2Router02.sol\":670:697  deadline >= block.timestamp */\n      lt\n      iszero\n        /* \"UniswapV2Router02.sol\":662:726  require(deadline >= block.timestamp, 'UniswapV2Router: EXPIRED') */\n      tag_284\n      jumpi\n      0x40\n      dup1\n      mload\n      shl(0xe5, 0x461bcd)\n      dup2\n      mstore\n      0x20\n      0x04\n      dup3\n      add\n      mstore\n      0x18\n      0x24\n      dup3\n      add\n      mstore\n      0x00\n      dup1\n      mload\n      0x20\n      data_ee5734acb032ffb1bbaf889d52ccf9fbd1ce0f1ae12bee2c46068d51b910e2c5\n      dup4\n      codecopy\n      dup2\n      mload\n      swap2\n      mstore\n      0x44\n      dup3\n      add\n      mstore\n      swap1\n      mload\n      swap1\n      dup2\n      swap1\n      sub\n      0x64\n      add\n      swap1\n      revert\n    tag_284:\n        /* \"UniswapV2Router02.sol\":15862:16040  TransferHelper.safeTransferFrom(\r... */\n      tag_286\n        /* \"UniswapV2Router02.sol\":15908:15912  path */\n      dup6\n      dup6\n        /* \"UniswapV2Router02.sol\":15913:15914  0 */\n      0x00\n        /* \"UniswapV2Router02.sol\":15908:15915  path[0] */\n      dup2\n      dup2\n      lt\n      tag_287\n      jumpi\n      invalid\n    tag_287:\n      swap1\n      pop\n      0x20\n      mul\n      add\n      calldataload\n      sub(shl(0xa0, 0x01), 0x01)\n      and\n        /* \"UniswapV2Router02.sol\":15930:15940  msg.sender */\n      caller\n        /* \"UniswapV2Router02.sol\":15955:16006  UniswapV2Library.pairFor(factory, path[0], path[1]) */\n      tag_288\n        /* \"UniswapV2Router02.sol\":15980:15987  factory */\n      immutable(\"0xb4bf3508f2fd7bb126e7af9e4fe31dbb3cdf386df5936668ea4d8292a4a1b188\")\n        /* \"UniswapV2Router02.sol\":15989:15993  path */\n      dup10\n      dup10\n        /* \"UniswapV2Router02.sol\":15994:15995  0 */\n      0x00\n        /* \"UniswapV2Router02.sol\":15989:15996  path[0] */\n      dup2\n      dup2\n      lt\n      tag_289\n      jumpi\n      invalid\n    tag_289:\n      swap1\n      pop\n      0x20\n      mul\n      add\n      calldataload\n      sub(shl(0xa0, 0x01), 0x01)\n      and\n        /* \"UniswapV2Router02.sol\":15998:16002  path */\n      dup11\n      dup11\n        /* \"UniswapV2Router02.sol\":16003:16004  1 */\n      0x01\n        /* \"UniswapV2Router02.sol\":15998:16005  path[1] */\n      dup2\n      dup2\n      lt\n      tag_217\n      jumpi\n      invalid\n        /* \"UniswapV2Router02.sol\":15955:16006  UniswapV2Library.pairFor(factory, path[0], path[1]) */\n    tag_288:\n        /* \"UniswapV2Router02.sol\":16021:16029  amountIn */\n      dup11\n        /* \"UniswapV2Router02.sol\":15862:15893  TransferHelper.safeTransferFrom */\n      tag_220\n        /* \"UniswapV2Router02.sol\":15862:16040  TransferHelper.safeTransferFrom(\r... */\n      jump\t// in\n    tag_286:\n        /* \"UniswapV2Router02.sol\":16051:16069  uint balanceBefore */\n      0x00\n        /* \"UniswapV2Router02.sol\":16079:16083  path */\n      dup6\n      dup6\n      not(0x00)\n        /* \"UniswapV2Router02.sol\":16084:16099  path.length - 1 */\n      dup2\n      add\n        /* \"UniswapV2Router02.sol\":16079:16100  path[path.length - 1] */\n      dup2\n      dup2\n      lt\n      tag_291\n      jumpi\n      invalid\n    tag_291:\n      swap1\n      pop\n      0x20\n      mul\n      add\n      calldataload\n      sub(shl(0xa0, 0x01), 0x01)\n      and\n      sub(shl(0xa0, 0x01), 0x01)\n        /* \"UniswapV2Router02.sol\":16072:16111  IERC20(path[path.length - 1]).balanceOf */\n      and\n      0x70a08231\n        /* \"UniswapV2Router02.sol\":16112:16114  to */\n      dup6\n        /* \"UniswapV2Router02.sol\":16072:16115  IERC20(path[path.length - 1]).balanceOf(to) */\n      mload(0x40)\n      dup3\n      0xffffffff\n      and\n      0xe0\n      shl\n      dup2\n      mstore\n      0x04\n      add\n      dup1\n      dup3\n      sub(shl(0xa0, 0x01), 0x01)\n      and\n      dup2\n      mstore\n      0x20\n      add\n      swap2\n      pop\n      pop\n      0x20\n      mload(0x40)\n      dup1\n      dup4\n      sub\n      dup2\n      dup7\n      dup1\n      extcodesize\n      iszero\n      dup1\n      iszero\n      tag_292\n      jumpi\n      0x00\n      dup1\n      revert\n    tag_292:\n      pop\n      gas\n      staticcall\n      iszero\n      dup1\n      iszero\n      tag_294\n      jumpi\n      returndatasize\n      0x00\n      dup1\n      returndatacopy\n      revert(0x00, returndatasize)\n    tag_294:\n      pop\n      pop\n      pop\n      pop\n      mload(0x40)\n      returndatasize\n      0x20\n      dup2\n      lt\n      iszero\n      tag_295\n      jumpi\n      0x00\n      dup1\n      revert\n    tag_295:\n      pop\n      mload\n        /* \"UniswapV2Router02.sol\":16126:16170  _swapSupportingFeeOnTransferTokens(path, to) */\n      0x40\n      dup1\n      mload\n        /* \"UniswapV2Router02.sol\":16072:16115  IERC20(path[path.length - 1]).balanceOf(to) */\n      0x20\n        /* \"UniswapV2Router02.sol\":16126:16170  _swapSupportingFeeOnTransferTokens(path, to) */\n      dup9\n      dup2\n      mul\n      dup3\n      dup2\n      add\n      dup3\n      add\n      swap1\n      swap4\n      mstore\n      dup9\n      dup3\n      mstore\n        /* \"UniswapV2Router02.sol\":16072:16115  IERC20(path[path.length - 1]).balanceOf(to) */\n      swap3\n      swap4\n      pop\n        /* \"UniswapV2Router02.sol\":16126:16170  _swapSupportingFeeOnTransferTokens(path, to) */\n      tag_296\n      swap3\n      swap1\n      swap2\n        /* \"UniswapV2Router02.sol\":16161:16165  path */\n      dup10\n      swap2\n      dup10\n      swap2\n      dup3\n      swap2\n        /* \"UniswapV2Router02.sol\":16126:16170  _swapSupportingFeeOnTransferTokens(path, to) */\n      dup6\n      add\n      swap1\n        /* \"UniswapV2Router02.sol\":16161:16165  path */\n      dup5\n      swap1\n        /* \"UniswapV2Router02.sol\":16126:16170  _swapSupportingFeeOnTransferTokens(path, to) */\n      dup1\n        /* \"UniswapV2Router02.sol\":16161:16165  path */\n      dup3\n        /* \"UniswapV2Router02.sol\":16126:16170  _swapSupportingFeeOnTransferTokens(path, to) */\n      dup5\n      calldatacopy\n      0x00\n      swap3\n      add\n      swap2\n      swap1\n      swap2\n      mstore\n      pop\n        /* \"UniswapV2Router02.sol\":16167:16169  to */\n      dup9\n      swap3\n      pop\n        /* \"UniswapV2Router02.sol\":16126:16160  _swapSupportingFeeOnTransferTokens */\n      tag_297\n      swap2\n      pop\n      pop\n        /* \"UniswapV2Router02.sol\":16126:16170  _swapSupportingFeeOnTransferTokens(path, to) */\n      jump\t// in\n    tag_296:\n        /* \"UniswapV2Router02.sol\":16269:16281  amountOutMin */\n      dup7\n        /* \"UniswapV2Router02.sol\":16203:16265  IERC20(path[path.length - 1]).balanceOf(to).sub(balanceBefore) */\n      tag_298\n        /* \"UniswapV2Router02.sol\":16251:16264  balanceBefore */\n      dup3\n        /* \"UniswapV2Router02.sol\":16210:16214  path */\n      dup9\n      dup9\n      not(0x00)\n        /* \"UniswapV2Router02.sol\":16215:16230  path.length - 1 */\n      dup2\n      add\n        /* \"UniswapV2Router02.sol\":16210:16231  path[path.length - 1] */\n      dup2\n      dup2\n      lt\n      tag_299\n      jumpi\n      invalid\n    tag_299:\n      swap1\n      pop\n      0x20\n      mul\n      add\n      calldataload\n      sub(shl(0xa0, 0x01), 0x01)\n      and\n      sub(shl(0xa0, 0x01), 0x01)\n        /* \"UniswapV2Router02.sol\":16203:16242  IERC20(path[path.length - 1]).balanceOf */\n      and\n      0x70a08231\n        /* \"UniswapV2Router02.sol\":16243:16245  to */\n      dup9\n        /* \"UniswapV2Router02.sol\":16203:16246  IERC20(path[path.length - 1]).balanceOf(to) */\n      mload(0x40)\n      dup3\n      0xffffffff\n      and\n      0xe0\n      shl\n      dup2\n      mstore\n      0x04\n      add\n      dup1\n      dup3\n      sub(shl(0xa0, 0x01), 0x01)\n      and\n      dup2\n      mstore\n      0x20\n      add\n      swap2\n      pop\n      pop\n      0x20\n      mload(0x40)\n      dup1\n      dup4\n      sub\n      dup2\n      dup7\n      dup1\n      extcodesize\n      iszero\n      dup1\n      iszero\n      tag_300\n      jumpi\n      0x00\n      dup1\n      revert\n    tag_300:\n      pop\n      gas\n      staticcall\n      iszero\n      dup1\n      iszero\n      tag_302\n      jumpi\n      returndatasize\n      0x00\n      dup1\n      returndatacopy\n      revert(0x00, returndatasize)\n    tag_302:\n      pop\n      pop\n      pop\n      pop\n      mload(0x40)\n      returndatasize\n      0x20\n      dup2\n      lt\n      iszero\n      tag_303\n      jumpi\n      0x00\n      dup1\n      revert\n    tag_303:\n      pop\n      mload\n      swap1\n        /* \"UniswapV2Router02.sol\":16203:16250  IERC20(path[path.length - 1]).balanceOf(to).sub */\n      tag_304\n        /* \"UniswapV2Router02.sol\":16203:16265  IERC20(path[path.length - 1]).balanceOf(to).sub(balanceBefore) */\n      jump\t// in\n    tag_298:\n        /* \"UniswapV2Router02.sol\":16203:16281  IERC20(path[path.length - 1]).balanceOf(to).sub(balanceBefore) >= amountOutMin */\n      lt\n      iszero\n        /* \"UniswapV2Router02.sol\":16181:16352  require(\r... */\n      tag_305\n      jumpi\n      mload(0x40)\n      shl(0xe5, 0x461bcd)\n      dup2\n      mstore\n      0x04\n      add\n      dup1\n      dup1\n      0x20\n      add\n      dup3\n      dup2\n      sub\n      dup3\n      mstore\n      0x2b\n      dup2\n      mstore\n      0x20\n      add\n      dup1\n      data_d4ea67bea551891ab36be726b8e631181246034dffcfd5c0bbfad1e9d1729432\n      0x2b\n      swap2\n      codecopy\n      0x40\n      add\n      swap2\n      pop\n      pop\n      mload(0x40)\n      dup1\n      swap2\n      sub\n      swap1\n      revert\n    tag_305:\n        /* \"UniswapV2Router02.sol\":737:738  _ */\n      pop\n        /* \"UniswapV2Router02.sol\":15607:16360  function swapExactTokensForTokensSupportingFeeOnTransferTokens(\r... */\n      pop\n      pop\n      pop\n      pop\n      pop\n      pop\n      pop\n      jump\t// out\n        /* \"UniswapV2Router02.sol\":17176:18017  function swapExactTokensForETHSupportingFeeOnTransferTokens(\r... */\n    tag_109:\n        /* \"UniswapV2Router02.sol\":17407:17415  deadline */\n      dup1\n        /* \"UniswapV2Router02.sol\":682:697  block.timestamp */\n      timestamp\n        /* \"UniswapV2Router02.sol\":670:678  deadline */\n      dup2\n        /* \"UniswapV2Router02.sol\":670:697  deadline >= block.timestamp */\n      lt\n      iszero\n        /* \"UniswapV2Router02.sol\":662:726  require(deadline >= block.timestamp, 'UniswapV2Router: EXPIRED') */\n      tag_307\n      jumpi\n      0x40\n      dup1\n      mload\n      shl(0xe5, 0x461bcd)\n      dup2\n      mstore\n      0x20\n      0x04\n      dup3\n      add\n      mstore\n      0x18\n      0x24\n      dup3\n      add\n      mstore\n      0x00\n      dup1\n      mload\n      0x20\n      data_ee5734acb032ffb1bbaf889d52ccf9fbd1ce0f1ae12bee2c46068d51b910e2c5\n      dup4\n      codecopy\n      dup2\n      mload\n      swap2\n      mstore\n      0x44\n      dup3\n      add\n      mstore\n      swap1\n      mload\n      swap1\n      dup2\n      swap1\n      sub\n      0x64\n      add\n      swap1\n      revert\n    tag_307:\n      sub(shl(0xa0, 0x01), 0x01)\n        /* \"UniswapV2Router02.sol\":17461:17465  WETH */\n      immutable(\"0x8f59e018e114ef4f0f13f738daa411333c6421e3f33ae68ce5c638756a827d85\")\n        /* \"UniswapV2Router02.sol\":17436:17465  path[path.length - 1] == WETH */\n      and\n        /* \"UniswapV2Router02.sol\":17436:17440  path */\n      dup6\n      dup6\n      not(0x00)\n        /* \"UniswapV2Router02.sol\":17441:17456  path.length - 1 */\n      dup2\n      add\n        /* \"UniswapV2Router02.sol\":17436:17457  path[path.length - 1] */\n      dup2\n      dup2\n      lt\n      tag_309\n      jumpi\n      invalid\n    tag_309:\n      swap1\n      pop\n      0x20\n      mul\n      add\n      calldataload\n      sub(shl(0xa0, 0x01), 0x01)\n      and\n      sub(shl(0xa0, 0x01), 0x01)\n        /* \"UniswapV2Router02.sol\":17436:17465  path[path.length - 1] == WETH */\n      and\n      eq\n        /* \"UniswapV2Router02.sol\":17428:17499  require(path[path.length - 1] == WETH, 'UniswapV2Router: INVALID_PATH') */\n      tag_310\n      jumpi\n      0x40\n      dup1\n      mload\n      shl(0xe5, 0x461bcd)\n      dup2\n      mstore\n      0x20\n      0x04\n      dup3\n      add\n      mstore\n      0x1d\n      0x24\n      dup3\n      add\n      mstore\n      0x00\n      dup1\n      mload\n      0x20\n      data_c80e789ddaeb930b746bbbcb3afe8331d926679fd96f65d8c7468b735c0a14f2\n      dup4\n      codecopy\n      dup2\n      mload\n      swap2\n      mstore\n      0x44\n      dup3\n      add\n      mstore\n      swap1\n      mload\n      swap1\n      dup2\n      swap1\n      sub\n      0x64\n      add\n      swap1\n      revert\n    tag_310:\n        /* \"UniswapV2Router02.sol\":17510:17688  TransferHelper.safeTransferFrom(\r... */\n      tag_311\n        /* \"UniswapV2Router02.sol\":17556:17560  path */\n      dup6\n      dup6\n        /* \"UniswapV2Router02.sol\":17561:17562  0 */\n      0x00\n        /* \"UniswapV2Router02.sol\":17556:17563  path[0] */\n      dup2\n      dup2\n      lt\n      tag_287\n      jumpi\n      invalid\n        /* \"UniswapV2Router02.sol\":17510:17688  TransferHelper.safeTransferFrom(\r... */\n    tag_311:\n        /* \"UniswapV2Router02.sol\":17699:17754  _swapSupportingFeeOnTransferTokens(path, address(this)) */\n      tag_316\n        /* \"UniswapV2Router02.sol\":17734:17738  path */\n      dup6\n      dup6\n        /* \"UniswapV2Router02.sol\":17699:17754  _swapSupportingFeeOnTransferTokens(path, address(this)) */\n      dup1\n      dup1\n      0x20\n      mul\n      0x20\n      add\n      mload(0x40)\n      swap1\n      dup2\n      add\n      0x40\n      mstore\n      dup1\n      swap4\n      swap3\n      swap2\n      swap1\n      dup2\n      dup2\n      mstore\n      0x20\n      add\n      dup4\n      dup4\n      0x20\n      mul\n      dup1\n      dup3\n      dup5\n      calldatacopy\n      0x00\n      swap3\n      add\n      swap2\n      swap1\n      swap2\n      mstore\n      pop\n        /* \"UniswapV2Router02.sol\":17748:17752  this */\n      address\n      swap3\n      pop\n        /* \"UniswapV2Router02.sol\":17699:17733  _swapSupportingFeeOnTransferTokens */\n      tag_297\n      swap2\n      pop\n      pop\n        /* \"UniswapV2Router02.sol\":17699:17754  _swapSupportingFeeOnTransferTokens(path, address(this)) */\n      jump\t// in\n    tag_316:\n        /* \"UniswapV2Router02.sol\":17765:17779  uint amountOut */\n      0x00\n        /* \"UniswapV2Router02.sol\":17789:17793  WETH */\n      immutable(\"0x8f59e018e114ef4f0f13f738daa411333c6421e3f33ae68ce5c638756a827d85\")\n      sub(shl(0xa0, 0x01), 0x01)\n        /* \"UniswapV2Router02.sol\":17782:17804  IERC20(WETH).balanceOf */\n      and\n      0x70a08231\n        /* \"UniswapV2Router02.sol\":17813:17817  this */\n      address\n        /* \"UniswapV2Router02.sol\":17782:17819  IERC20(WETH).balanceOf(address(this)) */\n      mload(0x40)\n      dup3\n      0xffffffff\n      and\n      0xe0\n      shl\n      dup2\n      mstore\n      0x04\n      add\n      dup1\n      dup3\n      sub(shl(0xa0, 0x01), 0x01)\n      and\n      dup2\n      mstore\n      0x20\n      add\n      swap2\n      pop\n      pop\n      0x20\n      mload(0x40)\n      dup1\n      dup4\n      sub\n      dup2\n      dup7\n      dup1\n      extcodesize\n      iszero\n      dup1\n      iszero\n      tag_317\n      jumpi\n      0x00\n      dup1\n      revert\n    tag_317:\n      pop\n      gas\n      staticcall\n      iszero\n      dup1\n      iszero\n      tag_319\n      jumpi\n      returndatasize\n      0x00\n      dup1\n      returndatacopy\n      revert(0x00, returndatasize)\n    tag_319:\n      pop\n      pop\n      pop\n      pop\n      mload(0x40)\n      returndatasize\n      0x20\n      dup2\n      lt\n      iszero\n      tag_320\n      jumpi\n      0x00\n      dup1\n      revert\n    tag_320:\n      pop\n      mload\n      swap1\n      pop\n        /* \"UniswapV2Router02.sol\":17838:17863  amountOut >= amountOutMin */\n      dup7\n      dup2\n      lt\n      iszero\n        /* \"UniswapV2Router02.sol\":17830:17911  require(amountOut >= amountOutMin, 'UniswapV2Router: INSUFFICIENT_OUTPUT_AMOUNT') */\n      tag_321\n      jumpi\n      mload(0x40)\n      shl(0xe5, 0x461bcd)\n      dup2\n      mstore\n      0x04\n      add\n      dup1\n      dup1\n      0x20\n      add\n      dup3\n      dup2\n      sub\n      dup3\n      mstore\n      0x2b\n      dup2\n      mstore\n      0x20\n      add\n      dup1\n      data_d4ea67bea551891ab36be726b8e631181246034dffcfd5c0bbfad1e9d1729432\n      0x2b\n      swap2\n      codecopy\n      0x40\n      add\n      swap2\n      pop\n      pop\n      mload(0x40)\n      dup1\n      swap2\n      sub\n      swap1\n      revert\n    tag_321:\n        /* \"UniswapV2Router02.sol\":17928:17932  WETH */\n      immutable(\"0x8f59e018e114ef4f0f13f738daa411333c6421e3f33ae68ce5c638756a827d85\")\n      sub(shl(0xa0, 0x01), 0x01)\n        /* \"UniswapV2Router02.sol\":17922:17942  IWETH(WETH).withdraw */\n      and\n      0x2e1a7d4d\n        /* \"UniswapV2Router02.sol\":17943:17952  amountOut */\n      dup3\n        /* \"UniswapV2Router02.sol\":17922:17953  IWETH(WETH).withdraw(amountOut) */\n      mload(0x40)\n      dup3\n      0xffffffff\n      and\n      0xe0\n      shl\n      dup2\n      mstore\n      0x04\n      add\n      dup1\n      dup3\n      dup2\n      mstore\n      0x20\n      add\n      swap2\n      pop\n      pop\n      0x00\n      mload(0x40)\n      dup1\n      dup4\n      sub\n      dup2\n      0x00\n      dup8\n      dup1\n      extcodesize\n      iszero\n      dup1\n      iszero\n      tag_322\n      jumpi\n      0x00\n      dup1\n      revert\n    tag_322:\n      pop\n      gas\n      call\n      iszero\n      dup1\n      iszero\n      tag_324\n      jumpi\n      returndatasize\n      0x00\n      dup1\n      returndatacopy\n      revert(0x00, returndatasize)\n    tag_324:\n      pop\n      pop\n      pop\n      pop\n        /* \"UniswapV2Router02.sol\":17964:18009  TransferHelper.safeTransferETH(to, amountOut) */\n      tag_305\n        /* \"UniswapV2Router02.sol\":17995:17997  to */\n      dup5\n        /* \"UniswapV2Router02.sol\":17999:18008  amountOut */\n      dup3\n        /* \"UniswapV2Router02.sol\":17964:17994  TransferHelper.safeTransferETH */\n      tag_200\n        /* \"UniswapV2Router02.sol\":17964:18009  TransferHelper.safeTransferETH(to, amountOut) */\n      jump\t// in\n        /* \"UniswapV2Router02.sol\":10944:11625  function swapExactETHForTokens(\r... */\n    tag_115:\n        /* \"UniswapV2Router02.sol\":11149:11170  uint[] memory amounts */\n      0x60\n        /* \"UniswapV2Router02.sol\":11130:11138  deadline */\n      dup2\n        /* \"UniswapV2Router02.sol\":682:697  block.timestamp */\n      timestamp\n        /* \"UniswapV2Router02.sol\":670:678  deadline */\n      dup2\n        /* \"UniswapV2Router02.sol\":670:697  deadline >= block.timestamp */\n      lt\n      iszero\n        /* \"UniswapV2Router02.sol\":662:726  require(deadline >= block.timestamp, 'UniswapV2Router: EXPIRED') */\n      tag_327\n      jumpi\n      0x40\n      dup1\n      mload\n      shl(0xe5, 0x461bcd)\n      dup2\n      mstore\n      0x20\n      0x04\n      dup3\n      add\n      mstore\n      0x18\n      0x24\n      dup3\n      add\n      mstore\n      0x00\n      dup1\n      mload\n      0x20\n      data_ee5734acb032ffb1bbaf889d52ccf9fbd1ce0f1ae12bee2c46068d51b910e2c5\n      dup4\n      codecopy\n      dup2\n      mload\n      swap2\n      mstore\n      0x44\n      dup3\n      add\n      mstore\n      swap1\n      mload\n      swap1\n      dup2\n      swap1\n      sub\n      0x64\n      add\n      swap1\n      revert\n    tag_327:\n        /* \"UniswapV2Router02.sol\":11202:11206  WETH */\n      immutable(\"0x8f59e018e114ef4f0f13f738daa411333c6421e3f33ae68ce5c638756a827d85\")\n      sub(shl(0xa0, 0x01), 0x01)\n        /* \"UniswapV2Router02.sol\":11191:11206  path[0] == WETH */\n      and\n        /* \"UniswapV2Router02.sol\":11191:11195  path */\n      dup7\n      dup7\n        /* \"UniswapV2Router02.sol\":11196:11197  0 */\n      0x00\n        /* \"UniswapV2Router02.sol\":11191:11198  path[0] */\n      dup2\n      dup2\n      lt\n      tag_329\n      jumpi\n      invalid\n    tag_329:\n      swap1\n      pop\n      0x20\n      mul\n      add\n      calldataload\n      sub(shl(0xa0, 0x01), 0x01)\n      and\n      sub(shl(0xa0, 0x01), 0x01)\n        /* \"UniswapV2Router02.sol\":11191:11206  path[0] == WETH */\n      and\n      eq\n        /* \"UniswapV2Router02.sol\":11183:11240  require(path[0] == WETH, 'UniswapV2Router: INVALID_PATH') */\n      tag_330\n      jumpi\n      0x40\n      dup1\n      mload\n      shl(0xe5, 0x461bcd)\n      dup2\n      mstore\n      0x20\n      0x04\n      dup3\n      add\n      mstore\n      0x1d\n      0x24\n      dup3\n      add\n      mstore\n      0x00\n      dup1\n      mload\n      0x20\n      data_c80e789ddaeb930b746bbbcb3afe8331d926679fd96f65d8c7468b735c0a14f2\n      dup4\n      codecopy\n      dup2\n      mload\n      swap2\n      mstore\n      0x44\n      dup3\n      add\n      mstore\n      swap1\n      mload\n      swap1\n      dup2\n      swap1\n      sub\n      0x64\n      add\n      swap1\n      revert\n    tag_330:\n        /* \"UniswapV2Router02.sol\":11261:11317  UniswapV2Library.getAmountsOut(factory, msg.value, path) */\n      tag_331\n        /* \"UniswapV2Router02.sol\":11292:11299  factory */\n      immutable(\"0xb4bf3508f2fd7bb126e7af9e4fe31dbb3cdf386df5936668ea4d8292a4a1b188\")\n        /* \"UniswapV2Router02.sol\":11301:11310  msg.value */\n      callvalue\n        /* \"UniswapV2Router02.sol\":11312:11316  path */\n      dup9\n      dup9\n        /* \"UniswapV2Router02.sol\":11261:11317  UniswapV2Library.getAmountsOut(factory, msg.value, path) */\n      dup1\n      dup1\n      0x20\n      mul\n      0x20\n      add\n      mload(0x40)\n      swap1\n      dup2\n      add\n      0x40\n      mstore\n      dup1\n      swap4\n      swap3\n      swap2\n      swap1\n      dup2\n      dup2\n      mstore\n      0x20\n      add\n      dup4\n      dup4\n      0x20\n      mul\n      dup1\n      dup3\n      dup5\n      calldatacopy\n      0x00\n      swap3\n      add\n      swap2\n      swap1\n      swap2\n      mstore\n      pop\n        /* \"UniswapV2Router02.sol\":11261:11291  UniswapV2Library.getAmountsOut */\n      tag_210\n      swap3\n      pop\n      pop\n      pop\n        /* \"UniswapV2Router02.sol\":11261:11317  UniswapV2Library.getAmountsOut(factory, msg.value, path) */\n      jump\t// in\n    tag_331:\n        /* \"UniswapV2Router02.sol\":11251:11317  amounts = UniswapV2Library.getAmountsOut(factory, msg.value, path) */\n      swap2\n      pop\n        /* \"UniswapV2Router02.sol\":11367:11379  amountOutMin */\n      dup7\n        /* \"UniswapV2Router02.sol\":11336:11343  amounts */\n      dup3\n        /* \"UniswapV2Router02.sol\":11361:11362  1 */\n      0x01\n        /* \"UniswapV2Router02.sol\":11344:11351  amounts */\n      dup5\n        /* \"UniswapV2Router02.sol\":11344:11358  amounts.length */\n      mload\n        /* \"UniswapV2Router02.sol\":11344:11362  amounts.length - 1 */\n      sub\n        /* \"UniswapV2Router02.sol\":11336:11363  amounts[amounts.length - 1] */\n      dup2\n      mload\n      dup2\n      lt\n      tag_332\n      jumpi\n      invalid\n    tag_332:\n      0x20\n      mul\n      0x20\n      add\n      add\n      mload\n        /* \"UniswapV2Router02.sol\":11336:11379  amounts[amounts.length - 1] >= amountOutMin */\n      lt\n      iszero\n        /* \"UniswapV2Router02.sol\":11328:11427  require(amounts[amounts.length - 1] >= amountOutMin, 'UniswapV2Router: INSUFFICIENT_OUTPUT_AMOUNT') */\n      tag_333\n      jumpi\n      mload(0x40)\n      shl(0xe5, 0x461bcd)\n      dup2\n      mstore\n      0x04\n      add\n      dup1\n      dup1\n      0x20\n      add\n      dup3\n      dup2\n      sub\n      dup3\n      mstore\n      0x2b\n      dup2\n      mstore\n      0x20\n      add\n      dup1\n      data_d4ea67bea551891ab36be726b8e631181246034dffcfd5c0bbfad1e9d1729432\n      0x2b\n      swap2\n      codecopy\n      0x40\n      add\n      swap2\n      pop\n      pop\n      mload(0x40)\n      dup1\n      swap2\n      sub\n      swap1\n      revert\n    tag_333:\n        /* \"UniswapV2Router02.sol\":11444:11448  WETH */\n      immutable(\"0x8f59e018e114ef4f0f13f738daa411333c6421e3f33ae68ce5c638756a827d85\")\n      sub(shl(0xa0, 0x01), 0x01)\n        /* \"UniswapV2Router02.sol\":11438:11457  IWETH(WETH).deposit */\n      and\n      0xd0e30db0\n        /* \"UniswapV2Router02.sol\":11465:11472  amounts */\n      dup4\n        /* \"UniswapV2Router02.sol\":11473:11474  0 */\n      0x00\n        /* \"UniswapV2Router02.sol\":11465:11475  amounts[0] */\n      dup2\n      mload\n      dup2\n      lt\n      tag_334\n      jumpi\n      invalid\n    tag_334:\n      0x20\n      mul\n      0x20\n      add\n      add\n      mload\n        /* \"UniswapV2Router02.sol\":11438:11478  IWETH(WETH).deposit{value: amounts[0]}() */\n      mload(0x40)\n      dup3\n      0xffffffff\n      and\n      0xe0\n      shl\n      dup2\n      mstore\n      0x04\n      add\n      0x00\n      mload(0x40)\n      dup1\n      dup4\n      sub\n      dup2\n      dup6\n      dup9\n      dup1\n      extcodesize\n      iszero\n      dup1\n      iszero\n      tag_335\n      jumpi\n      0x00\n      dup1\n      revert\n    tag_335:\n      pop\n      gas\n      call\n      iszero\n      dup1\n      iszero\n      tag_337\n      jumpi\n      returndatasize\n      0x00\n      dup1\n      returndatacopy\n      revert(0x00, returndatasize)\n    tag_337:\n      pop\n      pop\n      pop\n      pop\n      pop\n        /* \"UniswapV2Router02.sol\":11502:11506  WETH */\n      immutable(\"0x8f59e018e114ef4f0f13f738daa411333c6421e3f33ae68ce5c638756a827d85\")\n      sub(shl(0xa0, 0x01), 0x01)\n        /* \"UniswapV2Router02.sol\":11496:11516  IWETH(WETH).transfer */\n      and\n      0xa9059cbb\n        /* \"UniswapV2Router02.sol\":11517:11568  UniswapV2Library.pairFor(factory, path[0], path[1]) */\n      tag_338\n        /* \"UniswapV2Router02.sol\":11542:11549  factory */\n      immutable(\"0xb4bf3508f2fd7bb126e7af9e4fe31dbb3cdf386df5936668ea4d8292a4a1b188\")\n        /* \"UniswapV2Router02.sol\":11551:11555  path */\n      dup10\n      dup10\n        /* \"UniswapV2Router02.sol\":11556:11557  0 */\n      0x00\n        /* \"UniswapV2Router02.sol\":11551:11558  path[0] */\n      dup2\n      dup2\n      lt\n      tag_289\n      jumpi\n      invalid\n        /* \"UniswapV2Router02.sol\":11517:11568  UniswapV2Library.pairFor(factory, path[0], path[1]) */\n    tag_338:\n        /* \"UniswapV2Router02.sol\":11570:11577  amounts */\n      dup5\n        /* \"UniswapV2Router02.sol\":11578:11579  0 */\n      0x00\n        /* \"UniswapV2Router02.sol\":11570:11580  amounts[0] */\n      dup2\n      mload\n      dup2\n      lt\n      tag_341\n      jumpi\n      invalid\n    tag_341:\n      0x20\n      mul\n      0x20\n      add\n      add\n      mload\n        /* \"UniswapV2Router02.sol\":11496:11581  IWETH(WETH).transfer(UniswapV2Library.pairFor(factory, path[0], path[1]), amounts[0]) */\n      mload(0x40)\n      dup4\n      0xffffffff\n      and\n      0xe0\n      shl\n      dup2\n      mstore\n      0x04\n      add\n      dup1\n      dup4\n      sub(shl(0xa0, 0x01), 0x01)\n      and\n      dup2\n      mstore\n      0x20\n      add\n      dup3\n      dup2\n      mstore\n      0x20\n      add\n      swap3\n      pop\n      pop\n      pop\n      0x20\n      mload(0x40)\n      dup1\n      dup4\n      sub\n      dup2\n      0x00\n      dup8\n      dup1\n      extcodesize\n      iszero\n      dup1\n      iszero\n      tag_342\n      jumpi\n      0x00\n      dup1\n      revert\n    tag_342:\n      pop\n      gas\n      call\n      iszero\n      dup1\n      iszero\n      tag_344\n      jumpi\n      returndatasize\n      0x00\n      dup1\n      returndatacopy\n      revert(0x00, returndatasize)\n    tag_344:\n      pop\n      pop\n      pop\n      pop\n      mload(0x40)\n      returndatasize\n      0x20\n      dup2\n      lt\n      iszero\n      tag_345\n      jumpi\n      0x00\n      dup1\n      revert\n    tag_345:\n      pop\n      mload\n        /* \"UniswapV2Router02.sol\":11489:11582  assert(IWETH(WETH).transfer(UniswapV2Library.pairFor(factory, path[0], path[1]), amounts[0])) */\n      tag_346\n      jumpi\n      invalid\n    tag_346:\n        /* \"UniswapV2Router02.sol\":11593:11617  _swap(amounts, path, to) */\n      tag_347\n        /* \"UniswapV2Router02.sol\":11599:11606  amounts */\n      dup3\n        /* \"UniswapV2Router02.sol\":11608:11612  path */\n      dup8\n      dup8\n        /* \"UniswapV2Router02.sol\":11593:11617  _swap(amounts, path, to) */\n      dup1\n      dup1\n      0x20\n      mul\n      0x20\n      add\n      mload(0x40)\n      swap1\n      dup2\n      add\n      0x40\n      mstore\n      dup1\n      swap4\n      swap3\n      swap2\n      swap1\n      dup2\n      dup2\n      mstore\n      0x20\n      add\n      dup4\n      dup4\n      0x20\n      mul\n      dup1\n      dup3\n      dup5\n      calldatacopy\n      0x00\n      swap3\n      add\n      swap2\n      swap1\n      swap2\n      mstore\n      pop\n        /* \"UniswapV2Router02.sol\":11614:11616  to */\n      dup10\n      swap3\n      pop\n        /* \"UniswapV2Router02.sol\":11593:11598  _swap */\n      tag_222\n      swap2\n      pop\n      pop\n        /* \"UniswapV2Router02.sol\":11593:11617  _swap(amounts, path, to) */\n      jump\t// in\n    tag_347:\n        /* \"UniswapV2Router02.sol\":10944:11625  function swapExactETHForTokens(\r... */\n      pop\n      swap6\n      swap5\n      pop\n      pop\n      pop\n      pop\n      pop\n      jump\t// out\n        /* \"UniswapV2Router02.sol\":18511:18756  function getAmountIn(\r... */\n    tag_122:\n        /* \"UniswapV2Router02.sol\":18653:18666  uint amountIn */\n      0x00\n        /* \"UniswapV2Router02.sol\":18686:18748  UniswapV2Library.getAmountIn(amountOut, reserveIn, reserveOut) */\n      tag_202\n        /* \"UniswapV2Router02.sol\":18715:18724  amountOut */\n      dup5\n        /* \"UniswapV2Router02.sol\":18726:18735  reserveIn */\n      dup5\n        /* \"UniswapV2Router02.sol\":18737:18747  reserveOut */\n      dup5\n        /* \"UniswapV2Router02.sol\":18686:18714  UniswapV2Library.getAmountIn */\n      tag_350\n        /* \"UniswapV2Router02.sol\":18686:18748  UniswapV2Library.getAmountIn(amountOut, reserveIn, reserveOut) */\n      jump\t// in\n        /* \"UniswapV2Router02.sol\":10291:10936  function swapTokensForExactTokens(\r... */\n    tag_129:\n        /* \"UniswapV2Router02.sol\":10515:10536  uint[] memory amounts */\n      0x60\n        /* \"UniswapV2Router02.sol\":10496:10504  deadline */\n      dup2\n        /* \"UniswapV2Router02.sol\":682:697  block.timestamp */\n      timestamp\n        /* \"UniswapV2Router02.sol\":670:678  deadline */\n      dup2\n        /* \"UniswapV2Router02.sol\":670:697  deadline >= block.timestamp */\n      lt\n      iszero\n        /* \"UniswapV2Router02.sol\":662:726  require(deadline >= block.timestamp, 'UniswapV2Router: EXPIRED') */\n      tag_352\n      jumpi\n      0x40\n      dup1\n      mload\n      shl(0xe5, 0x461bcd)\n      dup2\n      mstore\n      0x20\n      0x04\n      dup3\n      add\n      mstore\n      0x18\n      0x24\n      dup3\n      add\n      mstore\n      0x00\n      dup1\n      mload\n      0x20\n      data_ee5734acb032ffb1bbaf889d52ccf9fbd1ce0f1ae12bee2c46068d51b910e2c5\n      dup4\n      codecopy\n      dup2\n      mload\n      swap2\n      mstore\n      0x44\n      dup3\n      add\n      mstore\n      swap1\n      mload\n      swap1\n      dup2\n      swap1\n      sub\n      0x64\n      add\n      swap1\n      revert\n    tag_352:\n        /* \"UniswapV2Router02.sol\":10559:10614  UniswapV2Library.getAmountsIn(factory, amountOut, path) */\n      tag_354\n        /* \"UniswapV2Router02.sol\":10589:10596  factory */\n      immutable(\"0xb4bf3508f2fd7bb126e7af9e4fe31dbb3cdf386df5936668ea4d8292a4a1b188\")\n        /* \"UniswapV2Router02.sol\":10598:10607  amountOut */\n      dup10\n        /* \"UniswapV2Router02.sol\":10609:10613  path */\n      dup9\n      dup9\n        /* \"UniswapV2Router02.sol\":10559:10614  UniswapV2Library.getAmountsIn(factory, amountOut, path) */\n      dup1\n      dup1\n      0x20\n      mul\n      0x20\n      add\n      mload(0x40)\n      swap1\n      dup2\n      add\n      0x40\n      mstore\n      dup1\n      swap4\n      swap3\n      swap2\n      swap1\n      dup2\n      dup2\n      mstore\n      0x20\n      add\n      dup4\n      dup4\n      0x20\n      mul\n      dup1\n      dup3\n      dup5\n      calldatacopy\n      0x00\n      swap3\n      add\n      swap2\n      swap1\n      swap2\n      mstore\n      pop\n        /* \"UniswapV2Router02.sol\":10559:10588  UniswapV2Library.getAmountsIn */\n      tag_231\n      swap3\n      pop\n      pop\n      pop\n        /* \"UniswapV2Router02.sol\":10559:10614  UniswapV2Library.getAmountsIn(factory, amountOut, path) */\n      jump\t// in\n    tag_354:\n        /* \"UniswapV2Router02.sol\":10549:10614  amounts = UniswapV2Library.getAmountsIn(factory, amountOut, path) */\n      swap2\n      pop\n        /* \"UniswapV2Router02.sol\":10647:10658  amountInMax */\n      dup7\n        /* \"UniswapV2Router02.sol\":10633:10640  amounts */\n      dup3\n        /* \"UniswapV2Router02.sol\":10641:10642  0 */\n      0x00\n        /* \"UniswapV2Router02.sol\":10633:10643  amounts[0] */\n      dup2\n      mload\n      dup2\n      lt\n      tag_355\n      jumpi\n      invalid\n    tag_355:\n      0x20\n      mul\n      0x20\n      add\n      add\n      mload\n        /* \"UniswapV2Router02.sol\":10633:10658  amounts[0] <= amountInMax */\n      gt\n      iszero\n        /* \"UniswapV2Router02.sol\":10625:10702  require(amounts[0] <= amountInMax, 'UniswapV2Router: EXCESSIVE_INPUT_AMOUNT') */\n      tag_246\n      jumpi\n      mload(0x40)\n      shl(0xe5, 0x461bcd)\n      dup2\n      mstore\n      0x04\n      add\n      dup1\n      dup1\n      0x20\n      add\n      dup3\n      dup2\n      sub\n      dup3\n      mstore\n      0x27\n      dup2\n      mstore\n      0x20\n      add\n      dup1\n      data_bb18004cd22eaad7ea393d184ea6ac1df1428db36bb6fbff8af486232d68ae2c\n      0x27\n      swap2\n      codecopy\n      0x40\n      add\n      swap2\n      pop\n      pop\n      mload(0x40)\n      dup1\n      swap2\n      sub\n      swap1\n      revert\n        /* \"UniswapV2Router02.sol\":579:611  uint256 public override adminFee */\n    tag_135:\n      sload(0x00)\n      dup2\n      jump\t// out\n        /* \"UniswapV2Router02.sol\":534:572  address public immutable override WETH */\n    tag_138:\n      immutable(\"0x8f59e018e114ef4f0f13f738daa411333c6421e3f33ae68ce5c638756a827d85\")\n      dup2\n      jump\t// out\n        /* \"UniswapV2Router02.sol\":18061:18249  function quote(uint amountA, uint reserveA, uint reserveB) public pure virtual override returns (uint amountB) {\r... */\n    tag_142:\n        /* \"UniswapV2Router02.sol\":18158:18170  uint amountB */\n      0x00\n        /* \"UniswapV2Router02.sol\":18190:18241  UniswapV2Library.quote(amountA, reserveA, reserveB) */\n      tag_202\n        /* \"UniswapV2Router02.sol\":18213:18220  amountA */\n      dup5\n        /* \"UniswapV2Router02.sol\":18222:18230  reserveA */\n      dup5\n        /* \"UniswapV2Router02.sol\":18232:18240  reserveB */\n      dup5\n        /* \"UniswapV2Router02.sol\":18190:18212  UniswapV2Library.quote */\n      tag_366\n        /* \"UniswapV2Router02.sol\":18190:18241  UniswapV2Library.quote(amountA, reserveA, reserveB) */\n      jump\t// in\n        /* \"UniswapV2Router02.sol\":7294:7892  function removeLiquidityETHSupportingFeeOnTransferTokens(\r... */\n    tag_146:\n        /* \"UniswapV2Router02.sol\":7560:7574  uint amountETH */\n      0x00\n        /* \"UniswapV2Router02.sol\":7541:7549  deadline */\n      dup2\n        /* \"UniswapV2Router02.sol\":682:697  block.timestamp */\n      timestamp\n        /* \"UniswapV2Router02.sol\":670:678  deadline */\n      dup2\n        /* \"UniswapV2Router02.sol\":670:697  deadline >= block.timestamp */\n      lt\n      iszero\n        /* \"UniswapV2Router02.sol\":662:726  require(deadline >= block.timestamp, 'UniswapV2Router: EXPIRED') */\n      tag_368\n      jumpi\n      0x40\n      dup1\n      mload\n      shl(0xe5, 0x461bcd)\n      dup2\n      mstore\n      0x20\n      0x04\n      dup3\n      add\n      mstore\n      0x18\n      0x24\n      dup3\n      add\n      mstore\n      0x00\n      dup1\n      mload\n      0x20\n      data_ee5734acb032ffb1bbaf889d52ccf9fbd1ce0f1ae12bee2c46068d51b910e2c5\n      dup4\n      codecopy\n      dup2\n      mload\n      swap2\n      mstore\n      0x44\n      dup3\n      add\n      mstore\n      swap1\n      mload\n      swap1\n      dup2\n      swap1\n      sub\n      0x64\n      add\n      swap1\n      revert\n    tag_368:\n        /* \"UniswapV2Router02.sol\":7603:7697  removeLiquidity(token, WETH, liquidity, amountTokenMin, amountETHMin, address(this), deadline) */\n      tag_370\n        /* \"UniswapV2Router02.sol\":7619:7624  token */\n      dup9\n        /* \"UniswapV2Router02.sol\":7626:7630  WETH */\n      immutable(\"0x8f59e018e114ef4f0f13f738daa411333c6421e3f33ae68ce5c638756a827d85\")\n        /* \"UniswapV2Router02.sol\":7632:7641  liquidity */\n      dup10\n        /* \"UniswapV2Router02.sol\":7643:7657  amountTokenMin */\n      dup10\n        /* \"UniswapV2Router02.sol\":7659:7671  amountETHMin */\n      dup10\n        /* \"UniswapV2Router02.sol\":7681:7685  this */\n      address\n        /* \"UniswapV2Router02.sol\":7688:7696  deadline */\n      dup10\n        /* \"UniswapV2Router02.sol\":7603:7618  removeLiquidity */\n      tag_156\n        /* \"UniswapV2Router02.sol\":7603:7697  removeLiquidity(token, WETH, liquidity, amountTokenMin, amountETHMin, address(this), deadline) */\n      jump\t// in\n    tag_370:\n        /* \"UniswapV2Router02.sol\":7587:7697  (, amountETH) = removeLiquidity(token, WETH, liquidity, amountTokenMin, amountETHMin, address(this), deadline) */\n      swap1\n      pop\n      dup1\n      swap3\n      pop\n      pop\n        /* \"UniswapV2Router02.sol\":7708:7786  TransferHelper.safeTransfer(token, to, IERC20(token).balanceOf(address(this))) */\n      tag_371\n        /* \"UniswapV2Router02.sol\":7736:7741  token */\n      dup9\n        /* \"UniswapV2Router02.sol\":7743:7745  to */\n      dup6\n        /* \"UniswapV2Router02.sol\":7754:7759  token */\n      dup11\n      sub(shl(0xa0, 0x01), 0x01)\n        /* \"UniswapV2Router02.sol\":7747:7770  IERC20(token).balanceOf */\n      and\n      0x70a08231\n        /* \"UniswapV2Router02.sol\":7779:7783  this */\n      address\n        /* \"UniswapV2Router02.sol\":7747:7785  IERC20(token).balanceOf(address(this)) */\n      mload(0x40)\n      dup3\n      0xffffffff\n      and\n      0xe0\n      shl\n      dup2\n      mstore\n      0x04\n      add\n      dup1\n      dup3\n      sub(shl(0xa0, 0x01), 0x01)\n      and\n      dup2\n      mstore\n      0x20\n      add\n      swap2\n      pop\n      pop\n      0x20\n      mload(0x40)\n      dup1\n      dup4\n      sub\n      dup2\n      dup7\n      dup1\n      extcodesize\n      iszero\n      dup1\n      iszero\n      tag_372\n      jumpi\n      0x00\n      dup1\n      revert\n    tag_372:\n      pop\n      gas\n      staticcall\n      iszero\n      dup1\n      iszero\n      tag_374\n      jumpi\n      returndatasize\n      0x00\n      dup1\n      returndatacopy\n      revert(0x00, returndatasize)\n    tag_374:\n      pop\n      pop\n      pop\n      pop\n      mload(0x40)\n      returndatasize\n      0x20\n      dup2\n      lt\n      iszero\n      tag_375\n      jumpi\n      0x00\n      dup1\n      revert\n    tag_375:\n      pop\n      mload\n        /* \"UniswapV2Router02.sol\":7708:7735  TransferHelper.safeTransfer */\n      tag_195\n        /* \"UniswapV2Router02.sol\":7708:7786  TransferHelper.safeTransfer(token, to, IERC20(token).balanceOf(address(this))) */\n      jump\t// in\n    tag_371:\n        /* \"UniswapV2Router02.sol\":7803:7807  WETH */\n      immutable(\"0x8f59e018e114ef4f0f13f738daa411333c6421e3f33ae68ce5c638756a827d85\")\n      sub(shl(0xa0, 0x01), 0x01)\n        /* \"UniswapV2Router02.sol\":7797:7817  IWETH(WETH).withdraw */\n      and\n      0x2e1a7d4d\n        /* \"UniswapV2Router02.sol\":7818:7827  amountETH */\n      dup4\n        /* \"UniswapV2Router02.sol\":7797:7828  IWETH(WETH).withdraw(amountETH) */\n      mload(0x40)\n      dup3\n      0xffffffff\n      and\n      0xe0\n      shl\n      dup2\n      mstore\n      0x04\n      add\n      dup1\n      dup3\n      dup2\n      mstore\n      0x20\n      add\n      swap2\n      pop\n      pop\n      0x00\n      mload(0x40)\n      dup1\n      dup4\n      sub\n      dup2\n      0x00\n      dup8\n      dup1\n      extcodesize\n      iszero\n      dup1\n      iszero\n      tag_376\n      jumpi\n      0x00\n      dup1\n      revert\n    tag_376:\n      pop\n      gas\n      call\n      iszero\n      dup1\n      iszero\n      tag_378\n      jumpi\n      returndatasize\n      0x00\n      dup1\n      returndatacopy\n      revert(0x00, returndatasize)\n    tag_378:\n      pop\n      pop\n      pop\n      pop\n        /* \"UniswapV2Router02.sol\":7839:7884  TransferHelper.safeTransferETH(to, amountETH) */\n      tag_227\n        /* \"UniswapV2Router02.sol\":7870:7872  to */\n      dup5\n        /* \"UniswapV2Router02.sol\":7874:7883  amountETH */\n      dup4\n        /* \"UniswapV2Router02.sol\":7839:7869  TransferHelper.safeTransferETH */\n      tag_200\n        /* \"UniswapV2Router02.sol\":7839:7884  TransferHelper.safeTransferETH(to, amountETH) */\n      jump\t// in\n        /* \"UniswapV2Router02.sol\":16368:17168  function swapExactETHForTokensSupportingFeeOnTransferTokens(\r... */\n    tag_152:\n        /* \"UniswapV2Router02.sol\":16583:16591  deadline */\n      dup1\n        /* \"UniswapV2Router02.sol\":682:697  block.timestamp */\n      timestamp\n        /* \"UniswapV2Router02.sol\":670:678  deadline */\n      dup2\n        /* \"UniswapV2Router02.sol\":670:697  deadline >= block.timestamp */\n      lt\n      iszero\n        /* \"UniswapV2Router02.sol\":662:726  require(deadline >= block.timestamp, 'UniswapV2Router: EXPIRED') */\n      tag_381\n      jumpi\n      0x40\n      dup1\n      mload\n      shl(0xe5, 0x461bcd)\n      dup2\n      mstore\n      0x20\n      0x04\n      dup3\n      add\n      mstore\n      0x18\n      0x24\n      dup3\n      add\n      mstore\n      0x00\n      dup1\n      mload\n      0x20\n      data_ee5734acb032ffb1bbaf889d52ccf9fbd1ce0f1ae12bee2c46068d51b910e2c5\n      dup4\n      codecopy\n      dup2\n      mload\n      swap2\n      mstore\n      0x44\n      dup3\n      add\n      mstore\n      swap1\n      mload\n      swap1\n      dup2\n      swap1\n      sub\n      0x64\n      add\n      swap1\n      revert\n    tag_381:\n        /* \"UniswapV2Router02.sol\":16623:16627  WETH */\n      immutable(\"0x8f59e018e114ef4f0f13f738daa411333c6421e3f33ae68ce5c638756a827d85\")\n      sub(shl(0xa0, 0x01), 0x01)\n        /* \"UniswapV2Router02.sol\":16612:16627  path[0] == WETH */\n      and\n        /* \"UniswapV2Router02.sol\":16612:16616  path */\n      dup6\n      dup6\n        /* \"UniswapV2Router02.sol\":16617:16618  0 */\n      0x00\n        /* \"UniswapV2Router02.sol\":16612:16619  path[0] */\n      dup2\n      dup2\n      lt\n      tag_383\n      jumpi\n      invalid\n    tag_383:\n      swap1\n      pop\n      0x20\n      mul\n      add\n      calldataload\n      sub(shl(0xa0, 0x01), 0x01)\n      and\n      sub(shl(0xa0, 0x01), 0x01)\n        /* \"UniswapV2Router02.sol\":16612:16627  path[0] == WETH */\n      and\n      eq\n        /* \"UniswapV2Router02.sol\":16604:16661  require(path[0] == WETH, 'UniswapV2Router: INVALID_PATH') */\n      tag_384\n      jumpi\n      0x40\n      dup1\n      mload\n      shl(0xe5, 0x461bcd)\n      dup2\n      mstore\n      0x20\n      0x04\n      dup3\n      add\n      mstore\n      0x1d\n      0x24\n      dup3\n      add\n      mstore\n      0x00\n      dup1\n      mload\n      0x20\n      data_c80e789ddaeb930b746bbbcb3afe8331d926679fd96f65d8c7468b735c0a14f2\n      dup4\n      codecopy\n      dup2\n      mload\n      swap2\n      mstore\n      0x44\n      dup3\n      add\n      mstore\n      swap1\n      mload\n      swap1\n      dup2\n      swap1\n      sub\n      0x64\n      add\n      swap1\n      revert\n    tag_384:\n        /* \"UniswapV2Router02.sol\":16672:16685  uint amountIn */\n      0x00\n        /* \"UniswapV2Router02.sol\":16688:16697  msg.value */\n      callvalue\n        /* \"UniswapV2Router02.sol\":16672:16697  uint amountIn = msg.value */\n      swap1\n      pop\n        /* \"UniswapV2Router02.sol\":16714:16718  WETH */\n      immutable(\"0x8f59e018e114ef4f0f13f738daa411333c6421e3f33ae68ce5c638756a827d85\")\n      sub(shl(0xa0, 0x01), 0x01)\n        /* \"UniswapV2Router02.sol\":16708:16727  IWETH(WETH).deposit */\n      and\n      0xd0e30db0\n        /* \"UniswapV2Router02.sol\":16735:16743  amountIn */\n      dup3\n        /* \"UniswapV2Router02.sol\":16708:16746  IWETH(WETH).deposit{value: amountIn}() */\n      mload(0x40)\n      dup3\n      0xffffffff\n      and\n      0xe0\n      shl\n      dup2\n      mstore\n      0x04\n      add\n      0x00\n      mload(0x40)\n      dup1\n      dup4\n      sub\n      dup2\n      dup6\n      dup9\n      dup1\n      extcodesize\n      iszero\n      dup1\n      iszero\n      tag_385\n      jumpi\n      0x00\n      dup1\n      revert\n    tag_385:\n      pop\n      gas\n      call\n      iszero\n      dup1\n      iszero\n      tag_387\n      jumpi\n      returndatasize\n      0x00\n      dup1\n      returndatacopy\n      revert(0x00, returndatasize)\n    tag_387:\n      pop\n      pop\n      pop\n      pop\n      pop\n        /* \"UniswapV2Router02.sol\":16770:16774  WETH */\n      immutable(\"0x8f59e018e114ef4f0f13f738daa411333c6421e3f33ae68ce5c638756a827d85\")\n      sub(shl(0xa0, 0x01), 0x01)\n        /* \"UniswapV2Router02.sol\":16764:16784  IWETH(WETH).transfer */\n      and\n      0xa9059cbb\n        /* \"UniswapV2Router02.sol\":16785:16836  UniswapV2Library.pairFor(factory, path[0], path[1]) */\n      tag_388\n        /* \"UniswapV2Router02.sol\":16810:16817  factory */\n      immutable(\"0xb4bf3508f2fd7bb126e7af9e4fe31dbb3cdf386df5936668ea4d8292a4a1b188\")\n        /* \"UniswapV2Router02.sol\":16819:16823  path */\n      dup10\n      dup10\n        /* \"UniswapV2Router02.sol\":16824:16825  0 */\n      0x00\n        /* \"UniswapV2Router02.sol\":16819:16826  path[0] */\n      dup2\n      dup2\n      lt\n      tag_289\n      jumpi\n      invalid\n        /* \"UniswapV2Router02.sol\":16785:16836  UniswapV2Library.pairFor(factory, path[0], path[1]) */\n    tag_388:\n        /* \"UniswapV2Router02.sol\":16838:16846  amountIn */\n      dup4\n        /* \"UniswapV2Router02.sol\":16764:16847  IWETH(WETH).transfer(UniswapV2Library.pairFor(factory, path[0], path[1]), amountIn) */\n      mload(0x40)\n      dup4\n      0xffffffff\n      and\n      0xe0\n      shl\n      dup2\n      mstore\n      0x04\n      add\n      dup1\n      dup4\n      sub(shl(0xa0, 0x01), 0x01)\n      and\n      dup2\n      mstore\n      0x20\n      add\n      dup3\n      dup2\n      mstore\n      0x20\n      add\n      swap3\n      pop\n      pop\n      pop\n      0x20\n      mload(0x40)\n      dup1\n      dup4\n      sub\n      dup2\n      0x00\n      dup8\n      dup1\n      extcodesize\n      iszero\n      dup1\n      iszero\n      tag_391\n      jumpi\n      0x00\n      dup1\n      revert\n    tag_391:\n      pop\n      gas\n      call\n      iszero\n      dup1\n      iszero\n      tag_393\n      jumpi\n      returndatasize\n      0x00\n      dup1\n      returndatacopy\n      revert(0x00, returndatasize)\n    tag_393:\n      pop\n      pop\n      pop\n      pop\n      mload(0x40)\n      returndatasize\n      0x20\n      dup2\n      lt\n      iszero\n      tag_394\n      jumpi\n      0x00\n      dup1\n      revert\n    tag_394:\n      pop\n      mload\n        /* \"UniswapV2Router02.sol\":16757:16848  assert(IWETH(WETH).transfer(UniswapV2Library.pairFor(factory, path[0], path[1]), amountIn)) */\n      tag_395\n      jumpi\n      invalid\n    tag_395:\n        /* \"UniswapV2Router02.sol\":16859:16877  uint balanceBefore */\n      0x00\n        /* \"UniswapV2Router02.sol\":16887:16891  path */\n      dup7\n      dup7\n      not(0x00)\n        /* \"UniswapV2Router02.sol\":16892:16907  path.length - 1 */\n      dup2\n      add\n        /* \"UniswapV2Router02.sol\":16887:16908  path[path.length - 1] */\n      dup2\n      dup2\n      lt\n      tag_396\n      jumpi\n      invalid\n    tag_396:\n      swap1\n      pop\n      0x20\n      mul\n      add\n      calldataload\n      sub(shl(0xa0, 0x01), 0x01)\n      and\n      sub(shl(0xa0, 0x01), 0x01)\n        /* \"UniswapV2Router02.sol\":16880:16919  IERC20(path[path.length - 1]).balanceOf */\n      and\n      0x70a08231\n        /* \"UniswapV2Router02.sol\":16920:16922  to */\n      dup7\n        /* \"UniswapV2Router02.sol\":16880:16923  IERC20(path[path.length - 1]).balanceOf(to) */\n      mload(0x40)\n      dup3\n      0xffffffff\n      and\n      0xe0\n      shl\n      dup2\n      mstore\n      0x04\n      add\n      dup1\n      dup3\n      sub(shl(0xa0, 0x01), 0x01)\n      and\n      dup2\n      mstore\n      0x20\n      add\n      swap2\n      pop\n      pop\n      0x20\n      mload(0x40)\n      dup1\n      dup4\n      sub\n      dup2\n      dup7\n      dup1\n      extcodesize\n      iszero\n      dup1\n      iszero\n      tag_397\n      jumpi\n      0x00\n      dup1\n      revert\n    tag_397:\n      pop\n      gas\n      staticcall\n      iszero\n      dup1\n      iszero\n      tag_399\n      jumpi\n      returndatasize\n      0x00\n      dup1\n      returndatacopy\n      revert(0x00, returndatasize)\n    tag_399:\n      pop\n      pop\n      pop\n      pop\n      mload(0x40)\n      returndatasize\n      0x20\n      dup2\n      lt\n      iszero\n      tag_400\n      jumpi\n      0x00\n      dup1\n      revert\n    tag_400:\n      pop\n      mload\n        /* \"UniswapV2Router02.sol\":16934:16978  _swapSupportingFeeOnTransferTokens(path, to) */\n      0x40\n      dup1\n      mload\n        /* \"UniswapV2Router02.sol\":16880:16923  IERC20(path[path.length - 1]).balanceOf(to) */\n      0x20\n        /* \"UniswapV2Router02.sol\":16934:16978  _swapSupportingFeeOnTransferTokens(path, to) */\n      dup10\n      dup2\n      mul\n      dup3\n      dup2\n      add\n      dup3\n      add\n      swap1\n      swap4\n      mstore\n      dup10\n      dup3\n      mstore\n        /* \"UniswapV2Router02.sol\":16880:16923  IERC20(path[path.length - 1]).balanceOf(to) */\n      swap3\n      swap4\n      pop\n        /* \"UniswapV2Router02.sol\":16934:16978  _swapSupportingFeeOnTransferTokens(path, to) */\n      tag_401\n      swap3\n      swap1\n      swap2\n        /* \"UniswapV2Router02.sol\":16969:16973  path */\n      dup11\n      swap2\n      dup11\n      swap2\n      dup3\n      swap2\n        /* \"UniswapV2Router02.sol\":16934:16978  _swapSupportingFeeOnTransferTokens(path, to) */\n      dup6\n      add\n      swap1\n        /* \"UniswapV2Router02.sol\":16969:16973  path */\n      dup5\n      swap1\n        /* \"UniswapV2Router02.sol\":16934:16978  _swapSupportingFeeOnTransferTokens(path, to) */\n      dup1\n        /* \"UniswapV2Router02.sol\":16969:16973  path */\n      dup3\n        /* \"UniswapV2Router02.sol\":16934:16978  _swapSupportingFeeOnTransferTokens(path, to) */\n      dup5\n      calldatacopy\n      0x00\n      swap3\n      add\n      swap2\n      swap1\n      swap2\n      mstore\n      pop\n        /* \"UniswapV2Router02.sol\":16975:16977  to */\n      dup10\n      swap3\n      pop\n        /* \"UniswapV2Router02.sol\":16934:16968  _swapSupportingFeeOnTransferTokens */\n      tag_297\n      swap2\n      pop\n      pop\n        /* \"UniswapV2Router02.sol\":16934:16978  _swapSupportingFeeOnTransferTokens(path, to) */\n      jump\t// in\n    tag_401:\n        /* \"UniswapV2Router02.sol\":17077:17089  amountOutMin */\n      dup8\n        /* \"UniswapV2Router02.sol\":17011:17073  IERC20(path[path.length - 1]).balanceOf(to).sub(balanceBefore) */\n      tag_298\n        /* \"UniswapV2Router02.sol\":17059:17072  balanceBefore */\n      dup3\n        /* \"UniswapV2Router02.sol\":17018:17022  path */\n      dup10\n      dup10\n      not(0x00)\n        /* \"UniswapV2Router02.sol\":17023:17038  path.length - 1 */\n      dup2\n      add\n        /* \"UniswapV2Router02.sol\":17018:17039  path[path.length - 1] */\n      dup2\n      dup2\n      lt\n      tag_403\n      jumpi\n      invalid\n    tag_403:\n      swap1\n      pop\n      0x20\n      mul\n      add\n      calldataload\n      sub(shl(0xa0, 0x01), 0x01)\n      and\n      sub(shl(0xa0, 0x01), 0x01)\n        /* \"UniswapV2Router02.sol\":17011:17050  IERC20(path[path.length - 1]).balanceOf */\n      and\n      0x70a08231\n        /* \"UniswapV2Router02.sol\":17051:17053  to */\n      dup10\n        /* \"UniswapV2Router02.sol\":17011:17054  IERC20(path[path.length - 1]).balanceOf(to) */\n      mload(0x40)\n      dup3\n      0xffffffff\n      and\n      0xe0\n      shl\n      dup2\n      mstore\n      0x04\n      add\n      dup1\n      dup3\n      sub(shl(0xa0, 0x01), 0x01)\n      and\n      dup2\n      mstore\n      0x20\n      add\n      swap2\n      pop\n      pop\n      0x20\n      mload(0x40)\n      dup1\n      dup4\n      sub\n      dup2\n      dup7\n      dup1\n      extcodesize\n      iszero\n      dup1\n      iszero\n      tag_300\n      jumpi\n      0x00\n      dup1\n      revert\n        /* \"UniswapV2Router02.sol\":4252:5118  function removeLiquidity(\r... */\n    tag_156:\n        /* \"UniswapV2Router02.sol\":4506:4518  uint amountA */\n      0x00\n        /* \"UniswapV2Router02.sol\":4520:4532  uint amountB */\n      dup1\n        /* \"UniswapV2Router02.sol\":4487:4495  deadline */\n      dup3\n        /* \"UniswapV2Router02.sol\":682:697  block.timestamp */\n      timestamp\n        /* \"UniswapV2Router02.sol\":670:678  deadline */\n      dup2\n        /* \"UniswapV2Router02.sol\":670:697  deadline >= block.timestamp */\n      lt\n      iszero\n        /* \"UniswapV2Router02.sol\":662:726  require(deadline >= block.timestamp, 'UniswapV2Router: EXPIRED') */\n      tag_410\n      jumpi\n      0x40\n      dup1\n      mload\n      shl(0xe5, 0x461bcd)\n      dup2\n      mstore\n      0x20\n      0x04\n      dup3\n      add\n      mstore\n      0x18\n      0x24\n      dup3\n      add\n      mstore\n      0x00\n      dup1\n      mload\n      0x20\n      data_ee5734acb032ffb1bbaf889d52ccf9fbd1ce0f1ae12bee2c46068d51b910e2c5\n      dup4\n      codecopy\n      dup2\n      mload\n      swap2\n      mstore\n      0x44\n      dup3\n      add\n      mstore\n      swap1\n      mload\n      swap1\n      dup2\n      swap1\n      sub\n      0x64\n      add\n      swap1\n      revert\n    tag_410:\n        /* \"UniswapV2Router02.sol\":4545:4557  address pair */\n      0x00\n        /* \"UniswapV2Router02.sol\":4560:4609  UniswapV2Library.pairFor(factory, tokenA, tokenB) */\n      tag_412\n        /* \"UniswapV2Router02.sol\":4585:4592  factory */\n      immutable(\"0xb4bf3508f2fd7bb126e7af9e4fe31dbb3cdf386df5936668ea4d8292a4a1b188\")\n        /* \"UniswapV2Router02.sol\":4594:4600  tokenA */\n      dup13\n        /* \"UniswapV2Router02.sol\":4602:4608  tokenB */\n      dup13\n        /* \"UniswapV2Router02.sol\":4560:4584  UniswapV2Library.pairFor */\n      tag_218\n        /* \"UniswapV2Router02.sol\":4560:4609  UniswapV2Library.pairFor(factory, tokenA, tokenB) */\n      jump\t// in\n    tag_412:\n        /* \"UniswapV2Router02.sol\":4620:4682  IUniswapV2Pair(pair).transferFrom(msg.sender, pair, liquidity) */\n      0x40\n      dup1\n      mload\n      shl(0xe0, 0x23b872dd)\n      dup2\n      mstore\n        /* \"UniswapV2Router02.sol\":4654:4664  msg.sender */\n      caller\n        /* \"UniswapV2Router02.sol\":4620:4682  IUniswapV2Pair(pair).transferFrom(msg.sender, pair, liquidity) */\n      0x04\n      dup3\n      add\n      mstore\n      sub(shl(0xa0, 0x01), 0x01)\n        /* \"UniswapV2Router02.sol\":4620:4653  IUniswapV2Pair(pair).transferFrom */\n      dup4\n      and\n        /* \"UniswapV2Router02.sol\":4620:4682  IUniswapV2Pair(pair).transferFrom(msg.sender, pair, liquidity) */\n      0x24\n      dup3\n      add\n      dup2\n      swap1\n      mstore\n      0x44\n      dup3\n      add\n      dup14\n      swap1\n      mstore\n      swap2\n      mload\n        /* \"UniswapV2Router02.sol\":4545:4609  address pair = UniswapV2Library.pairFor(factory, tokenA, tokenB) */\n      swap3\n      swap4\n      pop\n        /* \"UniswapV2Router02.sol\":4620:4653  IUniswapV2Pair(pair).transferFrom */\n      swap1\n      swap2\n      0x23b872dd\n      swap2\n        /* \"UniswapV2Router02.sol\":4620:4682  IUniswapV2Pair(pair).transferFrom(msg.sender, pair, liquidity) */\n      0x64\n      dup1\n      dup3\n      add\n      swap3\n      0x20\n      swap3\n      swap1\n      swap2\n      swap1\n      dup3\n      swap1\n      sub\n      add\n      dup2\n      0x00\n        /* \"UniswapV2Router02.sol\":4620:4653  IUniswapV2Pair(pair).transferFrom */\n      dup8\n        /* \"UniswapV2Router02.sol\":4620:4682  IUniswapV2Pair(pair).transferFrom(msg.sender, pair, liquidity) */\n      dup1\n      extcodesize\n      iszero\n      dup1\n      iszero\n      tag_413\n      jumpi\n      0x00\n      dup1\n      revert\n    tag_413:\n      pop\n      gas\n      call\n      iszero\n      dup1\n      iszero\n      tag_415\n      jumpi\n      returndatasize\n      0x00\n      dup1\n      returndatacopy\n      revert(0x00, returndatasize)\n    tag_415:\n      pop\n      pop\n      pop\n      pop\n      mload(0x40)\n      returndatasize\n      0x20\n      dup2\n      lt\n      iszero\n      tag_416\n      jumpi\n      0x00\n      dup1\n      revert\n    tag_416:\n      pop\n      pop\n        /* \"UniswapV2Router02.sol\":4750:4779  IUniswapV2Pair(pair).burn(to) */\n      0x40\n      dup1\n      mload\n      shl(0xe2, 0x226bf2d1)\n      dup2\n      mstore\n      sub(shl(0xa0, 0x01), 0x01)\n      dup9\n      dup2\n      and\n      0x04\n      dup4\n      add\n      mstore\n      dup3\n      mload\n        /* \"UniswapV2Router02.sol\":4720:4732  uint amount0 */\n      0x00\n      swap4\n      dup5\n      swap4\n        /* \"UniswapV2Router02.sol\":4750:4775  IUniswapV2Pair(pair).burn */\n      swap3\n      dup7\n      and\n      swap3\n      0x89afcb44\n      swap3\n        /* \"UniswapV2Router02.sol\":4750:4779  IUniswapV2Pair(pair).burn(to) */\n      0x24\n      dup1\n      dup4\n      add\n      swap4\n      swap3\n      dup3\n      swap1\n      sub\n      add\n      dup2\n        /* \"UniswapV2Router02.sol\":4720:4732  uint amount0 */\n      dup8\n        /* \"UniswapV2Router02.sol\":4750:4775  IUniswapV2Pair(pair).burn */\n      dup8\n        /* \"UniswapV2Router02.sol\":4750:4779  IUniswapV2Pair(pair).burn(to) */\n      dup1\n      extcodesize\n      iszero\n      dup1\n      iszero\n      tag_417\n      jumpi\n      0x00\n      dup1\n      revert\n    tag_417:\n      pop\n      gas\n      call\n      iszero\n      dup1\n      iszero\n      tag_419\n      jumpi\n      returndatasize\n      0x00\n      dup1\n      returndatacopy\n      revert(0x00, returndatasize)\n    tag_419:\n      pop\n      pop\n      pop\n      pop\n      mload(0x40)\n      returndatasize\n      0x40\n      dup2\n      lt\n      iszero\n      tag_420\n      jumpi\n      0x00\n      dup1\n      revert\n    tag_420:\n      pop\n      dup1\n      mload\n      0x20\n      swap1\n      swap2\n      add\n      mload\n      swap1\n      swap3\n      pop\n      swap1\n      pop\n        /* \"UniswapV2Router02.sol\":4791:4805  address token0 */\n      0x00\n        /* \"UniswapV2Router02.sol\":4811:4854  UniswapV2Library.sortTokens(tokenA, tokenB) */\n      tag_421\n        /* \"UniswapV2Router02.sol\":4839:4845  tokenA */\n      dup15\n        /* \"UniswapV2Router02.sol\":4847:4853  tokenB */\n      dup15\n        /* \"UniswapV2Router02.sol\":4811:4838  UniswapV2Library.sortTokens */\n      tag_422\n        /* \"UniswapV2Router02.sol\":4811:4854  UniswapV2Library.sortTokens(tokenA, tokenB) */\n      jump\t// in\n    tag_421:\n        /* \"UniswapV2Router02.sol\":4790:4854  (address token0, ) = UniswapV2Library.sortTokens(tokenA, tokenB) */\n      pop\n      swap1\n      pop\n        /* \"UniswapV2Router02.sol\":4896:4902  token0 */\n      dup1\n      sub(shl(0xa0, 0x01), 0x01)\n        /* \"UniswapV2Router02.sol\":4886:4902  tokenA == token0 */\n      and\n        /* \"UniswapV2Router02.sol\":4886:4892  tokenA */\n      dup15\n      sub(shl(0xa0, 0x01), 0x01)\n        /* \"UniswapV2Router02.sol\":4886:4902  tokenA == token0 */\n      and\n      eq\n        /* \"UniswapV2Router02.sol\":4886:4944  tokenA == token0 ? (amount0, amount1) : (amount1, amount0) */\n      tag_423\n      jumpi\n        /* \"UniswapV2Router02.sol\":4927:4934  amount1 */\n      dup2\n        /* \"UniswapV2Router02.sol\":4936:4943  amount0 */\n      dup4\n        /* \"UniswapV2Router02.sol\":4886:4944  tokenA == token0 ? (amount0, amount1) : (amount1, amount0) */\n      jump(tag_424)\n    tag_423:\n        /* \"UniswapV2Router02.sol\":4906:4913  amount0 */\n      dup3\n        /* \"UniswapV2Router02.sol\":4915:4922  amount1 */\n      dup3\n        /* \"UniswapV2Router02.sol\":4886:4944  tokenA == token0 ? (amount0, amount1) : (amount1, amount0) */\n    tag_424:\n        /* \"UniswapV2Router02.sol\":4865:4944  (amountA, amountB) = tokenA == token0 ? (amount0, amount1) : (amount1, amount0) */\n      swap1\n      swap8\n      pop\n      swap6\n      pop\n        /* \"UniswapV2Router02.sol\":4963:4984  amountA >= amountAMin */\n      dup11\n      dup8\n      lt\n      iszero\n        /* \"UniswapV2Router02.sol\":4955:5027  require(amountA >= amountAMin, 'UniswapV2Router: INSUFFICIENT_A_AMOUNT') */\n      tag_425\n      jumpi\n      mload(0x40)\n      shl(0xe5, 0x461bcd)\n      dup2\n      mstore\n      0x04\n      add\n      dup1\n      dup1\n      0x20\n      add\n      dup3\n      dup2\n      sub\n      dup3\n      mstore\n      0x26\n      dup2\n      mstore\n      0x20\n      add\n      dup1\n      data_d1d32edc232bc1da2150d590567c5d6321ade8a80edcd2485e6068d018c7fd67\n      0x26\n      swap2\n      codecopy\n      0x40\n      add\n      swap2\n      pop\n      pop\n      mload(0x40)\n      dup1\n      swap2\n      sub\n      swap1\n      revert\n    tag_425:\n        /* \"UniswapV2Router02.sol\":5057:5067  amountBMin */\n      dup10\n        /* \"UniswapV2Router02.sol\":5046:5053  amountB */\n      dup7\n        /* \"UniswapV2Router02.sol\":5046:5067  amountB >= amountBMin */\n      lt\n      iszero\n        /* \"UniswapV2Router02.sol\":5038:5110  require(amountB >= amountBMin, 'UniswapV2Router: INSUFFICIENT_B_AMOUNT') */\n      tag_426\n      jumpi\n      mload(0x40)\n      shl(0xe5, 0x461bcd)\n      dup2\n      mstore\n      0x04\n      add\n      dup1\n      dup1\n      0x20\n      add\n      dup3\n      dup2\n      sub\n      dup3\n      mstore\n      0x26\n      dup2\n      mstore\n      0x20\n      add\n      dup1\n      data_508673fa99dd55571c7741114b40754785309d1a2171022cd7c5caaae38fc7b6\n      0x26\n      swap2\n      codecopy\n      0x40\n      add\n      swap2\n      pop\n      pop\n      mload(0x40)\n      dup1\n      swap2\n      sub\n      swap1\n      revert\n    tag_426:\n        /* \"UniswapV2Router02.sol\":737:738  _ */\n      pop\n      pop\n      pop\n      pop\n        /* \"UniswapV2Router02.sol\":4252:5118  function removeLiquidity(\r... */\n      pop\n      swap8\n      pop\n      swap8\n      swap6\n      pop\n      pop\n      pop\n      pop\n      pop\n      pop\n      jump\t// out\n        /* \"UniswapV2Router02.sol\":486:527  address public immutable override factory */\n    tag_159:\n      immutable(\"0xb4bf3508f2fd7bb126e7af9e4fe31dbb3cdf386df5936668ea4d8292a4a1b188\")\n      dup2\n      jump\t// out\n        /* \"UniswapV2Router02.sol\":18764:18992  function getAmountsOut(\r... */\n    tag_166:\n        /* \"UniswapV2Router02.sol\":18888:18909  uint[] memory amounts */\n      0x60\n        /* \"UniswapV2Router02.sol\":18929:18984  UniswapV2Library.getAmountsOut(factory, amountIn, path) */\n      tag_230\n        /* \"UniswapV2Router02.sol\":18960:18967  factory */\n      immutable(\"0xb4bf3508f2fd7bb126e7af9e4fe31dbb3cdf386df5936668ea4d8292a4a1b188\")\n        /* \"UniswapV2Router02.sol\":18969:18977  amountIn */\n      dup5\n        /* \"UniswapV2Router02.sol\":18979:18983  path */\n      dup5\n        /* \"UniswapV2Router02.sol\":18929:18959  UniswapV2Library.getAmountsOut */\n      tag_210\n        /* \"UniswapV2Router02.sol\":18929:18984  UniswapV2Library.getAmountsOut(factory, amountIn, path) */\n      jump\t// in\n        /* \"UniswapV2Router02.sol\":6519:7215  function removeLiquidityETHWithPermit(\r... */\n    tag_173:\n        /* \"UniswapV2Router02.sol\":6835:6851  uint amountToken */\n      0x00\n        /* \"UniswapV2Router02.sol\":6853:6867  uint amountETH */\n      dup1\n        /* \"UniswapV2Router02.sol\":6880:6892  address pair */\n      0x00\n        /* \"UniswapV2Router02.sol\":6895:6941  UniswapV2Library.pairFor(factory, token, WETH) */\n      tag_430\n        /* \"UniswapV2Router02.sol\":6920:6927  factory */\n      immutable(\"0xb4bf3508f2fd7bb126e7af9e4fe31dbb3cdf386df5936668ea4d8292a4a1b188\")\n        /* \"UniswapV2Router02.sol\":6929:6934  token */\n      dup15\n        /* \"UniswapV2Router02.sol\":6936:6940  WETH */\n      immutable(\"0x8f59e018e114ef4f0f13f738daa411333c6421e3f33ae68ce5c638756a827d85\")\n        /* \"UniswapV2Router02.sol\":6895:6919  UniswapV2Library.pairFor */\n      tag_218\n        /* \"UniswapV2Router02.sol\":6895:6941  UniswapV2Library.pairFor(factory, token, WETH) */\n      jump\t// in\n    tag_430:\n        /* \"UniswapV2Router02.sol\":6880:6941  address pair = UniswapV2Library.pairFor(factory, token, WETH) */\n      swap1\n      pop\n        /* \"UniswapV2Router02.sol\":6952:6962  uint value */\n      0x00\n        /* \"UniswapV2Router02.sol\":6965:6975  approveMax */\n      dup8\n        /* \"UniswapV2Router02.sol\":6965:6998  approveMax ? uint(-1) : liquidity */\n      tag_431\n      jumpi\n        /* \"UniswapV2Router02.sol\":6989:6998  liquidity */\n      dup13\n        /* \"UniswapV2Router02.sol\":6965:6998  approveMax ? uint(-1) : liquidity */\n      jump(tag_432)\n    tag_431:\n      not(0x00)\n    tag_432:\n        /* \"UniswapV2Router02.sol\":7009:7089  IUniswapV2Pair(pair).permit(msg.sender, address(this), value, deadline, v, r, s) */\n      0x40\n      dup1\n      mload\n      shl(0xe0, 0xd505accf)\n      dup2\n      mstore\n        /* \"UniswapV2Router02.sol\":7037:7047  msg.sender */\n      caller\n        /* \"UniswapV2Router02.sol\":7009:7089  IUniswapV2Pair(pair).permit(msg.sender, address(this), value, deadline, v, r, s) */\n      0x04\n      dup3\n      add\n      mstore\n        /* \"UniswapV2Router02.sol\":7057:7061  this */\n      address\n        /* \"UniswapV2Router02.sol\":7009:7089  IUniswapV2Pair(pair).permit(msg.sender, address(this), value, deadline, v, r, s) */\n      0x24\n      dup3\n      add\n      mstore\n      0x44\n      dup2\n      add\n      dup4\n      swap1\n      mstore\n      0x64\n      dup2\n      add\n      dup13\n      swap1\n      mstore\n      0xff\n      dup11\n      and\n      0x84\n      dup3\n      add\n      mstore\n      0xa4\n      dup2\n      add\n      dup10\n      swap1\n      mstore\n      0xc4\n      dup2\n      add\n      dup9\n      swap1\n      mstore\n      swap1\n      mload\n        /* \"UniswapV2Router02.sol\":6952:6998  uint value = approveMax ? uint(-1) : liquidity */\n      swap2\n      swap3\n      pop\n      sub(shl(0xa0, 0x01), 0x01)\n        /* \"UniswapV2Router02.sol\":7009:7036  IUniswapV2Pair(pair).permit */\n      dup5\n      and\n      swap2\n      0xd505accf\n      swap2\n        /* \"UniswapV2Router02.sol\":7009:7089  IUniswapV2Pair(pair).permit(msg.sender, address(this), value, deadline, v, r, s) */\n      0xe4\n      dup1\n      dup3\n      add\n      swap3\n      0x00\n      swap3\n      swap1\n      swap2\n      swap1\n      dup3\n      swap1\n      sub\n      add\n      dup2\n      dup4\n        /* \"UniswapV2Router02.sol\":7009:7036  IUniswapV2Pair(pair).permit */\n      dup8\n        /* \"UniswapV2Router02.sol\":7009:7089  IUniswapV2Pair(pair).permit(msg.sender, address(this), value, deadline, v, r, s) */\n      dup1\n      extcodesize\n      iszero\n      dup1\n      iszero\n      tag_433\n      jumpi\n      0x00\n      dup1\n      revert\n    tag_433:\n      pop\n      gas\n      call\n      iszero\n      dup1\n      iszero\n      tag_435\n      jumpi\n      returndatasize\n      0x00\n      dup1\n      returndatacopy\n      revert(0x00, returndatasize)\n    tag_435:\n      pop\n      pop\n      pop\n      pop\n        /* \"UniswapV2Router02.sol\":7127:7207  removeLiquidityETH(token, liquidity, amountTokenMin, amountETHMin, to, deadline) */\n      tag_436\n        /* \"UniswapV2Router02.sol\":7146:7151  token */\n      dup15\n        /* \"UniswapV2Router02.sol\":7153:7162  liquidity */\n      dup15\n        /* \"UniswapV2Router02.sol\":7164:7178  amountTokenMin */\n      dup15\n        /* \"UniswapV2Router02.sol\":7180:7192  amountETHMin */\n      dup15\n        /* \"UniswapV2Router02.sol\":7194:7196  to */\n      dup15\n        /* \"UniswapV2Router02.sol\":7198:7206  deadline */\n      dup15\n        /* \"UniswapV2Router02.sol\":7127:7145  removeLiquidityETH */\n      tag_40\n        /* \"UniswapV2Router02.sol\":7127:7207  removeLiquidityETH(token, liquidity, amountTokenMin, amountETHMin, to, deadline) */\n      jump\t// in\n    tag_436:\n        /* \"UniswapV2Router02.sol\":7100:7207  (amountToken, amountETH) = removeLiquidityETH(token, liquidity, amountTokenMin, amountETHMin, to, deadline) */\n      swap1\n      swap16\n      swap1\n      swap15\n      pop\n        /* \"UniswapV2Router02.sol\":6519:7215  function removeLiquidityETHWithPermit(\r... */\n      swap13\n      pop\n      pop\n      pop\n      pop\n      pop\n      pop\n      pop\n      pop\n      pop\n      pop\n      pop\n      pop\n      pop\n      jump\t// out\n        /* \"UniswapV2Router02.sol\":2489:3227  function addLiquidity(\r... */\n    tag_177:\n        /* \"UniswapV2Router02.sol\":2777:2789  uint amountA */\n      0x00\n        /* \"UniswapV2Router02.sol\":2791:2803  uint amountB */\n      dup1\n        /* \"UniswapV2Router02.sol\":2805:2819  uint liquidity */\n      0x00\n        /* \"UniswapV2Router02.sol\":2758:2766  deadline */\n      dup4\n        /* \"UniswapV2Router02.sol\":682:697  block.timestamp */\n      timestamp\n        /* \"UniswapV2Router02.sol\":670:678  deadline */\n      dup2\n        /* \"UniswapV2Router02.sol\":670:697  deadline >= block.timestamp */\n      lt\n      iszero\n        /* \"UniswapV2Router02.sol\":662:726  require(deadline >= block.timestamp, 'UniswapV2Router: EXPIRED') */\n      tag_438\n      jumpi\n      0x40\n      dup1\n      mload\n      shl(0xe5, 0x461bcd)\n      dup2\n      mstore\n      0x20\n      0x04\n      dup3\n      add\n      mstore\n      0x18\n      0x24\n      dup3\n      add\n      mstore\n      0x00\n      dup1\n      mload\n      0x20\n      data_ee5734acb032ffb1bbaf889d52ccf9fbd1ce0f1ae12bee2c46068d51b910e2c5\n      dup4\n      codecopy\n      dup2\n      mload\n      swap2\n      mstore\n      0x44\n      dup3\n      add\n      mstore\n      swap1\n      mload\n      swap1\n      dup2\n      swap1\n      sub\n      0x64\n      add\n      swap1\n      revert\n    tag_438:\n        /* \"UniswapV2Router02.sol\":2853:2938  _addLiquidity(tokenA, tokenB, amountADesired, amountBDesired, amountAMin, amountBMin) */\n      tag_440\n        /* \"UniswapV2Router02.sol\":2867:2873  tokenA */\n      dup13\n        /* \"UniswapV2Router02.sol\":2875:2881  tokenB */\n      dup13\n        /* \"UniswapV2Router02.sol\":2883:2897  amountADesired */\n      dup13\n        /* \"UniswapV2Router02.sol\":2899:2913  amountBDesired */\n      dup13\n        /* \"UniswapV2Router02.sol\":2915:2925  amountAMin */\n      dup13\n        /* \"UniswapV2Router02.sol\":2927:2937  amountBMin */\n      dup13\n        /* \"UniswapV2Router02.sol\":2853:2866  _addLiquidity */\n      tag_441\n        /* \"UniswapV2Router02.sol\":2853:2938  _addLiquidity(tokenA, tokenB, amountADesired, amountBDesired, amountAMin, amountBMin) */\n      jump\t// in\n    tag_440:\n        /* \"UniswapV2Router02.sol\":2832:2938  (amountA, amountB) = _addLiquidity(tokenA, tokenB, amountADesired, amountBDesired, amountAMin, amountBMin) */\n      swap1\n      swap5\n      pop\n      swap3\n      pop\n        /* \"UniswapV2Router02.sol\":2949:2961  address pair */\n      0x00\n        /* \"UniswapV2Router02.sol\":2964:3013  UniswapV2Library.pairFor(factory, tokenA, tokenB) */\n      tag_442\n        /* \"UniswapV2Router02.sol\":2989:2996  factory */\n      immutable(\"0xb4bf3508f2fd7bb126e7af9e4fe31dbb3cdf386df5936668ea4d8292a4a1b188\")\n        /* \"UniswapV2Router02.sol\":2998:3004  tokenA */\n      dup15\n        /* \"UniswapV2Router02.sol\":3006:3012  tokenB */\n      dup15\n        /* \"UniswapV2Router02.sol\":2964:2988  UniswapV2Library.pairFor */\n      tag_218\n        /* \"UniswapV2Router02.sol\":2964:3013  UniswapV2Library.pairFor(factory, tokenA, tokenB) */\n      jump\t// in\n    tag_442:\n        /* \"UniswapV2Router02.sol\":2949:3013  address pair = UniswapV2Library.pairFor(factory, tokenA, tokenB) */\n      swap1\n      pop\n        /* \"UniswapV2Router02.sol\":3024:3090  TransferHelper.safeTransferFrom(tokenA, msg.sender, pair, amountA) */\n      tag_443\n        /* \"UniswapV2Router02.sol\":3056:3062  tokenA */\n      dup14\n        /* \"UniswapV2Router02.sol\":3064:3074  msg.sender */\n      caller\n        /* \"UniswapV2Router02.sol\":3076:3080  pair */\n      dup4\n        /* \"UniswapV2Router02.sol\":3082:3089  amountA */\n      dup9\n        /* \"UniswapV2Router02.sol\":3024:3055  TransferHelper.safeTransferFrom */\n      tag_220\n        /* \"UniswapV2Router02.sol\":3024:3090  TransferHelper.safeTransferFrom(tokenA, msg.sender, pair, amountA) */\n      jump\t// in\n    tag_443:\n        /* \"UniswapV2Router02.sol\":3101:3167  TransferHelper.safeTransferFrom(tokenB, msg.sender, pair, amountB) */\n      tag_444\n        /* \"UniswapV2Router02.sol\":3133:3139  tokenB */\n      dup13\n        /* \"UniswapV2Router02.sol\":3141:3151  msg.sender */\n      caller\n        /* \"UniswapV2Router02.sol\":3153:3157  pair */\n      dup4\n        /* \"UniswapV2Router02.sol\":3159:3166  amountB */\n      dup8\n        /* \"UniswapV2Router02.sol\":3101:3132  TransferHelper.safeTransferFrom */\n      tag_220\n        /* \"UniswapV2Router02.sol\":3101:3167  TransferHelper.safeTransferFrom(tokenB, msg.sender, pair, amountB) */\n      jump\t// in\n    tag_444:\n        /* \"UniswapV2Router02.sol\":3205:3209  pair */\n      dup1\n      sub(shl(0xa0, 0x01), 0x01)\n        /* \"UniswapV2Router02.sol\":3190:3215  IUniswapV2Pair(pair).mint */\n      and\n      0x6a627842\n        /* \"UniswapV2Router02.sol\":3216:3218  to */\n      dup9\n        /* \"UniswapV2Router02.sol\":3190:3219  IUniswapV2Pair(pair).mint(to) */\n      mload(0x40)\n      dup3\n      0xffffffff\n      and\n      0xe0\n      shl\n      dup2\n      mstore\n      0x04\n      add\n      dup1\n      dup3\n      sub(shl(0xa0, 0x01), 0x01)\n      and\n      dup2\n      mstore\n      0x20\n      add\n      swap2\n      pop\n      pop\n      0x20\n      mload(0x40)\n      dup1\n      dup4\n      sub\n      dup2\n      0x00\n      dup8\n      dup1\n      extcodesize\n      iszero\n      dup1\n      iszero\n      tag_445\n      jumpi\n      0x00\n      dup1\n      revert\n    tag_445:\n      pop\n      gas\n      call\n      iszero\n      dup1\n      iszero\n      tag_447\n      jumpi\n      returndatasize\n      0x00\n      dup1\n      returndatacopy\n      revert(0x00, returndatasize)\n    tag_447:\n      pop\n      pop\n      pop\n      pop\n      mload(0x40)\n      returndatasize\n      0x20\n      dup2\n      lt\n      iszero\n      tag_448\n      jumpi\n      0x00\n      dup1\n      revert\n    tag_448:\n      pop\n      mload\n        /* \"UniswapV2Router02.sol\":2489:3227  function addLiquidity(\r... */\n      swap5\n      swap14\n      swap4\n      swap13\n      pop\n        /* \"UniswapV2Router02.sol\":3190:3219  IUniswapV2Pair(pair).mint(to) */\n      swap4\n      swap11\n      pop\n        /* \"UniswapV2Router02.sol\":2489:3227  function addLiquidity(\r... */\n      swap2\n      swap9\n      pop\n      pop\n      pop\n      pop\n      pop\n      pop\n      pop\n      pop\n      pop\n      jump\t// out\n        /* \"UniswapV2Router02.sol\":3235:4209  function addLiquidityETH(\r... */\n    tag_180:\n        /* \"UniswapV2Router02.sol\":3488:3504  uint amountToken */\n      0x00\n        /* \"UniswapV2Router02.sol\":3506:3520  uint amountETH */\n      dup1\n        /* \"UniswapV2Router02.sol\":3522:3536  uint liquidity */\n      0x00\n        /* \"UniswapV2Router02.sol\":3469:3477  deadline */\n      dup4\n        /* \"UniswapV2Router02.sol\":682:697  block.timestamp */\n      timestamp\n        /* \"UniswapV2Router02.sol\":670:678  deadline */\n      dup2\n        /* \"UniswapV2Router02.sol\":670:697  deadline >= block.timestamp */\n      lt\n      iszero\n        /* \"UniswapV2Router02.sol\":662:726  require(deadline >= block.timestamp, 'UniswapV2Router: EXPIRED') */\n      tag_450\n      jumpi\n      0x40\n      dup1\n      mload\n      shl(0xe5, 0x461bcd)\n      dup2\n      mstore\n      0x20\n      0x04\n      dup3\n      add\n      mstore\n      0x18\n      0x24\n      dup3\n      add\n      mstore\n      0x00\n      dup1\n      mload\n      0x20\n      data_ee5734acb032ffb1bbaf889d52ccf9fbd1ce0f1ae12bee2c46068d51b910e2c5\n      dup4\n      codecopy\n      dup2\n      mload\n      swap2\n      mstore\n      0x44\n      dup3\n      add\n      mstore\n      swap1\n      mload\n      swap1\n      dup2\n      swap1\n      sub\n      0x64\n      add\n      swap1\n      revert\n    tag_450:\n        /* \"UniswapV2Router02.sol\":3576:3752  _addLiquidity(\r... */\n      tag_452\n        /* \"UniswapV2Router02.sol\":3604:3609  token */\n      dup11\n        /* \"UniswapV2Router02.sol\":3624:3628  WETH */\n      immutable(\"0x8f59e018e114ef4f0f13f738daa411333c6421e3f33ae68ce5c638756a827d85\")\n        /* \"UniswapV2Router02.sol\":3643:3661  amountTokenDesired */\n      dup12\n        /* \"UniswapV2Router02.sol\":3676:3685  msg.value */\n      callvalue\n        /* \"UniswapV2Router02.sol\":3700:3714  amountTokenMin */\n      dup13\n        /* \"UniswapV2Router02.sol\":3729:3741  amountETHMin */\n      dup13\n        /* \"UniswapV2Router02.sol\":3576:3589  _addLiquidity */\n      tag_441\n        /* \"UniswapV2Router02.sol\":3576:3752  _addLiquidity(\r... */\n      jump\t// in\n    tag_452:\n        /* \"UniswapV2Router02.sol\":3549:3752  (amountToken, amountETH) = _addLiquidity(\r... */\n      swap1\n      swap5\n      pop\n      swap3\n      pop\n        /* \"UniswapV2Router02.sol\":3763:3775  address pair */\n      0x00\n        /* \"UniswapV2Router02.sol\":3778:3824  UniswapV2Library.pairFor(factory, token, WETH) */\n      tag_453\n        /* \"UniswapV2Router02.sol\":3803:3810  factory */\n      immutable(\"0xb4bf3508f2fd7bb126e7af9e4fe31dbb3cdf386df5936668ea4d8292a4a1b188\")\n        /* \"UniswapV2Router02.sol\":3812:3817  token */\n      dup13\n        /* \"UniswapV2Router02.sol\":3819:3823  WETH */\n      immutable(\"0x8f59e018e114ef4f0f13f738daa411333c6421e3f33ae68ce5c638756a827d85\")\n        /* \"UniswapV2Router02.sol\":3778:3802  UniswapV2Library.pairFor */\n      tag_218\n        /* \"UniswapV2Router02.sol\":3778:3824  UniswapV2Library.pairFor(factory, token, WETH) */\n      jump\t// in\n    tag_453:\n        /* \"UniswapV2Router02.sol\":3763:3824  address pair = UniswapV2Library.pairFor(factory, token, WETH) */\n      swap1\n      pop\n        /* \"UniswapV2Router02.sol\":3835:3904  TransferHelper.safeTransferFrom(token, msg.sender, pair, amountToken) */\n      tag_454\n        /* \"UniswapV2Router02.sol\":3867:3872  token */\n      dup12\n        /* \"UniswapV2Router02.sol\":3874:3884  msg.sender */\n      caller\n        /* \"UniswapV2Router02.sol\":3886:3890  pair */\n      dup4\n        /* \"UniswapV2Router02.sol\":3892:3903  amountToken */\n      dup9\n        /* \"UniswapV2Router02.sol\":3835:3866  TransferHelper.safeTransferFrom */\n      tag_220\n        /* \"UniswapV2Router02.sol\":3835:3904  TransferHelper.safeTransferFrom(token, msg.sender, pair, amountToken) */\n      jump\t// in\n    tag_454:\n        /* \"UniswapV2Router02.sol\":3921:3925  WETH */\n      immutable(\"0x8f59e018e114ef4f0f13f738daa411333c6421e3f33ae68ce5c638756a827d85\")\n      sub(shl(0xa0, 0x01), 0x01)\n        /* \"UniswapV2Router02.sol\":3915:3934  IWETH(WETH).deposit */\n      and\n      0xd0e30db0\n        /* \"UniswapV2Router02.sol\":3942:3951  amountETH */\n      dup6\n        /* \"UniswapV2Router02.sol\":3915:3954  IWETH(WETH).deposit{value: amountETH}() */\n      mload(0x40)\n      dup3\n      0xffffffff\n      and\n      0xe0\n      shl\n      dup2\n      mstore\n      0x04\n      add\n      0x00\n      mload(0x40)\n      dup1\n      dup4\n      sub\n      dup2\n      dup6\n      dup9\n      dup1\n      extcodesize\n      iszero\n      dup1\n      iszero\n      tag_455\n      jumpi\n      0x00\n      dup1\n      revert\n    tag_455:\n      pop\n      gas\n      call\n      iszero\n      dup1\n      iszero\n      tag_457\n      jumpi\n      returndatasize\n      0x00\n      dup1\n      returndatacopy\n      revert(0x00, returndatasize)\n    tag_457:\n      pop\n      pop\n      pop\n      pop\n      pop\n        /* \"UniswapV2Router02.sol\":3978:3982  WETH */\n      immutable(\"0x8f59e018e114ef4f0f13f738daa411333c6421e3f33ae68ce5c638756a827d85\")\n      sub(shl(0xa0, 0x01), 0x01)\n        /* \"UniswapV2Router02.sol\":3972:3992  IWETH(WETH).transfer */\n      and\n      0xa9059cbb\n        /* \"UniswapV2Router02.sol\":3993:3997  pair */\n      dup3\n        /* \"UniswapV2Router02.sol\":3999:4008  amountETH */\n      dup7\n        /* \"UniswapV2Router02.sol\":3972:4009  IWETH(WETH).transfer(pair, amountETH) */\n      mload(0x40)\n      dup4\n      0xffffffff\n      and\n      0xe0\n      shl\n      dup2\n      mstore\n      0x04\n      add\n      dup1\n      dup4\n      sub(shl(0xa0, 0x01), 0x01)\n      and\n      dup2\n      mstore\n      0x20\n      add\n      dup3\n      dup2\n      mstore\n      0x20\n      add\n      swap3\n      pop\n      pop\n      pop\n      0x20\n      mload(0x40)\n      dup1\n      dup4\n      sub\n      dup2\n      0x00\n      dup8\n      dup1\n      extcodesize\n      iszero\n      dup1\n      iszero\n      tag_458\n      jumpi\n      0x00\n      dup1\n      revert\n    tag_458:\n      pop\n      gas\n      call\n      iszero\n      dup1\n      iszero\n      tag_460\n      jumpi\n      returndatasize\n      0x00\n      dup1\n      returndatacopy\n      revert(0x00, returndatasize)\n    tag_460:\n      pop\n      pop\n      pop\n      pop\n      mload(0x40)\n      returndatasize\n      0x20\n      dup2\n      lt\n      iszero\n      tag_461\n      jumpi\n      0x00\n      dup1\n      revert\n    tag_461:\n      pop\n      mload\n        /* \"UniswapV2Router02.sol\":3965:4010  assert(IWETH(WETH).transfer(pair, amountETH)) */\n      tag_462\n      jumpi\n      invalid\n    tag_462:\n        /* \"UniswapV2Router02.sol\":4048:4052  pair */\n      dup1\n      sub(shl(0xa0, 0x01), 0x01)\n        /* \"UniswapV2Router02.sol\":4033:4058  IUniswapV2Pair(pair).mint */\n      and\n      0x6a627842\n        /* \"UniswapV2Router02.sol\":4059:4061  to */\n      dup9\n        /* \"UniswapV2Router02.sol\":4033:4062  IUniswapV2Pair(pair).mint(to) */\n      mload(0x40)\n      dup3\n      0xffffffff\n      and\n      0xe0\n      shl\n      dup2\n      mstore\n      0x04\n      add\n      dup1\n      dup3\n      sub(shl(0xa0, 0x01), 0x01)\n      and\n      dup2\n      mstore\n      0x20\n      add\n      swap2\n      pop\n      pop\n      0x20\n      mload(0x40)\n      dup1\n      dup4\n      sub\n      dup2\n      0x00\n      dup8\n      dup1\n      extcodesize\n      iszero\n      dup1\n      iszero\n      tag_463\n      jumpi\n      0x00\n      dup1\n      revert\n    tag_463:\n      pop\n      gas\n      call\n      iszero\n      dup1\n      iszero\n      tag_465\n      jumpi\n      returndatasize\n      0x00\n      dup1\n      returndatacopy\n      revert(0x00, returndatasize)\n    tag_465:\n      pop\n      pop\n      pop\n      pop\n      mload(0x40)\n      returndatasize\n      0x20\n      dup2\n      lt\n      iszero\n      tag_466\n      jumpi\n      0x00\n      dup1\n      revert\n    tag_466:\n      pop\n      mload\n      swap3\n      pop\n        /* \"UniswapV2Router02.sol\":4113:4122  msg.value */\n      callvalue\n        /* \"UniswapV2Router02.sol\":4113:4134  msg.value > amountETH */\n      dup5\n      lt\n        /* \"UniswapV2Router02.sol\":4109:4201  if (msg.value > amountETH) TransferHelper.safeTransferETH(msg.sender, msg.value - amountETH) */\n      iszero\n      tag_468\n      jumpi\n        /* \"UniswapV2Router02.sol\":4136:4201  TransferHelper.safeTransferETH(msg.sender, msg.value - amountETH) */\n      tag_468\n        /* \"UniswapV2Router02.sol\":4167:4177  msg.sender */\n      caller\n        /* \"UniswapV2Router02.sol\":4191:4200  amountETH */\n      dup6\n        /* \"UniswapV2Router02.sol\":4179:4188  msg.value */\n      callvalue\n        /* \"UniswapV2Router02.sol\":4179:4200  msg.value - amountETH */\n      sub\n        /* \"UniswapV2Router02.sol\":4136:4166  TransferHelper.safeTransferETH */\n      tag_200\n        /* \"UniswapV2Router02.sol\":4136:4201  TransferHelper.safeTransferETH(msg.sender, msg.value - amountETH) */\n      jump\t// in\n    tag_468:\n        /* \"UniswapV2Router02.sol\":737:738  _ */\n      pop\n        /* \"UniswapV2Router02.sol\":3235:4209  function addLiquidityETH(\r... */\n      pop\n      swap7\n      pop\n      swap7\n      pop\n      swap7\n      swap4\n      pop\n      pop\n      pop\n      pop\n      jump\t// out\n        /* \"UniswapV2Router02.sol\":13409:14203  function swapETHForExactTokens(\r... */\n    tag_186:\n        /* \"UniswapV2Router02.sol\":13611:13632  uint[] memory amounts */\n      0x60\n        /* \"UniswapV2Router02.sol\":13592:13600  deadline */\n      dup2\n        /* \"UniswapV2Router02.sol\":682:697  block.timestamp */\n      timestamp\n        /* \"UniswapV2Router02.sol\":670:678  deadline */\n      dup2\n        /* \"UniswapV2Router02.sol\":670:697  deadline >= block.timestamp */\n      lt\n      iszero\n        /* \"UniswapV2Router02.sol\":662:726  require(deadline >= block.timestamp, 'UniswapV2Router: EXPIRED') */\n      tag_470\n      jumpi\n      0x40\n      dup1\n      mload\n      shl(0xe5, 0x461bcd)\n      dup2\n      mstore\n      0x20\n      0x04\n      dup3\n      add\n      mstore\n      0x18\n      0x24\n      dup3\n      add\n      mstore\n      0x00\n      dup1\n      mload\n      0x20\n      data_ee5734acb032ffb1bbaf889d52ccf9fbd1ce0f1ae12bee2c46068d51b910e2c5\n      dup4\n      codecopy\n      dup2\n      mload\n      swap2\n      mstore\n      0x44\n      dup3\n      add\n      mstore\n      swap1\n      mload\n      swap1\n      dup2\n      swap1\n      sub\n      0x64\n      add\n      swap1\n      revert\n    tag_470:\n        /* \"UniswapV2Router02.sol\":13664:13668  WETH */\n      immutable(\"0x8f59e018e114ef4f0f13f738daa411333c6421e3f33ae68ce5c638756a827d85\")\n      sub(shl(0xa0, 0x01), 0x01)\n        /* \"UniswapV2Router02.sol\":13653:13668  path[0] == WETH */\n      and\n        /* \"UniswapV2Router02.sol\":13653:13657  path */\n      dup7\n      dup7\n        /* \"UniswapV2Router02.sol\":13658:13659  0 */\n      0x00\n        /* \"UniswapV2Router02.sol\":13653:13660  path[0] */\n      dup2\n      dup2\n      lt\n      tag_472\n      jumpi\n      invalid\n    tag_472:\n      swap1\n      pop\n      0x20\n      mul\n      add\n      calldataload\n      sub(shl(0xa0, 0x01), 0x01)\n      and\n      sub(shl(0xa0, 0x01), 0x01)\n        /* \"UniswapV2Router02.sol\":13653:13668  path[0] == WETH */\n      and\n      eq\n        /* \"UniswapV2Router02.sol\":13645:13702  require(path[0] == WETH, 'UniswapV2Router: INVALID_PATH') */\n      tag_473\n      jumpi\n      0x40\n      dup1\n      mload\n      shl(0xe5, 0x461bcd)\n      dup2\n      mstore\n      0x20\n      0x04\n      dup3\n      add\n      mstore\n      0x1d\n      0x24\n      dup3\n      add\n      mstore\n      0x00\n      dup1\n      mload\n      0x20\n      data_c80e789ddaeb930b746bbbcb3afe8331d926679fd96f65d8c7468b735c0a14f2\n      dup4\n      codecopy\n      dup2\n      mload\n      swap2\n      mstore\n      0x44\n      dup3\n      add\n      mstore\n      swap1\n      mload\n      swap1\n      dup2\n      swap1\n      sub\n      0x64\n      add\n      swap1\n      revert\n    tag_473:\n        /* \"UniswapV2Router02.sol\":13723:13778  UniswapV2Library.getAmountsIn(factory, amountOut, path) */\n      tag_474\n        /* \"UniswapV2Router02.sol\":13753:13760  factory */\n      immutable(\"0xb4bf3508f2fd7bb126e7af9e4fe31dbb3cdf386df5936668ea4d8292a4a1b188\")\n        /* \"UniswapV2Router02.sol\":13762:13771  amountOut */\n      dup9\n        /* \"UniswapV2Router02.sol\":13773:13777  path */\n      dup9\n      dup9\n        /* \"UniswapV2Router02.sol\":13723:13778  UniswapV2Library.getAmountsIn(factory, amountOut, path) */\n      dup1\n      dup1\n      0x20\n      mul\n      0x20\n      add\n      mload(0x40)\n      swap1\n      dup2\n      add\n      0x40\n      mstore\n      dup1\n      swap4\n      swap3\n      swap2\n      swap1\n      dup2\n      dup2\n      mstore\n      0x20\n      add\n      dup4\n      dup4\n      0x20\n      mul\n      dup1\n      dup3\n      dup5\n      calldatacopy\n      0x00\n      swap3\n      add\n      swap2\n      swap1\n      swap2\n      mstore\n      pop\n        /* \"UniswapV2Router02.sol\":13723:13752  UniswapV2Library.getAmountsIn */\n      tag_231\n      swap3\n      pop\n      pop\n      pop\n        /* \"UniswapV2Router02.sol\":13723:13778  UniswapV2Library.getAmountsIn(factory, amountOut, path) */\n      jump\t// in\n    tag_474:\n        /* \"UniswapV2Router02.sol\":13713:13778  amounts = UniswapV2Library.getAmountsIn(factory, amountOut, path) */\n      swap2\n      pop\n        /* \"UniswapV2Router02.sol\":13811:13820  msg.value */\n      callvalue\n        /* \"UniswapV2Router02.sol\":13797:13804  amounts */\n      dup3\n        /* \"UniswapV2Router02.sol\":13805:13806  0 */\n      0x00\n        /* \"UniswapV2Router02.sol\":13797:13807  amounts[0] */\n      dup2\n      mload\n      dup2\n      lt\n      tag_475\n      jumpi\n      invalid\n    tag_475:\n      0x20\n      mul\n      0x20\n      add\n      add\n      mload\n        /* \"UniswapV2Router02.sol\":13797:13820  amounts[0] <= msg.value */\n      gt\n      iszero\n        /* \"UniswapV2Router02.sol\":13789:13864  require(amounts[0] <= msg.value, 'UniswapV2Router: EXCESSIVE_INPUT_AMOUNT') */\n      tag_476\n      jumpi\n      mload(0x40)\n      shl(0xe5, 0x461bcd)\n      dup2\n      mstore\n      0x04\n      add\n      dup1\n      dup1\n      0x20\n      add\n      dup3\n      dup2\n      sub\n      dup3\n      mstore\n      0x27\n      dup2\n      mstore\n      0x20\n      add\n      dup1\n      data_bb18004cd22eaad7ea393d184ea6ac1df1428db36bb6fbff8af486232d68ae2c\n      0x27\n      swap2\n      codecopy\n      0x40\n      add\n      swap2\n      pop\n      pop\n      mload(0x40)\n      dup1\n      swap2\n      sub\n      swap1\n      revert\n    tag_476:\n        /* \"UniswapV2Router02.sol\":13881:13885  WETH */\n      immutable(\"0x8f59e018e114ef4f0f13f738daa411333c6421e3f33ae68ce5c638756a827d85\")\n      sub(shl(0xa0, 0x01), 0x01)\n        /* \"UniswapV2Router02.sol\":13875:13894  IWETH(WETH).deposit */\n      and\n      0xd0e30db0\n        /* \"UniswapV2Router02.sol\":13902:13909  amounts */\n      dup4\n        /* \"UniswapV2Router02.sol\":13910:13911  0 */\n      0x00\n        /* \"UniswapV2Router02.sol\":13902:13912  amounts[0] */\n      dup2\n      mload\n      dup2\n      lt\n      tag_477\n      jumpi\n      invalid\n    tag_477:\n      0x20\n      mul\n      0x20\n      add\n      add\n      mload\n        /* \"UniswapV2Router02.sol\":13875:13915  IWETH(WETH).deposit{value: amounts[0]}() */\n      mload(0x40)\n      dup3\n      0xffffffff\n      and\n      0xe0\n      shl\n      dup2\n      mstore\n      0x04\n      add\n      0x00\n      mload(0x40)\n      dup1\n      dup4\n      sub\n      dup2\n      dup6\n      dup9\n      dup1\n      extcodesize\n      iszero\n      dup1\n      iszero\n      tag_478\n      jumpi\n      0x00\n      dup1\n      revert\n    tag_478:\n      pop\n      gas\n      call\n      iszero\n      dup1\n      iszero\n      tag_480\n      jumpi\n      returndatasize\n      0x00\n      dup1\n      returndatacopy\n      revert(0x00, returndatasize)\n    tag_480:\n      pop\n      pop\n      pop\n      pop\n      pop\n        /* \"UniswapV2Router02.sol\":13939:13943  WETH */\n      immutable(\"0x8f59e018e114ef4f0f13f738daa411333c6421e3f33ae68ce5c638756a827d85\")\n      sub(shl(0xa0, 0x01), 0x01)\n        /* \"UniswapV2Router02.sol\":13933:13953  IWETH(WETH).transfer */\n      and\n      0xa9059cbb\n        /* \"UniswapV2Router02.sol\":13954:14005  UniswapV2Library.pairFor(factory, path[0], path[1]) */\n      tag_481\n        /* \"UniswapV2Router02.sol\":13979:13986  factory */\n      immutable(\"0xb4bf3508f2fd7bb126e7af9e4fe31dbb3cdf386df5936668ea4d8292a4a1b188\")\n        /* \"UniswapV2Router02.sol\":13988:13992  path */\n      dup10\n      dup10\n        /* \"UniswapV2Router02.sol\":13993:13994  0 */\n      0x00\n        /* \"UniswapV2Router02.sol\":13988:13995  path[0] */\n      dup2\n      dup2\n      lt\n      tag_289\n      jumpi\n      invalid\n        /* \"UniswapV2Router02.sol\":13954:14005  UniswapV2Library.pairFor(factory, path[0], path[1]) */\n    tag_481:\n        /* \"UniswapV2Router02.sol\":14007:14014  amounts */\n      dup5\n        /* \"UniswapV2Router02.sol\":14015:14016  0 */\n      0x00\n        /* \"UniswapV2Router02.sol\":14007:14017  amounts[0] */\n      dup2\n      mload\n      dup2\n      lt\n      tag_484\n      jumpi\n      invalid\n    tag_484:\n      0x20\n      mul\n      0x20\n      add\n      add\n      mload\n        /* \"UniswapV2Router02.sol\":13933:14018  IWETH(WETH).transfer(UniswapV2Library.pairFor(factory, path[0], path[1]), amounts[0]) */\n      mload(0x40)\n      dup4\n      0xffffffff\n      and\n      0xe0\n      shl\n      dup2\n      mstore\n      0x04\n      add\n      dup1\n      dup4\n      sub(shl(0xa0, 0x01), 0x01)\n      and\n      dup2\n      mstore\n      0x20\n      add\n      dup3\n      dup2\n      mstore\n      0x20\n      add\n      swap3\n      pop\n      pop\n      pop\n      0x20\n      mload(0x40)\n      dup1\n      dup4\n      sub\n      dup2\n      0x00\n      dup8\n      dup1\n      extcodesize\n      iszero\n      dup1\n      iszero\n      tag_485\n      jumpi\n      0x00\n      dup1\n      revert\n    tag_485:\n      pop\n      gas\n      call\n      iszero\n      dup1\n      iszero\n      tag_487\n      jumpi\n      returndatasize\n      0x00\n      dup1\n      returndatacopy\n      revert(0x00, returndatasize)\n    tag_487:\n      pop\n      pop\n      pop\n      pop\n      mload(0x40)\n      returndatasize\n      0x20\n      dup2\n      lt\n      iszero\n      tag_488\n      jumpi\n      0x00\n      dup1\n      revert\n    tag_488:\n      pop\n      mload\n        /* \"UniswapV2Router02.sol\":13926:14019  assert(IWETH(WETH).transfer(UniswapV2Library.pairFor(factory, path[0], path[1]), amounts[0])) */\n      tag_489\n      jumpi\n      invalid\n    tag_489:\n        /* \"UniswapV2Router02.sol\":14030:14054  _swap(amounts, path, to) */\n      tag_490\n        /* \"UniswapV2Router02.sol\":14036:14043  amounts */\n      dup3\n        /* \"UniswapV2Router02.sol\":14045:14049  path */\n      dup8\n      dup8\n        /* \"UniswapV2Router02.sol\":14030:14054  _swap(amounts, path, to) */\n      dup1\n      dup1\n      0x20\n      mul\n      0x20\n      add\n      mload(0x40)\n      swap1\n      dup2\n      add\n      0x40\n      mstore\n      dup1\n      swap4\n      swap3\n      swap2\n      swap1\n      dup2\n      dup2\n      mstore\n      0x20\n      add\n      dup4\n      dup4\n      0x20\n      mul\n      dup1\n      dup3\n      dup5\n      calldatacopy\n      0x00\n      swap3\n      add\n      swap2\n      swap1\n      swap2\n      mstore\n      pop\n        /* \"UniswapV2Router02.sol\":14051:14053  to */\n      dup10\n      swap3\n      pop\n        /* \"UniswapV2Router02.sol\":14030:14035  _swap */\n      tag_222\n      swap2\n      pop\n      pop\n        /* \"UniswapV2Router02.sol\":14030:14054  _swap(amounts, path, to) */\n      jump\t// in\n    tag_490:\n        /* \"UniswapV2Router02.sol\":14117:14124  amounts */\n      dup2\n        /* \"UniswapV2Router02.sol\":14125:14126  0 */\n      0x00\n        /* \"UniswapV2Router02.sol\":14117:14127  amounts[0] */\n      dup2\n      mload\n      dup2\n      lt\n      tag_491\n      jumpi\n      invalid\n    tag_491:\n      0x20\n      mul\n      0x20\n      add\n      add\n      mload\n        /* \"UniswapV2Router02.sol\":14105:14114  msg.value */\n      callvalue\n        /* \"UniswapV2Router02.sol\":14105:14127  msg.value > amounts[0] */\n      gt\n        /* \"UniswapV2Router02.sol\":14101:14195  if (msg.value > amounts[0]) TransferHelper.safeTransferETH(msg.sender, msg.value - amounts[0]) */\n      iszero\n      tag_347\n      jumpi\n        /* \"UniswapV2Router02.sol\":14129:14195  TransferHelper.safeTransferETH(msg.sender, msg.value - amounts[0]) */\n      tag_347\n        /* \"UniswapV2Router02.sol\":14160:14170  msg.sender */\n      caller\n        /* \"UniswapV2Router02.sol\":14184:14191  amounts */\n      dup4\n        /* \"UniswapV2Router02.sol\":14192:14193  0 */\n      0x00\n        /* \"UniswapV2Router02.sol\":14184:14194  amounts[0] */\n      dup2\n      mload\n      dup2\n      lt\n      tag_494\n      jumpi\n      invalid\n    tag_494:\n      0x20\n      mul\n      0x20\n      add\n      add\n      mload\n        /* \"UniswapV2Router02.sol\":14172:14181  msg.value */\n      callvalue\n        /* \"UniswapV2Router02.sol\":14172:14194  msg.value - amounts[0] */\n      sub\n        /* \"UniswapV2Router02.sol\":14129:14159  TransferHelper.safeTransferETH */\n      tag_200\n        /* \"UniswapV2Router02.sol\":14129:14195  TransferHelper.safeTransferETH(msg.sender, msg.value - amounts[0]) */\n      jump\t// in\n        /* \"@donkswap/lib/contracts/libraries/TransferHelper.sol\":671:1120  function safeTransfer(\r... */\n    tag_195:\n        /* \"@donkswap/lib/contracts/libraries/TransferHelper.sol\":903:948  abi.encodeWithSelector(0xa9059cbb, to, value) */\n      0x40\n      dup1\n      mload\n      sub(shl(0xa0, 0x01), 0x01)\n      dup5\n      dup2\n      and\n      0x24\n      dup4\n      add\n      mstore\n      0x44\n      dup1\n      dup4\n      add\n      dup6\n      swap1\n      mstore\n      dup4\n      mload\n      dup1\n      dup5\n      sub\n      swap1\n      swap2\n      add\n      dup2\n      mstore\n      0x64\n      swap1\n      swap3\n      add\n      dup4\n      mstore\n      0x20\n      dup3\n      add\n      dup1\n      mload\n      sub(shl(0xe0, 0x01), 0x01)\n      and\n      shl(0xe0, 0xa9059cbb)\n      or\n      dup2\n      mstore\n        /* \"@donkswap/lib/contracts/libraries/TransferHelper.sol\":892:949  token.call(abi.encodeWithSelector(0xa9059cbb, to, value)) */\n      swap3\n      mload\n      dup3\n      mload\n        /* \"@donkswap/lib/contracts/libraries/TransferHelper.sol\":857:869  bool success */\n      0x00\n      swap5\n        /* \"@donkswap/lib/contracts/libraries/TransferHelper.sol\":871:888  bytes memory data */\n      0x60\n      swap5\n        /* \"@donkswap/lib/contracts/libraries/TransferHelper.sol\":892:902  token.call */\n      swap4\n      dup10\n      and\n      swap4\n        /* \"@donkswap/lib/contracts/libraries/TransferHelper.sol\":903:948  abi.encodeWithSelector(0xa9059cbb, to, value) */\n      swap3\n        /* \"@donkswap/lib/contracts/libraries/TransferHelper.sol\":892:949  token.call(abi.encodeWithSelector(0xa9059cbb, to, value)) */\n      swap2\n      dup3\n      swap2\n        /* \"@donkswap/lib/contracts/libraries/TransferHelper.sol\":903:948  abi.encodeWithSelector(0xa9059cbb, to, value) */\n      swap1\n        /* \"@donkswap/lib/contracts/libraries/TransferHelper.sol\":892:949  token.call(abi.encodeWithSelector(0xa9059cbb, to, value)) */\n      dup1\n      dup4\n        /* \"@donkswap/lib/contracts/libraries/TransferHelper.sol\":903:948  abi.encodeWithSelector(0xa9059cbb, to, value) */\n      dup4\n        /* \"@donkswap/lib/contracts/libraries/TransferHelper.sol\":892:949  token.call(abi.encodeWithSelector(0xa9059cbb, to, value)) */\n    tag_496:\n      0x20\n      dup4\n      lt\n      tag_498\n      jumpi\n      dup1\n      mload\n      dup3\n      mstore\n      not(0x1f)\n      swap1\n      swap3\n      add\n      swap2\n      0x20\n      swap2\n      dup3\n      add\n      swap2\n      add\n      jump(tag_496)\n    tag_498:\n      0x01\n      dup4\n      0x20\n      sub\n      0x0100\n      exp\n      sub\n      dup1\n      not\n      dup3\n      mload\n      and\n      dup2\n      dup5\n      mload\n      and\n      dup1\n      dup3\n      or\n      dup6\n      mstore\n      pop\n      pop\n      pop\n      pop\n      pop\n      pop\n      swap1\n      pop\n      add\n      swap2\n      pop\n      pop\n      0x00\n      mload(0x40)\n      dup1\n      dup4\n      sub\n      dup2\n      0x00\n      dup7\n      gas\n      call\n      swap2\n      pop\n      pop\n      returndatasize\n      dup1\n      0x00\n      dup2\n      eq\n      tag_501\n      jumpi\n      mload(0x40)\n      swap2\n      pop\n      and(add(returndatasize, 0x3f), not(0x1f))\n      dup3\n      add\n      0x40\n      mstore\n      returndatasize\n      dup3\n      mstore\n      returndatasize\n      0x00\n      0x20\n      dup5\n      add\n      returndatacopy\n      jump(tag_500)\n    tag_501:\n      0x60\n      swap2\n      pop\n    tag_500:\n      pop\n        /* \"@donkswap/lib/contracts/libraries/TransferHelper.sol\":856:949  (bool success, bytes memory data) = token.call(abi.encodeWithSelector(0xa9059cbb, to, value)) */\n      swap2\n      pop\n      swap2\n      pop\n        /* \"@donkswap/lib/contracts/libraries/TransferHelper.sol\":982:989  success */\n      dup2\n        /* \"@donkswap/lib/contracts/libraries/TransferHelper.sol\":982:1039  success && (data.length == 0 || abi.decode(data, (bool))) */\n      dup1\n      iszero\n      tag_503\n      jumpi\n      pop\n        /* \"@donkswap/lib/contracts/libraries/TransferHelper.sol\":994:1005  data.length */\n      dup1\n      mload\n        /* \"@donkswap/lib/contracts/libraries/TransferHelper.sol\":994:1010  data.length == 0 */\n      iszero\n      dup1\n        /* \"@donkswap/lib/contracts/libraries/TransferHelper.sol\":994:1038  data.length == 0 || abi.decode(data, (bool)) */\n      tag_503\n      jumpi\n      pop\n        /* \"@donkswap/lib/contracts/libraries/TransferHelper.sol\":1025:1029  data */\n      dup1\n        /* \"@donkswap/lib/contracts/libraries/TransferHelper.sol\":1014:1038  abi.decode(data, (bool)) */\n      dup1\n      0x20\n      add\n      swap1\n      mload\n      0x20\n      dup2\n      lt\n      iszero\n      tag_504\n      jumpi\n      0x00\n      dup1\n      revert\n    tag_504:\n      pop\n      mload\n        /* \"@donkswap/lib/contracts/libraries/TransferHelper.sol\":994:1038  data.length == 0 || abi.decode(data, (bool)) */\n    tag_503:\n        /* \"@donkswap/lib/contracts/libraries/TransferHelper.sol\":960:1112  require(\r... */\n      tag_505\n      jumpi\n      mload(0x40)\n      shl(0xe5, 0x461bcd)\n      dup2\n      mstore\n      0x04\n      add\n      dup1\n      dup1\n      0x20\n      add\n      dup3\n      dup2\n      sub\n      dup3\n      mstore\n      0x2d\n      dup2\n      mstore\n      0x20\n      add\n      dup1\n      data_daea69421eeb1164e163c36f3d4349f0db3ec4e0d1381bd5bf4faf53496c2611\n      0x2d\n      swap2\n      codecopy\n      0x40\n      add\n      swap2\n      pop\n      pop\n      mload(0x40)\n      dup1\n      swap2\n      sub\n      swap1\n      revert\n    tag_505:\n        /* \"@donkswap/lib/contracts/libraries/TransferHelper.sol\":671:1120  function safeTransfer(\r... */\n      pop\n      pop\n      pop\n      pop\n      pop\n      jump\t// out\n        /* \"@donkswap/lib/contracts/libraries/TransferHelper.sol\":1634:1851  function safeTransferETH(address to, uint256 value) internal {\r... */\n    tag_200:\n        /* \"@donkswap/lib/contracts/libraries/TransferHelper.sol\":1747:1759  new bytes(0) */\n      0x40\n      dup1\n      mload\n        /* \"@donkswap/lib/contracts/libraries/TransferHelper.sol\":1707:1719  bool success */\n      0x00\n        /* \"@donkswap/lib/contracts/libraries/TransferHelper.sol\":1747:1759  new bytes(0) */\n      dup1\n      dup3\n      mstore\n      0x20\n      dup3\n      add\n      swap1\n      swap3\n      mstore\n      sub(shl(0xa0, 0x01), 0x01)\n        /* \"@donkswap/lib/contracts/libraries/TransferHelper.sol\":1725:1732  to.call */\n      dup5\n      and\n      swap1\n        /* \"@donkswap/lib/contracts/libraries/TransferHelper.sol\":1740:1745  value */\n      dup4\n      swap1\n        /* \"@donkswap/lib/contracts/libraries/TransferHelper.sol\":1725:1760  to.call{value: value}(new bytes(0)) */\n      mload(0x40)\n      dup1\n      dup3\n      dup1\n      mload\n      swap1\n      0x20\n      add\n      swap1\n      dup1\n      dup4\n      dup4\n    tag_509:\n      0x20\n      dup4\n      lt\n      tag_511\n      jumpi\n      dup1\n      mload\n      dup3\n      mstore\n      not(0x1f)\n      swap1\n      swap3\n      add\n      swap2\n      0x20\n      swap2\n      dup3\n      add\n      swap2\n      add\n      jump(tag_509)\n    tag_511:\n      0x01\n      dup4\n      0x20\n      sub\n      0x0100\n      exp\n      sub\n      dup1\n      not\n      dup3\n      mload\n      and\n      dup2\n      dup5\n      mload\n      and\n      dup1\n      dup3\n      or\n      dup6\n      mstore\n      pop\n      pop\n      pop\n      pop\n      pop\n      pop\n      swap1\n      pop\n      add\n      swap2\n      pop\n      pop\n      0x00\n      mload(0x40)\n      dup1\n      dup4\n      sub\n      dup2\n      dup6\n      dup8\n      gas\n      call\n      swap3\n      pop\n      pop\n      pop\n      returndatasize\n      dup1\n      0x00\n      dup2\n      eq\n      tag_514\n      jumpi\n      mload(0x40)\n      swap2\n      pop\n      and(add(returndatasize, 0x3f), not(0x1f))\n      dup3\n      add\n      0x40\n      mstore\n      returndatasize\n      dup3\n      mstore\n      returndatasize\n      0x00\n      0x20\n      dup5\n      add\n      returndatacopy\n      jump(tag_513)\n    tag_514:\n      0x60\n      swap2\n      pop\n    tag_513:\n      pop\n        /* \"@donkswap/lib/contracts/libraries/TransferHelper.sol\":1706:1760  (bool success, ) = to.call{value: value}(new bytes(0)) */\n      pop\n      swap1\n      pop\n        /* \"@donkswap/lib/contracts/libraries/TransferHelper.sol\":1779:1786  success */\n      dup1\n        /* \"@donkswap/lib/contracts/libraries/TransferHelper.sol\":1771:1843  require(success, 'TransferHelper::safeTransferETH: ETH transfer failed') */\n      tag_515\n      jumpi\n      mload(0x40)\n      shl(0xe5, 0x461bcd)\n      dup2\n      mstore\n      0x04\n      add\n      dup1\n      dup1\n      0x20\n      add\n      dup3\n      dup2\n      sub\n      dup3\n      mstore\n      0x34\n      dup2\n      mstore\n      0x20\n      add\n      dup1\n      data_43d7bec223ecf9eb06ea147e7d564bc71c2448662d62a4ea86ce71fc4518b350\n      0x34\n      swap2\n      codecopy\n      0x40\n      add\n      swap2\n      pop\n      pop\n      mload(0x40)\n      dup1\n      swap2\n      sub\n      swap1\n      revert\n    tag_515:\n        /* \"@donkswap/lib/contracts/libraries/TransferHelper.sol\":1634:1851  function safeTransferETH(address to, uint256 value) internal {\r... */\n      pop\n      pop\n      pop\n      jump\t// out\n        /* \"libraries/UniswapV2Library.sol\":2489:3085  function getAmountOut(uint amountIn, uint reserveIn, uint reserveOut) internal view returns (uint amountOut) {\r... */\n    tag_203:\n        /* \"libraries/UniswapV2Library.sol\":2582:2596  uint amountOut */\n      0x00\n        /* \"libraries/UniswapV2Library.sol\":2628:2629  0 */\n      dup1\n        /* \"libraries/UniswapV2Library.sol\":2617:2625  amountIn */\n      dup5\n        /* \"libraries/UniswapV2Library.sol\":2617:2629  amountIn > 0 */\n      gt\n        /* \"libraries/UniswapV2Library.sol\":2609:2677  require(amountIn > 0, 'UniswapV2Library: INSUFFICIENT_INPUT_AMOUNT') */\n      tag_517\n      jumpi\n      mload(0x40)\n      shl(0xe5, 0x461bcd)\n      dup2\n      mstore\n      0x04\n      add\n      dup1\n      dup1\n      0x20\n      add\n      dup3\n      dup2\n      sub\n      dup3\n      mstore\n      0x2b\n      dup2\n      mstore\n      0x20\n      add\n      dup1\n      data_ec21b006eb37ef20d0f4abcabd34de6854fa68af48294244e0263dc05c1dbbae\n      0x2b\n      swap2\n      codecopy\n      0x40\n      add\n      swap2\n      pop\n      pop\n      mload(0x40)\n      dup1\n      swap2\n      sub\n      swap1\n      revert\n    tag_517:\n        /* \"libraries/UniswapV2Library.sol\":2708:2709  0 */\n      0x00\n        /* \"libraries/UniswapV2Library.sol\":2696:2705  reserveIn */\n      dup4\n        /* \"libraries/UniswapV2Library.sol\":2696:2709  reserveIn > 0 */\n      gt\n        /* \"libraries/UniswapV2Library.sol\":2696:2727  reserveIn > 0 && reserveOut > 0 */\n      dup1\n      iszero\n      tag_518\n      jumpi\n      pop\n        /* \"libraries/UniswapV2Library.sol\":2726:2727  0 */\n      0x00\n        /* \"libraries/UniswapV2Library.sol\":2713:2723  reserveOut */\n      dup3\n        /* \"libraries/UniswapV2Library.sol\":2713:2727  reserveOut > 0 */\n      gt\n        /* \"libraries/UniswapV2Library.sol\":2696:2727  reserveIn > 0 && reserveOut > 0 */\n    tag_518:\n        /* \"libraries/UniswapV2Library.sol\":2688:2772  require(reserveIn > 0 && reserveOut > 0, 'UniswapV2Library: INSUFFICIENT_LIQUIDITY') */\n      tag_519\n      jumpi\n      mload(0x40)\n      shl(0xe5, 0x461bcd)\n      dup2\n      mstore\n      0x04\n      add\n      dup1\n      dup1\n      0x20\n      add\n      dup3\n      dup2\n      sub\n      dup3\n      mstore\n      0x28\n      dup2\n      mstore\n      0x20\n      add\n      dup1\n      data_7e8d6b265173dbbd87b3b9e2bf4238bea6caf2b2bbeb63f859a738aec9e761c8\n      0x28\n      swap2\n      codecopy\n      0x40\n      add\n      swap2\n      pop\n      pop\n      mload(0x40)\n      dup1\n      swap2\n      sub\n      swap1\n      revert\n    tag_519:\n        /* \"libraries/UniswapV2Library.sol\":2783:2795  uint256 fees */\n      0x00\n        /* \"libraries/UniswapV2Library.sol\":2817:2827  msg.sender */\n      caller\n      sub(shl(0xa0, 0x01), 0x01)\n        /* \"libraries/UniswapV2Library.sol\":2798:2837  IUniswapV2Router02(msg.sender).adminFee */\n      and\n      0xa0be06f9\n        /* \"libraries/UniswapV2Library.sol\":2798:2839  IUniswapV2Router02(msg.sender).adminFee() */\n      mload(0x40)\n      dup2\n      0xffffffff\n      and\n      0xe0\n      shl\n      dup2\n      mstore\n      0x04\n      add\n      0x20\n      mload(0x40)\n      dup1\n      dup4\n      sub\n      dup2\n      dup7\n      dup1\n      extcodesize\n      iszero\n      dup1\n      iszero\n      tag_520\n      jumpi\n      0x00\n      dup1\n      revert\n    tag_520:\n      pop\n      gas\n      staticcall\n      iszero\n      dup1\n      iszero\n      tag_522\n      jumpi\n      returndatasize\n      0x00\n      dup1\n      returndatacopy\n      revert(0x00, returndatasize)\n    tag_522:\n      pop\n      pop\n      pop\n      pop\n      mload(0x40)\n      returndatasize\n      0x20\n      dup2\n      lt\n      iszero\n      tag_523\n      jumpi\n      0x00\n      dup1\n      revert\n    tag_523:\n      pop\n      mload\n      swap1\n      pop\n        /* \"libraries/UniswapV2Library.sol\":2850:2870  uint amountInWithFee */\n      0x00\n        /* \"libraries/UniswapV2Library.sol\":2873:2891  amountIn.mul(fees) */\n      tag_524\n        /* \"libraries/UniswapV2Library.sol\":2873:2881  amountIn */\n      dup7\n        /* \"libraries/UniswapV2Library.sol\":2798:2839  IUniswapV2Router02(msg.sender).adminFee() */\n      dup4\n        /* \"libraries/UniswapV2Library.sol\":2873:2885  amountIn.mul */\n      tag_525\n        /* \"libraries/UniswapV2Library.sol\":2873:2891  amountIn.mul(fees) */\n      jump\t// in\n    tag_524:\n        /* \"libraries/UniswapV2Library.sol\":2850:2891  uint amountInWithFee = amountIn.mul(fees) */\n      swap1\n      pop\n        /* \"libraries/UniswapV2Library.sol\":2913:2927  uint numerator */\n      0x00\n        /* \"libraries/UniswapV2Library.sol\":2930:2961  amountInWithFee.mul(reserveOut) */\n      tag_526\n        /* \"libraries/UniswapV2Library.sol\":2850:2891  uint amountInWithFee = amountIn.mul(fees) */\n      dup3\n        /* \"libraries/UniswapV2Library.sol\":2950:2960  reserveOut */\n      dup7\n        /* \"libraries/UniswapV2Library.sol\":2930:2949  amountInWithFee.mul */\n      tag_525\n        /* \"libraries/UniswapV2Library.sol\":2930:2961  amountInWithFee.mul(reserveOut) */\n      jump\t// in\n    tag_526:\n        /* \"libraries/UniswapV2Library.sol\":2913:2961  uint numerator = amountInWithFee.mul(reserveOut) */\n      swap1\n      pop\n        /* \"libraries/UniswapV2Library.sol\":2972:2988  uint denominator */\n      0x00\n        /* \"libraries/UniswapV2Library.sol\":2991:3031  reserveIn.mul(1000).add(amountInWithFee) */\n      tag_527\n        /* \"libraries/UniswapV2Library.sol\":3015:3030  amountInWithFee */\n      dup4\n        /* \"libraries/UniswapV2Library.sol\":2991:3010  reserveIn.mul(1000) */\n      tag_528\n        /* \"libraries/UniswapV2Library.sol\":2991:3000  reserveIn */\n      dup10\n        /* \"libraries/UniswapV2Library.sol\":3005:3009  1000 */\n      0x03e8\n        /* \"libraries/UniswapV2Library.sol\":2991:3004  reserveIn.mul */\n      tag_525\n        /* \"libraries/UniswapV2Library.sol\":2991:3010  reserveIn.mul(1000) */\n      jump\t// in\n    tag_528:\n        /* \"libraries/UniswapV2Library.sol\":2991:3014  reserveIn.mul(1000).add */\n      swap1\n      tag_529\n        /* \"libraries/UniswapV2Library.sol\":2991:3031  reserveIn.mul(1000).add(amountInWithFee) */\n      jump\t// in\n    tag_527:\n        /* \"libraries/UniswapV2Library.sol\":2972:3031  uint denominator = reserveIn.mul(1000).add(amountInWithFee) */\n      swap1\n      pop\n        /* \"libraries/UniswapV2Library.sol\":3066:3077  denominator */\n      dup1\n        /* \"libraries/UniswapV2Library.sol\":3054:3063  numerator */\n      dup3\n        /* \"libraries/UniswapV2Library.sol\":3054:3077  numerator / denominator */\n      dup2\n      tag_530\n      jumpi\n      invalid\n    tag_530:\n      div\n      swap9\n        /* \"libraries/UniswapV2Library.sol\":2489:3085  function getAmountOut(uint amountIn, uint reserveIn, uint reserveOut) internal view returns (uint amountOut) {\r... */\n      swap8\n      pop\n      pop\n      pop\n      pop\n      pop\n      pop\n      pop\n      pop\n      jump\t// out\n        /* \"libraries/UniswapV2Library.sol\":3839:4384  function getAmountsOut(\r... */\n    tag_210:\n        /* \"libraries/UniswapV2Library.sol\":3974:3995  uint[] memory amounts */\n      0x60\n        /* \"libraries/UniswapV2Library.sol\":4031:4032  2 */\n      0x02\n        /* \"libraries/UniswapV2Library.sol\":4016:4020  path */\n      dup3\n        /* \"libraries/UniswapV2Library.sol\":4016:4027  path.length */\n      mload\n        /* \"libraries/UniswapV2Library.sol\":4016:4032  path.length >= 2 */\n      lt\n      iszero\n        /* \"libraries/UniswapV2Library.sol\":4008:4067  require(path.length >= 2, 'UniswapV2Library: INVALID_PATH') */\n      tag_532\n      jumpi\n      0x40\n      dup1\n      mload\n      shl(0xe5, 0x461bcd)\n      dup2\n      mstore\n      0x20\n      0x04\n      dup3\n      add\n      mstore\n      0x1e\n      0x24\n      dup3\n      add\n      mstore\n      0x556e697377617056324c6962726172793a20494e56414c49445f504154480000\n      0x44\n      dup3\n      add\n      mstore\n      swap1\n      mload\n      swap1\n      dup2\n      swap1\n      sub\n      0x64\n      add\n      swap1\n      revert\n    tag_532:\n        /* \"libraries/UniswapV2Library.sol\":4099:4103  path */\n      dup2\n        /* \"libraries/UniswapV2Library.sol\":4099:4110  path.length */\n      mload\n        /* \"libraries/UniswapV2Library.sol\":4088:4111  new uint[](path.length) */\n      0xffffffffffffffff\n      dup2\n      gt\n      dup1\n      iszero\n      tag_533\n      jumpi\n      0x00\n      dup1\n      revert\n    tag_533:\n      pop\n      mload(0x40)\n      swap1\n      dup1\n      dup3\n      mstore\n      dup1\n      0x20\n      mul\n      0x20\n      add\n      dup3\n      add\n      0x40\n      mstore\n      dup1\n      iszero\n      tag_534\n      jumpi\n      dup2\n      0x20\n      add\n      0x20\n      dup3\n      mul\n      dup1\n      calldatasize\n      dup4\n      calldatacopy\n      add\n      swap1\n      pop\n    tag_534:\n      pop\n        /* \"libraries/UniswapV2Library.sol\":4078:4111  amounts = new uint[](path.length) */\n      swap1\n      pop\n        /* \"libraries/UniswapV2Library.sol\":4135:4143  amountIn */\n      dup3\n        /* \"libraries/UniswapV2Library.sol\":4122:4129  amounts */\n      dup2\n        /* \"libraries/UniswapV2Library.sol\":4130:4131  0 */\n      0x00\n        /* \"libraries/UniswapV2Library.sol\":4122:4132  amounts[0] */\n      dup2\n      mload\n      dup2\n      lt\n      tag_535\n      jumpi\n      invalid\n    tag_535:\n      0x20\n      mul\n      0x20\n      add\n      add\n        /* \"libraries/UniswapV2Library.sol\":4122:4143  amounts[0] = amountIn */\n      dup2\n      dup2\n      mstore\n      pop\n      pop\n        /* \"libraries/UniswapV2Library.sol\":4159:4165  uint i */\n      0x00\n        /* \"libraries/UniswapV2Library.sol\":4154:4377  for (uint i; i < path.length - 1; i++) {\r... */\n    tag_536:\n        /* \"libraries/UniswapV2Library.sol\":4185:4186  1 */\n      0x01\n        /* \"libraries/UniswapV2Library.sol\":4171:4175  path */\n      dup4\n        /* \"libraries/UniswapV2Library.sol\":4171:4182  path.length */\n      mload\n        /* \"libraries/UniswapV2Library.sol\":4171:4186  path.length - 1 */\n      sub\n        /* \"libraries/UniswapV2Library.sol\":4167:4168  i */\n      dup2\n        /* \"libraries/UniswapV2Library.sol\":4167:4186  i < path.length - 1 */\n      lt\n        /* \"libraries/UniswapV2Library.sol\":4154:4377  for (uint i; i < path.length - 1; i++) {\r... */\n      iszero\n      tag_537\n      jumpi\n        /* \"libraries/UniswapV2Library.sol\":4209:4223  uint reserveIn */\n      0x00\n        /* \"libraries/UniswapV2Library.sol\":4225:4240  uint reserveOut */\n      dup1\n        /* \"libraries/UniswapV2Library.sol\":4244:4286  getReserves(factory, path[i], path[i + 1]) */\n      tag_539\n        /* \"libraries/UniswapV2Library.sol\":4256:4263  factory */\n      dup8\n        /* \"libraries/UniswapV2Library.sol\":4265:4269  path */\n      dup7\n        /* \"libraries/UniswapV2Library.sol\":4270:4271  i */\n      dup6\n        /* \"libraries/UniswapV2Library.sol\":4265:4272  path[i] */\n      dup2\n      mload\n      dup2\n      lt\n      tag_540\n      jumpi\n      invalid\n    tag_540:\n      0x20\n      mul\n      0x20\n      add\n      add\n      mload\n        /* \"libraries/UniswapV2Library.sol\":4274:4278  path */\n      dup8\n        /* \"libraries/UniswapV2Library.sol\":4279:4280  i */\n      dup7\n        /* \"libraries/UniswapV2Library.sol\":4283:4284  1 */\n      0x01\n        /* \"libraries/UniswapV2Library.sol\":4279:4284  i + 1 */\n      add\n        /* \"libraries/UniswapV2Library.sol\":4274:4285  path[i + 1] */\n      dup2\n      mload\n      dup2\n      lt\n      tag_541\n      jumpi\n      invalid\n    tag_541:\n      0x20\n      mul\n      0x20\n      add\n      add\n      mload\n        /* \"libraries/UniswapV2Library.sol\":4244:4255  getReserves */\n      tag_542\n        /* \"libraries/UniswapV2Library.sol\":4244:4286  getReserves(factory, path[i], path[i + 1]) */\n      jump\t// in\n    tag_539:\n        /* \"libraries/UniswapV2Library.sol\":4208:4286  (uint reserveIn, uint reserveOut) = getReserves(factory, path[i], path[i + 1]) */\n      swap2\n      pop\n      swap2\n      pop\n        /* \"libraries/UniswapV2Library.sol\":4318:4365  getAmountOut(amounts[i], reserveIn, reserveOut) */\n      tag_543\n        /* \"libraries/UniswapV2Library.sol\":4331:4338  amounts */\n      dup5\n        /* \"libraries/UniswapV2Library.sol\":4339:4340  i */\n      dup5\n        /* \"libraries/UniswapV2Library.sol\":4331:4341  amounts[i] */\n      dup2\n      mload\n      dup2\n      lt\n      tag_544\n      jumpi\n      invalid\n    tag_544:\n      0x20\n      mul\n      0x20\n      add\n      add\n      mload\n        /* \"libraries/UniswapV2Library.sol\":4343:4352  reserveIn */\n      dup4\n        /* \"libraries/UniswapV2Library.sol\":4354:4364  reserveOut */\n      dup4\n        /* \"libraries/UniswapV2Library.sol\":4318:4330  getAmountOut */\n      tag_203\n        /* \"libraries/UniswapV2Library.sol\":4318:4365  getAmountOut(amounts[i], reserveIn, reserveOut) */\n      jump\t// in\n    tag_543:\n        /* \"libraries/UniswapV2Library.sol\":4301:4308  amounts */\n      dup5\n        /* \"libraries/UniswapV2Library.sol\":4309:4310  i */\n      dup5\n        /* \"libraries/UniswapV2Library.sol\":4313:4314  1 */\n      0x01\n        /* \"libraries/UniswapV2Library.sol\":4309:4314  i + 1 */\n      add\n        /* \"libraries/UniswapV2Library.sol\":4301:4315  amounts[i + 1] */\n      dup2\n      mload\n      dup2\n      lt\n      tag_545\n      jumpi\n      invalid\n    tag_545:\n      0x20\n      swap1\n      dup2\n      mul\n      swap2\n      swap1\n      swap2\n      add\n      add\n        /* \"libraries/UniswapV2Library.sol\":4301:4365  amounts[i + 1] = getAmountOut(amounts[i], reserveIn, reserveOut) */\n      mstore\n      pop\n      pop\n        /* \"libraries/UniswapV2Library.sol\":4188:4191  i++ */\n      0x01\n      add\n        /* \"libraries/UniswapV2Library.sol\":4154:4377  for (uint i; i < path.length - 1; i++) {\r... */\n      jump(tag_536)\n    tag_537:\n      pop\n        /* \"libraries/UniswapV2Library.sol\":3839:4384  function getAmountsOut(\r... */\n      swap4\n      swap3\n      pop\n      pop\n      pop\n      jump\t// out\n        /* \"libraries/UniswapV2Library.sol\":813:1448  function pairFor(address factory, address tokenA, address tokenB) internal pure returns (address pair) {\r... */\n    tag_218:\n        /* \"libraries/UniswapV2Library.sol\":902:914  address pair */\n      0x00\n        /* \"libraries/UniswapV2Library.sol\":928:942  address token0 */\n      dup1\n        /* \"libraries/UniswapV2Library.sol\":944:958  address token1 */\n      0x00\n        /* \"libraries/UniswapV2Library.sol\":962:988  sortTokens(tokenA, tokenB) */\n      tag_547\n        /* \"libraries/UniswapV2Library.sol\":973:979  tokenA */\n      dup6\n        /* \"libraries/UniswapV2Library.sol\":981:987  tokenB */\n      dup6\n        /* \"libraries/UniswapV2Library.sol\":962:972  sortTokens */\n      tag_422\n        /* \"libraries/UniswapV2Library.sol\":962:988  sortTokens(tokenA, tokenB) */\n      jump\t// in\n    tag_547:\n        /* \"libraries/UniswapV2Library.sol\":1204:1236  abi.encodePacked(token0, token1) */\n      0x40\n      dup1\n      mload\n      not(0xffffffffffffffffffffffff)\n      0x60\n      swap5\n      dup6\n      shl\n      dup2\n      and\n      0x20\n      dup1\n      dup5\n      add\n      swap2\n      swap1\n      swap2\n      mstore\n      swap4\n      dup6\n      shl\n      dup2\n      and\n      0x34\n      dup4\n      add\n      mstore\n      dup3\n      mload\n      0x28\n      dup2\n      dup5\n      sub\n      add\n      dup2\n      mstore\n      0x48\n      dup4\n      add\n      dup5\n      mstore\n        /* \"libraries/UniswapV2Library.sol\":1194:1237  keccak256(abi.encodePacked(token0, token1)) */\n      dup1\n      mload\n      swap1\n      dup6\n      add\n      keccak256\n      not(sub(shl(0xf8, 0x01), 0x01))\n        /* \"libraries/UniswapV2Library.sol\":1083:1395  abi.encodePacked(\r... */\n      0x68\n      dup5\n      add\n      mstore\n      swap11\n      swap1\n      swap5\n      shl\n      swap1\n      swap4\n      and\n      0x69\n      dup5\n      add\n      mstore\n      0x7d\n      dup4\n      add\n      swap9\n      swap1\n      swap9\n      mstore\n      0xfc0d909b941a223f03a05103511f7b486aa41fc8e5fe699769e3e486b7da2f14\n      0x9d\n      dup1\n      dup5\n      add\n      swap2\n      swap1\n      swap2\n      mstore\n      dup9\n      mload\n      dup1\n      dup5\n      sub\n      swap1\n      swap2\n      add\n      dup2\n      mstore\n      0xbd\n      swap1\n      swap3\n      add\n      swap1\n      swap8\n      mstore\n        /* \"libraries/UniswapV2Library.sol\":1051:1414  keccak256(\r... */\n      dup1\n      mload\n      swap7\n      add\n      swap6\n      swap1\n      swap6\n      keccak256\n      swap6\n        /* \"libraries/UniswapV2Library.sol\":813:1448  function pairFor(address factory, address tokenA, address tokenB) internal pure returns (address pair) {\r... */\n      swap5\n      pop\n      pop\n      pop\n      pop\n      pop\n      jump\t// out\n        /* \"@donkswap/lib/contracts/libraries/TransferHelper.sol\":1128:1626  function safeTransferFrom(\r... */\n    tag_220:\n        /* \"@donkswap/lib/contracts/libraries/TransferHelper.sol\":1399:1450  abi.encodeWithSelector(0x23b872dd, from, to, value) */\n      0x40\n      dup1\n      mload\n      sub(shl(0xa0, 0x01), 0x01)\n      dup6\n      dup2\n      and\n      0x24\n      dup4\n      add\n      mstore\n      dup5\n      dup2\n      and\n      0x44\n      dup4\n      add\n      mstore\n      0x64\n      dup1\n      dup4\n      add\n      dup6\n      swap1\n      mstore\n      dup4\n      mload\n      dup1\n      dup5\n      sub\n      swap1\n      swap2\n      add\n      dup2\n      mstore\n      0x84\n      swap1\n      swap3\n      add\n      dup4\n      mstore\n      0x20\n      dup3\n      add\n      dup1\n      mload\n      sub(shl(0xe0, 0x01), 0x01)\n      and\n      shl(0xe0, 0x23b872dd)\n      or\n      dup2\n      mstore\n        /* \"@donkswap/lib/contracts/libraries/TransferHelper.sol\":1388:1451  token.call(abi.encodeWithSelector(0x23b872dd, from, to, value)) */\n      swap3\n      mload\n      dup3\n      mload\n        /* \"@donkswap/lib/contracts/libraries/TransferHelper.sol\":1353:1365  bool success */\n      0x00\n      swap5\n        /* \"@donkswap/lib/contracts/libraries/TransferHelper.sol\":1367:1384  bytes memory data */\n      0x60\n      swap5\n        /* \"@donkswap/lib/contracts/libraries/TransferHelper.sol\":1388:1398  token.call */\n      swap4\n      dup11\n      and\n      swap4\n        /* \"@donkswap/lib/contracts/libraries/TransferHelper.sol\":1399:1450  abi.encodeWithSelector(0x23b872dd, from, to, value) */\n      swap3\n        /* \"@donkswap/lib/contracts/libraries/TransferHelper.sol\":1388:1451  token.call(abi.encodeWithSelector(0x23b872dd, from, to, value)) */\n      swap2\n      dup3\n      swap2\n        /* \"@donkswap/lib/contracts/libraries/TransferHelper.sol\":1399:1450  abi.encodeWithSelector(0x23b872dd, from, to, value) */\n      swap1\n        /* \"@donkswap/lib/contracts/libraries/TransferHelper.sol\":1388:1451  token.call(abi.encodeWithSelector(0x23b872dd, from, to, value)) */\n      dup1\n      dup4\n        /* \"@donkswap/lib/contracts/libraries/TransferHelper.sol\":1399:1450  abi.encodeWithSelector(0x23b872dd, from, to, value) */\n      dup4\n        /* \"@donkswap/lib/contracts/libraries/TransferHelper.sol\":1388:1451  token.call(abi.encodeWithSelector(0x23b872dd, from, to, value)) */\n    tag_549:\n      0x20\n      dup4\n      lt\n      tag_551\n      jumpi\n      dup1\n      mload\n      dup3\n      mstore\n      not(0x1f)\n      swap1\n      swap3\n      add\n      swap2\n      0x20\n      swap2\n      dup3\n      add\n      swap2\n      add\n      jump(tag_549)\n    tag_551:\n      0x01\n      dup4\n      0x20\n      sub\n      0x0100\n      exp\n      sub\n      dup1\n      not\n      dup3\n      mload\n      and\n      dup2\n      dup5\n      mload\n      and\n      dup1\n      dup3\n      or\n      dup6\n      mstore\n      pop\n      pop\n      pop\n      pop\n      pop\n      pop\n      swap1\n      pop\n      add\n      swap2\n      pop\n      pop\n      0x00\n      mload(0x40)\n      dup1\n      dup4\n      sub\n      dup2\n      0x00\n      dup7\n      gas\n      call\n      swap2\n      pop\n      pop\n      returndatasize\n      dup1\n      0x00\n      dup2\n      eq\n      tag_554\n      jumpi\n      mload(0x40)\n      swap2\n      pop\n      and(add(returndatasize, 0x3f), not(0x1f))\n      dup3\n      add\n      0x40\n      mstore\n      returndatasize\n      dup3\n      mstore\n      returndatasize\n      0x00\n      0x20\n      dup5\n      add\n      returndatacopy\n      jump(tag_553)\n    tag_554:\n      0x60\n      swap2\n      pop\n    tag_553:\n      pop\n        /* \"@donkswap/lib/contracts/libraries/TransferHelper.sol\":1352:1451  (bool success, bytes memory data) = token.call(abi.encodeWithSelector(0x23b872dd, from, to, value)) */\n      swap2\n      pop\n      swap2\n      pop\n        /* \"@donkswap/lib/contracts/libraries/TransferHelper.sol\":1484:1491  success */\n      dup2\n        /* \"@donkswap/lib/contracts/libraries/TransferHelper.sol\":1484:1541  success && (data.length == 0 || abi.decode(data, (bool))) */\n      dup1\n      iszero\n      tag_556\n      jumpi\n      pop\n        /* \"@donkswap/lib/contracts/libraries/TransferHelper.sol\":1496:1507  data.length */\n      dup1\n      mload\n        /* \"@donkswap/lib/contracts/libraries/TransferHelper.sol\":1496:1512  data.length == 0 */\n      iszero\n      dup1\n        /* \"@donkswap/lib/contracts/libraries/TransferHelper.sol\":1496:1540  data.length == 0 || abi.decode(data, (bool)) */\n      tag_556\n      jumpi\n      pop\n        /* \"@donkswap/lib/contracts/libraries/TransferHelper.sol\":1527:1531  data */\n      dup1\n        /* \"@donkswap/lib/contracts/libraries/TransferHelper.sol\":1516:1540  abi.decode(data, (bool)) */\n      dup1\n      0x20\n      add\n      swap1\n      mload\n      0x20\n      dup2\n      lt\n      iszero\n      tag_557\n      jumpi\n      0x00\n      dup1\n      revert\n    tag_557:\n      pop\n      mload\n        /* \"@donkswap/lib/contracts/libraries/TransferHelper.sol\":1496:1540  data.length == 0 || abi.decode(data, (bool)) */\n    tag_556:\n        /* \"@donkswap/lib/contracts/libraries/TransferHelper.sol\":1462:1618  require(\r... */\n      tag_558\n      jumpi\n      mload(0x40)\n      shl(0xe5, 0x461bcd)\n      dup2\n      mstore\n      0x04\n      add\n      dup1\n      dup1\n      0x20\n      add\n      dup3\n      dup2\n      sub\n      dup3\n      mstore\n      0x31\n      dup2\n      mstore\n      0x20\n      add\n      dup1\n      data_3f8faf98afe9344b6d4b0e75b0101259bf282914b3b5a9320c6918b6e27ede1c\n      0x31\n      swap2\n      codecopy\n      0x40\n      add\n      swap2\n      pop\n      pop\n      mload(0x40)\n      dup1\n      swap2\n      sub\n      swap1\n      revert\n    tag_558:\n        /* \"@donkswap/lib/contracts/libraries/TransferHelper.sol\":1128:1626  function safeTransferFrom(\r... */\n      pop\n      pop\n      pop\n      pop\n      pop\n      pop\n      jump\t// out\n        /* \"UniswapV2Router02.sol\":8821:9608  function _swap(uint[] memory amounts, address[] memory path, address _to) internal virtual {\r... */\n    tag_222:\n        /* \"UniswapV2Router02.sol\":8928:8934  uint i */\n      0x00\n        /* \"UniswapV2Router02.sol\":8923:9601  for (uint i; i < path.length - 1; i++) {\r... */\n    tag_560:\n        /* \"UniswapV2Router02.sol\":8954:8955  1 */\n      0x01\n        /* \"UniswapV2Router02.sol\":8940:8944  path */\n      dup4\n        /* \"UniswapV2Router02.sol\":8940:8951  path.length */\n      mload\n        /* \"UniswapV2Router02.sol\":8940:8955  path.length - 1 */\n      sub\n        /* \"UniswapV2Router02.sol\":8936:8937  i */\n      dup2\n        /* \"UniswapV2Router02.sol\":8936:8955  i < path.length - 1 */\n      lt\n        /* \"UniswapV2Router02.sol\":8923:9601  for (uint i; i < path.length - 1; i++) {\r... */\n      iszero\n      tag_561\n      jumpi\n        /* \"UniswapV2Router02.sol\":8978:8991  address input */\n      0x00\n        /* \"UniswapV2Router02.sol\":8993:9007  address output */\n      dup1\n        /* \"UniswapV2Router02.sol\":9012:9016  path */\n      dup5\n        /* \"UniswapV2Router02.sol\":9017:9018  i */\n      dup4\n        /* \"UniswapV2Router02.sol\":9012:9019  path[i] */\n      dup2\n      mload\n      dup2\n      lt\n      tag_563\n      jumpi\n      invalid\n    tag_563:\n      0x20\n      mul\n      0x20\n      add\n      add\n      mload\n        /* \"UniswapV2Router02.sol\":9021:9025  path */\n      dup6\n        /* \"UniswapV2Router02.sol\":9026:9027  i */\n      dup5\n        /* \"UniswapV2Router02.sol\":9030:9031  1 */\n      0x01\n        /* \"UniswapV2Router02.sol\":9026:9031  i + 1 */\n      add\n        /* \"UniswapV2Router02.sol\":9021:9032  path[i + 1] */\n      dup2\n      mload\n      dup2\n      lt\n      tag_564\n      jumpi\n      invalid\n    tag_564:\n      0x20\n      mul\n      0x20\n      add\n      add\n      mload\n        /* \"UniswapV2Router02.sol\":8977:9033  (address input, address output) = (path[i], path[i + 1]) */\n      swap2\n      pop\n      swap2\n      pop\n        /* \"UniswapV2Router02.sol\":9049:9063  address token0 */\n      0x00\n        /* \"UniswapV2Router02.sol\":9069:9111  UniswapV2Library.sortTokens(input, output) */\n      tag_565\n        /* \"UniswapV2Router02.sol\":9097:9102  input */\n      dup4\n        /* \"UniswapV2Router02.sol\":9104:9110  output */\n      dup4\n        /* \"UniswapV2Router02.sol\":9069:9096  UniswapV2Library.sortTokens */\n      tag_422\n        /* \"UniswapV2Router02.sol\":9069:9111  UniswapV2Library.sortTokens(input, output) */\n      jump\t// in\n    tag_565:\n        /* \"UniswapV2Router02.sol\":9048:9111  (address token0, ) = UniswapV2Library.sortTokens(input, output) */\n      pop\n      swap1\n      pop\n        /* \"UniswapV2Router02.sol\":9126:9140  uint amountOut */\n      0x00\n        /* \"UniswapV2Router02.sol\":9143:9150  amounts */\n      dup8\n        /* \"UniswapV2Router02.sol\":9151:9152  i */\n      dup6\n        /* \"UniswapV2Router02.sol\":9155:9156  1 */\n      0x01\n        /* \"UniswapV2Router02.sol\":9151:9156  i + 1 */\n      add\n        /* \"UniswapV2Router02.sol\":9143:9157  amounts[i + 1] */\n      dup2\n      mload\n      dup2\n      lt\n      tag_566\n      jumpi\n      invalid\n    tag_566:\n      0x20\n      mul\n      0x20\n      add\n      add\n      mload\n        /* \"UniswapV2Router02.sol\":9126:9157  uint amountOut = amounts[i + 1] */\n      swap1\n      pop\n        /* \"UniswapV2Router02.sol\":9173:9188  uint amount0Out */\n      0x00\n        /* \"UniswapV2Router02.sol\":9190:9205  uint amount1Out */\n      dup1\n        /* \"UniswapV2Router02.sol\":9218:9224  token0 */\n      dup4\n      sub(shl(0xa0, 0x01), 0x01)\n        /* \"UniswapV2Router02.sol\":9209:9224  input == token0 */\n      and\n        /* \"UniswapV2Router02.sol\":9209:9214  input */\n      dup7\n      sub(shl(0xa0, 0x01), 0x01)\n        /* \"UniswapV2Router02.sol\":9209:9224  input == token0 */\n      and\n      eq\n        /* \"UniswapV2Router02.sol\":9209:9270  input == token0 ? (uint(0), amountOut) : (amountOut, uint(0)) */\n      tag_567\n      jumpi\n        /* \"UniswapV2Router02.sol\":9251:9260  amountOut */\n      dup3\n        /* \"UniswapV2Router02.sol\":9267:9268  0 */\n      0x00\n        /* \"UniswapV2Router02.sol\":9209:9270  input == token0 ? (uint(0), amountOut) : (amountOut, uint(0)) */\n      jump(tag_568)\n    tag_567:\n        /* \"UniswapV2Router02.sol\":9233:9234  0 */\n      0x00\n        /* \"UniswapV2Router02.sol\":9237:9246  amountOut */\n      dup4\n        /* \"UniswapV2Router02.sol\":9209:9270  input == token0 ? (uint(0), amountOut) : (amountOut, uint(0)) */\n    tag_568:\n        /* \"UniswapV2Router02.sol\":9172:9270  (uint amount0Out, uint amount1Out) = input == token0 ? (uint(0), amountOut) : (amountOut, uint(0)) */\n      swap2\n      pop\n      swap2\n      pop\n        /* \"UniswapV2Router02.sol\":9285:9295  address to */\n      0x00\n        /* \"UniswapV2Router02.sol\":9316:9317  2 */\n      0x02\n        /* \"UniswapV2Router02.sol\":9302:9306  path */\n      dup11\n        /* \"UniswapV2Router02.sol\":9302:9313  path.length */\n      mload\n        /* \"UniswapV2Router02.sol\":9302:9317  path.length - 2 */\n      sub\n        /* \"UniswapV2Router02.sol\":9298:9299  i */\n      dup9\n        /* \"UniswapV2Router02.sol\":9298:9317  i < path.length - 2 */\n      lt\n        /* \"UniswapV2Router02.sol\":9298:9380  i < path.length - 2 ? UniswapV2Library.pairFor(factory, output, path[i + 2]) : _to */\n      tag_569\n      jumpi\n        /* \"UniswapV2Router02.sol\":9377:9380  _to */\n      dup9\n        /* \"UniswapV2Router02.sol\":9298:9380  i < path.length - 2 ? UniswapV2Library.pairFor(factory, output, path[i + 2]) : _to */\n      jump(tag_571)\n    tag_569:\n        /* \"UniswapV2Router02.sol\":9320:9374  UniswapV2Library.pairFor(factory, output, path[i + 2]) */\n      tag_571\n        /* \"UniswapV2Router02.sol\":9345:9352  factory */\n      immutable(\"0xb4bf3508f2fd7bb126e7af9e4fe31dbb3cdf386df5936668ea4d8292a4a1b188\")\n        /* \"UniswapV2Router02.sol\":9354:9360  output */\n      dup8\n        /* \"UniswapV2Router02.sol\":9362:9366  path */\n      dup13\n        /* \"UniswapV2Router02.sol\":9367:9368  i */\n      dup12\n        /* \"UniswapV2Router02.sol\":9371:9372  2 */\n      0x02\n        /* \"UniswapV2Router02.sol\":9367:9372  i + 2 */\n      add\n        /* \"UniswapV2Router02.sol\":9362:9373  path[i + 2] */\n      dup2\n      mload\n      dup2\n      lt\n      tag_572\n      jumpi\n      invalid\n    tag_572:\n      0x20\n      mul\n      0x20\n      add\n      add\n      mload\n        /* \"UniswapV2Router02.sol\":9320:9344  UniswapV2Library.pairFor */\n      tag_218\n        /* \"UniswapV2Router02.sol\":9320:9374  UniswapV2Library.pairFor(factory, output, path[i + 2]) */\n      jump\t// in\n    tag_571:\n        /* \"UniswapV2Router02.sol\":9285:9380  address to = i < path.length - 2 ? UniswapV2Library.pairFor(factory, output, path[i + 2]) : _to */\n      swap1\n      pop\n        /* \"UniswapV2Router02.sol\":9410:9458  UniswapV2Library.pairFor(factory, input, output) */\n      tag_573\n        /* \"UniswapV2Router02.sol\":9435:9442  factory */\n      immutable(\"0xb4bf3508f2fd7bb126e7af9e4fe31dbb3cdf386df5936668ea4d8292a4a1b188\")\n        /* \"UniswapV2Router02.sol\":9444:9449  input */\n      dup9\n        /* \"UniswapV2Router02.sol\":9451:9457  output */\n      dup9\n        /* \"UniswapV2Router02.sol\":9410:9434  UniswapV2Library.pairFor */\n      tag_218\n        /* \"UniswapV2Router02.sol\":9410:9458  UniswapV2Library.pairFor(factory, input, output) */\n      jump\t// in\n    tag_573:\n      sub(shl(0xa0, 0x01), 0x01)\n        /* \"UniswapV2Router02.sol\":9395:9464  IUniswapV2Pair(UniswapV2Library.pairFor(factory, input, output)).swap */\n      and\n      0x022c0d9f\n        /* \"UniswapV2Router02.sol\":9483:9493  amount0Out */\n      dup5\n        /* \"UniswapV2Router02.sol\":9512:9522  amount1Out */\n      dup5\n        /* \"UniswapV2Router02.sol\":9541:9543  to */\n      dup5\n        /* \"UniswapV2Router02.sol\":9572:9573  0 */\n      0x00\n        /* \"UniswapV2Router02.sol\":9562:9574  new bytes(0) */\n      mload(0x40)\n      swap1\n      dup1\n      dup3\n      mstore\n      dup1\n      0x1f\n      add\n      not(0x1f)\n      and\n      0x20\n      add\n      dup3\n      add\n      0x40\n      mstore\n      dup1\n      iszero\n      tag_575\n      jumpi\n      0x20\n      dup3\n      add\n      dup2\n      dup1\n      calldatasize\n      dup4\n      calldatacopy\n      add\n      swap1\n      pop\n    tag_575:\n      pop\n        /* \"UniswapV2Router02.sol\":9395:9589  IUniswapV2Pair(UniswapV2Library.pairFor(factory, input, output)).swap(\r... */\n      mload(0x40)\n      dup6\n      0xffffffff\n      and\n      0xe0\n      shl\n      dup2\n      mstore\n      0x04\n      add\n      dup1\n      dup6\n      dup2\n      mstore\n      0x20\n      add\n      dup5\n      dup2\n      mstore\n      0x20\n      add\n      dup4\n      sub(shl(0xa0, 0x01), 0x01)\n      and\n      dup2\n      mstore\n      0x20\n      add\n      dup1\n      0x20\n      add\n      dup3\n      dup2\n      sub\n      dup3\n      mstore\n      dup4\n      dup2\n      dup2\n      mload\n      dup2\n      mstore\n      0x20\n      add\n      swap2\n      pop\n      dup1\n      mload\n      swap1\n      0x20\n      add\n      swap1\n      dup1\n      dup4\n      dup4\n      0x00\n    tag_576:\n      dup4\n      dup2\n      lt\n      iszero\n      tag_578\n      jumpi\n      dup2\n      dup2\n      add\n      mload\n      dup4\n      dup3\n      add\n      mstore\n      0x20\n      add\n      jump(tag_576)\n    tag_578:\n      pop\n      pop\n      pop\n      pop\n      swap1\n      pop\n      swap1\n      dup2\n      add\n      swap1\n      0x1f\n      and\n      dup1\n      iszero\n      tag_579\n      jumpi\n      dup1\n      dup3\n      sub\n      dup1\n      mload\n      0x01\n      dup4\n      0x20\n      sub\n      0x0100\n      exp\n      sub\n      not\n      and\n      dup2\n      mstore\n      0x20\n      add\n      swap2\n      pop\n    tag_579:\n      pop\n      swap6\n      pop\n      pop\n      pop\n      pop\n      pop\n      pop\n      0x00\n      mload(0x40)\n      dup1\n      dup4\n      sub\n      dup2\n      0x00\n      dup8\n      dup1\n      extcodesize\n      iszero\n      dup1\n      iszero\n      tag_580\n      jumpi\n      0x00\n      dup1\n      revert\n    tag_580:\n      pop\n      gas\n      call\n      iszero\n      dup1\n      iszero\n      tag_582\n      jumpi\n      returndatasize\n      0x00\n      dup1\n      returndatacopy\n      revert(0x00, returndatasize)\n    tag_582:\n      pop\n      pop\n        /* \"UniswapV2Router02.sol\":8957:8960  i++ */\n      0x01\n      swap1\n      swap10\n      add\n      swap9\n      pop\n        /* \"UniswapV2Router02.sol\":8923:9601  for (uint i; i < path.length - 1; i++) {\r... */\n      tag_560\n      swap8\n      pop\n      pop\n      pop\n      pop\n      pop\n      pop\n      pop\n      pop\n      jump\n    tag_561:\n      pop\n        /* \"UniswapV2Router02.sol\":8821:9608  function _swap(uint[] memory amounts, address[] memory path, address _to) internal virtual {\r... */\n      pop\n      pop\n      pop\n      jump\t// out\n        /* \"libraries/UniswapV2Library.sol\":4465:5031  function getAmountsIn(\r... */\n    tag_231:\n        /* \"libraries/UniswapV2Library.sol\":4600:4621  uint[] memory amounts */\n      0x60\n        /* \"libraries/UniswapV2Library.sol\":4657:4658  2 */\n      0x02\n        /* \"libraries/UniswapV2Library.sol\":4642:4646  path */\n      dup3\n        /* \"libraries/UniswapV2Library.sol\":4642:4653  path.length */\n      mload\n        /* \"libraries/UniswapV2Library.sol\":4642:4658  path.length >= 2 */\n      lt\n      iszero\n        /* \"libraries/UniswapV2Library.sol\":4634:4693  require(path.length >= 2, 'UniswapV2Library: INVALID_PATH') */\n      tag_584\n      jumpi\n      0x40\n      dup1\n      mload\n      shl(0xe5, 0x461bcd)\n      dup2\n      mstore\n      0x20\n      0x04\n      dup3\n      add\n      mstore\n      0x1e\n      0x24\n      dup3\n      add\n      mstore\n      0x556e697377617056324c6962726172793a20494e56414c49445f504154480000\n      0x44\n      dup3\n      add\n      mstore\n      swap1\n      mload\n      swap1\n      dup2\n      swap1\n      sub\n      0x64\n      add\n      swap1\n      revert\n    tag_584:\n        /* \"libraries/UniswapV2Library.sol\":4725:4729  path */\n      dup2\n        /* \"libraries/UniswapV2Library.sol\":4725:4736  path.length */\n      mload\n        /* \"libraries/UniswapV2Library.sol\":4714:4737  new uint[](path.length) */\n      0xffffffffffffffff\n      dup2\n      gt\n      dup1\n      iszero\n      tag_585\n      jumpi\n      0x00\n      dup1\n      revert\n    tag_585:\n      pop\n      mload(0x40)\n      swap1\n      dup1\n      dup3\n      mstore\n      dup1\n      0x20\n      mul\n      0x20\n      add\n      dup3\n      add\n      0x40\n      mstore\n      dup1\n      iszero\n      tag_586\n      jumpi\n      dup2\n      0x20\n      add\n      0x20\n      dup3\n      mul\n      dup1\n      calldatasize\n      dup4\n      calldatacopy\n      add\n      swap1\n      pop\n    tag_586:\n      pop\n        /* \"libraries/UniswapV2Library.sol\":4704:4737  amounts = new uint[](path.length) */\n      swap1\n      pop\n        /* \"libraries/UniswapV2Library.sol\":4778:4787  amountOut */\n      dup3\n        /* \"libraries/UniswapV2Library.sol\":4748:4755  amounts */\n      dup2\n        /* \"libraries/UniswapV2Library.sol\":4773:4774  1 */\n      0x01\n        /* \"libraries/UniswapV2Library.sol\":4756:4763  amounts */\n      dup4\n        /* \"libraries/UniswapV2Library.sol\":4756:4770  amounts.length */\n      mload\n        /* \"libraries/UniswapV2Library.sol\":4756:4774  amounts.length - 1 */\n      sub\n        /* \"libraries/UniswapV2Library.sol\":4748:4775  amounts[amounts.length - 1] */\n      dup2\n      mload\n      dup2\n      lt\n      tag_587\n      jumpi\n      invalid\n    tag_587:\n      0x20\n      swap1\n      dup2\n      mul\n      swap2\n      swap1\n      swap2\n      add\n      add\n        /* \"libraries/UniswapV2Library.sol\":4748:4787  amounts[amounts.length - 1] = amountOut */\n      mstore\n        /* \"libraries/UniswapV2Library.sol\":4812:4823  path.length */\n      dup2\n      mload\n      not(0x00)\n        /* \"libraries/UniswapV2Library.sol\":4812:4827  path.length - 1 */\n      add\n        /* \"libraries/UniswapV2Library.sol\":4798:5024  for (uint i = path.length - 1; i > 0; i--) {\r... */\n    tag_588:\n        /* \"libraries/UniswapV2Library.sol\":4829:4834  i > 0 */\n      dup1\n      iszero\n        /* \"libraries/UniswapV2Library.sol\":4798:5024  for (uint i = path.length - 1; i > 0; i--) {\r... */\n      tag_537\n      jumpi\n        /* \"libraries/UniswapV2Library.sol\":4857:4871  uint reserveIn */\n      0x00\n        /* \"libraries/UniswapV2Library.sol\":4873:4888  uint reserveOut */\n      dup1\n        /* \"libraries/UniswapV2Library.sol\":4892:4934  getReserves(factory, path[i - 1], path[i]) */\n      tag_591\n        /* \"libraries/UniswapV2Library.sol\":4904:4911  factory */\n      dup8\n        /* \"libraries/UniswapV2Library.sol\":4913:4917  path */\n      dup7\n        /* \"libraries/UniswapV2Library.sol\":4922:4923  1 */\n      0x01\n        /* \"libraries/UniswapV2Library.sol\":4918:4919  i */\n      dup7\n        /* \"libraries/UniswapV2Library.sol\":4918:4923  i - 1 */\n      sub\n        /* \"libraries/UniswapV2Library.sol\":4913:4924  path[i - 1] */\n      dup2\n      mload\n      dup2\n      lt\n      tag_592\n      jumpi\n      invalid\n    tag_592:\n      0x20\n      mul\n      0x20\n      add\n      add\n      mload\n        /* \"libraries/UniswapV2Library.sol\":4926:4930  path */\n      dup8\n        /* \"libraries/UniswapV2Library.sol\":4931:4932  i */\n      dup7\n        /* \"libraries/UniswapV2Library.sol\":4926:4933  path[i] */\n      dup2\n      mload\n      dup2\n      lt\n      tag_541\n      jumpi\n      invalid\n        /* \"libraries/UniswapV2Library.sol\":4892:4934  getReserves(factory, path[i - 1], path[i]) */\n    tag_591:\n        /* \"libraries/UniswapV2Library.sol\":4856:4934  (uint reserveIn, uint reserveOut) = getReserves(factory, path[i - 1], path[i]) */\n      swap2\n      pop\n      swap2\n      pop\n        /* \"libraries/UniswapV2Library.sol\":4966:5012  getAmountIn(amounts[i], reserveIn, reserveOut) */\n      tag_594\n        /* \"libraries/UniswapV2Library.sol\":4978:4985  amounts */\n      dup5\n        /* \"libraries/UniswapV2Library.sol\":4986:4987  i */\n      dup5\n        /* \"libraries/UniswapV2Library.sol\":4978:4988  amounts[i] */\n      dup2\n      mload\n      dup2\n      lt\n      tag_595\n      jumpi\n      invalid\n    tag_595:\n      0x20\n      mul\n      0x20\n      add\n      add\n      mload\n        /* \"libraries/UniswapV2Library.sol\":4990:4999  reserveIn */\n      dup4\n        /* \"libraries/UniswapV2Library.sol\":5001:5011  reserveOut */\n      dup4\n        /* \"libraries/UniswapV2Library.sol\":4966:4977  getAmountIn */\n      tag_350\n        /* \"libraries/UniswapV2Library.sol\":4966:5012  getAmountIn(amounts[i], reserveIn, reserveOut) */\n      jump\t// in\n    tag_594:\n        /* \"libraries/UniswapV2Library.sol\":4949:4956  amounts */\n      dup5\n        /* \"libraries/UniswapV2Library.sol\":4961:4962  1 */\n      0x01\n        /* \"libraries/UniswapV2Library.sol\":4957:4958  i */\n      dup6\n        /* \"libraries/UniswapV2Library.sol\":4957:4962  i - 1 */\n      sub\n        /* \"libraries/UniswapV2Library.sol\":4949:4963  amounts[i - 1] */\n      dup2\n      mload\n      dup2\n      lt\n      tag_596\n      jumpi\n      invalid\n    tag_596:\n      0x20\n      swap1\n      dup2\n      mul\n      swap2\n      swap1\n      swap2\n      add\n      add\n        /* \"libraries/UniswapV2Library.sol\":4949:5012  amounts[i - 1] = getAmountIn(amounts[i], reserveIn, reserveOut) */\n      mstore\n      pop\n      pop\n      not(0x00)\n        /* \"libraries/UniswapV2Library.sol\":4836:4839  i-- */\n      add\n        /* \"libraries/UniswapV2Library.sol\":4798:5024  for (uint i = path.length - 1; i > 0; i--) {\r... */\n      jump(tag_588)\n        /* \"UniswapV2Router02.sol\":14350:15599  function _swapSupportingFeeOnTransferTokens(address[] memory path, address _to) internal virtual {\r... */\n    tag_297:\n        /* \"UniswapV2Router02.sol\":14463:14469  uint i */\n      0x00\n        /* \"UniswapV2Router02.sol\":14458:15592  for (uint i; i < path.length - 1; i++) {\r... */\n    tag_598:\n        /* \"UniswapV2Router02.sol\":14489:14490  1 */\n      0x01\n        /* \"UniswapV2Router02.sol\":14475:14479  path */\n      dup4\n        /* \"UniswapV2Router02.sol\":14475:14486  path.length */\n      mload\n        /* \"UniswapV2Router02.sol\":14475:14490  path.length - 1 */\n      sub\n        /* \"UniswapV2Router02.sol\":14471:14472  i */\n      dup2\n        /* \"UniswapV2Router02.sol\":14471:14490  i < path.length - 1 */\n      lt\n        /* \"UniswapV2Router02.sol\":14458:15592  for (uint i; i < path.length - 1; i++) {\r... */\n      iszero\n      tag_515\n      jumpi\n        /* \"UniswapV2Router02.sol\":14513:14526  address input */\n      0x00\n        /* \"UniswapV2Router02.sol\":14528:14542  address output */\n      dup1\n        /* \"UniswapV2Router02.sol\":14547:14551  path */\n      dup5\n        /* \"UniswapV2Router02.sol\":14552:14553  i */\n      dup4\n        /* \"UniswapV2Router02.sol\":14547:14554  path[i] */\n      dup2\n      mload\n      dup2\n      lt\n      tag_601\n      jumpi\n      invalid\n    tag_601:\n      0x20\n      mul\n      0x20\n      add\n      add\n      mload\n        /* \"UniswapV2Router02.sol\":14556:14560  path */\n      dup6\n        /* \"UniswapV2Router02.sol\":14561:14562  i */\n      dup5\n        /* \"UniswapV2Router02.sol\":14565:14566  1 */\n      0x01\n        /* \"UniswapV2Router02.sol\":14561:14566  i + 1 */\n      add\n        /* \"UniswapV2Router02.sol\":14556:14567  path[i + 1] */\n      dup2\n      mload\n      dup2\n      lt\n      tag_602\n      jumpi\n      invalid\n    tag_602:\n      0x20\n      mul\n      0x20\n      add\n      add\n      mload\n        /* \"UniswapV2Router02.sol\":14512:14568  (address input, address output) = (path[i], path[i + 1]) */\n      swap2\n      pop\n      swap2\n      pop\n        /* \"UniswapV2Router02.sol\":14584:14598  address token0 */\n      0x00\n        /* \"UniswapV2Router02.sol\":14604:14646  UniswapV2Library.sortTokens(input, output) */\n      tag_603\n        /* \"UniswapV2Router02.sol\":14632:14637  input */\n      dup4\n        /* \"UniswapV2Router02.sol\":14639:14645  output */\n      dup4\n        /* \"UniswapV2Router02.sol\":14604:14631  UniswapV2Library.sortTokens */\n      tag_422\n        /* \"UniswapV2Router02.sol\":14604:14646  UniswapV2Library.sortTokens(input, output) */\n      jump\t// in\n    tag_603:\n        /* \"UniswapV2Router02.sol\":14583:14646  (address token0, ) = UniswapV2Library.sortTokens(input, output) */\n      pop\n      swap1\n      pop\n        /* \"UniswapV2Router02.sol\":14661:14680  IUniswapV2Pair pair */\n      0x00\n        /* \"UniswapV2Router02.sol\":14698:14746  UniswapV2Library.pairFor(factory, input, output) */\n      tag_604\n        /* \"UniswapV2Router02.sol\":14723:14730  factory */\n      immutable(\"0xb4bf3508f2fd7bb126e7af9e4fe31dbb3cdf386df5936668ea4d8292a4a1b188\")\n        /* \"UniswapV2Router02.sol\":14732:14737  input */\n      dup6\n        /* \"UniswapV2Router02.sol\":14739:14745  output */\n      dup6\n        /* \"UniswapV2Router02.sol\":14698:14722  UniswapV2Library.pairFor */\n      tag_218\n        /* \"UniswapV2Router02.sol\":14698:14746  UniswapV2Library.pairFor(factory, input, output) */\n      jump\t// in\n    tag_604:\n        /* \"UniswapV2Router02.sol\":14661:14747  IUniswapV2Pair pair = IUniswapV2Pair(UniswapV2Library.pairFor(factory, input, output)) */\n      swap1\n      pop\n        /* \"UniswapV2Router02.sol\":14762:14778  uint amountInput */\n      0x00\n        /* \"UniswapV2Router02.sol\":14793:14810  uint amountOutput */\n      dup1\n        /* \"UniswapV2Router02.sol\":14902:14915  uint reserve0 */\n      0x00\n        /* \"UniswapV2Router02.sol\":14917:14930  uint reserve1 */\n      dup1\n        /* \"UniswapV2Router02.sol\":14936:14940  pair */\n      dup5\n      sub(shl(0xa0, 0x01), 0x01)\n        /* \"UniswapV2Router02.sol\":14936:14952  pair.getReserves */\n      and\n      0x0902f1ac\n        /* \"UniswapV2Router02.sol\":14936:14954  pair.getReserves() */\n      mload(0x40)\n      dup2\n      0xffffffff\n      and\n      0xe0\n      shl\n      dup2\n      mstore\n      0x04\n      add\n      0x60\n      mload(0x40)\n      dup1\n      dup4\n      sub\n      dup2\n      dup7\n      dup1\n      extcodesize\n      iszero\n      dup1\n      iszero\n      tag_605\n      jumpi\n      0x00\n      dup1\n      revert\n    tag_605:\n      pop\n      gas\n      staticcall\n      iszero\n      dup1\n      iszero\n      tag_607\n      jumpi\n      returndatasize\n      0x00\n      dup1\n      returndatacopy\n      revert(0x00, returndatasize)\n    tag_607:\n      pop\n      pop\n      pop\n      pop\n      mload(0x40)\n      returndatasize\n      0x60\n      dup2\n      lt\n      iszero\n      tag_608\n      jumpi\n      0x00\n      dup1\n      revert\n    tag_608:\n      pop\n      dup1\n      mload\n      0x20\n      swap1\n      swap2\n      add\n      mload\n      sub(shl(0x70, 0x01), 0x01)\n        /* \"UniswapV2Router02.sol\":14901:14954  (uint reserve0, uint reserve1, ) = pair.getReserves() */\n      swap2\n      dup3\n      and\n      swap4\n      pop\n      and\n      swap1\n      pop\n        /* \"UniswapV2Router02.sol\":14974:14991  uint reserveInput */\n      0x00\n      dup1\n      sub(shl(0xa0, 0x01), 0x01)\n        /* \"UniswapV2Router02.sol\":15015:15030  input == token0 */\n      dup11\n      dup2\n      and\n      swap1\n      dup10\n      and\n      eq\n        /* \"UniswapV2Router02.sol\":15015:15076  input == token0 ? (reserve0, reserve1) : (reserve1, reserve0) */\n      tag_609\n      jumpi\n        /* \"UniswapV2Router02.sol\":15057:15065  reserve1 */\n      dup3\n        /* \"UniswapV2Router02.sol\":15067:15075  reserve0 */\n      dup5\n        /* \"UniswapV2Router02.sol\":15015:15076  input == token0 ? (reserve0, reserve1) : (reserve1, reserve0) */\n      jump(tag_610)\n    tag_609:\n        /* \"UniswapV2Router02.sol\":15034:15042  reserve0 */\n      dup4\n        /* \"UniswapV2Router02.sol\":15044:15052  reserve1 */\n      dup4\n        /* \"UniswapV2Router02.sol\":15015:15076  input == token0 ? (reserve0, reserve1) : (reserve1, reserve0) */\n    tag_610:\n        /* \"UniswapV2Router02.sol\":14973:15076  (uint reserveInput, uint reserveOutput) = input == token0 ? (reserve0, reserve1) : (reserve1, reserve0) */\n      swap2\n      pop\n      swap2\n      pop\n        /* \"UniswapV2Router02.sol\":15109:15165  IERC20(input).balanceOf(address(pair)).sub(reserveInput) */\n      tag_611\n        /* \"UniswapV2Router02.sol\":15152:15164  reserveInput */\n      dup3\n        /* \"UniswapV2Router02.sol\":15116:15121  input */\n      dup12\n      sub(shl(0xa0, 0x01), 0x01)\n        /* \"UniswapV2Router02.sol\":15109:15132  IERC20(input).balanceOf */\n      and\n      0x70a08231\n        /* \"UniswapV2Router02.sol\":15141:15145  pair */\n      dup11\n        /* \"UniswapV2Router02.sol\":15109:15147  IERC20(input).balanceOf(address(pair)) */\n      mload(0x40)\n      dup3\n      0xffffffff\n      and\n      0xe0\n      shl\n      dup2\n      mstore\n      0x04\n      add\n      dup1\n      dup3\n      sub(shl(0xa0, 0x01), 0x01)\n      and\n      dup2\n      mstore\n      0x20\n      add\n      swap2\n      pop\n      pop\n      0x20\n      mload(0x40)\n      dup1\n      dup4\n      sub\n      dup2\n      dup7\n      dup1\n      extcodesize\n      iszero\n      dup1\n      iszero\n      tag_300\n      jumpi\n      0x00\n      dup1\n      revert\n        /* \"UniswapV2Router02.sol\":15109:15165  IERC20(input).balanceOf(address(pair)).sub(reserveInput) */\n    tag_611:\n        /* \"UniswapV2Router02.sol\":15095:15165  amountInput = IERC20(input).balanceOf(address(pair)).sub(reserveInput) */\n      swap6\n      pop\n        /* \"UniswapV2Router02.sol\":15199:15270  UniswapV2Library.getAmountOut(amountInput, reserveInput, reserveOutput) */\n      tag_616\n        /* \"UniswapV2Router02.sol\":15229:15240  amountInput */\n      dup7\n        /* \"UniswapV2Router02.sol\":15242:15254  reserveInput */\n      dup4\n        /* \"UniswapV2Router02.sol\":15256:15269  reserveOutput */\n      dup4\n        /* \"UniswapV2Router02.sol\":15199:15228  UniswapV2Library.getAmountOut */\n      tag_203\n        /* \"UniswapV2Router02.sol\":15199:15270  UniswapV2Library.getAmountOut(amountInput, reserveInput, reserveOutput) */\n      jump\t// in\n    tag_616:\n        /* \"UniswapV2Router02.sol\":15184:15270  amountOutput = UniswapV2Library.getAmountOut(amountInput, reserveInput, reserveOutput) */\n      swap5\n      pop\n        /* \"UniswapV2Router02.sol\":14458:15592  for (uint i; i < path.length - 1; i++) {\r... */\n      pop\n      pop\n      pop\n      pop\n        /* \"UniswapV2Router02.sol\":15301:15316  uint amount0Out */\n      0x00\n        /* \"UniswapV2Router02.sol\":15318:15333  uint amount1Out */\n      dup1\n        /* \"UniswapV2Router02.sol\":15346:15352  token0 */\n      dup6\n      sub(shl(0xa0, 0x01), 0x01)\n        /* \"UniswapV2Router02.sol\":15337:15352  input == token0 */\n      and\n        /* \"UniswapV2Router02.sol\":15337:15342  input */\n      dup9\n      sub(shl(0xa0, 0x01), 0x01)\n        /* \"UniswapV2Router02.sol\":15337:15352  input == token0 */\n      and\n      eq\n        /* \"UniswapV2Router02.sol\":15337:15404  input == token0 ? (uint(0), amountOutput) : (amountOutput, uint(0)) */\n      tag_617\n      jumpi\n        /* \"UniswapV2Router02.sol\":15382:15394  amountOutput */\n      dup3\n        /* \"UniswapV2Router02.sol\":15401:15402  0 */\n      0x00\n        /* \"UniswapV2Router02.sol\":15337:15404  input == token0 ? (uint(0), amountOutput) : (amountOutput, uint(0)) */\n      jump(tag_618)\n    tag_617:\n        /* \"UniswapV2Router02.sol\":15361:15362  0 */\n      0x00\n        /* \"UniswapV2Router02.sol\":15365:15377  amountOutput */\n      dup4\n        /* \"UniswapV2Router02.sol\":15337:15404  input == token0 ? (uint(0), amountOutput) : (amountOutput, uint(0)) */\n    tag_618:\n        /* \"UniswapV2Router02.sol\":15300:15404  (uint amount0Out, uint amount1Out) = input == token0 ? (uint(0), amountOutput) : (amountOutput, uint(0)) */\n      swap2\n      pop\n      swap2\n      pop\n        /* \"UniswapV2Router02.sol\":15419:15429  address to */\n      0x00\n        /* \"UniswapV2Router02.sol\":15450:15451  2 */\n      0x02\n        /* \"UniswapV2Router02.sol\":15436:15440  path */\n      dup13\n        /* \"UniswapV2Router02.sol\":15436:15447  path.length */\n      mload\n        /* \"UniswapV2Router02.sol\":15436:15451  path.length - 2 */\n      sub\n        /* \"UniswapV2Router02.sol\":15432:15433  i */\n      dup11\n        /* \"UniswapV2Router02.sol\":15432:15451  i < path.length - 2 */\n      lt\n        /* \"UniswapV2Router02.sol\":15432:15514  i < path.length - 2 ? UniswapV2Library.pairFor(factory, output, path[i + 2]) : _to */\n      tag_619\n      jumpi\n        /* \"UniswapV2Router02.sol\":15511:15514  _to */\n      dup11\n        /* \"UniswapV2Router02.sol\":15432:15514  i < path.length - 2 ? UniswapV2Library.pairFor(factory, output, path[i + 2]) : _to */\n      jump(tag_621)\n    tag_619:\n        /* \"UniswapV2Router02.sol\":15454:15508  UniswapV2Library.pairFor(factory, output, path[i + 2]) */\n      tag_621\n        /* \"UniswapV2Router02.sol\":15479:15486  factory */\n      immutable(\"0xb4bf3508f2fd7bb126e7af9e4fe31dbb3cdf386df5936668ea4d8292a4a1b188\")\n        /* \"UniswapV2Router02.sol\":15488:15494  output */\n      dup10\n        /* \"UniswapV2Router02.sol\":15496:15500  path */\n      dup15\n        /* \"UniswapV2Router02.sol\":15501:15502  i */\n      dup14\n        /* \"UniswapV2Router02.sol\":15505:15506  2 */\n      0x02\n        /* \"UniswapV2Router02.sol\":15501:15506  i + 2 */\n      add\n        /* \"UniswapV2Router02.sol\":15496:15507  path[i + 2] */\n      dup2\n      mload\n      dup2\n      lt\n      tag_572\n      jumpi\n      invalid\n        /* \"UniswapV2Router02.sol\":15454:15508  UniswapV2Library.pairFor(factory, output, path[i + 2]) */\n    tag_621:\n        /* \"UniswapV2Router02.sol\":15567:15579  new bytes(0) */\n      0x40\n      dup1\n      mload\n        /* \"UniswapV2Router02.sol\":15577:15578  0 */\n      0x00\n        /* \"UniswapV2Router02.sol\":15567:15579  new bytes(0) */\n      dup1\n      dup3\n      mstore\n      0x20\n      dup3\n      add\n      swap3\n      dup4\n      swap1\n      mstore\n      shl(0xe0, 0x022c0d9f)\n        /* \"UniswapV2Router02.sol\":15529:15580  pair.swap(amount0Out, amount1Out, to, new bytes(0)) */\n      dup4\n      mstore\n      0x24\n      dup3\n      add\n      dup8\n      dup2\n      mstore\n      0x44\n      dup4\n      add\n      dup8\n      swap1\n      mstore\n      sub(shl(0xa0, 0x01), 0x01)\n      dup1\n      dup7\n      and\n      0x64\n      dup6\n      add\n      mstore\n      0x80\n      0x84\n      dup6\n      add\n      swap1\n      dup2\n      mstore\n      dup5\n      mload\n      0xa4\n      dup7\n      add\n      dup2\n      swap1\n      mstore\n        /* \"UniswapV2Router02.sol\":15419:15514  address to = i < path.length - 2 ? UniswapV2Library.pairFor(factory, output, path[i + 2]) : _to */\n      swap7\n      swap8\n      pop\n        /* \"UniswapV2Router02.sol\":15529:15538  pair.swap */\n      swap1\n      dup13\n      and\n      swap6\n      0x022c0d9f\n      swap6\n        /* \"UniswapV2Router02.sol\":15539:15549  amount0Out */\n      dup11\n      swap6\n        /* \"UniswapV2Router02.sol\":15551:15561  amount1Out */\n      dup11\n      swap6\n        /* \"UniswapV2Router02.sol\":15419:15514  address to = i < path.length - 2 ? UniswapV2Library.pairFor(factory, output, path[i + 2]) : _to */\n      dup11\n      swap6\n        /* \"UniswapV2Router02.sol\":15567:15579  new bytes(0) */\n      swap2\n      swap5\n        /* \"UniswapV2Router02.sol\":15529:15580  pair.swap(amount0Out, amount1Out, to, new bytes(0)) */\n      swap2\n      swap4\n      swap2\n      swap3\n      0xc4\n      dup7\n      add\n      swap3\n        /* \"UniswapV2Router02.sol\":15567:15579  new bytes(0) */\n      swap1\n      swap2\n        /* \"UniswapV2Router02.sol\":15529:15580  pair.swap(amount0Out, amount1Out, to, new bytes(0)) */\n      dup2\n      swap1\n      dup5\n      swap1\n        /* \"UniswapV2Router02.sol\":15567:15579  new bytes(0) */\n      dup5\n      swap1\n        /* \"UniswapV2Router02.sol\":15529:15580  pair.swap(amount0Out, amount1Out, to, new bytes(0)) */\n    tag_625:\n      dup4\n      dup2\n      lt\n      iszero\n      tag_627\n      jumpi\n      dup2\n      dup2\n      add\n      mload\n      dup4\n      dup3\n      add\n      mstore\n      0x20\n      add\n      jump(tag_625)\n    tag_627:\n      pop\n      pop\n      pop\n      pop\n      swap1\n      pop\n      swap1\n      dup2\n      add\n      swap1\n      0x1f\n      and\n      dup1\n      iszero\n      tag_628\n      jumpi\n      dup1\n      dup3\n      sub\n      dup1\n      mload\n      0x01\n      dup4\n      0x20\n      sub\n      0x0100\n      exp\n      sub\n      not\n      and\n      dup2\n      mstore\n      0x20\n      add\n      swap2\n      pop\n    tag_628:\n      pop\n      swap6\n      pop\n      pop\n      pop\n      pop\n      pop\n      pop\n      0x00\n      mload(0x40)\n      dup1\n      dup4\n      sub\n      dup2\n      0x00\n      dup8\n      dup1\n      extcodesize\n      iszero\n      dup1\n      iszero\n      tag_629\n      jumpi\n      0x00\n      dup1\n      revert\n    tag_629:\n      pop\n      gas\n      call\n      iszero\n      dup1\n      iszero\n      tag_631\n      jumpi\n      returndatasize\n      0x00\n      dup1\n      returndatacopy\n      revert(0x00, returndatasize)\n    tag_631:\n      pop\n      pop\n        /* \"UniswapV2Router02.sol\":14492:14495  i++ */\n      0x01\n      swap1\n      swap12\n      add\n      swap11\n      pop\n        /* \"UniswapV2Router02.sol\":14458:15592  for (uint i; i < path.length - 1; i++) {\r... */\n      tag_598\n      swap10\n      pop\n      pop\n      pop\n      pop\n      pop\n      pop\n      pop\n      pop\n      pop\n      pop\n      jump\n        /* \"libraries/SafeMath.sol\":333:462  function sub(uint x, uint y) internal pure returns (uint z) {\r... */\n    tag_304:\n        /* \"libraries/SafeMath.sol\":417:422  x - y */\n      dup1\n      dup3\n      sub\n        /* \"libraries/SafeMath.sol\":412:428  (z = x - y) <= x */\n      dup3\n      dup2\n      gt\n      iszero\n        /* \"libraries/SafeMath.sol\":404:454  require((z = x - y) <= x, 'ds-math-sub-underflow') */\n      tag_229\n      jumpi\n      0x40\n      dup1\n      mload\n      shl(0xe5, 0x461bcd)\n      dup2\n      mstore\n      0x20\n      0x04\n      dup3\n      add\n      mstore\n      0x15\n      0x24\n      dup3\n      add\n      mstore\n      shl(0x58, 0x64732d6d6174682d7375622d756e646572666c6f77)\n      0x44\n      dup3\n      add\n      mstore\n      swap1\n      mload\n      swap1\n      dup2\n      swap1\n      sub\n      0x64\n      add\n      swap1\n      revert\n        /* \"libraries/UniswapV2Library.sol\":3206:3757  function getAmountIn(uint amountOut, uint reserveIn, uint reserveOut) internal view returns (uint amountIn) {\r... */\n    tag_350:\n        /* \"libraries/UniswapV2Library.sol\":3299:3312  uint amountIn */\n      0x00\n        /* \"libraries/UniswapV2Library.sol\":3345:3346  0 */\n      dup1\n        /* \"libraries/UniswapV2Library.sol\":3333:3342  amountOut */\n      dup5\n        /* \"libraries/UniswapV2Library.sol\":3333:3346  amountOut > 0 */\n      gt\n        /* \"libraries/UniswapV2Library.sol\":3325:3395  require(amountOut > 0, 'UniswapV2Library: INSUFFICIENT_OUTPUT_AMOUNT') */\n      tag_635\n      jumpi\n      mload(0x40)\n      shl(0xe5, 0x461bcd)\n      dup2\n      mstore\n      0x04\n      add\n      dup1\n      dup1\n      0x20\n      add\n      dup3\n      dup2\n      sub\n      dup3\n      mstore\n      0x2c\n      dup2\n      mstore\n      0x20\n      add\n      dup1\n      data_35fb781059090c30aacad20e29b2e40e67f217617fc46f86031ed4eb14923a82\n      0x2c\n      swap2\n      codecopy\n      0x40\n      add\n      swap2\n      pop\n      pop\n      mload(0x40)\n      dup1\n      swap2\n      sub\n      swap1\n      revert\n    tag_635:\n        /* \"libraries/UniswapV2Library.sol\":3426:3427  0 */\n      0x00\n        /* \"libraries/UniswapV2Library.sol\":3414:3423  reserveIn */\n      dup4\n        /* \"libraries/UniswapV2Library.sol\":3414:3427  reserveIn > 0 */\n      gt\n        /* \"libraries/UniswapV2Library.sol\":3414:3445  reserveIn > 0 && reserveOut > 0 */\n      dup1\n      iszero\n      tag_636\n      jumpi\n      pop\n        /* \"libraries/UniswapV2Library.sol\":3444:3445  0 */\n      0x00\n        /* \"libraries/UniswapV2Library.sol\":3431:3441  reserveOut */\n      dup3\n        /* \"libraries/UniswapV2Library.sol\":3431:3445  reserveOut > 0 */\n      gt\n        /* \"libraries/UniswapV2Library.sol\":3414:3445  reserveIn > 0 && reserveOut > 0 */\n    tag_636:\n        /* \"libraries/UniswapV2Library.sol\":3406:3490  require(reserveIn > 0 && reserveOut > 0, 'UniswapV2Library: INSUFFICIENT_LIQUIDITY') */\n      tag_637\n      jumpi\n      mload(0x40)\n      shl(0xe5, 0x461bcd)\n      dup2\n      mstore\n      0x04\n      add\n      dup1\n      dup1\n      0x20\n      add\n      dup3\n      dup2\n      sub\n      dup3\n      mstore\n      0x28\n      dup2\n      mstore\n      0x20\n      add\n      dup1\n      data_7e8d6b265173dbbd87b3b9e2bf4238bea6caf2b2bbeb63f859a738aec9e761c8\n      0x28\n      swap2\n      codecopy\n      0x40\n      add\n      swap2\n      pop\n      pop\n      mload(0x40)\n      dup1\n      swap2\n      sub\n      swap1\n      revert\n    tag_637:\n        /* \"libraries/UniswapV2Library.sol\":3501:3513  uint256 fees */\n      0x00\n        /* \"libraries/UniswapV2Library.sol\":3535:3545  msg.sender */\n      caller\n      sub(shl(0xa0, 0x01), 0x01)\n        /* \"libraries/UniswapV2Library.sol\":3516:3555  IUniswapV2Router02(msg.sender).adminFee */\n      and\n      0xa0be06f9\n        /* \"libraries/UniswapV2Library.sol\":3516:3557  IUniswapV2Router02(msg.sender).adminFee() */\n      mload(0x40)\n      dup2\n      0xffffffff\n      and\n      0xe0\n      shl\n      dup2\n      mstore\n      0x04\n      add\n      0x20\n      mload(0x40)\n      dup1\n      dup4\n      sub\n      dup2\n      dup7\n      dup1\n      extcodesize\n      iszero\n      dup1\n      iszero\n      tag_638\n      jumpi\n      0x00\n      dup1\n      revert\n    tag_638:\n      pop\n      gas\n      staticcall\n      iszero\n      dup1\n      iszero\n      tag_640\n      jumpi\n      returndatasize\n      0x00\n      dup1\n      returndatacopy\n      revert(0x00, returndatasize)\n    tag_640:\n      pop\n      pop\n      pop\n      pop\n      mload(0x40)\n      returndatasize\n      0x20\n      dup2\n      lt\n      iszero\n      tag_641\n      jumpi\n      0x00\n      dup1\n      revert\n    tag_641:\n      pop\n      mload\n      swap1\n      pop\n        /* \"libraries/UniswapV2Library.sol\":3568:3582  uint numerator */\n      0x00\n        /* \"libraries/UniswapV2Library.sol\":3585:3619  reserveIn.mul(amountOut).mul(1000) */\n      tag_642\n        /* \"libraries/UniswapV2Library.sol\":3614:3618  1000 */\n      0x03e8\n        /* \"libraries/UniswapV2Library.sol\":3585:3609  reserveIn.mul(amountOut) */\n      tag_643\n        /* \"libraries/UniswapV2Library.sol\":3585:3594  reserveIn */\n      dup8\n        /* \"libraries/UniswapV2Library.sol\":3599:3608  amountOut */\n      dup10\n        /* \"libraries/UniswapV2Library.sol\":3585:3598  reserveIn.mul */\n      tag_525\n        /* \"libraries/UniswapV2Library.sol\":3585:3609  reserveIn.mul(amountOut) */\n      jump\t// in\n    tag_643:\n        /* \"libraries/UniswapV2Library.sol\":3585:3613  reserveIn.mul(amountOut).mul */\n      swap1\n      tag_525\n        /* \"libraries/UniswapV2Library.sol\":3585:3619  reserveIn.mul(amountOut).mul(1000) */\n      jump\t// in\n    tag_642:\n        /* \"libraries/UniswapV2Library.sol\":3568:3619  uint numerator = reserveIn.mul(amountOut).mul(1000) */\n      swap1\n      pop\n        /* \"libraries/UniswapV2Library.sol\":3630:3646  uint denominator */\n      0x00\n        /* \"libraries/UniswapV2Library.sol\":3649:3684  reserveOut.sub(amountOut).mul(fees) */\n      tag_644\n        /* \"libraries/UniswapV2Library.sol\":3679:3683  fees */\n      dup4\n        /* \"libraries/UniswapV2Library.sol\":3649:3674  reserveOut.sub(amountOut) */\n      tag_643\n        /* \"libraries/UniswapV2Library.sol\":3649:3659  reserveOut */\n      dup8\n        /* \"libraries/UniswapV2Library.sol\":3664:3673  amountOut */\n      dup11\n        /* \"libraries/UniswapV2Library.sol\":3649:3663  reserveOut.sub */\n      tag_304\n        /* \"libraries/UniswapV2Library.sol\":3649:3674  reserveOut.sub(amountOut) */\n      jump\t// in\n        /* \"libraries/UniswapV2Library.sol\":3649:3684  reserveOut.sub(amountOut).mul(fees) */\n    tag_644:\n        /* \"libraries/UniswapV2Library.sol\":3630:3684  uint denominator = reserveOut.sub(amountOut).mul(fees) */\n      swap1\n      pop\n        /* \"libraries/UniswapV2Library.sol\":3717:3749  (numerator / denominator).add(1) */\n      tag_646\n        /* \"libraries/UniswapV2Library.sol\":3747:3748  1 */\n      0x01\n        /* \"libraries/UniswapV2Library.sol\":3730:3741  denominator */\n      dup3\n        /* \"libraries/UniswapV2Library.sol\":3718:3727  numerator */\n      dup5\n        /* \"libraries/UniswapV2Library.sol\":3718:3741  numerator / denominator */\n      dup2\n      tag_647\n      jumpi\n      invalid\n    tag_647:\n      div\n      swap1\n        /* \"libraries/UniswapV2Library.sol\":3717:3746  (numerator / denominator).add */\n      tag_529\n        /* \"libraries/UniswapV2Library.sol\":3717:3749  (numerator / denominator).add(1) */\n      jump\t// in\n    tag_646:\n        /* \"libraries/UniswapV2Library.sol\":3706:3749  amountIn = (numerator / denominator).add(1) */\n      swap8\n        /* \"libraries/UniswapV2Library.sol\":3206:3757  function getAmountIn(uint amountOut, uint reserveIn, uint reserveOut) internal view returns (uint amountIn) {\r... */\n      swap7\n      pop\n      pop\n      pop\n      pop\n      pop\n      pop\n      pop\n      jump\t// out\n        /* \"libraries/UniswapV2Library.sol\":2046:2367  function quote(uint amountA, uint reserveA, uint reserveB) internal pure returns (uint amountB) {\r... */\n    tag_366:\n        /* \"libraries/UniswapV2Library.sol\":2128:2140  uint amountB */\n      0x00\n        /* \"libraries/UniswapV2Library.sol\":2171:2172  0 */\n      dup1\n        /* \"libraries/UniswapV2Library.sol\":2161:2168  amountA */\n      dup5\n        /* \"libraries/UniswapV2Library.sol\":2161:2172  amountA > 0 */\n      gt\n        /* \"libraries/UniswapV2Library.sol\":2153:2214  require(amountA > 0, 'UniswapV2Library: INSUFFICIENT_AMOUNT') */\n      tag_649\n      jumpi\n      mload(0x40)\n      shl(0xe5, 0x461bcd)\n      dup2\n      mstore\n      0x04\n      add\n      dup1\n      dup1\n      0x20\n      add\n      dup3\n      dup2\n      sub\n      dup3\n      mstore\n      0x25\n      dup2\n      mstore\n      0x20\n      add\n      dup1\n      data_b3ea0cd729028efbc737ad3cde1d4d854e6f2c136b354fbaea9389d68bc3a146\n      0x25\n      swap2\n      codecopy\n      0x40\n      add\n      swap2\n      pop\n      pop\n      mload(0x40)\n      dup1\n      swap2\n      sub\n      swap1\n      revert\n    tag_649:\n        /* \"libraries/UniswapV2Library.sol\":2244:2245  0 */\n      0x00\n        /* \"libraries/UniswapV2Library.sol\":2233:2241  reserveA */\n      dup4\n        /* \"libraries/UniswapV2Library.sol\":2233:2245  reserveA > 0 */\n      gt\n        /* \"libraries/UniswapV2Library.sol\":2233:2261  reserveA > 0 && reserveB > 0 */\n      dup1\n      iszero\n      tag_650\n      jumpi\n      pop\n        /* \"libraries/UniswapV2Library.sol\":2260:2261  0 */\n      0x00\n        /* \"libraries/UniswapV2Library.sol\":2249:2257  reserveB */\n      dup3\n        /* \"libraries/UniswapV2Library.sol\":2249:2261  reserveB > 0 */\n      gt\n        /* \"libraries/UniswapV2Library.sol\":2233:2261  reserveA > 0 && reserveB > 0 */\n    tag_650:\n        /* \"libraries/UniswapV2Library.sol\":2225:2306  require(reserveA > 0 && reserveB > 0, 'UniswapV2Library: INSUFFICIENT_LIQUIDITY') */\n      tag_651\n      jumpi\n      mload(0x40)\n      shl(0xe5, 0x461bcd)\n      dup2\n      mstore\n      0x04\n      add\n      dup1\n      dup1\n      0x20\n      add\n      dup3\n      dup2\n      sub\n      dup3\n      mstore\n      0x28\n      dup2\n      mstore\n      0x20\n      add\n      dup1\n      data_7e8d6b265173dbbd87b3b9e2bf4238bea6caf2b2bbeb63f859a738aec9e761c8\n      0x28\n      swap2\n      codecopy\n      0x40\n      add\n      swap2\n      pop\n      pop\n      mload(0x40)\n      dup1\n      swap2\n      sub\n      swap1\n      revert\n    tag_651:\n        /* \"libraries/UniswapV2Library.sol\":2351:2359  reserveA */\n      dup3\n        /* \"libraries/UniswapV2Library.sol\":2327:2348  amountA.mul(reserveB) */\n      tag_652\n        /* \"libraries/UniswapV2Library.sol\":2327:2334  amountA */\n      dup6\n        /* \"libraries/UniswapV2Library.sol\":2339:2347  reserveB */\n      dup5\n        /* \"libraries/UniswapV2Library.sol\":2327:2338  amountA.mul */\n      tag_525\n        /* \"libraries/UniswapV2Library.sol\":2327:2348  amountA.mul(reserveB) */\n      jump\t// in\n    tag_652:\n        /* \"libraries/UniswapV2Library.sol\":2327:2359  amountA.mul(reserveB) / reserveA */\n      dup2\n      tag_653\n      jumpi\n      invalid\n    tag_653:\n      div\n      swap5\n        /* \"libraries/UniswapV2Library.sol\":2046:2367  function quote(uint amountA, uint reserveA, uint reserveB) internal pure returns (uint amountB) {\r... */\n      swap4\n      pop\n      pop\n      pop\n      pop\n      jump\t// out\n        /* \"libraries/UniswapV2Library.sol\":372:721  function sortTokens(address tokenA, address tokenB) internal pure returns (address token0, address token1) {\r... */\n    tag_422:\n        /* \"libraries/UniswapV2Library.sol\":447:461  address token0 */\n      0x00\n        /* \"libraries/UniswapV2Library.sol\":463:477  address token1 */\n      dup1\n        /* \"libraries/UniswapV2Library.sol\":508:514  tokenB */\n      dup3\n      sub(shl(0xa0, 0x01), 0x01)\n        /* \"libraries/UniswapV2Library.sol\":498:514  tokenA != tokenB */\n      and\n        /* \"libraries/UniswapV2Library.sol\":498:504  tokenA */\n      dup5\n      sub(shl(0xa0, 0x01), 0x01)\n        /* \"libraries/UniswapV2Library.sol\":498:514  tokenA != tokenB */\n      and\n      eq\n      iszero\n        /* \"libraries/UniswapV2Library.sol\":490:556  require(tokenA != tokenB, 'UniswapV2Library: IDENTICAL_ADDRESSES') */\n      tag_655\n      jumpi\n      mload(0x40)\n      shl(0xe5, 0x461bcd)\n      dup2\n      mstore\n      0x04\n      add\n      dup1\n      dup1\n      0x20\n      add\n      dup3\n      dup2\n      sub\n      dup3\n      mstore\n      0x25\n      dup2\n      mstore\n      0x20\n      add\n      dup1\n      data_4ddc3ca35a8b7ccaa016ab70252fdf3396ded4f4fd8375f95b1e9d99790fcdca\n      0x25\n      swap2\n      codecopy\n      0x40\n      add\n      swap2\n      pop\n      pop\n      mload(0x40)\n      dup1\n      swap2\n      sub\n      swap1\n      revert\n    tag_655:\n        /* \"libraries/UniswapV2Library.sol\":595:601  tokenB */\n      dup3\n      sub(shl(0xa0, 0x01), 0x01)\n        /* \"libraries/UniswapV2Library.sol\":586:601  tokenA < tokenB */\n      and\n        /* \"libraries/UniswapV2Library.sol\":586:592  tokenA */\n      dup5\n      sub(shl(0xa0, 0x01), 0x01)\n        /* \"libraries/UniswapV2Library.sol\":586:601  tokenA < tokenB */\n      and\n      lt\n        /* \"libraries/UniswapV2Library.sol\":586:639  tokenA < tokenB ? (tokenA, tokenB) : (tokenB, tokenA) */\n      tag_656\n      jumpi\n        /* \"libraries/UniswapV2Library.sol\":624:630  tokenB */\n      dup3\n        /* \"libraries/UniswapV2Library.sol\":632:638  tokenA */\n      dup5\n        /* \"libraries/UniswapV2Library.sol\":586:639  tokenA < tokenB ? (tokenA, tokenB) : (tokenB, tokenA) */\n      jump(tag_657)\n    tag_656:\n        /* \"libraries/UniswapV2Library.sol\":605:611  tokenA */\n      dup4\n        /* \"libraries/UniswapV2Library.sol\":613:619  tokenB */\n      dup4\n        /* \"libraries/UniswapV2Library.sol\":586:639  tokenA < tokenB ? (tokenA, tokenB) : (tokenB, tokenA) */\n    tag_657:\n        /* \"libraries/UniswapV2Library.sol\":567:639  (token0, token1) = tokenA < tokenB ? (tokenA, tokenB) : (tokenB, tokenA) */\n      swap1\n      swap3\n      pop\n      swap1\n      pop\n      sub(shl(0xa0, 0x01), 0x01)\n        /* \"libraries/UniswapV2Library.sol\":658:678  token0 != address(0) */\n      dup3\n      and\n        /* \"libraries/UniswapV2Library.sol\":650:713  require(token0 != address(0), 'UniswapV2Library: ZERO_ADDRESS') */\n      tag_658\n      jumpi\n      0x40\n      dup1\n      mload\n      shl(0xe5, 0x461bcd)\n      dup2\n      mstore\n      0x20\n      0x04\n      dup3\n      add\n      mstore\n      0x1e\n      0x24\n      dup3\n      add\n      mstore\n      0x556e697377617056324c6962726172793a205a45524f5f414444524553530000\n      0x44\n      dup3\n      add\n      mstore\n      swap1\n      mload\n      swap1\n      dup2\n      swap1\n      sub\n      0x64\n      add\n      swap1\n      revert\n    tag_658:\n        /* \"libraries/UniswapV2Library.sol\":372:721  function sortTokens(address tokenA, address tokenB) internal pure returns (address token0, address token1) {\r... */\n      swap3\n      pop\n      swap3\n      swap1\n      pop\n      jump\t// out\n        /* \"UniswapV2Router02.sol\":1091:2481  function _addLiquidity(\r... */\n    tag_441:\n        /* \"UniswapV2Router02.sol\":1309:1321  uint amountA */\n      0x00\n        /* \"UniswapV2Router02.sol\":1323:1335  uint amountB */\n      dup1\n        /* \"UniswapV2Router02.sol\":1466:1467  0 */\n      0x00\n      sub(shl(0xa0, 0x01), 0x01)\n        /* \"UniswapV2Router02.sol\":1404:1468  IUniswapV2Factory(factory).getPair(tokenA, tokenB) == address(0) */\n      and\n        /* \"UniswapV2Router02.sol\":1422:1429  factory */\n      immutable(\"0xb4bf3508f2fd7bb126e7af9e4fe31dbb3cdf386df5936668ea4d8292a4a1b188\")\n      sub(shl(0xa0, 0x01), 0x01)\n        /* \"UniswapV2Router02.sol\":1404:1438  IUniswapV2Factory(factory).getPair */\n      and\n      0xe6a43905\n        /* \"UniswapV2Router02.sol\":1439:1445  tokenA */\n      dup11\n        /* \"UniswapV2Router02.sol\":1447:1453  tokenB */\n      dup11\n        /* \"UniswapV2Router02.sol\":1404:1454  IUniswapV2Factory(factory).getPair(tokenA, tokenB) */\n      mload(0x40)\n      dup4\n      0xffffffff\n      and\n      0xe0\n      shl\n      dup2\n      mstore\n      0x04\n      add\n      dup1\n      dup4\n      sub(shl(0xa0, 0x01), 0x01)\n      and\n      dup2\n      mstore\n      0x20\n      add\n      dup3\n      sub(shl(0xa0, 0x01), 0x01)\n      and\n      dup2\n      mstore\n      0x20\n      add\n      swap3\n      pop\n      pop\n      pop\n      0x20\n      mload(0x40)\n      dup1\n      dup4\n      sub\n      dup2\n      dup7\n      dup1\n      extcodesize\n      iszero\n      dup1\n      iszero\n      tag_660\n      jumpi\n      0x00\n      dup1\n      revert\n    tag_660:\n      pop\n      gas\n      staticcall\n      iszero\n      dup1\n      iszero\n      tag_662\n      jumpi\n      returndatasize\n      0x00\n      dup1\n      returndatacopy\n      revert(0x00, returndatasize)\n    tag_662:\n      pop\n      pop\n      pop\n      pop\n      mload(0x40)\n      returndatasize\n      0x20\n      dup2\n      lt\n      iszero\n      tag_663\n      jumpi\n      0x00\n      dup1\n      revert\n    tag_663:\n      pop\n      mload\n      sub(shl(0xa0, 0x01), 0x01)\n        /* \"UniswapV2Router02.sol\":1404:1468  IUniswapV2Factory(factory).getPair(tokenA, tokenB) == address(0) */\n      and\n      eq\n        /* \"UniswapV2Router02.sol\":1400:1550  if (IUniswapV2Factory(factory).getPair(tokenA, tokenB) == address(0)) {\r... */\n      iszero\n      tag_664\n      jumpi\n        /* \"UniswapV2Router02.sol\":1503:1510  factory */\n      immutable(\"0xb4bf3508f2fd7bb126e7af9e4fe31dbb3cdf386df5936668ea4d8292a4a1b188\")\n      sub(shl(0xa0, 0x01), 0x01)\n        /* \"UniswapV2Router02.sol\":1485:1522  IUniswapV2Factory(factory).createPair */\n      and\n      0xc9c65396\n        /* \"UniswapV2Router02.sol\":1523:1529  tokenA */\n      dup10\n        /* \"UniswapV2Router02.sol\":1531:1537  tokenB */\n      dup10\n        /* \"UniswapV2Router02.sol\":1485:1538  IUniswapV2Factory(factory).createPair(tokenA, tokenB) */\n      mload(0x40)\n      dup4\n      0xffffffff\n      and\n      0xe0\n      shl\n      dup2\n      mstore\n      0x04\n      add\n      dup1\n      dup4\n      sub(shl(0xa0, 0x01), 0x01)\n      and\n      dup2\n      mstore\n      0x20\n      add\n      dup3\n      sub(shl(0xa0, 0x01), 0x01)\n      and\n      dup2\n      mstore\n      0x20\n      add\n      swap3\n      pop\n      pop\n      pop\n      0x20\n      mload(0x40)\n      dup1\n      dup4\n      sub\n      dup2\n      0x00\n      dup8\n      dup1\n      extcodesize\n      iszero\n      dup1\n      iszero\n      tag_665\n      jumpi\n      0x00\n      dup1\n      revert\n    tag_665:\n      pop\n      gas\n      call\n      iszero\n      dup1\n      iszero\n      tag_667\n      jumpi\n      returndatasize\n      0x00\n      dup1\n      returndatacopy\n      revert(0x00, returndatasize)\n    tag_667:\n      pop\n      pop\n      pop\n      pop\n      mload(0x40)\n      returndatasize\n      0x20\n      dup2\n      lt\n      iszero\n      tag_668\n      jumpi\n      0x00\n      dup1\n      revert\n    tag_668:\n      pop\n      pop\n        /* \"UniswapV2Router02.sol\":1400:1550  if (IUniswapV2Factory(factory).getPair(tokenA, tokenB) == address(0)) {\r... */\n    tag_664:\n        /* \"UniswapV2Router02.sol\":1561:1574  uint reserveA */\n      0x00\n        /* \"UniswapV2Router02.sol\":1576:1589  uint reserveB */\n      dup1\n        /* \"UniswapV2Router02.sol\":1593:1646  UniswapV2Library.getReserves(factory, tokenA, tokenB) */\n      tag_669\n        /* \"UniswapV2Router02.sol\":1622:1629  factory */\n      immutable(\"0xb4bf3508f2fd7bb126e7af9e4fe31dbb3cdf386df5936668ea4d8292a4a1b188\")\n        /* \"UniswapV2Router02.sol\":1631:1637  tokenA */\n      dup12\n        /* \"UniswapV2Router02.sol\":1639:1645  tokenB */\n      dup12\n        /* \"UniswapV2Router02.sol\":1593:1621  UniswapV2Library.getReserves */\n      tag_542\n        /* \"UniswapV2Router02.sol\":1593:1646  UniswapV2Library.getReserves(factory, tokenA, tokenB) */\n      jump\t// in\n    tag_669:\n        /* \"UniswapV2Router02.sol\":1560:1646  (uint reserveA, uint reserveB) = UniswapV2Library.getReserves(factory, tokenA, tokenB) */\n      swap2\n      pop\n      swap2\n      pop\n        /* \"UniswapV2Router02.sol\":1661:1669  reserveA */\n      dup2\n        /* \"UniswapV2Router02.sol\":1673:1674  0 */\n      0x00\n        /* \"UniswapV2Router02.sol\":1661:1674  reserveA == 0 */\n      eq\n        /* \"UniswapV2Router02.sol\":1661:1691  reserveA == 0 && reserveB == 0 */\n      dup1\n      iszero\n      tag_670\n      jumpi\n      pop\n        /* \"UniswapV2Router02.sol\":1678:1691  reserveB == 0 */\n      dup1\n      iszero\n        /* \"UniswapV2Router02.sol\":1661:1691  reserveA == 0 && reserveB == 0 */\n    tag_670:\n        /* \"UniswapV2Router02.sol\":1657:2474  if (reserveA == 0 && reserveB == 0) {\r... */\n      iszero\n      tag_671\n      jumpi\n        /* \"UniswapV2Router02.sol\":1730:1744  amountADesired */\n      dup8\n      swap4\n      pop\n        /* \"UniswapV2Router02.sol\":1746:1760  amountBDesired */\n      dup7\n      swap3\n      pop\n        /* \"UniswapV2Router02.sol\":1657:2474  if (reserveA == 0 && reserveB == 0) {\r... */\n      jump(tag_672)\n    tag_671:\n        /* \"UniswapV2Router02.sol\":1794:1813  uint amountBOptimal */\n      0x00\n        /* \"UniswapV2Router02.sol\":1816:1874  UniswapV2Library.quote(amountADesired, reserveA, reserveB) */\n      tag_673\n        /* \"UniswapV2Router02.sol\":1839:1853  amountADesired */\n      dup10\n        /* \"UniswapV2Router02.sol\":1855:1863  reserveA */\n      dup5\n        /* \"UniswapV2Router02.sol\":1865:1873  reserveB */\n      dup5\n        /* \"UniswapV2Router02.sol\":1816:1838  UniswapV2Library.quote */\n      tag_366\n        /* \"UniswapV2Router02.sol\":1816:1874  UniswapV2Library.quote(amountADesired, reserveA, reserveB) */\n      jump\t// in\n    tag_673:\n        /* \"UniswapV2Router02.sol\":1794:1874  uint amountBOptimal = UniswapV2Library.quote(amountADesired, reserveA, reserveB) */\n      swap1\n      pop\n        /* \"UniswapV2Router02.sol\":1911:1925  amountBDesired */\n      dup8\n        /* \"UniswapV2Router02.sol\":1893:1907  amountBOptimal */\n      dup2\n        /* \"UniswapV2Router02.sol\":1893:1925  amountBOptimal <= amountBDesired */\n      gt\n        /* \"UniswapV2Router02.sol\":1889:2463  if (amountBOptimal <= amountBDesired) {\r... */\n      tag_674\n      jumpi\n        /* \"UniswapV2Router02.sol\":1972:1982  amountBMin */\n      dup6\n        /* \"UniswapV2Router02.sol\":1954:1968  amountBOptimal */\n      dup2\n        /* \"UniswapV2Router02.sol\":1954:1982  amountBOptimal >= amountBMin */\n      lt\n      iszero\n        /* \"UniswapV2Router02.sol\":1946:2025  require(amountBOptimal >= amountBMin, 'UniswapV2Router: INSUFFICIENT_B_AMOUNT') */\n      tag_675\n      jumpi\n      mload(0x40)\n      shl(0xe5, 0x461bcd)\n      dup2\n      mstore\n      0x04\n      add\n      dup1\n      dup1\n      0x20\n      add\n      dup3\n      dup2\n      sub\n      dup3\n      mstore\n      0x26\n      dup2\n      mstore\n      0x20\n      add\n      dup1\n      data_508673fa99dd55571c7741114b40754785309d1a2171022cd7c5caaae38fc7b6\n      0x26\n      swap2\n      codecopy\n      0x40\n      add\n      swap2\n      pop\n      pop\n      mload(0x40)\n      dup1\n      swap2\n      sub\n      swap1\n      revert\n    tag_675:\n        /* \"UniswapV2Router02.sol\":2066:2080  amountADesired */\n      dup9\n      swap5\n      pop\n        /* \"UniswapV2Router02.sol\":2082:2096  amountBOptimal */\n      swap3\n      pop\n      dup3\n        /* \"UniswapV2Router02.sol\":1889:2463  if (amountBOptimal <= amountBDesired) {\r... */\n      jump(tag_676)\n    tag_674:\n        /* \"UniswapV2Router02.sol\":2138:2157  uint amountAOptimal */\n      0x00\n        /* \"UniswapV2Router02.sol\":2160:2218  UniswapV2Library.quote(amountBDesired, reserveB, reserveA) */\n      tag_677\n        /* \"UniswapV2Router02.sol\":2183:2197  amountBDesired */\n      dup10\n        /* \"UniswapV2Router02.sol\":2199:2207  reserveB */\n      dup5\n        /* \"UniswapV2Router02.sol\":2209:2217  reserveA */\n      dup7\n        /* \"UniswapV2Router02.sol\":2160:2182  UniswapV2Library.quote */\n      tag_366\n        /* \"UniswapV2Router02.sol\":2160:2218  UniswapV2Library.quote(amountBDesired, reserveB, reserveA) */\n      jump\t// in\n    tag_677:\n        /* \"UniswapV2Router02.sol\":2138:2218  uint amountAOptimal = UniswapV2Library.quote(amountBDesired, reserveB, reserveA) */\n      swap1\n      pop\n        /* \"UniswapV2Router02.sol\":2262:2276  amountADesired */\n      dup10\n        /* \"UniswapV2Router02.sol\":2244:2258  amountAOptimal */\n      dup2\n        /* \"UniswapV2Router02.sol\":2244:2276  amountAOptimal <= amountADesired */\n      gt\n      iszero\n        /* \"UniswapV2Router02.sol\":2237:2277  assert(amountAOptimal <= amountADesired) */\n      tag_678\n      jumpi\n      invalid\n    tag_678:\n        /* \"UniswapV2Router02.sol\":2322:2332  amountAMin */\n      dup8\n        /* \"UniswapV2Router02.sol\":2304:2318  amountAOptimal */\n      dup2\n        /* \"UniswapV2Router02.sol\":2304:2332  amountAOptimal >= amountAMin */\n      lt\n      iszero\n        /* \"UniswapV2Router02.sol\":2296:2375  require(amountAOptimal >= amountAMin, 'UniswapV2Router: INSUFFICIENT_A_AMOUNT') */\n      tag_679\n      jumpi\n      mload(0x40)\n      shl(0xe5, 0x461bcd)\n      dup2\n      mstore\n      0x04\n      add\n      dup1\n      dup1\n      0x20\n      add\n      dup3\n      dup2\n      sub\n      dup3\n      mstore\n      0x26\n      dup2\n      mstore\n      0x20\n      add\n      dup1\n      data_d1d32edc232bc1da2150d590567c5d6321ade8a80edcd2485e6068d018c7fd67\n      0x26\n      swap2\n      codecopy\n      0x40\n      add\n      swap2\n      pop\n      pop\n      mload(0x40)\n      dup1\n      swap2\n      sub\n      swap1\n      revert\n    tag_679:\n        /* \"UniswapV2Router02.sol\":2416:2430  amountAOptimal */\n      swap5\n      pop\n        /* \"UniswapV2Router02.sol\":2432:2446  amountBDesired */\n      dup8\n      swap4\n      pop\n        /* \"UniswapV2Router02.sol\":1889:2463  if (amountBOptimal <= amountBDesired) {\r... */\n    tag_676:\n        /* \"UniswapV2Router02.sol\":1657:2474  if (reserveA == 0 && reserveB == 0) {\r... */\n      pop\n    tag_672:\n        /* \"UniswapV2Router02.sol\":1091:2481  function _addLiquidity(\r... */\n      pop\n      pop\n      swap7\n      pop\n      swap7\n      swap5\n      pop\n      pop\n      pop\n      pop\n      pop\n      jump\t// out\n        /* \"libraries/SafeMath.sol\":470:612  function mul(uint x, uint y) internal pure returns (uint z) {\r... */\n    tag_525:\n        /* \"libraries/SafeMath.sol\":522:528  uint z */\n      0x00\n        /* \"libraries/SafeMath.sol\":549:555  y == 0 */\n      dup2\n      iszero\n      dup1\n        /* \"libraries/SafeMath.sol\":549:579  y == 0 || (z = x * y) / y == x */\n      tag_681\n      jumpi\n      pop\n      pop\n        /* \"libraries/SafeMath.sol\":564:569  x * y */\n      dup1\n      dup3\n      mul\n        /* \"libraries/SafeMath.sol\":578:579  x */\n      dup3\n        /* \"libraries/SafeMath.sol\":573:574  y */\n      dup3\n        /* \"libraries/SafeMath.sol\":564:569  x * y */\n      dup3\n        /* \"libraries/SafeMath.sol\":573:574  y */\n      dup2\n        /* \"libraries/SafeMath.sol\":559:574  (z = x * y) / y */\n      tag_682\n      jumpi\n      invalid\n    tag_682:\n      div\n        /* \"libraries/SafeMath.sol\":559:579  (z = x * y) / y == x */\n      eq\n        /* \"libraries/SafeMath.sol\":549:579  y == 0 || (z = x * y) / y == x */\n    tag_681:\n        /* \"libraries/SafeMath.sol\":541:604  require(y == 0 || (z = x * y) / y == x, 'ds-math-mul-overflow') */\n      tag_229\n      jumpi\n      0x40\n      dup1\n      mload\n      shl(0xe5, 0x461bcd)\n      dup2\n      mstore\n      0x20\n      0x04\n      dup3\n      add\n      mstore\n      0x14\n      0x24\n      dup3\n      add\n      mstore\n      shl(0x60, 0x64732d6d6174682d6d756c2d6f766572666c6f77)\n      0x44\n      dup3\n      add\n      mstore\n      swap1\n      mload\n      swap1\n      dup2\n      swap1\n      sub\n      0x64\n      add\n      swap1\n      revert\n        /* \"libraries/SafeMath.sol\":197:325  function add(uint x, uint y) internal pure returns (uint z) {\r... */\n    tag_529:\n        /* \"libraries/SafeMath.sol\":281:286  x + y */\n      dup1\n      dup3\n      add\n        /* \"libraries/SafeMath.sol\":276:292  (z = x + y) >= x */\n      dup3\n      dup2\n      lt\n      iszero\n        /* \"libraries/SafeMath.sol\":268:317  require((z = x + y) >= x, 'ds-math-add-overflow') */\n      tag_229\n      jumpi\n      0x40\n      dup1\n      mload\n      shl(0xe5, 0x461bcd)\n      dup2\n      mstore\n      0x20\n      0x04\n      dup3\n      add\n      mstore\n      0x14\n      0x24\n      dup3\n      add\n      mstore\n      shl(0x60, 0x64732d6d6174682d6164642d6f766572666c6f77)\n      0x44\n      dup3\n      add\n      mstore\n      swap1\n      mload\n      swap1\n      dup2\n      swap1\n      sub\n      0x64\n      add\n      swap1\n      revert\n        /* \"libraries/UniswapV2Library.sol\":1506:1933  function getReserves(\r... */\n    tag_542:\n        /* \"libraries/UniswapV2Library.sol\":1633:1646  uint reserveA */\n      0x00\n        /* \"libraries/UniswapV2Library.sol\":1648:1661  uint reserveB */\n      dup1\n        /* \"libraries/UniswapV2Library.sol\":1675:1689  address token0 */\n      0x00\n        /* \"libraries/UniswapV2Library.sol\":1695:1721  sortTokens(tokenA, tokenB) */\n      tag_687\n        /* \"libraries/UniswapV2Library.sol\":1706:1712  tokenA */\n      dup6\n        /* \"libraries/UniswapV2Library.sol\":1714:1720  tokenB */\n      dup6\n        /* \"libraries/UniswapV2Library.sol\":1695:1705  sortTokens */\n      tag_422\n        /* \"libraries/UniswapV2Library.sol\":1695:1721  sortTokens(tokenA, tokenB) */\n      jump\t// in\n    tag_687:\n        /* \"libraries/UniswapV2Library.sol\":1674:1721  (address token0, ) = sortTokens(tokenA, tokenB) */\n      pop\n      swap1\n      pop\n        /* \"libraries/UniswapV2Library.sol\":1733:1746  uint reserve0 */\n      0x00\n        /* \"libraries/UniswapV2Library.sol\":1748:1761  uint reserve1 */\n      dup1\n        /* \"libraries/UniswapV2Library.sol\":1782:1814  pairFor(factory, tokenA, tokenB) */\n      tag_688\n        /* \"libraries/UniswapV2Library.sol\":1790:1797  factory */\n      dup9\n        /* \"libraries/UniswapV2Library.sol\":1799:1805  tokenA */\n      dup9\n        /* \"libraries/UniswapV2Library.sol\":1807:1813  tokenB */\n      dup9\n        /* \"libraries/UniswapV2Library.sol\":1782:1789  pairFor */\n      tag_218\n        /* \"libraries/UniswapV2Library.sol\":1782:1814  pairFor(factory, tokenA, tokenB) */\n      jump\t// in\n    tag_688:\n      sub(shl(0xa0, 0x01), 0x01)\n        /* \"libraries/UniswapV2Library.sol\":1767:1827  IUniswapV2Pair(pairFor(factory, tokenA, tokenB)).getReserves */\n      and\n      0x0902f1ac\n        /* \"libraries/UniswapV2Library.sol\":1767:1829  IUniswapV2Pair(pairFor(factory, tokenA, tokenB)).getReserves() */\n      mload(0x40)\n      dup2\n      0xffffffff\n      and\n      0xe0\n      shl\n      dup2\n      mstore\n      0x04\n      add\n      0x60\n      mload(0x40)\n      dup1\n      dup4\n      sub\n      dup2\n      dup7\n      dup1\n      extcodesize\n      iszero\n      dup1\n      iszero\n      tag_689\n      jumpi\n      0x00\n      dup1\n      revert\n    tag_689:\n      pop\n      gas\n      staticcall\n      iszero\n      dup1\n      iszero\n      tag_691\n      jumpi\n      returndatasize\n      0x00\n      dup1\n      returndatacopy\n      revert(0x00, returndatasize)\n    tag_691:\n      pop\n      pop\n      pop\n      pop\n      mload(0x40)\n      returndatasize\n      0x60\n      dup2\n      lt\n      iszero\n      tag_692\n      jumpi\n      0x00\n      dup1\n      revert\n    tag_692:\n      pop\n      dup1\n      mload\n      0x20\n      swap1\n      swap2\n      add\n      mload\n      sub(shl(0x70, 0x01), 0x01)\n        /* \"libraries/UniswapV2Library.sol\":1732:1829  (uint reserve0, uint reserve1, ) = IUniswapV2Pair(pairFor(factory, tokenA, tokenB)).getReserves() */\n      swap2\n      dup3\n      and\n      swap4\n      pop\n      and\n      swap1\n      pop\n      sub(shl(0xa0, 0x01), 0x01)\n        /* \"libraries/UniswapV2Library.sol\":1863:1879  tokenA == token0 */\n      dup8\n      dup2\n      and\n      swap1\n      dup5\n      and\n      eq\n        /* \"libraries/UniswapV2Library.sol\":1863:1925  tokenA == token0 ? (reserve0, reserve1) : (reserve1, reserve0) */\n      tag_693\n      jumpi\n        /* \"libraries/UniswapV2Library.sol\":1906:1914  reserve1 */\n      dup1\n        /* \"libraries/UniswapV2Library.sol\":1916:1924  reserve0 */\n      dup3\n        /* \"libraries/UniswapV2Library.sol\":1863:1925  tokenA == token0 ? (reserve0, reserve1) : (reserve1, reserve0) */\n      jump(tag_694)\n    tag_693:\n        /* \"libraries/UniswapV2Library.sol\":1883:1891  reserve0 */\n      dup2\n        /* \"libraries/UniswapV2Library.sol\":1893:1901  reserve1 */\n      dup2\n        /* \"libraries/UniswapV2Library.sol\":1863:1925  tokenA == token0 ? (reserve0, reserve1) : (reserve1, reserve0) */\n    tag_694:\n        /* \"libraries/UniswapV2Library.sol\":1840:1925  (reserveA, reserveB) = tokenA == token0 ? (reserve0, reserve1) : (reserve1, reserve0) */\n      swap1\n      swap10\n      swap1\n      swap9\n      pop\n        /* \"libraries/UniswapV2Library.sol\":1506:1933  function getReserves(\r... */\n      swap7\n      pop\n      pop\n      pop\n      pop\n      pop\n      pop\n      pop\n      jump\t// out\n    stop\n    data_35fb781059090c30aacad20e29b2e40e67f217617fc46f86031ed4eb14923a82 556e697377617056324c6962726172793a20494e53554646494349454e545f4f55545055545f414d4f554e54\n    data_3f8faf98afe9344b6d4b0e75b0101259bf282914b3b5a9320c6918b6e27ede1c 5472616e7366657248656c7065723a3a7472616e7366657246726f6d3a207472616e7366657246726f6d206661696c6564\n    data_43d7bec223ecf9eb06ea147e7d564bc71c2448662d62a4ea86ce71fc4518b350 5472616e7366657248656c7065723a3a736166655472616e736665724554483a20455448207472616e73666572206661696c6564\n    data_4ddc3ca35a8b7ccaa016ab70252fdf3396ded4f4fd8375f95b1e9d99790fcdca 556e697377617056324c6962726172793a204944454e544943414c5f414444524553534553\n    data_508673fa99dd55571c7741114b40754785309d1a2171022cd7c5caaae38fc7b6 556e69737761705632526f757465723a20494e53554646494349454e545f425f414d4f554e54\n    data_7e8d6b265173dbbd87b3b9e2bf4238bea6caf2b2bbeb63f859a738aec9e761c8 556e697377617056324c6962726172793a20494e53554646494349454e545f4c4951554944495459\n    data_b3ea0cd729028efbc737ad3cde1d4d854e6f2c136b354fbaea9389d68bc3a146 556e697377617056324c6962726172793a20494e53554646494349454e545f414d4f554e54\n    data_bb18004cd22eaad7ea393d184ea6ac1df1428db36bb6fbff8af486232d68ae2c 556e69737761705632526f757465723a204558434553534956455f494e5055545f414d4f554e54\n    data_c80e789ddaeb930b746bbbcb3afe8331d926679fd96f65d8c7468b735c0a14f2 556e69737761705632526f757465723a20494e56414c49445f50415448000000\n    data_d1d32edc232bc1da2150d590567c5d6321ade8a80edcd2485e6068d018c7fd67 556e69737761705632526f757465723a20494e53554646494349454e545f415f414d4f554e54\n    data_d4ea67bea551891ab36be726b8e631181246034dffcfd5c0bbfad1e9d1729432 556e69737761705632526f757465723a20494e53554646494349454e545f4f55545055545f414d4f554e54\n    data_daea69421eeb1164e163c36f3d4349f0db3ec4e0d1381bd5bf4faf53496c2611 5472616e7366657248656c7065723a3a736166655472616e736665723a207472616e73666572206661696c6564\n    data_ec21b006eb37ef20d0f4abcabd34de6854fa68af48294244e0263dc05c1dbbae 556e697377617056324c6962726172793a20494e53554646494349454e545f494e5055545f414d4f554e54\n    data_ee5734acb032ffb1bbaf889d52ccf9fbd1ce0f1ae12bee2c46068d51b910e2c5 556e69737761705632526f757465723a20455850495245440000000000000000\n\n    auxdata: 0xa26469706673582212204816df23c97fc981a3a86a1f8ec757e6583c74ed42a870ce19a31c44056afa9a64736f6c634300060c0033\n}\n",
				"bytecode": {
					"linkReferences": {},
					"object": "60c060405234801561001057600080fd5b5060405162004864380380620048648339818101604052606081101561003557600080fd5b50805160208201516040909201516001600160601b0319606092831b81166080529290911b90911660a05260005560805160601c60a05160601c6146d362000191600039806101955280610d445280610d7f5280610e7652806110945280611424528061158a52806119395280611a145280611aee5280611bbc5280611d025280611d8a5280611fcc528061204752806120fb52806121c7528061225c52806122d052806127b35280612a1d5280612a735280612aa75280612b1b5280612ca95280612dec5280612e74525080610f045280610fdb528061115a528061119352806112d452806114b2528061156852806116d85280611c4f5280611dbc5280611f165280612302528061254052806127385280612761528061279152806128fe5280612a515280612d3c5280612ea6528061377e52806137c15280613a9b5280613c11528061406a528061412352806141d652506146d36000f3fe6080604052600436106101855760003560e01c80638803dbee116100d1578063baa2abde1161008a578063ded9382a11610064578063ded9382a14610b3a578063e8e3370014610bad578063f305d71914610c2d578063fb3bdb4114610c73576101be565b8063baa2abde14610a13578063c45a015514610a70578063d06ca61f14610a85576101be565b80638803dbee1461082a578063a0be06f9146108c0578063ad5c4648146108d5578063ad615dec14610906578063af2979eb1461093c578063b6f9de951461098f576101be565b806338ed17391161013e5780635c11d795116101185780635c11d79514610644578063791ac947146106da5780637ff36ab51461077057806385f8c259146107f4576101be565b806338ed1739146104a55780634a25d94a1461053b5780635b0d5984146105d1576101be565b806302751cec146101c3578063054d50d41461022f57806318cbafe5146102775780631f00ca741461035d5780632195995c146104125780632a905ccc14610490576101be565b366101be57336001600160a01b037f000000000000000000000000000000000000000000000000000000000000000016146101bc57fe5b005b600080fd5b3480156101cf57600080fd5b50610216600480360360c08110156101e657600080fd5b506001600160a01b0381358116916020810135916040820135916060810135916080820135169060a00135610cf7565b6040805192835260208301919091528051918290030190f35b34801561023b57600080fd5b506102656004803603606081101561025257600080fd5b5080359060208101359060400135610e11565b60408051918252519081900360200190f35b34801561028357600080fd5b5061030d600480360360a081101561029a57600080fd5b813591602081013591810190606081016040820135600160201b8111156102c057600080fd5b8201836020820111156102d257600080fd5b803590602001918460208302840111600160201b831117156102f357600080fd5b91935091506001600160a01b038135169060200135610e26565b60408051602080825283518183015283519192839290830191858101910280838360005b83811015610349578181015183820152602001610331565b505050509050019250505060405180910390f35b34801561036957600080fd5b5061030d6004803603604081101561038057600080fd5b81359190810190604081016020820135600160201b8111156103a157600080fd5b8201836020820111156103b357600080fd5b803590602001918460208302840111600160201b831117156103d457600080fd5b919080806020026020016040519081016040528093929190818152602001838360200280828437600092019190915250929550611153945050505050565b34801561041e57600080fd5b50610216600480360361016081101561043657600080fd5b506001600160a01b038135811691602081013582169160408201359160608101359160808201359160a08101359091169060c08101359060e081013515159060ff6101008201351690610120810135906101400135611189565b34801561049c57600080fd5b50610265611283565b3480156104b157600080fd5b5061030d600480360360a08110156104c857600080fd5b813591602081013591810190606081016040820135600160201b8111156104ee57600080fd5b82018360208201111561050057600080fd5b803590602001918460208302840111600160201b8311171561052157600080fd5b91935091506001600160a01b038135169060200135611289565b34801561054757600080fd5b5061030d600480360360a081101561055e57600080fd5b813591602081013591810190606081016040820135600160201b81111561058457600080fd5b82018360208201111561059657600080fd5b803590602001918460208302840111600160201b831117156105b757600080fd5b91935091506001600160a01b0381351690602001356113d4565b3480156105dd57600080fd5b5061026560048036036101408110156105f557600080fd5b506001600160a01b0381358116916020810135916040820135916060810135916080820135169060a08101359060c081013515159060ff60e08201351690610100810135906101200135611560565b34801561065057600080fd5b506101bc600480360360a081101561066757600080fd5b813591602081013591810190606081016040820135600160201b81111561068d57600080fd5b82018360208201111561069f57600080fd5b803590602001918460208302840111600160201b831117156106c057600080fd5b91935091506001600160a01b03813516906020013561166e565b3480156106e657600080fd5b506101bc600480360360a08110156106fd57600080fd5b813591602081013591810190606081016040820135600160201b81111561072357600080fd5b82018360208201111561073557600080fd5b803590602001918460208302840111600160201b8311171561075657600080fd5b91935091506001600160a01b0381351690602001356118eb565b61030d6004803603608081101561078657600080fd5b81359190810190604081016020820135600160201b8111156107a757600080fd5b8201836020820111156107b957600080fd5b803590602001918460208302840111600160201b831117156107da57600080fd5b91935091506001600160a01b038135169060200135611b74565b34801561080057600080fd5b506102656004803603606081101561081757600080fd5b5080359060208101359060400135611ebe565b34801561083657600080fd5b5061030d600480360360a081101561084d57600080fd5b813591602081013591810190606081016040820135600160201b81111561087357600080fd5b82018360208201111561088557600080fd5b803590602001918460208302840111600160201b831117156108a657600080fd5b91935091506001600160a01b038135169060200135611ecb565b3480156108cc57600080fd5b50610265611fc4565b3480156108e157600080fd5b506108ea611fca565b604080516001600160a01b039092168252519081900360200190f35b34801561091257600080fd5b506102656004803603606081101561092957600080fd5b5080359060208101359060400135611fee565b34801561094857600080fd5b50610265600480360360c081101561095f57600080fd5b506001600160a01b0381358116916020810135916040820135916060810135916080820135169060a00135611ffb565b6101bc600480360360808110156109a557600080fd5b81359190810190604081016020820135600160201b8111156109c657600080fd5b8201836020820111156109d857600080fd5b803590602001918460208302840111600160201b831117156109f957600080fd5b91935091506001600160a01b038135169060200135612181565b348015610a1f57600080fd5b50610216600480360360e0811015610a3657600080fd5b506001600160a01b038135811691602081013582169160408201359160608101359160808201359160a08101359091169060c001356124f2565b348015610a7c57600080fd5b506108ea612736565b348015610a9157600080fd5b5061030d60048036036040811015610aa857600080fd5b81359190810190604081016020820135600160201b811115610ac957600080fd5b820183602082011115610adb57600080fd5b803590602001918460208302840111600160201b83111715610afc57600080fd5b91908080602002602001604051908101604052809392919081815260200183836020028082843760009201919091525092955061275a945050505050565b348015610b4657600080fd5b506102166004803603610140811015610b5e57600080fd5b506001600160a01b0381358116916020810135916040820135916060810135916080820135169060a08101359060c081013515159060ff60e08201351690610100810135906101200135612787565b348015610bb957600080fd5b50610c0f6004803603610100811015610bd157600080fd5b506001600160a01b038135811691602081013582169160408201359160608101359160808201359160a08101359160c0820135169060e0013561289b565b60408051938452602084019290925282820152519081900360600190f35b610c0f600480360360c0811015610c4357600080fd5b506001600160a01b0381358116916020810135916040820135916060810135916080820135169060a001356129ce565b61030d60048036036080811015610c8957600080fd5b81359190810190604081016020820135600160201b811115610caa57600080fd5b820183602082011115610cbc57600080fd5b803590602001918460208302840111600160201b83111715610cdd57600080fd5b91935091506001600160a01b038135169060200135612c61565b6000808242811015610d3e576040805162461bcd60e51b8152602060048201526018602482015260008051602061467e833981519152604482015290519081900360640190fd5b610d6d897f00000000000000000000000000000000000000000000000000000000000000008a8a8a308a6124f2565b9093509150610d7d898685612fda565b7f00000000000000000000000000000000000000000000000000000000000000006001600160a01b0316632e1a7d4d836040518263ffffffff1660e01b815260040180828152602001915050600060405180830381600087803b158015610de357600080fd5b505af1158015610df7573d6000803e3d6000fd5b50505050610e05858361312e565b50965096945050505050565b6000610e1e848484613226565b949350505050565b60608142811015610e6c576040805162461bcd60e51b8152602060048201526018602482015260008051602061467e833981519152604482015290519081900360640190fd5b6001600160a01b037f00000000000000000000000000000000000000000000000000000000000000001686866000198101818110610ea657fe5b905060200201356001600160a01b03166001600160a01b031614610eff576040805162461bcd60e51b815260206004820152601d60248201526000805160206145b5833981519152604482015290519081900360640190fd5b610f5d7f00000000000000000000000000000000000000000000000000000000000000008988888080602002602001604051908101604052809392919081815260200183836020028082843760009201919091525061336692505050565b91508682600184510381518110610f7057fe5b60200260200101511015610fb55760405162461bcd60e51b815260040180806020018281038252602b8152602001806145fb602b913960400191505060405180910390fd5b61105386866000818110610fc557fe5b905060200201356001600160a01b0316336110397f00000000000000000000000000000000000000000000000000000000000000008a8a600081811061100757fe5b905060200201356001600160a01b03168b8b600181811061102457fe5b905060200201356001600160a01b03166134b2565b8560008151811061104657fe5b6020026020010151613572565b611092828787808060200260200160405190810160405280939291908181526020018383602002808284376000920191909152503092506136cf915050565b7f00000000000000000000000000000000000000000000000000000000000000006001600160a01b0316632e1a7d4d836001855103815181106110d157fe5b60200260200101516040518263ffffffff1660e01b815260040180828152602001915050600060405180830381600087803b15801561110f57600080fd5b505af1158015611123573d6000803e3d6000fd5b50505050611148848360018551038151811061113b57fe5b602002602001015161312e565b509695505050505050565b60606111807f0000000000000000000000000000000000000000000000000000000000000000848461390c565b90505b92915050565b60008060006111b97f00000000000000000000000000000000000000000000000000000000000000008f8f6134b2565b90506000876111c8578c6111cc565b6000195b6040805163d505accf60e01b815233600482015230602482015260448101839052606481018c905260ff8a16608482015260a4810189905260c4810188905290519192506001600160a01b0384169163d505accf9160e48082019260009290919082900301818387803b15801561124257600080fd5b505af1158015611256573d6000803e3d6000fd5b505050506112698f8f8f8f8f8f8f6124f2565b809450819550505050509b509b9950505050505050505050565b60005490565b606081428110156112cf576040805162461bcd60e51b8152602060048201526018602482015260008051602061467e833981519152604482015290519081900360640190fd5b61132d7f00000000000000000000000000000000000000000000000000000000000000008988888080602002602001604051908101604052809392919081815260200183836020028082843760009201919091525061336692505050565b9150868260018451038151811061134057fe5b602002602001015110156113855760405162461bcd60e51b815260040180806020018281038252602b8152602001806145fb602b913960400191505060405180910390fd5b61139586866000818110610fc557fe5b611148828787808060200260200160405190810160405280939291908181526020018383602002808284376000920191909152508992506136cf915050565b6060814281101561141a576040805162461bcd60e51b8152602060048201526018602482015260008051602061467e833981519152604482015290519081900360640190fd5b6001600160a01b037f0000000000000000000000000000000000000000000000000000000000000000168686600019810181811061145457fe5b905060200201356001600160a01b03166001600160a01b0316146114ad576040805162461bcd60e51b815260206004820152601d60248201526000805160206145b5833981519152604482015290519081900360640190fd5b61150b7f00000000000000000000000000000000000000000000000000000000000000008988888080602002602001604051908101604052809392919081815260200183836020028082843760009201919091525061390c92505050565b9150868260008151811061151b57fe5b60200260200101511115610fb55760405162461bcd60e51b815260040180806020018281038252602781526020018061458e6027913960400191505060405180910390fd5b6000806115ae7f00000000000000000000000000000000000000000000000000000000000000008d7f00000000000000000000000000000000000000000000000000000000000000006134b2565b90506000866115bd578b6115c1565b6000195b6040805163d505accf60e01b815233600482015230602482015260448101839052606481018b905260ff8916608482015260a4810188905260c4810187905290519192506001600160a01b0384169163d505accf9160e48082019260009290919082900301818387803b15801561163757600080fd5b505af115801561164b573d6000803e3d6000fd5b5050505061165d8d8d8d8d8d8d611ffb565b9d9c50505050505050505050505050565b80428110156116b2576040805162461bcd60e51b8152602060048201526018602482015260008051602061467e833981519152604482015290519081900360640190fd5b611727858560008181106116c257fe5b905060200201356001600160a01b0316336117217f00000000000000000000000000000000000000000000000000000000000000008989600081811061170457fe5b905060200201356001600160a01b03168a8a600181811061102457fe5b8a613572565b60008585600019810181811061173957fe5b905060200201356001600160a01b03166001600160a01b03166370a08231856040518263ffffffff1660e01b815260040180826001600160a01b0316815260200191505060206040518083038186803b15801561179557600080fd5b505afa1580156117a9573d6000803e3d6000fd5b505050506040513d60208110156117bf57600080fd5b50516040805160208881028281018201909352888252929350611801929091899189918291850190849080828437600092019190915250889250613a44915050565b866118a4828888600019810181811061181657fe5b905060200201356001600160a01b03166001600160a01b03166370a08231886040518263ffffffff1660e01b815260040180826001600160a01b0316815260200191505060206040518083038186803b15801561187257600080fd5b505afa158015611886573d6000803e3d6000fd5b505050506040513d602081101561189c57600080fd5b505190613d46565b10156118e15760405162461bcd60e51b815260040180806020018281038252602b8152602001806145fb602b913960400191505060405180910390fd5b5050505050505050565b804281101561192f576040805162461bcd60e51b8152602060048201526018602482015260008051602061467e833981519152604482015290519081900360640190fd5b6001600160a01b037f0000000000000000000000000000000000000000000000000000000000000000168585600019810181811061196957fe5b905060200201356001600160a01b03166001600160a01b0316146119c2576040805162461bcd60e51b815260206004820152601d60248201526000805160206145b5833981519152604482015290519081900360640190fd5b6119d2858560008181106116c257fe5b611a10858580806020026020016040519081016040528093929190818152602001838360200280828437600092019190915250309250613a44915050565b60007f00000000000000000000000000000000000000000000000000000000000000006001600160a01b03166370a08231306040518263ffffffff1660e01b815260040180826001600160a01b0316815260200191505060206040518083038186803b158015611a7f57600080fd5b505afa158015611a93573d6000803e3d6000fd5b505050506040513d6020811015611aa957600080fd5b5051905086811015611aec5760405162461bcd60e51b815260040180806020018281038252602b8152602001806145fb602b913960400191505060405180910390fd5b7f00000000000000000000000000000000000000000000000000000000000000006001600160a01b0316632e1a7d4d826040518263ffffffff1660e01b815260040180828152602001915050600060405180830381600087803b158015611b5257600080fd5b505af1158015611b66573d6000803e3d6000fd5b505050506118e1848261312e565b60608142811015611bba576040805162461bcd60e51b8152602060048201526018602482015260008051602061467e833981519152604482015290519081900360640190fd5b7f00000000000000000000000000000000000000000000000000000000000000006001600160a01b031686866000818110611bf157fe5b905060200201356001600160a01b03166001600160a01b031614611c4a576040805162461bcd60e51b815260206004820152601d60248201526000805160206145b5833981519152604482015290519081900360640190fd5b611ca87f00000000000000000000000000000000000000000000000000000000000000003488888080602002602001604051908101604052809392919081815260200183836020028082843760009201919091525061336692505050565b91508682600184510381518110611cbb57fe5b60200260200101511015611d005760405162461bcd60e51b815260040180806020018281038252602b8152602001806145fb602b913960400191505060405180910390fd5b7f00000000000000000000000000000000000000000000000000000000000000006001600160a01b031663d0e30db083600081518110611d3c57fe5b60200260200101516040518263ffffffff1660e01b81526004016000604051808303818588803b158015611d6f57600080fd5b505af1158015611d83573d6000803e3d6000fd5b50505050507f00000000000000000000000000000000000000000000000000000000000000006001600160a01b031663a9059cbb611de87f00000000000000000000000000000000000000000000000000000000000000008989600081811061170457fe5b84600081518110611df557fe5b60200260200101516040518363ffffffff1660e01b815260040180836001600160a01b0316815260200182815260200192505050602060405180830381600087803b158015611e4357600080fd5b505af1158015611e57573d6000803e3d6000fd5b505050506040513d6020811015611e6d57600080fd5b5051611e7557fe5b611eb4828787808060200260200160405190810160405280939291908181526020018383602002808284376000920191909152508992506136cf915050565b5095945050505050565b6000610e1e848484613d96565b60608142811015611f11576040805162461bcd60e51b8152602060048201526018602482015260008051602061467e833981519152604482015290519081900360640190fd5b611f6f7f00000000000000000000000000000000000000000000000000000000000000008988888080602002602001604051908101604052809392919081815260200183836020028082843760009201919091525061390c92505050565b91508682600081518110611f7f57fe5b602002602001015111156113855760405162461bcd60e51b815260040180806020018281038252602781526020018061458e6027913960400191505060405180910390fd5b60005481565b7f000000000000000000000000000000000000000000000000000000000000000081565b6000610e1e848484613ed6565b60008142811015612041576040805162461bcd60e51b8152602060048201526018602482015260008051602061467e833981519152604482015290519081900360640190fd5b612070887f000000000000000000000000000000000000000000000000000000000000000089898930896124f2565b9050809250506120f988858a6001600160a01b03166370a08231306040518263ffffffff1660e01b815260040180826001600160a01b0316815260200191505060206040518083038186803b1580156120c857600080fd5b505afa1580156120dc573d6000803e3d6000fd5b505050506040513d60208110156120f257600080fd5b5051612fda565b7f00000000000000000000000000000000000000000000000000000000000000006001600160a01b0316632e1a7d4d836040518263ffffffff1660e01b815260040180828152602001915050600060405180830381600087803b15801561215f57600080fd5b505af1158015612173573d6000803e3d6000fd5b50505050611148848361312e565b80428110156121c5576040805162461bcd60e51b8152602060048201526018602482015260008051602061467e833981519152604482015290519081900360640190fd5b7f00000000000000000000000000000000000000000000000000000000000000006001600160a01b0316858560008181106121fc57fe5b905060200201356001600160a01b03166001600160a01b031614612255576040805162461bcd60e51b815260206004820152601d60248201526000805160206145b5833981519152604482015290519081900360640190fd5b60003490507f00000000000000000000000000000000000000000000000000000000000000006001600160a01b031663d0e30db0826040518263ffffffff1660e01b81526004016000604051808303818588803b1580156122b557600080fd5b505af11580156122c9573d6000803e3d6000fd5b50505050507f00000000000000000000000000000000000000000000000000000000000000006001600160a01b031663a9059cbb61232e7f00000000000000000000000000000000000000000000000000000000000000008989600081811061170457fe5b836040518363ffffffff1660e01b815260040180836001600160a01b0316815260200182815260200192505050602060405180830381600087803b15801561237557600080fd5b505af1158015612389573d6000803e3d6000fd5b505050506040513d602081101561239f57600080fd5b50516123a757fe5b6000868660001981018181106123b957fe5b905060200201356001600160a01b03166001600160a01b03166370a08231866040518263ffffffff1660e01b815260040180826001600160a01b0316815260200191505060206040518083038186803b15801561241557600080fd5b505afa158015612429573d6000803e3d6000fd5b505050506040513d602081101561243f57600080fd5b505160408051602089810282810182019093528982529293506124819290918a918a918291850190849080828437600092019190915250899250613a44915050565b876118a4828989600019810181811061249657fe5b905060200201356001600160a01b03166001600160a01b03166370a08231896040518263ffffffff1660e01b815260040180826001600160a01b0316815260200191505060206040518083038186803b15801561187257600080fd5b6000808242811015612539576040805162461bcd60e51b8152602060048201526018602482015260008051602061467e833981519152604482015290519081900360640190fd5b60006125667f00000000000000000000000000000000000000000000000000000000000000008c8c6134b2565b604080516323b872dd60e01b81523360048201526001600160a01b03831660248201819052604482018d9052915192935090916323b872dd916064808201926020929091908290030181600087803b1580156125c157600080fd5b505af11580156125d5573d6000803e3d6000fd5b505050506040513d60208110156125eb57600080fd5b50506040805163226bf2d160e21b81526001600160a01b03888116600483015282516000938493928616926389afcb44926024808301939282900301818787803b15801561263857600080fd5b505af115801561264c573d6000803e3d6000fd5b505050506040513d604081101561266257600080fd5b5080516020909101519092509050600061267c8e8e613f7c565b509050806001600160a01b03168e6001600160a01b03161461269f5781836126a2565b82825b90975095508a8710156126e65760405162461bcd60e51b81526004018080602001828103825260268152602001806145d56026913960400191505060405180910390fd5b898610156127255760405162461bcd60e51b815260040180806020018281038252602681526020018061451b6026913960400191505060405180910390fd5b505050505097509795505050505050565b7f000000000000000000000000000000000000000000000000000000000000000081565b60606111807f00000000000000000000000000000000000000000000000000000000000000008484613366565b60008060006127d77f00000000000000000000000000000000000000000000000000000000000000008e7f00000000000000000000000000000000000000000000000000000000000000006134b2565b90506000876127e6578c6127ea565b6000195b6040805163d505accf60e01b815233600482015230602482015260448101839052606481018c905260ff8a16608482015260a4810189905260c4810188905290519192506001600160a01b0384169163d505accf9160e48082019260009290919082900301818387803b15801561286057600080fd5b505af1158015612874573d6000803e3d6000fd5b505050506128868e8e8e8e8e8e610cf7565b909f909e509c50505050505050505050505050565b600080600083428110156128e4576040805162461bcd60e51b8152602060048201526018602482015260008051602061467e833981519152604482015290519081900360640190fd5b6128f28c8c8c8c8c8c61405a565b909450925060006129247f00000000000000000000000000000000000000000000000000000000000000008e8e6134b2565b90506129328d338388613572565b61293e8c338387613572565b806001600160a01b0316636a627842886040518263ffffffff1660e01b815260040180826001600160a01b03168152602001915050602060405180830381600087803b15801561298d57600080fd5b505af11580156129a1573d6000803e3d6000fd5b505050506040513d60208110156129b757600080fd5b5051949d939c50939a509198505050505050505050565b60008060008342811015612a17576040805162461bcd60e51b8152602060048201526018602482015260008051602061467e833981519152604482015290519081900360640190fd5b612a458a7f00000000000000000000000000000000000000000000000000000000000000008b348c8c61405a565b90945092506000612a977f00000000000000000000000000000000000000000000000000000000000000008c7f00000000000000000000000000000000000000000000000000000000000000006134b2565b9050612aa58b338388613572565b7f00000000000000000000000000000000000000000000000000000000000000006001600160a01b031663d0e30db0856040518263ffffffff1660e01b81526004016000604051808303818588803b158015612b0057600080fd5b505af1158015612b14573d6000803e3d6000fd5b50505050507f00000000000000000000000000000000000000000000000000000000000000006001600160a01b031663a9059cbb82866040518363ffffffff1660e01b815260040180836001600160a01b0316815260200182815260200192505050602060405180830381600087803b158015612b9057600080fd5b505af1158015612ba4573d6000803e3d6000fd5b505050506040513d6020811015612bba57600080fd5b5051612bc257fe5b806001600160a01b0316636a627842886040518263ffffffff1660e01b815260040180826001600160a01b03168152602001915050602060405180830381600087803b158015612c1157600080fd5b505af1158015612c25573d6000803e3d6000fd5b505050506040513d6020811015612c3b57600080fd5b5051925034841015612c5357612c533385340361312e565b505096509650969350505050565b60608142811015612ca7576040805162461bcd60e51b8152602060048201526018602482015260008051602061467e833981519152604482015290519081900360640190fd5b7f00000000000000000000000000000000000000000000000000000000000000006001600160a01b031686866000818110612cde57fe5b905060200201356001600160a01b03166001600160a01b031614612d37576040805162461bcd60e51b815260206004820152601d60248201526000805160206145b5833981519152604482015290519081900360640190fd5b612d957f00000000000000000000000000000000000000000000000000000000000000008888888080602002602001604051908101604052809392919081815260200183836020028082843760009201919091525061390c92505050565b91503482600081518110612da557fe5b60200260200101511115612dea5760405162461bcd60e51b815260040180806020018281038252602781526020018061458e6027913960400191505060405180910390fd5b7f00000000000000000000000000000000000000000000000000000000000000006001600160a01b031663d0e30db083600081518110612e2657fe5b60200260200101516040518263ffffffff1660e01b81526004016000604051808303818588803b158015612e5957600080fd5b505af1158015612e6d573d6000803e3d6000fd5b50505050507f00000000000000000000000000000000000000000000000000000000000000006001600160a01b031663a9059cbb612ed27f00000000000000000000000000000000000000000000000000000000000000008989600081811061170457fe5b84600081518110612edf57fe5b60200260200101516040518363ffffffff1660e01b815260040180836001600160a01b0316815260200182815260200192505050602060405180830381600087803b158015612f2d57600080fd5b505af1158015612f41573d6000803e3d6000fd5b505050506040513d6020811015612f5757600080fd5b5051612f5f57fe5b612f9e828787808060200260200160405190810160405280939291908181526020018383602002808284376000920191909152508992506136cf915050565b81600081518110612fab57fe5b6020026020010151341115611eb457611eb43383600081518110612fcb57fe5b6020026020010151340361312e565b604080516001600160a01b038481166024830152604480830185905283518084039091018152606490920183526020820180516001600160e01b031663a9059cbb60e01b178152925182516000946060949389169392918291908083835b602083106130575780518252601f199092019160209182019101613038565b6001836020036101000a0380198251168184511680821785525050505050509050019150506000604051808303816000865af19150503d80600081146130b9576040519150601f19603f3d011682016040523d82523d6000602084013e6130be565b606091505b50915091508180156130ec5750805115806130ec57508080602001905160208110156130e957600080fd5b50515b6131275760405162461bcd60e51b815260040180806020018281038252602d815260200180614626602d913960400191505060405180910390fd5b5050505050565b604080516000808252602082019092526001600160a01b0384169083906040518082805190602001908083835b6020831061317a5780518252601f19909201916020918201910161315b565b6001836020036101000a03801982511681845116808217855250505050505090500191505060006040518083038185875af1925050503d80600081146131dc576040519150601f19603f3d011682016040523d82523d6000602084013e6131e1565b606091505b50509050806132215760405162461bcd60e51b81526004018080602001828103825260348152602001806144c26034913960400191505060405180910390fd5b505050565b60008084116132665760405162461bcd60e51b815260040180806020018281038252602b815260200180614653602b913960400191505060405180910390fd5b6000831180156132765750600082115b6132b15760405162461bcd60e51b81526004018080602001828103825260288152602001806145416028913960400191505060405180910390fd5b6000336001600160a01b031663a0be06f96040518163ffffffff1660e01b815260040160206040518083038186803b1580156132ec57600080fd5b505afa158015613300573d6000803e3d6000fd5b505050506040513d602081101561331657600080fd5b50519050600061332686836142eb565b9050600061333482866142eb565b9050600061334e83613348896103e86142eb565b9061434e565b905080828161335957fe5b0498975050505050505050565b60606002825110156133bf576040805162461bcd60e51b815260206004820152601e60248201527f556e697377617056324c6962726172793a20494e56414c49445f504154480000604482015290519081900360640190fd5b815167ffffffffffffffff811180156133d757600080fd5b50604051908082528060200260200182016040528015613401578160200160208202803683370190505b509050828160008151811061341257fe5b60200260200101818152505060005b60018351038110156134aa576000806134648786858151811061344057fe5b602002602001015187866001018151811061345757fe5b602002602001015161439d565b9150915061348684848151811061347757fe5b60200260200101518383613226565b84846001018151811061349557fe5b60209081029190910101525050600101613421565b509392505050565b60008060006134c18585613f7c565b604080516bffffffffffffffffffffffff19606094851b811660208084019190915293851b81166034830152825160288184030181526048830184528051908501206001600160f81b031960688401529a90941b9093166069840152607d8301989098527ffc0d909b941a223f03a05103511f7b486aa41fc8e5fe699769e3e486b7da2f14609d808401919091528851808403909101815260bd909201909752805196019590952095945050505050565b604080516001600160a01b0385811660248301528481166044830152606480830185905283518084039091018152608490920183526020820180516001600160e01b03166323b872dd60e01b17815292518251600094606094938a169392918291908083835b602083106135f75780518252601f1990920191602091820191016135d8565b6001836020036101000a0380198251168184511680821785525050505050509050019150506000604051808303816000865af19150503d8060008114613659576040519150601f19603f3d011682016040523d82523d6000602084013e61365e565b606091505b509150915081801561368c57508051158061368c575080806020019051602081101561368957600080fd5b50515b6136c75760405162461bcd60e51b81526004018080602001828103825260318152602001806144916031913960400191505060405180910390fd5b505050505050565b60005b6001835103811015613906576000808483815181106136ed57fe5b602002602001015185846001018151811061370457fe5b602002602001015191509150600061371c8383613f7c565b509050600087856001018151811061373057fe5b60200260200101519050600080836001600160a01b0316866001600160a01b03161461375e57826000613762565b6000835b91509150600060028a5103881061377957886137ba565b6137ba7f0000000000000000000000000000000000000000000000000000000000000000878c8b600201815181106137ad57fe5b60200260200101516134b2565b90506137e77f000000000000000000000000000000000000000000000000000000000000000088886134b2565b6001600160a01b031663022c0d9f84848460006040519080825280601f01601f191660200182016040528015613824576020820181803683370190505b506040518563ffffffff1660e01b815260040180858152602001848152602001836001600160a01b0316815260200180602001828103825283818151815260200191508051906020019080838360005b8381101561388c578181015183820152602001613874565b50505050905090810190601f1680156138b95780820380516001836020036101000a031916815260200191505b5095505050505050600060405180830381600087803b1580156138db57600080fd5b505af11580156138ef573d6000803e3d6000fd5b5050600190990198506136d2975050505050505050565b50505050565b6060600282511015613965576040805162461bcd60e51b815260206004820152601e60248201527f556e697377617056324c6962726172793a20494e56414c49445f504154480000604482015290519081900360640190fd5b815167ffffffffffffffff8111801561397d57600080fd5b506040519080825280602002602001820160405280156139a7578160200160208202803683370190505b50905082816001835103815181106139bb57fe5b60209081029190910101528151600019015b80156134aa576000806139fd878660018603815181106139e957fe5b602002602001015187868151811061345757fe5b91509150613a1f848481518110613a1057fe5b60200260200101518383613d96565b846001850381518110613a2e57fe5b60209081029190910101525050600019016139cd565b60005b600183510381101561322157600080848381518110613a6257fe5b6020026020010151858460010181518110613a7957fe5b6020026020010151915091506000613a918383613f7c565b5090506000613ac17f000000000000000000000000000000000000000000000000000000000000000085856134b2565b9050600080600080846001600160a01b0316630902f1ac6040518163ffffffff1660e01b815260040160606040518083038186803b158015613b0257600080fd5b505afa158015613b16573d6000803e3d6000fd5b505050506040513d6060811015613b2c57600080fd5b5080516020909101516001600160701b0391821693501690506000806001600160a01b038a811690891614613b62578284613b65565b83835b91509150613bba828b6001600160a01b03166370a082318a6040518263ffffffff1660e01b815260040180826001600160a01b0316815260200191505060206040518083038186803b15801561187257600080fd5b9550613bc7868383613226565b945050505050600080856001600160a01b0316886001600160a01b031614613bf157826000613bf5565b6000835b91509150600060028c51038a10613c0c578a613c40565b613c407f0000000000000000000000000000000000000000000000000000000000000000898e8d600201815181106137ad57fe5b604080516000808252602082019283905263022c0d9f60e01b835260248201878152604483018790526001600160a01b038086166064850152608060848501908152845160a48601819052969750908c169563022c0d9f958a958a958a9591949193919260c486019290918190849084905b83811015613cca578181015183820152602001613cb2565b50505050905090810190601f168015613cf75780820380516001836020036101000a031916815260200191505b5095505050505050600060405180830381600087803b158015613d1957600080fd5b505af1158015613d2d573d6000803e3d6000fd5b50506001909b019a50613a479950505050505050505050565b80820382811115611183576040805162461bcd60e51b815260206004820152601560248201527464732d6d6174682d7375622d756e646572666c6f7760581b604482015290519081900360640190fd5b6000808411613dd65760405162461bcd60e51b815260040180806020018281038252602c815260200180614465602c913960400191505060405180910390fd5b600083118015613de65750600082115b613e215760405162461bcd60e51b81526004018080602001828103825260288152602001806145416028913960400191505060405180910390fd5b6000336001600160a01b031663a0be06f96040518163ffffffff1660e01b815260040160206040518083038186803b158015613e5c57600080fd5b505afa158015613e70573d6000803e3d6000fd5b505050506040513d6020811015613e8657600080fd5b505190506000613ea26103e8613e9c87896142eb565b906142eb565b90506000613eb483613e9c878a613d46565b9050613ecb6001828481613ec457fe5b049061434e565b979650505050505050565b6000808411613f165760405162461bcd60e51b81526004018080602001828103825260258152602001806145696025913960400191505060405180910390fd5b600083118015613f265750600082115b613f615760405162461bcd60e51b81526004018080602001828103825260288152602001806145416028913960400191505060405180910390fd5b82613f6c85846142eb565b81613f7357fe5b04949350505050565b600080826001600160a01b0316846001600160a01b03161415613fd05760405162461bcd60e51b81526004018080602001828103825260258152602001806144f66025913960400191505060405180910390fd5b826001600160a01b0316846001600160a01b031610613ff0578284613ff3565b83835b90925090506001600160a01b038216614053576040805162461bcd60e51b815260206004820152601e60248201527f556e697377617056324c6962726172793a205a45524f5f414444524553530000604482015290519081900360640190fd5b9250929050565b60008060006001600160a01b03167f00000000000000000000000000000000000000000000000000000000000000006001600160a01b031663e6a439058a8a6040518363ffffffff1660e01b815260040180836001600160a01b03168152602001826001600160a01b031681526020019250505060206040518083038186803b1580156140e657600080fd5b505afa1580156140fa573d6000803e3d6000fd5b505050506040513d602081101561411057600080fd5b50516001600160a01b031614156141ce577f00000000000000000000000000000000000000000000000000000000000000006001600160a01b031663c9c6539689896040518363ffffffff1660e01b815260040180836001600160a01b03168152602001826001600160a01b0316815260200192505050602060405180830381600087803b1580156141a157600080fd5b505af11580156141b5573d6000803e3d6000fd5b505050506040513d60208110156141cb57600080fd5b50505b6000806141fc7f00000000000000000000000000000000000000000000000000000000000000008b8b61439d565b9150915081600014801561420e575080155b1561421e578793508692506142de565b600061422b898484613ed6565b905087811161427e57858110156142735760405162461bcd60e51b815260040180806020018281038252602681526020018061451b6026913960400191505060405180910390fd5b8894509250826142dc565b600061428b898486613ed6565b90508981111561429757fe5b878110156142d65760405162461bcd60e51b81526004018080602001828103825260268152602001806145d56026913960400191505060405180910390fd5b94508793505b505b5050965096945050505050565b60008115806143065750508082028282828161430357fe5b04145b611183576040805162461bcd60e51b815260206004820152601460248201527364732d6d6174682d6d756c2d6f766572666c6f7760601b604482015290519081900360640190fd5b80820182811015611183576040805162461bcd60e51b815260206004820152601460248201527364732d6d6174682d6164642d6f766572666c6f7760601b604482015290519081900360640190fd5b60008060006143ac8585613f7c565b5090506000806143bd8888886134b2565b6001600160a01b0316630902f1ac6040518163ffffffff1660e01b815260040160606040518083038186803b1580156143f557600080fd5b505afa158015614409573d6000803e3d6000fd5b505050506040513d606081101561441f57600080fd5b5080516020909101516001600160701b0391821693501690506001600160a01b0387811690841614614452578082614455565b81815b9099909850965050505050505056fe556e697377617056324c6962726172793a20494e53554646494349454e545f4f55545055545f414d4f554e545472616e7366657248656c7065723a3a7472616e7366657246726f6d3a207472616e7366657246726f6d206661696c65645472616e7366657248656c7065723a3a736166655472616e736665724554483a20455448207472616e73666572206661696c6564556e697377617056324c6962726172793a204944454e544943414c5f414444524553534553556e69737761705632526f757465723a20494e53554646494349454e545f425f414d4f554e54556e697377617056324c6962726172793a20494e53554646494349454e545f4c4951554944495459556e697377617056324c6962726172793a20494e53554646494349454e545f414d4f554e54556e69737761705632526f757465723a204558434553534956455f494e5055545f414d4f554e54556e69737761705632526f757465723a20494e56414c49445f50415448000000556e69737761705632526f757465723a20494e53554646494349454e545f415f414d4f554e54556e69737761705632526f757465723a20494e53554646494349454e545f4f55545055545f414d4f554e545472616e7366657248656c7065723a3a736166655472616e736665723a207472616e73666572206661696c6564556e697377617056324c6962726172793a20494e53554646494349454e545f494e5055545f414d4f554e54556e69737761705632526f757465723a20455850495245440000000000000000a26469706673582212204816df23c97fc981a3a86a1f8ec757e6583c74ed42a870ce19a31c44056afa9a64736f6c634300060c0033",
					"opcodes": "PUSH1 0xC0 PUSH1 0x40 MSTORE CALLVALUE DUP1 ISZERO PUSH2 0x10 JUMPI PUSH1 0x0 DUP1 REVERT JUMPDEST POP PUSH1 0x40 MLOAD PUSH3 0x4864 CODESIZE SUB DUP1 PUSH3 0x4864 DUP4 CODECOPY DUP2 DUP2 ADD PUSH1 0x40 MSTORE PUSH1 0x60 DUP2 LT ISZERO PUSH2 0x35 JUMPI PUSH1 0x0 DUP1 REVERT JUMPDEST POP DUP1 MLOAD PUSH1 0x20 DUP3 ADD MLOAD PUSH1 0x40 SWAP1 SWAP3 ADD MLOAD PUSH1 0x1 PUSH1 0x1 PUSH1 0x60 SHL SUB NOT PUSH1 0x60 SWAP3 DUP4 SHL DUP2 AND PUSH1 0x80 MSTORE SWAP3 SWAP1 SWAP2 SHL SWAP1 SWAP2 AND PUSH1 0xA0 MSTORE PUSH1 0x0 SSTORE PUSH1 0x80 MLOAD PUSH1 0x60 SHR PUSH1 0xA0 MLOAD PUSH1 0x60 SHR PUSH2 0x46D3 PUSH3 0x191 PUSH1 0x0 CODECOPY DUP1 PUSH2 0x195 MSTORE DUP1 PUSH2 0xD44 MSTORE DUP1 PUSH2 0xD7F MSTORE DUP1 PUSH2 0xE76 MSTORE DUP1 PUSH2 0x1094 MSTORE DUP1 PUSH2 0x1424 MSTORE DUP1 PUSH2 0x158A MSTORE DUP1 PUSH2 0x1939 MSTORE DUP1 PUSH2 0x1A14 MSTORE DUP1 PUSH2 0x1AEE MSTORE DUP1 PUSH2 0x1BBC MSTORE DUP1 PUSH2 0x1D02 MSTORE DUP1 PUSH2 0x1D8A MSTORE DUP1 PUSH2 0x1FCC MSTORE DUP1 PUSH2 0x2047 MSTORE DUP1 PUSH2 0x20FB MSTORE DUP1 PUSH2 0x21C7 MSTORE DUP1 PUSH2 0x225C MSTORE DUP1 PUSH2 0x22D0 MSTORE DUP1 PUSH2 0x27B3 MSTORE DUP1 PUSH2 0x2A1D MSTORE DUP1 PUSH2 0x2A73 MSTORE DUP1 PUSH2 0x2AA7 MSTORE DUP1 PUSH2 0x2B1B MSTORE DUP1 PUSH2 0x2CA9 MSTORE DUP1 PUSH2 0x2DEC MSTORE DUP1 PUSH2 0x2E74 MSTORE POP DUP1 PUSH2 0xF04 MSTORE DUP1 PUSH2 0xFDB MSTORE DUP1 PUSH2 0x115A MSTORE DUP1 PUSH2 0x1193 MSTORE DUP1 PUSH2 0x12D4 MSTORE DUP1 PUSH2 0x14B2 MSTORE DUP1 PUSH2 0x1568 MSTORE DUP1 PUSH2 0x16D8 MSTORE DUP1 PUSH2 0x1C4F MSTORE DUP1 PUSH2 0x1DBC MSTORE DUP1 PUSH2 0x1F16 MSTORE DUP1 PUSH2 0x2302 MSTORE DUP1 PUSH2 0x2540 MSTORE DUP1 PUSH2 0x2738 MSTORE DUP1 PUSH2 0x2761 MSTORE DUP1 PUSH2 0x2791 MSTORE DUP1 PUSH2 0x28FE MSTORE DUP1 PUSH2 0x2A51 MSTORE DUP1 PUSH2 0x2D3C MSTORE DUP1 PUSH2 0x2EA6 MSTORE DUP1 PUSH2 0x377E MSTORE DUP1 PUSH2 0x37C1 MSTORE DUP1 PUSH2 0x3A9B MSTORE DUP1 PUSH2 0x3C11 MSTORE DUP1 PUSH2 0x406A MSTORE DUP1 PUSH2 0x4123 MSTORE DUP1 PUSH2 0x41D6 MSTORE POP PUSH2 0x46D3 PUSH1 0x0 RETURN INVALID PUSH1 0x80 PUSH1 0x40 MSTORE PUSH1 0x4 CALLDATASIZE LT PUSH2 0x185 JUMPI PUSH1 0x0 CALLDATALOAD PUSH1 0xE0 SHR DUP1 PUSH4 0x8803DBEE GT PUSH2 0xD1 JUMPI DUP1 PUSH4 0xBAA2ABDE GT PUSH2 0x8A JUMPI DUP1 PUSH4 0xDED9382A GT PUSH2 0x64 JUMPI DUP1 PUSH4 0xDED9382A EQ PUSH2 0xB3A JUMPI DUP1 PUSH4 0xE8E33700 EQ PUSH2 0xBAD JUMPI DUP1 PUSH4 0xF305D719 EQ PUSH2 0xC2D JUMPI DUP1 PUSH4 0xFB3BDB41 EQ PUSH2 0xC73 JUMPI PUSH2 0x1BE JUMP JUMPDEST DUP1 PUSH4 0xBAA2ABDE EQ PUSH2 0xA13 JUMPI DUP1 PUSH4 0xC45A0155 EQ PUSH2 0xA70 JUMPI DUP1 PUSH4 0xD06CA61F EQ PUSH2 0xA85 JUMPI PUSH2 0x1BE JUMP JUMPDEST DUP1 PUSH4 0x8803DBEE EQ PUSH2 0x82A JUMPI DUP1 PUSH4 0xA0BE06F9 EQ PUSH2 0x8C0 JUMPI DUP1 PUSH4 0xAD5C4648 EQ PUSH2 0x8D5 JUMPI DUP1 PUSH4 0xAD615DEC EQ PUSH2 0x906 JUMPI DUP1 PUSH4 0xAF2979EB EQ PUSH2 0x93C JUMPI DUP1 PUSH4 0xB6F9DE95 EQ PUSH2 0x98F JUMPI PUSH2 0x1BE JUMP JUMPDEST DUP1 PUSH4 0x38ED1739 GT PUSH2 0x13E JUMPI DUP1 PUSH4 0x5C11D795 GT PUSH2 0x118 JUMPI DUP1 PUSH4 0x5C11D795 EQ PUSH2 0x644 JUMPI DUP1 PUSH4 0x791AC947 EQ PUSH2 0x6DA JUMPI DUP1 PUSH4 0x7FF36AB5 EQ PUSH2 0x770 JUMPI DUP1 PUSH4 0x85F8C259 EQ PUSH2 0x7F4 JUMPI PUSH2 0x1BE JUMP JUMPDEST DUP1 PUSH4 0x38ED1739 EQ PUSH2 0x4A5 JUMPI DUP1 PUSH4 0x4A25D94A EQ PUSH2 0x53B JUMPI DUP1 PUSH4 0x5B0D5984 EQ PUSH2 0x5D1 JUMPI PUSH2 0x1BE JUMP JUMPDEST DUP1 PUSH4 0x2751CEC EQ PUSH2 0x1C3 JUMPI DUP1 PUSH4 0x54D50D4 EQ PUSH2 0x22F JUMPI DUP1 PUSH4 0x18CBAFE5 EQ PUSH2 0x277 JUMPI DUP1 PUSH4 0x1F00CA74 EQ PUSH2 0x35D JUMPI DUP1 PUSH4 0x2195995C EQ PUSH2 0x412 JUMPI DUP1 PUSH4 0x2A905CCC EQ PUSH2 0x490 JUMPI PUSH2 0x1BE JUMP JUMPDEST CALLDATASIZE PUSH2 0x1BE JUMPI CALLER PUSH1 0x1 PUSH1 0x1 PUSH1 0xA0 SHL SUB PUSH32 0x0 AND EQ PUSH2 0x1BC JUMPI INVALID JUMPDEST STOP JUMPDEST PUSH1 0x0 DUP1 REVERT JUMPDEST CALLVALUE DUP1 ISZERO PUSH2 0x1CF JUMPI PUSH1 0x0 DUP1 REVERT JUMPDEST POP PUSH2 0x216 PUSH1 0x4 DUP1 CALLDATASIZE SUB PUSH1 0xC0 DUP2 LT ISZERO PUSH2 0x1E6 JUMPI PUSH1 0x0 DUP1 REVERT JUMPDEST POP PUSH1 0x1 PUSH1 0x1 PUSH1 0xA0 SHL SUB DUP2 CALLDATALOAD DUP2 AND SWAP2 PUSH1 0x20 DUP2 ADD CALLDATALOAD SWAP2 PUSH1 0x40 DUP3 ADD CALLDATALOAD SWAP2 PUSH1 0x60 DUP2 ADD CALLDATALOAD SWAP2 PUSH1 0x80 DUP3 ADD CALLDATALOAD AND SWAP1 PUSH1 0xA0 ADD CALLDATALOAD PUSH2 0xCF7 JUMP JUMPDEST PUSH1 0x40 DUP1 MLOAD SWAP3 DUP4 MSTORE PUSH1 0x20 DUP4 ADD SWAP2 SWAP1 SWAP2 MSTORE DUP1 MLOAD SWAP2 DUP3 SWAP1 SUB ADD SWAP1 RETURN JUMPDEST CALLVALUE DUP1 ISZERO PUSH2 0x23B JUMPI PUSH1 0x0 DUP1 REVERT JUMPDEST POP PUSH2 0x265 PUSH1 0x4 DUP1 CALLDATASIZE SUB PUSH1 0x60 DUP2 LT ISZERO PUSH2 0x252 JUMPI PUSH1 0x0 DUP1 REVERT JUMPDEST POP DUP1 CALLDATALOAD SWAP1 PUSH1 0x20 DUP2 ADD CALLDATALOAD SWAP1 PUSH1 0x40 ADD CALLDATALOAD PUSH2 0xE11 JUMP JUMPDEST PUSH1 0x40 DUP1 MLOAD SWAP2 DUP3 MSTORE MLOAD SWAP1 DUP2 SWAP1 SUB PUSH1 0x20 ADD SWAP1 RETURN JUMPDEST CALLVALUE DUP1 ISZERO PUSH2 0x283 JUMPI PUSH1 0x0 DUP1 REVERT JUMPDEST POP PUSH2 0x30D PUSH1 0x4 DUP1 CALLDATASIZE SUB PUSH1 0xA0 DUP2 LT ISZERO PUSH2 0x29A JUMPI PUSH1 0x0 DUP1 REVERT JUMPDEST DUP2 CALLDATALOAD SWAP2 PUSH1 0x20 DUP2 ADD CALLDATALOAD SWAP2 DUP2 ADD SWAP1 PUSH1 0x60 DUP2 ADD PUSH1 0x40 DUP3 ADD CALLDATALOAD PUSH1 0x1 PUSH1 0x20 SHL DUP2 GT ISZERO PUSH2 0x2C0 JUMPI PUSH1 0x0 DUP1 REVERT JUMPDEST DUP3 ADD DUP4 PUSH1 0x20 DUP3 ADD GT ISZERO PUSH2 0x2D2 JUMPI PUSH1 0x0 DUP1 REVERT JUMPDEST DUP1 CALLDATALOAD SWAP1 PUSH1 0x20 ADD SWAP2 DUP5 PUSH1 0x20 DUP4 MUL DUP5 ADD GT PUSH1 0x1 PUSH1 0x20 SHL DUP4 GT OR ISZERO PUSH2 0x2F3 JUMPI PUSH1 0x0 DUP1 REVERT JUMPDEST SWAP2 SWAP4 POP SWAP2 POP PUSH1 0x1 PUSH1 0x1 PUSH1 0xA0 SHL SUB DUP2 CALLDATALOAD AND SWAP1 PUSH1 0x20 ADD CALLDATALOAD PUSH2 0xE26 JUMP JUMPDEST PUSH1 0x40 DUP1 MLOAD PUSH1 0x20 DUP1 DUP3 MSTORE DUP4 MLOAD DUP2 DUP4 ADD MSTORE DUP4 MLOAD SWAP2 SWAP3 DUP4 SWAP3 SWAP1 DUP4 ADD SWAP2 DUP6 DUP2 ADD SWAP2 MUL DUP1 DUP4 DUP4 PUSH1 0x0 JUMPDEST DUP4 DUP2 LT ISZERO PUSH2 0x349 JUMPI DUP2 DUP2 ADD MLOAD DUP4 DUP3 ADD MSTORE PUSH1 0x20 ADD PUSH2 0x331 JUMP JUMPDEST POP POP POP POP SWAP1 POP ADD SWAP3 POP POP POP PUSH1 0x40 MLOAD DUP1 SWAP2 SUB SWAP1 RETURN JUMPDEST CALLVALUE DUP1 ISZERO PUSH2 0x369 JUMPI PUSH1 0x0 DUP1 REVERT JUMPDEST POP PUSH2 0x30D PUSH1 0x4 DUP1 CALLDATASIZE SUB PUSH1 0x40 DUP2 LT ISZERO PUSH2 0x380 JUMPI PUSH1 0x0 DUP1 REVERT JUMPDEST DUP2 CALLDATALOAD SWAP2 SWAP1 DUP2 ADD SWAP1 PUSH1 0x40 DUP2 ADD PUSH1 0x20 DUP3 ADD CALLDATALOAD PUSH1 0x1 PUSH1 0x20 SHL DUP2 GT ISZERO PUSH2 0x3A1 JUMPI PUSH1 0x0 DUP1 REVERT JUMPDEST DUP3 ADD DUP4 PUSH1 0x20 DUP3 ADD GT ISZERO PUSH2 0x3B3 JUMPI PUSH1 0x0 DUP1 REVERT JUMPDEST DUP1 CALLDATALOAD SWAP1 PUSH1 0x20 ADD SWAP2 DUP5 PUSH1 0x20 DUP4 MUL DUP5 ADD GT PUSH1 0x1 PUSH1 0x20 SHL DUP4 GT OR ISZERO PUSH2 0x3D4 JUMPI PUSH1 0x0 DUP1 REVERT JUMPDEST SWAP2 SWAP1 DUP1 DUP1 PUSH1 0x20 MUL PUSH1 0x20 ADD PUSH1 0x40 MLOAD SWAP1 DUP2 ADD PUSH1 0x40 MSTORE DUP1 SWAP4 SWAP3 SWAP2 SWAP1 DUP2 DUP2 MSTORE PUSH1 0x20 ADD DUP4 DUP4 PUSH1 0x20 MUL DUP1 DUP3 DUP5 CALLDATACOPY PUSH1 0x0 SWAP3 ADD SWAP2 SWAP1 SWAP2 MSTORE POP SWAP3 SWAP6 POP PUSH2 0x1153 SWAP5 POP POP POP POP POP JUMP JUMPDEST CALLVALUE DUP1 ISZERO PUSH2 0x41E JUMPI PUSH1 0x0 DUP1 REVERT JUMPDEST POP PUSH2 0x216 PUSH1 0x4 DUP1 CALLDATASIZE SUB PUSH2 0x160 DUP2 LT ISZERO PUSH2 0x436 JUMPI PUSH1 0x0 DUP1 REVERT JUMPDEST POP PUSH1 0x1 PUSH1 0x1 PUSH1 0xA0 SHL SUB DUP2 CALLDATALOAD DUP2 AND SWAP2 PUSH1 0x20 DUP2 ADD CALLDATALOAD DUP3 AND SWAP2 PUSH1 0x40 DUP3 ADD CALLDATALOAD SWAP2 PUSH1 0x60 DUP2 ADD CALLDATALOAD SWAP2 PUSH1 0x80 DUP3 ADD CALLDATALOAD SWAP2 PUSH1 0xA0 DUP2 ADD CALLDATALOAD SWAP1 SWAP2 AND SWAP1 PUSH1 0xC0 DUP2 ADD CALLDATALOAD SWAP1 PUSH1 0xE0 DUP2 ADD CALLDATALOAD ISZERO ISZERO SWAP1 PUSH1 0xFF PUSH2 0x100 DUP3 ADD CALLDATALOAD AND SWAP1 PUSH2 0x120 DUP2 ADD CALLDATALOAD SWAP1 PUSH2 0x140 ADD CALLDATALOAD PUSH2 0x1189 JUMP JUMPDEST CALLVALUE DUP1 ISZERO PUSH2 0x49C JUMPI PUSH1 0x0 DUP1 REVERT JUMPDEST POP PUSH2 0x265 PUSH2 0x1283 JUMP JUMPDEST CALLVALUE DUP1 ISZERO PUSH2 0x4B1 JUMPI PUSH1 0x0 DUP1 REVERT JUMPDEST POP PUSH2 0x30D PUSH1 0x4 DUP1 CALLDATASIZE SUB PUSH1 0xA0 DUP2 LT ISZERO PUSH2 0x4C8 JUMPI PUSH1 0x0 DUP1 REVERT JUMPDEST DUP2 CALLDATALOAD SWAP2 PUSH1 0x20 DUP2 ADD CALLDATALOAD SWAP2 DUP2 ADD SWAP1 PUSH1 0x60 DUP2 ADD PUSH1 0x40 DUP3 ADD CALLDATALOAD PUSH1 0x1 PUSH1 0x20 SHL DUP2 GT ISZERO PUSH2 0x4EE JUMPI PUSH1 0x0 DUP1 REVERT JUMPDEST DUP3 ADD DUP4 PUSH1 0x20 DUP3 ADD GT ISZERO PUSH2 0x500 JUMPI PUSH1 0x0 DUP1 REVERT JUMPDEST DUP1 CALLDATALOAD SWAP1 PUSH1 0x20 ADD SWAP2 DUP5 PUSH1 0x20 DUP4 MUL DUP5 ADD GT PUSH1 0x1 PUSH1 0x20 SHL DUP4 GT OR ISZERO PUSH2 0x521 JUMPI PUSH1 0x0 DUP1 REVERT JUMPDEST SWAP2 SWAP4 POP SWAP2 POP PUSH1 0x1 PUSH1 0x1 PUSH1 0xA0 SHL SUB DUP2 CALLDATALOAD AND SWAP1 PUSH1 0x20 ADD CALLDATALOAD PUSH2 0x1289 JUMP JUMPDEST CALLVALUE DUP1 ISZERO PUSH2 0x547 JUMPI PUSH1 0x0 DUP1 REVERT JUMPDEST POP PUSH2 0x30D PUSH1 0x4 DUP1 CALLDATASIZE SUB PUSH1 0xA0 DUP2 LT ISZERO PUSH2 0x55E JUMPI PUSH1 0x0 DUP1 REVERT JUMPDEST DUP2 CALLDATALOAD SWAP2 PUSH1 0x20 DUP2 ADD CALLDATALOAD SWAP2 DUP2 ADD SWAP1 PUSH1 0x60 DUP2 ADD PUSH1 0x40 DUP3 ADD CALLDATALOAD PUSH1 0x1 PUSH1 0x20 SHL DUP2 GT ISZERO PUSH2 0x584 JUMPI PUSH1 0x0 DUP1 REVERT JUMPDEST DUP3 ADD DUP4 PUSH1 0x20 DUP3 ADD GT ISZERO PUSH2 0x596 JUMPI PUSH1 0x0 DUP1 REVERT JUMPDEST DUP1 CALLDATALOAD SWAP1 PUSH1 0x20 ADD SWAP2 DUP5 PUSH1 0x20 DUP4 MUL DUP5 ADD GT PUSH1 0x1 PUSH1 0x20 SHL DUP4 GT OR ISZERO PUSH2 0x5B7 JUMPI PUSH1 0x0 DUP1 REVERT JUMPDEST SWAP2 SWAP4 POP SWAP2 POP PUSH1 0x1 PUSH1 0x1 PUSH1 0xA0 SHL SUB DUP2 CALLDATALOAD AND SWAP1 PUSH1 0x20 ADD CALLDATALOAD PUSH2 0x13D4 JUMP JUMPDEST CALLVALUE DUP1 ISZERO PUSH2 0x5DD JUMPI PUSH1 0x0 DUP1 REVERT JUMPDEST POP PUSH2 0x265 PUSH1 0x4 DUP1 CALLDATASIZE SUB PUSH2 0x140 DUP2 LT ISZERO PUSH2 0x5F5 JUMPI PUSH1 0x0 DUP1 REVERT JUMPDEST POP PUSH1 0x1 PUSH1 0x1 PUSH1 0xA0 SHL SUB DUP2 CALLDATALOAD DUP2 AND SWAP2 PUSH1 0x20 DUP2 ADD CALLDATALOAD SWAP2 PUSH1 0x40 DUP3 ADD CALLDATALOAD SWAP2 PUSH1 0x60 DUP2 ADD CALLDATALOAD SWAP2 PUSH1 0x80 DUP3 ADD CALLDATALOAD AND SWAP1 PUSH1 0xA0 DUP2 ADD CALLDATALOAD SWAP1 PUSH1 0xC0 DUP2 ADD CALLDATALOAD ISZERO ISZERO SWAP1 PUSH1 0xFF PUSH1 0xE0 DUP3 ADD CALLDATALOAD AND SWAP1 PUSH2 0x100 DUP2 ADD CALLDATALOAD SWAP1 PUSH2 0x120 ADD CALLDATALOAD PUSH2 0x1560 JUMP JUMPDEST CALLVALUE DUP1 ISZERO PUSH2 0x650 JUMPI PUSH1 0x0 DUP1 REVERT JUMPDEST POP PUSH2 0x1BC PUSH1 0x4 DUP1 CALLDATASIZE SUB PUSH1 0xA0 DUP2 LT ISZERO PUSH2 0x667 JUMPI PUSH1 0x0 DUP1 REVERT JUMPDEST DUP2 CALLDATALOAD SWAP2 PUSH1 0x20 DUP2 ADD CALLDATALOAD SWAP2 DUP2 ADD SWAP1 PUSH1 0x60 DUP2 ADD PUSH1 0x40 DUP3 ADD CALLDATALOAD PUSH1 0x1 PUSH1 0x20 SHL DUP2 GT ISZERO PUSH2 0x68D JUMPI PUSH1 0x0 DUP1 REVERT JUMPDEST DUP3 ADD DUP4 PUSH1 0x20 DUP3 ADD GT ISZERO PUSH2 0x69F JUMPI PUSH1 0x0 DUP1 REVERT JUMPDEST DUP1 CALLDATALOAD SWAP1 PUSH1 0x20 ADD SWAP2 DUP5 PUSH1 0x20 DUP4 MUL DUP5 ADD GT PUSH1 0x1 PUSH1 0x20 SHL DUP4 GT OR ISZERO PUSH2 0x6C0 JUMPI PUSH1 0x0 DUP1 REVERT JUMPDEST SWAP2 SWAP4 POP SWAP2 POP PUSH1 0x1 PUSH1 0x1 PUSH1 0xA0 SHL SUB DUP2 CALLDATALOAD AND SWAP1 PUSH1 0x20 ADD CALLDATALOAD PUSH2 0x166E JUMP JUMPDEST CALLVALUE DUP1 ISZERO PUSH2 0x6E6 JUMPI PUSH1 0x0 DUP1 REVERT JUMPDEST POP PUSH2 0x1BC PUSH1 0x4 DUP1 CALLDATASIZE SUB PUSH1 0xA0 DUP2 LT ISZERO PUSH2 0x6FD JUMPI PUSH1 0x0 DUP1 REVERT JUMPDEST DUP2 CALLDATALOAD SWAP2 PUSH1 0x20 DUP2 ADD CALLDATALOAD SWAP2 DUP2 ADD SWAP1 PUSH1 0x60 DUP2 ADD PUSH1 0x40 DUP3 ADD CALLDATALOAD PUSH1 0x1 PUSH1 0x20 SHL DUP2 GT ISZERO PUSH2 0x723 JUMPI PUSH1 0x0 DUP1 REVERT JUMPDEST DUP3 ADD DUP4 PUSH1 0x20 DUP3 ADD GT ISZERO PUSH2 0x735 JUMPI PUSH1 0x0 DUP1 REVERT JUMPDEST DUP1 CALLDATALOAD SWAP1 PUSH1 0x20 ADD SWAP2 DUP5 PUSH1 0x20 DUP4 MUL DUP5 ADD GT PUSH1 0x1 PUSH1 0x20 SHL DUP4 GT OR ISZERO PUSH2 0x756 JUMPI PUSH1 0x0 DUP1 REVERT JUMPDEST SWAP2 SWAP4 POP SWAP2 POP PUSH1 0x1 PUSH1 0x1 PUSH1 0xA0 SHL SUB DUP2 CALLDATALOAD AND SWAP1 PUSH1 0x20 ADD CALLDATALOAD PUSH2 0x18EB JUMP JUMPDEST PUSH2 0x30D PUSH1 0x4 DUP1 CALLDATASIZE SUB PUSH1 0x80 DUP2 LT ISZERO PUSH2 0x786 JUMPI PUSH1 0x0 DUP1 REVERT JUMPDEST DUP2 CALLDATALOAD SWAP2 SWAP1 DUP2 ADD SWAP1 PUSH1 0x40 DUP2 ADD PUSH1 0x20 DUP3 ADD CALLDATALOAD PUSH1 0x1 PUSH1 0x20 SHL DUP2 GT ISZERO PUSH2 0x7A7 JUMPI PUSH1 0x0 DUP1 REVERT JUMPDEST DUP3 ADD DUP4 PUSH1 0x20 DUP3 ADD GT ISZERO PUSH2 0x7B9 JUMPI PUSH1 0x0 DUP1 REVERT JUMPDEST DUP1 CALLDATALOAD SWAP1 PUSH1 0x20 ADD SWAP2 DUP5 PUSH1 0x20 DUP4 MUL DUP5 ADD GT PUSH1 0x1 PUSH1 0x20 SHL DUP4 GT OR ISZERO PUSH2 0x7DA JUMPI PUSH1 0x0 DUP1 REVERT JUMPDEST SWAP2 SWAP4 POP SWAP2 POP PUSH1 0x1 PUSH1 0x1 PUSH1 0xA0 SHL SUB DUP2 CALLDATALOAD AND SWAP1 PUSH1 0x20 ADD CALLDATALOAD PUSH2 0x1B74 JUMP JUMPDEST CALLVALUE DUP1 ISZERO PUSH2 0x800 JUMPI PUSH1 0x0 DUP1 REVERT JUMPDEST POP PUSH2 0x265 PUSH1 0x4 DUP1 CALLDATASIZE SUB PUSH1 0x60 DUP2 LT ISZERO PUSH2 0x817 JUMPI PUSH1 0x0 DUP1 REVERT JUMPDEST POP DUP1 CALLDATALOAD SWAP1 PUSH1 0x20 DUP2 ADD CALLDATALOAD SWAP1 PUSH1 0x40 ADD CALLDATALOAD PUSH2 0x1EBE JUMP JUMPDEST CALLVALUE DUP1 ISZERO PUSH2 0x836 JUMPI PUSH1 0x0 DUP1 REVERT JUMPDEST POP PUSH2 0x30D PUSH1 0x4 DUP1 CALLDATASIZE SUB PUSH1 0xA0 DUP2 LT ISZERO PUSH2 0x84D JUMPI PUSH1 0x0 DUP1 REVERT JUMPDEST DUP2 CALLDATALOAD SWAP2 PUSH1 0x20 DUP2 ADD CALLDATALOAD SWAP2 DUP2 ADD SWAP1 PUSH1 0x60 DUP2 ADD PUSH1 0x40 DUP3 ADD CALLDATALOAD PUSH1 0x1 PUSH1 0x20 SHL DUP2 GT ISZERO PUSH2 0x873 JUMPI PUSH1 0x0 DUP1 REVERT JUMPDEST DUP3 ADD DUP4 PUSH1 0x20 DUP3 ADD GT ISZERO PUSH2 0x885 JUMPI PUSH1 0x0 DUP1 REVERT JUMPDEST DUP1 CALLDATALOAD SWAP1 PUSH1 0x20 ADD SWAP2 DUP5 PUSH1 0x20 DUP4 MUL DUP5 ADD GT PUSH1 0x1 PUSH1 0x20 SHL DUP4 GT OR ISZERO PUSH2 0x8A6 JUMPI PUSH1 0x0 DUP1 REVERT JUMPDEST SWAP2 SWAP4 POP SWAP2 POP PUSH1 0x1 PUSH1 0x1 PUSH1 0xA0 SHL SUB DUP2 CALLDATALOAD AND SWAP1 PUSH1 0x20 ADD CALLDATALOAD PUSH2 0x1ECB JUMP JUMPDEST CALLVALUE DUP1 ISZERO PUSH2 0x8CC JUMPI PUSH1 0x0 DUP1 REVERT JUMPDEST POP PUSH2 0x265 PUSH2 0x1FC4 JUMP JUMPDEST CALLVALUE DUP1 ISZERO PUSH2 0x8E1 JUMPI PUSH1 0x0 DUP1 REVERT JUMPDEST POP PUSH2 0x8EA PUSH2 0x1FCA JUMP JUMPDEST PUSH1 0x40 DUP1 MLOAD PUSH1 0x1 PUSH1 0x1 PUSH1 0xA0 SHL SUB SWAP1 SWAP3 AND DUP3 MSTORE MLOAD SWAP1 DUP2 SWAP1 SUB PUSH1 0x20 ADD SWAP1 RETURN JUMPDEST CALLVALUE DUP1 ISZERO PUSH2 0x912 JUMPI PUSH1 0x0 DUP1 REVERT JUMPDEST POP PUSH2 0x265 PUSH1 0x4 DUP1 CALLDATASIZE SUB PUSH1 0x60 DUP2 LT ISZERO PUSH2 0x929 JUMPI PUSH1 0x0 DUP1 REVERT JUMPDEST POP DUP1 CALLDATALOAD SWAP1 PUSH1 0x20 DUP2 ADD CALLDATALOAD SWAP1 PUSH1 0x40 ADD CALLDATALOAD PUSH2 0x1FEE JUMP JUMPDEST CALLVALUE DUP1 ISZERO PUSH2 0x948 JUMPI PUSH1 0x0 DUP1 REVERT JUMPDEST POP PUSH2 0x265 PUSH1 0x4 DUP1 CALLDATASIZE SUB PUSH1 0xC0 DUP2 LT ISZERO PUSH2 0x95F JUMPI PUSH1 0x0 DUP1 REVERT JUMPDEST POP PUSH1 0x1 PUSH1 0x1 PUSH1 0xA0 SHL SUB DUP2 CALLDATALOAD DUP2 AND SWAP2 PUSH1 0x20 DUP2 ADD CALLDATALOAD SWAP2 PUSH1 0x40 DUP3 ADD CALLDATALOAD SWAP2 PUSH1 0x60 DUP2 ADD CALLDATALOAD SWAP2 PUSH1 0x80 DUP3 ADD CALLDATALOAD AND SWAP1 PUSH1 0xA0 ADD CALLDATALOAD PUSH2 0x1FFB JUMP JUMPDEST PUSH2 0x1BC PUSH1 0x4 DUP1 CALLDATASIZE SUB PUSH1 0x80 DUP2 LT ISZERO PUSH2 0x9A5 JUMPI PUSH1 0x0 DUP1 REVERT JUMPDEST DUP2 CALLDATALOAD SWAP2 SWAP1 DUP2 ADD SWAP1 PUSH1 0x40 DUP2 ADD PUSH1 0x20 DUP3 ADD CALLDATALOAD PUSH1 0x1 PUSH1 0x20 SHL DUP2 GT ISZERO PUSH2 0x9C6 JUMPI PUSH1 0x0 DUP1 REVERT JUMPDEST DUP3 ADD DUP4 PUSH1 0x20 DUP3 ADD GT ISZERO PUSH2 0x9D8 JUMPI PUSH1 0x0 DUP1 REVERT JUMPDEST DUP1 CALLDATALOAD SWAP1 PUSH1 0x20 ADD SWAP2 DUP5 PUSH1 0x20 DUP4 MUL DUP5 ADD GT PUSH1 0x1 PUSH1 0x20 SHL DUP4 GT OR ISZERO PUSH2 0x9F9 JUMPI PUSH1 0x0 DUP1 REVERT JUMPDEST SWAP2 SWAP4 POP SWAP2 POP PUSH1 0x1 PUSH1 0x1 PUSH1 0xA0 SHL SUB DUP2 CALLDATALOAD AND SWAP1 PUSH1 0x20 ADD CALLDATALOAD PUSH2 0x2181 JUMP JUMPDEST CALLVALUE DUP1 ISZERO PUSH2 0xA1F JUMPI PUSH1 0x0 DUP1 REVERT JUMPDEST POP PUSH2 0x216 PUSH1 0x4 DUP1 CALLDATASIZE SUB PUSH1 0xE0 DUP2 LT ISZERO PUSH2 0xA36 JUMPI PUSH1 0x0 DUP1 REVERT JUMPDEST POP PUSH1 0x1 PUSH1 0x1 PUSH1 0xA0 SHL SUB DUP2 CALLDATALOAD DUP2 AND SWAP2 PUSH1 0x20 DUP2 ADD CALLDATALOAD DUP3 AND SWAP2 PUSH1 0x40 DUP3 ADD CALLDATALOAD SWAP2 PUSH1 0x60 DUP2 ADD CALLDATALOAD SWAP2 PUSH1 0x80 DUP3 ADD CALLDATALOAD SWAP2 PUSH1 0xA0 DUP2 ADD CALLDATALOAD SWAP1 SWAP2 AND SWAP1 PUSH1 0xC0 ADD CALLDATALOAD PUSH2 0x24F2 JUMP JUMPDEST CALLVALUE DUP1 ISZERO PUSH2 0xA7C JUMPI PUSH1 0x0 DUP1 REVERT JUMPDEST POP PUSH2 0x8EA PUSH2 0x2736 JUMP JUMPDEST CALLVALUE DUP1 ISZERO PUSH2 0xA91 JUMPI PUSH1 0x0 DUP1 REVERT JUMPDEST POP PUSH2 0x30D PUSH1 0x4 DUP1 CALLDATASIZE SUB PUSH1 0x40 DUP2 LT ISZERO PUSH2 0xAA8 JUMPI PUSH1 0x0 DUP1 REVERT JUMPDEST DUP2 CALLDATALOAD SWAP2 SWAP1 DUP2 ADD SWAP1 PUSH1 0x40 DUP2 ADD PUSH1 0x20 DUP3 ADD CALLDATALOAD PUSH1 0x1 PUSH1 0x20 SHL DUP2 GT ISZERO PUSH2 0xAC9 JUMPI PUSH1 0x0 DUP1 REVERT JUMPDEST DUP3 ADD DUP4 PUSH1 0x20 DUP3 ADD GT ISZERO PUSH2 0xADB JUMPI PUSH1 0x0 DUP1 REVERT JUMPDEST DUP1 CALLDATALOAD SWAP1 PUSH1 0x20 ADD SWAP2 DUP5 PUSH1 0x20 DUP4 MUL DUP5 ADD GT PUSH1 0x1 PUSH1 0x20 SHL DUP4 GT OR ISZERO PUSH2 0xAFC JUMPI PUSH1 0x0 DUP1 REVERT JUMPDEST SWAP2 SWAP1 DUP1 DUP1 PUSH1 0x20 MUL PUSH1 0x20 ADD PUSH1 0x40 MLOAD SWAP1 DUP2 ADD PUSH1 0x40 MSTORE DUP1 SWAP4 SWAP3 SWAP2 SWAP1 DUP2 DUP2 MSTORE PUSH1 0x20 ADD DUP4 DUP4 PUSH1 0x20 MUL DUP1 DUP3 DUP5 CALLDATACOPY PUSH1 0x0 SWAP3 ADD SWAP2 SWAP1 SWAP2 MSTORE POP SWAP3 SWAP6 POP PUSH2 0x275A SWAP5 POP POP POP POP POP JUMP JUMPDEST CALLVALUE DUP1 ISZERO PUSH2 0xB46 JUMPI PUSH1 0x0 DUP1 REVERT JUMPDEST POP PUSH2 0x216 PUSH1 0x4 DUP1 CALLDATASIZE SUB PUSH2 0x140 DUP2 LT ISZERO PUSH2 0xB5E JUMPI PUSH1 0x0 DUP1 REVERT JUMPDEST POP PUSH1 0x1 PUSH1 0x1 PUSH1 0xA0 SHL SUB DUP2 CALLDATALOAD DUP2 AND SWAP2 PUSH1 0x20 DUP2 ADD CALLDATALOAD SWAP2 PUSH1 0x40 DUP3 ADD CALLDATALOAD SWAP2 PUSH1 0x60 DUP2 ADD CALLDATALOAD SWAP2 PUSH1 0x80 DUP3 ADD CALLDATALOAD AND SWAP1 PUSH1 0xA0 DUP2 ADD CALLDATALOAD SWAP1 PUSH1 0xC0 DUP2 ADD CALLDATALOAD ISZERO ISZERO SWAP1 PUSH1 0xFF PUSH1 0xE0 DUP3 ADD CALLDATALOAD AND SWAP1 PUSH2 0x100 DUP2 ADD CALLDATALOAD SWAP1 PUSH2 0x120 ADD CALLDATALOAD PUSH2 0x2787 JUMP JUMPDEST CALLVALUE DUP1 ISZERO PUSH2 0xBB9 JUMPI PUSH1 0x0 DUP1 REVERT JUMPDEST POP PUSH2 0xC0F PUSH1 0x4 DUP1 CALLDATASIZE SUB PUSH2 0x100 DUP2 LT ISZERO PUSH2 0xBD1 JUMPI PUSH1 0x0 DUP1 REVERT JUMPDEST POP PUSH1 0x1 PUSH1 0x1 PUSH1 0xA0 SHL SUB DUP2 CALLDATALOAD DUP2 AND SWAP2 PUSH1 0x20 DUP2 ADD CALLDATALOAD DUP3 AND SWAP2 PUSH1 0x40 DUP3 ADD CALLDATALOAD SWAP2 PUSH1 0x60 DUP2 ADD CALLDATALOAD SWAP2 PUSH1 0x80 DUP3 ADD CALLDATALOAD SWAP2 PUSH1 0xA0 DUP2 ADD CALLDATALOAD SWAP2 PUSH1 0xC0 DUP3 ADD CALLDATALOAD AND SWAP1 PUSH1 0xE0 ADD CALLDATALOAD PUSH2 0x289B JUMP JUMPDEST PUSH1 0x40 DUP1 MLOAD SWAP4 DUP5 MSTORE PUSH1 0x20 DUP5 ADD SWAP3 SWAP1 SWAP3 MSTORE DUP3 DUP3 ADD MSTORE MLOAD SWAP1 DUP2 SWAP1 SUB PUSH1 0x60 ADD SWAP1 RETURN JUMPDEST PUSH2 0xC0F PUSH1 0x4 DUP1 CALLDATASIZE SUB PUSH1 0xC0 DUP2 LT ISZERO PUSH2 0xC43 JUMPI PUSH1 0x0 DUP1 REVERT JUMPDEST POP PUSH1 0x1 PUSH1 0x1 PUSH1 0xA0 SHL SUB DUP2 CALLDATALOAD DUP2 AND SWAP2 PUSH1 0x20 DUP2 ADD CALLDATALOAD SWAP2 PUSH1 0x40 DUP3 ADD CALLDATALOAD SWAP2 PUSH1 0x60 DUP2 ADD CALLDATALOAD SWAP2 PUSH1 0x80 DUP3 ADD CALLDATALOAD AND SWAP1 PUSH1 0xA0 ADD CALLDATALOAD PUSH2 0x29CE JUMP JUMPDEST PUSH2 0x30D PUSH1 0x4 DUP1 CALLDATASIZE SUB PUSH1 0x80 DUP2 LT ISZERO PUSH2 0xC89 JUMPI PUSH1 0x0 DUP1 REVERT JUMPDEST DUP2 CALLDATALOAD SWAP2 SWAP1 DUP2 ADD SWAP1 PUSH1 0x40 DUP2 ADD PUSH1 0x20 DUP3 ADD CALLDATALOAD PUSH1 0x1 PUSH1 0x20 SHL DUP2 GT ISZERO PUSH2 0xCAA JUMPI PUSH1 0x0 DUP1 REVERT JUMPDEST DUP3 ADD DUP4 PUSH1 0x20 DUP3 ADD GT ISZERO PUSH2 0xCBC JUMPI PUSH1 0x0 DUP1 REVERT JUMPDEST DUP1 CALLDATALOAD SWAP1 PUSH1 0x20 ADD SWAP2 DUP5 PUSH1 0x20 DUP4 MUL DUP5 ADD GT PUSH1 0x1 PUSH1 0x20 SHL DUP4 GT OR ISZERO PUSH2 0xCDD JUMPI PUSH1 0x0 DUP1 REVERT JUMPDEST SWAP2 SWAP4 POP SWAP2 POP PUSH1 0x1 PUSH1 0x1 PUSH1 0xA0 SHL SUB DUP2 CALLDATALOAD AND SWAP1 PUSH1 0x20 ADD CALLDATALOAD PUSH2 0x2C61 JUMP JUMPDEST PUSH1 0x0 DUP1 DUP3 TIMESTAMP DUP2 LT ISZERO PUSH2 0xD3E JUMPI PUSH1 0x40 DUP1 MLOAD PUSH3 0x461BCD PUSH1 0xE5 SHL DUP2 MSTORE PUSH1 0x20 PUSH1 0x4 DUP3 ADD MSTORE PUSH1 0x18 PUSH1 0x24 DUP3 ADD MSTORE PUSH1 0x0 DUP1 MLOAD PUSH1 0x20 PUSH2 0x467E DUP4 CODECOPY DUP2 MLOAD SWAP2 MSTORE PUSH1 0x44 DUP3 ADD MSTORE SWAP1 MLOAD SWAP1 DUP2 SWAP1 SUB PUSH1 0x64 ADD SWAP1 REVERT JUMPDEST PUSH2 0xD6D DUP10 PUSH32 0x0 DUP11 DUP11 DUP11 ADDRESS DUP11 PUSH2 0x24F2 JUMP JUMPDEST SWAP1 SWAP4 POP SWAP2 POP PUSH2 0xD7D DUP10 DUP7 DUP6 PUSH2 0x2FDA JUMP JUMPDEST PUSH32 0x0 PUSH1 0x1 PUSH1 0x1 PUSH1 0xA0 SHL SUB AND PUSH4 0x2E1A7D4D DUP4 PUSH1 0x40 MLOAD DUP3 PUSH4 0xFFFFFFFF AND PUSH1 0xE0 SHL DUP2 MSTORE PUSH1 0x4 ADD DUP1 DUP3 DUP2 MSTORE PUSH1 0x20 ADD SWAP2 POP POP PUSH1 0x0 PUSH1 0x40 MLOAD DUP1 DUP4 SUB DUP2 PUSH1 0x0 DUP8 DUP1 EXTCODESIZE ISZERO DUP1 ISZERO PUSH2 0xDE3 JUMPI PUSH1 0x0 DUP1 REVERT JUMPDEST POP GAS CALL ISZERO DUP1 ISZERO PUSH2 0xDF7 JUMPI RETURNDATASIZE PUSH1 0x0 DUP1 RETURNDATACOPY RETURNDATASIZE PUSH1 0x0 REVERT JUMPDEST POP POP POP POP PUSH2 0xE05 DUP6 DUP4 PUSH2 0x312E JUMP JUMPDEST POP SWAP7 POP SWAP7 SWAP5 POP POP POP POP POP JUMP JUMPDEST PUSH1 0x0 PUSH2 0xE1E DUP5 DUP5 DUP5 PUSH2 0x3226 JUMP JUMPDEST SWAP5 SWAP4 POP POP POP POP JUMP JUMPDEST PUSH1 0x60 DUP2 TIMESTAMP DUP2 LT ISZERO PUSH2 0xE6C JUMPI PUSH1 0x40 DUP1 MLOAD PUSH3 0x461BCD PUSH1 0xE5 SHL DUP2 MSTORE PUSH1 0x20 PUSH1 0x4 DUP3 ADD MSTORE PUSH1 0x18 PUSH1 0x24 DUP3 ADD MSTORE PUSH1 0x0 DUP1 MLOAD PUSH1 0x20 PUSH2 0x467E DUP4 CODECOPY DUP2 MLOAD SWAP2 MSTORE PUSH1 0x44 DUP3 ADD MSTORE SWAP1 MLOAD SWAP1 DUP2 SWAP1 SUB PUSH1 0x64 ADD SWAP1 REVERT JUMPDEST PUSH1 0x1 PUSH1 0x1 PUSH1 0xA0 SHL SUB PUSH32 0x0 AND DUP7 DUP7 PUSH1 0x0 NOT DUP2 ADD DUP2 DUP2 LT PUSH2 0xEA6 JUMPI INVALID JUMPDEST SWAP1 POP PUSH1 0x20 MUL ADD CALLDATALOAD PUSH1 0x1 PUSH1 0x1 PUSH1 0xA0 SHL SUB AND PUSH1 0x1 PUSH1 0x1 PUSH1 0xA0 SHL SUB AND EQ PUSH2 0xEFF JUMPI PUSH1 0x40 DUP1 MLOAD PUSH3 0x461BCD PUSH1 0xE5 SHL DUP2 MSTORE PUSH1 0x20 PUSH1 0x4 DUP3 ADD MSTORE PUSH1 0x1D PUSH1 0x24 DUP3 ADD MSTORE PUSH1 0x0 DUP1 MLOAD PUSH1 0x20 PUSH2 0x45B5 DUP4 CODECOPY DUP2 MLOAD SWAP2 MSTORE PUSH1 0x44 DUP3 ADD MSTORE SWAP1 MLOAD SWAP1 DUP2 SWAP1 SUB PUSH1 0x64 ADD SWAP1 REVERT JUMPDEST PUSH2 0xF5D PUSH32 0x0 DUP10 DUP9 DUP9 DUP1 DUP1 PUSH1 0x20 MUL PUSH1 0x20 ADD PUSH1 0x40 MLOAD SWAP1 DUP2 ADD PUSH1 0x40 MSTORE DUP1 SWAP4 SWAP3 SWAP2 SWAP1 DUP2 DUP2 MSTORE PUSH1 0x20 ADD DUP4 DUP4 PUSH1 0x20 MUL DUP1 DUP3 DUP5 CALLDATACOPY PUSH1 0x0 SWAP3 ADD SWAP2 SWAP1 SWAP2 MSTORE POP PUSH2 0x3366 SWAP3 POP POP POP JUMP JUMPDEST SWAP2 POP DUP7 DUP3 PUSH1 0x1 DUP5 MLOAD SUB DUP2 MLOAD DUP2 LT PUSH2 0xF70 JUMPI INVALID JUMPDEST PUSH1 0x20 MUL PUSH1 0x20 ADD ADD MLOAD LT ISZERO PUSH2 0xFB5 JUMPI PUSH1 0x40 MLOAD PUSH3 0x461BCD PUSH1 0xE5 SHL DUP2 MSTORE PUSH1 0x4 ADD DUP1 DUP1 PUSH1 0x20 ADD DUP3 DUP2 SUB DUP3 MSTORE PUSH1 0x2B DUP2 MSTORE PUSH1 0x20 ADD DUP1 PUSH2 0x45FB PUSH1 0x2B SWAP2 CODECOPY PUSH1 0x40 ADD SWAP2 POP POP PUSH1 0x40 MLOAD DUP1 SWAP2 SUB SWAP1 REVERT JUMPDEST PUSH2 0x1053 DUP7 DUP7 PUSH1 0x0 DUP2 DUP2 LT PUSH2 0xFC5 JUMPI INVALID JUMPDEST SWAP1 POP PUSH1 0x20 MUL ADD CALLDATALOAD PUSH1 0x1 PUSH1 0x1 PUSH1 0xA0 SHL SUB AND CALLER PUSH2 0x1039 PUSH32 0x0 DUP11 DUP11 PUSH1 0x0 DUP2 DUP2 LT PUSH2 0x1007 JUMPI INVALID JUMPDEST SWAP1 POP PUSH1 0x20 MUL ADD CALLDATALOAD PUSH1 0x1 PUSH1 0x1 PUSH1 0xA0 SHL SUB AND DUP12 DUP12 PUSH1 0x1 DUP2 DUP2 LT PUSH2 0x1024 JUMPI INVALID JUMPDEST SWAP1 POP PUSH1 0x20 MUL ADD CALLDATALOAD PUSH1 0x1 PUSH1 0x1 PUSH1 0xA0 SHL SUB AND PUSH2 0x34B2 JUMP JUMPDEST DUP6 PUSH1 0x0 DUP2 MLOAD DUP2 LT PUSH2 0x1046 JUMPI INVALID JUMPDEST PUSH1 0x20 MUL PUSH1 0x20 ADD ADD MLOAD PUSH2 0x3572 JUMP JUMPDEST PUSH2 0x1092 DUP3 DUP8 DUP8 DUP1 DUP1 PUSH1 0x20 MUL PUSH1 0x20 ADD PUSH1 0x40 MLOAD SWAP1 DUP2 ADD PUSH1 0x40 MSTORE DUP1 SWAP4 SWAP3 SWAP2 SWAP1 DUP2 DUP2 MSTORE PUSH1 0x20 ADD DUP4 DUP4 PUSH1 0x20 MUL DUP1 DUP3 DUP5 CALLDATACOPY PUSH1 0x0 SWAP3 ADD SWAP2 SWAP1 SWAP2 MSTORE POP ADDRESS SWAP3 POP PUSH2 0x36CF SWAP2 POP POP JUMP JUMPDEST PUSH32 0x0 PUSH1 0x1 PUSH1 0x1 PUSH1 0xA0 SHL SUB AND PUSH4 0x2E1A7D4D DUP4 PUSH1 0x1 DUP6 MLOAD SUB DUP2 MLOAD DUP2 LT PUSH2 0x10D1 JUMPI INVALID JUMPDEST PUSH1 0x20 MUL PUSH1 0x20 ADD ADD MLOAD PUSH1 0x40 MLOAD DUP3 PUSH4 0xFFFFFFFF AND PUSH1 0xE0 SHL DUP2 MSTORE PUSH1 0x4 ADD DUP1 DUP3 DUP2 MSTORE PUSH1 0x20 ADD SWAP2 POP POP PUSH1 0x0 PUSH1 0x40 MLOAD DUP1 DUP4 SUB DUP2 PUSH1 0x0 DUP8 DUP1 EXTCODESIZE ISZERO DUP1 ISZERO PUSH2 0x110F JUMPI PUSH1 0x0 DUP1 REVERT JUMPDEST POP GAS CALL ISZERO DUP1 ISZERO PUSH2 0x1123 JUMPI RETURNDATASIZE PUSH1 0x0 DUP1 RETURNDATACOPY RETURNDATASIZE PUSH1 0x0 REVERT JUMPDEST POP POP POP POP PUSH2 0x1148 DUP5 DUP4 PUSH1 0x1 DUP6 MLOAD SUB DUP2 MLOAD DUP2 LT PUSH2 0x113B JUMPI INVALID JUMPDEST PUSH1 0x20 MUL PUSH1 0x20 ADD ADD MLOAD PUSH2 0x312E JUMP JUMPDEST POP SWAP7 SWAP6 POP POP POP POP POP POP JUMP JUMPDEST PUSH1 0x60 PUSH2 0x1180 PUSH32 0x0 DUP5 DUP5 PUSH2 0x390C JUMP JUMPDEST SWAP1 POP JUMPDEST SWAP3 SWAP2 POP POP JUMP JUMPDEST PUSH1 0x0 DUP1 PUSH1 0x0 PUSH2 0x11B9 PUSH32 0x0 DUP16 DUP16 PUSH2 0x34B2 JUMP JUMPDEST SWAP1 POP PUSH1 0x0 DUP8 PUSH2 0x11C8 JUMPI DUP13 PUSH2 0x11CC JUMP JUMPDEST PUSH1 0x0 NOT JUMPDEST PUSH1 0x40 DUP1 MLOAD PUSH4 0xD505ACCF PUSH1 0xE0 SHL DUP2 MSTORE CALLER PUSH1 0x4 DUP3 ADD MSTORE ADDRESS PUSH1 0x24 DUP3 ADD MSTORE PUSH1 0x44 DUP2 ADD DUP4 SWAP1 MSTORE PUSH1 0x64 DUP2 ADD DUP13 SWAP1 MSTORE PUSH1 0xFF DUP11 AND PUSH1 0x84 DUP3 ADD MSTORE PUSH1 0xA4 DUP2 ADD DUP10 SWAP1 MSTORE PUSH1 0xC4 DUP2 ADD DUP9 SWAP1 MSTORE SWAP1 MLOAD SWAP2 SWAP3 POP PUSH1 0x1 PUSH1 0x1 PUSH1 0xA0 SHL SUB DUP5 AND SWAP2 PUSH4 0xD505ACCF SWAP2 PUSH1 0xE4 DUP1 DUP3 ADD SWAP3 PUSH1 0x0 SWAP3 SWAP1 SWAP2 SWAP1 DUP3 SWAP1 SUB ADD DUP2 DUP4 DUP8 DUP1 EXTCODESIZE ISZERO DUP1 ISZERO PUSH2 0x1242 JUMPI PUSH1 0x0 DUP1 REVERT JUMPDEST POP GAS CALL ISZERO DUP1 ISZERO PUSH2 0x1256 JUMPI RETURNDATASIZE PUSH1 0x0 DUP1 RETURNDATACOPY RETURNDATASIZE PUSH1 0x0 REVERT JUMPDEST POP POP POP POP PUSH2 0x1269 DUP16 DUP16 DUP16 DUP16 DUP16 DUP16 DUP16 PUSH2 0x24F2 JUMP JUMPDEST DUP1 SWAP5 POP DUP2 SWAP6 POP POP POP POP POP SWAP12 POP SWAP12 SWAP10 POP POP POP POP POP POP POP POP POP POP JUMP JUMPDEST PUSH1 0x0 SLOAD SWAP1 JUMP JUMPDEST PUSH1 0x60 DUP2 TIMESTAMP DUP2 LT ISZERO PUSH2 0x12CF JUMPI PUSH1 0x40 DUP1 MLOAD PUSH3 0x461BCD PUSH1 0xE5 SHL DUP2 MSTORE PUSH1 0x20 PUSH1 0x4 DUP3 ADD MSTORE PUSH1 0x18 PUSH1 0x24 DUP3 ADD MSTORE PUSH1 0x0 DUP1 MLOAD PUSH1 0x20 PUSH2 0x467E DUP4 CODECOPY DUP2 MLOAD SWAP2 MSTORE PUSH1 0x44 DUP3 ADD MSTORE SWAP1 MLOAD SWAP1 DUP2 SWAP1 SUB PUSH1 0x64 ADD SWAP1 REVERT JUMPDEST PUSH2 0x132D PUSH32 0x0 DUP10 DUP9 DUP9 DUP1 DUP1 PUSH1 0x20 MUL PUSH1 0x20 ADD PUSH1 0x40 MLOAD SWAP1 DUP2 ADD PUSH1 0x40 MSTORE DUP1 SWAP4 SWAP3 SWAP2 SWAP1 DUP2 DUP2 MSTORE PUSH1 0x20 ADD DUP4 DUP4 PUSH1 0x20 MUL DUP1 DUP3 DUP5 CALLDATACOPY PUSH1 0x0 SWAP3 ADD SWAP2 SWAP1 SWAP2 MSTORE POP PUSH2 0x3366 SWAP3 POP POP POP JUMP JUMPDEST SWAP2 POP DUP7 DUP3 PUSH1 0x1 DUP5 MLOAD SUB DUP2 MLOAD DUP2 LT PUSH2 0x1340 JUMPI INVALID JUMPDEST PUSH1 0x20 MUL PUSH1 0x20 ADD ADD MLOAD LT ISZERO PUSH2 0x1385 JUMPI PUSH1 0x40 MLOAD PUSH3 0x461BCD PUSH1 0xE5 SHL DUP2 MSTORE PUSH1 0x4 ADD DUP1 DUP1 PUSH1 0x20 ADD DUP3 DUP2 SUB DUP3 MSTORE PUSH1 0x2B DUP2 MSTORE PUSH1 0x20 ADD DUP1 PUSH2 0x45FB PUSH1 0x2B SWAP2 CODECOPY PUSH1 0x40 ADD SWAP2 POP POP PUSH1 0x40 MLOAD DUP1 SWAP2 SUB SWAP1 REVERT JUMPDEST PUSH2 0x1395 DUP7 DUP7 PUSH1 0x0 DUP2 DUP2 LT PUSH2 0xFC5 JUMPI INVALID JUMPDEST PUSH2 0x1148 DUP3 DUP8 DUP8 DUP1 DUP1 PUSH1 0x20 MUL PUSH1 0x20 ADD PUSH1 0x40 MLOAD SWAP1 DUP2 ADD PUSH1 0x40 MSTORE DUP1 SWAP4 SWAP3 SWAP2 SWAP1 DUP2 DUP2 MSTORE PUSH1 0x20 ADD DUP4 DUP4 PUSH1 0x20 MUL DUP1 DUP3 DUP5 CALLDATACOPY PUSH1 0x0 SWAP3 ADD SWAP2 SWAP1 SWAP2 MSTORE POP DUP10 SWAP3 POP PUSH2 0x36CF SWAP2 POP POP JUMP JUMPDEST PUSH1 0x60 DUP2 TIMESTAMP DUP2 LT ISZERO PUSH2 0x141A JUMPI PUSH1 0x40 DUP1 MLOAD PUSH3 0x461BCD PUSH1 0xE5 SHL DUP2 MSTORE PUSH1 0x20 PUSH1 0x4 DUP3 ADD MSTORE PUSH1 0x18 PUSH1 0x24 DUP3 ADD MSTORE PUSH1 0x0 DUP1 MLOAD PUSH1 0x20 PUSH2 0x467E DUP4 CODECOPY DUP2 MLOAD SWAP2 MSTORE PUSH1 0x44 DUP3 ADD MSTORE SWAP1 MLOAD SWAP1 DUP2 SWAP1 SUB PUSH1 0x64 ADD SWAP1 REVERT JUMPDEST PUSH1 0x1 PUSH1 0x1 PUSH1 0xA0 SHL SUB PUSH32 0x0 AND DUP7 DUP7 PUSH1 0x0 NOT DUP2 ADD DUP2 DUP2 LT PUSH2 0x1454 JUMPI INVALID JUMPDEST SWAP1 POP PUSH1 0x20 MUL ADD CALLDATALOAD PUSH1 0x1 PUSH1 0x1 PUSH1 0xA0 SHL SUB AND PUSH1 0x1 PUSH1 0x1 PUSH1 0xA0 SHL SUB AND EQ PUSH2 0x14AD JUMPI PUSH1 0x40 DUP1 MLOAD PUSH3 0x461BCD PUSH1 0xE5 SHL DUP2 MSTORE PUSH1 0x20 PUSH1 0x4 DUP3 ADD MSTORE PUSH1 0x1D PUSH1 0x24 DUP3 ADD MSTORE PUSH1 0x0 DUP1 MLOAD PUSH1 0x20 PUSH2 0x45B5 DUP4 CODECOPY DUP2 MLOAD SWAP2 MSTORE PUSH1 0x44 DUP3 ADD MSTORE SWAP1 MLOAD SWAP1 DUP2 SWAP1 SUB PUSH1 0x64 ADD SWAP1 REVERT JUMPDEST PUSH2 0x150B PUSH32 0x0 DUP10 DUP9 DUP9 DUP1 DUP1 PUSH1 0x20 MUL PUSH1 0x20 ADD PUSH1 0x40 MLOAD SWAP1 DUP2 ADD PUSH1 0x40 MSTORE DUP1 SWAP4 SWAP3 SWAP2 SWAP1 DUP2 DUP2 MSTORE PUSH1 0x20 ADD DUP4 DUP4 PUSH1 0x20 MUL DUP1 DUP3 DUP5 CALLDATACOPY PUSH1 0x0 SWAP3 ADD SWAP2 SWAP1 SWAP2 MSTORE POP PUSH2 0x390C SWAP3 POP POP POP JUMP JUMPDEST SWAP2 POP DUP7 DUP3 PUSH1 0x0 DUP2 MLOAD DUP2 LT PUSH2 0x151B JUMPI INVALID JUMPDEST PUSH1 0x20 MUL PUSH1 0x20 ADD ADD MLOAD GT ISZERO PUSH2 0xFB5 JUMPI PUSH1 0x40 MLOAD PUSH3 0x461BCD PUSH1 0xE5 SHL DUP2 MSTORE PUSH1 0x4 ADD DUP1 DUP1 PUSH1 0x20 ADD DUP3 DUP2 SUB DUP3 MSTORE PUSH1 0x27 DUP2 MSTORE PUSH1 0x20 ADD DUP1 PUSH2 0x458E PUSH1 0x27 SWAP2 CODECOPY PUSH1 0x40 ADD SWAP2 POP POP PUSH1 0x40 MLOAD DUP1 SWAP2 SUB SWAP1 REVERT JUMPDEST PUSH1 0x0 DUP1 PUSH2 0x15AE PUSH32 0x0 DUP14 PUSH32 0x0 PUSH2 0x34B2 JUMP JUMPDEST SWAP1 POP PUSH1 0x0 DUP7 PUSH2 0x15BD JUMPI DUP12 PUSH2 0x15C1 JUMP JUMPDEST PUSH1 0x0 NOT JUMPDEST PUSH1 0x40 DUP1 MLOAD PUSH4 0xD505ACCF PUSH1 0xE0 SHL DUP2 MSTORE CALLER PUSH1 0x4 DUP3 ADD MSTORE ADDRESS PUSH1 0x24 DUP3 ADD MSTORE PUSH1 0x44 DUP2 ADD DUP4 SWAP1 MSTORE PUSH1 0x64 DUP2 ADD DUP12 SWAP1 MSTORE PUSH1 0xFF DUP10 AND PUSH1 0x84 DUP3 ADD MSTORE PUSH1 0xA4 DUP2 ADD DUP9 SWAP1 MSTORE PUSH1 0xC4 DUP2 ADD DUP8 SWAP1 MSTORE SWAP1 MLOAD SWAP2 SWAP3 POP PUSH1 0x1 PUSH1 0x1 PUSH1 0xA0 SHL SUB DUP5 AND SWAP2 PUSH4 0xD505ACCF SWAP2 PUSH1 0xE4 DUP1 DUP3 ADD SWAP3 PUSH1 0x0 SWAP3 SWAP1 SWAP2 SWAP1 DUP3 SWAP1 SUB ADD DUP2 DUP4 DUP8 DUP1 EXTCODESIZE ISZERO DUP1 ISZERO PUSH2 0x1637 JUMPI PUSH1 0x0 DUP1 REVERT JUMPDEST POP GAS CALL ISZERO DUP1 ISZERO PUSH2 0x164B JUMPI RETURNDATASIZE PUSH1 0x0 DUP1 RETURNDATACOPY RETURNDATASIZE PUSH1 0x0 REVERT JUMPDEST POP POP POP POP PUSH2 0x165D DUP14 DUP14 DUP14 DUP14 DUP14 DUP14 PUSH2 0x1FFB JUMP JUMPDEST SWAP14 SWAP13 POP POP POP POP POP POP POP POP POP POP POP POP POP JUMP JUMPDEST DUP1 TIMESTAMP DUP2 LT ISZERO PUSH2 0x16B2 JUMPI PUSH1 0x40 DUP1 MLOAD PUSH3 0x461BCD PUSH1 0xE5 SHL DUP2 MSTORE PUSH1 0x20 PUSH1 0x4 DUP3 ADD MSTORE PUSH1 0x18 PUSH1 0x24 DUP3 ADD MSTORE PUSH1 0x0 DUP1 MLOAD PUSH1 0x20 PUSH2 0x467E DUP4 CODECOPY DUP2 MLOAD SWAP2 MSTORE PUSH1 0x44 DUP3 ADD MSTORE SWAP1 MLOAD SWAP1 DUP2 SWAP1 SUB PUSH1 0x64 ADD SWAP1 REVERT JUMPDEST PUSH2 0x1727 DUP6 DUP6 PUSH1 0x0 DUP2 DUP2 LT PUSH2 0x16C2 JUMPI INVALID JUMPDEST SWAP1 POP PUSH1 0x20 MUL ADD CALLDATALOAD PUSH1 0x1 PUSH1 0x1 PUSH1 0xA0 SHL SUB AND CALLER PUSH2 0x1721 PUSH32 0x0 DUP10 DUP10 PUSH1 0x0 DUP2 DUP2 LT PUSH2 0x1704 JUMPI INVALID JUMPDEST SWAP1 POP PUSH1 0x20 MUL ADD CALLDATALOAD PUSH1 0x1 PUSH1 0x1 PUSH1 0xA0 SHL SUB AND DUP11 DUP11 PUSH1 0x1 DUP2 DUP2 LT PUSH2 0x1024 JUMPI INVALID JUMPDEST DUP11 PUSH2 0x3572 JUMP JUMPDEST PUSH1 0x0 DUP6 DUP6 PUSH1 0x0 NOT DUP2 ADD DUP2 DUP2 LT PUSH2 0x1739 JUMPI INVALID JUMPDEST SWAP1 POP PUSH1 0x20 MUL ADD CALLDATALOAD PUSH1 0x1 PUSH1 0x1 PUSH1 0xA0 SHL SUB AND PUSH1 0x1 PUSH1 0x1 PUSH1 0xA0 SHL SUB AND PUSH4 0x70A08231 DUP6 PUSH1 0x40 MLOAD DUP3 PUSH4 0xFFFFFFFF AND PUSH1 0xE0 SHL DUP2 MSTORE PUSH1 0x4 ADD DUP1 DUP3 PUSH1 0x1 PUSH1 0x1 PUSH1 0xA0 SHL SUB AND DUP2 MSTORE PUSH1 0x20 ADD SWAP2 POP POP PUSH1 0x20 PUSH1 0x40 MLOAD DUP1 DUP4 SUB DUP2 DUP7 DUP1 EXTCODESIZE ISZERO DUP1 ISZERO PUSH2 0x1795 JUMPI PUSH1 0x0 DUP1 REVERT JUMPDEST POP GAS STATICCALL ISZERO DUP1 ISZERO PUSH2 0x17A9 JUMPI RETURNDATASIZE PUSH1 0x0 DUP1 RETURNDATACOPY RETURNDATASIZE PUSH1 0x0 REVERT JUMPDEST POP POP POP POP PUSH1 0x40 MLOAD RETURNDATASIZE PUSH1 0x20 DUP2 LT ISZERO PUSH2 0x17BF JUMPI PUSH1 0x0 DUP1 REVERT JUMPDEST POP MLOAD PUSH1 0x40 DUP1 MLOAD PUSH1 0x20 DUP9 DUP2 MUL DUP3 DUP2 ADD DUP3 ADD SWAP1 SWAP4 MSTORE DUP9 DUP3 MSTORE SWAP3 SWAP4 POP PUSH2 0x1801 SWAP3 SWAP1 SWAP2 DUP10 SWAP2 DUP10 SWAP2 DUP3 SWAP2 DUP6 ADD SWAP1 DUP5 SWAP1 DUP1 DUP3 DUP5 CALLDATACOPY PUSH1 0x0 SWAP3 ADD SWAP2 SWAP1 SWAP2 MSTORE POP DUP9 SWAP3 POP PUSH2 0x3A44 SWAP2 POP POP JUMP JUMPDEST DUP7 PUSH2 0x18A4 DUP3 DUP9 DUP9 PUSH1 0x0 NOT DUP2 ADD DUP2 DUP2 LT PUSH2 0x1816 JUMPI INVALID JUMPDEST SWAP1 POP PUSH1 0x20 MUL ADD CALLDATALOAD PUSH1 0x1 PUSH1 0x1 PUSH1 0xA0 SHL SUB AND PUSH1 0x1 PUSH1 0x1 PUSH1 0xA0 SHL SUB AND PUSH4 0x70A08231 DUP9 PUSH1 0x40 MLOAD DUP3 PUSH4 0xFFFFFFFF AND PUSH1 0xE0 SHL DUP2 MSTORE PUSH1 0x4 ADD DUP1 DUP3 PUSH1 0x1 PUSH1 0x1 PUSH1 0xA0 SHL SUB AND DUP2 MSTORE PUSH1 0x20 ADD SWAP2 POP POP PUSH1 0x20 PUSH1 0x40 MLOAD DUP1 DUP4 SUB DUP2 DUP7 DUP1 EXTCODESIZE ISZERO DUP1 ISZERO PUSH2 0x1872 JUMPI PUSH1 0x0 DUP1 REVERT JUMPDEST POP GAS STATICCALL ISZERO DUP1 ISZERO PUSH2 0x1886 JUMPI RETURNDATASIZE PUSH1 0x0 DUP1 RETURNDATACOPY RETURNDATASIZE PUSH1 0x0 REVERT JUMPDEST POP POP POP POP PUSH1 0x40 MLOAD RETURNDATASIZE PUSH1 0x20 DUP2 LT ISZERO PUSH2 0x189C JUMPI PUSH1 0x0 DUP1 REVERT JUMPDEST POP MLOAD SWAP1 PUSH2 0x3D46 JUMP JUMPDEST LT ISZERO PUSH2 0x18E1 JUMPI PUSH1 0x40 MLOAD PUSH3 0x461BCD PUSH1 0xE5 SHL DUP2 MSTORE PUSH1 0x4 ADD DUP1 DUP1 PUSH1 0x20 ADD DUP3 DUP2 SUB DUP3 MSTORE PUSH1 0x2B DUP2 MSTORE PUSH1 0x20 ADD DUP1 PUSH2 0x45FB PUSH1 0x2B SWAP2 CODECOPY PUSH1 0x40 ADD SWAP2 POP POP PUSH1 0x40 MLOAD DUP1 SWAP2 SUB SWAP1 REVERT JUMPDEST POP POP POP POP POP POP POP POP JUMP JUMPDEST DUP1 TIMESTAMP DUP2 LT ISZERO PUSH2 0x192F JUMPI PUSH1 0x40 DUP1 MLOAD PUSH3 0x461BCD PUSH1 0xE5 SHL DUP2 MSTORE PUSH1 0x20 PUSH1 0x4 DUP3 ADD MSTORE PUSH1 0x18 PUSH1 0x24 DUP3 ADD MSTORE PUSH1 0x0 DUP1 MLOAD PUSH1 0x20 PUSH2 0x467E DUP4 CODECOPY DUP2 MLOAD SWAP2 MSTORE PUSH1 0x44 DUP3 ADD MSTORE SWAP1 MLOAD SWAP1 DUP2 SWAP1 SUB PUSH1 0x64 ADD SWAP1 REVERT JUMPDEST PUSH1 0x1 PUSH1 0x1 PUSH1 0xA0 SHL SUB PUSH32 0x0 AND DUP6 DUP6 PUSH1 0x0 NOT DUP2 ADD DUP2 DUP2 LT PUSH2 0x1969 JUMPI INVALID JUMPDEST SWAP1 POP PUSH1 0x20 MUL ADD CALLDATALOAD PUSH1 0x1 PUSH1 0x1 PUSH1 0xA0 SHL SUB AND PUSH1 0x1 PUSH1 0x1 PUSH1 0xA0 SHL SUB AND EQ PUSH2 0x19C2 JUMPI PUSH1 0x40 DUP1 MLOAD PUSH3 0x461BCD PUSH1 0xE5 SHL DUP2 MSTORE PUSH1 0x20 PUSH1 0x4 DUP3 ADD MSTORE PUSH1 0x1D PUSH1 0x24 DUP3 ADD MSTORE PUSH1 0x0 DUP1 MLOAD PUSH1 0x20 PUSH2 0x45B5 DUP4 CODECOPY DUP2 MLOAD SWAP2 MSTORE PUSH1 0x44 DUP3 ADD MSTORE SWAP1 MLOAD SWAP1 DUP2 SWAP1 SUB PUSH1 0x64 ADD SWAP1 REVERT JUMPDEST PUSH2 0x19D2 DUP6 DUP6 PUSH1 0x0 DUP2 DUP2 LT PUSH2 0x16C2 JUMPI INVALID JUMPDEST PUSH2 0x1A10 DUP6 DUP6 DUP1 DUP1 PUSH1 0x20 MUL PUSH1 0x20 ADD PUSH1 0x40 MLOAD SWAP1 DUP2 ADD PUSH1 0x40 MSTORE DUP1 SWAP4 SWAP3 SWAP2 SWAP1 DUP2 DUP2 MSTORE PUSH1 0x20 ADD DUP4 DUP4 PUSH1 0x20 MUL DUP1 DUP3 DUP5 CALLDATACOPY PUSH1 0x0 SWAP3 ADD SWAP2 SWAP1 SWAP2 MSTORE POP ADDRESS SWAP3 POP PUSH2 0x3A44 SWAP2 POP POP JUMP JUMPDEST PUSH1 0x0 PUSH32 0x0 PUSH1 0x1 PUSH1 0x1 PUSH1 0xA0 SHL SUB AND PUSH4 0x70A08231 ADDRESS PUSH1 0x40 MLOAD DUP3 PUSH4 0xFFFFFFFF AND PUSH1 0xE0 SHL DUP2 MSTORE PUSH1 0x4 ADD DUP1 DUP3 PUSH1 0x1 PUSH1 0x1 PUSH1 0xA0 SHL SUB AND DUP2 MSTORE PUSH1 0x20 ADD SWAP2 POP POP PUSH1 0x20 PUSH1 0x40 MLOAD DUP1 DUP4 SUB DUP2 DUP7 DUP1 EXTCODESIZE ISZERO DUP1 ISZERO PUSH2 0x1A7F JUMPI PUSH1 0x0 DUP1 REVERT JUMPDEST POP GAS STATICCALL ISZERO DUP1 ISZERO PUSH2 0x1A93 JUMPI RETURNDATASIZE PUSH1 0x0 DUP1 RETURNDATACOPY RETURNDATASIZE PUSH1 0x0 REVERT JUMPDEST POP POP POP POP PUSH1 0x40 MLOAD RETURNDATASIZE PUSH1 0x20 DUP2 LT ISZERO PUSH2 0x1AA9 JUMPI PUSH1 0x0 DUP1 REVERT JUMPDEST POP MLOAD SWAP1 POP DUP7 DUP2 LT ISZERO PUSH2 0x1AEC JUMPI PUSH1 0x40 MLOAD PUSH3 0x461BCD PUSH1 0xE5 SHL DUP2 MSTORE PUSH1 0x4 ADD DUP1 DUP1 PUSH1 0x20 ADD DUP3 DUP2 SUB DUP3 MSTORE PUSH1 0x2B DUP2 MSTORE PUSH1 0x20 ADD DUP1 PUSH2 0x45FB PUSH1 0x2B SWAP2 CODECOPY PUSH1 0x40 ADD SWAP2 POP POP PUSH1 0x40 MLOAD DUP1 SWAP2 SUB SWAP1 REVERT JUMPDEST PUSH32 0x0 PUSH1 0x1 PUSH1 0x1 PUSH1 0xA0 SHL SUB AND PUSH4 0x2E1A7D4D DUP3 PUSH1 0x40 MLOAD DUP3 PUSH4 0xFFFFFFFF AND PUSH1 0xE0 SHL DUP2 MSTORE PUSH1 0x4 ADD DUP1 DUP3 DUP2 MSTORE PUSH1 0x20 ADD SWAP2 POP POP PUSH1 0x0 PUSH1 0x40 MLOAD DUP1 DUP4 SUB DUP2 PUSH1 0x0 DUP8 DUP1 EXTCODESIZE ISZERO DUP1 ISZERO PUSH2 0x1B52 JUMPI PUSH1 0x0 DUP1 REVERT JUMPDEST POP GAS CALL ISZERO DUP1 ISZERO PUSH2 0x1B66 JUMPI RETURNDATASIZE PUSH1 0x0 DUP1 RETURNDATACOPY RETURNDATASIZE PUSH1 0x0 REVERT JUMPDEST POP POP POP POP PUSH2 0x18E1 DUP5 DUP3 PUSH2 0x312E JUMP JUMPDEST PUSH1 0x60 DUP2 TIMESTAMP DUP2 LT ISZERO PUSH2 0x1BBA JUMPI PUSH1 0x40 DUP1 MLOAD PUSH3 0x461BCD PUSH1 0xE5 SHL DUP2 MSTORE PUSH1 0x20 PUSH1 0x4 DUP3 ADD MSTORE PUSH1 0x18 PUSH1 0x24 DUP3 ADD MSTORE PUSH1 0x0 DUP1 MLOAD PUSH1 0x20 PUSH2 0x467E DUP4 CODECOPY DUP2 MLOAD SWAP2 MSTORE PUSH1 0x44 DUP3 ADD MSTORE SWAP1 MLOAD SWAP1 DUP2 SWAP1 SUB PUSH1 0x64 ADD SWAP1 REVERT JUMPDEST PUSH32 0x0 PUSH1 0x1 PUSH1 0x1 PUSH1 0xA0 SHL SUB AND DUP7 DUP7 PUSH1 0x0 DUP2 DUP2 LT PUSH2 0x1BF1 JUMPI INVALID JUMPDEST SWAP1 POP PUSH1 0x20 MUL ADD CALLDATALOAD PUSH1 0x1 PUSH1 0x1 PUSH1 0xA0 SHL SUB AND PUSH1 0x1 PUSH1 0x1 PUSH1 0xA0 SHL SUB AND EQ PUSH2 0x1C4A JUMPI PUSH1 0x40 DUP1 MLOAD PUSH3 0x461BCD PUSH1 0xE5 SHL DUP2 MSTORE PUSH1 0x20 PUSH1 0x4 DUP3 ADD MSTORE PUSH1 0x1D PUSH1 0x24 DUP3 ADD MSTORE PUSH1 0x0 DUP1 MLOAD PUSH1 0x20 PUSH2 0x45B5 DUP4 CODECOPY DUP2 MLOAD SWAP2 MSTORE PUSH1 0x44 DUP3 ADD MSTORE SWAP1 MLOAD SWAP1 DUP2 SWAP1 SUB PUSH1 0x64 ADD SWAP1 REVERT JUMPDEST PUSH2 0x1CA8 PUSH32 0x0 CALLVALUE DUP9 DUP9 DUP1 DUP1 PUSH1 0x20 MUL PUSH1 0x20 ADD PUSH1 0x40 MLOAD SWAP1 DUP2 ADD PUSH1 0x40 MSTORE DUP1 SWAP4 SWAP3 SWAP2 SWAP1 DUP2 DUP2 MSTORE PUSH1 0x20 ADD DUP4 DUP4 PUSH1 0x20 MUL DUP1 DUP3 DUP5 CALLDATACOPY PUSH1 0x0 SWAP3 ADD SWAP2 SWAP1 SWAP2 MSTORE POP PUSH2 0x3366 SWAP3 POP POP POP JUMP JUMPDEST SWAP2 POP DUP7 DUP3 PUSH1 0x1 DUP5 MLOAD SUB DUP2 MLOAD DUP2 LT PUSH2 0x1CBB JUMPI INVALID JUMPDEST PUSH1 0x20 MUL PUSH1 0x20 ADD ADD MLOAD LT ISZERO PUSH2 0x1D00 JUMPI PUSH1 0x40 MLOAD PUSH3 0x461BCD PUSH1 0xE5 SHL DUP2 MSTORE PUSH1 0x4 ADD DUP1 DUP1 PUSH1 0x20 ADD DUP3 DUP2 SUB DUP3 MSTORE PUSH1 0x2B DUP2 MSTORE PUSH1 0x20 ADD DUP1 PUSH2 0x45FB PUSH1 0x2B SWAP2 CODECOPY PUSH1 0x40 ADD SWAP2 POP POP PUSH1 0x40 MLOAD DUP1 SWAP2 SUB SWAP1 REVERT JUMPDEST PUSH32 0x0 PUSH1 0x1 PUSH1 0x1 PUSH1 0xA0 SHL SUB AND PUSH4 0xD0E30DB0 DUP4 PUSH1 0x0 DUP2 MLOAD DUP2 LT PUSH2 0x1D3C JUMPI INVALID JUMPDEST PUSH1 0x20 MUL PUSH1 0x20 ADD ADD MLOAD PUSH1 0x40 MLOAD DUP3 PUSH4 0xFFFFFFFF AND PUSH1 0xE0 SHL DUP2 MSTORE PUSH1 0x4 ADD PUSH1 0x0 PUSH1 0x40 MLOAD DUP1 DUP4 SUB DUP2 DUP6 DUP9 DUP1 EXTCODESIZE ISZERO DUP1 ISZERO PUSH2 0x1D6F JUMPI PUSH1 0x0 DUP1 REVERT JUMPDEST POP GAS CALL ISZERO DUP1 ISZERO PUSH2 0x1D83 JUMPI RETURNDATASIZE PUSH1 0x0 DUP1 RETURNDATACOPY RETURNDATASIZE PUSH1 0x0 REVERT JUMPDEST POP POP POP POP POP PUSH32 0x0 PUSH1 0x1 PUSH1 0x1 PUSH1 0xA0 SHL SUB AND PUSH4 0xA9059CBB PUSH2 0x1DE8 PUSH32 0x0 DUP10 DUP10 PUSH1 0x0 DUP2 DUP2 LT PUSH2 0x1704 JUMPI INVALID JUMPDEST DUP5 PUSH1 0x0 DUP2 MLOAD DUP2 LT PUSH2 0x1DF5 JUMPI INVALID JUMPDEST PUSH1 0x20 MUL PUSH1 0x20 ADD ADD MLOAD PUSH1 0x40 MLOAD DUP4 PUSH4 0xFFFFFFFF AND PUSH1 0xE0 SHL DUP2 MSTORE PUSH1 0x4 ADD DUP1 DUP4 PUSH1 0x1 PUSH1 0x1 PUSH1 0xA0 SHL SUB AND DUP2 MSTORE PUSH1 0x20 ADD DUP3 DUP2 MSTORE PUSH1 0x20 ADD SWAP3 POP POP POP PUSH1 0x20 PUSH1 0x40 MLOAD DUP1 DUP4 SUB DUP2 PUSH1 0x0 DUP8 DUP1 EXTCODESIZE ISZERO DUP1 ISZERO PUSH2 0x1E43 JUMPI PUSH1 0x0 DUP1 REVERT JUMPDEST POP GAS CALL ISZERO DUP1 ISZERO PUSH2 0x1E57 JUMPI RETURNDATASIZE PUSH1 0x0 DUP1 RETURNDATACOPY RETURNDATASIZE PUSH1 0x0 REVERT JUMPDEST POP POP POP POP PUSH1 0x40 MLOAD RETURNDATASIZE PUSH1 0x20 DUP2 LT ISZERO PUSH2 0x1E6D JUMPI PUSH1 0x0 DUP1 REVERT JUMPDEST POP MLOAD PUSH2 0x1E75 JUMPI INVALID JUMPDEST PUSH2 0x1EB4 DUP3 DUP8 DUP8 DUP1 DUP1 PUSH1 0x20 MUL PUSH1 0x20 ADD PUSH1 0x40 MLOAD SWAP1 DUP2 ADD PUSH1 0x40 MSTORE DUP1 SWAP4 SWAP3 SWAP2 SWAP1 DUP2 DUP2 MSTORE PUSH1 0x20 ADD DUP4 DUP4 PUSH1 0x20 MUL DUP1 DUP3 DUP5 CALLDATACOPY PUSH1 0x0 SWAP3 ADD SWAP2 SWAP1 SWAP2 MSTORE POP DUP10 SWAP3 POP PUSH2 0x36CF SWAP2 POP POP JUMP JUMPDEST POP SWAP6 SWAP5 POP POP POP POP POP JUMP JUMPDEST PUSH1 0x0 PUSH2 0xE1E DUP5 DUP5 DUP5 PUSH2 0x3D96 JUMP JUMPDEST PUSH1 0x60 DUP2 TIMESTAMP DUP2 LT ISZERO PUSH2 0x1F11 JUMPI PUSH1 0x40 DUP1 MLOAD PUSH3 0x461BCD PUSH1 0xE5 SHL DUP2 MSTORE PUSH1 0x20 PUSH1 0x4 DUP3 ADD MSTORE PUSH1 0x18 PUSH1 0x24 DUP3 ADD MSTORE PUSH1 0x0 DUP1 MLOAD PUSH1 0x20 PUSH2 0x467E DUP4 CODECOPY DUP2 MLOAD SWAP2 MSTORE PUSH1 0x44 DUP3 ADD MSTORE SWAP1 MLOAD SWAP1 DUP2 SWAP1 SUB PUSH1 0x64 ADD SWAP1 REVERT JUMPDEST PUSH2 0x1F6F PUSH32 0x0 DUP10 DUP9 DUP9 DUP1 DUP1 PUSH1 0x20 MUL PUSH1 0x20 ADD PUSH1 0x40 MLOAD SWAP1 DUP2 ADD PUSH1 0x40 MSTORE DUP1 SWAP4 SWAP3 SWAP2 SWAP1 DUP2 DUP2 MSTORE PUSH1 0x20 ADD DUP4 DUP4 PUSH1 0x20 MUL DUP1 DUP3 DUP5 CALLDATACOPY PUSH1 0x0 SWAP3 ADD SWAP2 SWAP1 SWAP2 MSTORE POP PUSH2 0x390C SWAP3 POP POP POP JUMP JUMPDEST SWAP2 POP DUP7 DUP3 PUSH1 0x0 DUP2 MLOAD DUP2 LT PUSH2 0x1F7F JUMPI INVALID JUMPDEST PUSH1 0x20 MUL PUSH1 0x20 ADD ADD MLOAD GT ISZERO PUSH2 0x1385 JUMPI PUSH1 0x40 MLOAD PUSH3 0x461BCD PUSH1 0xE5 SHL DUP2 MSTORE PUSH1 0x4 ADD DUP1 DUP1 PUSH1 0x20 ADD DUP3 DUP2 SUB DUP3 MSTORE PUSH1 0x27 DUP2 MSTORE PUSH1 0x20 ADD DUP1 PUSH2 0x458E PUSH1 0x27 SWAP2 CODECOPY PUSH1 0x40 ADD SWAP2 POP POP PUSH1 0x40 MLOAD DUP1 SWAP2 SUB SWAP1 REVERT JUMPDEST PUSH1 0x0 SLOAD DUP2 JUMP JUMPDEST PUSH32 0x0 DUP2 JUMP JUMPDEST PUSH1 0x0 PUSH2 0xE1E DUP5 DUP5 DUP5 PUSH2 0x3ED6 JUMP JUMPDEST PUSH1 0x0 DUP2 TIMESTAMP DUP2 LT ISZERO PUSH2 0x2041 JUMPI PUSH1 0x40 DUP1 MLOAD PUSH3 0x461BCD PUSH1 0xE5 SHL DUP2 MSTORE PUSH1 0x20 PUSH1 0x4 DUP3 ADD MSTORE PUSH1 0x18 PUSH1 0x24 DUP3 ADD MSTORE PUSH1 0x0 DUP1 MLOAD PUSH1 0x20 PUSH2 0x467E DUP4 CODECOPY DUP2 MLOAD SWAP2 MSTORE PUSH1 0x44 DUP3 ADD MSTORE SWAP1 MLOAD SWAP1 DUP2 SWAP1 SUB PUSH1 0x64 ADD SWAP1 REVERT JUMPDEST PUSH2 0x2070 DUP9 PUSH32 0x0 DUP10 DUP10 DUP10 ADDRESS DUP10 PUSH2 0x24F2 JUMP JUMPDEST SWAP1 POP DUP1 SWAP3 POP POP PUSH2 0x20F9 DUP9 DUP6 DUP11 PUSH1 0x1 PUSH1 0x1 PUSH1 0xA0 SHL SUB AND PUSH4 0x70A08231 ADDRESS PUSH1 0x40 MLOAD DUP3 PUSH4 0xFFFFFFFF AND PUSH1 0xE0 SHL DUP2 MSTORE PUSH1 0x4 ADD DUP1 DUP3 PUSH1 0x1 PUSH1 0x1 PUSH1 0xA0 SHL SUB AND DUP2 MSTORE PUSH1 0x20 ADD SWAP2 POP POP PUSH1 0x20 PUSH1 0x40 MLOAD DUP1 DUP4 SUB DUP2 DUP7 DUP1 EXTCODESIZE ISZERO DUP1 ISZERO PUSH2 0x20C8 JUMPI PUSH1 0x0 DUP1 REVERT JUMPDEST POP GAS STATICCALL ISZERO DUP1 ISZERO PUSH2 0x20DC JUMPI RETURNDATASIZE PUSH1 0x0 DUP1 RETURNDATACOPY RETURNDATASIZE PUSH1 0x0 REVERT JUMPDEST POP POP POP POP PUSH1 0x40 MLOAD RETURNDATASIZE PUSH1 0x20 DUP2 LT ISZERO PUSH2 0x20F2 JUMPI PUSH1 0x0 DUP1 REVERT JUMPDEST POP MLOAD PUSH2 0x2FDA JUMP JUMPDEST PUSH32 0x0 PUSH1 0x1 PUSH1 0x1 PUSH1 0xA0 SHL SUB AND PUSH4 0x2E1A7D4D DUP4 PUSH1 0x40 MLOAD DUP3 PUSH4 0xFFFFFFFF AND PUSH1 0xE0 SHL DUP2 MSTORE PUSH1 0x4 ADD DUP1 DUP3 DUP2 MSTORE PUSH1 0x20 ADD SWAP2 POP POP PUSH1 0x0 PUSH1 0x40 MLOAD DUP1 DUP4 SUB DUP2 PUSH1 0x0 DUP8 DUP1 EXTCODESIZE ISZERO DUP1 ISZERO PUSH2 0x215F JUMPI PUSH1 0x0 DUP1 REVERT JUMPDEST POP GAS CALL ISZERO DUP1 ISZERO PUSH2 0x2173 JUMPI RETURNDATASIZE PUSH1 0x0 DUP1 RETURNDATACOPY RETURNDATASIZE PUSH1 0x0 REVERT JUMPDEST POP POP POP POP PUSH2 0x1148 DUP5 DUP4 PUSH2 0x312E JUMP JUMPDEST DUP1 TIMESTAMP DUP2 LT ISZERO PUSH2 0x21C5 JUMPI PUSH1 0x40 DUP1 MLOAD PUSH3 0x461BCD PUSH1 0xE5 SHL DUP2 MSTORE PUSH1 0x20 PUSH1 0x4 DUP3 ADD MSTORE PUSH1 0x18 PUSH1 0x24 DUP3 ADD MSTORE PUSH1 0x0 DUP1 MLOAD PUSH1 0x20 PUSH2 0x467E DUP4 CODECOPY DUP2 MLOAD SWAP2 MSTORE PUSH1 0x44 DUP3 ADD MSTORE SWAP1 MLOAD SWAP1 DUP2 SWAP1 SUB PUSH1 0x64 ADD SWAP1 REVERT JUMPDEST PUSH32 0x0 PUSH1 0x1 PUSH1 0x1 PUSH1 0xA0 SHL SUB AND DUP6 DUP6 PUSH1 0x0 DUP2 DUP2 LT PUSH2 0x21FC JUMPI INVALID JUMPDEST SWAP1 POP PUSH1 0x20 MUL ADD CALLDATALOAD PUSH1 0x1 PUSH1 0x1 PUSH1 0xA0 SHL SUB AND PUSH1 0x1 PUSH1 0x1 PUSH1 0xA0 SHL SUB AND EQ PUSH2 0x2255 JUMPI PUSH1 0x40 DUP1 MLOAD PUSH3 0x461BCD PUSH1 0xE5 SHL DUP2 MSTORE PUSH1 0x20 PUSH1 0x4 DUP3 ADD MSTORE PUSH1 0x1D PUSH1 0x24 DUP3 ADD MSTORE PUSH1 0x0 DUP1 MLOAD PUSH1 0x20 PUSH2 0x45B5 DUP4 CODECOPY DUP2 MLOAD SWAP2 MSTORE PUSH1 0x44 DUP3 ADD MSTORE SWAP1 MLOAD SWAP1 DUP2 SWAP1 SUB PUSH1 0x64 ADD SWAP1 REVERT JUMPDEST PUSH1 0x0 CALLVALUE SWAP1 POP PUSH32 0x0 PUSH1 0x1 PUSH1 0x1 PUSH1 0xA0 SHL SUB AND PUSH4 0xD0E30DB0 DUP3 PUSH1 0x40 MLOAD DUP3 PUSH4 0xFFFFFFFF AND PUSH1 0xE0 SHL DUP2 MSTORE PUSH1 0x4 ADD PUSH1 0x0 PUSH1 0x40 MLOAD DUP1 DUP4 SUB DUP2 DUP6 DUP9 DUP1 EXTCODESIZE ISZERO DUP1 ISZERO PUSH2 0x22B5 JUMPI PUSH1 0x0 DUP1 REVERT JUMPDEST POP GAS CALL ISZERO DUP1 ISZERO PUSH2 0x22C9 JUMPI RETURNDATASIZE PUSH1 0x0 DUP1 RETURNDATACOPY RETURNDATASIZE PUSH1 0x0 REVERT JUMPDEST POP POP POP POP POP PUSH32 0x0 PUSH1 0x1 PUSH1 0x1 PUSH1 0xA0 SHL SUB AND PUSH4 0xA9059CBB PUSH2 0x232E PUSH32 0x0 DUP10 DUP10 PUSH1 0x0 DUP2 DUP2 LT PUSH2 0x1704 JUMPI INVALID JUMPDEST DUP4 PUSH1 0x40 MLOAD DUP4 PUSH4 0xFFFFFFFF AND PUSH1 0xE0 SHL DUP2 MSTORE PUSH1 0x4 ADD DUP1 DUP4 PUSH1 0x1 PUSH1 0x1 PUSH1 0xA0 SHL SUB AND DUP2 MSTORE PUSH1 0x20 ADD DUP3 DUP2 MSTORE PUSH1 0x20 ADD SWAP3 POP POP POP PUSH1 0x20 PUSH1 0x40 MLOAD DUP1 DUP4 SUB DUP2 PUSH1 0x0 DUP8 DUP1 EXTCODESIZE ISZERO DUP1 ISZERO PUSH2 0x2375 JUMPI PUSH1 0x0 DUP1 REVERT JUMPDEST POP GAS CALL ISZERO DUP1 ISZERO PUSH2 0x2389 JUMPI RETURNDATASIZE PUSH1 0x0 DUP1 RETURNDATACOPY RETURNDATASIZE PUSH1 0x0 REVERT JUMPDEST POP POP POP POP PUSH1 0x40 MLOAD RETURNDATASIZE PUSH1 0x20 DUP2 LT ISZERO PUSH2 0x239F JUMPI PUSH1 0x0 DUP1 REVERT JUMPDEST POP MLOAD PUSH2 0x23A7 JUMPI INVALID JUMPDEST PUSH1 0x0 DUP7 DUP7 PUSH1 0x0 NOT DUP2 ADD DUP2 DUP2 LT PUSH2 0x23B9 JUMPI INVALID JUMPDEST SWAP1 POP PUSH1 0x20 MUL ADD CALLDATALOAD PUSH1 0x1 PUSH1 0x1 PUSH1 0xA0 SHL SUB AND PUSH1 0x1 PUSH1 0x1 PUSH1 0xA0 SHL SUB AND PUSH4 0x70A08231 DUP7 PUSH1 0x40 MLOAD DUP3 PUSH4 0xFFFFFFFF AND PUSH1 0xE0 SHL DUP2 MSTORE PUSH1 0x4 ADD DUP1 DUP3 PUSH1 0x1 PUSH1 0x1 PUSH1 0xA0 SHL SUB AND DUP2 MSTORE PUSH1 0x20 ADD SWAP2 POP POP PUSH1 0x20 PUSH1 0x40 MLOAD DUP1 DUP4 SUB DUP2 DUP7 DUP1 EXTCODESIZE ISZERO DUP1 ISZERO PUSH2 0x2415 JUMPI PUSH1 0x0 DUP1 REVERT JUMPDEST POP GAS STATICCALL ISZERO DUP1 ISZERO PUSH2 0x2429 JUMPI RETURNDATASIZE PUSH1 0x0 DUP1 RETURNDATACOPY RETURNDATASIZE PUSH1 0x0 REVERT JUMPDEST POP POP POP POP PUSH1 0x40 MLOAD RETURNDATASIZE PUSH1 0x20 DUP2 LT ISZERO PUSH2 0x243F JUMPI PUSH1 0x0 DUP1 REVERT JUMPDEST POP MLOAD PUSH1 0x40 DUP1 MLOAD PUSH1 0x20 DUP10 DUP2 MUL DUP3 DUP2 ADD DUP3 ADD SWAP1 SWAP4 MSTORE DUP10 DUP3 MSTORE SWAP3 SWAP4 POP PUSH2 0x2481 SWAP3 SWAP1 SWAP2 DUP11 SWAP2 DUP11 SWAP2 DUP3 SWAP2 DUP6 ADD SWAP1 DUP5 SWAP1 DUP1 DUP3 DUP5 CALLDATACOPY PUSH1 0x0 SWAP3 ADD SWAP2 SWAP1 SWAP2 MSTORE POP DUP10 SWAP3 POP PUSH2 0x3A44 SWAP2 POP POP JUMP JUMPDEST DUP8 PUSH2 0x18A4 DUP3 DUP10 DUP10 PUSH1 0x0 NOT DUP2 ADD DUP2 DUP2 LT PUSH2 0x2496 JUMPI INVALID JUMPDEST SWAP1 POP PUSH1 0x20 MUL ADD CALLDATALOAD PUSH1 0x1 PUSH1 0x1 PUSH1 0xA0 SHL SUB AND PUSH1 0x1 PUSH1 0x1 PUSH1 0xA0 SHL SUB AND PUSH4 0x70A08231 DUP10 PUSH1 0x40 MLOAD DUP3 PUSH4 0xFFFFFFFF AND PUSH1 0xE0 SHL DUP2 MSTORE PUSH1 0x4 ADD DUP1 DUP3 PUSH1 0x1 PUSH1 0x1 PUSH1 0xA0 SHL SUB AND DUP2 MSTORE PUSH1 0x20 ADD SWAP2 POP POP PUSH1 0x20 PUSH1 0x40 MLOAD DUP1 DUP4 SUB DUP2 DUP7 DUP1 EXTCODESIZE ISZERO DUP1 ISZERO PUSH2 0x1872 JUMPI PUSH1 0x0 DUP1 REVERT JUMPDEST PUSH1 0x0 DUP1 DUP3 TIMESTAMP DUP2 LT ISZERO PUSH2 0x2539 JUMPI PUSH1 0x40 DUP1 MLOAD PUSH3 0x461BCD PUSH1 0xE5 SHL DUP2 MSTORE PUSH1 0x20 PUSH1 0x4 DUP3 ADD MSTORE PUSH1 0x18 PUSH1 0x24 DUP3 ADD MSTORE PUSH1 0x0 DUP1 MLOAD PUSH1 0x20 PUSH2 0x467E DUP4 CODECOPY DUP2 MLOAD SWAP2 MSTORE PUSH1 0x44 DUP3 ADD MSTORE SWAP1 MLOAD SWAP1 DUP2 SWAP1 SUB PUSH1 0x64 ADD SWAP1 REVERT JUMPDEST PUSH1 0x0 PUSH2 0x2566 PUSH32 0x0 DUP13 DUP13 PUSH2 0x34B2 JUMP JUMPDEST PUSH1 0x40 DUP1 MLOAD PUSH4 0x23B872DD PUSH1 0xE0 SHL DUP2 MSTORE CALLER PUSH1 0x4 DUP3 ADD MSTORE PUSH1 0x1 PUSH1 0x1 PUSH1 0xA0 SHL SUB DUP4 AND PUSH1 0x24 DUP3 ADD DUP2 SWAP1 MSTORE PUSH1 0x44 DUP3 ADD DUP14 SWAP1 MSTORE SWAP2 MLOAD SWAP3 SWAP4 POP SWAP1 SWAP2 PUSH4 0x23B872DD SWAP2 PUSH1 0x64 DUP1 DUP3 ADD SWAP3 PUSH1 0x20 SWAP3 SWAP1 SWAP2 SWAP1 DUP3 SWAP1 SUB ADD DUP2 PUSH1 0x0 DUP8 DUP1 EXTCODESIZE ISZERO DUP1 ISZERO PUSH2 0x25C1 JUMPI PUSH1 0x0 DUP1 REVERT JUMPDEST POP GAS CALL ISZERO DUP1 ISZERO PUSH2 0x25D5 JUMPI RETURNDATASIZE PUSH1 0x0 DUP1 RETURNDATACOPY RETURNDATASIZE PUSH1 0x0 REVERT JUMPDEST POP POP POP POP PUSH1 0x40 MLOAD RETURNDATASIZE PUSH1 0x20 DUP2 LT ISZERO PUSH2 0x25EB JUMPI PUSH1 0x0 DUP1 REVERT JUMPDEST POP POP PUSH1 0x40 DUP1 MLOAD PUSH4 0x226BF2D1 PUSH1 0xE2 SHL DUP2 MSTORE PUSH1 0x1 PUSH1 0x1 PUSH1 0xA0 SHL SUB DUP9 DUP2 AND PUSH1 0x4 DUP4 ADD MSTORE DUP3 MLOAD PUSH1 0x0 SWAP4 DUP5 SWAP4 SWAP3 DUP7 AND SWAP3 PUSH4 0x89AFCB44 SWAP3 PUSH1 0x24 DUP1 DUP4 ADD SWAP4 SWAP3 DUP3 SWAP1 SUB ADD DUP2 DUP8 DUP8 DUP1 EXTCODESIZE ISZERO DUP1 ISZERO PUSH2 0x2638 JUMPI PUSH1 0x0 DUP1 REVERT JUMPDEST POP GAS CALL ISZERO DUP1 ISZERO PUSH2 0x264C JUMPI RETURNDATASIZE PUSH1 0x0 DUP1 RETURNDATACOPY RETURNDATASIZE PUSH1 0x0 REVERT JUMPDEST POP POP POP POP PUSH1 0x40 MLOAD RETURNDATASIZE PUSH1 0x40 DUP2 LT ISZERO PUSH2 0x2662 JUMPI PUSH1 0x0 DUP1 REVERT JUMPDEST POP DUP1 MLOAD PUSH1 0x20 SWAP1 SWAP2 ADD MLOAD SWAP1 SWAP3 POP SWAP1 POP PUSH1 0x0 PUSH2 0x267C DUP15 DUP15 PUSH2 0x3F7C JUMP JUMPDEST POP SWAP1 POP DUP1 PUSH1 0x1 PUSH1 0x1 PUSH1 0xA0 SHL SUB AND DUP15 PUSH1 0x1 PUSH1 0x1 PUSH1 0xA0 SHL SUB AND EQ PUSH2 0x269F JUMPI DUP2 DUP4 PUSH2 0x26A2 JUMP JUMPDEST DUP3 DUP3 JUMPDEST SWAP1 SWAP8 POP SWAP6 POP DUP11 DUP8 LT ISZERO PUSH2 0x26E6 JUMPI PUSH1 0x40 MLOAD PUSH3 0x461BCD PUSH1 0xE5 SHL DUP2 MSTORE PUSH1 0x4 ADD DUP1 DUP1 PUSH1 0x20 ADD DUP3 DUP2 SUB DUP3 MSTORE PUSH1 0x26 DUP2 MSTORE PUSH1 0x20 ADD DUP1 PUSH2 0x45D5 PUSH1 0x26 SWAP2 CODECOPY PUSH1 0x40 ADD SWAP2 POP POP PUSH1 0x40 MLOAD DUP1 SWAP2 SUB SWAP1 REVERT JUMPDEST DUP10 DUP7 LT ISZERO PUSH2 0x2725 JUMPI PUSH1 0x40 MLOAD PUSH3 0x461BCD PUSH1 0xE5 SHL DUP2 MSTORE PUSH1 0x4 ADD DUP1 DUP1 PUSH1 0x20 ADD DUP3 DUP2 SUB DUP3 MSTORE PUSH1 0x26 DUP2 MSTORE PUSH1 0x20 ADD DUP1 PUSH2 0x451B PUSH1 0x26 SWAP2 CODECOPY PUSH1 0x40 ADD SWAP2 POP POP PUSH1 0x40 MLOAD DUP1 SWAP2 SUB SWAP1 REVERT JUMPDEST POP POP POP POP POP SWAP8 POP SWAP8 SWAP6 POP POP POP POP POP POP JUMP JUMPDEST PUSH32 0x0 DUP2 JUMP JUMPDEST PUSH1 0x60 PUSH2 0x1180 PUSH32 0x0 DUP5 DUP5 PUSH2 0x3366 JUMP JUMPDEST PUSH1 0x0 DUP1 PUSH1 0x0 PUSH2 0x27D7 PUSH32 0x0 DUP15 PUSH32 0x0 PUSH2 0x34B2 JUMP JUMPDEST SWAP1 POP PUSH1 0x0 DUP8 PUSH2 0x27E6 JUMPI DUP13 PUSH2 0x27EA JUMP JUMPDEST PUSH1 0x0 NOT JUMPDEST PUSH1 0x40 DUP1 MLOAD PUSH4 0xD505ACCF PUSH1 0xE0 SHL DUP2 MSTORE CALLER PUSH1 0x4 DUP3 ADD MSTORE ADDRESS PUSH1 0x24 DUP3 ADD MSTORE PUSH1 0x44 DUP2 ADD DUP4 SWAP1 MSTORE PUSH1 0x64 DUP2 ADD DUP13 SWAP1 MSTORE PUSH1 0xFF DUP11 AND PUSH1 0x84 DUP3 ADD MSTORE PUSH1 0xA4 DUP2 ADD DUP10 SWAP1 MSTORE PUSH1 0xC4 DUP2 ADD DUP9 SWAP1 MSTORE SWAP1 MLOAD SWAP2 SWAP3 POP PUSH1 0x1 PUSH1 0x1 PUSH1 0xA0 SHL SUB DUP5 AND SWAP2 PUSH4 0xD505ACCF SWAP2 PUSH1 0xE4 DUP1 DUP3 ADD SWAP3 PUSH1 0x0 SWAP3 SWAP1 SWAP2 SWAP1 DUP3 SWAP1 SUB ADD DUP2 DUP4 DUP8 DUP1 EXTCODESIZE ISZERO DUP1 ISZERO PUSH2 0x2860 JUMPI PUSH1 0x0 DUP1 REVERT JUMPDEST POP GAS CALL ISZERO DUP1 ISZERO PUSH2 0x2874 JUMPI RETURNDATASIZE PUSH1 0x0 DUP1 RETURNDATACOPY RETURNDATASIZE PUSH1 0x0 REVERT JUMPDEST POP POP POP POP PUSH2 0x2886 DUP15 DUP15 DUP15 DUP15 DUP15 DUP15 PUSH2 0xCF7 JUMP JUMPDEST SWAP1 SWAP16 SWAP1 SWAP15 POP SWAP13 POP POP POP POP POP POP POP POP POP POP POP POP POP JUMP JUMPDEST PUSH1 0x0 DUP1 PUSH1 0x0 DUP4 TIMESTAMP DUP2 LT ISZERO PUSH2 0x28E4 JUMPI PUSH1 0x40 DUP1 MLOAD PUSH3 0x461BCD PUSH1 0xE5 SHL DUP2 MSTORE PUSH1 0x20 PUSH1 0x4 DUP3 ADD MSTORE PUSH1 0x18 PUSH1 0x24 DUP3 ADD MSTORE PUSH1 0x0 DUP1 MLOAD PUSH1 0x20 PUSH2 0x467E DUP4 CODECOPY DUP2 MLOAD SWAP2 MSTORE PUSH1 0x44 DUP3 ADD MSTORE SWAP1 MLOAD SWAP1 DUP2 SWAP1 SUB PUSH1 0x64 ADD SWAP1 REVERT JUMPDEST PUSH2 0x28F2 DUP13 DUP13 DUP13 DUP13 DUP13 DUP13 PUSH2 0x405A JUMP JUMPDEST SWAP1 SWAP5 POP SWAP3 POP PUSH1 0x0 PUSH2 0x2924 PUSH32 0x0 DUP15 DUP15 PUSH2 0x34B2 JUMP JUMPDEST SWAP1 POP PUSH2 0x2932 DUP14 CALLER DUP4 DUP9 PUSH2 0x3572 JUMP JUMPDEST PUSH2 0x293E DUP13 CALLER DUP4 DUP8 PUSH2 0x3572 JUMP JUMPDEST DUP1 PUSH1 0x1 PUSH1 0x1 PUSH1 0xA0 SHL SUB AND PUSH4 0x6A627842 DUP9 PUSH1 0x40 MLOAD DUP3 PUSH4 0xFFFFFFFF AND PUSH1 0xE0 SHL DUP2 MSTORE PUSH1 0x4 ADD DUP1 DUP3 PUSH1 0x1 PUSH1 0x1 PUSH1 0xA0 SHL SUB AND DUP2 MSTORE PUSH1 0x20 ADD SWAP2 POP POP PUSH1 0x20 PUSH1 0x40 MLOAD DUP1 DUP4 SUB DUP2 PUSH1 0x0 DUP8 DUP1 EXTCODESIZE ISZERO DUP1 ISZERO PUSH2 0x298D JUMPI PUSH1 0x0 DUP1 REVERT JUMPDEST POP GAS CALL ISZERO DUP1 ISZERO PUSH2 0x29A1 JUMPI RETURNDATASIZE PUSH1 0x0 DUP1 RETURNDATACOPY RETURNDATASIZE PUSH1 0x0 REVERT JUMPDEST POP POP POP POP PUSH1 0x40 MLOAD RETURNDATASIZE PUSH1 0x20 DUP2 LT ISZERO PUSH2 0x29B7 JUMPI PUSH1 0x0 DUP1 REVERT JUMPDEST POP MLOAD SWAP5 SWAP14 SWAP4 SWAP13 POP SWAP4 SWAP11 POP SWAP2 SWAP9 POP POP POP POP POP POP POP POP POP JUMP JUMPDEST PUSH1 0x0 DUP1 PUSH1 0x0 DUP4 TIMESTAMP DUP2 LT ISZERO PUSH2 0x2A17 JUMPI PUSH1 0x40 DUP1 MLOAD PUSH3 0x461BCD PUSH1 0xE5 SHL DUP2 MSTORE PUSH1 0x20 PUSH1 0x4 DUP3 ADD MSTORE PUSH1 0x18 PUSH1 0x24 DUP3 ADD MSTORE PUSH1 0x0 DUP1 MLOAD PUSH1 0x20 PUSH2 0x467E DUP4 CODECOPY DUP2 MLOAD SWAP2 MSTORE PUSH1 0x44 DUP3 ADD MSTORE SWAP1 MLOAD SWAP1 DUP2 SWAP1 SUB PUSH1 0x64 ADD SWAP1 REVERT JUMPDEST PUSH2 0x2A45 DUP11 PUSH32 0x0 DUP12 CALLVALUE DUP13 DUP13 PUSH2 0x405A JUMP JUMPDEST SWAP1 SWAP5 POP SWAP3 POP PUSH1 0x0 PUSH2 0x2A97 PUSH32 0x0 DUP13 PUSH32 0x0 PUSH2 0x34B2 JUMP JUMPDEST SWAP1 POP PUSH2 0x2AA5 DUP12 CALLER DUP4 DUP9 PUSH2 0x3572 JUMP JUMPDEST PUSH32 0x0 PUSH1 0x1 PUSH1 0x1 PUSH1 0xA0 SHL SUB AND PUSH4 0xD0E30DB0 DUP6 PUSH1 0x40 MLOAD DUP3 PUSH4 0xFFFFFFFF AND PUSH1 0xE0 SHL DUP2 MSTORE PUSH1 0x4 ADD PUSH1 0x0 PUSH1 0x40 MLOAD DUP1 DUP4 SUB DUP2 DUP6 DUP9 DUP1 EXTCODESIZE ISZERO DUP1 ISZERO PUSH2 0x2B00 JUMPI PUSH1 0x0 DUP1 REVERT JUMPDEST POP GAS CALL ISZERO DUP1 ISZERO PUSH2 0x2B14 JUMPI RETURNDATASIZE PUSH1 0x0 DUP1 RETURNDATACOPY RETURNDATASIZE PUSH1 0x0 REVERT JUMPDEST POP POP POP POP POP PUSH32 0x0 PUSH1 0x1 PUSH1 0x1 PUSH1 0xA0 SHL SUB AND PUSH4 0xA9059CBB DUP3 DUP7 PUSH1 0x40 MLOAD DUP4 PUSH4 0xFFFFFFFF AND PUSH1 0xE0 SHL DUP2 MSTORE PUSH1 0x4 ADD DUP1 DUP4 PUSH1 0x1 PUSH1 0x1 PUSH1 0xA0 SHL SUB AND DUP2 MSTORE PUSH1 0x20 ADD DUP3 DUP2 MSTORE PUSH1 0x20 ADD SWAP3 POP POP POP PUSH1 0x20 PUSH1 0x40 MLOAD DUP1 DUP4 SUB DUP2 PUSH1 0x0 DUP8 DUP1 EXTCODESIZE ISZERO DUP1 ISZERO PUSH2 0x2B90 JUMPI PUSH1 0x0 DUP1 REVERT JUMPDEST POP GAS CALL ISZERO DUP1 ISZERO PUSH2 0x2BA4 JUMPI RETURNDATASIZE PUSH1 0x0 DUP1 RETURNDATACOPY RETURNDATASIZE PUSH1 0x0 REVERT JUMPDEST POP POP POP POP PUSH1 0x40 MLOAD RETURNDATASIZE PUSH1 0x20 DUP2 LT ISZERO PUSH2 0x2BBA JUMPI PUSH1 0x0 DUP1 REVERT JUMPDEST POP MLOAD PUSH2 0x2BC2 JUMPI INVALID JUMPDEST DUP1 PUSH1 0x1 PUSH1 0x1 PUSH1 0xA0 SHL SUB AND PUSH4 0x6A627842 DUP9 PUSH1 0x40 MLOAD DUP3 PUSH4 0xFFFFFFFF AND PUSH1 0xE0 SHL DUP2 MSTORE PUSH1 0x4 ADD DUP1 DUP3 PUSH1 0x1 PUSH1 0x1 PUSH1 0xA0 SHL SUB AND DUP2 MSTORE PUSH1 0x20 ADD SWAP2 POP POP PUSH1 0x20 PUSH1 0x40 MLOAD DUP1 DUP4 SUB DUP2 PUSH1 0x0 DUP8 DUP1 EXTCODESIZE ISZERO DUP1 ISZERO PUSH2 0x2C11 JUMPI PUSH1 0x0 DUP1 REVERT JUMPDEST POP GAS CALL ISZERO DUP1 ISZERO PUSH2 0x2C25 JUMPI RETURNDATASIZE PUSH1 0x0 DUP1 RETURNDATACOPY RETURNDATASIZE PUSH1 0x0 REVERT JUMPDEST POP POP POP POP PUSH1 0x40 MLOAD RETURNDATASIZE PUSH1 0x20 DUP2 LT ISZERO PUSH2 0x2C3B JUMPI PUSH1 0x0 DUP1 REVERT JUMPDEST POP MLOAD SWAP3 POP CALLVALUE DUP5 LT ISZERO PUSH2 0x2C53 JUMPI PUSH2 0x2C53 CALLER DUP6 CALLVALUE SUB PUSH2 0x312E JUMP JUMPDEST POP POP SWAP7 POP SWAP7 POP SWAP7 SWAP4 POP POP POP POP JUMP JUMPDEST PUSH1 0x60 DUP2 TIMESTAMP DUP2 LT ISZERO PUSH2 0x2CA7 JUMPI PUSH1 0x40 DUP1 MLOAD PUSH3 0x461BCD PUSH1 0xE5 SHL DUP2 MSTORE PUSH1 0x20 PUSH1 0x4 DUP3 ADD MSTORE PUSH1 0x18 PUSH1 0x24 DUP3 ADD MSTORE PUSH1 0x0 DUP1 MLOAD PUSH1 0x20 PUSH2 0x467E DUP4 CODECOPY DUP2 MLOAD SWAP2 MSTORE PUSH1 0x44 DUP3 ADD MSTORE SWAP1 MLOAD SWAP1 DUP2 SWAP1 SUB PUSH1 0x64 ADD SWAP1 REVERT JUMPDEST PUSH32 0x0 PUSH1 0x1 PUSH1 0x1 PUSH1 0xA0 SHL SUB AND DUP7 DUP7 PUSH1 0x0 DUP2 DUP2 LT PUSH2 0x2CDE JUMPI INVALID JUMPDEST SWAP1 POP PUSH1 0x20 MUL ADD CALLDATALOAD PUSH1 0x1 PUSH1 0x1 PUSH1 0xA0 SHL SUB AND PUSH1 0x1 PUSH1 0x1 PUSH1 0xA0 SHL SUB AND EQ PUSH2 0x2D37 JUMPI PUSH1 0x40 DUP1 MLOAD PUSH3 0x461BCD PUSH1 0xE5 SHL DUP2 MSTORE PUSH1 0x20 PUSH1 0x4 DUP3 ADD MSTORE PUSH1 0x1D PUSH1 0x24 DUP3 ADD MSTORE PUSH1 0x0 DUP1 MLOAD PUSH1 0x20 PUSH2 0x45B5 DUP4 CODECOPY DUP2 MLOAD SWAP2 MSTORE PUSH1 0x44 DUP3 ADD MSTORE SWAP1 MLOAD SWAP1 DUP2 SWAP1 SUB PUSH1 0x64 ADD SWAP1 REVERT JUMPDEST PUSH2 0x2D95 PUSH32 0x0 DUP9 DUP9 DUP9 DUP1 DUP1 PUSH1 0x20 MUL PUSH1 0x20 ADD PUSH1 0x40 MLOAD SWAP1 DUP2 ADD PUSH1 0x40 MSTORE DUP1 SWAP4 SWAP3 SWAP2 SWAP1 DUP2 DUP2 MSTORE PUSH1 0x20 ADD DUP4 DUP4 PUSH1 0x20 MUL DUP1 DUP3 DUP5 CALLDATACOPY PUSH1 0x0 SWAP3 ADD SWAP2 SWAP1 SWAP2 MSTORE POP PUSH2 0x390C SWAP3 POP POP POP JUMP JUMPDEST SWAP2 POP CALLVALUE DUP3 PUSH1 0x0 DUP2 MLOAD DUP2 LT PUSH2 0x2DA5 JUMPI INVALID JUMPDEST PUSH1 0x20 MUL PUSH1 0x20 ADD ADD MLOAD GT ISZERO PUSH2 0x2DEA JUMPI PUSH1 0x40 MLOAD PUSH3 0x461BCD PUSH1 0xE5 SHL DUP2 MSTORE PUSH1 0x4 ADD DUP1 DUP1 PUSH1 0x20 ADD DUP3 DUP2 SUB DUP3 MSTORE PUSH1 0x27 DUP2 MSTORE PUSH1 0x20 ADD DUP1 PUSH2 0x458E PUSH1 0x27 SWAP2 CODECOPY PUSH1 0x40 ADD SWAP2 POP POP PUSH1 0x40 MLOAD DUP1 SWAP2 SUB SWAP1 REVERT JUMPDEST PUSH32 0x0 PUSH1 0x1 PUSH1 0x1 PUSH1 0xA0 SHL SUB AND PUSH4 0xD0E30DB0 DUP4 PUSH1 0x0 DUP2 MLOAD DUP2 LT PUSH2 0x2E26 JUMPI INVALID JUMPDEST PUSH1 0x20 MUL PUSH1 0x20 ADD ADD MLOAD PUSH1 0x40 MLOAD DUP3 PUSH4 0xFFFFFFFF AND PUSH1 0xE0 SHL DUP2 MSTORE PUSH1 0x4 ADD PUSH1 0x0 PUSH1 0x40 MLOAD DUP1 DUP4 SUB DUP2 DUP6 DUP9 DUP1 EXTCODESIZE ISZERO DUP1 ISZERO PUSH2 0x2E59 JUMPI PUSH1 0x0 DUP1 REVERT JUMPDEST POP GAS CALL ISZERO DUP1 ISZERO PUSH2 0x2E6D JUMPI RETURNDATASIZE PUSH1 0x0 DUP1 RETURNDATACOPY RETURNDATASIZE PUSH1 0x0 REVERT JUMPDEST POP POP POP POP POP PUSH32 0x0 PUSH1 0x1 PUSH1 0x1 PUSH1 0xA0 SHL SUB AND PUSH4 0xA9059CBB PUSH2 0x2ED2 PUSH32 0x0 DUP10 DUP10 PUSH1 0x0 DUP2 DUP2 LT PUSH2 0x1704 JUMPI INVALID JUMPDEST DUP5 PUSH1 0x0 DUP2 MLOAD DUP2 LT PUSH2 0x2EDF JUMPI INVALID JUMPDEST PUSH1 0x20 MUL PUSH1 0x20 ADD ADD MLOAD PUSH1 0x40 MLOAD DUP4 PUSH4 0xFFFFFFFF AND PUSH1 0xE0 SHL DUP2 MSTORE PUSH1 0x4 ADD DUP1 DUP4 PUSH1 0x1 PUSH1 0x1 PUSH1 0xA0 SHL SUB AND DUP2 MSTORE PUSH1 0x20 ADD DUP3 DUP2 MSTORE PUSH1 0x20 ADD SWAP3 POP POP POP PUSH1 0x20 PUSH1 0x40 MLOAD DUP1 DUP4 SUB DUP2 PUSH1 0x0 DUP8 DUP1 EXTCODESIZE ISZERO DUP1 ISZERO PUSH2 0x2F2D JUMPI PUSH1 0x0 DUP1 REVERT JUMPDEST POP GAS CALL ISZERO DUP1 ISZERO PUSH2 0x2F41 JUMPI RETURNDATASIZE PUSH1 0x0 DUP1 RETURNDATACOPY RETURNDATASIZE PUSH1 0x0 REVERT JUMPDEST POP POP POP POP PUSH1 0x40 MLOAD RETURNDATASIZE PUSH1 0x20 DUP2 LT ISZERO PUSH2 0x2F57 JUMPI PUSH1 0x0 DUP1 REVERT JUMPDEST POP MLOAD PUSH2 0x2F5F JUMPI INVALID JUMPDEST PUSH2 0x2F9E DUP3 DUP8 DUP8 DUP1 DUP1 PUSH1 0x20 MUL PUSH1 0x20 ADD PUSH1 0x40 MLOAD SWAP1 DUP2 ADD PUSH1 0x40 MSTORE DUP1 SWAP4 SWAP3 SWAP2 SWAP1 DUP2 DUP2 MSTORE PUSH1 0x20 ADD DUP4 DUP4 PUSH1 0x20 MUL DUP1 DUP3 DUP5 CALLDATACOPY PUSH1 0x0 SWAP3 ADD SWAP2 SWAP1 SWAP2 MSTORE POP DUP10 SWAP3 POP PUSH2 0x36CF SWAP2 POP POP JUMP JUMPDEST DUP2 PUSH1 0x0 DUP2 MLOAD DUP2 LT PUSH2 0x2FAB JUMPI INVALID JUMPDEST PUSH1 0x20 MUL PUSH1 0x20 ADD ADD MLOAD CALLVALUE GT ISZERO PUSH2 0x1EB4 JUMPI PUSH2 0x1EB4 CALLER DUP4 PUSH1 0x0 DUP2 MLOAD DUP2 LT PUSH2 0x2FCB JUMPI INVALID JUMPDEST PUSH1 0x20 MUL PUSH1 0x20 ADD ADD MLOAD CALLVALUE SUB PUSH2 0x312E JUMP JUMPDEST PUSH1 0x40 DUP1 MLOAD PUSH1 0x1 PUSH1 0x1 PUSH1 0xA0 SHL SUB DUP5 DUP2 AND PUSH1 0x24 DUP4 ADD MSTORE PUSH1 0x44 DUP1 DUP4 ADD DUP6 SWAP1 MSTORE DUP4 MLOAD DUP1 DUP5 SUB SWAP1 SWAP2 ADD DUP2 MSTORE PUSH1 0x64 SWAP1 SWAP3 ADD DUP4 MSTORE PUSH1 0x20 DUP3 ADD DUP1 MLOAD PUSH1 0x1 PUSH1 0x1 PUSH1 0xE0 SHL SUB AND PUSH4 0xA9059CBB PUSH1 0xE0 SHL OR DUP2 MSTORE SWAP3 MLOAD DUP3 MLOAD PUSH1 0x0 SWAP5 PUSH1 0x60 SWAP5 SWAP4 DUP10 AND SWAP4 SWAP3 SWAP2 DUP3 SWAP2 SWAP1 DUP1 DUP4 DUP4 JUMPDEST PUSH1 0x20 DUP4 LT PUSH2 0x3057 JUMPI DUP1 MLOAD DUP3 MSTORE PUSH1 0x1F NOT SWAP1 SWAP3 ADD SWAP2 PUSH1 0x20 SWAP2 DUP3 ADD SWAP2 ADD PUSH2 0x3038 JUMP JUMPDEST PUSH1 0x1 DUP4 PUSH1 0x20 SUB PUSH2 0x100 EXP SUB DUP1 NOT DUP3 MLOAD AND DUP2 DUP5 MLOAD AND DUP1 DUP3 OR DUP6 MSTORE POP POP POP POP POP POP SWAP1 POP ADD SWAP2 POP POP PUSH1 0x0 PUSH1 0x40 MLOAD DUP1 DUP4 SUB DUP2 PUSH1 0x0 DUP7 GAS CALL SWAP2 POP POP RETURNDATASIZE DUP1 PUSH1 0x0 DUP2 EQ PUSH2 0x30B9 JUMPI PUSH1 0x40 MLOAD SWAP2 POP PUSH1 0x1F NOT PUSH1 0x3F RETURNDATASIZE ADD AND DUP3 ADD PUSH1 0x40 MSTORE RETURNDATASIZE DUP3 MSTORE RETURNDATASIZE PUSH1 0x0 PUSH1 0x20 DUP5 ADD RETURNDATACOPY PUSH2 0x30BE JUMP JUMPDEST PUSH1 0x60 SWAP2 POP JUMPDEST POP SWAP2 POP SWAP2 POP DUP2 DUP1 ISZERO PUSH2 0x30EC JUMPI POP DUP1 MLOAD ISZERO DUP1 PUSH2 0x30EC JUMPI POP DUP1 DUP1 PUSH1 0x20 ADD SWAP1 MLOAD PUSH1 0x20 DUP2 LT ISZERO PUSH2 0x30E9 JUMPI PUSH1 0x0 DUP1 REVERT JUMPDEST POP MLOAD JUMPDEST PUSH2 0x3127 JUMPI PUSH1 0x40 MLOAD PUSH3 0x461BCD PUSH1 0xE5 SHL DUP2 MSTORE PUSH1 0x4 ADD DUP1 DUP1 PUSH1 0x20 ADD DUP3 DUP2 SUB DUP3 MSTORE PUSH1 0x2D DUP2 MSTORE PUSH1 0x20 ADD DUP1 PUSH2 0x4626 PUSH1 0x2D SWAP2 CODECOPY PUSH1 0x40 ADD SWAP2 POP POP PUSH1 0x40 MLOAD DUP1 SWAP2 SUB SWAP1 REVERT JUMPDEST POP POP POP POP POP JUMP JUMPDEST PUSH1 0x40 DUP1 MLOAD PUSH1 0x0 DUP1 DUP3 MSTORE PUSH1 0x20 DUP3 ADD SWAP1 SWAP3 MSTORE PUSH1 0x1 PUSH1 0x1 PUSH1 0xA0 SHL SUB DUP5 AND SWAP1 DUP4 SWAP1 PUSH1 0x40 MLOAD DUP1 DUP3 DUP1 MLOAD SWAP1 PUSH1 0x20 ADD SWAP1 DUP1 DUP4 DUP4 JUMPDEST PUSH1 0x20 DUP4 LT PUSH2 0x317A JUMPI DUP1 MLOAD DUP3 MSTORE PUSH1 0x1F NOT SWAP1 SWAP3 ADD SWAP2 PUSH1 0x20 SWAP2 DUP3 ADD SWAP2 ADD PUSH2 0x315B JUMP JUMPDEST PUSH1 0x1 DUP4 PUSH1 0x20 SUB PUSH2 0x100 EXP SUB DUP1 NOT DUP3 MLOAD AND DUP2 DUP5 MLOAD AND DUP1 DUP3 OR DUP6 MSTORE POP POP POP POP POP POP SWAP1 POP ADD SWAP2 POP POP PUSH1 0x0 PUSH1 0x40 MLOAD DUP1 DUP4 SUB DUP2 DUP6 DUP8 GAS CALL SWAP3 POP POP POP RETURNDATASIZE DUP1 PUSH1 0x0 DUP2 EQ PUSH2 0x31DC JUMPI PUSH1 0x40 MLOAD SWAP2 POP PUSH1 0x1F NOT PUSH1 0x3F RETURNDATASIZE ADD AND DUP3 ADD PUSH1 0x40 MSTORE RETURNDATASIZE DUP3 MSTORE RETURNDATASIZE PUSH1 0x0 PUSH1 0x20 DUP5 ADD RETURNDATACOPY PUSH2 0x31E1 JUMP JUMPDEST PUSH1 0x60 SWAP2 POP JUMPDEST POP POP SWAP1 POP DUP1 PUSH2 0x3221 JUMPI PUSH1 0x40 MLOAD PUSH3 0x461BCD PUSH1 0xE5 SHL DUP2 MSTORE PUSH1 0x4 ADD DUP1 DUP1 PUSH1 0x20 ADD DUP3 DUP2 SUB DUP3 MSTORE PUSH1 0x34 DUP2 MSTORE PUSH1 0x20 ADD DUP1 PUSH2 0x44C2 PUSH1 0x34 SWAP2 CODECOPY PUSH1 0x40 ADD SWAP2 POP POP PUSH1 0x40 MLOAD DUP1 SWAP2 SUB SWAP1 REVERT JUMPDEST POP POP POP JUMP JUMPDEST PUSH1 0x0 DUP1 DUP5 GT PUSH2 0x3266 JUMPI PUSH1 0x40 MLOAD PUSH3 0x461BCD PUSH1 0xE5 SHL DUP2 MSTORE PUSH1 0x4 ADD DUP1 DUP1 PUSH1 0x20 ADD DUP3 DUP2 SUB DUP3 MSTORE PUSH1 0x2B DUP2 MSTORE PUSH1 0x20 ADD DUP1 PUSH2 0x4653 PUSH1 0x2B SWAP2 CODECOPY PUSH1 0x40 ADD SWAP2 POP POP PUSH1 0x40 MLOAD DUP1 SWAP2 SUB SWAP1 REVERT JUMPDEST PUSH1 0x0 DUP4 GT DUP1 ISZERO PUSH2 0x3276 JUMPI POP PUSH1 0x0 DUP3 GT JUMPDEST PUSH2 0x32B1 JUMPI PUSH1 0x40 MLOAD PUSH3 0x461BCD PUSH1 0xE5 SHL DUP2 MSTORE PUSH1 0x4 ADD DUP1 DUP1 PUSH1 0x20 ADD DUP3 DUP2 SUB DUP3 MSTORE PUSH1 0x28 DUP2 MSTORE PUSH1 0x20 ADD DUP1 PUSH2 0x4541 PUSH1 0x28 SWAP2 CODECOPY PUSH1 0x40 ADD SWAP2 POP POP PUSH1 0x40 MLOAD DUP1 SWAP2 SUB SWAP1 REVERT JUMPDEST PUSH1 0x0 CALLER PUSH1 0x1 PUSH1 0x1 PUSH1 0xA0 SHL SUB AND PUSH4 0xA0BE06F9 PUSH1 0x40 MLOAD DUP2 PUSH4 0xFFFFFFFF AND PUSH1 0xE0 SHL DUP2 MSTORE PUSH1 0x4 ADD PUSH1 0x20 PUSH1 0x40 MLOAD DUP1 DUP4 SUB DUP2 DUP7 DUP1 EXTCODESIZE ISZERO DUP1 ISZERO PUSH2 0x32EC JUMPI PUSH1 0x0 DUP1 REVERT JUMPDEST POP GAS STATICCALL ISZERO DUP1 ISZERO PUSH2 0x3300 JUMPI RETURNDATASIZE PUSH1 0x0 DUP1 RETURNDATACOPY RETURNDATASIZE PUSH1 0x0 REVERT JUMPDEST POP POP POP POP PUSH1 0x40 MLOAD RETURNDATASIZE PUSH1 0x20 DUP2 LT ISZERO PUSH2 0x3316 JUMPI PUSH1 0x0 DUP1 REVERT JUMPDEST POP MLOAD SWAP1 POP PUSH1 0x0 PUSH2 0x3326 DUP7 DUP4 PUSH2 0x42EB JUMP JUMPDEST SWAP1 POP PUSH1 0x0 PUSH2 0x3334 DUP3 DUP7 PUSH2 0x42EB JUMP JUMPDEST SWAP1 POP PUSH1 0x0 PUSH2 0x334E DUP4 PUSH2 0x3348 DUP10 PUSH2 0x3E8 PUSH2 0x42EB JUMP JUMPDEST SWAP1 PUSH2 0x434E JUMP JUMPDEST SWAP1 POP DUP1 DUP3 DUP2 PUSH2 0x3359 JUMPI INVALID JUMPDEST DIV SWAP9 SWAP8 POP POP POP POP POP POP POP POP JUMP JUMPDEST PUSH1 0x60 PUSH1 0x2 DUP3 MLOAD LT ISZERO PUSH2 0x33BF JUMPI PUSH1 0x40 DUP1 MLOAD PUSH3 0x461BCD PUSH1 0xE5 SHL DUP2 MSTORE PUSH1 0x20 PUSH1 0x4 DUP3 ADD MSTORE PUSH1 0x1E PUSH1 0x24 DUP3 ADD MSTORE PUSH32 0x556E697377617056324C6962726172793A20494E56414C49445F504154480000 PUSH1 0x44 DUP3 ADD MSTORE SWAP1 MLOAD SWAP1 DUP2 SWAP1 SUB PUSH1 0x64 ADD SWAP1 REVERT JUMPDEST DUP2 MLOAD PUSH8 0xFFFFFFFFFFFFFFFF DUP2 GT DUP1 ISZERO PUSH2 0x33D7 JUMPI PUSH1 0x0 DUP1 REVERT JUMPDEST POP PUSH1 0x40 MLOAD SWAP1 DUP1 DUP3 MSTORE DUP1 PUSH1 0x20 MUL PUSH1 0x20 ADD DUP3 ADD PUSH1 0x40 MSTORE DUP1 ISZERO PUSH2 0x3401 JUMPI DUP2 PUSH1 0x20 ADD PUSH1 0x20 DUP3 MUL DUP1 CALLDATASIZE DUP4 CALLDATACOPY ADD SWAP1 POP JUMPDEST POP SWAP1 POP DUP3 DUP2 PUSH1 0x0 DUP2 MLOAD DUP2 LT PUSH2 0x3412 JUMPI INVALID JUMPDEST PUSH1 0x20 MUL PUSH1 0x20 ADD ADD DUP2 DUP2 MSTORE POP POP PUSH1 0x0 JUMPDEST PUSH1 0x1 DUP4 MLOAD SUB DUP2 LT ISZERO PUSH2 0x34AA JUMPI PUSH1 0x0 DUP1 PUSH2 0x3464 DUP8 DUP7 DUP6 DUP2 MLOAD DUP2 LT PUSH2 0x3440 JUMPI INVALID JUMPDEST PUSH1 0x20 MUL PUSH1 0x20 ADD ADD MLOAD DUP8 DUP7 PUSH1 0x1 ADD DUP2 MLOAD DUP2 LT PUSH2 0x3457 JUMPI INVALID JUMPDEST PUSH1 0x20 MUL PUSH1 0x20 ADD ADD MLOAD PUSH2 0x439D JUMP JUMPDEST SWAP2 POP SWAP2 POP PUSH2 0x3486 DUP5 DUP5 DUP2 MLOAD DUP2 LT PUSH2 0x3477 JUMPI INVALID JUMPDEST PUSH1 0x20 MUL PUSH1 0x20 ADD ADD MLOAD DUP4 DUP4 PUSH2 0x3226 JUMP JUMPDEST DUP5 DUP5 PUSH1 0x1 ADD DUP2 MLOAD DUP2 LT PUSH2 0x3495 JUMPI INVALID JUMPDEST PUSH1 0x20 SWAP1 DUP2 MUL SWAP2 SWAP1 SWAP2 ADD ADD MSTORE POP POP PUSH1 0x1 ADD PUSH2 0x3421 JUMP JUMPDEST POP SWAP4 SWAP3 POP POP POP JUMP JUMPDEST PUSH1 0x0 DUP1 PUSH1 0x0 PUSH2 0x34C1 DUP6 DUP6 PUSH2 0x3F7C JUMP JUMPDEST PUSH1 0x40 DUP1 MLOAD PUSH12 0xFFFFFFFFFFFFFFFFFFFFFFFF NOT PUSH1 0x60 SWAP5 DUP6 SHL DUP2 AND PUSH1 0x20 DUP1 DUP5 ADD SWAP2 SWAP1 SWAP2 MSTORE SWAP4 DUP6 SHL DUP2 AND PUSH1 0x34 DUP4 ADD MSTORE DUP3 MLOAD PUSH1 0x28 DUP2 DUP5 SUB ADD DUP2 MSTORE PUSH1 0x48 DUP4 ADD DUP5 MSTORE DUP1 MLOAD SWAP1 DUP6 ADD KECCAK256 PUSH1 0x1 PUSH1 0x1 PUSH1 0xF8 SHL SUB NOT PUSH1 0x68 DUP5 ADD MSTORE SWAP11 SWAP1 SWAP5 SHL SWAP1 SWAP4 AND PUSH1 0x69 DUP5 ADD MSTORE PUSH1 0x7D DUP4 ADD SWAP9 SWAP1 SWAP9 MSTORE PUSH32 0xFC0D909B941A223F03A05103511F7B486AA41FC8E5FE699769E3E486B7DA2F14 PUSH1 0x9D DUP1 DUP5 ADD SWAP2 SWAP1 SWAP2 MSTORE DUP9 MLOAD DUP1 DUP5 SUB SWAP1 SWAP2 ADD DUP2 MSTORE PUSH1 0xBD SWAP1 SWAP3 ADD SWAP1 SWAP8 MSTORE DUP1 MLOAD SWAP7 ADD SWAP6 SWAP1 SWAP6 KECCAK256 SWAP6 SWAP5 POP POP POP POP POP JUMP JUMPDEST PUSH1 0x40 DUP1 MLOAD PUSH1 0x1 PUSH1 0x1 PUSH1 0xA0 SHL SUB DUP6 DUP2 AND PUSH1 0x24 DUP4 ADD MSTORE DUP5 DUP2 AND PUSH1 0x44 DUP4 ADD MSTORE PUSH1 0x64 DUP1 DUP4 ADD DUP6 SWAP1 MSTORE DUP4 MLOAD DUP1 DUP5 SUB SWAP1 SWAP2 ADD DUP2 MSTORE PUSH1 0x84 SWAP1 SWAP3 ADD DUP4 MSTORE PUSH1 0x20 DUP3 ADD DUP1 MLOAD PUSH1 0x1 PUSH1 0x1 PUSH1 0xE0 SHL SUB AND PUSH4 0x23B872DD PUSH1 0xE0 SHL OR DUP2 MSTORE SWAP3 MLOAD DUP3 MLOAD PUSH1 0x0 SWAP5 PUSH1 0x60 SWAP5 SWAP4 DUP11 AND SWAP4 SWAP3 SWAP2 DUP3 SWAP2 SWAP1 DUP1 DUP4 DUP4 JUMPDEST PUSH1 0x20 DUP4 LT PUSH2 0x35F7 JUMPI DUP1 MLOAD DUP3 MSTORE PUSH1 0x1F NOT SWAP1 SWAP3 ADD SWAP2 PUSH1 0x20 SWAP2 DUP3 ADD SWAP2 ADD PUSH2 0x35D8 JUMP JUMPDEST PUSH1 0x1 DUP4 PUSH1 0x20 SUB PUSH2 0x100 EXP SUB DUP1 NOT DUP3 MLOAD AND DUP2 DUP5 MLOAD AND DUP1 DUP3 OR DUP6 MSTORE POP POP POP POP POP POP SWAP1 POP ADD SWAP2 POP POP PUSH1 0x0 PUSH1 0x40 MLOAD DUP1 DUP4 SUB DUP2 PUSH1 0x0 DUP7 GAS CALL SWAP2 POP POP RETURNDATASIZE DUP1 PUSH1 0x0 DUP2 EQ PUSH2 0x3659 JUMPI PUSH1 0x40 MLOAD SWAP2 POP PUSH1 0x1F NOT PUSH1 0x3F RETURNDATASIZE ADD AND DUP3 ADD PUSH1 0x40 MSTORE RETURNDATASIZE DUP3 MSTORE RETURNDATASIZE PUSH1 0x0 PUSH1 0x20 DUP5 ADD RETURNDATACOPY PUSH2 0x365E JUMP JUMPDEST PUSH1 0x60 SWAP2 POP JUMPDEST POP SWAP2 POP SWAP2 POP DUP2 DUP1 ISZERO PUSH2 0x368C JUMPI POP DUP1 MLOAD ISZERO DUP1 PUSH2 0x368C JUMPI POP DUP1 DUP1 PUSH1 0x20 ADD SWAP1 MLOAD PUSH1 0x20 DUP2 LT ISZERO PUSH2 0x3689 JUMPI PUSH1 0x0 DUP1 REVERT JUMPDEST POP MLOAD JUMPDEST PUSH2 0x36C7 JUMPI PUSH1 0x40 MLOAD PUSH3 0x461BCD PUSH1 0xE5 SHL DUP2 MSTORE PUSH1 0x4 ADD DUP1 DUP1 PUSH1 0x20 ADD DUP3 DUP2 SUB DUP3 MSTORE PUSH1 0x31 DUP2 MSTORE PUSH1 0x20 ADD DUP1 PUSH2 0x4491 PUSH1 0x31 SWAP2 CODECOPY PUSH1 0x40 ADD SWAP2 POP POP PUSH1 0x40 MLOAD DUP1 SWAP2 SUB SWAP1 REVERT JUMPDEST POP POP POP POP POP POP JUMP JUMPDEST PUSH1 0x0 JUMPDEST PUSH1 0x1 DUP4 MLOAD SUB DUP2 LT ISZERO PUSH2 0x3906 JUMPI PUSH1 0x0 DUP1 DUP5 DUP4 DUP2 MLOAD DUP2 LT PUSH2 0x36ED JUMPI INVALID JUMPDEST PUSH1 0x20 MUL PUSH1 0x20 ADD ADD MLOAD DUP6 DUP5 PUSH1 0x1 ADD DUP2 MLOAD DUP2 LT PUSH2 0x3704 JUMPI INVALID JUMPDEST PUSH1 0x20 MUL PUSH1 0x20 ADD ADD MLOAD SWAP2 POP SWAP2 POP PUSH1 0x0 PUSH2 0x371C DUP4 DUP4 PUSH2 0x3F7C JUMP JUMPDEST POP SWAP1 POP PUSH1 0x0 DUP8 DUP6 PUSH1 0x1 ADD DUP2 MLOAD DUP2 LT PUSH2 0x3730 JUMPI INVALID JUMPDEST PUSH1 0x20 MUL PUSH1 0x20 ADD ADD MLOAD SWAP1 POP PUSH1 0x0 DUP1 DUP4 PUSH1 0x1 PUSH1 0x1 PUSH1 0xA0 SHL SUB AND DUP7 PUSH1 0x1 PUSH1 0x1 PUSH1 0xA0 SHL SUB AND EQ PUSH2 0x375E JUMPI DUP3 PUSH1 0x0 PUSH2 0x3762 JUMP JUMPDEST PUSH1 0x0 DUP4 JUMPDEST SWAP2 POP SWAP2 POP PUSH1 0x0 PUSH1 0x2 DUP11 MLOAD SUB DUP9 LT PUSH2 0x3779 JUMPI DUP9 PUSH2 0x37BA JUMP JUMPDEST PUSH2 0x37BA PUSH32 0x0 DUP8 DUP13 DUP12 PUSH1 0x2 ADD DUP2 MLOAD DUP2 LT PUSH2 0x37AD JUMPI INVALID JUMPDEST PUSH1 0x20 MUL PUSH1 0x20 ADD ADD MLOAD PUSH2 0x34B2 JUMP JUMPDEST SWAP1 POP PUSH2 0x37E7 PUSH32 0x0 DUP9 DUP9 PUSH2 0x34B2 JUMP JUMPDEST PUSH1 0x1 PUSH1 0x1 PUSH1 0xA0 SHL SUB AND PUSH4 0x22C0D9F DUP5 DUP5 DUP5 PUSH1 0x0 PUSH1 0x40 MLOAD SWAP1 DUP1 DUP3 MSTORE DUP1 PUSH1 0x1F ADD PUSH1 0x1F NOT AND PUSH1 0x20 ADD DUP3 ADD PUSH1 0x40 MSTORE DUP1 ISZERO PUSH2 0x3824 JUMPI PUSH1 0x20 DUP3 ADD DUP2 DUP1 CALLDATASIZE DUP4 CALLDATACOPY ADD SWAP1 POP JUMPDEST POP PUSH1 0x40 MLOAD DUP6 PUSH4 0xFFFFFFFF AND PUSH1 0xE0 SHL DUP2 MSTORE PUSH1 0x4 ADD DUP1 DUP6 DUP2 MSTORE PUSH1 0x20 ADD DUP5 DUP2 MSTORE PUSH1 0x20 ADD DUP4 PUSH1 0x1 PUSH1 0x1 PUSH1 0xA0 SHL SUB AND DUP2 MSTORE PUSH1 0x20 ADD DUP1 PUSH1 0x20 ADD DUP3 DUP2 SUB DUP3 MSTORE DUP4 DUP2 DUP2 MLOAD DUP2 MSTORE PUSH1 0x20 ADD SWAP2 POP DUP1 MLOAD SWAP1 PUSH1 0x20 ADD SWAP1 DUP1 DUP4 DUP4 PUSH1 0x0 JUMPDEST DUP4 DUP2 LT ISZERO PUSH2 0x388C JUMPI DUP2 DUP2 ADD MLOAD DUP4 DUP3 ADD MSTORE PUSH1 0x20 ADD PUSH2 0x3874 JUMP JUMPDEST POP POP POP POP SWAP1 POP SWAP1 DUP2 ADD SWAP1 PUSH1 0x1F AND DUP1 ISZERO PUSH2 0x38B9 JUMPI DUP1 DUP3 SUB DUP1 MLOAD PUSH1 0x1 DUP4 PUSH1 0x20 SUB PUSH2 0x100 EXP SUB NOT AND DUP2 MSTORE PUSH1 0x20 ADD SWAP2 POP JUMPDEST POP SWAP6 POP POP POP POP POP POP PUSH1 0x0 PUSH1 0x40 MLOAD DUP1 DUP4 SUB DUP2 PUSH1 0x0 DUP8 DUP1 EXTCODESIZE ISZERO DUP1 ISZERO PUSH2 0x38DB JUMPI PUSH1 0x0 DUP1 REVERT JUMPDEST POP GAS CALL ISZERO DUP1 ISZERO PUSH2 0x38EF JUMPI RETURNDATASIZE PUSH1 0x0 DUP1 RETURNDATACOPY RETURNDATASIZE PUSH1 0x0 REVERT JUMPDEST POP POP PUSH1 0x1 SWAP1 SWAP10 ADD SWAP9 POP PUSH2 0x36D2 SWAP8 POP POP POP POP POP POP POP POP JUMP JUMPDEST POP POP POP POP JUMP JUMPDEST PUSH1 0x60 PUSH1 0x2 DUP3 MLOAD LT ISZERO PUSH2 0x3965 JUMPI PUSH1 0x40 DUP1 MLOAD PUSH3 0x461BCD PUSH1 0xE5 SHL DUP2 MSTORE PUSH1 0x20 PUSH1 0x4 DUP3 ADD MSTORE PUSH1 0x1E PUSH1 0x24 DUP3 ADD MSTORE PUSH32 0x556E697377617056324C6962726172793A20494E56414C49445F504154480000 PUSH1 0x44 DUP3 ADD MSTORE SWAP1 MLOAD SWAP1 DUP2 SWAP1 SUB PUSH1 0x64 ADD SWAP1 REVERT JUMPDEST DUP2 MLOAD PUSH8 0xFFFFFFFFFFFFFFFF DUP2 GT DUP1 ISZERO PUSH2 0x397D JUMPI PUSH1 0x0 DUP1 REVERT JUMPDEST POP PUSH1 0x40 MLOAD SWAP1 DUP1 DUP3 MSTORE DUP1 PUSH1 0x20 MUL PUSH1 0x20 ADD DUP3 ADD PUSH1 0x40 MSTORE DUP1 ISZERO PUSH2 0x39A7 JUMPI DUP2 PUSH1 0x20 ADD PUSH1 0x20 DUP3 MUL DUP1 CALLDATASIZE DUP4 CALLDATACOPY ADD SWAP1 POP JUMPDEST POP SWAP1 POP DUP3 DUP2 PUSH1 0x1 DUP4 MLOAD SUB DUP2 MLOAD DUP2 LT PUSH2 0x39BB JUMPI INVALID JUMPDEST PUSH1 0x20 SWAP1 DUP2 MUL SWAP2 SWAP1 SWAP2 ADD ADD MSTORE DUP2 MLOAD PUSH1 0x0 NOT ADD JUMPDEST DUP1 ISZERO PUSH2 0x34AA JUMPI PUSH1 0x0 DUP1 PUSH2 0x39FD DUP8 DUP7 PUSH1 0x1 DUP7 SUB DUP2 MLOAD DUP2 LT PUSH2 0x39E9 JUMPI INVALID JUMPDEST PUSH1 0x20 MUL PUSH1 0x20 ADD ADD MLOAD DUP8 DUP7 DUP2 MLOAD DUP2 LT PUSH2 0x3457 JUMPI INVALID JUMPDEST SWAP2 POP SWAP2 POP PUSH2 0x3A1F DUP5 DUP5 DUP2 MLOAD DUP2 LT PUSH2 0x3A10 JUMPI INVALID JUMPDEST PUSH1 0x20 MUL PUSH1 0x20 ADD ADD MLOAD DUP4 DUP4 PUSH2 0x3D96 JUMP JUMPDEST DUP5 PUSH1 0x1 DUP6 SUB DUP2 MLOAD DUP2 LT PUSH2 0x3A2E JUMPI INVALID JUMPDEST PUSH1 0x20 SWAP1 DUP2 MUL SWAP2 SWAP1 SWAP2 ADD ADD MSTORE POP POP PUSH1 0x0 NOT ADD PUSH2 0x39CD JUMP JUMPDEST PUSH1 0x0 JUMPDEST PUSH1 0x1 DUP4 MLOAD SUB DUP2 LT ISZERO PUSH2 0x3221 JUMPI PUSH1 0x0 DUP1 DUP5 DUP4 DUP2 MLOAD DUP2 LT PUSH2 0x3A62 JUMPI INVALID JUMPDEST PUSH1 0x20 MUL PUSH1 0x20 ADD ADD MLOAD DUP6 DUP5 PUSH1 0x1 ADD DUP2 MLOAD DUP2 LT PUSH2 0x3A79 JUMPI INVALID JUMPDEST PUSH1 0x20 MUL PUSH1 0x20 ADD ADD MLOAD SWAP2 POP SWAP2 POP PUSH1 0x0 PUSH2 0x3A91 DUP4 DUP4 PUSH2 0x3F7C JUMP JUMPDEST POP SWAP1 POP PUSH1 0x0 PUSH2 0x3AC1 PUSH32 0x0 DUP6 DUP6 PUSH2 0x34B2 JUMP JUMPDEST SWAP1 POP PUSH1 0x0 DUP1 PUSH1 0x0 DUP1 DUP5 PUSH1 0x1 PUSH1 0x1 PUSH1 0xA0 SHL SUB AND PUSH4 0x902F1AC PUSH1 0x40 MLOAD DUP2 PUSH4 0xFFFFFFFF AND PUSH1 0xE0 SHL DUP2 MSTORE PUSH1 0x4 ADD PUSH1 0x60 PUSH1 0x40 MLOAD DUP1 DUP4 SUB DUP2 DUP7 DUP1 EXTCODESIZE ISZERO DUP1 ISZERO PUSH2 0x3B02 JUMPI PUSH1 0x0 DUP1 REVERT JUMPDEST POP GAS STATICCALL ISZERO DUP1 ISZERO PUSH2 0x3B16 JUMPI RETURNDATASIZE PUSH1 0x0 DUP1 RETURNDATACOPY RETURNDATASIZE PUSH1 0x0 REVERT JUMPDEST POP POP POP POP PUSH1 0x40 MLOAD RETURNDATASIZE PUSH1 0x60 DUP2 LT ISZERO PUSH2 0x3B2C JUMPI PUSH1 0x0 DUP1 REVERT JUMPDEST POP DUP1 MLOAD PUSH1 0x20 SWAP1 SWAP2 ADD MLOAD PUSH1 0x1 PUSH1 0x1 PUSH1 0x70 SHL SUB SWAP2 DUP3 AND SWAP4 POP AND SWAP1 POP PUSH1 0x0 DUP1 PUSH1 0x1 PUSH1 0x1 PUSH1 0xA0 SHL SUB DUP11 DUP2 AND SWAP1 DUP10 AND EQ PUSH2 0x3B62 JUMPI DUP3 DUP5 PUSH2 0x3B65 JUMP JUMPDEST DUP4 DUP4 JUMPDEST SWAP2 POP SWAP2 POP PUSH2 0x3BBA DUP3 DUP12 PUSH1 0x1 PUSH1 0x1 PUSH1 0xA0 SHL SUB AND PUSH4 0x70A08231 DUP11 PUSH1 0x40 MLOAD DUP3 PUSH4 0xFFFFFFFF AND PUSH1 0xE0 SHL DUP2 MSTORE PUSH1 0x4 ADD DUP1 DUP3 PUSH1 0x1 PUSH1 0x1 PUSH1 0xA0 SHL SUB AND DUP2 MSTORE PUSH1 0x20 ADD SWAP2 POP POP PUSH1 0x20 PUSH1 0x40 MLOAD DUP1 DUP4 SUB DUP2 DUP7 DUP1 EXTCODESIZE ISZERO DUP1 ISZERO PUSH2 0x1872 JUMPI PUSH1 0x0 DUP1 REVERT JUMPDEST SWAP6 POP PUSH2 0x3BC7 DUP7 DUP4 DUP4 PUSH2 0x3226 JUMP JUMPDEST SWAP5 POP POP POP POP POP PUSH1 0x0 DUP1 DUP6 PUSH1 0x1 PUSH1 0x1 PUSH1 0xA0 SHL SUB AND DUP9 PUSH1 0x1 PUSH1 0x1 PUSH1 0xA0 SHL SUB AND EQ PUSH2 0x3BF1 JUMPI DUP3 PUSH1 0x0 PUSH2 0x3BF5 JUMP JUMPDEST PUSH1 0x0 DUP4 JUMPDEST SWAP2 POP SWAP2 POP PUSH1 0x0 PUSH1 0x2 DUP13 MLOAD SUB DUP11 LT PUSH2 0x3C0C JUMPI DUP11 PUSH2 0x3C40 JUMP JUMPDEST PUSH2 0x3C40 PUSH32 0x0 DUP10 DUP15 DUP14 PUSH1 0x2 ADD DUP2 MLOAD DUP2 LT PUSH2 0x37AD JUMPI INVALID JUMPDEST PUSH1 0x40 DUP1 MLOAD PUSH1 0x0 DUP1 DUP3 MSTORE PUSH1 0x20 DUP3 ADD SWAP3 DUP4 SWAP1 MSTORE PUSH4 0x22C0D9F PUSH1 0xE0 SHL DUP4 MSTORE PUSH1 0x24 DUP3 ADD DUP8 DUP2 MSTORE PUSH1 0x44 DUP4 ADD DUP8 SWAP1 MSTORE PUSH1 0x1 PUSH1 0x1 PUSH1 0xA0 SHL SUB DUP1 DUP7 AND PUSH1 0x64 DUP6 ADD MSTORE PUSH1 0x80 PUSH1 0x84 DUP6 ADD SWAP1 DUP2 MSTORE DUP5 MLOAD PUSH1 0xA4 DUP7 ADD DUP2 SWAP1 MSTORE SWAP7 SWAP8 POP SWAP1 DUP13 AND SWAP6 PUSH4 0x22C0D9F SWAP6 DUP11 SWAP6 DUP11 SWAP6 DUP11 SWAP6 SWAP2 SWAP5 SWAP2 SWAP4 SWAP2 SWAP3 PUSH1 0xC4 DUP7 ADD SWAP3 SWAP1 SWAP2 DUP2 SWAP1 DUP5 SWAP1 DUP5 SWAP1 JUMPDEST DUP4 DUP2 LT ISZERO PUSH2 0x3CCA JUMPI DUP2 DUP2 ADD MLOAD DUP4 DUP3 ADD MSTORE PUSH1 0x20 ADD PUSH2 0x3CB2 JUMP JUMPDEST POP POP POP POP SWAP1 POP SWAP1 DUP2 ADD SWAP1 PUSH1 0x1F AND DUP1 ISZERO PUSH2 0x3CF7 JUMPI DUP1 DUP3 SUB DUP1 MLOAD PUSH1 0x1 DUP4 PUSH1 0x20 SUB PUSH2 0x100 EXP SUB NOT AND DUP2 MSTORE PUSH1 0x20 ADD SWAP2 POP JUMPDEST POP SWAP6 POP POP POP POP POP POP PUSH1 0x0 PUSH1 0x40 MLOAD DUP1 DUP4 SUB DUP2 PUSH1 0x0 DUP8 DUP1 EXTCODESIZE ISZERO DUP1 ISZERO PUSH2 0x3D19 JUMPI PUSH1 0x0 DUP1 REVERT JUMPDEST POP GAS CALL ISZERO DUP1 ISZERO PUSH2 0x3D2D JUMPI RETURNDATASIZE PUSH1 0x0 DUP1 RETURNDATACOPY RETURNDATASIZE PUSH1 0x0 REVERT JUMPDEST POP POP PUSH1 0x1 SWAP1 SWAP12 ADD SWAP11 POP PUSH2 0x3A47 SWAP10 POP POP POP POP POP POP POP POP POP POP JUMP JUMPDEST DUP1 DUP3 SUB DUP3 DUP2 GT ISZERO PUSH2 0x1183 JUMPI PUSH1 0x40 DUP1 MLOAD PUSH3 0x461BCD PUSH1 0xE5 SHL DUP2 MSTORE PUSH1 0x20 PUSH1 0x4 DUP3 ADD MSTORE PUSH1 0x15 PUSH1 0x24 DUP3 ADD MSTORE PUSH21 0x64732D6D6174682D7375622D756E646572666C6F77 PUSH1 0x58 SHL PUSH1 0x44 DUP3 ADD MSTORE SWAP1 MLOAD SWAP1 DUP2 SWAP1 SUB PUSH1 0x64 ADD SWAP1 REVERT JUMPDEST PUSH1 0x0 DUP1 DUP5 GT PUSH2 0x3DD6 JUMPI PUSH1 0x40 MLOAD PUSH3 0x461BCD PUSH1 0xE5 SHL DUP2 MSTORE PUSH1 0x4 ADD DUP1 DUP1 PUSH1 0x20 ADD DUP3 DUP2 SUB DUP3 MSTORE PUSH1 0x2C DUP2 MSTORE PUSH1 0x20 ADD DUP1 PUSH2 0x4465 PUSH1 0x2C SWAP2 CODECOPY PUSH1 0x40 ADD SWAP2 POP POP PUSH1 0x40 MLOAD DUP1 SWAP2 SUB SWAP1 REVERT JUMPDEST PUSH1 0x0 DUP4 GT DUP1 ISZERO PUSH2 0x3DE6 JUMPI POP PUSH1 0x0 DUP3 GT JUMPDEST PUSH2 0x3E21 JUMPI PUSH1 0x40 MLOAD PUSH3 0x461BCD PUSH1 0xE5 SHL DUP2 MSTORE PUSH1 0x4 ADD DUP1 DUP1 PUSH1 0x20 ADD DUP3 DUP2 SUB DUP3 MSTORE PUSH1 0x28 DUP2 MSTORE PUSH1 0x20 ADD DUP1 PUSH2 0x4541 PUSH1 0x28 SWAP2 CODECOPY PUSH1 0x40 ADD SWAP2 POP POP PUSH1 0x40 MLOAD DUP1 SWAP2 SUB SWAP1 REVERT JUMPDEST PUSH1 0x0 CALLER PUSH1 0x1 PUSH1 0x1 PUSH1 0xA0 SHL SUB AND PUSH4 0xA0BE06F9 PUSH1 0x40 MLOAD DUP2 PUSH4 0xFFFFFFFF AND PUSH1 0xE0 SHL DUP2 MSTORE PUSH1 0x4 ADD PUSH1 0x20 PUSH1 0x40 MLOAD DUP1 DUP4 SUB DUP2 DUP7 DUP1 EXTCODESIZE ISZERO DUP1 ISZERO PUSH2 0x3E5C JUMPI PUSH1 0x0 DUP1 REVERT JUMPDEST POP GAS STATICCALL ISZERO DUP1 ISZERO PUSH2 0x3E70 JUMPI RETURNDATASIZE PUSH1 0x0 DUP1 RETURNDATACOPY RETURNDATASIZE PUSH1 0x0 REVERT JUMPDEST POP POP POP POP PUSH1 0x40 MLOAD RETURNDATASIZE PUSH1 0x20 DUP2 LT ISZERO PUSH2 0x3E86 JUMPI PUSH1 0x0 DUP1 REVERT JUMPDEST POP MLOAD SWAP1 POP PUSH1 0x0 PUSH2 0x3EA2 PUSH2 0x3E8 PUSH2 0x3E9C DUP8 DUP10 PUSH2 0x42EB JUMP JUMPDEST SWAP1 PUSH2 0x42EB JUMP JUMPDEST SWAP1 POP PUSH1 0x0 PUSH2 0x3EB4 DUP4 PUSH2 0x3E9C DUP8 DUP11 PUSH2 0x3D46 JUMP JUMPDEST SWAP1 POP PUSH2 0x3ECB PUSH1 0x1 DUP3 DUP5 DUP2 PUSH2 0x3EC4 JUMPI INVALID JUMPDEST DIV SWAP1 PUSH2 0x434E JUMP JUMPDEST SWAP8 SWAP7 POP POP POP POP POP POP POP JUMP JUMPDEST PUSH1 0x0 DUP1 DUP5 GT PUSH2 0x3F16 JUMPI PUSH1 0x40 MLOAD PUSH3 0x461BCD PUSH1 0xE5 SHL DUP2 MSTORE PUSH1 0x4 ADD DUP1 DUP1 PUSH1 0x20 ADD DUP3 DUP2 SUB DUP3 MSTORE PUSH1 0x25 DUP2 MSTORE PUSH1 0x20 ADD DUP1 PUSH2 0x4569 PUSH1 0x25 SWAP2 CODECOPY PUSH1 0x40 ADD SWAP2 POP POP PUSH1 0x40 MLOAD DUP1 SWAP2 SUB SWAP1 REVERT JUMPDEST PUSH1 0x0 DUP4 GT DUP1 ISZERO PUSH2 0x3F26 JUMPI POP PUSH1 0x0 DUP3 GT JUMPDEST PUSH2 0x3F61 JUMPI PUSH1 0x40 MLOAD PUSH3 0x461BCD PUSH1 0xE5 SHL DUP2 MSTORE PUSH1 0x4 ADD DUP1 DUP1 PUSH1 0x20 ADD DUP3 DUP2 SUB DUP3 MSTORE PUSH1 0x28 DUP2 MSTORE PUSH1 0x20 ADD DUP1 PUSH2 0x4541 PUSH1 0x28 SWAP2 CODECOPY PUSH1 0x40 ADD SWAP2 POP POP PUSH1 0x40 MLOAD DUP1 SWAP2 SUB SWAP1 REVERT JUMPDEST DUP3 PUSH2 0x3F6C DUP6 DUP5 PUSH2 0x42EB JUMP JUMPDEST DUP2 PUSH2 0x3F73 JUMPI INVALID JUMPDEST DIV SWAP5 SWAP4 POP POP POP POP JUMP JUMPDEST PUSH1 0x0 DUP1 DUP3 PUSH1 0x1 PUSH1 0x1 PUSH1 0xA0 SHL SUB AND DUP5 PUSH1 0x1 PUSH1 0x1 PUSH1 0xA0 SHL SUB AND EQ ISZERO PUSH2 0x3FD0 JUMPI PUSH1 0x40 MLOAD PUSH3 0x461BCD PUSH1 0xE5 SHL DUP2 MSTORE PUSH1 0x4 ADD DUP1 DUP1 PUSH1 0x20 ADD DUP3 DUP2 SUB DUP3 MSTORE PUSH1 0x25 DUP2 MSTORE PUSH1 0x20 ADD DUP1 PUSH2 0x44F6 PUSH1 0x25 SWAP2 CODECOPY PUSH1 0x40 ADD SWAP2 POP POP PUSH1 0x40 MLOAD DUP1 SWAP2 SUB SWAP1 REVERT JUMPDEST DUP3 PUSH1 0x1 PUSH1 0x1 PUSH1 0xA0 SHL SUB AND DUP5 PUSH1 0x1 PUSH1 0x1 PUSH1 0xA0 SHL SUB AND LT PUSH2 0x3FF0 JUMPI DUP3 DUP5 PUSH2 0x3FF3 JUMP JUMPDEST DUP4 DUP4 JUMPDEST SWAP1 SWAP3 POP SWAP1 POP PUSH1 0x1 PUSH1 0x1 PUSH1 0xA0 SHL SUB DUP3 AND PUSH2 0x4053 JUMPI PUSH1 0x40 DUP1 MLOAD PUSH3 0x461BCD PUSH1 0xE5 SHL DUP2 MSTORE PUSH1 0x20 PUSH1 0x4 DUP3 ADD MSTORE PUSH1 0x1E PUSH1 0x24 DUP3 ADD MSTORE PUSH32 0x556E697377617056324C6962726172793A205A45524F5F414444524553530000 PUSH1 0x44 DUP3 ADD MSTORE SWAP1 MLOAD SWAP1 DUP2 SWAP1 SUB PUSH1 0x64 ADD SWAP1 REVERT JUMPDEST SWAP3 POP SWAP3 SWAP1 POP JUMP JUMPDEST PUSH1 0x0 DUP1 PUSH1 0x0 PUSH1 0x1 PUSH1 0x1 PUSH1 0xA0 SHL SUB AND PUSH32 0x0 PUSH1 0x1 PUSH1 0x1 PUSH1 0xA0 SHL SUB AND PUSH4 0xE6A43905 DUP11 DUP11 PUSH1 0x40 MLOAD DUP4 PUSH4 0xFFFFFFFF AND PUSH1 0xE0 SHL DUP2 MSTORE PUSH1 0x4 ADD DUP1 DUP4 PUSH1 0x1 PUSH1 0x1 PUSH1 0xA0 SHL SUB AND DUP2 MSTORE PUSH1 0x20 ADD DUP3 PUSH1 0x1 PUSH1 0x1 PUSH1 0xA0 SHL SUB AND DUP2 MSTORE PUSH1 0x20 ADD SWAP3 POP POP POP PUSH1 0x20 PUSH1 0x40 MLOAD DUP1 DUP4 SUB DUP2 DUP7 DUP1 EXTCODESIZE ISZERO DUP1 ISZERO PUSH2 0x40E6 JUMPI PUSH1 0x0 DUP1 REVERT JUMPDEST POP GAS STATICCALL ISZERO DUP1 ISZERO PUSH2 0x40FA JUMPI RETURNDATASIZE PUSH1 0x0 DUP1 RETURNDATACOPY RETURNDATASIZE PUSH1 0x0 REVERT JUMPDEST POP POP POP POP PUSH1 0x40 MLOAD RETURNDATASIZE PUSH1 0x20 DUP2 LT ISZERO PUSH2 0x4110 JUMPI PUSH1 0x0 DUP1 REVERT JUMPDEST POP MLOAD PUSH1 0x1 PUSH1 0x1 PUSH1 0xA0 SHL SUB AND EQ ISZERO PUSH2 0x41CE JUMPI PUSH32 0x0 PUSH1 0x1 PUSH1 0x1 PUSH1 0xA0 SHL SUB AND PUSH4 0xC9C65396 DUP10 DUP10 PUSH1 0x40 MLOAD DUP4 PUSH4 0xFFFFFFFF AND PUSH1 0xE0 SHL DUP2 MSTORE PUSH1 0x4 ADD DUP1 DUP4 PUSH1 0x1 PUSH1 0x1 PUSH1 0xA0 SHL SUB AND DUP2 MSTORE PUSH1 0x20 ADD DUP3 PUSH1 0x1 PUSH1 0x1 PUSH1 0xA0 SHL SUB AND DUP2 MSTORE PUSH1 0x20 ADD SWAP3 POP POP POP PUSH1 0x20 PUSH1 0x40 MLOAD DUP1 DUP4 SUB DUP2 PUSH1 0x0 DUP8 DUP1 EXTCODESIZE ISZERO DUP1 ISZERO PUSH2 0x41A1 JUMPI PUSH1 0x0 DUP1 REVERT JUMPDEST POP GAS CALL ISZERO DUP1 ISZERO PUSH2 0x41B5 JUMPI RETURNDATASIZE PUSH1 0x0 DUP1 RETURNDATACOPY RETURNDATASIZE PUSH1 0x0 REVERT JUMPDEST POP POP POP POP PUSH1 0x40 MLOAD RETURNDATASIZE PUSH1 0x20 DUP2 LT ISZERO PUSH2 0x41CB JUMPI PUSH1 0x0 DUP1 REVERT JUMPDEST POP POP JUMPDEST PUSH1 0x0 DUP1 PUSH2 0x41FC PUSH32 0x0 DUP12 DUP12 PUSH2 0x439D JUMP JUMPDEST SWAP2 POP SWAP2 POP DUP2 PUSH1 0x0 EQ DUP1 ISZERO PUSH2 0x420E JUMPI POP DUP1 ISZERO JUMPDEST ISZERO PUSH2 0x421E JUMPI DUP8 SWAP4 POP DUP7 SWAP3 POP PUSH2 0x42DE JUMP JUMPDEST PUSH1 0x0 PUSH2 0x422B DUP10 DUP5 DUP5 PUSH2 0x3ED6 JUMP JUMPDEST SWAP1 POP DUP8 DUP2 GT PUSH2 0x427E JUMPI DUP6 DUP2 LT ISZERO PUSH2 0x4273 JUMPI PUSH1 0x40 MLOAD PUSH3 0x461BCD PUSH1 0xE5 SHL DUP2 MSTORE PUSH1 0x4 ADD DUP1 DUP1 PUSH1 0x20 ADD DUP3 DUP2 SUB DUP3 MSTORE PUSH1 0x26 DUP2 MSTORE PUSH1 0x20 ADD DUP1 PUSH2 0x451B PUSH1 0x26 SWAP2 CODECOPY PUSH1 0x40 ADD SWAP2 POP POP PUSH1 0x40 MLOAD DUP1 SWAP2 SUB SWAP1 REVERT JUMPDEST DUP9 SWAP5 POP SWAP3 POP DUP3 PUSH2 0x42DC JUMP JUMPDEST PUSH1 0x0 PUSH2 0x428B DUP10 DUP5 DUP7 PUSH2 0x3ED6 JUMP JUMPDEST SWAP1 POP DUP10 DUP2 GT ISZERO PUSH2 0x4297 JUMPI INVALID JUMPDEST DUP8 DUP2 LT ISZERO PUSH2 0x42D6 JUMPI PUSH1 0x40 MLOAD PUSH3 0x461BCD PUSH1 0xE5 SHL DUP2 MSTORE PUSH1 0x4 ADD DUP1 DUP1 PUSH1 0x20 ADD DUP3 DUP2 SUB DUP3 MSTORE PUSH1 0x26 DUP2 MSTORE PUSH1 0x20 ADD DUP1 PUSH2 0x45D5 PUSH1 0x26 SWAP2 CODECOPY PUSH1 0x40 ADD SWAP2 POP POP PUSH1 0x40 MLOAD DUP1 SWAP2 SUB SWAP1 REVERT JUMPDEST SWAP5 POP DUP8 SWAP4 POP JUMPDEST POP JUMPDEST POP POP SWAP7 POP SWAP7 SWAP5 POP POP POP POP POP JUMP JUMPDEST PUSH1 0x0 DUP2 ISZERO DUP1 PUSH2 0x4306 JUMPI POP POP DUP1 DUP3 MUL DUP3 DUP3 DUP3 DUP2 PUSH2 0x4303 JUMPI INVALID JUMPDEST DIV EQ JUMPDEST PUSH2 0x1183 JUMPI PUSH1 0x40 DUP1 MLOAD PUSH3 0x461BCD PUSH1 0xE5 SHL DUP2 MSTORE PUSH1 0x20 PUSH1 0x4 DUP3 ADD MSTORE PUSH1 0x14 PUSH1 0x24 DUP3 ADD MSTORE PUSH20 0x64732D6D6174682D6D756C2D6F766572666C6F77 PUSH1 0x60 SHL PUSH1 0x44 DUP3 ADD MSTORE SWAP1 MLOAD SWAP1 DUP2 SWAP1 SUB PUSH1 0x64 ADD SWAP1 REVERT JUMPDEST DUP1 DUP3 ADD DUP3 DUP2 LT ISZERO PUSH2 0x1183 JUMPI PUSH1 0x40 DUP1 MLOAD PUSH3 0x461BCD PUSH1 0xE5 SHL DUP2 MSTORE PUSH1 0x20 PUSH1 0x4 DUP3 ADD MSTORE PUSH1 0x14 PUSH1 0x24 DUP3 ADD MSTORE PUSH20 0x64732D6D6174682D6164642D6F766572666C6F77 PUSH1 0x60 SHL PUSH1 0x44 DUP3 ADD MSTORE SWAP1 MLOAD SWAP1 DUP2 SWAP1 SUB PUSH1 0x64 ADD SWAP1 REVERT JUMPDEST PUSH1 0x0 DUP1 PUSH1 0x0 PUSH2 0x43AC DUP6 DUP6 PUSH2 0x3F7C JUMP JUMPDEST POP SWAP1 POP PUSH1 0x0 DUP1 PUSH2 0x43BD DUP9 DUP9 DUP9 PUSH2 0x34B2 JUMP JUMPDEST PUSH1 0x1 PUSH1 0x1 PUSH1 0xA0 SHL SUB AND PUSH4 0x902F1AC PUSH1 0x40 MLOAD DUP2 PUSH4 0xFFFFFFFF AND PUSH1 0xE0 SHL DUP2 MSTORE PUSH1 0x4 ADD PUSH1 0x60 PUSH1 0x40 MLOAD DUP1 DUP4 SUB DUP2 DUP7 DUP1 EXTCODESIZE ISZERO DUP1 ISZERO PUSH2 0x43F5 JUMPI PUSH1 0x0 DUP1 REVERT JUMPDEST POP GAS STATICCALL ISZERO DUP1 ISZERO PUSH2 0x4409 JUMPI RETURNDATASIZE PUSH1 0x0 DUP1 RETURNDATACOPY RETURNDATASIZE PUSH1 0x0 REVERT JUMPDEST POP POP POP POP PUSH1 0x40 MLOAD RETURNDATASIZE PUSH1 0x60 DUP2 LT ISZERO PUSH2 0x441F JUMPI PUSH1 0x0 DUP1 REVERT JUMPDEST POP DUP1 MLOAD PUSH1 0x20 SWAP1 SWAP2 ADD MLOAD PUSH1 0x1 PUSH1 0x1 PUSH1 0x70 SHL SUB SWAP2 DUP3 AND SWAP4 POP AND SWAP1 POP PUSH1 0x1 PUSH1 0x1 PUSH1 0xA0 SHL SUB DUP8 DUP2 AND SWAP1 DUP5 AND EQ PUSH2 0x4452 JUMPI DUP1 DUP3 PUSH2 0x4455 JUMP JUMPDEST DUP2 DUP2 JUMPDEST SWAP1 SWAP10 SWAP1 SWAP9 POP SWAP7 POP POP POP POP POP POP POP JUMP INVALID SSTORE PUSH15 0x697377617056324C6962726172793A KECCAK256 0x49 0x4E MSTORE8 SSTORE CHAINID CHAINID 0x49 NUMBER 0x49 GASLIMIT 0x4E SLOAD 0x5F 0x4F SSTORE SLOAD POP SSTORE SLOAD 0x5F COINBASE 0x4D 0x4F SSTORE 0x4E SLOAD SLOAD PUSH19 0x616E7366657248656C7065723A3A7472616E73 PUSH7 0x657246726F6D3A KECCAK256 PUSH21 0x72616E7366657246726F6D206661696C6564547261 PUSH15 0x7366657248656C7065723A3A736166 PUSH6 0x5472616E7366 PUSH6 0x724554483A20 GASLIMIT SLOAD 0x48 KECCAK256 PUSH21 0x72616E73666572206661696C6564556E6973776170 JUMP ORIGIN 0x4C PUSH10 0x62726172793A20494445 0x4E SLOAD 0x49 NUMBER COINBASE 0x4C 0x5F COINBASE DIFFICULTY DIFFICULTY MSTORE GASLIMIT MSTORE8 MSTORE8 GASLIMIT MSTORE8 SSTORE PUSH15 0x69737761705632526F757465723A20 0x49 0x4E MSTORE8 SSTORE CHAINID CHAINID 0x49 NUMBER 0x49 GASLIMIT 0x4E SLOAD 0x5F TIMESTAMP 0x5F COINBASE 0x4D 0x4F SSTORE 0x4E SLOAD SSTORE PUSH15 0x697377617056324C6962726172793A KECCAK256 0x49 0x4E MSTORE8 SSTORE CHAINID CHAINID 0x49 NUMBER 0x49 GASLIMIT 0x4E SLOAD 0x5F 0x4C 0x49 MLOAD SSTORE 0x49 DIFFICULTY 0x49 SLOAD MSIZE SSTORE PUSH15 0x697377617056324C6962726172793A KECCAK256 0x49 0x4E MSTORE8 SSTORE CHAINID CHAINID 0x49 NUMBER 0x49 GASLIMIT 0x4E SLOAD 0x5F COINBASE 0x4D 0x4F SSTORE 0x4E SLOAD SSTORE PUSH15 0x69737761705632526F757465723A20 GASLIMIT PC NUMBER GASLIMIT MSTORE8 MSTORE8 0x49 JUMP GASLIMIT 0x5F 0x49 0x4E POP SSTORE SLOAD 0x5F COINBASE 0x4D 0x4F SSTORE 0x4E SLOAD SSTORE PUSH15 0x69737761705632526F757465723A20 0x49 0x4E JUMP COINBASE 0x4C 0x49 DIFFICULTY 0x5F POP COINBASE SLOAD 0x48 STOP STOP STOP SSTORE PUSH15 0x69737761705632526F757465723A20 0x49 0x4E MSTORE8 SSTORE CHAINID CHAINID 0x49 NUMBER 0x49 GASLIMIT 0x4E SLOAD 0x5F COINBASE 0x5F COINBASE 0x4D 0x4F SSTORE 0x4E SLOAD SSTORE PUSH15 0x69737761705632526F757465723A20 0x49 0x4E MSTORE8 SSTORE CHAINID CHAINID 0x49 NUMBER 0x49 GASLIMIT 0x4E SLOAD 0x5F 0x4F SSTORE SLOAD POP SSTORE SLOAD 0x5F COINBASE 0x4D 0x4F SSTORE 0x4E SLOAD SLOAD PUSH19 0x616E7366657248656C7065723A3A7361666554 PUSH19 0x616E736665723A207472616E73666572206661 PUSH10 0x6C6564556E6973776170 JUMP ORIGIN 0x4C PUSH10 0x62726172793A20494E53 SSTORE CHAINID CHAINID 0x49 NUMBER 0x49 GASLIMIT 0x4E SLOAD 0x5F 0x49 0x4E POP SSTORE SLOAD 0x5F COINBASE 0x4D 0x4F SSTORE 0x4E SLOAD SSTORE PUSH15 0x69737761705632526F757465723A20 GASLIMIT PC POP 0x49 MSTORE GASLIMIT DIFFICULTY STOP STOP STOP STOP STOP STOP STOP STOP LOG2 PUSH5 0x6970667358 0x22 SLT KECCAK256 0x48 AND 0xDF 0x23 0xC9 PUSH32 0xC981A3A86A1F8EC757E6583C74ED42A870CE19A31C44056AFA9A64736F6C6343 STOP MOD 0xC STOP CALLER "
				},
				"gasEstimates": {
					"creation": {
						"codeDepositCost": "3626200",
						"executionCost": "infinite",
						"totalCost": "infinite"
					},
					"external": {
						"WETH()": "infinite",
						"addLiquidity(address,address,uint256,uint256,uint256,uint256,address,uint256)": "infinite",
						"addLiquidityETH(address,uint256,uint256,uint256,address,uint256)": "infinite",
						"adminFee()": "1043",
						"factory()": "infinite",
						"getAdminFee()": "1132",
						"getAmountIn(uint256,uint256,uint256)": "infinite",
						"getAmountOut(uint256,uint256,uint256)": "infinite",
						"getAmountsIn(uint256,address[])": "infinite",
						"getAmountsOut(uint256,address[])": "infinite",
						"quote(uint256,uint256,uint256)": "infinite",
						"removeLiquidity(address,address,uint256,uint256,uint256,address,uint256)": "infinite",
						"removeLiquidityETH(address,uint256,uint256,uint256,address,uint256)": "infinite",
						"removeLiquidityETHSupportingFeeOnTransferTokens(address,uint256,uint256,uint256,address,uint256)": "infinite",
						"removeLiquidityETHWithPermit(address,uint256,uint256,uint256,address,uint256,bool,uint8,bytes32,bytes32)": "infinite",
						"removeLiquidityETHWithPermitSupportingFeeOnTransferTokens(address,uint256,uint256,uint256,address,uint256,bool,uint8,bytes32,bytes32)": "infinite",
						"removeLiquidityWithPermit(address,address,uint256,uint256,uint256,address,uint256,bool,uint8,bytes32,bytes32)": "infinite",
						"swapETHForExactTokens(uint256,address[],address,uint256)": "infinite",
						"swapExactETHForTokens(uint256,address[],address,uint256)": "infinite",
						"swapExactETHForTokensSupportingFeeOnTransferTokens(uint256,address[],address,uint256)": "infinite",
						"swapExactTokensForETH(uint256,uint256,address[],address,uint256)": "infinite",
						"swapExactTokensForETHSupportingFeeOnTransferTokens(uint256,uint256,address[],address,uint256)": "infinite",
						"swapExactTokensForTokens(uint256,uint256,address[],address,uint256)": "infinite",
						"swapExactTokensForTokensSupportingFeeOnTransferTokens(uint256,uint256,address[],address,uint256)": "infinite",
						"swapTokensForExactETH(uint256,uint256,address[],address,uint256)": "infinite",
						"swapTokensForExactTokens(uint256,uint256,address[],address,uint256)": "infinite"
					},
					"internal": {
						"_addLiquidity(address,address,uint256,uint256,uint256,uint256)": "infinite",
						"_swap(uint256[] memory,address[] memory,address)": "infinite",
						"_swapSupportingFeeOnTransferTokens(address[] memory,address)": "infinite"
					}
				},
				"methodIdentifiers": {
					"WETH()": "ad5c4648",
					"addLiquidity(address,address,uint256,uint256,uint256,uint256,address,uint256)": "e8e33700",
					"addLiquidityETH(address,uint256,uint256,uint256,address,uint256)": "f305d719",
					"adminFee()": "a0be06f9",
					"factory()": "c45a0155",
					"getAdminFee()": "2a905ccc",
					"getAmountIn(uint256,uint256,uint256)": "85f8c259",
					"getAmountOut(uint256,uint256,uint256)": "054d50d4",
					"getAmountsIn(uint256,address[])": "1f00ca74",
					"getAmountsOut(uint256,address[])": "d06ca61f",
					"quote(uint256,uint256,uint256)": "ad615dec",
					"removeLiquidity(address,address,uint256,uint256,uint256,address,uint256)": "baa2abde",
					"removeLiquidityETH(address,uint256,uint256,uint256,address,uint256)": "02751cec",
					"removeLiquidityETHSupportingFeeOnTransferTokens(address,uint256,uint256,uint256,address,uint256)": "af2979eb",
					"removeLiquidityETHWithPermit(address,uint256,uint256,uint256,address,uint256,bool,uint8,bytes32,bytes32)": "ded9382a",
					"removeLiquidityETHWithPermitSupportingFeeOnTransferTokens(address,uint256,uint256,uint256,address,uint256,bool,uint8,bytes32,bytes32)": "5b0d5984",
					"removeLiquidityWithPermit(address,address,uint256,uint256,uint256,address,uint256,bool,uint8,bytes32,bytes32)": "2195995c",
					"swapETHForExactTokens(uint256,address[],address,uint256)": "fb3bdb41",
					"swapExactETHForTokens(uint256,address[],address,uint256)": "7ff36ab5",
					"swapExactETHForTokensSupportingFeeOnTransferTokens(uint256,address[],address,uint256)": "b6f9de95",
					"swapExactTokensForETH(uint256,uint256,address[],address,uint256)": "18cbafe5",
					"swapExactTokensForETHSupportingFeeOnTransferTokens(uint256,uint256,address[],address,uint256)": "791ac947",
					"swapExactTokensForTokens(uint256,uint256,address[],address,uint256)": "38ed1739",
					"swapExactTokensForTokensSupportingFeeOnTransferTokens(uint256,uint256,address[],address,uint256)": "5c11d795",
					"swapTokensForExactETH(uint256,uint256,address[],address,uint256)": "4a25d94a",
					"swapTokensForExactTokens(uint256,uint256,address[],address,uint256)": "8803dbee"
				}
			},
			"storageLayout": {
				"storage": [
					{
						"astId": 492,
						"contract": "UniswapV2Router02.sol:UniswapV2Router02",
						"label": "adminFee",
						"offset": 0,
						"slot": "0",
						"type": "t_uint256"
					}
				],
				"types": {
					"t_uint256": {
						"encoding": "inplace",
						"label": "uint256",
						"numberOfBytes": "32"
					}
				}
			},
			"userdoc": {
				"kind": "user",
				"methods": {},
				"version": 1
			}
		}
	}
}