{
	"UniswapV2Router02.sol": {
		"UniswapV2Router02": {
			"abi": [
				{
					"inputs": [
						{
							"internalType": "address",
							"name": "_factory",
							"type": "address"
						},
						{
							"internalType": "address",
							"name": "_WETH",
							"type": "address"
						},
						{
							"internalType": "uint256",
							"name": "_adminFee",
							"type": "uint256"
						}
					],
					"stateMutability": "nonpayable",
					"type": "constructor"
				},
				{
					"inputs": [],
					"name": "WETH",
					"outputs": [
						{
							"internalType": "address",
							"name": "",
							"type": "address"
						}
					],
					"stateMutability": "view",
					"type": "function"
				},
				{
					"inputs": [
						{
							"internalType": "address",
							"name": "tokenA",
							"type": "address"
						},
						{
							"internalType": "address",
							"name": "tokenB",
							"type": "address"
						},
						{
							"internalType": "uint256",
							"name": "amountADesired",
							"type": "uint256"
						},
						{
							"internalType": "uint256",
							"name": "amountBDesired",
							"type": "uint256"
						},
						{
							"internalType": "uint256",
							"name": "amountAMin",
							"type": "uint256"
						},
						{
							"internalType": "uint256",
							"name": "amountBMin",
							"type": "uint256"
						},
						{
							"internalType": "address",
							"name": "to",
							"type": "address"
						},
						{
							"internalType": "uint256",
							"name": "deadline",
							"type": "uint256"
						}
					],
					"name": "addLiquidity",
					"outputs": [
						{
							"internalType": "uint256",
							"name": "amountA",
							"type": "uint256"
						},
						{
							"internalType": "uint256",
							"name": "amountB",
							"type": "uint256"
						},
						{
							"internalType": "uint256",
							"name": "liquidity",
							"type": "uint256"
						}
					],
					"stateMutability": "nonpayable",
					"type": "function"
				},
				{
					"inputs": [
						{
							"internalType": "address",
							"name": "token",
							"type": "address"
						},
						{
							"internalType": "uint256",
							"name": "amountTokenDesired",
							"type": "uint256"
						},
						{
							"internalType": "uint256",
							"name": "amountTokenMin",
							"type": "uint256"
						},
						{
							"internalType": "uint256",
							"name": "amountETHMin",
							"type": "uint256"
						},
						{
							"internalType": "address",
							"name": "to",
							"type": "address"
						},
						{
							"internalType": "uint256",
							"name": "deadline",
							"type": "uint256"
						}
					],
					"name": "addLiquidityETH",
					"outputs": [
						{
							"internalType": "uint256",
							"name": "amountToken",
							"type": "uint256"
						},
						{
							"internalType": "uint256",
							"name": "amountETH",
							"type": "uint256"
						},
						{
							"internalType": "uint256",
							"name": "liquidity",
							"type": "uint256"
						}
					],
					"stateMutability": "payable",
					"type": "function"
				},
				{
					"inputs": [],
					"name": "adminFee",
					"outputs": [
						{
							"internalType": "uint256",
							"name": "",
							"type": "uint256"
						}
					],
					"stateMutability": "view",
					"type": "function"
				},
				{
					"inputs": [],
					"name": "factory",
					"outputs": [
						{
							"internalType": "address",
							"name": "",
							"type": "address"
						}
					],
					"stateMutability": "view",
					"type": "function"
				},
				{
					"inputs": [],
					"name": "getAdminFee",
					"outputs": [
						{
							"internalType": "uint256",
							"name": "",
							"type": "uint256"
						}
					],
					"stateMutability": "view",
					"type": "function"
				},
				{
					"inputs": [
						{
							"internalType": "uint256",
							"name": "amountOut",
							"type": "uint256"
						},
						{
							"internalType": "uint256",
							"name": "reserveIn",
							"type": "uint256"
						},
						{
							"internalType": "uint256",
							"name": "reserveOut",
							"type": "uint256"
						}
					],
					"name": "getAmountIn",
					"outputs": [
						{
							"internalType": "uint256",
							"name": "amountIn",
							"type": "uint256"
						}
					],
					"stateMutability": "pure",
					"type": "function"
				},
				{
					"inputs": [
						{
							"internalType": "uint256",
							"name": "amountIn",
							"type": "uint256"
						},
						{
							"internalType": "uint256",
							"name": "reserveIn",
							"type": "uint256"
						},
						{
							"internalType": "uint256",
							"name": "reserveOut",
							"type": "uint256"
						}
					],
					"name": "getAmountOut",
					"outputs": [
						{
							"internalType": "uint256",
							"name": "amountOut",
							"type": "uint256"
						}
					],
					"stateMutability": "pure",
					"type": "function"
				},
				{
					"inputs": [
						{
							"internalType": "uint256",
							"name": "amountOut",
							"type": "uint256"
						},
						{
							"internalType": "address[]",
							"name": "path",
							"type": "address[]"
						}
					],
					"name": "getAmountsIn",
					"outputs": [
						{
							"internalType": "uint256[]",
							"name": "amounts",
							"type": "uint256[]"
						}
					],
					"stateMutability": "view",
					"type": "function"
				},
				{
					"inputs": [
						{
							"internalType": "uint256",
							"name": "amountIn",
							"type": "uint256"
						},
						{
							"internalType": "address[]",
							"name": "path",
							"type": "address[]"
						}
					],
					"name": "getAmountsOut",
					"outputs": [
						{
							"internalType": "uint256[]",
							"name": "amounts",
							"type": "uint256[]"
						}
					],
					"stateMutability": "view",
					"type": "function"
				},
				{
					"inputs": [
						{
							"internalType": "uint256",
							"name": "amountA",
							"type": "uint256"
						},
						{
							"internalType": "uint256",
							"name": "reserveA",
							"type": "uint256"
						},
						{
							"internalType": "uint256",
							"name": "reserveB",
							"type": "uint256"
						}
					],
					"name": "quote",
					"outputs": [
						{
							"internalType": "uint256",
							"name": "amountB",
							"type": "uint256"
						}
					],
					"stateMutability": "pure",
					"type": "function"
				},
				{
					"inputs": [
						{
							"internalType": "address",
							"name": "tokenA",
							"type": "address"
						},
						{
							"internalType": "address",
							"name": "tokenB",
							"type": "address"
						},
						{
							"internalType": "uint256",
							"name": "liquidity",
							"type": "uint256"
						},
						{
							"internalType": "uint256",
							"name": "amountAMin",
							"type": "uint256"
						},
						{
							"internalType": "uint256",
							"name": "amountBMin",
							"type": "uint256"
						},
						{
							"internalType": "address",
							"name": "to",
							"type": "address"
						},
						{
							"internalType": "uint256",
							"name": "deadline",
							"type": "uint256"
						}
					],
					"name": "removeLiquidity",
					"outputs": [
						{
							"internalType": "uint256",
							"name": "amountA",
							"type": "uint256"
						},
						{
							"internalType": "uint256",
							"name": "amountB",
							"type": "uint256"
						}
					],
					"stateMutability": "nonpayable",
					"type": "function"
				},
				{
					"inputs": [
						{
							"internalType": "address",
							"name": "token",
							"type": "address"
						},
						{
							"internalType": "uint256",
							"name": "liquidity",
							"type": "uint256"
						},
						{
							"internalType": "uint256",
							"name": "amountTokenMin",
							"type": "uint256"
						},
						{
							"internalType": "uint256",
							"name": "amountETHMin",
							"type": "uint256"
						},
						{
							"internalType": "address",
							"name": "to",
							"type": "address"
						},
						{
							"internalType": "uint256",
							"name": "deadline",
							"type": "uint256"
						}
					],
					"name": "removeLiquidityETH",
					"outputs": [
						{
							"internalType": "uint256",
							"name": "amountToken",
							"type": "uint256"
						},
						{
							"internalType": "uint256",
							"name": "amountETH",
							"type": "uint256"
						}
					],
					"stateMutability": "nonpayable",
					"type": "function"
				},
				{
					"inputs": [
						{
							"internalType": "address",
							"name": "token",
							"type": "address"
						},
						{
							"internalType": "uint256",
							"name": "liquidity",
							"type": "uint256"
						},
						{
							"internalType": "uint256",
							"name": "amountTokenMin",
							"type": "uint256"
						},
						{
							"internalType": "uint256",
							"name": "amountETHMin",
							"type": "uint256"
						},
						{
							"internalType": "address",
							"name": "to",
							"type": "address"
						},
						{
							"internalType": "uint256",
							"name": "deadline",
							"type": "uint256"
						}
					],
					"name": "removeLiquidityETHSupportingFeeOnTransferTokens",
					"outputs": [
						{
							"internalType": "uint256",
							"name": "amountETH",
							"type": "uint256"
						}
					],
					"stateMutability": "nonpayable",
					"type": "function"
				},
				{
					"inputs": [
						{
							"internalType": "address",
							"name": "token",
							"type": "address"
						},
						{
							"internalType": "uint256",
							"name": "liquidity",
							"type": "uint256"
						},
						{
							"internalType": "uint256",
							"name": "amountTokenMin",
							"type": "uint256"
						},
						{
							"internalType": "uint256",
							"name": "amountETHMin",
							"type": "uint256"
						},
						{
							"internalType": "address",
							"name": "to",
							"type": "address"
						},
						{
							"internalType": "uint256",
							"name": "deadline",
							"type": "uint256"
						},
						{
							"internalType": "bool",
							"name": "approveMax",
							"type": "bool"
						},
						{
							"internalType": "uint8",
							"name": "v",
							"type": "uint8"
						},
						{
							"internalType": "bytes32",
							"name": "r",
							"type": "bytes32"
						},
						{
							"internalType": "bytes32",
							"name": "s",
							"type": "bytes32"
						}
					],
					"name": "removeLiquidityETHWithPermit",
					"outputs": [
						{
							"internalType": "uint256",
							"name": "amountToken",
							"type": "uint256"
						},
						{
							"internalType": "uint256",
							"name": "amountETH",
							"type": "uint256"
						}
					],
					"stateMutability": "nonpayable",
					"type": "function"
				},
				{
					"inputs": [
						{
							"internalType": "address",
							"name": "token",
							"type": "address"
						},
						{
							"internalType": "uint256",
							"name": "liquidity",
							"type": "uint256"
						},
						{
							"internalType": "uint256",
							"name": "amountTokenMin",
							"type": "uint256"
						},
						{
							"internalType": "uint256",
							"name": "amountETHMin",
							"type": "uint256"
						},
						{
							"internalType": "address",
							"name": "to",
							"type": "address"
						},
						{
							"internalType": "uint256",
							"name": "deadline",
							"type": "uint256"
						},
						{
							"internalType": "bool",
							"name": "approveMax",
							"type": "bool"
						},
						{
							"internalType": "uint8",
							"name": "v",
							"type": "uint8"
						},
						{
							"internalType": "bytes32",
							"name": "r",
							"type": "bytes32"
						},
						{
							"internalType": "bytes32",
							"name": "s",
							"type": "bytes32"
						}
					],
					"name": "removeLiquidityETHWithPermitSupportingFeeOnTransferTokens",
					"outputs": [
						{
							"internalType": "uint256",
							"name": "amountETH",
							"type": "uint256"
						}
					],
					"stateMutability": "nonpayable",
					"type": "function"
				},
				{
					"inputs": [
						{
							"internalType": "address",
							"name": "tokenA",
							"type": "address"
						},
						{
							"internalType": "address",
							"name": "tokenB",
							"type": "address"
						},
						{
							"internalType": "uint256",
							"name": "liquidity",
							"type": "uint256"
						},
						{
							"internalType": "uint256",
							"name": "amountAMin",
							"type": "uint256"
						},
						{
							"internalType": "uint256",
							"name": "amountBMin",
							"type": "uint256"
						},
						{
							"internalType": "address",
							"name": "to",
							"type": "address"
						},
						{
							"internalType": "uint256",
							"name": "deadline",
							"type": "uint256"
						},
						{
							"internalType": "bool",
							"name": "approveMax",
							"type": "bool"
						},
						{
							"internalType": "uint8",
							"name": "v",
							"type": "uint8"
						},
						{
							"internalType": "bytes32",
							"name": "r",
							"type": "bytes32"
						},
						{
							"internalType": "bytes32",
							"name": "s",
							"type": "bytes32"
						}
					],
					"name": "removeLiquidityWithPermit",
					"outputs": [
						{
							"internalType": "uint256",
							"name": "amountA",
							"type": "uint256"
						},
						{
							"internalType": "uint256",
							"name": "amountB",
							"type": "uint256"
						}
					],
					"stateMutability": "nonpayable",
					"type": "function"
				},
				{
					"inputs": [
						{
							"internalType": "uint256",
							"name": "_adminFee",
							"type": "uint256"
						}
					],
					"name": "setAdminFee",
					"outputs": [
						{
							"internalType": "uint256",
							"name": "",
							"type": "uint256"
						}
					],
					"stateMutability": "nonpayable",
					"type": "function"
				},
				{
					"inputs": [
						{
							"internalType": "uint256",
							"name": "amountOut",
							"type": "uint256"
						},
						{
							"internalType": "address[]",
							"name": "path",
							"type": "address[]"
						},
						{
							"internalType": "address",
							"name": "to",
							"type": "address"
						},
						{
							"internalType": "uint256",
							"name": "deadline",
							"type": "uint256"
						}
					],
					"name": "swapETHForExactTokens",
					"outputs": [
						{
							"internalType": "uint256[]",
							"name": "amounts",
							"type": "uint256[]"
						}
					],
					"stateMutability": "payable",
					"type": "function"
				},
				{
					"inputs": [
						{
							"internalType": "uint256",
							"name": "amountOutMin",
							"type": "uint256"
						},
						{
							"internalType": "address[]",
							"name": "path",
							"type": "address[]"
						},
						{
							"internalType": "address",
							"name": "to",
							"type": "address"
						},
						{
							"internalType": "uint256",
							"name": "deadline",
							"type": "uint256"
						}
					],
					"name": "swapExactETHForTokens",
					"outputs": [
						{
							"internalType": "uint256[]",
							"name": "amounts",
							"type": "uint256[]"
						}
					],
					"stateMutability": "payable",
					"type": "function"
				},
				{
					"inputs": [
						{
							"internalType": "uint256",
							"name": "amountOutMin",
							"type": "uint256"
						},
						{
							"internalType": "address[]",
							"name": "path",
							"type": "address[]"
						},
						{
							"internalType": "address",
							"name": "to",
							"type": "address"
						},
						{
							"internalType": "uint256",
							"name": "deadline",
							"type": "uint256"
						}
					],
					"name": "swapExactETHForTokensSupportingFeeOnTransferTokens",
					"outputs": [],
					"stateMutability": "payable",
					"type": "function"
				},
				{
					"inputs": [
						{
							"internalType": "uint256",
							"name": "amountIn",
							"type": "uint256"
						},
						{
							"internalType": "uint256",
							"name": "amountOutMin",
							"type": "uint256"
						},
						{
							"internalType": "address[]",
							"name": "path",
							"type": "address[]"
						},
						{
							"internalType": "address",
							"name": "to",
							"type": "address"
						},
						{
							"internalType": "uint256",
							"name": "deadline",
							"type": "uint256"
						}
					],
					"name": "swapExactTokensForETH",
					"outputs": [
						{
							"internalType": "uint256[]",
							"name": "amounts",
							"type": "uint256[]"
						}
					],
					"stateMutability": "nonpayable",
					"type": "function"
				},
				{
					"inputs": [
						{
							"internalType": "uint256",
							"name": "amountIn",
							"type": "uint256"
						},
						{
							"internalType": "uint256",
							"name": "amountOutMin",
							"type": "uint256"
						},
						{
							"internalType": "address[]",
							"name": "path",
							"type": "address[]"
						},
						{
							"internalType": "address",
							"name": "to",
							"type": "address"
						},
						{
							"internalType": "uint256",
							"name": "deadline",
							"type": "uint256"
						}
					],
					"name": "swapExactTokensForETHSupportingFeeOnTransferTokens",
					"outputs": [],
					"stateMutability": "nonpayable",
					"type": "function"
				},
				{
					"inputs": [
						{
							"internalType": "uint256",
							"name": "amountIn",
							"type": "uint256"
						},
						{
							"internalType": "uint256",
							"name": "amountOutMin",
							"type": "uint256"
						},
						{
							"internalType": "address[]",
							"name": "path",
							"type": "address[]"
						},
						{
							"internalType": "address",
							"name": "to",
							"type": "address"
						},
						{
							"internalType": "uint256",
							"name": "deadline",
							"type": "uint256"
						}
					],
					"name": "swapExactTokensForTokens",
					"outputs": [
						{
							"internalType": "uint256[]",
							"name": "amounts",
							"type": "uint256[]"
						}
					],
					"stateMutability": "nonpayable",
					"type": "function"
				},
				{
					"inputs": [
						{
							"internalType": "uint256",
							"name": "amountIn",
							"type": "uint256"
						},
						{
							"internalType": "uint256",
							"name": "amountOutMin",
							"type": "uint256"
						},
						{
							"internalType": "address[]",
							"name": "path",
							"type": "address[]"
						},
						{
							"internalType": "address",
							"name": "to",
							"type": "address"
						},
						{
							"internalType": "uint256",
							"name": "deadline",
							"type": "uint256"
						}
					],
					"name": "swapExactTokensForTokensSupportingFeeOnTransferTokens",
					"outputs": [],
					"stateMutability": "nonpayable",
					"type": "function"
				},
				{
					"inputs": [
						{
							"internalType": "uint256",
							"name": "amountOut",
							"type": "uint256"
						},
						{
							"internalType": "uint256",
							"name": "amountInMax",
							"type": "uint256"
						},
						{
							"internalType": "address[]",
							"name": "path",
							"type": "address[]"
						},
						{
							"internalType": "address",
							"name": "to",
							"type": "address"
						},
						{
							"internalType": "uint256",
							"name": "deadline",
							"type": "uint256"
						}
					],
					"name": "swapTokensForExactETH",
					"outputs": [
						{
							"internalType": "uint256[]",
							"name": "amounts",
							"type": "uint256[]"
						}
					],
					"stateMutability": "nonpayable",
					"type": "function"
				},
				{
					"inputs": [
						{
							"internalType": "uint256",
							"name": "amountOut",
							"type": "uint256"
						},
						{
							"internalType": "uint256",
							"name": "amountInMax",
							"type": "uint256"
						},
						{
							"internalType": "address[]",
							"name": "path",
							"type": "address[]"
						},
						{
							"internalType": "address",
							"name": "to",
							"type": "address"
						},
						{
							"internalType": "uint256",
							"name": "deadline",
							"type": "uint256"
						}
					],
					"name": "swapTokensForExactTokens",
					"outputs": [
						{
							"internalType": "uint256[]",
							"name": "amounts",
							"type": "uint256[]"
						}
					],
					"stateMutability": "nonpayable",
					"type": "function"
				},
				{
					"stateMutability": "payable",
					"type": "receive"
				}
			],
			"devdoc": {
				"kind": "dev",
				"methods": {},
				"version": 1
			},
			"evm": {
				"assembly": "    /* \"UniswapV2Router02.sol\":398:19436  contract UniswapV2Router02 is IUniswapV2Router02 {\r... */\n  mstore(0x40, 0xc0)\n    /* \"UniswapV2Router02.sol\":745:907  constructor(address _factory, address _WETH, uint256 _adminFee) public {\r... */\n  callvalue\n  dup1\n  iszero\n  tag_1\n  jumpi\n  0x00\n  dup1\n  revert\ntag_1:\n  pop\n  mload(0x40)\n  sub(codesize, bytecodeSize)\n  dup1\n  bytecodeSize\n  dup4\n  codecopy\n  dup2\n  dup2\n  add\n  0x40\n  mstore\n  0x60\n  dup2\n  lt\n  iszero\n  tag_2\n  jumpi\n  0x00\n  dup1\n  revert\ntag_2:\n  pop\n  dup1\n  mload\n  0x20\n  dup3\n  add\n  mload\n  0x40\n  swap1\n  swap3\n  add\n  mload\n  not(sub(shl(0x60, 0x01), 0x01))\n  0x60\n    /* \"UniswapV2Router02.sol\":827:845  factory = _factory */\n  swap3\n  dup4\n  shl\n  dup2\n  and\n  0x80\n  mstore\n    /* \"UniswapV2Router02.sol\":856:868  WETH = _WETH */\n  swap3\n  swap1\n  swap2\n  shl\n  swap1\n  swap2\n  and\n  0xa0\n  mstore\n    /* \"UniswapV2Router02.sol\":879:887  adminFee */\n  0x00\n    /* \"UniswapV2Router02.sol\":879:899  adminFee = _adminFee */\n  sstore\n    /* \"UniswapV2Router02.sol\":398:19436  contract UniswapV2Router02 is IUniswapV2Router02 {\r... */\n  shr(0x60, mload(0x80))\n  shr(0x60, mload(0xa0))\n  codecopy(0x00, dataOffset(sub_0), dataSize(sub_0))\n  assignImmutable(\"0x8f59e018e114ef4f0f13f738daa411333c6421e3f33ae68ce5c638756a827d85\")\n  assignImmutable(\"0xb4bf3508f2fd7bb126e7af9e4fe31dbb3cdf386df5936668ea4d8292a4a1b188\")\n  return(0x00, dataSize(sub_0))\nstop\n\nsub_0: assembly {\n        /* \"UniswapV2Router02.sol\":398:19436  contract UniswapV2Router02 is IUniswapV2Router02 {\r... */\n      mstore(0x40, 0x80)\n      jumpi(tag_1, lt(calldatasize, 0x04))\n      shr(0xe0, calldataload(0x00))\n      dup1\n      0x8803dbee\n      gt\n      tag_30\n      jumpi\n      dup1\n      0xbaa2abde\n      gt\n      tag_31\n      jumpi\n      dup1\n      0xded9382a\n      gt\n      tag_32\n      jumpi\n      dup1\n      0xded9382a\n      eq\n      tag_26\n      jumpi\n      dup1\n      0xe8e33700\n      eq\n      tag_27\n      jumpi\n      dup1\n      0xf305d719\n      eq\n      tag_28\n      jumpi\n      dup1\n      0xfb3bdb41\n      eq\n      tag_29\n      jumpi\n      jump(tag_2)\n    tag_32:\n      dup1\n      0xbaa2abde\n      eq\n      tag_23\n      jumpi\n      dup1\n      0xc45a0155\n      eq\n      tag_24\n      jumpi\n      dup1\n      0xd06ca61f\n      eq\n      tag_25\n      jumpi\n      jump(tag_2)\n    tag_31:\n      dup1\n      0xad5c4648\n      gt\n      tag_33\n      jumpi\n      dup1\n      0xad5c4648\n      eq\n      tag_19\n      jumpi\n      dup1\n      0xad615dec\n      eq\n      tag_20\n      jumpi\n      dup1\n      0xaf2979eb\n      eq\n      tag_21\n      jumpi\n      dup1\n      0xb6f9de95\n      eq\n      tag_22\n      jumpi\n      jump(tag_2)\n    tag_33:\n      dup1\n      0x8803dbee\n      eq\n      tag_16\n      jumpi\n      dup1\n      0x8beb60b6\n      eq\n      tag_17\n      jumpi\n      dup1\n      0xa0be06f9\n      eq\n      tag_18\n      jumpi\n      jump(tag_2)\n    tag_30:\n      dup1\n      0x38ed1739\n      gt\n      tag_34\n      jumpi\n      dup1\n      0x5c11d795\n      gt\n      tag_35\n      jumpi\n      dup1\n      0x5c11d795\n      eq\n      tag_12\n      jumpi\n      dup1\n      0x791ac947\n      eq\n      tag_13\n      jumpi\n      dup1\n      0x7ff36ab5\n      eq\n      tag_14\n      jumpi\n      dup1\n      0x85f8c259\n      eq\n      tag_15\n      jumpi\n      jump(tag_2)\n    tag_35:\n      dup1\n      0x38ed1739\n      eq\n      tag_9\n      jumpi\n      dup1\n      0x4a25d94a\n      eq\n      tag_10\n      jumpi\n      dup1\n      0x5b0d5984\n      eq\n      tag_11\n      jumpi\n      jump(tag_2)\n    tag_34:\n      dup1\n      0x02751cec\n      eq\n      tag_3\n      jumpi\n      dup1\n      0x054d50d4\n      eq\n      tag_4\n      jumpi\n      dup1\n      0x18cbafe5\n      eq\n      tag_5\n      jumpi\n      dup1\n      0x1f00ca74\n      eq\n      tag_6\n      jumpi\n      dup1\n      0x2195995c\n      eq\n      tag_7\n      jumpi\n      dup1\n      0x2a905ccc\n      eq\n      tag_8\n      jumpi\n      jump(tag_2)\n    tag_1:\n      jumpi(tag_2, calldatasize)\n        /* \"UniswapV2Router02.sol\":960:970  msg.sender */\n      caller\n      sub(shl(0xa0, 0x01), 0x01)\n        /* \"UniswapV2Router02.sol\":974:978  WETH */\n      immutable(\"0x8f59e018e114ef4f0f13f738daa411333c6421e3f33ae68ce5c638756a827d85\")\n        /* \"UniswapV2Router02.sol\":960:978  msg.sender == WETH */\n      and\n      eq\n        /* \"UniswapV2Router02.sol\":953:979  assert(msg.sender == WETH) */\n      tag_38\n      jumpi\n      invalid\n    tag_38:\n        /* \"UniswapV2Router02.sol\":398:19436  contract UniswapV2Router02 is IUniswapV2Router02 {\r... */\n      stop\n    tag_2:\n      0x00\n      dup1\n      revert\n        /* \"UniswapV2Router02.sol\":5117:5790  function removeLiquidityETH(\r... */\n    tag_3:\n      callvalue\n      dup1\n      iszero\n      tag_39\n      jumpi\n      0x00\n      dup1\n      revert\n    tag_39:\n      pop\n      tag_40\n      0x04\n      dup1\n      calldatasize\n      sub\n      0xc0\n      dup2\n      lt\n      iszero\n      tag_41\n      jumpi\n      0x00\n      dup1\n      revert\n    tag_41:\n      pop\n      sub(shl(0xa0, 0x01), 0x01)\n      dup2\n      calldataload\n      dup2\n      and\n      swap2\n      0x20\n      dup2\n      add\n      calldataload\n      swap2\n      0x40\n      dup3\n      add\n      calldataload\n      swap2\n      0x60\n      dup2\n      add\n      calldataload\n      swap2\n      0x80\n      dup3\n      add\n      calldataload\n      and\n      swap1\n      0xa0\n      add\n      calldataload\n      tag_42\n      jump\t// in\n    tag_40:\n      0x40\n      dup1\n      mload\n      swap3\n      dup4\n      mstore\n      0x20\n      dup4\n      add\n      swap2\n      swap1\n      swap2\n      mstore\n      dup1\n      mload\n      swap2\n      dup3\n      swap1\n      sub\n      add\n      swap1\n      return\n        /* \"UniswapV2Router02.sol\":18248:18494  function getAmountOut(\r... */\n    tag_4:\n      callvalue\n      dup1\n      iszero\n      tag_43\n      jumpi\n      0x00\n      dup1\n      revert\n    tag_43:\n      pop\n      tag_44\n      0x04\n      dup1\n      calldatasize\n      sub\n      0x60\n      dup2\n      lt\n      iszero\n      tag_45\n      jumpi\n      0x00\n      dup1\n      revert\n    tag_45:\n      pop\n      dup1\n      calldataload\n      swap1\n      0x20\n      dup2\n      add\n      calldataload\n      swap1\n      0x40\n      add\n      calldataload\n      tag_46\n      jump\t// in\n    tag_44:\n      0x40\n      dup1\n      mload\n      swap2\n      dup3\n      mstore\n      mload\n      swap1\n      dup2\n      swap1\n      sub\n      0x20\n      add\n      swap1\n      return\n        /* \"UniswapV2Router02.sol\":12501:13392  function swapExactTokensForETH(\r... */\n    tag_5:\n      callvalue\n      dup1\n      iszero\n      tag_47\n      jumpi\n      0x00\n      dup1\n      revert\n    tag_47:\n      pop\n      tag_48\n      0x04\n      dup1\n      calldatasize\n      sub\n      0xa0\n      dup2\n      lt\n      iszero\n      tag_49\n      jumpi\n      0x00\n      dup1\n      revert\n    tag_49:\n      dup2\n      calldataload\n      swap2\n      0x20\n      dup2\n      add\n      calldataload\n      swap2\n      dup2\n      add\n      swap1\n      0x60\n      dup2\n      add\n      0x40\n      dup3\n      add\n      calldataload\n      shl(0x20, 0x01)\n      dup2\n      gt\n      iszero\n      tag_50\n      jumpi\n      0x00\n      dup1\n      revert\n    tag_50:\n      dup3\n      add\n      dup4\n      0x20\n      dup3\n      add\n      gt\n      iszero\n      tag_51\n      jumpi\n      0x00\n      dup1\n      revert\n    tag_51:\n      dup1\n      calldataload\n      swap1\n      0x20\n      add\n      swap2\n      dup5\n      0x20\n      dup4\n      mul\n      dup5\n      add\n      gt\n      shl(0x20, 0x01)\n      dup4\n      gt\n      or\n      iszero\n      tag_52\n      jumpi\n      0x00\n      dup1\n      revert\n    tag_52:\n      swap2\n      swap4\n      pop\n      swap2\n      pop\n      sub(shl(0xa0, 0x01), 0x01)\n      dup2\n      calldataload\n      and\n      swap1\n      0x20\n      add\n      calldataload\n      tag_53\n      jump\t// in\n    tag_48:\n      0x40\n      dup1\n      mload\n      0x20\n      dup1\n      dup3\n      mstore\n      dup4\n      mload\n      dup2\n      dup4\n      add\n      mstore\n      dup4\n      mload\n      swap2\n      swap3\n      dup4\n      swap3\n      swap1\n      dup4\n      add\n      swap2\n      dup6\n      dup2\n      add\n      swap2\n      mul\n      dup1\n      dup4\n      dup4\n      0x00\n    tag_54:\n      dup4\n      dup2\n      lt\n      iszero\n      tag_56\n      jumpi\n      dup2\n      dup2\n      add\n      mload\n      dup4\n      dup3\n      add\n      mstore\n      0x20\n      add\n      jump(tag_54)\n    tag_56:\n      pop\n      pop\n      pop\n      pop\n      swap1\n      pop\n      add\n      swap3\n      pop\n      pop\n      pop\n      mload(0x40)\n      dup1\n      swap2\n      sub\n      swap1\n      return\n        /* \"UniswapV2Router02.sol\":18991:19219  function getAmountsIn(\r... */\n    tag_6:\n      callvalue\n      dup1\n      iszero\n      tag_57\n      jumpi\n      0x00\n      dup1\n      revert\n    tag_57:\n      pop\n      tag_48\n      0x04\n      dup1\n      calldatasize\n      sub\n      0x40\n      dup2\n      lt\n      iszero\n      tag_59\n      jumpi\n      0x00\n      dup1\n      revert\n    tag_59:\n      dup2\n      calldataload\n      swap2\n      swap1\n      dup2\n      add\n      swap1\n      0x40\n      dup2\n      add\n      0x20\n      dup3\n      add\n      calldataload\n      shl(0x20, 0x01)\n      dup2\n      gt\n      iszero\n      tag_60\n      jumpi\n      0x00\n      dup1\n      revert\n    tag_60:\n      dup3\n      add\n      dup4\n      0x20\n      dup3\n      add\n      gt\n      iszero\n      tag_61\n      jumpi\n      0x00\n      dup1\n      revert\n    tag_61:\n      dup1\n      calldataload\n      swap1\n      0x20\n      add\n      swap2\n      dup5\n      0x20\n      dup4\n      mul\n      dup5\n      add\n      gt\n      shl(0x20, 0x01)\n      dup4\n      gt\n      or\n      iszero\n      tag_62\n      jumpi\n      0x00\n      dup1\n      revert\n    tag_62:\n      swap2\n      swap1\n      dup1\n      dup1\n      0x20\n      mul\n      0x20\n      add\n      mload(0x40)\n      swap1\n      dup2\n      add\n      0x40\n      mstore\n      dup1\n      swap4\n      swap3\n      swap2\n      swap1\n      dup2\n      dup2\n      mstore\n      0x20\n      add\n      dup4\n      dup4\n      0x20\n      mul\n      dup1\n      dup3\n      dup5\n      calldatacopy\n      0x00\n      swap3\n      add\n      swap2\n      swap1\n      swap2\n      mstore\n      pop\n      swap3\n      swap6\n      pop\n      tag_63\n      swap5\n      pop\n      pop\n      pop\n      pop\n      pop\n      jump\t// in\n        /* \"UniswapV2Router02.sol\":5798:6502  function removeLiquidityWithPermit(\r... */\n    tag_7:\n      callvalue\n      dup1\n      iszero\n      tag_67\n      jumpi\n      0x00\n      dup1\n      revert\n    tag_67:\n      pop\n      tag_40\n      0x04\n      dup1\n      calldatasize\n      sub\n      0x0160\n      dup2\n      lt\n      iszero\n      tag_69\n      jumpi\n      0x00\n      dup1\n      revert\n    tag_69:\n      pop\n      sub(shl(0xa0, 0x01), 0x01)\n      dup2\n      calldataload\n      dup2\n      and\n      swap2\n      0x20\n      dup2\n      add\n      calldataload\n      dup3\n      and\n      swap2\n      0x40\n      dup3\n      add\n      calldataload\n      swap2\n      0x60\n      dup2\n      add\n      calldataload\n      swap2\n      0x80\n      dup3\n      add\n      calldataload\n      swap2\n      0xa0\n      dup2\n      add\n      calldataload\n      swap1\n      swap2\n      and\n      swap1\n      0xc0\n      dup2\n      add\n      calldataload\n      swap1\n      0xe0\n      dup2\n      add\n      calldataload\n      iszero\n      iszero\n      swap1\n      0xff\n      0x0100\n      dup3\n      add\n      calldataload\n      and\n      swap1\n      0x0120\n      dup2\n      add\n      calldataload\n      swap1\n      0x0140\n      add\n      calldataload\n      tag_70\n      jump\t// in\n        /* \"UniswapV2Router02.sol\":19227:19314  function getAdminFee() public view returns (uint256) {\r... */\n    tag_8:\n      callvalue\n      dup1\n      iszero\n      tag_71\n      jumpi\n      0x00\n      dup1\n      revert\n    tag_71:\n      pop\n      tag_44\n      tag_73\n      jump\t// in\n        /* \"UniswapV2Router02.sol\":9607:10274  function swapExactTokensForTokens(\r... */\n    tag_9:\n      callvalue\n      dup1\n      iszero\n      tag_74\n      jumpi\n      0x00\n      dup1\n      revert\n    tag_74:\n      pop\n      tag_48\n      0x04\n      dup1\n      calldatasize\n      sub\n      0xa0\n      dup2\n      lt\n      iszero\n      tag_76\n      jumpi\n      0x00\n      dup1\n      revert\n    tag_76:\n      dup2\n      calldataload\n      swap2\n      0x20\n      dup2\n      add\n      calldataload\n      swap2\n      dup2\n      add\n      swap1\n      0x60\n      dup2\n      add\n      0x40\n      dup3\n      add\n      calldataload\n      shl(0x20, 0x01)\n      dup2\n      gt\n      iszero\n      tag_77\n      jumpi\n      0x00\n      dup1\n      revert\n    tag_77:\n      dup3\n      add\n      dup4\n      0x20\n      dup3\n      add\n      gt\n      iszero\n      tag_78\n      jumpi\n      0x00\n      dup1\n      revert\n    tag_78:\n      dup1\n      calldataload\n      swap1\n      0x20\n      add\n      swap2\n      dup5\n      0x20\n      dup4\n      mul\n      dup5\n      add\n      gt\n      shl(0x20, 0x01)\n      dup4\n      gt\n      or\n      iszero\n      tag_79\n      jumpi\n      0x00\n      dup1\n      revert\n    tag_79:\n      swap2\n      swap4\n      pop\n      swap2\n      pop\n      sub(shl(0xa0, 0x01), 0x01)\n      dup2\n      calldataload\n      and\n      swap1\n      0x20\n      add\n      calldataload\n      tag_80\n      jump\t// in\n        /* \"UniswapV2Router02.sol\":11624:12493  function swapTokensForExactETH(\r... */\n    tag_10:\n      callvalue\n      dup1\n      iszero\n      tag_84\n      jumpi\n      0x00\n      dup1\n      revert\n    tag_84:\n      pop\n      tag_48\n      0x04\n      dup1\n      calldatasize\n      sub\n      0xa0\n      dup2\n      lt\n      iszero\n      tag_86\n      jumpi\n      0x00\n      dup1\n      revert\n    tag_86:\n      dup2\n      calldataload\n      swap2\n      0x20\n      dup2\n      add\n      calldataload\n      swap2\n      dup2\n      add\n      swap1\n      0x60\n      dup2\n      add\n      0x40\n      dup3\n      add\n      calldataload\n      shl(0x20, 0x01)\n      dup2\n      gt\n      iszero\n      tag_87\n      jumpi\n      0x00\n      dup1\n      revert\n    tag_87:\n      dup3\n      add\n      dup4\n      0x20\n      dup3\n      add\n      gt\n      iszero\n      tag_88\n      jumpi\n      0x00\n      dup1\n      revert\n    tag_88:\n      dup1\n      calldataload\n      swap1\n      0x20\n      add\n      swap2\n      dup5\n      0x20\n      dup4\n      mul\n      dup5\n      add\n      gt\n      shl(0x20, 0x01)\n      dup4\n      gt\n      or\n      iszero\n      tag_89\n      jumpi\n      0x00\n      dup1\n      revert\n    tag_89:\n      swap2\n      swap4\n      pop\n      swap2\n      pop\n      sub(shl(0xa0, 0x01), 0x01)\n      dup2\n      calldataload\n      and\n      swap1\n      0x20\n      add\n      calldataload\n      tag_90\n      jump\t// in\n        /* \"UniswapV2Router02.sol\":7891:8701  function removeLiquidityETHWithPermitSupportingFeeOnTransferTokens(\r... */\n    tag_11:\n      callvalue\n      dup1\n      iszero\n      tag_94\n      jumpi\n      0x00\n      dup1\n      revert\n    tag_94:\n      pop\n      tag_44\n      0x04\n      dup1\n      calldatasize\n      sub\n      0x0140\n      dup2\n      lt\n      iszero\n      tag_96\n      jumpi\n      0x00\n      dup1\n      revert\n    tag_96:\n      pop\n      sub(shl(0xa0, 0x01), 0x01)\n      dup2\n      calldataload\n      dup2\n      and\n      swap2\n      0x20\n      dup2\n      add\n      calldataload\n      swap2\n      0x40\n      dup3\n      add\n      calldataload\n      swap2\n      0x60\n      dup2\n      add\n      calldataload\n      swap2\n      0x80\n      dup3\n      add\n      calldataload\n      and\n      swap1\n      0xa0\n      dup2\n      add\n      calldataload\n      swap1\n      0xc0\n      dup2\n      add\n      calldataload\n      iszero\n      iszero\n      swap1\n      0xff\n      0xe0\n      dup3\n      add\n      calldataload\n      and\n      swap1\n      0x0100\n      dup2\n      add\n      calldataload\n      swap1\n      0x0120\n      add\n      calldataload\n      tag_97\n      jump\t// in\n        /* \"UniswapV2Router02.sol\":15598:16351  function swapExactTokensForTokensSupportingFeeOnTransferTokens(\r... */\n    tag_12:\n      callvalue\n      dup1\n      iszero\n      tag_98\n      jumpi\n      0x00\n      dup1\n      revert\n    tag_98:\n      pop\n      tag_38\n      0x04\n      dup1\n      calldatasize\n      sub\n      0xa0\n      dup2\n      lt\n      iszero\n      tag_100\n      jumpi\n      0x00\n      dup1\n      revert\n    tag_100:\n      dup2\n      calldataload\n      swap2\n      0x20\n      dup2\n      add\n      calldataload\n      swap2\n      dup2\n      add\n      swap1\n      0x60\n      dup2\n      add\n      0x40\n      dup3\n      add\n      calldataload\n      shl(0x20, 0x01)\n      dup2\n      gt\n      iszero\n      tag_101\n      jumpi\n      0x00\n      dup1\n      revert\n    tag_101:\n      dup3\n      add\n      dup4\n      0x20\n      dup3\n      add\n      gt\n      iszero\n      tag_102\n      jumpi\n      0x00\n      dup1\n      revert\n    tag_102:\n      dup1\n      calldataload\n      swap1\n      0x20\n      add\n      swap2\n      dup5\n      0x20\n      dup4\n      mul\n      dup5\n      add\n      gt\n      shl(0x20, 0x01)\n      dup4\n      gt\n      or\n      iszero\n      tag_103\n      jumpi\n      0x00\n      dup1\n      revert\n    tag_103:\n      swap2\n      swap4\n      pop\n      swap2\n      pop\n      sub(shl(0xa0, 0x01), 0x01)\n      dup2\n      calldataload\n      and\n      swap1\n      0x20\n      add\n      calldataload\n      tag_104\n      jump\t// in\n        /* \"UniswapV2Router02.sol\":17167:18008  function swapExactTokensForETHSupportingFeeOnTransferTokens(\r... */\n    tag_13:\n      callvalue\n      dup1\n      iszero\n      tag_105\n      jumpi\n      0x00\n      dup1\n      revert\n    tag_105:\n      pop\n      tag_38\n      0x04\n      dup1\n      calldatasize\n      sub\n      0xa0\n      dup2\n      lt\n      iszero\n      tag_107\n      jumpi\n      0x00\n      dup1\n      revert\n    tag_107:\n      dup2\n      calldataload\n      swap2\n      0x20\n      dup2\n      add\n      calldataload\n      swap2\n      dup2\n      add\n      swap1\n      0x60\n      dup2\n      add\n      0x40\n      dup3\n      add\n      calldataload\n      shl(0x20, 0x01)\n      dup2\n      gt\n      iszero\n      tag_108\n      jumpi\n      0x00\n      dup1\n      revert\n    tag_108:\n      dup3\n      add\n      dup4\n      0x20\n      dup3\n      add\n      gt\n      iszero\n      tag_109\n      jumpi\n      0x00\n      dup1\n      revert\n    tag_109:\n      dup1\n      calldataload\n      swap1\n      0x20\n      add\n      swap2\n      dup5\n      0x20\n      dup4\n      mul\n      dup5\n      add\n      gt\n      shl(0x20, 0x01)\n      dup4\n      gt\n      or\n      iszero\n      tag_110\n      jumpi\n      0x00\n      dup1\n      revert\n    tag_110:\n      swap2\n      swap4\n      pop\n      swap2\n      pop\n      sub(shl(0xa0, 0x01), 0x01)\n      dup2\n      calldataload\n      and\n      swap1\n      0x20\n      add\n      calldataload\n      tag_111\n      jump\t// in\n        /* \"UniswapV2Router02.sol\":10935:11616  function swapExactETHForTokens(\r... */\n    tag_14:\n      tag_48\n      0x04\n      dup1\n      calldatasize\n      sub\n      0x80\n      dup2\n      lt\n      iszero\n      tag_113\n      jumpi\n      0x00\n      dup1\n      revert\n    tag_113:\n      dup2\n      calldataload\n      swap2\n      swap1\n      dup2\n      add\n      swap1\n      0x40\n      dup2\n      add\n      0x20\n      dup3\n      add\n      calldataload\n      shl(0x20, 0x01)\n      dup2\n      gt\n      iszero\n      tag_114\n      jumpi\n      0x00\n      dup1\n      revert\n    tag_114:\n      dup3\n      add\n      dup4\n      0x20\n      dup3\n      add\n      gt\n      iszero\n      tag_115\n      jumpi\n      0x00\n      dup1\n      revert\n    tag_115:\n      dup1\n      calldataload\n      swap1\n      0x20\n      add\n      swap2\n      dup5\n      0x20\n      dup4\n      mul\n      dup5\n      add\n      gt\n      shl(0x20, 0x01)\n      dup4\n      gt\n      or\n      iszero\n      tag_116\n      jumpi\n      0x00\n      dup1\n      revert\n    tag_116:\n      swap2\n      swap4\n      pop\n      swap2\n      pop\n      sub(shl(0xa0, 0x01), 0x01)\n      dup2\n      calldataload\n      and\n      swap1\n      0x20\n      add\n      calldataload\n      tag_117\n      jump\t// in\n        /* \"UniswapV2Router02.sol\":18502:18747  function getAmountIn(\r... */\n    tag_15:\n      callvalue\n      dup1\n      iszero\n      tag_121\n      jumpi\n      0x00\n      dup1\n      revert\n    tag_121:\n      pop\n      tag_44\n      0x04\n      dup1\n      calldatasize\n      sub\n      0x60\n      dup2\n      lt\n      iszero\n      tag_123\n      jumpi\n      0x00\n      dup1\n      revert\n    tag_123:\n      pop\n      dup1\n      calldataload\n      swap1\n      0x20\n      dup2\n      add\n      calldataload\n      swap1\n      0x40\n      add\n      calldataload\n      tag_124\n      jump\t// in\n        /* \"UniswapV2Router02.sol\":10282:10927  function swapTokensForExactTokens(\r... */\n    tag_16:\n      callvalue\n      dup1\n      iszero\n      tag_125\n      jumpi\n      0x00\n      dup1\n      revert\n    tag_125:\n      pop\n      tag_48\n      0x04\n      dup1\n      calldatasize\n      sub\n      0xa0\n      dup2\n      lt\n      iszero\n      tag_127\n      jumpi\n      0x00\n      dup1\n      revert\n    tag_127:\n      dup2\n      calldataload\n      swap2\n      0x20\n      dup2\n      add\n      calldataload\n      swap2\n      dup2\n      add\n      swap1\n      0x60\n      dup2\n      add\n      0x40\n      dup3\n      add\n      calldataload\n      shl(0x20, 0x01)\n      dup2\n      gt\n      iszero\n      tag_128\n      jumpi\n      0x00\n      dup1\n      revert\n    tag_128:\n      dup3\n      add\n      dup4\n      0x20\n      dup3\n      add\n      gt\n      iszero\n      tag_129\n      jumpi\n      0x00\n      dup1\n      revert\n    tag_129:\n      dup1\n      calldataload\n      swap1\n      0x20\n      add\n      swap2\n      dup5\n      0x20\n      dup4\n      mul\n      dup5\n      add\n      gt\n      shl(0x20, 0x01)\n      dup4\n      gt\n      or\n      iszero\n      tag_130\n      jumpi\n      0x00\n      dup1\n      revert\n    tag_130:\n      swap2\n      swap4\n      pop\n      swap2\n      pop\n      sub(shl(0xa0, 0x01), 0x01)\n      dup2\n      calldataload\n      and\n      swap1\n      0x20\n      add\n      calldataload\n      tag_131\n      jump\t// in\n        /* \"UniswapV2Router02.sol\":19322:19433  function setAdminFee(uint256 _adminFee) public returns (uint256) {\r... */\n    tag_17:\n      callvalue\n      dup1\n      iszero\n      tag_135\n      jumpi\n      0x00\n      dup1\n      revert\n    tag_135:\n      pop\n      tag_44\n      0x04\n      dup1\n      calldatasize\n      sub\n      0x20\n      dup2\n      lt\n      iszero\n      tag_137\n      jumpi\n      0x00\n      dup1\n      revert\n    tag_137:\n      pop\n      calldataload\n      tag_138\n      jump\t// in\n        /* \"UniswapV2Router02.sol\":579:602  uint256 public adminFee */\n    tag_18:\n      callvalue\n      dup1\n      iszero\n      tag_139\n      jumpi\n      0x00\n      dup1\n      revert\n    tag_139:\n      pop\n      tag_44\n      tag_141\n      jump\t// in\n        /* \"UniswapV2Router02.sol\":534:572  address public immutable override WETH */\n    tag_19:\n      callvalue\n      dup1\n      iszero\n      tag_142\n      jumpi\n      0x00\n      dup1\n      revert\n    tag_142:\n      pop\n      tag_143\n      tag_144\n      jump\t// in\n    tag_143:\n      0x40\n      dup1\n      mload\n      sub(shl(0xa0, 0x01), 0x01)\n      swap1\n      swap3\n      and\n      dup3\n      mstore\n      mload\n      swap1\n      dup2\n      swap1\n      sub\n      0x20\n      add\n      swap1\n      return\n        /* \"UniswapV2Router02.sol\":18052:18240  function quote(uint amountA, uint reserveA, uint reserveB) public pure virtual override returns (uint amountB) {\r... */\n    tag_20:\n      callvalue\n      dup1\n      iszero\n      tag_145\n      jumpi\n      0x00\n      dup1\n      revert\n    tag_145:\n      pop\n      tag_44\n      0x04\n      dup1\n      calldatasize\n      sub\n      0x60\n      dup2\n      lt\n      iszero\n      tag_147\n      jumpi\n      0x00\n      dup1\n      revert\n    tag_147:\n      pop\n      dup1\n      calldataload\n      swap1\n      0x20\n      dup2\n      add\n      calldataload\n      swap1\n      0x40\n      add\n      calldataload\n      tag_148\n      jump\t// in\n        /* \"UniswapV2Router02.sol\":7285:7883  function removeLiquidityETHSupportingFeeOnTransferTokens(\r... */\n    tag_21:\n      callvalue\n      dup1\n      iszero\n      tag_149\n      jumpi\n      0x00\n      dup1\n      revert\n    tag_149:\n      pop\n      tag_44\n      0x04\n      dup1\n      calldatasize\n      sub\n      0xc0\n      dup2\n      lt\n      iszero\n      tag_151\n      jumpi\n      0x00\n      dup1\n      revert\n    tag_151:\n      pop\n      sub(shl(0xa0, 0x01), 0x01)\n      dup2\n      calldataload\n      dup2\n      and\n      swap2\n      0x20\n      dup2\n      add\n      calldataload\n      swap2\n      0x40\n      dup3\n      add\n      calldataload\n      swap2\n      0x60\n      dup2\n      add\n      calldataload\n      swap2\n      0x80\n      dup3\n      add\n      calldataload\n      and\n      swap1\n      0xa0\n      add\n      calldataload\n      tag_152\n      jump\t// in\n        /* \"UniswapV2Router02.sol\":16359:17159  function swapExactETHForTokensSupportingFeeOnTransferTokens(\r... */\n    tag_22:\n      tag_38\n      0x04\n      dup1\n      calldatasize\n      sub\n      0x80\n      dup2\n      lt\n      iszero\n      tag_154\n      jumpi\n      0x00\n      dup1\n      revert\n    tag_154:\n      dup2\n      calldataload\n      swap2\n      swap1\n      dup2\n      add\n      swap1\n      0x40\n      dup2\n      add\n      0x20\n      dup3\n      add\n      calldataload\n      shl(0x20, 0x01)\n      dup2\n      gt\n      iszero\n      tag_155\n      jumpi\n      0x00\n      dup1\n      revert\n    tag_155:\n      dup3\n      add\n      dup4\n      0x20\n      dup3\n      add\n      gt\n      iszero\n      tag_156\n      jumpi\n      0x00\n      dup1\n      revert\n    tag_156:\n      dup1\n      calldataload\n      swap1\n      0x20\n      add\n      swap2\n      dup5\n      0x20\n      dup4\n      mul\n      dup5\n      add\n      gt\n      shl(0x20, 0x01)\n      dup4\n      gt\n      or\n      iszero\n      tag_157\n      jumpi\n      0x00\n      dup1\n      revert\n    tag_157:\n      swap2\n      swap4\n      pop\n      swap2\n      pop\n      sub(shl(0xa0, 0x01), 0x01)\n      dup2\n      calldataload\n      and\n      swap1\n      0x20\n      add\n      calldataload\n      tag_158\n      jump\t// in\n        /* \"UniswapV2Router02.sol\":4243:5109  function removeLiquidity(\r... */\n    tag_23:\n      callvalue\n      dup1\n      iszero\n      tag_159\n      jumpi\n      0x00\n      dup1\n      revert\n    tag_159:\n      pop\n      tag_40\n      0x04\n      dup1\n      calldatasize\n      sub\n      0xe0\n      dup2\n      lt\n      iszero\n      tag_161\n      jumpi\n      0x00\n      dup1\n      revert\n    tag_161:\n      pop\n      sub(shl(0xa0, 0x01), 0x01)\n      dup2\n      calldataload\n      dup2\n      and\n      swap2\n      0x20\n      dup2\n      add\n      calldataload\n      dup3\n      and\n      swap2\n      0x40\n      dup3\n      add\n      calldataload\n      swap2\n      0x60\n      dup2\n      add\n      calldataload\n      swap2\n      0x80\n      dup3\n      add\n      calldataload\n      swap2\n      0xa0\n      dup2\n      add\n      calldataload\n      swap1\n      swap2\n      and\n      swap1\n      0xc0\n      add\n      calldataload\n      tag_162\n      jump\t// in\n        /* \"UniswapV2Router02.sol\":486:527  address public immutable override factory */\n    tag_24:\n      callvalue\n      dup1\n      iszero\n      tag_163\n      jumpi\n      0x00\n      dup1\n      revert\n    tag_163:\n      pop\n      tag_143\n      tag_165\n      jump\t// in\n        /* \"UniswapV2Router02.sol\":18755:18983  function getAmountsOut(\r... */\n    tag_25:\n      callvalue\n      dup1\n      iszero\n      tag_166\n      jumpi\n      0x00\n      dup1\n      revert\n    tag_166:\n      pop\n      tag_48\n      0x04\n      dup1\n      calldatasize\n      sub\n      0x40\n      dup2\n      lt\n      iszero\n      tag_168\n      jumpi\n      0x00\n      dup1\n      revert\n    tag_168:\n      dup2\n      calldataload\n      swap2\n      swap1\n      dup2\n      add\n      swap1\n      0x40\n      dup2\n      add\n      0x20\n      dup3\n      add\n      calldataload\n      shl(0x20, 0x01)\n      dup2\n      gt\n      iszero\n      tag_169\n      jumpi\n      0x00\n      dup1\n      revert\n    tag_169:\n      dup3\n      add\n      dup4\n      0x20\n      dup3\n      add\n      gt\n      iszero\n      tag_170\n      jumpi\n      0x00\n      dup1\n      revert\n    tag_170:\n      dup1\n      calldataload\n      swap1\n      0x20\n      add\n      swap2\n      dup5\n      0x20\n      dup4\n      mul\n      dup5\n      add\n      gt\n      shl(0x20, 0x01)\n      dup4\n      gt\n      or\n      iszero\n      tag_171\n      jumpi\n      0x00\n      dup1\n      revert\n    tag_171:\n      swap2\n      swap1\n      dup1\n      dup1\n      0x20\n      mul\n      0x20\n      add\n      mload(0x40)\n      swap1\n      dup2\n      add\n      0x40\n      mstore\n      dup1\n      swap4\n      swap3\n      swap2\n      swap1\n      dup2\n      dup2\n      mstore\n      0x20\n      add\n      dup4\n      dup4\n      0x20\n      mul\n      dup1\n      dup3\n      dup5\n      calldatacopy\n      0x00\n      swap3\n      add\n      swap2\n      swap1\n      swap2\n      mstore\n      pop\n      swap3\n      swap6\n      pop\n      tag_172\n      swap5\n      pop\n      pop\n      pop\n      pop\n      pop\n      jump\t// in\n        /* \"UniswapV2Router02.sol\":6510:7206  function removeLiquidityETHWithPermit(\r... */\n    tag_26:\n      callvalue\n      dup1\n      iszero\n      tag_176\n      jumpi\n      0x00\n      dup1\n      revert\n    tag_176:\n      pop\n      tag_40\n      0x04\n      dup1\n      calldatasize\n      sub\n      0x0140\n      dup2\n      lt\n      iszero\n      tag_178\n      jumpi\n      0x00\n      dup1\n      revert\n    tag_178:\n      pop\n      sub(shl(0xa0, 0x01), 0x01)\n      dup2\n      calldataload\n      dup2\n      and\n      swap2\n      0x20\n      dup2\n      add\n      calldataload\n      swap2\n      0x40\n      dup3\n      add\n      calldataload\n      swap2\n      0x60\n      dup2\n      add\n      calldataload\n      swap2\n      0x80\n      dup3\n      add\n      calldataload\n      and\n      swap1\n      0xa0\n      dup2\n      add\n      calldataload\n      swap1\n      0xc0\n      dup2\n      add\n      calldataload\n      iszero\n      iszero\n      swap1\n      0xff\n      0xe0\n      dup3\n      add\n      calldataload\n      and\n      swap1\n      0x0100\n      dup2\n      add\n      calldataload\n      swap1\n      0x0120\n      add\n      calldataload\n      tag_179\n      jump\t// in\n        /* \"UniswapV2Router02.sol\":2480:3218  function addLiquidity(\r... */\n    tag_27:\n      callvalue\n      dup1\n      iszero\n      tag_180\n      jumpi\n      0x00\n      dup1\n      revert\n    tag_180:\n      pop\n      tag_181\n      0x04\n      dup1\n      calldatasize\n      sub\n      0x0100\n      dup2\n      lt\n      iszero\n      tag_182\n      jumpi\n      0x00\n      dup1\n      revert\n    tag_182:\n      pop\n      sub(shl(0xa0, 0x01), 0x01)\n      dup2\n      calldataload\n      dup2\n      and\n      swap2\n      0x20\n      dup2\n      add\n      calldataload\n      dup3\n      and\n      swap2\n      0x40\n      dup3\n      add\n      calldataload\n      swap2\n      0x60\n      dup2\n      add\n      calldataload\n      swap2\n      0x80\n      dup3\n      add\n      calldataload\n      swap2\n      0xa0\n      dup2\n      add\n      calldataload\n      swap2\n      0xc0\n      dup3\n      add\n      calldataload\n      and\n      swap1\n      0xe0\n      add\n      calldataload\n      tag_183\n      jump\t// in\n    tag_181:\n      0x40\n      dup1\n      mload\n      swap4\n      dup5\n      mstore\n      0x20\n      dup5\n      add\n      swap3\n      swap1\n      swap3\n      mstore\n      dup3\n      dup3\n      add\n      mstore\n      mload\n      swap1\n      dup2\n      swap1\n      sub\n      0x60\n      add\n      swap1\n      return\n        /* \"UniswapV2Router02.sol\":3226:4200  function addLiquidityETH(\r... */\n    tag_28:\n      tag_181\n      0x04\n      dup1\n      calldatasize\n      sub\n      0xc0\n      dup2\n      lt\n      iszero\n      tag_185\n      jumpi\n      0x00\n      dup1\n      revert\n    tag_185:\n      pop\n      sub(shl(0xa0, 0x01), 0x01)\n      dup2\n      calldataload\n      dup2\n      and\n      swap2\n      0x20\n      dup2\n      add\n      calldataload\n      swap2\n      0x40\n      dup3\n      add\n      calldataload\n      swap2\n      0x60\n      dup2\n      add\n      calldataload\n      swap2\n      0x80\n      dup3\n      add\n      calldataload\n      and\n      swap1\n      0xa0\n      add\n      calldataload\n      tag_186\n      jump\t// in\n        /* \"UniswapV2Router02.sol\":13400:14194  function swapETHForExactTokens(\r... */\n    tag_29:\n      tag_48\n      0x04\n      dup1\n      calldatasize\n      sub\n      0x80\n      dup2\n      lt\n      iszero\n      tag_188\n      jumpi\n      0x00\n      dup1\n      revert\n    tag_188:\n      dup2\n      calldataload\n      swap2\n      swap1\n      dup2\n      add\n      swap1\n      0x40\n      dup2\n      add\n      0x20\n      dup3\n      add\n      calldataload\n      shl(0x20, 0x01)\n      dup2\n      gt\n      iszero\n      tag_189\n      jumpi\n      0x00\n      dup1\n      revert\n    tag_189:\n      dup3\n      add\n      dup4\n      0x20\n      dup3\n      add\n      gt\n      iszero\n      tag_190\n      jumpi\n      0x00\n      dup1\n      revert\n    tag_190:\n      dup1\n      calldataload\n      swap1\n      0x20\n      add\n      swap2\n      dup5\n      0x20\n      dup4\n      mul\n      dup5\n      add\n      gt\n      shl(0x20, 0x01)\n      dup4\n      gt\n      or\n      iszero\n      tag_191\n      jumpi\n      0x00\n      dup1\n      revert\n    tag_191:\n      swap2\n      swap4\n      pop\n      swap2\n      pop\n      sub(shl(0xa0, 0x01), 0x01)\n      dup2\n      calldataload\n      and\n      swap1\n      0x20\n      add\n      calldataload\n      tag_192\n      jump\t// in\n        /* \"UniswapV2Router02.sol\":5117:5790  function removeLiquidityETH(\r... */\n    tag_42:\n        /* \"UniswapV2Router02.sol\":5354:5370  uint amountToken */\n      0x00\n        /* \"UniswapV2Router02.sol\":5372:5386  uint amountETH */\n      dup1\n        /* \"UniswapV2Router02.sol\":5335:5343  deadline */\n      dup3\n        /* \"UniswapV2Router02.sol\":673:688  block.timestamp */\n      timestamp\n        /* \"UniswapV2Router02.sol\":661:669  deadline */\n      dup2\n        /* \"UniswapV2Router02.sol\":661:688  deadline >= block.timestamp */\n      lt\n      iszero\n        /* \"UniswapV2Router02.sol\":653:717  require(deadline >= block.timestamp, 'UniswapV2Router: EXPIRED') */\n      tag_197\n      jumpi\n      0x40\n      dup1\n      mload\n      shl(0xe5, 0x461bcd)\n      dup2\n      mstore\n      0x20\n      0x04\n      dup3\n      add\n      mstore\n      0x18\n      0x24\n      dup3\n      add\n      mstore\n      0x00\n      dup1\n      mload\n      0x20\n      data_ee5734acb032ffb1bbaf889d52ccf9fbd1ce0f1ae12bee2c46068d51b910e2c5\n      dup4\n      codecopy\n      dup2\n      mload\n      swap2\n      mstore\n      0x44\n      dup3\n      add\n      mstore\n      swap1\n      mload\n      swap1\n      dup2\n      swap1\n      sub\n      0x64\n      add\n      swap1\n      revert\n    tag_197:\n        /* \"UniswapV2Router02.sol\":5426:5622  removeLiquidity(\r... */\n      tag_199\n        /* \"UniswapV2Router02.sol\":5456:5461  token */\n      dup10\n        /* \"UniswapV2Router02.sol\":5476:5480  WETH */\n      immutable(\"0x8f59e018e114ef4f0f13f738daa411333c6421e3f33ae68ce5c638756a827d85\")\n        /* \"UniswapV2Router02.sol\":5495:5504  liquidity */\n      dup11\n        /* \"UniswapV2Router02.sol\":5519:5533  amountTokenMin */\n      dup11\n        /* \"UniswapV2Router02.sol\":5548:5560  amountETHMin */\n      dup11\n        /* \"UniswapV2Router02.sol\":5583:5587  this */\n      address\n        /* \"UniswapV2Router02.sol\":5603:5611  deadline */\n      dup11\n        /* \"UniswapV2Router02.sol\":5426:5441  removeLiquidity */\n      tag_162\n        /* \"UniswapV2Router02.sol\":5426:5622  removeLiquidity(\r... */\n      jump\t// in\n    tag_199:\n        /* \"UniswapV2Router02.sol\":5399:5622  (amountToken, amountETH) = removeLiquidity(\r... */\n      swap1\n      swap4\n      pop\n      swap2\n      pop\n        /* \"UniswapV2Router02.sol\":5633:5684  TransferHelper.safeTransfer(token, to, amountToken) */\n      tag_200\n        /* \"UniswapV2Router02.sol\":5661:5666  token */\n      dup10\n        /* \"UniswapV2Router02.sol\":5668:5670  to */\n      dup7\n        /* \"UniswapV2Router02.sol\":5399:5622  (amountToken, amountETH) = removeLiquidity(\r... */\n      dup6\n        /* \"UniswapV2Router02.sol\":5633:5660  TransferHelper.safeTransfer */\n      tag_201\n        /* \"UniswapV2Router02.sol\":5633:5684  TransferHelper.safeTransfer(token, to, amountToken) */\n      jump\t// in\n    tag_200:\n        /* \"UniswapV2Router02.sol\":5701:5705  WETH */\n      immutable(\"0x8f59e018e114ef4f0f13f738daa411333c6421e3f33ae68ce5c638756a827d85\")\n      sub(shl(0xa0, 0x01), 0x01)\n        /* \"UniswapV2Router02.sol\":5695:5715  IWETH(WETH).withdraw */\n      and\n      0x2e1a7d4d\n        /* \"UniswapV2Router02.sol\":5716:5725  amountETH */\n      dup4\n        /* \"UniswapV2Router02.sol\":5695:5726  IWETH(WETH).withdraw(amountETH) */\n      mload(0x40)\n      dup3\n      0xffffffff\n      and\n      0xe0\n      shl\n      dup2\n      mstore\n      0x04\n      add\n      dup1\n      dup3\n      dup2\n      mstore\n      0x20\n      add\n      swap2\n      pop\n      pop\n      0x00\n      mload(0x40)\n      dup1\n      dup4\n      sub\n      dup2\n      0x00\n      dup8\n      dup1\n      extcodesize\n      iszero\n      dup1\n      iszero\n      tag_202\n      jumpi\n      0x00\n      dup1\n      revert\n    tag_202:\n      pop\n      gas\n      call\n      iszero\n      dup1\n      iszero\n      tag_204\n      jumpi\n      returndatasize\n      0x00\n      dup1\n      returndatacopy\n      revert(0x00, returndatasize)\n    tag_204:\n      pop\n      pop\n      pop\n      pop\n        /* \"UniswapV2Router02.sol\":5737:5782  TransferHelper.safeTransferETH(to, amountETH) */\n      tag_205\n        /* \"UniswapV2Router02.sol\":5768:5770  to */\n      dup6\n        /* \"UniswapV2Router02.sol\":5772:5781  amountETH */\n      dup4\n        /* \"UniswapV2Router02.sol\":5737:5767  TransferHelper.safeTransferETH */\n      tag_206\n        /* \"UniswapV2Router02.sol\":5737:5782  TransferHelper.safeTransferETH(to, amountETH) */\n      jump\t// in\n    tag_205:\n        /* \"UniswapV2Router02.sol\":5117:5790  function removeLiquidityETH(\r... */\n      pop\n      swap7\n      pop\n      swap7\n      swap5\n      pop\n      pop\n      pop\n      pop\n      pop\n      jump\t// out\n        /* \"UniswapV2Router02.sol\":18248:18494  function getAmountOut(\r... */\n    tag_46:\n        /* \"UniswapV2Router02.sol\":18390:18404  uint amountOut */\n      0x00\n        /* \"UniswapV2Router02.sol\":18424:18486  UniswapV2Library.getAmountOut(amountIn, reserveIn, reserveOut) */\n      tag_208\n        /* \"UniswapV2Router02.sol\":18454:18462  amountIn */\n      dup5\n        /* \"UniswapV2Router02.sol\":18464:18473  reserveIn */\n      dup5\n        /* \"UniswapV2Router02.sol\":18475:18485  reserveOut */\n      dup5\n        /* \"UniswapV2Router02.sol\":18424:18453  UniswapV2Library.getAmountOut */\n      tag_209\n        /* \"UniswapV2Router02.sol\":18424:18486  UniswapV2Library.getAmountOut(amountIn, reserveIn, reserveOut) */\n      jump\t// in\n    tag_208:\n        /* \"UniswapV2Router02.sol\":18417:18486  return UniswapV2Library.getAmountOut(amountIn, reserveIn, reserveOut) */\n      swap5\n        /* \"UniswapV2Router02.sol\":18248:18494  function getAmountOut(\r... */\n      swap4\n      pop\n      pop\n      pop\n      pop\n      jump\t// out\n        /* \"UniswapV2Router02.sol\":12501:13392  function swapExactTokensForETH(\r... */\n    tag_53:\n        /* \"UniswapV2Router02.sol\":12722:12743  uint[] memory amounts */\n      0x60\n        /* \"UniswapV2Router02.sol\":12703:12711  deadline */\n      dup2\n        /* \"UniswapV2Router02.sol\":673:688  block.timestamp */\n      timestamp\n        /* \"UniswapV2Router02.sol\":661:669  deadline */\n      dup2\n        /* \"UniswapV2Router02.sol\":661:688  deadline >= block.timestamp */\n      lt\n      iszero\n        /* \"UniswapV2Router02.sol\":653:717  require(deadline >= block.timestamp, 'UniswapV2Router: EXPIRED') */\n      tag_211\n      jumpi\n      0x40\n      dup1\n      mload\n      shl(0xe5, 0x461bcd)\n      dup2\n      mstore\n      0x20\n      0x04\n      dup3\n      add\n      mstore\n      0x18\n      0x24\n      dup3\n      add\n      mstore\n      0x00\n      dup1\n      mload\n      0x20\n      data_ee5734acb032ffb1bbaf889d52ccf9fbd1ce0f1ae12bee2c46068d51b910e2c5\n      dup4\n      codecopy\n      dup2\n      mload\n      swap2\n      mstore\n      0x44\n      dup3\n      add\n      mstore\n      swap1\n      mload\n      swap1\n      dup2\n      swap1\n      sub\n      0x64\n      add\n      swap1\n      revert\n    tag_211:\n      sub(shl(0xa0, 0x01), 0x01)\n        /* \"UniswapV2Router02.sol\":12789:12793  WETH */\n      immutable(\"0x8f59e018e114ef4f0f13f738daa411333c6421e3f33ae68ce5c638756a827d85\")\n        /* \"UniswapV2Router02.sol\":12764:12793  path[path.length - 1] == WETH */\n      and\n        /* \"UniswapV2Router02.sol\":12764:12768  path */\n      dup7\n      dup7\n      not(0x00)\n        /* \"UniswapV2Router02.sol\":12769:12784  path.length - 1 */\n      dup2\n      add\n        /* \"UniswapV2Router02.sol\":12764:12785  path[path.length - 1] */\n      dup2\n      dup2\n      lt\n      tag_213\n      jumpi\n      invalid\n    tag_213:\n      swap1\n      pop\n      0x20\n      mul\n      add\n      calldataload\n      sub(shl(0xa0, 0x01), 0x01)\n      and\n      sub(shl(0xa0, 0x01), 0x01)\n        /* \"UniswapV2Router02.sol\":12764:12793  path[path.length - 1] == WETH */\n      and\n      eq\n        /* \"UniswapV2Router02.sol\":12756:12827  require(path[path.length - 1] == WETH, 'UniswapV2Router: INVALID_PATH') */\n      tag_214\n      jumpi\n      0x40\n      dup1\n      mload\n      shl(0xe5, 0x461bcd)\n      dup2\n      mstore\n      0x20\n      0x04\n      dup3\n      add\n      mstore\n      0x1d\n      0x24\n      dup3\n      add\n      mstore\n      0x00\n      dup1\n      mload\n      0x20\n      data_c80e789ddaeb930b746bbbcb3afe8331d926679fd96f65d8c7468b735c0a14f2\n      dup4\n      codecopy\n      dup2\n      mload\n      swap2\n      mstore\n      0x44\n      dup3\n      add\n      mstore\n      swap1\n      mload\n      swap1\n      dup2\n      swap1\n      sub\n      0x64\n      add\n      swap1\n      revert\n    tag_214:\n        /* \"UniswapV2Router02.sol\":12848:12903  UniswapV2Library.getAmountsOut(factory, amountIn, path) */\n      tag_215\n        /* \"UniswapV2Router02.sol\":12879:12886  factory */\n      immutable(\"0xb4bf3508f2fd7bb126e7af9e4fe31dbb3cdf386df5936668ea4d8292a4a1b188\")\n        /* \"UniswapV2Router02.sol\":12888:12896  amountIn */\n      dup10\n        /* \"UniswapV2Router02.sol\":12898:12902  path */\n      dup9\n      dup9\n        /* \"UniswapV2Router02.sol\":12848:12903  UniswapV2Library.getAmountsOut(factory, amountIn, path) */\n      dup1\n      dup1\n      0x20\n      mul\n      0x20\n      add\n      mload(0x40)\n      swap1\n      dup2\n      add\n      0x40\n      mstore\n      dup1\n      swap4\n      swap3\n      swap2\n      swap1\n      dup2\n      dup2\n      mstore\n      0x20\n      add\n      dup4\n      dup4\n      0x20\n      mul\n      dup1\n      dup3\n      dup5\n      calldatacopy\n      0x00\n      swap3\n      add\n      swap2\n      swap1\n      swap2\n      mstore\n      pop\n        /* \"UniswapV2Router02.sol\":12848:12878  UniswapV2Library.getAmountsOut */\n      tag_216\n      swap3\n      pop\n      pop\n      pop\n        /* \"UniswapV2Router02.sol\":12848:12903  UniswapV2Library.getAmountsOut(factory, amountIn, path) */\n      jump\t// in\n    tag_215:\n        /* \"UniswapV2Router02.sol\":12838:12903  amounts = UniswapV2Library.getAmountsOut(factory, amountIn, path) */\n      swap2\n      pop\n        /* \"UniswapV2Router02.sol\":12953:12965  amountOutMin */\n      dup7\n        /* \"UniswapV2Router02.sol\":12922:12929  amounts */\n      dup3\n        /* \"UniswapV2Router02.sol\":12947:12948  1 */\n      0x01\n        /* \"UniswapV2Router02.sol\":12930:12937  amounts */\n      dup5\n        /* \"UniswapV2Router02.sol\":12930:12944  amounts.length */\n      mload\n        /* \"UniswapV2Router02.sol\":12930:12948  amounts.length - 1 */\n      sub\n        /* \"UniswapV2Router02.sol\":12922:12949  amounts[amounts.length - 1] */\n      dup2\n      mload\n      dup2\n      lt\n      tag_217\n      jumpi\n      invalid\n    tag_217:\n      0x20\n      mul\n      0x20\n      add\n      add\n      mload\n        /* \"UniswapV2Router02.sol\":12922:12965  amounts[amounts.length - 1] >= amountOutMin */\n      lt\n      iszero\n        /* \"UniswapV2Router02.sol\":12914:13013  require(amounts[amounts.length - 1] >= amountOutMin, 'UniswapV2Router: INSUFFICIENT_OUTPUT_AMOUNT') */\n      tag_218\n      jumpi\n      mload(0x40)\n      shl(0xe5, 0x461bcd)\n      dup2\n      mstore\n      0x04\n      add\n      dup1\n      dup1\n      0x20\n      add\n      dup3\n      dup2\n      sub\n      dup3\n      mstore\n      0x2b\n      dup2\n      mstore\n      0x20\n      add\n      dup1\n      data_d4ea67bea551891ab36be726b8e631181246034dffcfd5c0bbfad1e9d1729432\n      0x2b\n      swap2\n      codecopy\n      0x40\n      add\n      swap2\n      pop\n      pop\n      mload(0x40)\n      dup1\n      swap2\n      sub\n      swap1\n      revert\n    tag_218:\n        /* \"UniswapV2Router02.sol\":13024:13204  TransferHelper.safeTransferFrom(\r... */\n      tag_219\n        /* \"UniswapV2Router02.sol\":13070:13074  path */\n      dup7\n      dup7\n        /* \"UniswapV2Router02.sol\":13075:13076  0 */\n      0x00\n        /* \"UniswapV2Router02.sol\":13070:13077  path[0] */\n      dup2\n      dup2\n      lt\n      tag_220\n      jumpi\n      invalid\n    tag_220:\n      swap1\n      pop\n      0x20\n      mul\n      add\n      calldataload\n      sub(shl(0xa0, 0x01), 0x01)\n      and\n        /* \"UniswapV2Router02.sol\":13092:13102  msg.sender */\n      caller\n        /* \"UniswapV2Router02.sol\":13117:13168  UniswapV2Library.pairFor(factory, path[0], path[1]) */\n      tag_221\n        /* \"UniswapV2Router02.sol\":13142:13149  factory */\n      immutable(\"0xb4bf3508f2fd7bb126e7af9e4fe31dbb3cdf386df5936668ea4d8292a4a1b188\")\n        /* \"UniswapV2Router02.sol\":13151:13155  path */\n      dup11\n      dup11\n        /* \"UniswapV2Router02.sol\":13156:13157  0 */\n      0x00\n        /* \"UniswapV2Router02.sol\":13151:13158  path[0] */\n      dup2\n      dup2\n      lt\n      tag_222\n      jumpi\n      invalid\n    tag_222:\n      swap1\n      pop\n      0x20\n      mul\n      add\n      calldataload\n      sub(shl(0xa0, 0x01), 0x01)\n      and\n        /* \"UniswapV2Router02.sol\":13160:13164  path */\n      dup12\n      dup12\n        /* \"UniswapV2Router02.sol\":13165:13166  1 */\n      0x01\n        /* \"UniswapV2Router02.sol\":13160:13167  path[1] */\n      dup2\n      dup2\n      lt\n      tag_223\n      jumpi\n      invalid\n    tag_223:\n      swap1\n      pop\n      0x20\n      mul\n      add\n      calldataload\n      sub(shl(0xa0, 0x01), 0x01)\n      and\n        /* \"UniswapV2Router02.sol\":13117:13141  UniswapV2Library.pairFor */\n      tag_224\n        /* \"UniswapV2Router02.sol\":13117:13168  UniswapV2Library.pairFor(factory, path[0], path[1]) */\n      jump\t// in\n    tag_221:\n        /* \"UniswapV2Router02.sol\":13183:13190  amounts */\n      dup6\n        /* \"UniswapV2Router02.sol\":13191:13192  0 */\n      0x00\n        /* \"UniswapV2Router02.sol\":13183:13193  amounts[0] */\n      dup2\n      mload\n      dup2\n      lt\n      tag_225\n      jumpi\n      invalid\n    tag_225:\n      0x20\n      mul\n      0x20\n      add\n      add\n      mload\n        /* \"UniswapV2Router02.sol\":13024:13055  TransferHelper.safeTransferFrom */\n      tag_226\n        /* \"UniswapV2Router02.sol\":13024:13204  TransferHelper.safeTransferFrom(\r... */\n      jump\t// in\n    tag_219:\n        /* \"UniswapV2Router02.sol\":13215:13250  _swap(amounts, path, address(this)) */\n      tag_227\n        /* \"UniswapV2Router02.sol\":13221:13228  amounts */\n      dup3\n        /* \"UniswapV2Router02.sol\":13230:13234  path */\n      dup8\n      dup8\n        /* \"UniswapV2Router02.sol\":13215:13250  _swap(amounts, path, address(this)) */\n      dup1\n      dup1\n      0x20\n      mul\n      0x20\n      add\n      mload(0x40)\n      swap1\n      dup2\n      add\n      0x40\n      mstore\n      dup1\n      swap4\n      swap3\n      swap2\n      swap1\n      dup2\n      dup2\n      mstore\n      0x20\n      add\n      dup4\n      dup4\n      0x20\n      mul\n      dup1\n      dup3\n      dup5\n      calldatacopy\n      0x00\n      swap3\n      add\n      swap2\n      swap1\n      swap2\n      mstore\n      pop\n        /* \"UniswapV2Router02.sol\":13244:13248  this */\n      address\n      swap3\n      pop\n        /* \"UniswapV2Router02.sol\":13215:13220  _swap */\n      tag_228\n      swap2\n      pop\n      pop\n        /* \"UniswapV2Router02.sol\":13215:13250  _swap(amounts, path, address(this)) */\n      jump\t// in\n    tag_227:\n        /* \"UniswapV2Router02.sol\":13267:13271  WETH */\n      immutable(\"0x8f59e018e114ef4f0f13f738daa411333c6421e3f33ae68ce5c638756a827d85\")\n      sub(shl(0xa0, 0x01), 0x01)\n        /* \"UniswapV2Router02.sol\":13261:13281  IWETH(WETH).withdraw */\n      and\n      0x2e1a7d4d\n        /* \"UniswapV2Router02.sol\":13282:13289  amounts */\n      dup4\n        /* \"UniswapV2Router02.sol\":13307:13308  1 */\n      0x01\n        /* \"UniswapV2Router02.sol\":13290:13297  amounts */\n      dup6\n        /* \"UniswapV2Router02.sol\":13290:13304  amounts.length */\n      mload\n        /* \"UniswapV2Router02.sol\":13290:13308  amounts.length - 1 */\n      sub\n        /* \"UniswapV2Router02.sol\":13282:13309  amounts[amounts.length - 1] */\n      dup2\n      mload\n      dup2\n      lt\n      tag_229\n      jumpi\n      invalid\n    tag_229:\n      0x20\n      mul\n      0x20\n      add\n      add\n      mload\n        /* \"UniswapV2Router02.sol\":13261:13310  IWETH(WETH).withdraw(amounts[amounts.length - 1]) */\n      mload(0x40)\n      dup3\n      0xffffffff\n      and\n      0xe0\n      shl\n      dup2\n      mstore\n      0x04\n      add\n      dup1\n      dup3\n      dup2\n      mstore\n      0x20\n      add\n      swap2\n      pop\n      pop\n      0x00\n      mload(0x40)\n      dup1\n      dup4\n      sub\n      dup2\n      0x00\n      dup8\n      dup1\n      extcodesize\n      iszero\n      dup1\n      iszero\n      tag_230\n      jumpi\n      0x00\n      dup1\n      revert\n    tag_230:\n      pop\n      gas\n      call\n      iszero\n      dup1\n      iszero\n      tag_232\n      jumpi\n      returndatasize\n      0x00\n      dup1\n      returndatacopy\n      revert(0x00, returndatasize)\n    tag_232:\n      pop\n      pop\n      pop\n      pop\n        /* \"UniswapV2Router02.sol\":13321:13384  TransferHelper.safeTransferETH(to, amounts[amounts.length - 1]) */\n      tag_233\n        /* \"UniswapV2Router02.sol\":13352:13354  to */\n      dup5\n        /* \"UniswapV2Router02.sol\":13356:13363  amounts */\n      dup4\n        /* \"UniswapV2Router02.sol\":13381:13382  1 */\n      0x01\n        /* \"UniswapV2Router02.sol\":13364:13371  amounts */\n      dup6\n        /* \"UniswapV2Router02.sol\":13364:13378  amounts.length */\n      mload\n        /* \"UniswapV2Router02.sol\":13364:13382  amounts.length - 1 */\n      sub\n        /* \"UniswapV2Router02.sol\":13356:13383  amounts[amounts.length - 1] */\n      dup2\n      mload\n      dup2\n      lt\n      tag_234\n      jumpi\n      invalid\n    tag_234:\n      0x20\n      mul\n      0x20\n      add\n      add\n      mload\n        /* \"UniswapV2Router02.sol\":13321:13351  TransferHelper.safeTransferETH */\n      tag_206\n        /* \"UniswapV2Router02.sol\":13321:13384  TransferHelper.safeTransferETH(to, amounts[amounts.length - 1]) */\n      jump\t// in\n    tag_233:\n        /* \"UniswapV2Router02.sol\":12501:13392  function swapExactTokensForETH(\r... */\n      pop\n      swap7\n      swap6\n      pop\n      pop\n      pop\n      pop\n      pop\n      pop\n      jump\t// out\n        /* \"UniswapV2Router02.sol\":18991:19219  function getAmountsIn(\r... */\n    tag_63:\n        /* \"UniswapV2Router02.sol\":19115:19136  uint[] memory amounts */\n      0x60\n        /* \"UniswapV2Router02.sol\":19156:19211  UniswapV2Library.getAmountsIn(factory, amountOut, path) */\n      tag_236\n        /* \"UniswapV2Router02.sol\":19186:19193  factory */\n      immutable(\"0xb4bf3508f2fd7bb126e7af9e4fe31dbb3cdf386df5936668ea4d8292a4a1b188\")\n        /* \"UniswapV2Router02.sol\":19195:19204  amountOut */\n      dup5\n        /* \"UniswapV2Router02.sol\":19206:19210  path */\n      dup5\n        /* \"UniswapV2Router02.sol\":19156:19185  UniswapV2Library.getAmountsIn */\n      tag_237\n        /* \"UniswapV2Router02.sol\":19156:19211  UniswapV2Library.getAmountsIn(factory, amountOut, path) */\n      jump\t// in\n    tag_236:\n        /* \"UniswapV2Router02.sol\":19149:19211  return UniswapV2Library.getAmountsIn(factory, amountOut, path) */\n      swap1\n      pop\n        /* \"UniswapV2Router02.sol\":18991:19219  function getAmountsIn(\r... */\n    tag_235:\n      swap3\n      swap2\n      pop\n      pop\n      jump\t// out\n        /* \"UniswapV2Router02.sol\":5798:6502  function removeLiquidityWithPermit(\r... */\n    tag_70:\n        /* \"UniswapV2Router02.sol\":6131:6143  uint amountA */\n      0x00\n        /* \"UniswapV2Router02.sol\":6145:6157  uint amountB */\n      dup1\n        /* \"UniswapV2Router02.sol\":6170:6182  address pair */\n      0x00\n        /* \"UniswapV2Router02.sol\":6185:6234  UniswapV2Library.pairFor(factory, tokenA, tokenB) */\n      tag_239\n        /* \"UniswapV2Router02.sol\":6210:6217  factory */\n      immutable(\"0xb4bf3508f2fd7bb126e7af9e4fe31dbb3cdf386df5936668ea4d8292a4a1b188\")\n        /* \"UniswapV2Router02.sol\":6219:6225  tokenA */\n      dup16\n        /* \"UniswapV2Router02.sol\":6227:6233  tokenB */\n      dup16\n        /* \"UniswapV2Router02.sol\":6185:6209  UniswapV2Library.pairFor */\n      tag_224\n        /* \"UniswapV2Router02.sol\":6185:6234  UniswapV2Library.pairFor(factory, tokenA, tokenB) */\n      jump\t// in\n    tag_239:\n        /* \"UniswapV2Router02.sol\":6170:6234  address pair = UniswapV2Library.pairFor(factory, tokenA, tokenB) */\n      swap1\n      pop\n        /* \"UniswapV2Router02.sol\":6245:6255  uint value */\n      0x00\n        /* \"UniswapV2Router02.sol\":6258:6268  approveMax */\n      dup8\n        /* \"UniswapV2Router02.sol\":6258:6291  approveMax ? uint(-1) : liquidity */\n      tag_240\n      jumpi\n        /* \"UniswapV2Router02.sol\":6282:6291  liquidity */\n      dup13\n        /* \"UniswapV2Router02.sol\":6258:6291  approveMax ? uint(-1) : liquidity */\n      jump(tag_241)\n    tag_240:\n      not(0x00)\n    tag_241:\n        /* \"UniswapV2Router02.sol\":6302:6382  IUniswapV2Pair(pair).permit(msg.sender, address(this), value, deadline, v, r, s) */\n      0x40\n      dup1\n      mload\n      shl(0xe0, 0xd505accf)\n      dup2\n      mstore\n        /* \"UniswapV2Router02.sol\":6330:6340  msg.sender */\n      caller\n        /* \"UniswapV2Router02.sol\":6302:6382  IUniswapV2Pair(pair).permit(msg.sender, address(this), value, deadline, v, r, s) */\n      0x04\n      dup3\n      add\n      mstore\n        /* \"UniswapV2Router02.sol\":6350:6354  this */\n      address\n        /* \"UniswapV2Router02.sol\":6302:6382  IUniswapV2Pair(pair).permit(msg.sender, address(this), value, deadline, v, r, s) */\n      0x24\n      dup3\n      add\n      mstore\n      0x44\n      dup2\n      add\n      dup4\n      swap1\n      mstore\n      0x64\n      dup2\n      add\n      dup13\n      swap1\n      mstore\n      0xff\n      dup11\n      and\n      0x84\n      dup3\n      add\n      mstore\n      0xa4\n      dup2\n      add\n      dup10\n      swap1\n      mstore\n      0xc4\n      dup2\n      add\n      dup9\n      swap1\n      mstore\n      swap1\n      mload\n        /* \"UniswapV2Router02.sol\":6245:6291  uint value = approveMax ? uint(-1) : liquidity */\n      swap2\n      swap3\n      pop\n      sub(shl(0xa0, 0x01), 0x01)\n        /* \"UniswapV2Router02.sol\":6302:6329  IUniswapV2Pair(pair).permit */\n      dup5\n      and\n      swap2\n      0xd505accf\n      swap2\n        /* \"UniswapV2Router02.sol\":6302:6382  IUniswapV2Pair(pair).permit(msg.sender, address(this), value, deadline, v, r, s) */\n      0xe4\n      dup1\n      dup3\n      add\n      swap3\n      0x00\n      swap3\n      swap1\n      swap2\n      swap1\n      dup3\n      swap1\n      sub\n      add\n      dup2\n      dup4\n        /* \"UniswapV2Router02.sol\":6302:6329  IUniswapV2Pair(pair).permit */\n      dup8\n        /* \"UniswapV2Router02.sol\":6302:6382  IUniswapV2Pair(pair).permit(msg.sender, address(this), value, deadline, v, r, s) */\n      dup1\n      extcodesize\n      iszero\n      dup1\n      iszero\n      tag_242\n      jumpi\n      0x00\n      dup1\n      revert\n    tag_242:\n      pop\n      gas\n      call\n      iszero\n      dup1\n      iszero\n      tag_244\n      jumpi\n      returndatasize\n      0x00\n      dup1\n      returndatacopy\n      revert(0x00, returndatasize)\n    tag_244:\n      pop\n      pop\n      pop\n      pop\n        /* \"UniswapV2Router02.sol\":6414:6494  removeLiquidity(tokenA, tokenB, liquidity, amountAMin, amountBMin, to, deadline) */\n      tag_245\n        /* \"UniswapV2Router02.sol\":6430:6436  tokenA */\n      dup16\n        /* \"UniswapV2Router02.sol\":6438:6444  tokenB */\n      dup16\n        /* \"UniswapV2Router02.sol\":6446:6455  liquidity */\n      dup16\n        /* \"UniswapV2Router02.sol\":6457:6467  amountAMin */\n      dup16\n        /* \"UniswapV2Router02.sol\":6469:6479  amountBMin */\n      dup16\n        /* \"UniswapV2Router02.sol\":6481:6483  to */\n      dup16\n        /* \"UniswapV2Router02.sol\":6485:6493  deadline */\n      dup16\n        /* \"UniswapV2Router02.sol\":6414:6429  removeLiquidity */\n      tag_162\n        /* \"UniswapV2Router02.sol\":6414:6494  removeLiquidity(tokenA, tokenB, liquidity, amountAMin, amountBMin, to, deadline) */\n      jump\t// in\n    tag_245:\n        /* \"UniswapV2Router02.sol\":6393:6494  (amountA, amountB) = removeLiquidity(tokenA, tokenB, liquidity, amountAMin, amountBMin, to, deadline) */\n      dup1\n      swap5\n      pop\n      dup2\n      swap6\n      pop\n      pop\n      pop\n        /* \"UniswapV2Router02.sol\":5798:6502  function removeLiquidityWithPermit(\r... */\n      pop\n      pop\n      swap12\n      pop\n      swap12\n      swap10\n      pop\n      pop\n      pop\n      pop\n      pop\n      pop\n      pop\n      pop\n      pop\n      pop\n      jump\t// out\n        /* \"UniswapV2Router02.sol\":19227:19314  function getAdminFee() public view returns (uint256) {\r... */\n    tag_73:\n        /* \"UniswapV2Router02.sol\":19271:19278  uint256 */\n      0x00\n        /* \"UniswapV2Router02.sol\":19298:19306  adminFee */\n      sload\n        /* \"UniswapV2Router02.sol\":19227:19314  function getAdminFee() public view returns (uint256) {\r... */\n      swap1\n      jump\t// out\n        /* \"UniswapV2Router02.sol\":9607:10274  function swapExactTokensForTokens(\r... */\n    tag_80:\n        /* \"UniswapV2Router02.sol\":9831:9852  uint[] memory amounts */\n      0x60\n        /* \"UniswapV2Router02.sol\":9812:9820  deadline */\n      dup2\n        /* \"UniswapV2Router02.sol\":673:688  block.timestamp */\n      timestamp\n        /* \"UniswapV2Router02.sol\":661:669  deadline */\n      dup2\n        /* \"UniswapV2Router02.sol\":661:688  deadline >= block.timestamp */\n      lt\n      iszero\n        /* \"UniswapV2Router02.sol\":653:717  require(deadline >= block.timestamp, 'UniswapV2Router: EXPIRED') */\n      tag_248\n      jumpi\n      0x40\n      dup1\n      mload\n      shl(0xe5, 0x461bcd)\n      dup2\n      mstore\n      0x20\n      0x04\n      dup3\n      add\n      mstore\n      0x18\n      0x24\n      dup3\n      add\n      mstore\n      0x00\n      dup1\n      mload\n      0x20\n      data_ee5734acb032ffb1bbaf889d52ccf9fbd1ce0f1ae12bee2c46068d51b910e2c5\n      dup4\n      codecopy\n      dup2\n      mload\n      swap2\n      mstore\n      0x44\n      dup3\n      add\n      mstore\n      swap1\n      mload\n      swap1\n      dup2\n      swap1\n      sub\n      0x64\n      add\n      swap1\n      revert\n    tag_248:\n        /* \"UniswapV2Router02.sol\":9875:9930  UniswapV2Library.getAmountsOut(factory, amountIn, path) */\n      tag_250\n        /* \"UniswapV2Router02.sol\":9906:9913  factory */\n      immutable(\"0xb4bf3508f2fd7bb126e7af9e4fe31dbb3cdf386df5936668ea4d8292a4a1b188\")\n        /* \"UniswapV2Router02.sol\":9915:9923  amountIn */\n      dup10\n        /* \"UniswapV2Router02.sol\":9925:9929  path */\n      dup9\n      dup9\n        /* \"UniswapV2Router02.sol\":9875:9930  UniswapV2Library.getAmountsOut(factory, amountIn, path) */\n      dup1\n      dup1\n      0x20\n      mul\n      0x20\n      add\n      mload(0x40)\n      swap1\n      dup2\n      add\n      0x40\n      mstore\n      dup1\n      swap4\n      swap3\n      swap2\n      swap1\n      dup2\n      dup2\n      mstore\n      0x20\n      add\n      dup4\n      dup4\n      0x20\n      mul\n      dup1\n      dup3\n      dup5\n      calldatacopy\n      0x00\n      swap3\n      add\n      swap2\n      swap1\n      swap2\n      mstore\n      pop\n        /* \"UniswapV2Router02.sol\":9875:9905  UniswapV2Library.getAmountsOut */\n      tag_216\n      swap3\n      pop\n      pop\n      pop\n        /* \"UniswapV2Router02.sol\":9875:9930  UniswapV2Library.getAmountsOut(factory, amountIn, path) */\n      jump\t// in\n    tag_250:\n        /* \"UniswapV2Router02.sol\":9865:9930  amounts = UniswapV2Library.getAmountsOut(factory, amountIn, path) */\n      swap2\n      pop\n        /* \"UniswapV2Router02.sol\":9980:9992  amountOutMin */\n      dup7\n        /* \"UniswapV2Router02.sol\":9949:9956  amounts */\n      dup3\n        /* \"UniswapV2Router02.sol\":9974:9975  1 */\n      0x01\n        /* \"UniswapV2Router02.sol\":9957:9964  amounts */\n      dup5\n        /* \"UniswapV2Router02.sol\":9957:9971  amounts.length */\n      mload\n        /* \"UniswapV2Router02.sol\":9957:9975  amounts.length - 1 */\n      sub\n        /* \"UniswapV2Router02.sol\":9949:9976  amounts[amounts.length - 1] */\n      dup2\n      mload\n      dup2\n      lt\n      tag_251\n      jumpi\n      invalid\n    tag_251:\n      0x20\n      mul\n      0x20\n      add\n      add\n      mload\n        /* \"UniswapV2Router02.sol\":9949:9992  amounts[amounts.length - 1] >= amountOutMin */\n      lt\n      iszero\n        /* \"UniswapV2Router02.sol\":9941:10040  require(amounts[amounts.length - 1] >= amountOutMin, 'UniswapV2Router: INSUFFICIENT_OUTPUT_AMOUNT') */\n      tag_252\n      jumpi\n      mload(0x40)\n      shl(0xe5, 0x461bcd)\n      dup2\n      mstore\n      0x04\n      add\n      dup1\n      dup1\n      0x20\n      add\n      dup3\n      dup2\n      sub\n      dup3\n      mstore\n      0x2b\n      dup2\n      mstore\n      0x20\n      add\n      dup1\n      data_d4ea67bea551891ab36be726b8e631181246034dffcfd5c0bbfad1e9d1729432\n      0x2b\n      swap2\n      codecopy\n      0x40\n      add\n      swap2\n      pop\n      pop\n      mload(0x40)\n      dup1\n      swap2\n      sub\n      swap1\n      revert\n    tag_252:\n        /* \"UniswapV2Router02.sol\":10051:10231  TransferHelper.safeTransferFrom(\r... */\n      tag_253\n        /* \"UniswapV2Router02.sol\":10097:10101  path */\n      dup7\n      dup7\n        /* \"UniswapV2Router02.sol\":10102:10103  0 */\n      0x00\n        /* \"UniswapV2Router02.sol\":10097:10104  path[0] */\n      dup2\n      dup2\n      lt\n      tag_220\n      jumpi\n      invalid\n        /* \"UniswapV2Router02.sol\":10051:10231  TransferHelper.safeTransferFrom(\r... */\n    tag_253:\n        /* \"UniswapV2Router02.sol\":10242:10266  _swap(amounts, path, to) */\n      tag_233\n        /* \"UniswapV2Router02.sol\":10248:10255  amounts */\n      dup3\n        /* \"UniswapV2Router02.sol\":10257:10261  path */\n      dup8\n      dup8\n        /* \"UniswapV2Router02.sol\":10242:10266  _swap(amounts, path, to) */\n      dup1\n      dup1\n      0x20\n      mul\n      0x20\n      add\n      mload(0x40)\n      swap1\n      dup2\n      add\n      0x40\n      mstore\n      dup1\n      swap4\n      swap3\n      swap2\n      swap1\n      dup2\n      dup2\n      mstore\n      0x20\n      add\n      dup4\n      dup4\n      0x20\n      mul\n      dup1\n      dup3\n      dup5\n      calldatacopy\n      0x00\n      swap3\n      add\n      swap2\n      swap1\n      swap2\n      mstore\n      pop\n        /* \"UniswapV2Router02.sol\":10263:10265  to */\n      dup10\n      swap3\n      pop\n        /* \"UniswapV2Router02.sol\":10242:10247  _swap */\n      tag_228\n      swap2\n      pop\n      pop\n        /* \"UniswapV2Router02.sol\":10242:10266  _swap(amounts, path, to) */\n      jump\t// in\n        /* \"UniswapV2Router02.sol\":11624:12493  function swapTokensForExactETH(\r... */\n    tag_90:\n        /* \"UniswapV2Router02.sol\":11845:11866  uint[] memory amounts */\n      0x60\n        /* \"UniswapV2Router02.sol\":11826:11834  deadline */\n      dup2\n        /* \"UniswapV2Router02.sol\":673:688  block.timestamp */\n      timestamp\n        /* \"UniswapV2Router02.sol\":661:669  deadline */\n      dup2\n        /* \"UniswapV2Router02.sol\":661:688  deadline >= block.timestamp */\n      lt\n      iszero\n        /* \"UniswapV2Router02.sol\":653:717  require(deadline >= block.timestamp, 'UniswapV2Router: EXPIRED') */\n      tag_261\n      jumpi\n      0x40\n      dup1\n      mload\n      shl(0xe5, 0x461bcd)\n      dup2\n      mstore\n      0x20\n      0x04\n      dup3\n      add\n      mstore\n      0x18\n      0x24\n      dup3\n      add\n      mstore\n      0x00\n      dup1\n      mload\n      0x20\n      data_ee5734acb032ffb1bbaf889d52ccf9fbd1ce0f1ae12bee2c46068d51b910e2c5\n      dup4\n      codecopy\n      dup2\n      mload\n      swap2\n      mstore\n      0x44\n      dup3\n      add\n      mstore\n      swap1\n      mload\n      swap1\n      dup2\n      swap1\n      sub\n      0x64\n      add\n      swap1\n      revert\n    tag_261:\n      sub(shl(0xa0, 0x01), 0x01)\n        /* \"UniswapV2Router02.sol\":11912:11916  WETH */\n      immutable(\"0x8f59e018e114ef4f0f13f738daa411333c6421e3f33ae68ce5c638756a827d85\")\n        /* \"UniswapV2Router02.sol\":11887:11916  path[path.length - 1] == WETH */\n      and\n        /* \"UniswapV2Router02.sol\":11887:11891  path */\n      dup7\n      dup7\n      not(0x00)\n        /* \"UniswapV2Router02.sol\":11892:11907  path.length - 1 */\n      dup2\n      add\n        /* \"UniswapV2Router02.sol\":11887:11908  path[path.length - 1] */\n      dup2\n      dup2\n      lt\n      tag_263\n      jumpi\n      invalid\n    tag_263:\n      swap1\n      pop\n      0x20\n      mul\n      add\n      calldataload\n      sub(shl(0xa0, 0x01), 0x01)\n      and\n      sub(shl(0xa0, 0x01), 0x01)\n        /* \"UniswapV2Router02.sol\":11887:11916  path[path.length - 1] == WETH */\n      and\n      eq\n        /* \"UniswapV2Router02.sol\":11879:11950  require(path[path.length - 1] == WETH, 'UniswapV2Router: INVALID_PATH') */\n      tag_264\n      jumpi\n      0x40\n      dup1\n      mload\n      shl(0xe5, 0x461bcd)\n      dup2\n      mstore\n      0x20\n      0x04\n      dup3\n      add\n      mstore\n      0x1d\n      0x24\n      dup3\n      add\n      mstore\n      0x00\n      dup1\n      mload\n      0x20\n      data_c80e789ddaeb930b746bbbcb3afe8331d926679fd96f65d8c7468b735c0a14f2\n      dup4\n      codecopy\n      dup2\n      mload\n      swap2\n      mstore\n      0x44\n      dup3\n      add\n      mstore\n      swap1\n      mload\n      swap1\n      dup2\n      swap1\n      sub\n      0x64\n      add\n      swap1\n      revert\n    tag_264:\n        /* \"UniswapV2Router02.sol\":11971:12026  UniswapV2Library.getAmountsIn(factory, amountOut, path) */\n      tag_265\n        /* \"UniswapV2Router02.sol\":12001:12008  factory */\n      immutable(\"0xb4bf3508f2fd7bb126e7af9e4fe31dbb3cdf386df5936668ea4d8292a4a1b188\")\n        /* \"UniswapV2Router02.sol\":12010:12019  amountOut */\n      dup10\n        /* \"UniswapV2Router02.sol\":12021:12025  path */\n      dup9\n      dup9\n        /* \"UniswapV2Router02.sol\":11971:12026  UniswapV2Library.getAmountsIn(factory, amountOut, path) */\n      dup1\n      dup1\n      0x20\n      mul\n      0x20\n      add\n      mload(0x40)\n      swap1\n      dup2\n      add\n      0x40\n      mstore\n      dup1\n      swap4\n      swap3\n      swap2\n      swap1\n      dup2\n      dup2\n      mstore\n      0x20\n      add\n      dup4\n      dup4\n      0x20\n      mul\n      dup1\n      dup3\n      dup5\n      calldatacopy\n      0x00\n      swap3\n      add\n      swap2\n      swap1\n      swap2\n      mstore\n      pop\n        /* \"UniswapV2Router02.sol\":11971:12000  UniswapV2Library.getAmountsIn */\n      tag_237\n      swap3\n      pop\n      pop\n      pop\n        /* \"UniswapV2Router02.sol\":11971:12026  UniswapV2Library.getAmountsIn(factory, amountOut, path) */\n      jump\t// in\n    tag_265:\n        /* \"UniswapV2Router02.sol\":11961:12026  amounts = UniswapV2Library.getAmountsIn(factory, amountOut, path) */\n      swap2\n      pop\n        /* \"UniswapV2Router02.sol\":12059:12070  amountInMax */\n      dup7\n        /* \"UniswapV2Router02.sol\":12045:12052  amounts */\n      dup3\n        /* \"UniswapV2Router02.sol\":12053:12054  0 */\n      0x00\n        /* \"UniswapV2Router02.sol\":12045:12055  amounts[0] */\n      dup2\n      mload\n      dup2\n      lt\n      tag_266\n      jumpi\n      invalid\n    tag_266:\n      0x20\n      mul\n      0x20\n      add\n      add\n      mload\n        /* \"UniswapV2Router02.sol\":12045:12070  amounts[0] <= amountInMax */\n      gt\n      iszero\n        /* \"UniswapV2Router02.sol\":12037:12114  require(amounts[0] <= amountInMax, 'UniswapV2Router: EXCESSIVE_INPUT_AMOUNT') */\n      tag_218\n      jumpi\n      mload(0x40)\n      shl(0xe5, 0x461bcd)\n      dup2\n      mstore\n      0x04\n      add\n      dup1\n      dup1\n      0x20\n      add\n      dup3\n      dup2\n      sub\n      dup3\n      mstore\n      0x27\n      dup2\n      mstore\n      0x20\n      add\n      dup1\n      data_bb18004cd22eaad7ea393d184ea6ac1df1428db36bb6fbff8af486232d68ae2c\n      0x27\n      swap2\n      codecopy\n      0x40\n      add\n      swap2\n      pop\n      pop\n      mload(0x40)\n      dup1\n      swap2\n      sub\n      swap1\n      revert\n        /* \"UniswapV2Router02.sol\":7891:8701  function removeLiquidityETHWithPermitSupportingFeeOnTransferTokens(\r... */\n    tag_97:\n        /* \"UniswapV2Router02.sol\":8236:8250  uint amountETH */\n      0x00\n        /* \"UniswapV2Router02.sol\":8263:8275  address pair */\n      dup1\n        /* \"UniswapV2Router02.sol\":8278:8324  UniswapV2Library.pairFor(factory, token, WETH) */\n      tag_282\n        /* \"UniswapV2Router02.sol\":8303:8310  factory */\n      immutable(\"0xb4bf3508f2fd7bb126e7af9e4fe31dbb3cdf386df5936668ea4d8292a4a1b188\")\n        /* \"UniswapV2Router02.sol\":8312:8317  token */\n      dup14\n        /* \"UniswapV2Router02.sol\":8319:8323  WETH */\n      immutable(\"0x8f59e018e114ef4f0f13f738daa411333c6421e3f33ae68ce5c638756a827d85\")\n        /* \"UniswapV2Router02.sol\":8278:8302  UniswapV2Library.pairFor */\n      tag_224\n        /* \"UniswapV2Router02.sol\":8278:8324  UniswapV2Library.pairFor(factory, token, WETH) */\n      jump\t// in\n    tag_282:\n        /* \"UniswapV2Router02.sol\":8263:8324  address pair = UniswapV2Library.pairFor(factory, token, WETH) */\n      swap1\n      pop\n        /* \"UniswapV2Router02.sol\":8335:8345  uint value */\n      0x00\n        /* \"UniswapV2Router02.sol\":8348:8358  approveMax */\n      dup7\n        /* \"UniswapV2Router02.sol\":8348:8381  approveMax ? uint(-1) : liquidity */\n      tag_283\n      jumpi\n        /* \"UniswapV2Router02.sol\":8372:8381  liquidity */\n      dup12\n        /* \"UniswapV2Router02.sol\":8348:8381  approveMax ? uint(-1) : liquidity */\n      jump(tag_284)\n    tag_283:\n      not(0x00)\n    tag_284:\n        /* \"UniswapV2Router02.sol\":8392:8472  IUniswapV2Pair(pair).permit(msg.sender, address(this), value, deadline, v, r, s) */\n      0x40\n      dup1\n      mload\n      shl(0xe0, 0xd505accf)\n      dup2\n      mstore\n        /* \"UniswapV2Router02.sol\":8420:8430  msg.sender */\n      caller\n        /* \"UniswapV2Router02.sol\":8392:8472  IUniswapV2Pair(pair).permit(msg.sender, address(this), value, deadline, v, r, s) */\n      0x04\n      dup3\n      add\n      mstore\n        /* \"UniswapV2Router02.sol\":8440:8444  this */\n      address\n        /* \"UniswapV2Router02.sol\":8392:8472  IUniswapV2Pair(pair).permit(msg.sender, address(this), value, deadline, v, r, s) */\n      0x24\n      dup3\n      add\n      mstore\n      0x44\n      dup2\n      add\n      dup4\n      swap1\n      mstore\n      0x64\n      dup2\n      add\n      dup12\n      swap1\n      mstore\n      0xff\n      dup10\n      and\n      0x84\n      dup3\n      add\n      mstore\n      0xa4\n      dup2\n      add\n      dup9\n      swap1\n      mstore\n      0xc4\n      dup2\n      add\n      dup8\n      swap1\n      mstore\n      swap1\n      mload\n        /* \"UniswapV2Router02.sol\":8335:8381  uint value = approveMax ? uint(-1) : liquidity */\n      swap2\n      swap3\n      pop\n      sub(shl(0xa0, 0x01), 0x01)\n        /* \"UniswapV2Router02.sol\":8392:8419  IUniswapV2Pair(pair).permit */\n      dup5\n      and\n      swap2\n      0xd505accf\n      swap2\n        /* \"UniswapV2Router02.sol\":8392:8472  IUniswapV2Pair(pair).permit(msg.sender, address(this), value, deadline, v, r, s) */\n      0xe4\n      dup1\n      dup3\n      add\n      swap3\n      0x00\n      swap3\n      swap1\n      swap2\n      swap1\n      dup3\n      swap1\n      sub\n      add\n      dup2\n      dup4\n        /* \"UniswapV2Router02.sol\":8392:8419  IUniswapV2Pair(pair).permit */\n      dup8\n        /* \"UniswapV2Router02.sol\":8392:8472  IUniswapV2Pair(pair).permit(msg.sender, address(this), value, deadline, v, r, s) */\n      dup1\n      extcodesize\n      iszero\n      dup1\n      iszero\n      tag_285\n      jumpi\n      0x00\n      dup1\n      revert\n    tag_285:\n      pop\n      gas\n      call\n      iszero\n      dup1\n      iszero\n      tag_287\n      jumpi\n      returndatasize\n      0x00\n      dup1\n      returndatacopy\n      revert(0x00, returndatasize)\n    tag_287:\n      pop\n      pop\n      pop\n      pop\n        /* \"UniswapV2Router02.sol\":8495:8693  removeLiquidityETHSupportingFeeOnTransferTokens(\r... */\n      tag_288\n        /* \"UniswapV2Router02.sol\":8557:8562  token */\n      dup14\n        /* \"UniswapV2Router02.sol\":8577:8586  liquidity */\n      dup14\n        /* \"UniswapV2Router02.sol\":8601:8615  amountTokenMin */\n      dup14\n        /* \"UniswapV2Router02.sol\":8630:8642  amountETHMin */\n      dup14\n        /* \"UniswapV2Router02.sol\":8657:8659  to */\n      dup14\n        /* \"UniswapV2Router02.sol\":8674:8682  deadline */\n      dup14\n        /* \"UniswapV2Router02.sol\":8495:8542  removeLiquidityETHSupportingFeeOnTransferTokens */\n      tag_152\n        /* \"UniswapV2Router02.sol\":8495:8693  removeLiquidityETHSupportingFeeOnTransferTokens(\r... */\n      jump\t// in\n    tag_288:\n        /* \"UniswapV2Router02.sol\":8483:8693  amountETH = removeLiquidityETHSupportingFeeOnTransferTokens(\r... */\n      swap14\n        /* \"UniswapV2Router02.sol\":7891:8701  function removeLiquidityETHWithPermitSupportingFeeOnTransferTokens(\r... */\n      swap13\n      pop\n      pop\n      pop\n      pop\n      pop\n      pop\n      pop\n      pop\n      pop\n      pop\n      pop\n      pop\n      pop\n      jump\t// out\n        /* \"UniswapV2Router02.sol\":15598:16351  function swapExactTokensForTokensSupportingFeeOnTransferTokens(\r... */\n    tag_104:\n        /* \"UniswapV2Router02.sol\":15832:15840  deadline */\n      dup1\n        /* \"UniswapV2Router02.sol\":673:688  block.timestamp */\n      timestamp\n        /* \"UniswapV2Router02.sol\":661:669  deadline */\n      dup2\n        /* \"UniswapV2Router02.sol\":661:688  deadline >= block.timestamp */\n      lt\n      iszero\n        /* \"UniswapV2Router02.sol\":653:717  require(deadline >= block.timestamp, 'UniswapV2Router: EXPIRED') */\n      tag_290\n      jumpi\n      0x40\n      dup1\n      mload\n      shl(0xe5, 0x461bcd)\n      dup2\n      mstore\n      0x20\n      0x04\n      dup3\n      add\n      mstore\n      0x18\n      0x24\n      dup3\n      add\n      mstore\n      0x00\n      dup1\n      mload\n      0x20\n      data_ee5734acb032ffb1bbaf889d52ccf9fbd1ce0f1ae12bee2c46068d51b910e2c5\n      dup4\n      codecopy\n      dup2\n      mload\n      swap2\n      mstore\n      0x44\n      dup3\n      add\n      mstore\n      swap1\n      mload\n      swap1\n      dup2\n      swap1\n      sub\n      0x64\n      add\n      swap1\n      revert\n    tag_290:\n        /* \"UniswapV2Router02.sol\":15853:16031  TransferHelper.safeTransferFrom(\r... */\n      tag_292\n        /* \"UniswapV2Router02.sol\":15899:15903  path */\n      dup6\n      dup6\n        /* \"UniswapV2Router02.sol\":15904:15905  0 */\n      0x00\n        /* \"UniswapV2Router02.sol\":15899:15906  path[0] */\n      dup2\n      dup2\n      lt\n      tag_293\n      jumpi\n      invalid\n    tag_293:\n      swap1\n      pop\n      0x20\n      mul\n      add\n      calldataload\n      sub(shl(0xa0, 0x01), 0x01)\n      and\n        /* \"UniswapV2Router02.sol\":15921:15931  msg.sender */\n      caller\n        /* \"UniswapV2Router02.sol\":15946:15997  UniswapV2Library.pairFor(factory, path[0], path[1]) */\n      tag_294\n        /* \"UniswapV2Router02.sol\":15971:15978  factory */\n      immutable(\"0xb4bf3508f2fd7bb126e7af9e4fe31dbb3cdf386df5936668ea4d8292a4a1b188\")\n        /* \"UniswapV2Router02.sol\":15980:15984  path */\n      dup10\n      dup10\n        /* \"UniswapV2Router02.sol\":15985:15986  0 */\n      0x00\n        /* \"UniswapV2Router02.sol\":15980:15987  path[0] */\n      dup2\n      dup2\n      lt\n      tag_295\n      jumpi\n      invalid\n    tag_295:\n      swap1\n      pop\n      0x20\n      mul\n      add\n      calldataload\n      sub(shl(0xa0, 0x01), 0x01)\n      and\n        /* \"UniswapV2Router02.sol\":15989:15993  path */\n      dup11\n      dup11\n        /* \"UniswapV2Router02.sol\":15994:15995  1 */\n      0x01\n        /* \"UniswapV2Router02.sol\":15989:15996  path[1] */\n      dup2\n      dup2\n      lt\n      tag_223\n      jumpi\n      invalid\n        /* \"UniswapV2Router02.sol\":15946:15997  UniswapV2Library.pairFor(factory, path[0], path[1]) */\n    tag_294:\n        /* \"UniswapV2Router02.sol\":16012:16020  amountIn */\n      dup11\n        /* \"UniswapV2Router02.sol\":15853:15884  TransferHelper.safeTransferFrom */\n      tag_226\n        /* \"UniswapV2Router02.sol\":15853:16031  TransferHelper.safeTransferFrom(\r... */\n      jump\t// in\n    tag_292:\n        /* \"UniswapV2Router02.sol\":16042:16060  uint balanceBefore */\n      0x00\n        /* \"UniswapV2Router02.sol\":16070:16074  path */\n      dup6\n      dup6\n      not(0x00)\n        /* \"UniswapV2Router02.sol\":16075:16090  path.length - 1 */\n      dup2\n      add\n        /* \"UniswapV2Router02.sol\":16070:16091  path[path.length - 1] */\n      dup2\n      dup2\n      lt\n      tag_297\n      jumpi\n      invalid\n    tag_297:\n      swap1\n      pop\n      0x20\n      mul\n      add\n      calldataload\n      sub(shl(0xa0, 0x01), 0x01)\n      and\n      sub(shl(0xa0, 0x01), 0x01)\n        /* \"UniswapV2Router02.sol\":16063:16102  IERC20(path[path.length - 1]).balanceOf */\n      and\n      0x70a08231\n        /* \"UniswapV2Router02.sol\":16103:16105  to */\n      dup6\n        /* \"UniswapV2Router02.sol\":16063:16106  IERC20(path[path.length - 1]).balanceOf(to) */\n      mload(0x40)\n      dup3\n      0xffffffff\n      and\n      0xe0\n      shl\n      dup2\n      mstore\n      0x04\n      add\n      dup1\n      dup3\n      sub(shl(0xa0, 0x01), 0x01)\n      and\n      dup2\n      mstore\n      0x20\n      add\n      swap2\n      pop\n      pop\n      0x20\n      mload(0x40)\n      dup1\n      dup4\n      sub\n      dup2\n      dup7\n      dup1\n      extcodesize\n      iszero\n      dup1\n      iszero\n      tag_298\n      jumpi\n      0x00\n      dup1\n      revert\n    tag_298:\n      pop\n      gas\n      staticcall\n      iszero\n      dup1\n      iszero\n      tag_300\n      jumpi\n      returndatasize\n      0x00\n      dup1\n      returndatacopy\n      revert(0x00, returndatasize)\n    tag_300:\n      pop\n      pop\n      pop\n      pop\n      mload(0x40)\n      returndatasize\n      0x20\n      dup2\n      lt\n      iszero\n      tag_301\n      jumpi\n      0x00\n      dup1\n      revert\n    tag_301:\n      pop\n      mload\n        /* \"UniswapV2Router02.sol\":16117:16161  _swapSupportingFeeOnTransferTokens(path, to) */\n      0x40\n      dup1\n      mload\n        /* \"UniswapV2Router02.sol\":16063:16106  IERC20(path[path.length - 1]).balanceOf(to) */\n      0x20\n        /* \"UniswapV2Router02.sol\":16117:16161  _swapSupportingFeeOnTransferTokens(path, to) */\n      dup9\n      dup2\n      mul\n      dup3\n      dup2\n      add\n      dup3\n      add\n      swap1\n      swap4\n      mstore\n      dup9\n      dup3\n      mstore\n        /* \"UniswapV2Router02.sol\":16063:16106  IERC20(path[path.length - 1]).balanceOf(to) */\n      swap3\n      swap4\n      pop\n        /* \"UniswapV2Router02.sol\":16117:16161  _swapSupportingFeeOnTransferTokens(path, to) */\n      tag_302\n      swap3\n      swap1\n      swap2\n        /* \"UniswapV2Router02.sol\":16152:16156  path */\n      dup10\n      swap2\n      dup10\n      swap2\n      dup3\n      swap2\n        /* \"UniswapV2Router02.sol\":16117:16161  _swapSupportingFeeOnTransferTokens(path, to) */\n      dup6\n      add\n      swap1\n        /* \"UniswapV2Router02.sol\":16152:16156  path */\n      dup5\n      swap1\n        /* \"UniswapV2Router02.sol\":16117:16161  _swapSupportingFeeOnTransferTokens(path, to) */\n      dup1\n        /* \"UniswapV2Router02.sol\":16152:16156  path */\n      dup3\n        /* \"UniswapV2Router02.sol\":16117:16161  _swapSupportingFeeOnTransferTokens(path, to) */\n      dup5\n      calldatacopy\n      0x00\n      swap3\n      add\n      swap2\n      swap1\n      swap2\n      mstore\n      pop\n        /* \"UniswapV2Router02.sol\":16158:16160  to */\n      dup9\n      swap3\n      pop\n        /* \"UniswapV2Router02.sol\":16117:16151  _swapSupportingFeeOnTransferTokens */\n      tag_303\n      swap2\n      pop\n      pop\n        /* \"UniswapV2Router02.sol\":16117:16161  _swapSupportingFeeOnTransferTokens(path, to) */\n      jump\t// in\n    tag_302:\n        /* \"UniswapV2Router02.sol\":16260:16272  amountOutMin */\n      dup7\n        /* \"UniswapV2Router02.sol\":16194:16256  IERC20(path[path.length - 1]).balanceOf(to).sub(balanceBefore) */\n      tag_304\n        /* \"UniswapV2Router02.sol\":16242:16255  balanceBefore */\n      dup3\n        /* \"UniswapV2Router02.sol\":16201:16205  path */\n      dup9\n      dup9\n      not(0x00)\n        /* \"UniswapV2Router02.sol\":16206:16221  path.length - 1 */\n      dup2\n      add\n        /* \"UniswapV2Router02.sol\":16201:16222  path[path.length - 1] */\n      dup2\n      dup2\n      lt\n      tag_305\n      jumpi\n      invalid\n    tag_305:\n      swap1\n      pop\n      0x20\n      mul\n      add\n      calldataload\n      sub(shl(0xa0, 0x01), 0x01)\n      and\n      sub(shl(0xa0, 0x01), 0x01)\n        /* \"UniswapV2Router02.sol\":16194:16233  IERC20(path[path.length - 1]).balanceOf */\n      and\n      0x70a08231\n        /* \"UniswapV2Router02.sol\":16234:16236  to */\n      dup9\n        /* \"UniswapV2Router02.sol\":16194:16237  IERC20(path[path.length - 1]).balanceOf(to) */\n      mload(0x40)\n      dup3\n      0xffffffff\n      and\n      0xe0\n      shl\n      dup2\n      mstore\n      0x04\n      add\n      dup1\n      dup3\n      sub(shl(0xa0, 0x01), 0x01)\n      and\n      dup2\n      mstore\n      0x20\n      add\n      swap2\n      pop\n      pop\n      0x20\n      mload(0x40)\n      dup1\n      dup4\n      sub\n      dup2\n      dup7\n      dup1\n      extcodesize\n      iszero\n      dup1\n      iszero\n      tag_306\n      jumpi\n      0x00\n      dup1\n      revert\n    tag_306:\n      pop\n      gas\n      staticcall\n      iszero\n      dup1\n      iszero\n      tag_308\n      jumpi\n      returndatasize\n      0x00\n      dup1\n      returndatacopy\n      revert(0x00, returndatasize)\n    tag_308:\n      pop\n      pop\n      pop\n      pop\n      mload(0x40)\n      returndatasize\n      0x20\n      dup2\n      lt\n      iszero\n      tag_309\n      jumpi\n      0x00\n      dup1\n      revert\n    tag_309:\n      pop\n      mload\n      swap1\n        /* \"UniswapV2Router02.sol\":16194:16241  IERC20(path[path.length - 1]).balanceOf(to).sub */\n      tag_310\n        /* \"UniswapV2Router02.sol\":16194:16256  IERC20(path[path.length - 1]).balanceOf(to).sub(balanceBefore) */\n      jump\t// in\n    tag_304:\n        /* \"UniswapV2Router02.sol\":16194:16272  IERC20(path[path.length - 1]).balanceOf(to).sub(balanceBefore) >= amountOutMin */\n      lt\n      iszero\n        /* \"UniswapV2Router02.sol\":16172:16343  require(\r... */\n      tag_311\n      jumpi\n      mload(0x40)\n      shl(0xe5, 0x461bcd)\n      dup2\n      mstore\n      0x04\n      add\n      dup1\n      dup1\n      0x20\n      add\n      dup3\n      dup2\n      sub\n      dup3\n      mstore\n      0x2b\n      dup2\n      mstore\n      0x20\n      add\n      dup1\n      data_d4ea67bea551891ab36be726b8e631181246034dffcfd5c0bbfad1e9d1729432\n      0x2b\n      swap2\n      codecopy\n      0x40\n      add\n      swap2\n      pop\n      pop\n      mload(0x40)\n      dup1\n      swap2\n      sub\n      swap1\n      revert\n    tag_311:\n        /* \"UniswapV2Router02.sol\":728:729  _ */\n      pop\n        /* \"UniswapV2Router02.sol\":15598:16351  function swapExactTokensForTokensSupportingFeeOnTransferTokens(\r... */\n      pop\n      pop\n      pop\n      pop\n      pop\n      pop\n      pop\n      jump\t// out\n        /* \"UniswapV2Router02.sol\":17167:18008  function swapExactTokensForETHSupportingFeeOnTransferTokens(\r... */\n    tag_111:\n        /* \"UniswapV2Router02.sol\":17398:17406  deadline */\n      dup1\n        /* \"UniswapV2Router02.sol\":673:688  block.timestamp */\n      timestamp\n        /* \"UniswapV2Router02.sol\":661:669  deadline */\n      dup2\n        /* \"UniswapV2Router02.sol\":661:688  deadline >= block.timestamp */\n      lt\n      iszero\n        /* \"UniswapV2Router02.sol\":653:717  require(deadline >= block.timestamp, 'UniswapV2Router: EXPIRED') */\n      tag_313\n      jumpi\n      0x40\n      dup1\n      mload\n      shl(0xe5, 0x461bcd)\n      dup2\n      mstore\n      0x20\n      0x04\n      dup3\n      add\n      mstore\n      0x18\n      0x24\n      dup3\n      add\n      mstore\n      0x00\n      dup1\n      mload\n      0x20\n      data_ee5734acb032ffb1bbaf889d52ccf9fbd1ce0f1ae12bee2c46068d51b910e2c5\n      dup4\n      codecopy\n      dup2\n      mload\n      swap2\n      mstore\n      0x44\n      dup3\n      add\n      mstore\n      swap1\n      mload\n      swap1\n      dup2\n      swap1\n      sub\n      0x64\n      add\n      swap1\n      revert\n    tag_313:\n      sub(shl(0xa0, 0x01), 0x01)\n        /* \"UniswapV2Router02.sol\":17452:17456  WETH */\n      immutable(\"0x8f59e018e114ef4f0f13f738daa411333c6421e3f33ae68ce5c638756a827d85\")\n        /* \"UniswapV2Router02.sol\":17427:17456  path[path.length - 1] == WETH */\n      and\n        /* \"UniswapV2Router02.sol\":17427:17431  path */\n      dup6\n      dup6\n      not(0x00)\n        /* \"UniswapV2Router02.sol\":17432:17447  path.length - 1 */\n      dup2\n      add\n        /* \"UniswapV2Router02.sol\":17427:17448  path[path.length - 1] */\n      dup2\n      dup2\n      lt\n      tag_315\n      jumpi\n      invalid\n    tag_315:\n      swap1\n      pop\n      0x20\n      mul\n      add\n      calldataload\n      sub(shl(0xa0, 0x01), 0x01)\n      and\n      sub(shl(0xa0, 0x01), 0x01)\n        /* \"UniswapV2Router02.sol\":17427:17456  path[path.length - 1] == WETH */\n      and\n      eq\n        /* \"UniswapV2Router02.sol\":17419:17490  require(path[path.length - 1] == WETH, 'UniswapV2Router: INVALID_PATH') */\n      tag_316\n      jumpi\n      0x40\n      dup1\n      mload\n      shl(0xe5, 0x461bcd)\n      dup2\n      mstore\n      0x20\n      0x04\n      dup3\n      add\n      mstore\n      0x1d\n      0x24\n      dup3\n      add\n      mstore\n      0x00\n      dup1\n      mload\n      0x20\n      data_c80e789ddaeb930b746bbbcb3afe8331d926679fd96f65d8c7468b735c0a14f2\n      dup4\n      codecopy\n      dup2\n      mload\n      swap2\n      mstore\n      0x44\n      dup3\n      add\n      mstore\n      swap1\n      mload\n      swap1\n      dup2\n      swap1\n      sub\n      0x64\n      add\n      swap1\n      revert\n    tag_316:\n        /* \"UniswapV2Router02.sol\":17501:17679  TransferHelper.safeTransferFrom(\r... */\n      tag_317\n        /* \"UniswapV2Router02.sol\":17547:17551  path */\n      dup6\n      dup6\n        /* \"UniswapV2Router02.sol\":17552:17553  0 */\n      0x00\n        /* \"UniswapV2Router02.sol\":17547:17554  path[0] */\n      dup2\n      dup2\n      lt\n      tag_293\n      jumpi\n      invalid\n        /* \"UniswapV2Router02.sol\":17501:17679  TransferHelper.safeTransferFrom(\r... */\n    tag_317:\n        /* \"UniswapV2Router02.sol\":17690:17745  _swapSupportingFeeOnTransferTokens(path, address(this)) */\n      tag_322\n        /* \"UniswapV2Router02.sol\":17725:17729  path */\n      dup6\n      dup6\n        /* \"UniswapV2Router02.sol\":17690:17745  _swapSupportingFeeOnTransferTokens(path, address(this)) */\n      dup1\n      dup1\n      0x20\n      mul\n      0x20\n      add\n      mload(0x40)\n      swap1\n      dup2\n      add\n      0x40\n      mstore\n      dup1\n      swap4\n      swap3\n      swap2\n      swap1\n      dup2\n      dup2\n      mstore\n      0x20\n      add\n      dup4\n      dup4\n      0x20\n      mul\n      dup1\n      dup3\n      dup5\n      calldatacopy\n      0x00\n      swap3\n      add\n      swap2\n      swap1\n      swap2\n      mstore\n      pop\n        /* \"UniswapV2Router02.sol\":17739:17743  this */\n      address\n      swap3\n      pop\n        /* \"UniswapV2Router02.sol\":17690:17724  _swapSupportingFeeOnTransferTokens */\n      tag_303\n      swap2\n      pop\n      pop\n        /* \"UniswapV2Router02.sol\":17690:17745  _swapSupportingFeeOnTransferTokens(path, address(this)) */\n      jump\t// in\n    tag_322:\n        /* \"UniswapV2Router02.sol\":17756:17770  uint amountOut */\n      0x00\n        /* \"UniswapV2Router02.sol\":17780:17784  WETH */\n      immutable(\"0x8f59e018e114ef4f0f13f738daa411333c6421e3f33ae68ce5c638756a827d85\")\n      sub(shl(0xa0, 0x01), 0x01)\n        /* \"UniswapV2Router02.sol\":17773:17795  IERC20(WETH).balanceOf */\n      and\n      0x70a08231\n        /* \"UniswapV2Router02.sol\":17804:17808  this */\n      address\n        /* \"UniswapV2Router02.sol\":17773:17810  IERC20(WETH).balanceOf(address(this)) */\n      mload(0x40)\n      dup3\n      0xffffffff\n      and\n      0xe0\n      shl\n      dup2\n      mstore\n      0x04\n      add\n      dup1\n      dup3\n      sub(shl(0xa0, 0x01), 0x01)\n      and\n      dup2\n      mstore\n      0x20\n      add\n      swap2\n      pop\n      pop\n      0x20\n      mload(0x40)\n      dup1\n      dup4\n      sub\n      dup2\n      dup7\n      dup1\n      extcodesize\n      iszero\n      dup1\n      iszero\n      tag_323\n      jumpi\n      0x00\n      dup1\n      revert\n    tag_323:\n      pop\n      gas\n      staticcall\n      iszero\n      dup1\n      iszero\n      tag_325\n      jumpi\n      returndatasize\n      0x00\n      dup1\n      returndatacopy\n      revert(0x00, returndatasize)\n    tag_325:\n      pop\n      pop\n      pop\n      pop\n      mload(0x40)\n      returndatasize\n      0x20\n      dup2\n      lt\n      iszero\n      tag_326\n      jumpi\n      0x00\n      dup1\n      revert\n    tag_326:\n      pop\n      mload\n      swap1\n      pop\n        /* \"UniswapV2Router02.sol\":17829:17854  amountOut >= amountOutMin */\n      dup7\n      dup2\n      lt\n      iszero\n        /* \"UniswapV2Router02.sol\":17821:17902  require(amountOut >= amountOutMin, 'UniswapV2Router: INSUFFICIENT_OUTPUT_AMOUNT') */\n      tag_327\n      jumpi\n      mload(0x40)\n      shl(0xe5, 0x461bcd)\n      dup2\n      mstore\n      0x04\n      add\n      dup1\n      dup1\n      0x20\n      add\n      dup3\n      dup2\n      sub\n      dup3\n      mstore\n      0x2b\n      dup2\n      mstore\n      0x20\n      add\n      dup1\n      data_d4ea67bea551891ab36be726b8e631181246034dffcfd5c0bbfad1e9d1729432\n      0x2b\n      swap2\n      codecopy\n      0x40\n      add\n      swap2\n      pop\n      pop\n      mload(0x40)\n      dup1\n      swap2\n      sub\n      swap1\n      revert\n    tag_327:\n        /* \"UniswapV2Router02.sol\":17919:17923  WETH */\n      immutable(\"0x8f59e018e114ef4f0f13f738daa411333c6421e3f33ae68ce5c638756a827d85\")\n      sub(shl(0xa0, 0x01), 0x01)\n        /* \"UniswapV2Router02.sol\":17913:17933  IWETH(WETH).withdraw */\n      and\n      0x2e1a7d4d\n        /* \"UniswapV2Router02.sol\":17934:17943  amountOut */\n      dup3\n        /* \"UniswapV2Router02.sol\":17913:17944  IWETH(WETH).withdraw(amountOut) */\n      mload(0x40)\n      dup3\n      0xffffffff\n      and\n      0xe0\n      shl\n      dup2\n      mstore\n      0x04\n      add\n      dup1\n      dup3\n      dup2\n      mstore\n      0x20\n      add\n      swap2\n      pop\n      pop\n      0x00\n      mload(0x40)\n      dup1\n      dup4\n      sub\n      dup2\n      0x00\n      dup8\n      dup1\n      extcodesize\n      iszero\n      dup1\n      iszero\n      tag_328\n      jumpi\n      0x00\n      dup1\n      revert\n    tag_328:\n      pop\n      gas\n      call\n      iszero\n      dup1\n      iszero\n      tag_330\n      jumpi\n      returndatasize\n      0x00\n      dup1\n      returndatacopy\n      revert(0x00, returndatasize)\n    tag_330:\n      pop\n      pop\n      pop\n      pop\n        /* \"UniswapV2Router02.sol\":17955:18000  TransferHelper.safeTransferETH(to, amountOut) */\n      tag_311\n        /* \"UniswapV2Router02.sol\":17986:17988  to */\n      dup5\n        /* \"UniswapV2Router02.sol\":17990:17999  amountOut */\n      dup3\n        /* \"UniswapV2Router02.sol\":17955:17985  TransferHelper.safeTransferETH */\n      tag_206\n        /* \"UniswapV2Router02.sol\":17955:18000  TransferHelper.safeTransferETH(to, amountOut) */\n      jump\t// in\n        /* \"UniswapV2Router02.sol\":10935:11616  function swapExactETHForTokens(\r... */\n    tag_117:\n        /* \"UniswapV2Router02.sol\":11140:11161  uint[] memory amounts */\n      0x60\n        /* \"UniswapV2Router02.sol\":11121:11129  deadline */\n      dup2\n        /* \"UniswapV2Router02.sol\":673:688  block.timestamp */\n      timestamp\n        /* \"UniswapV2Router02.sol\":661:669  deadline */\n      dup2\n        /* \"UniswapV2Router02.sol\":661:688  deadline >= block.timestamp */\n      lt\n      iszero\n        /* \"UniswapV2Router02.sol\":653:717  require(deadline >= block.timestamp, 'UniswapV2Router: EXPIRED') */\n      tag_333\n      jumpi\n      0x40\n      dup1\n      mload\n      shl(0xe5, 0x461bcd)\n      dup2\n      mstore\n      0x20\n      0x04\n      dup3\n      add\n      mstore\n      0x18\n      0x24\n      dup3\n      add\n      mstore\n      0x00\n      dup1\n      mload\n      0x20\n      data_ee5734acb032ffb1bbaf889d52ccf9fbd1ce0f1ae12bee2c46068d51b910e2c5\n      dup4\n      codecopy\n      dup2\n      mload\n      swap2\n      mstore\n      0x44\n      dup3\n      add\n      mstore\n      swap1\n      mload\n      swap1\n      dup2\n      swap1\n      sub\n      0x64\n      add\n      swap1\n      revert\n    tag_333:\n        /* \"UniswapV2Router02.sol\":11193:11197  WETH */\n      immutable(\"0x8f59e018e114ef4f0f13f738daa411333c6421e3f33ae68ce5c638756a827d85\")\n      sub(shl(0xa0, 0x01), 0x01)\n        /* \"UniswapV2Router02.sol\":11182:11197  path[0] == WETH */\n      and\n        /* \"UniswapV2Router02.sol\":11182:11186  path */\n      dup7\n      dup7\n        /* \"UniswapV2Router02.sol\":11187:11188  0 */\n      0x00\n        /* \"UniswapV2Router02.sol\":11182:11189  path[0] */\n      dup2\n      dup2\n      lt\n      tag_335\n      jumpi\n      invalid\n    tag_335:\n      swap1\n      pop\n      0x20\n      mul\n      add\n      calldataload\n      sub(shl(0xa0, 0x01), 0x01)\n      and\n      sub(shl(0xa0, 0x01), 0x01)\n        /* \"UniswapV2Router02.sol\":11182:11197  path[0] == WETH */\n      and\n      eq\n        /* \"UniswapV2Router02.sol\":11174:11231  require(path[0] == WETH, 'UniswapV2Router: INVALID_PATH') */\n      tag_336\n      jumpi\n      0x40\n      dup1\n      mload\n      shl(0xe5, 0x461bcd)\n      dup2\n      mstore\n      0x20\n      0x04\n      dup3\n      add\n      mstore\n      0x1d\n      0x24\n      dup3\n      add\n      mstore\n      0x00\n      dup1\n      mload\n      0x20\n      data_c80e789ddaeb930b746bbbcb3afe8331d926679fd96f65d8c7468b735c0a14f2\n      dup4\n      codecopy\n      dup2\n      mload\n      swap2\n      mstore\n      0x44\n      dup3\n      add\n      mstore\n      swap1\n      mload\n      swap1\n      dup2\n      swap1\n      sub\n      0x64\n      add\n      swap1\n      revert\n    tag_336:\n        /* \"UniswapV2Router02.sol\":11252:11308  UniswapV2Library.getAmountsOut(factory, msg.value, path) */\n      tag_337\n        /* \"UniswapV2Router02.sol\":11283:11290  factory */\n      immutable(\"0xb4bf3508f2fd7bb126e7af9e4fe31dbb3cdf386df5936668ea4d8292a4a1b188\")\n        /* \"UniswapV2Router02.sol\":11292:11301  msg.value */\n      callvalue\n        /* \"UniswapV2Router02.sol\":11303:11307  path */\n      dup9\n      dup9\n        /* \"UniswapV2Router02.sol\":11252:11308  UniswapV2Library.getAmountsOut(factory, msg.value, path) */\n      dup1\n      dup1\n      0x20\n      mul\n      0x20\n      add\n      mload(0x40)\n      swap1\n      dup2\n      add\n      0x40\n      mstore\n      dup1\n      swap4\n      swap3\n      swap2\n      swap1\n      dup2\n      dup2\n      mstore\n      0x20\n      add\n      dup4\n      dup4\n      0x20\n      mul\n      dup1\n      dup3\n      dup5\n      calldatacopy\n      0x00\n      swap3\n      add\n      swap2\n      swap1\n      swap2\n      mstore\n      pop\n        /* \"UniswapV2Router02.sol\":11252:11282  UniswapV2Library.getAmountsOut */\n      tag_216\n      swap3\n      pop\n      pop\n      pop\n        /* \"UniswapV2Router02.sol\":11252:11308  UniswapV2Library.getAmountsOut(factory, msg.value, path) */\n      jump\t// in\n    tag_337:\n        /* \"UniswapV2Router02.sol\":11242:11308  amounts = UniswapV2Library.getAmountsOut(factory, msg.value, path) */\n      swap2\n      pop\n        /* \"UniswapV2Router02.sol\":11358:11370  amountOutMin */\n      dup7\n        /* \"UniswapV2Router02.sol\":11327:11334  amounts */\n      dup3\n        /* \"UniswapV2Router02.sol\":11352:11353  1 */\n      0x01\n        /* \"UniswapV2Router02.sol\":11335:11342  amounts */\n      dup5\n        /* \"UniswapV2Router02.sol\":11335:11349  amounts.length */\n      mload\n        /* \"UniswapV2Router02.sol\":11335:11353  amounts.length - 1 */\n      sub\n        /* \"UniswapV2Router02.sol\":11327:11354  amounts[amounts.length - 1] */\n      dup2\n      mload\n      dup2\n      lt\n      tag_338\n      jumpi\n      invalid\n    tag_338:\n      0x20\n      mul\n      0x20\n      add\n      add\n      mload\n        /* \"UniswapV2Router02.sol\":11327:11370  amounts[amounts.length - 1] >= amountOutMin */\n      lt\n      iszero\n        /* \"UniswapV2Router02.sol\":11319:11418  require(amounts[amounts.length - 1] >= amountOutMin, 'UniswapV2Router: INSUFFICIENT_OUTPUT_AMOUNT') */\n      tag_339\n      jumpi\n      mload(0x40)\n      shl(0xe5, 0x461bcd)\n      dup2\n      mstore\n      0x04\n      add\n      dup1\n      dup1\n      0x20\n      add\n      dup3\n      dup2\n      sub\n      dup3\n      mstore\n      0x2b\n      dup2\n      mstore\n      0x20\n      add\n      dup1\n      data_d4ea67bea551891ab36be726b8e631181246034dffcfd5c0bbfad1e9d1729432\n      0x2b\n      swap2\n      codecopy\n      0x40\n      add\n      swap2\n      pop\n      pop\n      mload(0x40)\n      dup1\n      swap2\n      sub\n      swap1\n      revert\n    tag_339:\n        /* \"UniswapV2Router02.sol\":11435:11439  WETH */\n      immutable(\"0x8f59e018e114ef4f0f13f738daa411333c6421e3f33ae68ce5c638756a827d85\")\n      sub(shl(0xa0, 0x01), 0x01)\n        /* \"UniswapV2Router02.sol\":11429:11448  IWETH(WETH).deposit */\n      and\n      0xd0e30db0\n        /* \"UniswapV2Router02.sol\":11456:11463  amounts */\n      dup4\n        /* \"UniswapV2Router02.sol\":11464:11465  0 */\n      0x00\n        /* \"UniswapV2Router02.sol\":11456:11466  amounts[0] */\n      dup2\n      mload\n      dup2\n      lt\n      tag_340\n      jumpi\n      invalid\n    tag_340:\n      0x20\n      mul\n      0x20\n      add\n      add\n      mload\n        /* \"UniswapV2Router02.sol\":11429:11469  IWETH(WETH).deposit{value: amounts[0]}() */\n      mload(0x40)\n      dup3\n      0xffffffff\n      and\n      0xe0\n      shl\n      dup2\n      mstore\n      0x04\n      add\n      0x00\n      mload(0x40)\n      dup1\n      dup4\n      sub\n      dup2\n      dup6\n      dup9\n      dup1\n      extcodesize\n      iszero\n      dup1\n      iszero\n      tag_341\n      jumpi\n      0x00\n      dup1\n      revert\n    tag_341:\n      pop\n      gas\n      call\n      iszero\n      dup1\n      iszero\n      tag_343\n      jumpi\n      returndatasize\n      0x00\n      dup1\n      returndatacopy\n      revert(0x00, returndatasize)\n    tag_343:\n      pop\n      pop\n      pop\n      pop\n      pop\n        /* \"UniswapV2Router02.sol\":11493:11497  WETH */\n      immutable(\"0x8f59e018e114ef4f0f13f738daa411333c6421e3f33ae68ce5c638756a827d85\")\n      sub(shl(0xa0, 0x01), 0x01)\n        /* \"UniswapV2Router02.sol\":11487:11507  IWETH(WETH).transfer */\n      and\n      0xa9059cbb\n        /* \"UniswapV2Router02.sol\":11508:11559  UniswapV2Library.pairFor(factory, path[0], path[1]) */\n      tag_344\n        /* \"UniswapV2Router02.sol\":11533:11540  factory */\n      immutable(\"0xb4bf3508f2fd7bb126e7af9e4fe31dbb3cdf386df5936668ea4d8292a4a1b188\")\n        /* \"UniswapV2Router02.sol\":11542:11546  path */\n      dup10\n      dup10\n        /* \"UniswapV2Router02.sol\":11547:11548  0 */\n      0x00\n        /* \"UniswapV2Router02.sol\":11542:11549  path[0] */\n      dup2\n      dup2\n      lt\n      tag_295\n      jumpi\n      invalid\n        /* \"UniswapV2Router02.sol\":11508:11559  UniswapV2Library.pairFor(factory, path[0], path[1]) */\n    tag_344:\n        /* \"UniswapV2Router02.sol\":11561:11568  amounts */\n      dup5\n        /* \"UniswapV2Router02.sol\":11569:11570  0 */\n      0x00\n        /* \"UniswapV2Router02.sol\":11561:11571  amounts[0] */\n      dup2\n      mload\n      dup2\n      lt\n      tag_347\n      jumpi\n      invalid\n    tag_347:\n      0x20\n      mul\n      0x20\n      add\n      add\n      mload\n        /* \"UniswapV2Router02.sol\":11487:11572  IWETH(WETH).transfer(UniswapV2Library.pairFor(factory, path[0], path[1]), amounts[0]) */\n      mload(0x40)\n      dup4\n      0xffffffff\n      and\n      0xe0\n      shl\n      dup2\n      mstore\n      0x04\n      add\n      dup1\n      dup4\n      sub(shl(0xa0, 0x01), 0x01)\n      and\n      dup2\n      mstore\n      0x20\n      add\n      dup3\n      dup2\n      mstore\n      0x20\n      add\n      swap3\n      pop\n      pop\n      pop\n      0x20\n      mload(0x40)\n      dup1\n      dup4\n      sub\n      dup2\n      0x00\n      dup8\n      dup1\n      extcodesize\n      iszero\n      dup1\n      iszero\n      tag_348\n      jumpi\n      0x00\n      dup1\n      revert\n    tag_348:\n      pop\n      gas\n      call\n      iszero\n      dup1\n      iszero\n      tag_350\n      jumpi\n      returndatasize\n      0x00\n      dup1\n      returndatacopy\n      revert(0x00, returndatasize)\n    tag_350:\n      pop\n      pop\n      pop\n      pop\n      mload(0x40)\n      returndatasize\n      0x20\n      dup2\n      lt\n      iszero\n      tag_351\n      jumpi\n      0x00\n      dup1\n      revert\n    tag_351:\n      pop\n      mload\n        /* \"UniswapV2Router02.sol\":11480:11573  assert(IWETH(WETH).transfer(UniswapV2Library.pairFor(factory, path[0], path[1]), amounts[0])) */\n      tag_352\n      jumpi\n      invalid\n    tag_352:\n        /* \"UniswapV2Router02.sol\":11584:11608  _swap(amounts, path, to) */\n      tag_353\n        /* \"UniswapV2Router02.sol\":11590:11597  amounts */\n      dup3\n        /* \"UniswapV2Router02.sol\":11599:11603  path */\n      dup8\n      dup8\n        /* \"UniswapV2Router02.sol\":11584:11608  _swap(amounts, path, to) */\n      dup1\n      dup1\n      0x20\n      mul\n      0x20\n      add\n      mload(0x40)\n      swap1\n      dup2\n      add\n      0x40\n      mstore\n      dup1\n      swap4\n      swap3\n      swap2\n      swap1\n      dup2\n      dup2\n      mstore\n      0x20\n      add\n      dup4\n      dup4\n      0x20\n      mul\n      dup1\n      dup3\n      dup5\n      calldatacopy\n      0x00\n      swap3\n      add\n      swap2\n      swap1\n      swap2\n      mstore\n      pop\n        /* \"UniswapV2Router02.sol\":11605:11607  to */\n      dup10\n      swap3\n      pop\n        /* \"UniswapV2Router02.sol\":11584:11589  _swap */\n      tag_228\n      swap2\n      pop\n      pop\n        /* \"UniswapV2Router02.sol\":11584:11608  _swap(amounts, path, to) */\n      jump\t// in\n    tag_353:\n        /* \"UniswapV2Router02.sol\":10935:11616  function swapExactETHForTokens(\r... */\n      pop\n      swap6\n      swap5\n      pop\n      pop\n      pop\n      pop\n      pop\n      jump\t// out\n        /* \"UniswapV2Router02.sol\":18502:18747  function getAmountIn(\r... */\n    tag_124:\n        /* \"UniswapV2Router02.sol\":18644:18657  uint amountIn */\n      0x00\n        /* \"UniswapV2Router02.sol\":18677:18739  UniswapV2Library.getAmountIn(amountOut, reserveIn, reserveOut) */\n      tag_208\n        /* \"UniswapV2Router02.sol\":18706:18715  amountOut */\n      dup5\n        /* \"UniswapV2Router02.sol\":18717:18726  reserveIn */\n      dup5\n        /* \"UniswapV2Router02.sol\":18728:18738  reserveOut */\n      dup5\n        /* \"UniswapV2Router02.sol\":18677:18705  UniswapV2Library.getAmountIn */\n      tag_356\n        /* \"UniswapV2Router02.sol\":18677:18739  UniswapV2Library.getAmountIn(amountOut, reserveIn, reserveOut) */\n      jump\t// in\n        /* \"UniswapV2Router02.sol\":10282:10927  function swapTokensForExactTokens(\r... */\n    tag_131:\n        /* \"UniswapV2Router02.sol\":10506:10527  uint[] memory amounts */\n      0x60\n        /* \"UniswapV2Router02.sol\":10487:10495  deadline */\n      dup2\n        /* \"UniswapV2Router02.sol\":673:688  block.timestamp */\n      timestamp\n        /* \"UniswapV2Router02.sol\":661:669  deadline */\n      dup2\n        /* \"UniswapV2Router02.sol\":661:688  deadline >= block.timestamp */\n      lt\n      iszero\n        /* \"UniswapV2Router02.sol\":653:717  require(deadline >= block.timestamp, 'UniswapV2Router: EXPIRED') */\n      tag_358\n      jumpi\n      0x40\n      dup1\n      mload\n      shl(0xe5, 0x461bcd)\n      dup2\n      mstore\n      0x20\n      0x04\n      dup3\n      add\n      mstore\n      0x18\n      0x24\n      dup3\n      add\n      mstore\n      0x00\n      dup1\n      mload\n      0x20\n      data_ee5734acb032ffb1bbaf889d52ccf9fbd1ce0f1ae12bee2c46068d51b910e2c5\n      dup4\n      codecopy\n      dup2\n      mload\n      swap2\n      mstore\n      0x44\n      dup3\n      add\n      mstore\n      swap1\n      mload\n      swap1\n      dup2\n      swap1\n      sub\n      0x64\n      add\n      swap1\n      revert\n    tag_358:\n        /* \"UniswapV2Router02.sol\":10550:10605  UniswapV2Library.getAmountsIn(factory, amountOut, path) */\n      tag_360\n        /* \"UniswapV2Router02.sol\":10580:10587  factory */\n      immutable(\"0xb4bf3508f2fd7bb126e7af9e4fe31dbb3cdf386df5936668ea4d8292a4a1b188\")\n        /* \"UniswapV2Router02.sol\":10589:10598  amountOut */\n      dup10\n        /* \"UniswapV2Router02.sol\":10600:10604  path */\n      dup9\n      dup9\n        /* \"UniswapV2Router02.sol\":10550:10605  UniswapV2Library.getAmountsIn(factory, amountOut, path) */\n      dup1\n      dup1\n      0x20\n      mul\n      0x20\n      add\n      mload(0x40)\n      swap1\n      dup2\n      add\n      0x40\n      mstore\n      dup1\n      swap4\n      swap3\n      swap2\n      swap1\n      dup2\n      dup2\n      mstore\n      0x20\n      add\n      dup4\n      dup4\n      0x20\n      mul\n      dup1\n      dup3\n      dup5\n      calldatacopy\n      0x00\n      swap3\n      add\n      swap2\n      swap1\n      swap2\n      mstore\n      pop\n        /* \"UniswapV2Router02.sol\":10550:10579  UniswapV2Library.getAmountsIn */\n      tag_237\n      swap3\n      pop\n      pop\n      pop\n        /* \"UniswapV2Router02.sol\":10550:10605  UniswapV2Library.getAmountsIn(factory, amountOut, path) */\n      jump\t// in\n    tag_360:\n        /* \"UniswapV2Router02.sol\":10540:10605  amounts = UniswapV2Library.getAmountsIn(factory, amountOut, path) */\n      swap2\n      pop\n        /* \"UniswapV2Router02.sol\":10638:10649  amountInMax */\n      dup7\n        /* \"UniswapV2Router02.sol\":10624:10631  amounts */\n      dup3\n        /* \"UniswapV2Router02.sol\":10632:10633  0 */\n      0x00\n        /* \"UniswapV2Router02.sol\":10624:10634  amounts[0] */\n      dup2\n      mload\n      dup2\n      lt\n      tag_361\n      jumpi\n      invalid\n    tag_361:\n      0x20\n      mul\n      0x20\n      add\n      add\n      mload\n        /* \"UniswapV2Router02.sol\":10624:10649  amounts[0] <= amountInMax */\n      gt\n      iszero\n        /* \"UniswapV2Router02.sol\":10616:10693  require(amounts[0] <= amountInMax, 'UniswapV2Router: EXCESSIVE_INPUT_AMOUNT') */\n      tag_252\n      jumpi\n      mload(0x40)\n      shl(0xe5, 0x461bcd)\n      dup2\n      mstore\n      0x04\n      add\n      dup1\n      dup1\n      0x20\n      add\n      dup3\n      dup2\n      sub\n      dup3\n      mstore\n      0x27\n      dup2\n      mstore\n      0x20\n      add\n      dup1\n      data_bb18004cd22eaad7ea393d184ea6ac1df1428db36bb6fbff8af486232d68ae2c\n      0x27\n      swap2\n      codecopy\n      0x40\n      add\n      swap2\n      pop\n      pop\n      mload(0x40)\n      dup1\n      swap2\n      sub\n      swap1\n      revert\n        /* \"UniswapV2Router02.sol\":19322:19433  function setAdminFee(uint256 _adminFee) public returns (uint256) {\r... */\n    tag_138:\n        /* \"UniswapV2Router02.sol\":19378:19385  uint256 */\n      0x00\n        /* \"UniswapV2Router02.sol\":19405:19425  adminFee = _adminFee */\n      dup2\n      swap1\n      sstore\n      swap1\n        /* \"UniswapV2Router02.sol\":19322:19433  function setAdminFee(uint256 _adminFee) public returns (uint256) {\r... */\n      jump\t// out\n        /* \"UniswapV2Router02.sol\":579:602  uint256 public adminFee */\n    tag_141:\n      sload(0x00)\n      dup2\n      jump\t// out\n        /* \"UniswapV2Router02.sol\":534:572  address public immutable override WETH */\n    tag_144:\n      immutable(\"0x8f59e018e114ef4f0f13f738daa411333c6421e3f33ae68ce5c638756a827d85\")\n      dup2\n      jump\t// out\n        /* \"UniswapV2Router02.sol\":18052:18240  function quote(uint amountA, uint reserveA, uint reserveB) public pure virtual override returns (uint amountB) {\r... */\n    tag_148:\n        /* \"UniswapV2Router02.sol\":18149:18161  uint amountB */\n      0x00\n        /* \"UniswapV2Router02.sol\":18181:18232  UniswapV2Library.quote(amountA, reserveA, reserveB) */\n      tag_208\n        /* \"UniswapV2Router02.sol\":18204:18211  amountA */\n      dup5\n        /* \"UniswapV2Router02.sol\":18213:18221  reserveA */\n      dup5\n        /* \"UniswapV2Router02.sol\":18223:18231  reserveB */\n      dup5\n        /* \"UniswapV2Router02.sol\":18181:18203  UniswapV2Library.quote */\n      tag_373\n        /* \"UniswapV2Router02.sol\":18181:18232  UniswapV2Library.quote(amountA, reserveA, reserveB) */\n      jump\t// in\n        /* \"UniswapV2Router02.sol\":7285:7883  function removeLiquidityETHSupportingFeeOnTransferTokens(\r... */\n    tag_152:\n        /* \"UniswapV2Router02.sol\":7551:7565  uint amountETH */\n      0x00\n        /* \"UniswapV2Router02.sol\":7532:7540  deadline */\n      dup2\n        /* \"UniswapV2Router02.sol\":673:688  block.timestamp */\n      timestamp\n        /* \"UniswapV2Router02.sol\":661:669  deadline */\n      dup2\n        /* \"UniswapV2Router02.sol\":661:688  deadline >= block.timestamp */\n      lt\n      iszero\n        /* \"UniswapV2Router02.sol\":653:717  require(deadline >= block.timestamp, 'UniswapV2Router: EXPIRED') */\n      tag_375\n      jumpi\n      0x40\n      dup1\n      mload\n      shl(0xe5, 0x461bcd)\n      dup2\n      mstore\n      0x20\n      0x04\n      dup3\n      add\n      mstore\n      0x18\n      0x24\n      dup3\n      add\n      mstore\n      0x00\n      dup1\n      mload\n      0x20\n      data_ee5734acb032ffb1bbaf889d52ccf9fbd1ce0f1ae12bee2c46068d51b910e2c5\n      dup4\n      codecopy\n      dup2\n      mload\n      swap2\n      mstore\n      0x44\n      dup3\n      add\n      mstore\n      swap1\n      mload\n      swap1\n      dup2\n      swap1\n      sub\n      0x64\n      add\n      swap1\n      revert\n    tag_375:\n        /* \"UniswapV2Router02.sol\":7594:7688  removeLiquidity(token, WETH, liquidity, amountTokenMin, amountETHMin, address(this), deadline) */\n      tag_377\n        /* \"UniswapV2Router02.sol\":7610:7615  token */\n      dup9\n        /* \"UniswapV2Router02.sol\":7617:7621  WETH */\n      immutable(\"0x8f59e018e114ef4f0f13f738daa411333c6421e3f33ae68ce5c638756a827d85\")\n        /* \"UniswapV2Router02.sol\":7623:7632  liquidity */\n      dup10\n        /* \"UniswapV2Router02.sol\":7634:7648  amountTokenMin */\n      dup10\n        /* \"UniswapV2Router02.sol\":7650:7662  amountETHMin */\n      dup10\n        /* \"UniswapV2Router02.sol\":7672:7676  this */\n      address\n        /* \"UniswapV2Router02.sol\":7679:7687  deadline */\n      dup10\n        /* \"UniswapV2Router02.sol\":7594:7609  removeLiquidity */\n      tag_162\n        /* \"UniswapV2Router02.sol\":7594:7688  removeLiquidity(token, WETH, liquidity, amountTokenMin, amountETHMin, address(this), deadline) */\n      jump\t// in\n    tag_377:\n        /* \"UniswapV2Router02.sol\":7578:7688  (, amountETH) = removeLiquidity(token, WETH, liquidity, amountTokenMin, amountETHMin, address(this), deadline) */\n      swap1\n      pop\n      dup1\n      swap3\n      pop\n      pop\n        /* \"UniswapV2Router02.sol\":7699:7777  TransferHelper.safeTransfer(token, to, IERC20(token).balanceOf(address(this))) */\n      tag_378\n        /* \"UniswapV2Router02.sol\":7727:7732  token */\n      dup9\n        /* \"UniswapV2Router02.sol\":7734:7736  to */\n      dup6\n        /* \"UniswapV2Router02.sol\":7745:7750  token */\n      dup11\n      sub(shl(0xa0, 0x01), 0x01)\n        /* \"UniswapV2Router02.sol\":7738:7761  IERC20(token).balanceOf */\n      and\n      0x70a08231\n        /* \"UniswapV2Router02.sol\":7770:7774  this */\n      address\n        /* \"UniswapV2Router02.sol\":7738:7776  IERC20(token).balanceOf(address(this)) */\n      mload(0x40)\n      dup3\n      0xffffffff\n      and\n      0xe0\n      shl\n      dup2\n      mstore\n      0x04\n      add\n      dup1\n      dup3\n      sub(shl(0xa0, 0x01), 0x01)\n      and\n      dup2\n      mstore\n      0x20\n      add\n      swap2\n      pop\n      pop\n      0x20\n      mload(0x40)\n      dup1\n      dup4\n      sub\n      dup2\n      dup7\n      dup1\n      extcodesize\n      iszero\n      dup1\n      iszero\n      tag_379\n      jumpi\n      0x00\n      dup1\n      revert\n    tag_379:\n      pop\n      gas\n      staticcall\n      iszero\n      dup1\n      iszero\n      tag_381\n      jumpi\n      returndatasize\n      0x00\n      dup1\n      returndatacopy\n      revert(0x00, returndatasize)\n    tag_381:\n      pop\n      pop\n      pop\n      pop\n      mload(0x40)\n      returndatasize\n      0x20\n      dup2\n      lt\n      iszero\n      tag_382\n      jumpi\n      0x00\n      dup1\n      revert\n    tag_382:\n      pop\n      mload\n        /* \"UniswapV2Router02.sol\":7699:7726  TransferHelper.safeTransfer */\n      tag_201\n        /* \"UniswapV2Router02.sol\":7699:7777  TransferHelper.safeTransfer(token, to, IERC20(token).balanceOf(address(this))) */\n      jump\t// in\n    tag_378:\n        /* \"UniswapV2Router02.sol\":7794:7798  WETH */\n      immutable(\"0x8f59e018e114ef4f0f13f738daa411333c6421e3f33ae68ce5c638756a827d85\")\n      sub(shl(0xa0, 0x01), 0x01)\n        /* \"UniswapV2Router02.sol\":7788:7808  IWETH(WETH).withdraw */\n      and\n      0x2e1a7d4d\n        /* \"UniswapV2Router02.sol\":7809:7818  amountETH */\n      dup4\n        /* \"UniswapV2Router02.sol\":7788:7819  IWETH(WETH).withdraw(amountETH) */\n      mload(0x40)\n      dup3\n      0xffffffff\n      and\n      0xe0\n      shl\n      dup2\n      mstore\n      0x04\n      add\n      dup1\n      dup3\n      dup2\n      mstore\n      0x20\n      add\n      swap2\n      pop\n      pop\n      0x00\n      mload(0x40)\n      dup1\n      dup4\n      sub\n      dup2\n      0x00\n      dup8\n      dup1\n      extcodesize\n      iszero\n      dup1\n      iszero\n      tag_383\n      jumpi\n      0x00\n      dup1\n      revert\n    tag_383:\n      pop\n      gas\n      call\n      iszero\n      dup1\n      iszero\n      tag_385\n      jumpi\n      returndatasize\n      0x00\n      dup1\n      returndatacopy\n      revert(0x00, returndatasize)\n    tag_385:\n      pop\n      pop\n      pop\n      pop\n        /* \"UniswapV2Router02.sol\":7830:7875  TransferHelper.safeTransferETH(to, amountETH) */\n      tag_233\n        /* \"UniswapV2Router02.sol\":7861:7863  to */\n      dup5\n        /* \"UniswapV2Router02.sol\":7865:7874  amountETH */\n      dup4\n        /* \"UniswapV2Router02.sol\":7830:7860  TransferHelper.safeTransferETH */\n      tag_206\n        /* \"UniswapV2Router02.sol\":7830:7875  TransferHelper.safeTransferETH(to, amountETH) */\n      jump\t// in\n        /* \"UniswapV2Router02.sol\":16359:17159  function swapExactETHForTokensSupportingFeeOnTransferTokens(\r... */\n    tag_158:\n        /* \"UniswapV2Router02.sol\":16574:16582  deadline */\n      dup1\n        /* \"UniswapV2Router02.sol\":673:688  block.timestamp */\n      timestamp\n        /* \"UniswapV2Router02.sol\":661:669  deadline */\n      dup2\n        /* \"UniswapV2Router02.sol\":661:688  deadline >= block.timestamp */\n      lt\n      iszero\n        /* \"UniswapV2Router02.sol\":653:717  require(deadline >= block.timestamp, 'UniswapV2Router: EXPIRED') */\n      tag_388\n      jumpi\n      0x40\n      dup1\n      mload\n      shl(0xe5, 0x461bcd)\n      dup2\n      mstore\n      0x20\n      0x04\n      dup3\n      add\n      mstore\n      0x18\n      0x24\n      dup3\n      add\n      mstore\n      0x00\n      dup1\n      mload\n      0x20\n      data_ee5734acb032ffb1bbaf889d52ccf9fbd1ce0f1ae12bee2c46068d51b910e2c5\n      dup4\n      codecopy\n      dup2\n      mload\n      swap2\n      mstore\n      0x44\n      dup3\n      add\n      mstore\n      swap1\n      mload\n      swap1\n      dup2\n      swap1\n      sub\n      0x64\n      add\n      swap1\n      revert\n    tag_388:\n        /* \"UniswapV2Router02.sol\":16614:16618  WETH */\n      immutable(\"0x8f59e018e114ef4f0f13f738daa411333c6421e3f33ae68ce5c638756a827d85\")\n      sub(shl(0xa0, 0x01), 0x01)\n        /* \"UniswapV2Router02.sol\":16603:16618  path[0] == WETH */\n      and\n        /* \"UniswapV2Router02.sol\":16603:16607  path */\n      dup6\n      dup6\n        /* \"UniswapV2Router02.sol\":16608:16609  0 */\n      0x00\n        /* \"UniswapV2Router02.sol\":16603:16610  path[0] */\n      dup2\n      dup2\n      lt\n      tag_390\n      jumpi\n      invalid\n    tag_390:\n      swap1\n      pop\n      0x20\n      mul\n      add\n      calldataload\n      sub(shl(0xa0, 0x01), 0x01)\n      and\n      sub(shl(0xa0, 0x01), 0x01)\n        /* \"UniswapV2Router02.sol\":16603:16618  path[0] == WETH */\n      and\n      eq\n        /* \"UniswapV2Router02.sol\":16595:16652  require(path[0] == WETH, 'UniswapV2Router: INVALID_PATH') */\n      tag_391\n      jumpi\n      0x40\n      dup1\n      mload\n      shl(0xe5, 0x461bcd)\n      dup2\n      mstore\n      0x20\n      0x04\n      dup3\n      add\n      mstore\n      0x1d\n      0x24\n      dup3\n      add\n      mstore\n      0x00\n      dup1\n      mload\n      0x20\n      data_c80e789ddaeb930b746bbbcb3afe8331d926679fd96f65d8c7468b735c0a14f2\n      dup4\n      codecopy\n      dup2\n      mload\n      swap2\n      mstore\n      0x44\n      dup3\n      add\n      mstore\n      swap1\n      mload\n      swap1\n      dup2\n      swap1\n      sub\n      0x64\n      add\n      swap1\n      revert\n    tag_391:\n        /* \"UniswapV2Router02.sol\":16663:16676  uint amountIn */\n      0x00\n        /* \"UniswapV2Router02.sol\":16679:16688  msg.value */\n      callvalue\n        /* \"UniswapV2Router02.sol\":16663:16688  uint amountIn = msg.value */\n      swap1\n      pop\n        /* \"UniswapV2Router02.sol\":16705:16709  WETH */\n      immutable(\"0x8f59e018e114ef4f0f13f738daa411333c6421e3f33ae68ce5c638756a827d85\")\n      sub(shl(0xa0, 0x01), 0x01)\n        /* \"UniswapV2Router02.sol\":16699:16718  IWETH(WETH).deposit */\n      and\n      0xd0e30db0\n        /* \"UniswapV2Router02.sol\":16726:16734  amountIn */\n      dup3\n        /* \"UniswapV2Router02.sol\":16699:16737  IWETH(WETH).deposit{value: amountIn}() */\n      mload(0x40)\n      dup3\n      0xffffffff\n      and\n      0xe0\n      shl\n      dup2\n      mstore\n      0x04\n      add\n      0x00\n      mload(0x40)\n      dup1\n      dup4\n      sub\n      dup2\n      dup6\n      dup9\n      dup1\n      extcodesize\n      iszero\n      dup1\n      iszero\n      tag_392\n      jumpi\n      0x00\n      dup1\n      revert\n    tag_392:\n      pop\n      gas\n      call\n      iszero\n      dup1\n      iszero\n      tag_394\n      jumpi\n      returndatasize\n      0x00\n      dup1\n      returndatacopy\n      revert(0x00, returndatasize)\n    tag_394:\n      pop\n      pop\n      pop\n      pop\n      pop\n        /* \"UniswapV2Router02.sol\":16761:16765  WETH */\n      immutable(\"0x8f59e018e114ef4f0f13f738daa411333c6421e3f33ae68ce5c638756a827d85\")\n      sub(shl(0xa0, 0x01), 0x01)\n        /* \"UniswapV2Router02.sol\":16755:16775  IWETH(WETH).transfer */\n      and\n      0xa9059cbb\n        /* \"UniswapV2Router02.sol\":16776:16827  UniswapV2Library.pairFor(factory, path[0], path[1]) */\n      tag_395\n        /* \"UniswapV2Router02.sol\":16801:16808  factory */\n      immutable(\"0xb4bf3508f2fd7bb126e7af9e4fe31dbb3cdf386df5936668ea4d8292a4a1b188\")\n        /* \"UniswapV2Router02.sol\":16810:16814  path */\n      dup10\n      dup10\n        /* \"UniswapV2Router02.sol\":16815:16816  0 */\n      0x00\n        /* \"UniswapV2Router02.sol\":16810:16817  path[0] */\n      dup2\n      dup2\n      lt\n      tag_295\n      jumpi\n      invalid\n        /* \"UniswapV2Router02.sol\":16776:16827  UniswapV2Library.pairFor(factory, path[0], path[1]) */\n    tag_395:\n        /* \"UniswapV2Router02.sol\":16829:16837  amountIn */\n      dup4\n        /* \"UniswapV2Router02.sol\":16755:16838  IWETH(WETH).transfer(UniswapV2Library.pairFor(factory, path[0], path[1]), amountIn) */\n      mload(0x40)\n      dup4\n      0xffffffff\n      and\n      0xe0\n      shl\n      dup2\n      mstore\n      0x04\n      add\n      dup1\n      dup4\n      sub(shl(0xa0, 0x01), 0x01)\n      and\n      dup2\n      mstore\n      0x20\n      add\n      dup3\n      dup2\n      mstore\n      0x20\n      add\n      swap3\n      pop\n      pop\n      pop\n      0x20\n      mload(0x40)\n      dup1\n      dup4\n      sub\n      dup2\n      0x00\n      dup8\n      dup1\n      extcodesize\n      iszero\n      dup1\n      iszero\n      tag_398\n      jumpi\n      0x00\n      dup1\n      revert\n    tag_398:\n      pop\n      gas\n      call\n      iszero\n      dup1\n      iszero\n      tag_400\n      jumpi\n      returndatasize\n      0x00\n      dup1\n      returndatacopy\n      revert(0x00, returndatasize)\n    tag_400:\n      pop\n      pop\n      pop\n      pop\n      mload(0x40)\n      returndatasize\n      0x20\n      dup2\n      lt\n      iszero\n      tag_401\n      jumpi\n      0x00\n      dup1\n      revert\n    tag_401:\n      pop\n      mload\n        /* \"UniswapV2Router02.sol\":16748:16839  assert(IWETH(WETH).transfer(UniswapV2Library.pairFor(factory, path[0], path[1]), amountIn)) */\n      tag_402\n      jumpi\n      invalid\n    tag_402:\n        /* \"UniswapV2Router02.sol\":16850:16868  uint balanceBefore */\n      0x00\n        /* \"UniswapV2Router02.sol\":16878:16882  path */\n      dup7\n      dup7\n      not(0x00)\n        /* \"UniswapV2Router02.sol\":16883:16898  path.length - 1 */\n      dup2\n      add\n        /* \"UniswapV2Router02.sol\":16878:16899  path[path.length - 1] */\n      dup2\n      dup2\n      lt\n      tag_403\n      jumpi\n      invalid\n    tag_403:\n      swap1\n      pop\n      0x20\n      mul\n      add\n      calldataload\n      sub(shl(0xa0, 0x01), 0x01)\n      and\n      sub(shl(0xa0, 0x01), 0x01)\n        /* \"UniswapV2Router02.sol\":16871:16910  IERC20(path[path.length - 1]).balanceOf */\n      and\n      0x70a08231\n        /* \"UniswapV2Router02.sol\":16911:16913  to */\n      dup7\n        /* \"UniswapV2Router02.sol\":16871:16914  IERC20(path[path.length - 1]).balanceOf(to) */\n      mload(0x40)\n      dup3\n      0xffffffff\n      and\n      0xe0\n      shl\n      dup2\n      mstore\n      0x04\n      add\n      dup1\n      dup3\n      sub(shl(0xa0, 0x01), 0x01)\n      and\n      dup2\n      mstore\n      0x20\n      add\n      swap2\n      pop\n      pop\n      0x20\n      mload(0x40)\n      dup1\n      dup4\n      sub\n      dup2\n      dup7\n      dup1\n      extcodesize\n      iszero\n      dup1\n      iszero\n      tag_404\n      jumpi\n      0x00\n      dup1\n      revert\n    tag_404:\n      pop\n      gas\n      staticcall\n      iszero\n      dup1\n      iszero\n      tag_406\n      jumpi\n      returndatasize\n      0x00\n      dup1\n      returndatacopy\n      revert(0x00, returndatasize)\n    tag_406:\n      pop\n      pop\n      pop\n      pop\n      mload(0x40)\n      returndatasize\n      0x20\n      dup2\n      lt\n      iszero\n      tag_407\n      jumpi\n      0x00\n      dup1\n      revert\n    tag_407:\n      pop\n      mload\n        /* \"UniswapV2Router02.sol\":16925:16969  _swapSupportingFeeOnTransferTokens(path, to) */\n      0x40\n      dup1\n      mload\n        /* \"UniswapV2Router02.sol\":16871:16914  IERC20(path[path.length - 1]).balanceOf(to) */\n      0x20\n        /* \"UniswapV2Router02.sol\":16925:16969  _swapSupportingFeeOnTransferTokens(path, to) */\n      dup10\n      dup2\n      mul\n      dup3\n      dup2\n      add\n      dup3\n      add\n      swap1\n      swap4\n      mstore\n      dup10\n      dup3\n      mstore\n        /* \"UniswapV2Router02.sol\":16871:16914  IERC20(path[path.length - 1]).balanceOf(to) */\n      swap3\n      swap4\n      pop\n        /* \"UniswapV2Router02.sol\":16925:16969  _swapSupportingFeeOnTransferTokens(path, to) */\n      tag_408\n      swap3\n      swap1\n      swap2\n        /* \"UniswapV2Router02.sol\":16960:16964  path */\n      dup11\n      swap2\n      dup11\n      swap2\n      dup3\n      swap2\n        /* \"UniswapV2Router02.sol\":16925:16969  _swapSupportingFeeOnTransferTokens(path, to) */\n      dup6\n      add\n      swap1\n        /* \"UniswapV2Router02.sol\":16960:16964  path */\n      dup5\n      swap1\n        /* \"UniswapV2Router02.sol\":16925:16969  _swapSupportingFeeOnTransferTokens(path, to) */\n      dup1\n        /* \"UniswapV2Router02.sol\":16960:16964  path */\n      dup3\n        /* \"UniswapV2Router02.sol\":16925:16969  _swapSupportingFeeOnTransferTokens(path, to) */\n      dup5\n      calldatacopy\n      0x00\n      swap3\n      add\n      swap2\n      swap1\n      swap2\n      mstore\n      pop\n        /* \"UniswapV2Router02.sol\":16966:16968  to */\n      dup10\n      swap3\n      pop\n        /* \"UniswapV2Router02.sol\":16925:16959  _swapSupportingFeeOnTransferTokens */\n      tag_303\n      swap2\n      pop\n      pop\n        /* \"UniswapV2Router02.sol\":16925:16969  _swapSupportingFeeOnTransferTokens(path, to) */\n      jump\t// in\n    tag_408:\n        /* \"UniswapV2Router02.sol\":17068:17080  amountOutMin */\n      dup8\n        /* \"UniswapV2Router02.sol\":17002:17064  IERC20(path[path.length - 1]).balanceOf(to).sub(balanceBefore) */\n      tag_304\n        /* \"UniswapV2Router02.sol\":17050:17063  balanceBefore */\n      dup3\n        /* \"UniswapV2Router02.sol\":17009:17013  path */\n      dup10\n      dup10\n      not(0x00)\n        /* \"UniswapV2Router02.sol\":17014:17029  path.length - 1 */\n      dup2\n      add\n        /* \"UniswapV2Router02.sol\":17009:17030  path[path.length - 1] */\n      dup2\n      dup2\n      lt\n      tag_410\n      jumpi\n      invalid\n    tag_410:\n      swap1\n      pop\n      0x20\n      mul\n      add\n      calldataload\n      sub(shl(0xa0, 0x01), 0x01)\n      and\n      sub(shl(0xa0, 0x01), 0x01)\n        /* \"UniswapV2Router02.sol\":17002:17041  IERC20(path[path.length - 1]).balanceOf */\n      and\n      0x70a08231\n        /* \"UniswapV2Router02.sol\":17042:17044  to */\n      dup10\n        /* \"UniswapV2Router02.sol\":17002:17045  IERC20(path[path.length - 1]).balanceOf(to) */\n      mload(0x40)\n      dup3\n      0xffffffff\n      and\n      0xe0\n      shl\n      dup2\n      mstore\n      0x04\n      add\n      dup1\n      dup3\n      sub(shl(0xa0, 0x01), 0x01)\n      and\n      dup2\n      mstore\n      0x20\n      add\n      swap2\n      pop\n      pop\n      0x20\n      mload(0x40)\n      dup1\n      dup4\n      sub\n      dup2\n      dup7\n      dup1\n      extcodesize\n      iszero\n      dup1\n      iszero\n      tag_306\n      jumpi\n      0x00\n      dup1\n      revert\n        /* \"UniswapV2Router02.sol\":4243:5109  function removeLiquidity(\r... */\n    tag_162:\n        /* \"UniswapV2Router02.sol\":4497:4509  uint amountA */\n      0x00\n        /* \"UniswapV2Router02.sol\":4511:4523  uint amountB */\n      dup1\n        /* \"UniswapV2Router02.sol\":4478:4486  deadline */\n      dup3\n        /* \"UniswapV2Router02.sol\":673:688  block.timestamp */\n      timestamp\n        /* \"UniswapV2Router02.sol\":661:669  deadline */\n      dup2\n        /* \"UniswapV2Router02.sol\":661:688  deadline >= block.timestamp */\n      lt\n      iszero\n        /* \"UniswapV2Router02.sol\":653:717  require(deadline >= block.timestamp, 'UniswapV2Router: EXPIRED') */\n      tag_417\n      jumpi\n      0x40\n      dup1\n      mload\n      shl(0xe5, 0x461bcd)\n      dup2\n      mstore\n      0x20\n      0x04\n      dup3\n      add\n      mstore\n      0x18\n      0x24\n      dup3\n      add\n      mstore\n      0x00\n      dup1\n      mload\n      0x20\n      data_ee5734acb032ffb1bbaf889d52ccf9fbd1ce0f1ae12bee2c46068d51b910e2c5\n      dup4\n      codecopy\n      dup2\n      mload\n      swap2\n      mstore\n      0x44\n      dup3\n      add\n      mstore\n      swap1\n      mload\n      swap1\n      dup2\n      swap1\n      sub\n      0x64\n      add\n      swap1\n      revert\n    tag_417:\n        /* \"UniswapV2Router02.sol\":4536:4548  address pair */\n      0x00\n        /* \"UniswapV2Router02.sol\":4551:4600  UniswapV2Library.pairFor(factory, tokenA, tokenB) */\n      tag_419\n        /* \"UniswapV2Router02.sol\":4576:4583  factory */\n      immutable(\"0xb4bf3508f2fd7bb126e7af9e4fe31dbb3cdf386df5936668ea4d8292a4a1b188\")\n        /* \"UniswapV2Router02.sol\":4585:4591  tokenA */\n      dup13\n        /* \"UniswapV2Router02.sol\":4593:4599  tokenB */\n      dup13\n        /* \"UniswapV2Router02.sol\":4551:4575  UniswapV2Library.pairFor */\n      tag_224\n        /* \"UniswapV2Router02.sol\":4551:4600  UniswapV2Library.pairFor(factory, tokenA, tokenB) */\n      jump\t// in\n    tag_419:\n        /* \"UniswapV2Router02.sol\":4611:4673  IUniswapV2Pair(pair).transferFrom(msg.sender, pair, liquidity) */\n      0x40\n      dup1\n      mload\n      shl(0xe0, 0x23b872dd)\n      dup2\n      mstore\n        /* \"UniswapV2Router02.sol\":4645:4655  msg.sender */\n      caller\n        /* \"UniswapV2Router02.sol\":4611:4673  IUniswapV2Pair(pair).transferFrom(msg.sender, pair, liquidity) */\n      0x04\n      dup3\n      add\n      mstore\n      sub(shl(0xa0, 0x01), 0x01)\n        /* \"UniswapV2Router02.sol\":4611:4644  IUniswapV2Pair(pair).transferFrom */\n      dup4\n      and\n        /* \"UniswapV2Router02.sol\":4611:4673  IUniswapV2Pair(pair).transferFrom(msg.sender, pair, liquidity) */\n      0x24\n      dup3\n      add\n      dup2\n      swap1\n      mstore\n      0x44\n      dup3\n      add\n      dup14\n      swap1\n      mstore\n      swap2\n      mload\n        /* \"UniswapV2Router02.sol\":4536:4600  address pair = UniswapV2Library.pairFor(factory, tokenA, tokenB) */\n      swap3\n      swap4\n      pop\n        /* \"UniswapV2Router02.sol\":4611:4644  IUniswapV2Pair(pair).transferFrom */\n      swap1\n      swap2\n      0x23b872dd\n      swap2\n        /* \"UniswapV2Router02.sol\":4611:4673  IUniswapV2Pair(pair).transferFrom(msg.sender, pair, liquidity) */\n      0x64\n      dup1\n      dup3\n      add\n      swap3\n      0x20\n      swap3\n      swap1\n      swap2\n      swap1\n      dup3\n      swap1\n      sub\n      add\n      dup2\n      0x00\n        /* \"UniswapV2Router02.sol\":4611:4644  IUniswapV2Pair(pair).transferFrom */\n      dup8\n        /* \"UniswapV2Router02.sol\":4611:4673  IUniswapV2Pair(pair).transferFrom(msg.sender, pair, liquidity) */\n      dup1\n      extcodesize\n      iszero\n      dup1\n      iszero\n      tag_420\n      jumpi\n      0x00\n      dup1\n      revert\n    tag_420:\n      pop\n      gas\n      call\n      iszero\n      dup1\n      iszero\n      tag_422\n      jumpi\n      returndatasize\n      0x00\n      dup1\n      returndatacopy\n      revert(0x00, returndatasize)\n    tag_422:\n      pop\n      pop\n      pop\n      pop\n      mload(0x40)\n      returndatasize\n      0x20\n      dup2\n      lt\n      iszero\n      tag_423\n      jumpi\n      0x00\n      dup1\n      revert\n    tag_423:\n      pop\n      pop\n        /* \"UniswapV2Router02.sol\":4741:4770  IUniswapV2Pair(pair).burn(to) */\n      0x40\n      dup1\n      mload\n      shl(0xe2, 0x226bf2d1)\n      dup2\n      mstore\n      sub(shl(0xa0, 0x01), 0x01)\n      dup9\n      dup2\n      and\n      0x04\n      dup4\n      add\n      mstore\n      dup3\n      mload\n        /* \"UniswapV2Router02.sol\":4711:4723  uint amount0 */\n      0x00\n      swap4\n      dup5\n      swap4\n        /* \"UniswapV2Router02.sol\":4741:4766  IUniswapV2Pair(pair).burn */\n      swap3\n      dup7\n      and\n      swap3\n      0x89afcb44\n      swap3\n        /* \"UniswapV2Router02.sol\":4741:4770  IUniswapV2Pair(pair).burn(to) */\n      0x24\n      dup1\n      dup4\n      add\n      swap4\n      swap3\n      dup3\n      swap1\n      sub\n      add\n      dup2\n        /* \"UniswapV2Router02.sol\":4711:4723  uint amount0 */\n      dup8\n        /* \"UniswapV2Router02.sol\":4741:4766  IUniswapV2Pair(pair).burn */\n      dup8\n        /* \"UniswapV2Router02.sol\":4741:4770  IUniswapV2Pair(pair).burn(to) */\n      dup1\n      extcodesize\n      iszero\n      dup1\n      iszero\n      tag_424\n      jumpi\n      0x00\n      dup1\n      revert\n    tag_424:\n      pop\n      gas\n      call\n      iszero\n      dup1\n      iszero\n      tag_426\n      jumpi\n      returndatasize\n      0x00\n      dup1\n      returndatacopy\n      revert(0x00, returndatasize)\n    tag_426:\n      pop\n      pop\n      pop\n      pop\n      mload(0x40)\n      returndatasize\n      0x40\n      dup2\n      lt\n      iszero\n      tag_427\n      jumpi\n      0x00\n      dup1\n      revert\n    tag_427:\n      pop\n      dup1\n      mload\n      0x20\n      swap1\n      swap2\n      add\n      mload\n      swap1\n      swap3\n      pop\n      swap1\n      pop\n        /* \"UniswapV2Router02.sol\":4782:4796  address token0 */\n      0x00\n        /* \"UniswapV2Router02.sol\":4802:4845  UniswapV2Library.sortTokens(tokenA, tokenB) */\n      tag_428\n        /* \"UniswapV2Router02.sol\":4830:4836  tokenA */\n      dup15\n        /* \"UniswapV2Router02.sol\":4838:4844  tokenB */\n      dup15\n        /* \"UniswapV2Router02.sol\":4802:4829  UniswapV2Library.sortTokens */\n      tag_429\n        /* \"UniswapV2Router02.sol\":4802:4845  UniswapV2Library.sortTokens(tokenA, tokenB) */\n      jump\t// in\n    tag_428:\n        /* \"UniswapV2Router02.sol\":4781:4845  (address token0, ) = UniswapV2Library.sortTokens(tokenA, tokenB) */\n      pop\n      swap1\n      pop\n        /* \"UniswapV2Router02.sol\":4887:4893  token0 */\n      dup1\n      sub(shl(0xa0, 0x01), 0x01)\n        /* \"UniswapV2Router02.sol\":4877:4893  tokenA == token0 */\n      and\n        /* \"UniswapV2Router02.sol\":4877:4883  tokenA */\n      dup15\n      sub(shl(0xa0, 0x01), 0x01)\n        /* \"UniswapV2Router02.sol\":4877:4893  tokenA == token0 */\n      and\n      eq\n        /* \"UniswapV2Router02.sol\":4877:4935  tokenA == token0 ? (amount0, amount1) : (amount1, amount0) */\n      tag_430\n      jumpi\n        /* \"UniswapV2Router02.sol\":4918:4925  amount1 */\n      dup2\n        /* \"UniswapV2Router02.sol\":4927:4934  amount0 */\n      dup4\n        /* \"UniswapV2Router02.sol\":4877:4935  tokenA == token0 ? (amount0, amount1) : (amount1, amount0) */\n      jump(tag_431)\n    tag_430:\n        /* \"UniswapV2Router02.sol\":4897:4904  amount0 */\n      dup3\n        /* \"UniswapV2Router02.sol\":4906:4913  amount1 */\n      dup3\n        /* \"UniswapV2Router02.sol\":4877:4935  tokenA == token0 ? (amount0, amount1) : (amount1, amount0) */\n    tag_431:\n        /* \"UniswapV2Router02.sol\":4856:4935  (amountA, amountB) = tokenA == token0 ? (amount0, amount1) : (amount1, amount0) */\n      swap1\n      swap8\n      pop\n      swap6\n      pop\n        /* \"UniswapV2Router02.sol\":4954:4975  amountA >= amountAMin */\n      dup11\n      dup8\n      lt\n      iszero\n        /* \"UniswapV2Router02.sol\":4946:5018  require(amountA >= amountAMin, 'UniswapV2Router: INSUFFICIENT_A_AMOUNT') */\n      tag_432\n      jumpi\n      mload(0x40)\n      shl(0xe5, 0x461bcd)\n      dup2\n      mstore\n      0x04\n      add\n      dup1\n      dup1\n      0x20\n      add\n      dup3\n      dup2\n      sub\n      dup3\n      mstore\n      0x26\n      dup2\n      mstore\n      0x20\n      add\n      dup1\n      data_d1d32edc232bc1da2150d590567c5d6321ade8a80edcd2485e6068d018c7fd67\n      0x26\n      swap2\n      codecopy\n      0x40\n      add\n      swap2\n      pop\n      pop\n      mload(0x40)\n      dup1\n      swap2\n      sub\n      swap1\n      revert\n    tag_432:\n        /* \"UniswapV2Router02.sol\":5048:5058  amountBMin */\n      dup10\n        /* \"UniswapV2Router02.sol\":5037:5044  amountB */\n      dup7\n        /* \"UniswapV2Router02.sol\":5037:5058  amountB >= amountBMin */\n      lt\n      iszero\n        /* \"UniswapV2Router02.sol\":5029:5101  require(amountB >= amountBMin, 'UniswapV2Router: INSUFFICIENT_B_AMOUNT') */\n      tag_433\n      jumpi\n      mload(0x40)\n      shl(0xe5, 0x461bcd)\n      dup2\n      mstore\n      0x04\n      add\n      dup1\n      dup1\n      0x20\n      add\n      dup3\n      dup2\n      sub\n      dup3\n      mstore\n      0x26\n      dup2\n      mstore\n      0x20\n      add\n      dup1\n      data_508673fa99dd55571c7741114b40754785309d1a2171022cd7c5caaae38fc7b6\n      0x26\n      swap2\n      codecopy\n      0x40\n      add\n      swap2\n      pop\n      pop\n      mload(0x40)\n      dup1\n      swap2\n      sub\n      swap1\n      revert\n    tag_433:\n        /* \"UniswapV2Router02.sol\":728:729  _ */\n      pop\n      pop\n      pop\n      pop\n        /* \"UniswapV2Router02.sol\":4243:5109  function removeLiquidity(\r... */\n      pop\n      swap8\n      pop\n      swap8\n      swap6\n      pop\n      pop\n      pop\n      pop\n      pop\n      pop\n      jump\t// out\n        /* \"UniswapV2Router02.sol\":486:527  address public immutable override factory */\n    tag_165:\n      immutable(\"0xb4bf3508f2fd7bb126e7af9e4fe31dbb3cdf386df5936668ea4d8292a4a1b188\")\n      dup2\n      jump\t// out\n        /* \"UniswapV2Router02.sol\":18755:18983  function getAmountsOut(\r... */\n    tag_172:\n        /* \"UniswapV2Router02.sol\":18879:18900  uint[] memory amounts */\n      0x60\n        /* \"UniswapV2Router02.sol\":18920:18975  UniswapV2Library.getAmountsOut(factory, amountIn, path) */\n      tag_236\n        /* \"UniswapV2Router02.sol\":18951:18958  factory */\n      immutable(\"0xb4bf3508f2fd7bb126e7af9e4fe31dbb3cdf386df5936668ea4d8292a4a1b188\")\n        /* \"UniswapV2Router02.sol\":18960:18968  amountIn */\n      dup5\n        /* \"UniswapV2Router02.sol\":18970:18974  path */\n      dup5\n        /* \"UniswapV2Router02.sol\":18920:18950  UniswapV2Library.getAmountsOut */\n      tag_216\n        /* \"UniswapV2Router02.sol\":18920:18975  UniswapV2Library.getAmountsOut(factory, amountIn, path) */\n      jump\t// in\n        /* \"UniswapV2Router02.sol\":6510:7206  function removeLiquidityETHWithPermit(\r... */\n    tag_179:\n        /* \"UniswapV2Router02.sol\":6826:6842  uint amountToken */\n      0x00\n        /* \"UniswapV2Router02.sol\":6844:6858  uint amountETH */\n      dup1\n        /* \"UniswapV2Router02.sol\":6871:6883  address pair */\n      0x00\n        /* \"UniswapV2Router02.sol\":6886:6932  UniswapV2Library.pairFor(factory, token, WETH) */\n      tag_437\n        /* \"UniswapV2Router02.sol\":6911:6918  factory */\n      immutable(\"0xb4bf3508f2fd7bb126e7af9e4fe31dbb3cdf386df5936668ea4d8292a4a1b188\")\n        /* \"UniswapV2Router02.sol\":6920:6925  token */\n      dup15\n        /* \"UniswapV2Router02.sol\":6927:6931  WETH */\n      immutable(\"0x8f59e018e114ef4f0f13f738daa411333c6421e3f33ae68ce5c638756a827d85\")\n        /* \"UniswapV2Router02.sol\":6886:6910  UniswapV2Library.pairFor */\n      tag_224\n        /* \"UniswapV2Router02.sol\":6886:6932  UniswapV2Library.pairFor(factory, token, WETH) */\n      jump\t// in\n    tag_437:\n        /* \"UniswapV2Router02.sol\":6871:6932  address pair = UniswapV2Library.pairFor(factory, token, WETH) */\n      swap1\n      pop\n        /* \"UniswapV2Router02.sol\":6943:6953  uint value */\n      0x00\n        /* \"UniswapV2Router02.sol\":6956:6966  approveMax */\n      dup8\n        /* \"UniswapV2Router02.sol\":6956:6989  approveMax ? uint(-1) : liquidity */\n      tag_438\n      jumpi\n        /* \"UniswapV2Router02.sol\":6980:6989  liquidity */\n      dup13\n        /* \"UniswapV2Router02.sol\":6956:6989  approveMax ? uint(-1) : liquidity */\n      jump(tag_439)\n    tag_438:\n      not(0x00)\n    tag_439:\n        /* \"UniswapV2Router02.sol\":7000:7080  IUniswapV2Pair(pair).permit(msg.sender, address(this), value, deadline, v, r, s) */\n      0x40\n      dup1\n      mload\n      shl(0xe0, 0xd505accf)\n      dup2\n      mstore\n        /* \"UniswapV2Router02.sol\":7028:7038  msg.sender */\n      caller\n        /* \"UniswapV2Router02.sol\":7000:7080  IUniswapV2Pair(pair).permit(msg.sender, address(this), value, deadline, v, r, s) */\n      0x04\n      dup3\n      add\n      mstore\n        /* \"UniswapV2Router02.sol\":7048:7052  this */\n      address\n        /* \"UniswapV2Router02.sol\":7000:7080  IUniswapV2Pair(pair).permit(msg.sender, address(this), value, deadline, v, r, s) */\n      0x24\n      dup3\n      add\n      mstore\n      0x44\n      dup2\n      add\n      dup4\n      swap1\n      mstore\n      0x64\n      dup2\n      add\n      dup13\n      swap1\n      mstore\n      0xff\n      dup11\n      and\n      0x84\n      dup3\n      add\n      mstore\n      0xa4\n      dup2\n      add\n      dup10\n      swap1\n      mstore\n      0xc4\n      dup2\n      add\n      dup9\n      swap1\n      mstore\n      swap1\n      mload\n        /* \"UniswapV2Router02.sol\":6943:6989  uint value = approveMax ? uint(-1) : liquidity */\n      swap2\n      swap3\n      pop\n      sub(shl(0xa0, 0x01), 0x01)\n        /* \"UniswapV2Router02.sol\":7000:7027  IUniswapV2Pair(pair).permit */\n      dup5\n      and\n      swap2\n      0xd505accf\n      swap2\n        /* \"UniswapV2Router02.sol\":7000:7080  IUniswapV2Pair(pair).permit(msg.sender, address(this), value, deadline, v, r, s) */\n      0xe4\n      dup1\n      dup3\n      add\n      swap3\n      0x00\n      swap3\n      swap1\n      swap2\n      swap1\n      dup3\n      swap1\n      sub\n      add\n      dup2\n      dup4\n        /* \"UniswapV2Router02.sol\":7000:7027  IUniswapV2Pair(pair).permit */\n      dup8\n        /* \"UniswapV2Router02.sol\":7000:7080  IUniswapV2Pair(pair).permit(msg.sender, address(this), value, deadline, v, r, s) */\n      dup1\n      extcodesize\n      iszero\n      dup1\n      iszero\n      tag_440\n      jumpi\n      0x00\n      dup1\n      revert\n    tag_440:\n      pop\n      gas\n      call\n      iszero\n      dup1\n      iszero\n      tag_442\n      jumpi\n      returndatasize\n      0x00\n      dup1\n      returndatacopy\n      revert(0x00, returndatasize)\n    tag_442:\n      pop\n      pop\n      pop\n      pop\n        /* \"UniswapV2Router02.sol\":7118:7198  removeLiquidityETH(token, liquidity, amountTokenMin, amountETHMin, to, deadline) */\n      tag_443\n        /* \"UniswapV2Router02.sol\":7137:7142  token */\n      dup15\n        /* \"UniswapV2Router02.sol\":7144:7153  liquidity */\n      dup15\n        /* \"UniswapV2Router02.sol\":7155:7169  amountTokenMin */\n      dup15\n        /* \"UniswapV2Router02.sol\":7171:7183  amountETHMin */\n      dup15\n        /* \"UniswapV2Router02.sol\":7185:7187  to */\n      dup15\n        /* \"UniswapV2Router02.sol\":7189:7197  deadline */\n      dup15\n        /* \"UniswapV2Router02.sol\":7118:7136  removeLiquidityETH */\n      tag_42\n        /* \"UniswapV2Router02.sol\":7118:7198  removeLiquidityETH(token, liquidity, amountTokenMin, amountETHMin, to, deadline) */\n      jump\t// in\n    tag_443:\n        /* \"UniswapV2Router02.sol\":7091:7198  (amountToken, amountETH) = removeLiquidityETH(token, liquidity, amountTokenMin, amountETHMin, to, deadline) */\n      swap1\n      swap16\n      swap1\n      swap15\n      pop\n        /* \"UniswapV2Router02.sol\":6510:7206  function removeLiquidityETHWithPermit(\r... */\n      swap13\n      pop\n      pop\n      pop\n      pop\n      pop\n      pop\n      pop\n      pop\n      pop\n      pop\n      pop\n      pop\n      pop\n      jump\t// out\n        /* \"UniswapV2Router02.sol\":2480:3218  function addLiquidity(\r... */\n    tag_183:\n        /* \"UniswapV2Router02.sol\":2768:2780  uint amountA */\n      0x00\n        /* \"UniswapV2Router02.sol\":2782:2794  uint amountB */\n      dup1\n        /* \"UniswapV2Router02.sol\":2796:2810  uint liquidity */\n      0x00\n        /* \"UniswapV2Router02.sol\":2749:2757  deadline */\n      dup4\n        /* \"UniswapV2Router02.sol\":673:688  block.timestamp */\n      timestamp\n        /* \"UniswapV2Router02.sol\":661:669  deadline */\n      dup2\n        /* \"UniswapV2Router02.sol\":661:688  deadline >= block.timestamp */\n      lt\n      iszero\n        /* \"UniswapV2Router02.sol\":653:717  require(deadline >= block.timestamp, 'UniswapV2Router: EXPIRED') */\n      tag_445\n      jumpi\n      0x40\n      dup1\n      mload\n      shl(0xe5, 0x461bcd)\n      dup2\n      mstore\n      0x20\n      0x04\n      dup3\n      add\n      mstore\n      0x18\n      0x24\n      dup3\n      add\n      mstore\n      0x00\n      dup1\n      mload\n      0x20\n      data_ee5734acb032ffb1bbaf889d52ccf9fbd1ce0f1ae12bee2c46068d51b910e2c5\n      dup4\n      codecopy\n      dup2\n      mload\n      swap2\n      mstore\n      0x44\n      dup3\n      add\n      mstore\n      swap1\n      mload\n      swap1\n      dup2\n      swap1\n      sub\n      0x64\n      add\n      swap1\n      revert\n    tag_445:\n        /* \"UniswapV2Router02.sol\":2844:2929  _addLiquidity(tokenA, tokenB, amountADesired, amountBDesired, amountAMin, amountBMin) */\n      tag_447\n        /* \"UniswapV2Router02.sol\":2858:2864  tokenA */\n      dup13\n        /* \"UniswapV2Router02.sol\":2866:2872  tokenB */\n      dup13\n        /* \"UniswapV2Router02.sol\":2874:2888  amountADesired */\n      dup13\n        /* \"UniswapV2Router02.sol\":2890:2904  amountBDesired */\n      dup13\n        /* \"UniswapV2Router02.sol\":2906:2916  amountAMin */\n      dup13\n        /* \"UniswapV2Router02.sol\":2918:2928  amountBMin */\n      dup13\n        /* \"UniswapV2Router02.sol\":2844:2857  _addLiquidity */\n      tag_448\n        /* \"UniswapV2Router02.sol\":2844:2929  _addLiquidity(tokenA, tokenB, amountADesired, amountBDesired, amountAMin, amountBMin) */\n      jump\t// in\n    tag_447:\n        /* \"UniswapV2Router02.sol\":2823:2929  (amountA, amountB) = _addLiquidity(tokenA, tokenB, amountADesired, amountBDesired, amountAMin, amountBMin) */\n      swap1\n      swap5\n      pop\n      swap3\n      pop\n        /* \"UniswapV2Router02.sol\":2940:2952  address pair */\n      0x00\n        /* \"UniswapV2Router02.sol\":2955:3004  UniswapV2Library.pairFor(factory, tokenA, tokenB) */\n      tag_449\n        /* \"UniswapV2Router02.sol\":2980:2987  factory */\n      immutable(\"0xb4bf3508f2fd7bb126e7af9e4fe31dbb3cdf386df5936668ea4d8292a4a1b188\")\n        /* \"UniswapV2Router02.sol\":2989:2995  tokenA */\n      dup15\n        /* \"UniswapV2Router02.sol\":2997:3003  tokenB */\n      dup15\n        /* \"UniswapV2Router02.sol\":2955:2979  UniswapV2Library.pairFor */\n      tag_224\n        /* \"UniswapV2Router02.sol\":2955:3004  UniswapV2Library.pairFor(factory, tokenA, tokenB) */\n      jump\t// in\n    tag_449:\n        /* \"UniswapV2Router02.sol\":2940:3004  address pair = UniswapV2Library.pairFor(factory, tokenA, tokenB) */\n      swap1\n      pop\n        /* \"UniswapV2Router02.sol\":3015:3081  TransferHelper.safeTransferFrom(tokenA, msg.sender, pair, amountA) */\n      tag_450\n        /* \"UniswapV2Router02.sol\":3047:3053  tokenA */\n      dup14\n        /* \"UniswapV2Router02.sol\":3055:3065  msg.sender */\n      caller\n        /* \"UniswapV2Router02.sol\":3067:3071  pair */\n      dup4\n        /* \"UniswapV2Router02.sol\":3073:3080  amountA */\n      dup9\n        /* \"UniswapV2Router02.sol\":3015:3046  TransferHelper.safeTransferFrom */\n      tag_226\n        /* \"UniswapV2Router02.sol\":3015:3081  TransferHelper.safeTransferFrom(tokenA, msg.sender, pair, amountA) */\n      jump\t// in\n    tag_450:\n        /* \"UniswapV2Router02.sol\":3092:3158  TransferHelper.safeTransferFrom(tokenB, msg.sender, pair, amountB) */\n      tag_451\n        /* \"UniswapV2Router02.sol\":3124:3130  tokenB */\n      dup13\n        /* \"UniswapV2Router02.sol\":3132:3142  msg.sender */\n      caller\n        /* \"UniswapV2Router02.sol\":3144:3148  pair */\n      dup4\n        /* \"UniswapV2Router02.sol\":3150:3157  amountB */\n      dup8\n        /* \"UniswapV2Router02.sol\":3092:3123  TransferHelper.safeTransferFrom */\n      tag_226\n        /* \"UniswapV2Router02.sol\":3092:3158  TransferHelper.safeTransferFrom(tokenB, msg.sender, pair, amountB) */\n      jump\t// in\n    tag_451:\n        /* \"UniswapV2Router02.sol\":3196:3200  pair */\n      dup1\n      sub(shl(0xa0, 0x01), 0x01)\n        /* \"UniswapV2Router02.sol\":3181:3206  IUniswapV2Pair(pair).mint */\n      and\n      0x6a627842\n        /* \"UniswapV2Router02.sol\":3207:3209  to */\n      dup9\n        /* \"UniswapV2Router02.sol\":3181:3210  IUniswapV2Pair(pair).mint(to) */\n      mload(0x40)\n      dup3\n      0xffffffff\n      and\n      0xe0\n      shl\n      dup2\n      mstore\n      0x04\n      add\n      dup1\n      dup3\n      sub(shl(0xa0, 0x01), 0x01)\n      and\n      dup2\n      mstore\n      0x20\n      add\n      swap2\n      pop\n      pop\n      0x20\n      mload(0x40)\n      dup1\n      dup4\n      sub\n      dup2\n      0x00\n      dup8\n      dup1\n      extcodesize\n      iszero\n      dup1\n      iszero\n      tag_452\n      jumpi\n      0x00\n      dup1\n      revert\n    tag_452:\n      pop\n      gas\n      call\n      iszero\n      dup1\n      iszero\n      tag_454\n      jumpi\n      returndatasize\n      0x00\n      dup1\n      returndatacopy\n      revert(0x00, returndatasize)\n    tag_454:\n      pop\n      pop\n      pop\n      pop\n      mload(0x40)\n      returndatasize\n      0x20\n      dup2\n      lt\n      iszero\n      tag_455\n      jumpi\n      0x00\n      dup1\n      revert\n    tag_455:\n      pop\n      mload\n        /* \"UniswapV2Router02.sol\":2480:3218  function addLiquidity(\r... */\n      swap5\n      swap14\n      swap4\n      swap13\n      pop\n        /* \"UniswapV2Router02.sol\":3181:3210  IUniswapV2Pair(pair).mint(to) */\n      swap4\n      swap11\n      pop\n        /* \"UniswapV2Router02.sol\":2480:3218  function addLiquidity(\r... */\n      swap2\n      swap9\n      pop\n      pop\n      pop\n      pop\n      pop\n      pop\n      pop\n      pop\n      pop\n      jump\t// out\n        /* \"UniswapV2Router02.sol\":3226:4200  function addLiquidityETH(\r... */\n    tag_186:\n        /* \"UniswapV2Router02.sol\":3479:3495  uint amountToken */\n      0x00\n        /* \"UniswapV2Router02.sol\":3497:3511  uint amountETH */\n      dup1\n        /* \"UniswapV2Router02.sol\":3513:3527  uint liquidity */\n      0x00\n        /* \"UniswapV2Router02.sol\":3460:3468  deadline */\n      dup4\n        /* \"UniswapV2Router02.sol\":673:688  block.timestamp */\n      timestamp\n        /* \"UniswapV2Router02.sol\":661:669  deadline */\n      dup2\n        /* \"UniswapV2Router02.sol\":661:688  deadline >= block.timestamp */\n      lt\n      iszero\n        /* \"UniswapV2Router02.sol\":653:717  require(deadline >= block.timestamp, 'UniswapV2Router: EXPIRED') */\n      tag_457\n      jumpi\n      0x40\n      dup1\n      mload\n      shl(0xe5, 0x461bcd)\n      dup2\n      mstore\n      0x20\n      0x04\n      dup3\n      add\n      mstore\n      0x18\n      0x24\n      dup3\n      add\n      mstore\n      0x00\n      dup1\n      mload\n      0x20\n      data_ee5734acb032ffb1bbaf889d52ccf9fbd1ce0f1ae12bee2c46068d51b910e2c5\n      dup4\n      codecopy\n      dup2\n      mload\n      swap2\n      mstore\n      0x44\n      dup3\n      add\n      mstore\n      swap1\n      mload\n      swap1\n      dup2\n      swap1\n      sub\n      0x64\n      add\n      swap1\n      revert\n    tag_457:\n        /* \"UniswapV2Router02.sol\":3567:3743  _addLiquidity(\r... */\n      tag_459\n        /* \"UniswapV2Router02.sol\":3595:3600  token */\n      dup11\n        /* \"UniswapV2Router02.sol\":3615:3619  WETH */\n      immutable(\"0x8f59e018e114ef4f0f13f738daa411333c6421e3f33ae68ce5c638756a827d85\")\n        /* \"UniswapV2Router02.sol\":3634:3652  amountTokenDesired */\n      dup12\n        /* \"UniswapV2Router02.sol\":3667:3676  msg.value */\n      callvalue\n        /* \"UniswapV2Router02.sol\":3691:3705  amountTokenMin */\n      dup13\n        /* \"UniswapV2Router02.sol\":3720:3732  amountETHMin */\n      dup13\n        /* \"UniswapV2Router02.sol\":3567:3580  _addLiquidity */\n      tag_448\n        /* \"UniswapV2Router02.sol\":3567:3743  _addLiquidity(\r... */\n      jump\t// in\n    tag_459:\n        /* \"UniswapV2Router02.sol\":3540:3743  (amountToken, amountETH) = _addLiquidity(\r... */\n      swap1\n      swap5\n      pop\n      swap3\n      pop\n        /* \"UniswapV2Router02.sol\":3754:3766  address pair */\n      0x00\n        /* \"UniswapV2Router02.sol\":3769:3815  UniswapV2Library.pairFor(factory, token, WETH) */\n      tag_460\n        /* \"UniswapV2Router02.sol\":3794:3801  factory */\n      immutable(\"0xb4bf3508f2fd7bb126e7af9e4fe31dbb3cdf386df5936668ea4d8292a4a1b188\")\n        /* \"UniswapV2Router02.sol\":3803:3808  token */\n      dup13\n        /* \"UniswapV2Router02.sol\":3810:3814  WETH */\n      immutable(\"0x8f59e018e114ef4f0f13f738daa411333c6421e3f33ae68ce5c638756a827d85\")\n        /* \"UniswapV2Router02.sol\":3769:3793  UniswapV2Library.pairFor */\n      tag_224\n        /* \"UniswapV2Router02.sol\":3769:3815  UniswapV2Library.pairFor(factory, token, WETH) */\n      jump\t// in\n    tag_460:\n        /* \"UniswapV2Router02.sol\":3754:3815  address pair = UniswapV2Library.pairFor(factory, token, WETH) */\n      swap1\n      pop\n        /* \"UniswapV2Router02.sol\":3826:3895  TransferHelper.safeTransferFrom(token, msg.sender, pair, amountToken) */\n      tag_461\n        /* \"UniswapV2Router02.sol\":3858:3863  token */\n      dup12\n        /* \"UniswapV2Router02.sol\":3865:3875  msg.sender */\n      caller\n        /* \"UniswapV2Router02.sol\":3877:3881  pair */\n      dup4\n        /* \"UniswapV2Router02.sol\":3883:3894  amountToken */\n      dup9\n        /* \"UniswapV2Router02.sol\":3826:3857  TransferHelper.safeTransferFrom */\n      tag_226\n        /* \"UniswapV2Router02.sol\":3826:3895  TransferHelper.safeTransferFrom(token, msg.sender, pair, amountToken) */\n      jump\t// in\n    tag_461:\n        /* \"UniswapV2Router02.sol\":3912:3916  WETH */\n      immutable(\"0x8f59e018e114ef4f0f13f738daa411333c6421e3f33ae68ce5c638756a827d85\")\n      sub(shl(0xa0, 0x01), 0x01)\n        /* \"UniswapV2Router02.sol\":3906:3925  IWETH(WETH).deposit */\n      and\n      0xd0e30db0\n        /* \"UniswapV2Router02.sol\":3933:3942  amountETH */\n      dup6\n        /* \"UniswapV2Router02.sol\":3906:3945  IWETH(WETH).deposit{value: amountETH}() */\n      mload(0x40)\n      dup3\n      0xffffffff\n      and\n      0xe0\n      shl\n      dup2\n      mstore\n      0x04\n      add\n      0x00\n      mload(0x40)\n      dup1\n      dup4\n      sub\n      dup2\n      dup6\n      dup9\n      dup1\n      extcodesize\n      iszero\n      dup1\n      iszero\n      tag_462\n      jumpi\n      0x00\n      dup1\n      revert\n    tag_462:\n      pop\n      gas\n      call\n      iszero\n      dup1\n      iszero\n      tag_464\n      jumpi\n      returndatasize\n      0x00\n      dup1\n      returndatacopy\n      revert(0x00, returndatasize)\n    tag_464:\n      pop\n      pop\n      pop\n      pop\n      pop\n        /* \"UniswapV2Router02.sol\":3969:3973  WETH */\n      immutable(\"0x8f59e018e114ef4f0f13f738daa411333c6421e3f33ae68ce5c638756a827d85\")\n      sub(shl(0xa0, 0x01), 0x01)\n        /* \"UniswapV2Router02.sol\":3963:3983  IWETH(WETH).transfer */\n      and\n      0xa9059cbb\n        /* \"UniswapV2Router02.sol\":3984:3988  pair */\n      dup3\n        /* \"UniswapV2Router02.sol\":3990:3999  amountETH */\n      dup7\n        /* \"UniswapV2Router02.sol\":3963:4000  IWETH(WETH).transfer(pair, amountETH) */\n      mload(0x40)\n      dup4\n      0xffffffff\n      and\n      0xe0\n      shl\n      dup2\n      mstore\n      0x04\n      add\n      dup1\n      dup4\n      sub(shl(0xa0, 0x01), 0x01)\n      and\n      dup2\n      mstore\n      0x20\n      add\n      dup3\n      dup2\n      mstore\n      0x20\n      add\n      swap3\n      pop\n      pop\n      pop\n      0x20\n      mload(0x40)\n      dup1\n      dup4\n      sub\n      dup2\n      0x00\n      dup8\n      dup1\n      extcodesize\n      iszero\n      dup1\n      iszero\n      tag_465\n      jumpi\n      0x00\n      dup1\n      revert\n    tag_465:\n      pop\n      gas\n      call\n      iszero\n      dup1\n      iszero\n      tag_467\n      jumpi\n      returndatasize\n      0x00\n      dup1\n      returndatacopy\n      revert(0x00, returndatasize)\n    tag_467:\n      pop\n      pop\n      pop\n      pop\n      mload(0x40)\n      returndatasize\n      0x20\n      dup2\n      lt\n      iszero\n      tag_468\n      jumpi\n      0x00\n      dup1\n      revert\n    tag_468:\n      pop\n      mload\n        /* \"UniswapV2Router02.sol\":3956:4001  assert(IWETH(WETH).transfer(pair, amountETH)) */\n      tag_469\n      jumpi\n      invalid\n    tag_469:\n        /* \"UniswapV2Router02.sol\":4039:4043  pair */\n      dup1\n      sub(shl(0xa0, 0x01), 0x01)\n        /* \"UniswapV2Router02.sol\":4024:4049  IUniswapV2Pair(pair).mint */\n      and\n      0x6a627842\n        /* \"UniswapV2Router02.sol\":4050:4052  to */\n      dup9\n        /* \"UniswapV2Router02.sol\":4024:4053  IUniswapV2Pair(pair).mint(to) */\n      mload(0x40)\n      dup3\n      0xffffffff\n      and\n      0xe0\n      shl\n      dup2\n      mstore\n      0x04\n      add\n      dup1\n      dup3\n      sub(shl(0xa0, 0x01), 0x01)\n      and\n      dup2\n      mstore\n      0x20\n      add\n      swap2\n      pop\n      pop\n      0x20\n      mload(0x40)\n      dup1\n      dup4\n      sub\n      dup2\n      0x00\n      dup8\n      dup1\n      extcodesize\n      iszero\n      dup1\n      iszero\n      tag_470\n      jumpi\n      0x00\n      dup1\n      revert\n    tag_470:\n      pop\n      gas\n      call\n      iszero\n      dup1\n      iszero\n      tag_472\n      jumpi\n      returndatasize\n      0x00\n      dup1\n      returndatacopy\n      revert(0x00, returndatasize)\n    tag_472:\n      pop\n      pop\n      pop\n      pop\n      mload(0x40)\n      returndatasize\n      0x20\n      dup2\n      lt\n      iszero\n      tag_473\n      jumpi\n      0x00\n      dup1\n      revert\n    tag_473:\n      pop\n      mload\n      swap3\n      pop\n        /* \"UniswapV2Router02.sol\":4104:4113  msg.value */\n      callvalue\n        /* \"UniswapV2Router02.sol\":4104:4125  msg.value > amountETH */\n      dup5\n      lt\n        /* \"UniswapV2Router02.sol\":4100:4192  if (msg.value > amountETH) TransferHelper.safeTransferETH(msg.sender, msg.value - amountETH) */\n      iszero\n      tag_475\n      jumpi\n        /* \"UniswapV2Router02.sol\":4127:4192  TransferHelper.safeTransferETH(msg.sender, msg.value - amountETH) */\n      tag_475\n        /* \"UniswapV2Router02.sol\":4158:4168  msg.sender */\n      caller\n        /* \"UniswapV2Router02.sol\":4182:4191  amountETH */\n      dup6\n        /* \"UniswapV2Router02.sol\":4170:4179  msg.value */\n      callvalue\n        /* \"UniswapV2Router02.sol\":4170:4191  msg.value - amountETH */\n      sub\n        /* \"UniswapV2Router02.sol\":4127:4157  TransferHelper.safeTransferETH */\n      tag_206\n        /* \"UniswapV2Router02.sol\":4127:4192  TransferHelper.safeTransferETH(msg.sender, msg.value - amountETH) */\n      jump\t// in\n    tag_475:\n        /* \"UniswapV2Router02.sol\":728:729  _ */\n      pop\n        /* \"UniswapV2Router02.sol\":3226:4200  function addLiquidityETH(\r... */\n      pop\n      swap7\n      pop\n      swap7\n      pop\n      swap7\n      swap4\n      pop\n      pop\n      pop\n      pop\n      jump\t// out\n        /* \"UniswapV2Router02.sol\":13400:14194  function swapETHForExactTokens(\r... */\n    tag_192:\n        /* \"UniswapV2Router02.sol\":13602:13623  uint[] memory amounts */\n      0x60\n        /* \"UniswapV2Router02.sol\":13583:13591  deadline */\n      dup2\n        /* \"UniswapV2Router02.sol\":673:688  block.timestamp */\n      timestamp\n        /* \"UniswapV2Router02.sol\":661:669  deadline */\n      dup2\n        /* \"UniswapV2Router02.sol\":661:688  deadline >= block.timestamp */\n      lt\n      iszero\n        /* \"UniswapV2Router02.sol\":653:717  require(deadline >= block.timestamp, 'UniswapV2Router: EXPIRED') */\n      tag_477\n      jumpi\n      0x40\n      dup1\n      mload\n      shl(0xe5, 0x461bcd)\n      dup2\n      mstore\n      0x20\n      0x04\n      dup3\n      add\n      mstore\n      0x18\n      0x24\n      dup3\n      add\n      mstore\n      0x00\n      dup1\n      mload\n      0x20\n      data_ee5734acb032ffb1bbaf889d52ccf9fbd1ce0f1ae12bee2c46068d51b910e2c5\n      dup4\n      codecopy\n      dup2\n      mload\n      swap2\n      mstore\n      0x44\n      dup3\n      add\n      mstore\n      swap1\n      mload\n      swap1\n      dup2\n      swap1\n      sub\n      0x64\n      add\n      swap1\n      revert\n    tag_477:\n        /* \"UniswapV2Router02.sol\":13655:13659  WETH */\n      immutable(\"0x8f59e018e114ef4f0f13f738daa411333c6421e3f33ae68ce5c638756a827d85\")\n      sub(shl(0xa0, 0x01), 0x01)\n        /* \"UniswapV2Router02.sol\":13644:13659  path[0] == WETH */\n      and\n        /* \"UniswapV2Router02.sol\":13644:13648  path */\n      dup7\n      dup7\n        /* \"UniswapV2Router02.sol\":13649:13650  0 */\n      0x00\n        /* \"UniswapV2Router02.sol\":13644:13651  path[0] */\n      dup2\n      dup2\n      lt\n      tag_479\n      jumpi\n      invalid\n    tag_479:\n      swap1\n      pop\n      0x20\n      mul\n      add\n      calldataload\n      sub(shl(0xa0, 0x01), 0x01)\n      and\n      sub(shl(0xa0, 0x01), 0x01)\n        /* \"UniswapV2Router02.sol\":13644:13659  path[0] == WETH */\n      and\n      eq\n        /* \"UniswapV2Router02.sol\":13636:13693  require(path[0] == WETH, 'UniswapV2Router: INVALID_PATH') */\n      tag_480\n      jumpi\n      0x40\n      dup1\n      mload\n      shl(0xe5, 0x461bcd)\n      dup2\n      mstore\n      0x20\n      0x04\n      dup3\n      add\n      mstore\n      0x1d\n      0x24\n      dup3\n      add\n      mstore\n      0x00\n      dup1\n      mload\n      0x20\n      data_c80e789ddaeb930b746bbbcb3afe8331d926679fd96f65d8c7468b735c0a14f2\n      dup4\n      codecopy\n      dup2\n      mload\n      swap2\n      mstore\n      0x44\n      dup3\n      add\n      mstore\n      swap1\n      mload\n      swap1\n      dup2\n      swap1\n      sub\n      0x64\n      add\n      swap1\n      revert\n    tag_480:\n        /* \"UniswapV2Router02.sol\":13714:13769  UniswapV2Library.getAmountsIn(factory, amountOut, path) */\n      tag_481\n        /* \"UniswapV2Router02.sol\":13744:13751  factory */\n      immutable(\"0xb4bf3508f2fd7bb126e7af9e4fe31dbb3cdf386df5936668ea4d8292a4a1b188\")\n        /* \"UniswapV2Router02.sol\":13753:13762  amountOut */\n      dup9\n        /* \"UniswapV2Router02.sol\":13764:13768  path */\n      dup9\n      dup9\n        /* \"UniswapV2Router02.sol\":13714:13769  UniswapV2Library.getAmountsIn(factory, amountOut, path) */\n      dup1\n      dup1\n      0x20\n      mul\n      0x20\n      add\n      mload(0x40)\n      swap1\n      dup2\n      add\n      0x40\n      mstore\n      dup1\n      swap4\n      swap3\n      swap2\n      swap1\n      dup2\n      dup2\n      mstore\n      0x20\n      add\n      dup4\n      dup4\n      0x20\n      mul\n      dup1\n      dup3\n      dup5\n      calldatacopy\n      0x00\n      swap3\n      add\n      swap2\n      swap1\n      swap2\n      mstore\n      pop\n        /* \"UniswapV2Router02.sol\":13714:13743  UniswapV2Library.getAmountsIn */\n      tag_237\n      swap3\n      pop\n      pop\n      pop\n        /* \"UniswapV2Router02.sol\":13714:13769  UniswapV2Library.getAmountsIn(factory, amountOut, path) */\n      jump\t// in\n    tag_481:\n        /* \"UniswapV2Router02.sol\":13704:13769  amounts = UniswapV2Library.getAmountsIn(factory, amountOut, path) */\n      swap2\n      pop\n        /* \"UniswapV2Router02.sol\":13802:13811  msg.value */\n      callvalue\n        /* \"UniswapV2Router02.sol\":13788:13795  amounts */\n      dup3\n        /* \"UniswapV2Router02.sol\":13796:13797  0 */\n      0x00\n        /* \"UniswapV2Router02.sol\":13788:13798  amounts[0] */\n      dup2\n      mload\n      dup2\n      lt\n      tag_482\n      jumpi\n      invalid\n    tag_482:\n      0x20\n      mul\n      0x20\n      add\n      add\n      mload\n        /* \"UniswapV2Router02.sol\":13788:13811  amounts[0] <= msg.value */\n      gt\n      iszero\n        /* \"UniswapV2Router02.sol\":13780:13855  require(amounts[0] <= msg.value, 'UniswapV2Router: EXCESSIVE_INPUT_AMOUNT') */\n      tag_483\n      jumpi\n      mload(0x40)\n      shl(0xe5, 0x461bcd)\n      dup2\n      mstore\n      0x04\n      add\n      dup1\n      dup1\n      0x20\n      add\n      dup3\n      dup2\n      sub\n      dup3\n      mstore\n      0x27\n      dup2\n      mstore\n      0x20\n      add\n      dup1\n      data_bb18004cd22eaad7ea393d184ea6ac1df1428db36bb6fbff8af486232d68ae2c\n      0x27\n      swap2\n      codecopy\n      0x40\n      add\n      swap2\n      pop\n      pop\n      mload(0x40)\n      dup1\n      swap2\n      sub\n      swap1\n      revert\n    tag_483:\n        /* \"UniswapV2Router02.sol\":13872:13876  WETH */\n      immutable(\"0x8f59e018e114ef4f0f13f738daa411333c6421e3f33ae68ce5c638756a827d85\")\n      sub(shl(0xa0, 0x01), 0x01)\n        /* \"UniswapV2Router02.sol\":13866:13885  IWETH(WETH).deposit */\n      and\n      0xd0e30db0\n        /* \"UniswapV2Router02.sol\":13893:13900  amounts */\n      dup4\n        /* \"UniswapV2Router02.sol\":13901:13902  0 */\n      0x00\n        /* \"UniswapV2Router02.sol\":13893:13903  amounts[0] */\n      dup2\n      mload\n      dup2\n      lt\n      tag_484\n      jumpi\n      invalid\n    tag_484:\n      0x20\n      mul\n      0x20\n      add\n      add\n      mload\n        /* \"UniswapV2Router02.sol\":13866:13906  IWETH(WETH).deposit{value: amounts[0]}() */\n      mload(0x40)\n      dup3\n      0xffffffff\n      and\n      0xe0\n      shl\n      dup2\n      mstore\n      0x04\n      add\n      0x00\n      mload(0x40)\n      dup1\n      dup4\n      sub\n      dup2\n      dup6\n      dup9\n      dup1\n      extcodesize\n      iszero\n      dup1\n      iszero\n      tag_485\n      jumpi\n      0x00\n      dup1\n      revert\n    tag_485:\n      pop\n      gas\n      call\n      iszero\n      dup1\n      iszero\n      tag_487\n      jumpi\n      returndatasize\n      0x00\n      dup1\n      returndatacopy\n      revert(0x00, returndatasize)\n    tag_487:\n      pop\n      pop\n      pop\n      pop\n      pop\n        /* \"UniswapV2Router02.sol\":13930:13934  WETH */\n      immutable(\"0x8f59e018e114ef4f0f13f738daa411333c6421e3f33ae68ce5c638756a827d85\")\n      sub(shl(0xa0, 0x01), 0x01)\n        /* \"UniswapV2Router02.sol\":13924:13944  IWETH(WETH).transfer */\n      and\n      0xa9059cbb\n        /* \"UniswapV2Router02.sol\":13945:13996  UniswapV2Library.pairFor(factory, path[0], path[1]) */\n      tag_488\n        /* \"UniswapV2Router02.sol\":13970:13977  factory */\n      immutable(\"0xb4bf3508f2fd7bb126e7af9e4fe31dbb3cdf386df5936668ea4d8292a4a1b188\")\n        /* \"UniswapV2Router02.sol\":13979:13983  path */\n      dup10\n      dup10\n        /* \"UniswapV2Router02.sol\":13984:13985  0 */\n      0x00\n        /* \"UniswapV2Router02.sol\":13979:13986  path[0] */\n      dup2\n      dup2\n      lt\n      tag_295\n      jumpi\n      invalid\n        /* \"UniswapV2Router02.sol\":13945:13996  UniswapV2Library.pairFor(factory, path[0], path[1]) */\n    tag_488:\n        /* \"UniswapV2Router02.sol\":13998:14005  amounts */\n      dup5\n        /* \"UniswapV2Router02.sol\":14006:14007  0 */\n      0x00\n        /* \"UniswapV2Router02.sol\":13998:14008  amounts[0] */\n      dup2\n      mload\n      dup2\n      lt\n      tag_491\n      jumpi\n      invalid\n    tag_491:\n      0x20\n      mul\n      0x20\n      add\n      add\n      mload\n        /* \"UniswapV2Router02.sol\":13924:14009  IWETH(WETH).transfer(UniswapV2Library.pairFor(factory, path[0], path[1]), amounts[0]) */\n      mload(0x40)\n      dup4\n      0xffffffff\n      and\n      0xe0\n      shl\n      dup2\n      mstore\n      0x04\n      add\n      dup1\n      dup4\n      sub(shl(0xa0, 0x01), 0x01)\n      and\n      dup2\n      mstore\n      0x20\n      add\n      dup3\n      dup2\n      mstore\n      0x20\n      add\n      swap3\n      pop\n      pop\n      pop\n      0x20\n      mload(0x40)\n      dup1\n      dup4\n      sub\n      dup2\n      0x00\n      dup8\n      dup1\n      extcodesize\n      iszero\n      dup1\n      iszero\n      tag_492\n      jumpi\n      0x00\n      dup1\n      revert\n    tag_492:\n      pop\n      gas\n      call\n      iszero\n      dup1\n      iszero\n      tag_494\n      jumpi\n      returndatasize\n      0x00\n      dup1\n      returndatacopy\n      revert(0x00, returndatasize)\n    tag_494:\n      pop\n      pop\n      pop\n      pop\n      mload(0x40)\n      returndatasize\n      0x20\n      dup2\n      lt\n      iszero\n      tag_495\n      jumpi\n      0x00\n      dup1\n      revert\n    tag_495:\n      pop\n      mload\n        /* \"UniswapV2Router02.sol\":13917:14010  assert(IWETH(WETH).transfer(UniswapV2Library.pairFor(factory, path[0], path[1]), amounts[0])) */\n      tag_496\n      jumpi\n      invalid\n    tag_496:\n        /* \"UniswapV2Router02.sol\":14021:14045  _swap(amounts, path, to) */\n      tag_497\n        /* \"UniswapV2Router02.sol\":14027:14034  amounts */\n      dup3\n        /* \"UniswapV2Router02.sol\":14036:14040  path */\n      dup8\n      dup8\n        /* \"UniswapV2Router02.sol\":14021:14045  _swap(amounts, path, to) */\n      dup1\n      dup1\n      0x20\n      mul\n      0x20\n      add\n      mload(0x40)\n      swap1\n      dup2\n      add\n      0x40\n      mstore\n      dup1\n      swap4\n      swap3\n      swap2\n      swap1\n      dup2\n      dup2\n      mstore\n      0x20\n      add\n      dup4\n      dup4\n      0x20\n      mul\n      dup1\n      dup3\n      dup5\n      calldatacopy\n      0x00\n      swap3\n      add\n      swap2\n      swap1\n      swap2\n      mstore\n      pop\n        /* \"UniswapV2Router02.sol\":14042:14044  to */\n      dup10\n      swap3\n      pop\n        /* \"UniswapV2Router02.sol\":14021:14026  _swap */\n      tag_228\n      swap2\n      pop\n      pop\n        /* \"UniswapV2Router02.sol\":14021:14045  _swap(amounts, path, to) */\n      jump\t// in\n    tag_497:\n        /* \"UniswapV2Router02.sol\":14108:14115  amounts */\n      dup2\n        /* \"UniswapV2Router02.sol\":14116:14117  0 */\n      0x00\n        /* \"UniswapV2Router02.sol\":14108:14118  amounts[0] */\n      dup2\n      mload\n      dup2\n      lt\n      tag_498\n      jumpi\n      invalid\n    tag_498:\n      0x20\n      mul\n      0x20\n      add\n      add\n      mload\n        /* \"UniswapV2Router02.sol\":14096:14105  msg.value */\n      callvalue\n        /* \"UniswapV2Router02.sol\":14096:14118  msg.value > amounts[0] */\n      gt\n        /* \"UniswapV2Router02.sol\":14092:14186  if (msg.value > amounts[0]) TransferHelper.safeTransferETH(msg.sender, msg.value - amounts[0]) */\n      iszero\n      tag_353\n      jumpi\n        /* \"UniswapV2Router02.sol\":14120:14186  TransferHelper.safeTransferETH(msg.sender, msg.value - amounts[0]) */\n      tag_353\n        /* \"UniswapV2Router02.sol\":14151:14161  msg.sender */\n      caller\n        /* \"UniswapV2Router02.sol\":14175:14182  amounts */\n      dup4\n        /* \"UniswapV2Router02.sol\":14183:14184  0 */\n      0x00\n        /* \"UniswapV2Router02.sol\":14175:14185  amounts[0] */\n      dup2\n      mload\n      dup2\n      lt\n      tag_501\n      jumpi\n      invalid\n    tag_501:\n      0x20\n      mul\n      0x20\n      add\n      add\n      mload\n        /* \"UniswapV2Router02.sol\":14163:14172  msg.value */\n      callvalue\n        /* \"UniswapV2Router02.sol\":14163:14185  msg.value - amounts[0] */\n      sub\n        /* \"UniswapV2Router02.sol\":14120:14150  TransferHelper.safeTransferETH */\n      tag_206\n        /* \"UniswapV2Router02.sol\":14120:14186  TransferHelper.safeTransferETH(msg.sender, msg.value - amounts[0]) */\n      jump\t// in\n        /* \"@donkswap/lib/contracts/libraries/TransferHelper.sol\":671:1120  function safeTransfer(\r... */\n    tag_201:\n        /* \"@donkswap/lib/contracts/libraries/TransferHelper.sol\":903:948  abi.encodeWithSelector(0xa9059cbb, to, value) */\n      0x40\n      dup1\n      mload\n      sub(shl(0xa0, 0x01), 0x01)\n      dup5\n      dup2\n      and\n      0x24\n      dup4\n      add\n      mstore\n      0x44\n      dup1\n      dup4\n      add\n      dup6\n      swap1\n      mstore\n      dup4\n      mload\n      dup1\n      dup5\n      sub\n      swap1\n      swap2\n      add\n      dup2\n      mstore\n      0x64\n      swap1\n      swap3\n      add\n      dup4\n      mstore\n      0x20\n      dup3\n      add\n      dup1\n      mload\n      sub(shl(0xe0, 0x01), 0x01)\n      and\n      shl(0xe0, 0xa9059cbb)\n      or\n      dup2\n      mstore\n        /* \"@donkswap/lib/contracts/libraries/TransferHelper.sol\":892:949  token.call(abi.encodeWithSelector(0xa9059cbb, to, value)) */\n      swap3\n      mload\n      dup3\n      mload\n        /* \"@donkswap/lib/contracts/libraries/TransferHelper.sol\":857:869  bool success */\n      0x00\n      swap5\n        /* \"@donkswap/lib/contracts/libraries/TransferHelper.sol\":871:888  bytes memory data */\n      0x60\n      swap5\n        /* \"@donkswap/lib/contracts/libraries/TransferHelper.sol\":892:902  token.call */\n      swap4\n      dup10\n      and\n      swap4\n        /* \"@donkswap/lib/contracts/libraries/TransferHelper.sol\":903:948  abi.encodeWithSelector(0xa9059cbb, to, value) */\n      swap3\n        /* \"@donkswap/lib/contracts/libraries/TransferHelper.sol\":892:949  token.call(abi.encodeWithSelector(0xa9059cbb, to, value)) */\n      swap2\n      dup3\n      swap2\n        /* \"@donkswap/lib/contracts/libraries/TransferHelper.sol\":903:948  abi.encodeWithSelector(0xa9059cbb, to, value) */\n      swap1\n        /* \"@donkswap/lib/contracts/libraries/TransferHelper.sol\":892:949  token.call(abi.encodeWithSelector(0xa9059cbb, to, value)) */\n      dup1\n      dup4\n        /* \"@donkswap/lib/contracts/libraries/TransferHelper.sol\":903:948  abi.encodeWithSelector(0xa9059cbb, to, value) */\n      dup4\n        /* \"@donkswap/lib/contracts/libraries/TransferHelper.sol\":892:949  token.call(abi.encodeWithSelector(0xa9059cbb, to, value)) */\n    tag_503:\n      0x20\n      dup4\n      lt\n      tag_505\n      jumpi\n      dup1\n      mload\n      dup3\n      mstore\n      not(0x1f)\n      swap1\n      swap3\n      add\n      swap2\n      0x20\n      swap2\n      dup3\n      add\n      swap2\n      add\n      jump(tag_503)\n    tag_505:\n      0x01\n      dup4\n      0x20\n      sub\n      0x0100\n      exp\n      sub\n      dup1\n      not\n      dup3\n      mload\n      and\n      dup2\n      dup5\n      mload\n      and\n      dup1\n      dup3\n      or\n      dup6\n      mstore\n      pop\n      pop\n      pop\n      pop\n      pop\n      pop\n      swap1\n      pop\n      add\n      swap2\n      pop\n      pop\n      0x00\n      mload(0x40)\n      dup1\n      dup4\n      sub\n      dup2\n      0x00\n      dup7\n      gas\n      call\n      swap2\n      pop\n      pop\n      returndatasize\n      dup1\n      0x00\n      dup2\n      eq\n      tag_508\n      jumpi\n      mload(0x40)\n      swap2\n      pop\n      and(add(returndatasize, 0x3f), not(0x1f))\n      dup3\n      add\n      0x40\n      mstore\n      returndatasize\n      dup3\n      mstore\n      returndatasize\n      0x00\n      0x20\n      dup5\n      add\n      returndatacopy\n      jump(tag_507)\n    tag_508:\n      0x60\n      swap2\n      pop\n    tag_507:\n      pop\n        /* \"@donkswap/lib/contracts/libraries/TransferHelper.sol\":856:949  (bool success, bytes memory data) = token.call(abi.encodeWithSelector(0xa9059cbb, to, value)) */\n      swap2\n      pop\n      swap2\n      pop\n        /* \"@donkswap/lib/contracts/libraries/TransferHelper.sol\":982:989  success */\n      dup2\n        /* \"@donkswap/lib/contracts/libraries/TransferHelper.sol\":982:1039  success && (data.length == 0 || abi.decode(data, (bool))) */\n      dup1\n      iszero\n      tag_510\n      jumpi\n      pop\n        /* \"@donkswap/lib/contracts/libraries/TransferHelper.sol\":994:1005  data.length */\n      dup1\n      mload\n        /* \"@donkswap/lib/contracts/libraries/TransferHelper.sol\":994:1010  data.length == 0 */\n      iszero\n      dup1\n        /* \"@donkswap/lib/contracts/libraries/TransferHelper.sol\":994:1038  data.length == 0 || abi.decode(data, (bool)) */\n      tag_510\n      jumpi\n      pop\n        /* \"@donkswap/lib/contracts/libraries/TransferHelper.sol\":1025:1029  data */\n      dup1\n        /* \"@donkswap/lib/contracts/libraries/TransferHelper.sol\":1014:1038  abi.decode(data, (bool)) */\n      dup1\n      0x20\n      add\n      swap1\n      mload\n      0x20\n      dup2\n      lt\n      iszero\n      tag_511\n      jumpi\n      0x00\n      dup1\n      revert\n    tag_511:\n      pop\n      mload\n        /* \"@donkswap/lib/contracts/libraries/TransferHelper.sol\":994:1038  data.length == 0 || abi.decode(data, (bool)) */\n    tag_510:\n        /* \"@donkswap/lib/contracts/libraries/TransferHelper.sol\":960:1112  require(\r... */\n      tag_512\n      jumpi\n      mload(0x40)\n      shl(0xe5, 0x461bcd)\n      dup2\n      mstore\n      0x04\n      add\n      dup1\n      dup1\n      0x20\n      add\n      dup3\n      dup2\n      sub\n      dup3\n      mstore\n      0x2d\n      dup2\n      mstore\n      0x20\n      add\n      dup1\n      data_daea69421eeb1164e163c36f3d4349f0db3ec4e0d1381bd5bf4faf53496c2611\n      0x2d\n      swap2\n      codecopy\n      0x40\n      add\n      swap2\n      pop\n      pop\n      mload(0x40)\n      dup1\n      swap2\n      sub\n      swap1\n      revert\n    tag_512:\n        /* \"@donkswap/lib/contracts/libraries/TransferHelper.sol\":671:1120  function safeTransfer(\r... */\n      pop\n      pop\n      pop\n      pop\n      pop\n      jump\t// out\n        /* \"@donkswap/lib/contracts/libraries/TransferHelper.sol\":1634:1851  function safeTransferETH(address to, uint256 value) internal {\r... */\n    tag_206:\n        /* \"@donkswap/lib/contracts/libraries/TransferHelper.sol\":1747:1759  new bytes(0) */\n      0x40\n      dup1\n      mload\n        /* \"@donkswap/lib/contracts/libraries/TransferHelper.sol\":1707:1719  bool success */\n      0x00\n        /* \"@donkswap/lib/contracts/libraries/TransferHelper.sol\":1747:1759  new bytes(0) */\n      dup1\n      dup3\n      mstore\n      0x20\n      dup3\n      add\n      swap1\n      swap3\n      mstore\n      sub(shl(0xa0, 0x01), 0x01)\n        /* \"@donkswap/lib/contracts/libraries/TransferHelper.sol\":1725:1732  to.call */\n      dup5\n      and\n      swap1\n        /* \"@donkswap/lib/contracts/libraries/TransferHelper.sol\":1740:1745  value */\n      dup4\n      swap1\n        /* \"@donkswap/lib/contracts/libraries/TransferHelper.sol\":1725:1760  to.call{value: value}(new bytes(0)) */\n      mload(0x40)\n      dup1\n      dup3\n      dup1\n      mload\n      swap1\n      0x20\n      add\n      swap1\n      dup1\n      dup4\n      dup4\n    tag_516:\n      0x20\n      dup4\n      lt\n      tag_518\n      jumpi\n      dup1\n      mload\n      dup3\n      mstore\n      not(0x1f)\n      swap1\n      swap3\n      add\n      swap2\n      0x20\n      swap2\n      dup3\n      add\n      swap2\n      add\n      jump(tag_516)\n    tag_518:\n      0x01\n      dup4\n      0x20\n      sub\n      0x0100\n      exp\n      sub\n      dup1\n      not\n      dup3\n      mload\n      and\n      dup2\n      dup5\n      mload\n      and\n      dup1\n      dup3\n      or\n      dup6\n      mstore\n      pop\n      pop\n      pop\n      pop\n      pop\n      pop\n      swap1\n      pop\n      add\n      swap2\n      pop\n      pop\n      0x00\n      mload(0x40)\n      dup1\n      dup4\n      sub\n      dup2\n      dup6\n      dup8\n      gas\n      call\n      swap3\n      pop\n      pop\n      pop\n      returndatasize\n      dup1\n      0x00\n      dup2\n      eq\n      tag_521\n      jumpi\n      mload(0x40)\n      swap2\n      pop\n      and(add(returndatasize, 0x3f), not(0x1f))\n      dup3\n      add\n      0x40\n      mstore\n      returndatasize\n      dup3\n      mstore\n      returndatasize\n      0x00\n      0x20\n      dup5\n      add\n      returndatacopy\n      jump(tag_520)\n    tag_521:\n      0x60\n      swap2\n      pop\n    tag_520:\n      pop\n        /* \"@donkswap/lib/contracts/libraries/TransferHelper.sol\":1706:1760  (bool success, ) = to.call{value: value}(new bytes(0)) */\n      pop\n      swap1\n      pop\n        /* \"@donkswap/lib/contracts/libraries/TransferHelper.sol\":1779:1786  success */\n      dup1\n        /* \"@donkswap/lib/contracts/libraries/TransferHelper.sol\":1771:1843  require(success, 'TransferHelper::safeTransferETH: ETH transfer failed') */\n      tag_522\n      jumpi\n      mload(0x40)\n      shl(0xe5, 0x461bcd)\n      dup2\n      mstore\n      0x04\n      add\n      dup1\n      dup1\n      0x20\n      add\n      dup3\n      dup2\n      sub\n      dup3\n      mstore\n      0x34\n      dup2\n      mstore\n      0x20\n      add\n      dup1\n      data_43d7bec223ecf9eb06ea147e7d564bc71c2448662d62a4ea86ce71fc4518b350\n      0x34\n      swap2\n      codecopy\n      0x40\n      add\n      swap2\n      pop\n      pop\n      mload(0x40)\n      dup1\n      swap2\n      sub\n      swap1\n      revert\n    tag_522:\n        /* \"@donkswap/lib/contracts/libraries/TransferHelper.sol\":1634:1851  function safeTransferETH(address to, uint256 value) internal {\r... */\n      pop\n      pop\n      pop\n      jump\t// out\n        /* \"libraries/UniswapV2Library.sol\":2443:2960  function getAmountOut(uint amountIn, uint reserveIn, uint reserveOut) internal pure returns (uint amountOut) {\r... */\n    tag_209:\n        /* \"libraries/UniswapV2Library.sol\":2536:2550  uint amountOut */\n      0x00\n        /* \"libraries/UniswapV2Library.sol\":2582:2583  0 */\n      dup1\n        /* \"libraries/UniswapV2Library.sol\":2571:2579  amountIn */\n      dup5\n        /* \"libraries/UniswapV2Library.sol\":2571:2583  amountIn > 0 */\n      gt\n        /* \"libraries/UniswapV2Library.sol\":2563:2631  require(amountIn > 0, 'UniswapV2Library: INSUFFICIENT_INPUT_AMOUNT') */\n      tag_524\n      jumpi\n      mload(0x40)\n      shl(0xe5, 0x461bcd)\n      dup2\n      mstore\n      0x04\n      add\n      dup1\n      dup1\n      0x20\n      add\n      dup3\n      dup2\n      sub\n      dup3\n      mstore\n      0x2b\n      dup2\n      mstore\n      0x20\n      add\n      dup1\n      data_ec21b006eb37ef20d0f4abcabd34de6854fa68af48294244e0263dc05c1dbbae\n      0x2b\n      swap2\n      codecopy\n      0x40\n      add\n      swap2\n      pop\n      pop\n      mload(0x40)\n      dup1\n      swap2\n      sub\n      swap1\n      revert\n    tag_524:\n        /* \"libraries/UniswapV2Library.sol\":2662:2663  0 */\n      0x00\n        /* \"libraries/UniswapV2Library.sol\":2650:2659  reserveIn */\n      dup4\n        /* \"libraries/UniswapV2Library.sol\":2650:2663  reserveIn > 0 */\n      gt\n        /* \"libraries/UniswapV2Library.sol\":2650:2681  reserveIn > 0 && reserveOut > 0 */\n      dup1\n      iszero\n      tag_525\n      jumpi\n      pop\n        /* \"libraries/UniswapV2Library.sol\":2680:2681  0 */\n      0x00\n        /* \"libraries/UniswapV2Library.sol\":2667:2677  reserveOut */\n      dup3\n        /* \"libraries/UniswapV2Library.sol\":2667:2681  reserveOut > 0 */\n      gt\n        /* \"libraries/UniswapV2Library.sol\":2650:2681  reserveIn > 0 && reserveOut > 0 */\n    tag_525:\n        /* \"libraries/UniswapV2Library.sol\":2642:2726  require(reserveIn > 0 && reserveOut > 0, 'UniswapV2Library: INSUFFICIENT_LIQUIDITY') */\n      tag_526\n      jumpi\n      mload(0x40)\n      shl(0xe5, 0x461bcd)\n      dup2\n      mstore\n      0x04\n      add\n      dup1\n      dup1\n      0x20\n      add\n      dup3\n      dup2\n      sub\n      dup3\n      mstore\n      0x28\n      dup2\n      mstore\n      0x20\n      add\n      dup1\n      data_7e8d6b265173dbbd87b3b9e2bf4238bea6caf2b2bbeb63f859a738aec9e761c8\n      0x28\n      swap2\n      codecopy\n      0x40\n      add\n      swap2\n      pop\n      pop\n      mload(0x40)\n      dup1\n      swap2\n      sub\n      swap1\n      revert\n    tag_526:\n        /* \"libraries/UniswapV2Library.sol\":2737:2757  uint amountInWithFee */\n      0x00\n        /* \"libraries/UniswapV2Library.sol\":2760:2777  amountIn.mul(996) */\n      tag_527\n        /* \"libraries/UniswapV2Library.sol\":2760:2768  amountIn */\n      dup6\n        /* \"libraries/UniswapV2Library.sol\":2773:2776  996 */\n      0x03e4\n        /* \"libraries/UniswapV2Library.sol\":2760:2772  amountIn.mul */\n      tag_528\n        /* \"libraries/UniswapV2Library.sol\":2760:2777  amountIn.mul(996) */\n      jump\t// in\n    tag_527:\n        /* \"libraries/UniswapV2Library.sol\":2737:2777  uint amountInWithFee = amountIn.mul(996) */\n      swap1\n      pop\n        /* \"libraries/UniswapV2Library.sol\":2788:2802  uint numerator */\n      0x00\n        /* \"libraries/UniswapV2Library.sol\":2805:2836  amountInWithFee.mul(reserveOut) */\n      tag_529\n        /* \"libraries/UniswapV2Library.sol\":2737:2777  uint amountInWithFee = amountIn.mul(996) */\n      dup3\n        /* \"libraries/UniswapV2Library.sol\":2825:2835  reserveOut */\n      dup6\n        /* \"libraries/UniswapV2Library.sol\":2805:2824  amountInWithFee.mul */\n      tag_528\n        /* \"libraries/UniswapV2Library.sol\":2805:2836  amountInWithFee.mul(reserveOut) */\n      jump\t// in\n    tag_529:\n        /* \"libraries/UniswapV2Library.sol\":2788:2836  uint numerator = amountInWithFee.mul(reserveOut) */\n      swap1\n      pop\n        /* \"libraries/UniswapV2Library.sol\":2847:2863  uint denominator */\n      0x00\n        /* \"libraries/UniswapV2Library.sol\":2866:2906  reserveIn.mul(1000).add(amountInWithFee) */\n      tag_530\n        /* \"libraries/UniswapV2Library.sol\":2890:2905  amountInWithFee */\n      dup4\n        /* \"libraries/UniswapV2Library.sol\":2866:2885  reserveIn.mul(1000) */\n      tag_531\n        /* \"libraries/UniswapV2Library.sol\":2866:2875  reserveIn */\n      dup9\n        /* \"libraries/UniswapV2Library.sol\":2880:2884  1000 */\n      0x03e8\n        /* \"libraries/UniswapV2Library.sol\":2866:2879  reserveIn.mul */\n      tag_528\n        /* \"libraries/UniswapV2Library.sol\":2866:2885  reserveIn.mul(1000) */\n      jump\t// in\n    tag_531:\n        /* \"libraries/UniswapV2Library.sol\":2866:2889  reserveIn.mul(1000).add */\n      swap1\n      tag_532\n        /* \"libraries/UniswapV2Library.sol\":2866:2906  reserveIn.mul(1000).add(amountInWithFee) */\n      jump\t// in\n    tag_530:\n        /* \"libraries/UniswapV2Library.sol\":2847:2906  uint denominator = reserveIn.mul(1000).add(amountInWithFee) */\n      swap1\n      pop\n        /* \"libraries/UniswapV2Library.sol\":2941:2952  denominator */\n      dup1\n        /* \"libraries/UniswapV2Library.sol\":2929:2938  numerator */\n      dup3\n        /* \"libraries/UniswapV2Library.sol\":2929:2952  numerator / denominator */\n      dup2\n      tag_533\n      jumpi\n      invalid\n    tag_533:\n      div\n      swap8\n        /* \"libraries/UniswapV2Library.sol\":2443:2960  function getAmountOut(uint amountIn, uint reserveIn, uint reserveOut) internal pure returns (uint amountOut) {\r... */\n      swap7\n      pop\n      pop\n      pop\n      pop\n      pop\n      pop\n      pop\n      jump\t// out\n        /* \"libraries/UniswapV2Library.sol\":3635:4180  function getAmountsOut(\r... */\n    tag_216:\n        /* \"libraries/UniswapV2Library.sol\":3770:3791  uint[] memory amounts */\n      0x60\n        /* \"libraries/UniswapV2Library.sol\":3827:3828  2 */\n      0x02\n        /* \"libraries/UniswapV2Library.sol\":3812:3816  path */\n      dup3\n        /* \"libraries/UniswapV2Library.sol\":3812:3823  path.length */\n      mload\n        /* \"libraries/UniswapV2Library.sol\":3812:3828  path.length >= 2 */\n      lt\n      iszero\n        /* \"libraries/UniswapV2Library.sol\":3804:3863  require(path.length >= 2, 'UniswapV2Library: INVALID_PATH') */\n      tag_535\n      jumpi\n      0x40\n      dup1\n      mload\n      shl(0xe5, 0x461bcd)\n      dup2\n      mstore\n      0x20\n      0x04\n      dup3\n      add\n      mstore\n      0x1e\n      0x24\n      dup3\n      add\n      mstore\n      0x556e697377617056324c6962726172793a20494e56414c49445f504154480000\n      0x44\n      dup3\n      add\n      mstore\n      swap1\n      mload\n      swap1\n      dup2\n      swap1\n      sub\n      0x64\n      add\n      swap1\n      revert\n    tag_535:\n        /* \"libraries/UniswapV2Library.sol\":3895:3899  path */\n      dup2\n        /* \"libraries/UniswapV2Library.sol\":3895:3906  path.length */\n      mload\n        /* \"libraries/UniswapV2Library.sol\":3884:3907  new uint[](path.length) */\n      0xffffffffffffffff\n      dup2\n      gt\n      dup1\n      iszero\n      tag_536\n      jumpi\n      0x00\n      dup1\n      revert\n    tag_536:\n      pop\n      mload(0x40)\n      swap1\n      dup1\n      dup3\n      mstore\n      dup1\n      0x20\n      mul\n      0x20\n      add\n      dup3\n      add\n      0x40\n      mstore\n      dup1\n      iszero\n      tag_537\n      jumpi\n      dup2\n      0x20\n      add\n      0x20\n      dup3\n      mul\n      dup1\n      calldatasize\n      dup4\n      calldatacopy\n      add\n      swap1\n      pop\n    tag_537:\n      pop\n        /* \"libraries/UniswapV2Library.sol\":3874:3907  amounts = new uint[](path.length) */\n      swap1\n      pop\n        /* \"libraries/UniswapV2Library.sol\":3931:3939  amountIn */\n      dup3\n        /* \"libraries/UniswapV2Library.sol\":3918:3925  amounts */\n      dup2\n        /* \"libraries/UniswapV2Library.sol\":3926:3927  0 */\n      0x00\n        /* \"libraries/UniswapV2Library.sol\":3918:3928  amounts[0] */\n      dup2\n      mload\n      dup2\n      lt\n      tag_538\n      jumpi\n      invalid\n    tag_538:\n      0x20\n      mul\n      0x20\n      add\n      add\n        /* \"libraries/UniswapV2Library.sol\":3918:3939  amounts[0] = amountIn */\n      dup2\n      dup2\n      mstore\n      pop\n      pop\n        /* \"libraries/UniswapV2Library.sol\":3955:3961  uint i */\n      0x00\n        /* \"libraries/UniswapV2Library.sol\":3950:4173  for (uint i; i < path.length - 1; i++) {\r... */\n    tag_539:\n        /* \"libraries/UniswapV2Library.sol\":3981:3982  1 */\n      0x01\n        /* \"libraries/UniswapV2Library.sol\":3967:3971  path */\n      dup4\n        /* \"libraries/UniswapV2Library.sol\":3967:3978  path.length */\n      mload\n        /* \"libraries/UniswapV2Library.sol\":3967:3982  path.length - 1 */\n      sub\n        /* \"libraries/UniswapV2Library.sol\":3963:3964  i */\n      dup2\n        /* \"libraries/UniswapV2Library.sol\":3963:3982  i < path.length - 1 */\n      lt\n        /* \"libraries/UniswapV2Library.sol\":3950:4173  for (uint i; i < path.length - 1; i++) {\r... */\n      iszero\n      tag_540\n      jumpi\n        /* \"libraries/UniswapV2Library.sol\":4005:4019  uint reserveIn */\n      0x00\n        /* \"libraries/UniswapV2Library.sol\":4021:4036  uint reserveOut */\n      dup1\n        /* \"libraries/UniswapV2Library.sol\":4040:4082  getReserves(factory, path[i], path[i + 1]) */\n      tag_542\n        /* \"libraries/UniswapV2Library.sol\":4052:4059  factory */\n      dup8\n        /* \"libraries/UniswapV2Library.sol\":4061:4065  path */\n      dup7\n        /* \"libraries/UniswapV2Library.sol\":4066:4067  i */\n      dup6\n        /* \"libraries/UniswapV2Library.sol\":4061:4068  path[i] */\n      dup2\n      mload\n      dup2\n      lt\n      tag_543\n      jumpi\n      invalid\n    tag_543:\n      0x20\n      mul\n      0x20\n      add\n      add\n      mload\n        /* \"libraries/UniswapV2Library.sol\":4070:4074  path */\n      dup8\n        /* \"libraries/UniswapV2Library.sol\":4075:4076  i */\n      dup7\n        /* \"libraries/UniswapV2Library.sol\":4079:4080  1 */\n      0x01\n        /* \"libraries/UniswapV2Library.sol\":4075:4080  i + 1 */\n      add\n        /* \"libraries/UniswapV2Library.sol\":4070:4081  path[i + 1] */\n      dup2\n      mload\n      dup2\n      lt\n      tag_544\n      jumpi\n      invalid\n    tag_544:\n      0x20\n      mul\n      0x20\n      add\n      add\n      mload\n        /* \"libraries/UniswapV2Library.sol\":4040:4051  getReserves */\n      tag_545\n        /* \"libraries/UniswapV2Library.sol\":4040:4082  getReserves(factory, path[i], path[i + 1]) */\n      jump\t// in\n    tag_542:\n        /* \"libraries/UniswapV2Library.sol\":4004:4082  (uint reserveIn, uint reserveOut) = getReserves(factory, path[i], path[i + 1]) */\n      swap2\n      pop\n      swap2\n      pop\n        /* \"libraries/UniswapV2Library.sol\":4114:4161  getAmountOut(amounts[i], reserveIn, reserveOut) */\n      tag_546\n        /* \"libraries/UniswapV2Library.sol\":4127:4134  amounts */\n      dup5\n        /* \"libraries/UniswapV2Library.sol\":4135:4136  i */\n      dup5\n        /* \"libraries/UniswapV2Library.sol\":4127:4137  amounts[i] */\n      dup2\n      mload\n      dup2\n      lt\n      tag_547\n      jumpi\n      invalid\n    tag_547:\n      0x20\n      mul\n      0x20\n      add\n      add\n      mload\n        /* \"libraries/UniswapV2Library.sol\":4139:4148  reserveIn */\n      dup4\n        /* \"libraries/UniswapV2Library.sol\":4150:4160  reserveOut */\n      dup4\n        /* \"libraries/UniswapV2Library.sol\":4114:4126  getAmountOut */\n      tag_209\n        /* \"libraries/UniswapV2Library.sol\":4114:4161  getAmountOut(amounts[i], reserveIn, reserveOut) */\n      jump\t// in\n    tag_546:\n        /* \"libraries/UniswapV2Library.sol\":4097:4104  amounts */\n      dup5\n        /* \"libraries/UniswapV2Library.sol\":4105:4106  i */\n      dup5\n        /* \"libraries/UniswapV2Library.sol\":4109:4110  1 */\n      0x01\n        /* \"libraries/UniswapV2Library.sol\":4105:4110  i + 1 */\n      add\n        /* \"libraries/UniswapV2Library.sol\":4097:4111  amounts[i + 1] */\n      dup2\n      mload\n      dup2\n      lt\n      tag_548\n      jumpi\n      invalid\n    tag_548:\n      0x20\n      swap1\n      dup2\n      mul\n      swap2\n      swap1\n      swap2\n      add\n      add\n        /* \"libraries/UniswapV2Library.sol\":4097:4161  amounts[i + 1] = getAmountOut(amounts[i], reserveIn, reserveOut) */\n      mstore\n      pop\n      pop\n        /* \"libraries/UniswapV2Library.sol\":3984:3987  i++ */\n      0x01\n      add\n        /* \"libraries/UniswapV2Library.sol\":3950:4173  for (uint i; i < path.length - 1; i++) {\r... */\n      jump(tag_539)\n    tag_540:\n      pop\n        /* \"libraries/UniswapV2Library.sol\":3635:4180  function getAmountsOut(\r... */\n      swap4\n      swap3\n      pop\n      pop\n      pop\n      jump\t// out\n        /* \"libraries/UniswapV2Library.sol\":767:1402  function pairFor(address factory, address tokenA, address tokenB) internal pure returns (address pair) {\r... */\n    tag_224:\n        /* \"libraries/UniswapV2Library.sol\":856:868  address pair */\n      0x00\n        /* \"libraries/UniswapV2Library.sol\":882:896  address token0 */\n      dup1\n        /* \"libraries/UniswapV2Library.sol\":898:912  address token1 */\n      0x00\n        /* \"libraries/UniswapV2Library.sol\":916:942  sortTokens(tokenA, tokenB) */\n      tag_550\n        /* \"libraries/UniswapV2Library.sol\":927:933  tokenA */\n      dup6\n        /* \"libraries/UniswapV2Library.sol\":935:941  tokenB */\n      dup6\n        /* \"libraries/UniswapV2Library.sol\":916:926  sortTokens */\n      tag_429\n        /* \"libraries/UniswapV2Library.sol\":916:942  sortTokens(tokenA, tokenB) */\n      jump\t// in\n    tag_550:\n        /* \"libraries/UniswapV2Library.sol\":1158:1190  abi.encodePacked(token0, token1) */\n      0x40\n      dup1\n      mload\n      not(0xffffffffffffffffffffffff)\n      0x60\n      swap5\n      dup6\n      shl\n      dup2\n      and\n      0x20\n      dup1\n      dup5\n      add\n      swap2\n      swap1\n      swap2\n      mstore\n      swap4\n      dup6\n      shl\n      dup2\n      and\n      0x34\n      dup4\n      add\n      mstore\n      dup3\n      mload\n      0x28\n      dup2\n      dup5\n      sub\n      add\n      dup2\n      mstore\n      0x48\n      dup4\n      add\n      dup5\n      mstore\n        /* \"libraries/UniswapV2Library.sol\":1148:1191  keccak256(abi.encodePacked(token0, token1)) */\n      dup1\n      mload\n      swap1\n      dup6\n      add\n      keccak256\n      not(sub(shl(0xf8, 0x01), 0x01))\n        /* \"libraries/UniswapV2Library.sol\":1037:1349  abi.encodePacked(\r... */\n      0x68\n      dup5\n      add\n      mstore\n      swap11\n      swap1\n      swap5\n      shl\n      swap1\n      swap4\n      and\n      0x69\n      dup5\n      add\n      mstore\n      0x7d\n      dup4\n      add\n      swap9\n      swap1\n      swap9\n      mstore\n      0xda3c87f621c1b97923a5bb62c384d9aca75f055c0b1a27bdc273bde29edac15a\n      0x9d\n      dup1\n      dup5\n      add\n      swap2\n      swap1\n      swap2\n      mstore\n      dup9\n      mload\n      dup1\n      dup5\n      sub\n      swap1\n      swap2\n      add\n      dup2\n      mstore\n      0xbd\n      swap1\n      swap3\n      add\n      swap1\n      swap8\n      mstore\n        /* \"libraries/UniswapV2Library.sol\":1005:1368  keccak256(\r... */\n      dup1\n      mload\n      swap7\n      add\n      swap6\n      swap1\n      swap6\n      keccak256\n      swap6\n        /* \"libraries/UniswapV2Library.sol\":767:1402  function pairFor(address factory, address tokenA, address tokenB) internal pure returns (address pair) {\r... */\n      swap5\n      pop\n      pop\n      pop\n      pop\n      pop\n      jump\t// out\n        /* \"@donkswap/lib/contracts/libraries/TransferHelper.sol\":1128:1626  function safeTransferFrom(\r... */\n    tag_226:\n        /* \"@donkswap/lib/contracts/libraries/TransferHelper.sol\":1399:1450  abi.encodeWithSelector(0x23b872dd, from, to, value) */\n      0x40\n      dup1\n      mload\n      sub(shl(0xa0, 0x01), 0x01)\n      dup6\n      dup2\n      and\n      0x24\n      dup4\n      add\n      mstore\n      dup5\n      dup2\n      and\n      0x44\n      dup4\n      add\n      mstore\n      0x64\n      dup1\n      dup4\n      add\n      dup6\n      swap1\n      mstore\n      dup4\n      mload\n      dup1\n      dup5\n      sub\n      swap1\n      swap2\n      add\n      dup2\n      mstore\n      0x84\n      swap1\n      swap3\n      add\n      dup4\n      mstore\n      0x20\n      dup3\n      add\n      dup1\n      mload\n      sub(shl(0xe0, 0x01), 0x01)\n      and\n      shl(0xe0, 0x23b872dd)\n      or\n      dup2\n      mstore\n        /* \"@donkswap/lib/contracts/libraries/TransferHelper.sol\":1388:1451  token.call(abi.encodeWithSelector(0x23b872dd, from, to, value)) */\n      swap3\n      mload\n      dup3\n      mload\n        /* \"@donkswap/lib/contracts/libraries/TransferHelper.sol\":1353:1365  bool success */\n      0x00\n      swap5\n        /* \"@donkswap/lib/contracts/libraries/TransferHelper.sol\":1367:1384  bytes memory data */\n      0x60\n      swap5\n        /* \"@donkswap/lib/contracts/libraries/TransferHelper.sol\":1388:1398  token.call */\n      swap4\n      dup11\n      and\n      swap4\n        /* \"@donkswap/lib/contracts/libraries/TransferHelper.sol\":1399:1450  abi.encodeWithSelector(0x23b872dd, from, to, value) */\n      swap3\n        /* \"@donkswap/lib/contracts/libraries/TransferHelper.sol\":1388:1451  token.call(abi.encodeWithSelector(0x23b872dd, from, to, value)) */\n      swap2\n      dup3\n      swap2\n        /* \"@donkswap/lib/contracts/libraries/TransferHelper.sol\":1399:1450  abi.encodeWithSelector(0x23b872dd, from, to, value) */\n      swap1\n        /* \"@donkswap/lib/contracts/libraries/TransferHelper.sol\":1388:1451  token.call(abi.encodeWithSelector(0x23b872dd, from, to, value)) */\n      dup1\n      dup4\n        /* \"@donkswap/lib/contracts/libraries/TransferHelper.sol\":1399:1450  abi.encodeWithSelector(0x23b872dd, from, to, value) */\n      dup4\n        /* \"@donkswap/lib/contracts/libraries/TransferHelper.sol\":1388:1451  token.call(abi.encodeWithSelector(0x23b872dd, from, to, value)) */\n    tag_552:\n      0x20\n      dup4\n      lt\n      tag_554\n      jumpi\n      dup1\n      mload\n      dup3\n      mstore\n      not(0x1f)\n      swap1\n      swap3\n      add\n      swap2\n      0x20\n      swap2\n      dup3\n      add\n      swap2\n      add\n      jump(tag_552)\n    tag_554:\n      0x01\n      dup4\n      0x20\n      sub\n      0x0100\n      exp\n      sub\n      dup1\n      not\n      dup3\n      mload\n      and\n      dup2\n      dup5\n      mload\n      and\n      dup1\n      dup3\n      or\n      dup6\n      mstore\n      pop\n      pop\n      pop\n      pop\n      pop\n      pop\n      swap1\n      pop\n      add\n      swap2\n      pop\n      pop\n      0x00\n      mload(0x40)\n      dup1\n      dup4\n      sub\n      dup2\n      0x00\n      dup7\n      gas\n      call\n      swap2\n      pop\n      pop\n      returndatasize\n      dup1\n      0x00\n      dup2\n      eq\n      tag_557\n      jumpi\n      mload(0x40)\n      swap2\n      pop\n      and(add(returndatasize, 0x3f), not(0x1f))\n      dup3\n      add\n      0x40\n      mstore\n      returndatasize\n      dup3\n      mstore\n      returndatasize\n      0x00\n      0x20\n      dup5\n      add\n      returndatacopy\n      jump(tag_556)\n    tag_557:\n      0x60\n      swap2\n      pop\n    tag_556:\n      pop\n        /* \"@donkswap/lib/contracts/libraries/TransferHelper.sol\":1352:1451  (bool success, bytes memory data) = token.call(abi.encodeWithSelector(0x23b872dd, from, to, value)) */\n      swap2\n      pop\n      swap2\n      pop\n        /* \"@donkswap/lib/contracts/libraries/TransferHelper.sol\":1484:1491  success */\n      dup2\n        /* \"@donkswap/lib/contracts/libraries/TransferHelper.sol\":1484:1541  success && (data.length == 0 || abi.decode(data, (bool))) */\n      dup1\n      iszero\n      tag_559\n      jumpi\n      pop\n        /* \"@donkswap/lib/contracts/libraries/TransferHelper.sol\":1496:1507  data.length */\n      dup1\n      mload\n        /* \"@donkswap/lib/contracts/libraries/TransferHelper.sol\":1496:1512  data.length == 0 */\n      iszero\n      dup1\n        /* \"@donkswap/lib/contracts/libraries/TransferHelper.sol\":1496:1540  data.length == 0 || abi.decode(data, (bool)) */\n      tag_559\n      jumpi\n      pop\n        /* \"@donkswap/lib/contracts/libraries/TransferHelper.sol\":1527:1531  data */\n      dup1\n        /* \"@donkswap/lib/contracts/libraries/TransferHelper.sol\":1516:1540  abi.decode(data, (bool)) */\n      dup1\n      0x20\n      add\n      swap1\n      mload\n      0x20\n      dup2\n      lt\n      iszero\n      tag_560\n      jumpi\n      0x00\n      dup1\n      revert\n    tag_560:\n      pop\n      mload\n        /* \"@donkswap/lib/contracts/libraries/TransferHelper.sol\":1496:1540  data.length == 0 || abi.decode(data, (bool)) */\n    tag_559:\n        /* \"@donkswap/lib/contracts/libraries/TransferHelper.sol\":1462:1618  require(\r... */\n      tag_561\n      jumpi\n      mload(0x40)\n      shl(0xe5, 0x461bcd)\n      dup2\n      mstore\n      0x04\n      add\n      dup1\n      dup1\n      0x20\n      add\n      dup3\n      dup2\n      sub\n      dup3\n      mstore\n      0x31\n      dup2\n      mstore\n      0x20\n      add\n      dup1\n      data_3f8faf98afe9344b6d4b0e75b0101259bf282914b3b5a9320c6918b6e27ede1c\n      0x31\n      swap2\n      codecopy\n      0x40\n      add\n      swap2\n      pop\n      pop\n      mload(0x40)\n      dup1\n      swap2\n      sub\n      swap1\n      revert\n    tag_561:\n        /* \"@donkswap/lib/contracts/libraries/TransferHelper.sol\":1128:1626  function safeTransferFrom(\r... */\n      pop\n      pop\n      pop\n      pop\n      pop\n      pop\n      jump\t// out\n        /* \"UniswapV2Router02.sol\":8812:9599  function _swap(uint[] memory amounts, address[] memory path, address _to) internal virtual {\r... */\n    tag_228:\n        /* \"UniswapV2Router02.sol\":8919:8925  uint i */\n      0x00\n        /* \"UniswapV2Router02.sol\":8914:9592  for (uint i; i < path.length - 1; i++) {\r... */\n    tag_563:\n        /* \"UniswapV2Router02.sol\":8945:8946  1 */\n      0x01\n        /* \"UniswapV2Router02.sol\":8931:8935  path */\n      dup4\n        /* \"UniswapV2Router02.sol\":8931:8942  path.length */\n      mload\n        /* \"UniswapV2Router02.sol\":8931:8946  path.length - 1 */\n      sub\n        /* \"UniswapV2Router02.sol\":8927:8928  i */\n      dup2\n        /* \"UniswapV2Router02.sol\":8927:8946  i < path.length - 1 */\n      lt\n        /* \"UniswapV2Router02.sol\":8914:9592  for (uint i; i < path.length - 1; i++) {\r... */\n      iszero\n      tag_564\n      jumpi\n        /* \"UniswapV2Router02.sol\":8969:8982  address input */\n      0x00\n        /* \"UniswapV2Router02.sol\":8984:8998  address output */\n      dup1\n        /* \"UniswapV2Router02.sol\":9003:9007  path */\n      dup5\n        /* \"UniswapV2Router02.sol\":9008:9009  i */\n      dup4\n        /* \"UniswapV2Router02.sol\":9003:9010  path[i] */\n      dup2\n      mload\n      dup2\n      lt\n      tag_566\n      jumpi\n      invalid\n    tag_566:\n      0x20\n      mul\n      0x20\n      add\n      add\n      mload\n        /* \"UniswapV2Router02.sol\":9012:9016  path */\n      dup6\n        /* \"UniswapV2Router02.sol\":9017:9018  i */\n      dup5\n        /* \"UniswapV2Router02.sol\":9021:9022  1 */\n      0x01\n        /* \"UniswapV2Router02.sol\":9017:9022  i + 1 */\n      add\n        /* \"UniswapV2Router02.sol\":9012:9023  path[i + 1] */\n      dup2\n      mload\n      dup2\n      lt\n      tag_567\n      jumpi\n      invalid\n    tag_567:\n      0x20\n      mul\n      0x20\n      add\n      add\n      mload\n        /* \"UniswapV2Router02.sol\":8968:9024  (address input, address output) = (path[i], path[i + 1]) */\n      swap2\n      pop\n      swap2\n      pop\n        /* \"UniswapV2Router02.sol\":9040:9054  address token0 */\n      0x00\n        /* \"UniswapV2Router02.sol\":9060:9102  UniswapV2Library.sortTokens(input, output) */\n      tag_568\n        /* \"UniswapV2Router02.sol\":9088:9093  input */\n      dup4\n        /* \"UniswapV2Router02.sol\":9095:9101  output */\n      dup4\n        /* \"UniswapV2Router02.sol\":9060:9087  UniswapV2Library.sortTokens */\n      tag_429\n        /* \"UniswapV2Router02.sol\":9060:9102  UniswapV2Library.sortTokens(input, output) */\n      jump\t// in\n    tag_568:\n        /* \"UniswapV2Router02.sol\":9039:9102  (address token0, ) = UniswapV2Library.sortTokens(input, output) */\n      pop\n      swap1\n      pop\n        /* \"UniswapV2Router02.sol\":9117:9131  uint amountOut */\n      0x00\n        /* \"UniswapV2Router02.sol\":9134:9141  amounts */\n      dup8\n        /* \"UniswapV2Router02.sol\":9142:9143  i */\n      dup6\n        /* \"UniswapV2Router02.sol\":9146:9147  1 */\n      0x01\n        /* \"UniswapV2Router02.sol\":9142:9147  i + 1 */\n      add\n        /* \"UniswapV2Router02.sol\":9134:9148  amounts[i + 1] */\n      dup2\n      mload\n      dup2\n      lt\n      tag_569\n      jumpi\n      invalid\n    tag_569:\n      0x20\n      mul\n      0x20\n      add\n      add\n      mload\n        /* \"UniswapV2Router02.sol\":9117:9148  uint amountOut = amounts[i + 1] */\n      swap1\n      pop\n        /* \"UniswapV2Router02.sol\":9164:9179  uint amount0Out */\n      0x00\n        /* \"UniswapV2Router02.sol\":9181:9196  uint amount1Out */\n      dup1\n        /* \"UniswapV2Router02.sol\":9209:9215  token0 */\n      dup4\n      sub(shl(0xa0, 0x01), 0x01)\n        /* \"UniswapV2Router02.sol\":9200:9215  input == token0 */\n      and\n        /* \"UniswapV2Router02.sol\":9200:9205  input */\n      dup7\n      sub(shl(0xa0, 0x01), 0x01)\n        /* \"UniswapV2Router02.sol\":9200:9215  input == token0 */\n      and\n      eq\n        /* \"UniswapV2Router02.sol\":9200:9261  input == token0 ? (uint(0), amountOut) : (amountOut, uint(0)) */\n      tag_570\n      jumpi\n        /* \"UniswapV2Router02.sol\":9242:9251  amountOut */\n      dup3\n        /* \"UniswapV2Router02.sol\":9258:9259  0 */\n      0x00\n        /* \"UniswapV2Router02.sol\":9200:9261  input == token0 ? (uint(0), amountOut) : (amountOut, uint(0)) */\n      jump(tag_571)\n    tag_570:\n        /* \"UniswapV2Router02.sol\":9224:9225  0 */\n      0x00\n        /* \"UniswapV2Router02.sol\":9228:9237  amountOut */\n      dup4\n        /* \"UniswapV2Router02.sol\":9200:9261  input == token0 ? (uint(0), amountOut) : (amountOut, uint(0)) */\n    tag_571:\n        /* \"UniswapV2Router02.sol\":9163:9261  (uint amount0Out, uint amount1Out) = input == token0 ? (uint(0), amountOut) : (amountOut, uint(0)) */\n      swap2\n      pop\n      swap2\n      pop\n        /* \"UniswapV2Router02.sol\":9276:9286  address to */\n      0x00\n        /* \"UniswapV2Router02.sol\":9307:9308  2 */\n      0x02\n        /* \"UniswapV2Router02.sol\":9293:9297  path */\n      dup11\n        /* \"UniswapV2Router02.sol\":9293:9304  path.length */\n      mload\n        /* \"UniswapV2Router02.sol\":9293:9308  path.length - 2 */\n      sub\n        /* \"UniswapV2Router02.sol\":9289:9290  i */\n      dup9\n        /* \"UniswapV2Router02.sol\":9289:9308  i < path.length - 2 */\n      lt\n        /* \"UniswapV2Router02.sol\":9289:9371  i < path.length - 2 ? UniswapV2Library.pairFor(factory, output, path[i + 2]) : _to */\n      tag_572\n      jumpi\n        /* \"UniswapV2Router02.sol\":9368:9371  _to */\n      dup9\n        /* \"UniswapV2Router02.sol\":9289:9371  i < path.length - 2 ? UniswapV2Library.pairFor(factory, output, path[i + 2]) : _to */\n      jump(tag_574)\n    tag_572:\n        /* \"UniswapV2Router02.sol\":9311:9365  UniswapV2Library.pairFor(factory, output, path[i + 2]) */\n      tag_574\n        /* \"UniswapV2Router02.sol\":9336:9343  factory */\n      immutable(\"0xb4bf3508f2fd7bb126e7af9e4fe31dbb3cdf386df5936668ea4d8292a4a1b188\")\n        /* \"UniswapV2Router02.sol\":9345:9351  output */\n      dup8\n        /* \"UniswapV2Router02.sol\":9353:9357  path */\n      dup13\n        /* \"UniswapV2Router02.sol\":9358:9359  i */\n      dup12\n        /* \"UniswapV2Router02.sol\":9362:9363  2 */\n      0x02\n        /* \"UniswapV2Router02.sol\":9358:9363  i + 2 */\n      add\n        /* \"UniswapV2Router02.sol\":9353:9364  path[i + 2] */\n      dup2\n      mload\n      dup2\n      lt\n      tag_575\n      jumpi\n      invalid\n    tag_575:\n      0x20\n      mul\n      0x20\n      add\n      add\n      mload\n        /* \"UniswapV2Router02.sol\":9311:9335  UniswapV2Library.pairFor */\n      tag_224\n        /* \"UniswapV2Router02.sol\":9311:9365  UniswapV2Library.pairFor(factory, output, path[i + 2]) */\n      jump\t// in\n    tag_574:\n        /* \"UniswapV2Router02.sol\":9276:9371  address to = i < path.length - 2 ? UniswapV2Library.pairFor(factory, output, path[i + 2]) : _to */\n      swap1\n      pop\n        /* \"UniswapV2Router02.sol\":9401:9449  UniswapV2Library.pairFor(factory, input, output) */\n      tag_576\n        /* \"UniswapV2Router02.sol\":9426:9433  factory */\n      immutable(\"0xb4bf3508f2fd7bb126e7af9e4fe31dbb3cdf386df5936668ea4d8292a4a1b188\")\n        /* \"UniswapV2Router02.sol\":9435:9440  input */\n      dup9\n        /* \"UniswapV2Router02.sol\":9442:9448  output */\n      dup9\n        /* \"UniswapV2Router02.sol\":9401:9425  UniswapV2Library.pairFor */\n      tag_224\n        /* \"UniswapV2Router02.sol\":9401:9449  UniswapV2Library.pairFor(factory, input, output) */\n      jump\t// in\n    tag_576:\n      sub(shl(0xa0, 0x01), 0x01)\n        /* \"UniswapV2Router02.sol\":9386:9455  IUniswapV2Pair(UniswapV2Library.pairFor(factory, input, output)).swap */\n      and\n      0x022c0d9f\n        /* \"UniswapV2Router02.sol\":9474:9484  amount0Out */\n      dup5\n        /* \"UniswapV2Router02.sol\":9503:9513  amount1Out */\n      dup5\n        /* \"UniswapV2Router02.sol\":9532:9534  to */\n      dup5\n        /* \"UniswapV2Router02.sol\":9563:9564  0 */\n      0x00\n        /* \"UniswapV2Router02.sol\":9553:9565  new bytes(0) */\n      mload(0x40)\n      swap1\n      dup1\n      dup3\n      mstore\n      dup1\n      0x1f\n      add\n      not(0x1f)\n      and\n      0x20\n      add\n      dup3\n      add\n      0x40\n      mstore\n      dup1\n      iszero\n      tag_578\n      jumpi\n      0x20\n      dup3\n      add\n      dup2\n      dup1\n      calldatasize\n      dup4\n      calldatacopy\n      add\n      swap1\n      pop\n    tag_578:\n      pop\n        /* \"UniswapV2Router02.sol\":9386:9580  IUniswapV2Pair(UniswapV2Library.pairFor(factory, input, output)).swap(\r... */\n      mload(0x40)\n      dup6\n      0xffffffff\n      and\n      0xe0\n      shl\n      dup2\n      mstore\n      0x04\n      add\n      dup1\n      dup6\n      dup2\n      mstore\n      0x20\n      add\n      dup5\n      dup2\n      mstore\n      0x20\n      add\n      dup4\n      sub(shl(0xa0, 0x01), 0x01)\n      and\n      dup2\n      mstore\n      0x20\n      add\n      dup1\n      0x20\n      add\n      dup3\n      dup2\n      sub\n      dup3\n      mstore\n      dup4\n      dup2\n      dup2\n      mload\n      dup2\n      mstore\n      0x20\n      add\n      swap2\n      pop\n      dup1\n      mload\n      swap1\n      0x20\n      add\n      swap1\n      dup1\n      dup4\n      dup4\n      0x00\n    tag_579:\n      dup4\n      dup2\n      lt\n      iszero\n      tag_581\n      jumpi\n      dup2\n      dup2\n      add\n      mload\n      dup4\n      dup3\n      add\n      mstore\n      0x20\n      add\n      jump(tag_579)\n    tag_581:\n      pop\n      pop\n      pop\n      pop\n      swap1\n      pop\n      swap1\n      dup2\n      add\n      swap1\n      0x1f\n      and\n      dup1\n      iszero\n      tag_582\n      jumpi\n      dup1\n      dup3\n      sub\n      dup1\n      mload\n      0x01\n      dup4\n      0x20\n      sub\n      0x0100\n      exp\n      sub\n      not\n      and\n      dup2\n      mstore\n      0x20\n      add\n      swap2\n      pop\n    tag_582:\n      pop\n      swap6\n      pop\n      pop\n      pop\n      pop\n      pop\n      pop\n      0x00\n      mload(0x40)\n      dup1\n      dup4\n      sub\n      dup2\n      0x00\n      dup8\n      dup1\n      extcodesize\n      iszero\n      dup1\n      iszero\n      tag_583\n      jumpi\n      0x00\n      dup1\n      revert\n    tag_583:\n      pop\n      gas\n      call\n      iszero\n      dup1\n      iszero\n      tag_585\n      jumpi\n      returndatasize\n      0x00\n      dup1\n      returndatacopy\n      revert(0x00, returndatasize)\n    tag_585:\n      pop\n      pop\n        /* \"UniswapV2Router02.sol\":8948:8951  i++ */\n      0x01\n      swap1\n      swap10\n      add\n      swap9\n      pop\n        /* \"UniswapV2Router02.sol\":8914:9592  for (uint i; i < path.length - 1; i++) {\r... */\n      tag_563\n      swap8\n      pop\n      pop\n      pop\n      pop\n      pop\n      pop\n      pop\n      pop\n      jump\n    tag_564:\n      pop\n        /* \"UniswapV2Router02.sol\":8812:9599  function _swap(uint[] memory amounts, address[] memory path, address _to) internal virtual {\r... */\n      pop\n      pop\n      pop\n      jump\t// out\n        /* \"libraries/UniswapV2Library.sol\":4261:4827  function getAmountsIn(\r... */\n    tag_237:\n        /* \"libraries/UniswapV2Library.sol\":4396:4417  uint[] memory amounts */\n      0x60\n        /* \"libraries/UniswapV2Library.sol\":4453:4454  2 */\n      0x02\n        /* \"libraries/UniswapV2Library.sol\":4438:4442  path */\n      dup3\n        /* \"libraries/UniswapV2Library.sol\":4438:4449  path.length */\n      mload\n        /* \"libraries/UniswapV2Library.sol\":4438:4454  path.length >= 2 */\n      lt\n      iszero\n        /* \"libraries/UniswapV2Library.sol\":4430:4489  require(path.length >= 2, 'UniswapV2Library: INVALID_PATH') */\n      tag_587\n      jumpi\n      0x40\n      dup1\n      mload\n      shl(0xe5, 0x461bcd)\n      dup2\n      mstore\n      0x20\n      0x04\n      dup3\n      add\n      mstore\n      0x1e\n      0x24\n      dup3\n      add\n      mstore\n      0x556e697377617056324c6962726172793a20494e56414c49445f504154480000\n      0x44\n      dup3\n      add\n      mstore\n      swap1\n      mload\n      swap1\n      dup2\n      swap1\n      sub\n      0x64\n      add\n      swap1\n      revert\n    tag_587:\n        /* \"libraries/UniswapV2Library.sol\":4521:4525  path */\n      dup2\n        /* \"libraries/UniswapV2Library.sol\":4521:4532  path.length */\n      mload\n        /* \"libraries/UniswapV2Library.sol\":4510:4533  new uint[](path.length) */\n      0xffffffffffffffff\n      dup2\n      gt\n      dup1\n      iszero\n      tag_588\n      jumpi\n      0x00\n      dup1\n      revert\n    tag_588:\n      pop\n      mload(0x40)\n      swap1\n      dup1\n      dup3\n      mstore\n      dup1\n      0x20\n      mul\n      0x20\n      add\n      dup3\n      add\n      0x40\n      mstore\n      dup1\n      iszero\n      tag_589\n      jumpi\n      dup2\n      0x20\n      add\n      0x20\n      dup3\n      mul\n      dup1\n      calldatasize\n      dup4\n      calldatacopy\n      add\n      swap1\n      pop\n    tag_589:\n      pop\n        /* \"libraries/UniswapV2Library.sol\":4500:4533  amounts = new uint[](path.length) */\n      swap1\n      pop\n        /* \"libraries/UniswapV2Library.sol\":4574:4583  amountOut */\n      dup3\n        /* \"libraries/UniswapV2Library.sol\":4544:4551  amounts */\n      dup2\n        /* \"libraries/UniswapV2Library.sol\":4569:4570  1 */\n      0x01\n        /* \"libraries/UniswapV2Library.sol\":4552:4559  amounts */\n      dup4\n        /* \"libraries/UniswapV2Library.sol\":4552:4566  amounts.length */\n      mload\n        /* \"libraries/UniswapV2Library.sol\":4552:4570  amounts.length - 1 */\n      sub\n        /* \"libraries/UniswapV2Library.sol\":4544:4571  amounts[amounts.length - 1] */\n      dup2\n      mload\n      dup2\n      lt\n      tag_590\n      jumpi\n      invalid\n    tag_590:\n      0x20\n      swap1\n      dup2\n      mul\n      swap2\n      swap1\n      swap2\n      add\n      add\n        /* \"libraries/UniswapV2Library.sol\":4544:4583  amounts[amounts.length - 1] = amountOut */\n      mstore\n        /* \"libraries/UniswapV2Library.sol\":4608:4619  path.length */\n      dup2\n      mload\n      not(0x00)\n        /* \"libraries/UniswapV2Library.sol\":4608:4623  path.length - 1 */\n      add\n        /* \"libraries/UniswapV2Library.sol\":4594:4820  for (uint i = path.length - 1; i > 0; i--) {\r... */\n    tag_591:\n        /* \"libraries/UniswapV2Library.sol\":4625:4630  i > 0 */\n      dup1\n      iszero\n        /* \"libraries/UniswapV2Library.sol\":4594:4820  for (uint i = path.length - 1; i > 0; i--) {\r... */\n      tag_540\n      jumpi\n        /* \"libraries/UniswapV2Library.sol\":4653:4667  uint reserveIn */\n      0x00\n        /* \"libraries/UniswapV2Library.sol\":4669:4684  uint reserveOut */\n      dup1\n        /* \"libraries/UniswapV2Library.sol\":4688:4730  getReserves(factory, path[i - 1], path[i]) */\n      tag_594\n        /* \"libraries/UniswapV2Library.sol\":4700:4707  factory */\n      dup8\n        /* \"libraries/UniswapV2Library.sol\":4709:4713  path */\n      dup7\n        /* \"libraries/UniswapV2Library.sol\":4718:4719  1 */\n      0x01\n        /* \"libraries/UniswapV2Library.sol\":4714:4715  i */\n      dup7\n        /* \"libraries/UniswapV2Library.sol\":4714:4719  i - 1 */\n      sub\n        /* \"libraries/UniswapV2Library.sol\":4709:4720  path[i - 1] */\n      dup2\n      mload\n      dup2\n      lt\n      tag_595\n      jumpi\n      invalid\n    tag_595:\n      0x20\n      mul\n      0x20\n      add\n      add\n      mload\n        /* \"libraries/UniswapV2Library.sol\":4722:4726  path */\n      dup8\n        /* \"libraries/UniswapV2Library.sol\":4727:4728  i */\n      dup7\n        /* \"libraries/UniswapV2Library.sol\":4722:4729  path[i] */\n      dup2\n      mload\n      dup2\n      lt\n      tag_544\n      jumpi\n      invalid\n        /* \"libraries/UniswapV2Library.sol\":4688:4730  getReserves(factory, path[i - 1], path[i]) */\n    tag_594:\n        /* \"libraries/UniswapV2Library.sol\":4652:4730  (uint reserveIn, uint reserveOut) = getReserves(factory, path[i - 1], path[i]) */\n      swap2\n      pop\n      swap2\n      pop\n        /* \"libraries/UniswapV2Library.sol\":4762:4808  getAmountIn(amounts[i], reserveIn, reserveOut) */\n      tag_597\n        /* \"libraries/UniswapV2Library.sol\":4774:4781  amounts */\n      dup5\n        /* \"libraries/UniswapV2Library.sol\":4782:4783  i */\n      dup5\n        /* \"libraries/UniswapV2Library.sol\":4774:4784  amounts[i] */\n      dup2\n      mload\n      dup2\n      lt\n      tag_598\n      jumpi\n      invalid\n    tag_598:\n      0x20\n      mul\n      0x20\n      add\n      add\n      mload\n        /* \"libraries/UniswapV2Library.sol\":4786:4795  reserveIn */\n      dup4\n        /* \"libraries/UniswapV2Library.sol\":4797:4807  reserveOut */\n      dup4\n        /* \"libraries/UniswapV2Library.sol\":4762:4773  getAmountIn */\n      tag_356\n        /* \"libraries/UniswapV2Library.sol\":4762:4808  getAmountIn(amounts[i], reserveIn, reserveOut) */\n      jump\t// in\n    tag_597:\n        /* \"libraries/UniswapV2Library.sol\":4745:4752  amounts */\n      dup5\n        /* \"libraries/UniswapV2Library.sol\":4757:4758  1 */\n      0x01\n        /* \"libraries/UniswapV2Library.sol\":4753:4754  i */\n      dup6\n        /* \"libraries/UniswapV2Library.sol\":4753:4758  i - 1 */\n      sub\n        /* \"libraries/UniswapV2Library.sol\":4745:4759  amounts[i - 1] */\n      dup2\n      mload\n      dup2\n      lt\n      tag_599\n      jumpi\n      invalid\n    tag_599:\n      0x20\n      swap1\n      dup2\n      mul\n      swap2\n      swap1\n      swap2\n      add\n      add\n        /* \"libraries/UniswapV2Library.sol\":4745:4808  amounts[i - 1] = getAmountIn(amounts[i], reserveIn, reserveOut) */\n      mstore\n      pop\n      pop\n      not(0x00)\n        /* \"libraries/UniswapV2Library.sol\":4632:4635  i-- */\n      add\n        /* \"libraries/UniswapV2Library.sol\":4594:4820  for (uint i = path.length - 1; i > 0; i--) {\r... */\n      jump(tag_591)\n        /* \"UniswapV2Router02.sol\":14341:15590  function _swapSupportingFeeOnTransferTokens(address[] memory path, address _to) internal virtual {\r... */\n    tag_303:\n        /* \"UniswapV2Router02.sol\":14454:14460  uint i */\n      0x00\n        /* \"UniswapV2Router02.sol\":14449:15583  for (uint i; i < path.length - 1; i++) {\r... */\n    tag_601:\n        /* \"UniswapV2Router02.sol\":14480:14481  1 */\n      0x01\n        /* \"UniswapV2Router02.sol\":14466:14470  path */\n      dup4\n        /* \"UniswapV2Router02.sol\":14466:14477  path.length */\n      mload\n        /* \"UniswapV2Router02.sol\":14466:14481  path.length - 1 */\n      sub\n        /* \"UniswapV2Router02.sol\":14462:14463  i */\n      dup2\n        /* \"UniswapV2Router02.sol\":14462:14481  i < path.length - 1 */\n      lt\n        /* \"UniswapV2Router02.sol\":14449:15583  for (uint i; i < path.length - 1; i++) {\r... */\n      iszero\n      tag_522\n      jumpi\n        /* \"UniswapV2Router02.sol\":14504:14517  address input */\n      0x00\n        /* \"UniswapV2Router02.sol\":14519:14533  address output */\n      dup1\n        /* \"UniswapV2Router02.sol\":14538:14542  path */\n      dup5\n        /* \"UniswapV2Router02.sol\":14543:14544  i */\n      dup4\n        /* \"UniswapV2Router02.sol\":14538:14545  path[i] */\n      dup2\n      mload\n      dup2\n      lt\n      tag_604\n      jumpi\n      invalid\n    tag_604:\n      0x20\n      mul\n      0x20\n      add\n      add\n      mload\n        /* \"UniswapV2Router02.sol\":14547:14551  path */\n      dup6\n        /* \"UniswapV2Router02.sol\":14552:14553  i */\n      dup5\n        /* \"UniswapV2Router02.sol\":14556:14557  1 */\n      0x01\n        /* \"UniswapV2Router02.sol\":14552:14557  i + 1 */\n      add\n        /* \"UniswapV2Router02.sol\":14547:14558  path[i + 1] */\n      dup2\n      mload\n      dup2\n      lt\n      tag_605\n      jumpi\n      invalid\n    tag_605:\n      0x20\n      mul\n      0x20\n      add\n      add\n      mload\n        /* \"UniswapV2Router02.sol\":14503:14559  (address input, address output) = (path[i], path[i + 1]) */\n      swap2\n      pop\n      swap2\n      pop\n        /* \"UniswapV2Router02.sol\":14575:14589  address token0 */\n      0x00\n        /* \"UniswapV2Router02.sol\":14595:14637  UniswapV2Library.sortTokens(input, output) */\n      tag_606\n        /* \"UniswapV2Router02.sol\":14623:14628  input */\n      dup4\n        /* \"UniswapV2Router02.sol\":14630:14636  output */\n      dup4\n        /* \"UniswapV2Router02.sol\":14595:14622  UniswapV2Library.sortTokens */\n      tag_429\n        /* \"UniswapV2Router02.sol\":14595:14637  UniswapV2Library.sortTokens(input, output) */\n      jump\t// in\n    tag_606:\n        /* \"UniswapV2Router02.sol\":14574:14637  (address token0, ) = UniswapV2Library.sortTokens(input, output) */\n      pop\n      swap1\n      pop\n        /* \"UniswapV2Router02.sol\":14652:14671  IUniswapV2Pair pair */\n      0x00\n        /* \"UniswapV2Router02.sol\":14689:14737  UniswapV2Library.pairFor(factory, input, output) */\n      tag_607\n        /* \"UniswapV2Router02.sol\":14714:14721  factory */\n      immutable(\"0xb4bf3508f2fd7bb126e7af9e4fe31dbb3cdf386df5936668ea4d8292a4a1b188\")\n        /* \"UniswapV2Router02.sol\":14723:14728  input */\n      dup6\n        /* \"UniswapV2Router02.sol\":14730:14736  output */\n      dup6\n        /* \"UniswapV2Router02.sol\":14689:14713  UniswapV2Library.pairFor */\n      tag_224\n        /* \"UniswapV2Router02.sol\":14689:14737  UniswapV2Library.pairFor(factory, input, output) */\n      jump\t// in\n    tag_607:\n        /* \"UniswapV2Router02.sol\":14652:14738  IUniswapV2Pair pair = IUniswapV2Pair(UniswapV2Library.pairFor(factory, input, output)) */\n      swap1\n      pop\n        /* \"UniswapV2Router02.sol\":14753:14769  uint amountInput */\n      0x00\n        /* \"UniswapV2Router02.sol\":14784:14801  uint amountOutput */\n      dup1\n        /* \"UniswapV2Router02.sol\":14893:14906  uint reserve0 */\n      0x00\n        /* \"UniswapV2Router02.sol\":14908:14921  uint reserve1 */\n      dup1\n        /* \"UniswapV2Router02.sol\":14927:14931  pair */\n      dup5\n      sub(shl(0xa0, 0x01), 0x01)\n        /* \"UniswapV2Router02.sol\":14927:14943  pair.getReserves */\n      and\n      0x0902f1ac\n        /* \"UniswapV2Router02.sol\":14927:14945  pair.getReserves() */\n      mload(0x40)\n      dup2\n      0xffffffff\n      and\n      0xe0\n      shl\n      dup2\n      mstore\n      0x04\n      add\n      0x60\n      mload(0x40)\n      dup1\n      dup4\n      sub\n      dup2\n      dup7\n      dup1\n      extcodesize\n      iszero\n      dup1\n      iszero\n      tag_608\n      jumpi\n      0x00\n      dup1\n      revert\n    tag_608:\n      pop\n      gas\n      staticcall\n      iszero\n      dup1\n      iszero\n      tag_610\n      jumpi\n      returndatasize\n      0x00\n      dup1\n      returndatacopy\n      revert(0x00, returndatasize)\n    tag_610:\n      pop\n      pop\n      pop\n      pop\n      mload(0x40)\n      returndatasize\n      0x60\n      dup2\n      lt\n      iszero\n      tag_611\n      jumpi\n      0x00\n      dup1\n      revert\n    tag_611:\n      pop\n      dup1\n      mload\n      0x20\n      swap1\n      swap2\n      add\n      mload\n      sub(shl(0x70, 0x01), 0x01)\n        /* \"UniswapV2Router02.sol\":14892:14945  (uint reserve0, uint reserve1, ) = pair.getReserves() */\n      swap2\n      dup3\n      and\n      swap4\n      pop\n      and\n      swap1\n      pop\n        /* \"UniswapV2Router02.sol\":14965:14982  uint reserveInput */\n      0x00\n      dup1\n      sub(shl(0xa0, 0x01), 0x01)\n        /* \"UniswapV2Router02.sol\":15006:15021  input == token0 */\n      dup11\n      dup2\n      and\n      swap1\n      dup10\n      and\n      eq\n        /* \"UniswapV2Router02.sol\":15006:15067  input == token0 ? (reserve0, reserve1) : (reserve1, reserve0) */\n      tag_612\n      jumpi\n        /* \"UniswapV2Router02.sol\":15048:15056  reserve1 */\n      dup3\n        /* \"UniswapV2Router02.sol\":15058:15066  reserve0 */\n      dup5\n        /* \"UniswapV2Router02.sol\":15006:15067  input == token0 ? (reserve0, reserve1) : (reserve1, reserve0) */\n      jump(tag_613)\n    tag_612:\n        /* \"UniswapV2Router02.sol\":15025:15033  reserve0 */\n      dup4\n        /* \"UniswapV2Router02.sol\":15035:15043  reserve1 */\n      dup4\n        /* \"UniswapV2Router02.sol\":15006:15067  input == token0 ? (reserve0, reserve1) : (reserve1, reserve0) */\n    tag_613:\n        /* \"UniswapV2Router02.sol\":14964:15067  (uint reserveInput, uint reserveOutput) = input == token0 ? (reserve0, reserve1) : (reserve1, reserve0) */\n      swap2\n      pop\n      swap2\n      pop\n        /* \"UniswapV2Router02.sol\":15100:15156  IERC20(input).balanceOf(address(pair)).sub(reserveInput) */\n      tag_614\n        /* \"UniswapV2Router02.sol\":15143:15155  reserveInput */\n      dup3\n        /* \"UniswapV2Router02.sol\":15107:15112  input */\n      dup12\n      sub(shl(0xa0, 0x01), 0x01)\n        /* \"UniswapV2Router02.sol\":15100:15123  IERC20(input).balanceOf */\n      and\n      0x70a08231\n        /* \"UniswapV2Router02.sol\":15132:15136  pair */\n      dup11\n        /* \"UniswapV2Router02.sol\":15100:15138  IERC20(input).balanceOf(address(pair)) */\n      mload(0x40)\n      dup3\n      0xffffffff\n      and\n      0xe0\n      shl\n      dup2\n      mstore\n      0x04\n      add\n      dup1\n      dup3\n      sub(shl(0xa0, 0x01), 0x01)\n      and\n      dup2\n      mstore\n      0x20\n      add\n      swap2\n      pop\n      pop\n      0x20\n      mload(0x40)\n      dup1\n      dup4\n      sub\n      dup2\n      dup7\n      dup1\n      extcodesize\n      iszero\n      dup1\n      iszero\n      tag_306\n      jumpi\n      0x00\n      dup1\n      revert\n        /* \"UniswapV2Router02.sol\":15100:15156  IERC20(input).balanceOf(address(pair)).sub(reserveInput) */\n    tag_614:\n        /* \"UniswapV2Router02.sol\":15086:15156  amountInput = IERC20(input).balanceOf(address(pair)).sub(reserveInput) */\n      swap6\n      pop\n        /* \"UniswapV2Router02.sol\":15190:15261  UniswapV2Library.getAmountOut(amountInput, reserveInput, reserveOutput) */\n      tag_619\n        /* \"UniswapV2Router02.sol\":15220:15231  amountInput */\n      dup7\n        /* \"UniswapV2Router02.sol\":15233:15245  reserveInput */\n      dup4\n        /* \"UniswapV2Router02.sol\":15247:15260  reserveOutput */\n      dup4\n        /* \"UniswapV2Router02.sol\":15190:15219  UniswapV2Library.getAmountOut */\n      tag_209\n        /* \"UniswapV2Router02.sol\":15190:15261  UniswapV2Library.getAmountOut(amountInput, reserveInput, reserveOutput) */\n      jump\t// in\n    tag_619:\n        /* \"UniswapV2Router02.sol\":15175:15261  amountOutput = UniswapV2Library.getAmountOut(amountInput, reserveInput, reserveOutput) */\n      swap5\n      pop\n        /* \"UniswapV2Router02.sol\":14449:15583  for (uint i; i < path.length - 1; i++) {\r... */\n      pop\n      pop\n      pop\n      pop\n        /* \"UniswapV2Router02.sol\":15292:15307  uint amount0Out */\n      0x00\n        /* \"UniswapV2Router02.sol\":15309:15324  uint amount1Out */\n      dup1\n        /* \"UniswapV2Router02.sol\":15337:15343  token0 */\n      dup6\n      sub(shl(0xa0, 0x01), 0x01)\n        /* \"UniswapV2Router02.sol\":15328:15343  input == token0 */\n      and\n        /* \"UniswapV2Router02.sol\":15328:15333  input */\n      dup9\n      sub(shl(0xa0, 0x01), 0x01)\n        /* \"UniswapV2Router02.sol\":15328:15343  input == token0 */\n      and\n      eq\n        /* \"UniswapV2Router02.sol\":15328:15395  input == token0 ? (uint(0), amountOutput) : (amountOutput, uint(0)) */\n      tag_620\n      jumpi\n        /* \"UniswapV2Router02.sol\":15373:15385  amountOutput */\n      dup3\n        /* \"UniswapV2Router02.sol\":15392:15393  0 */\n      0x00\n        /* \"UniswapV2Router02.sol\":15328:15395  input == token0 ? (uint(0), amountOutput) : (amountOutput, uint(0)) */\n      jump(tag_621)\n    tag_620:\n        /* \"UniswapV2Router02.sol\":15352:15353  0 */\n      0x00\n        /* \"UniswapV2Router02.sol\":15356:15368  amountOutput */\n      dup4\n        /* \"UniswapV2Router02.sol\":15328:15395  input == token0 ? (uint(0), amountOutput) : (amountOutput, uint(0)) */\n    tag_621:\n        /* \"UniswapV2Router02.sol\":15291:15395  (uint amount0Out, uint amount1Out) = input == token0 ? (uint(0), amountOutput) : (amountOutput, uint(0)) */\n      swap2\n      pop\n      swap2\n      pop\n        /* \"UniswapV2Router02.sol\":15410:15420  address to */\n      0x00\n        /* \"UniswapV2Router02.sol\":15441:15442  2 */\n      0x02\n        /* \"UniswapV2Router02.sol\":15427:15431  path */\n      dup13\n        /* \"UniswapV2Router02.sol\":15427:15438  path.length */\n      mload\n        /* \"UniswapV2Router02.sol\":15427:15442  path.length - 2 */\n      sub\n        /* \"UniswapV2Router02.sol\":15423:15424  i */\n      dup11\n        /* \"UniswapV2Router02.sol\":15423:15442  i < path.length - 2 */\n      lt\n        /* \"UniswapV2Router02.sol\":15423:15505  i < path.length - 2 ? UniswapV2Library.pairFor(factory, output, path[i + 2]) : _to */\n      tag_622\n      jumpi\n        /* \"UniswapV2Router02.sol\":15502:15505  _to */\n      dup11\n        /* \"UniswapV2Router02.sol\":15423:15505  i < path.length - 2 ? UniswapV2Library.pairFor(factory, output, path[i + 2]) : _to */\n      jump(tag_624)\n    tag_622:\n        /* \"UniswapV2Router02.sol\":15445:15499  UniswapV2Library.pairFor(factory, output, path[i + 2]) */\n      tag_624\n        /* \"UniswapV2Router02.sol\":15470:15477  factory */\n      immutable(\"0xb4bf3508f2fd7bb126e7af9e4fe31dbb3cdf386df5936668ea4d8292a4a1b188\")\n        /* \"UniswapV2Router02.sol\":15479:15485  output */\n      dup10\n        /* \"UniswapV2Router02.sol\":15487:15491  path */\n      dup15\n        /* \"UniswapV2Router02.sol\":15492:15493  i */\n      dup14\n        /* \"UniswapV2Router02.sol\":15496:15497  2 */\n      0x02\n        /* \"UniswapV2Router02.sol\":15492:15497  i + 2 */\n      add\n        /* \"UniswapV2Router02.sol\":15487:15498  path[i + 2] */\n      dup2\n      mload\n      dup2\n      lt\n      tag_575\n      jumpi\n      invalid\n        /* \"UniswapV2Router02.sol\":15445:15499  UniswapV2Library.pairFor(factory, output, path[i + 2]) */\n    tag_624:\n        /* \"UniswapV2Router02.sol\":15558:15570  new bytes(0) */\n      0x40\n      dup1\n      mload\n        /* \"UniswapV2Router02.sol\":15568:15569  0 */\n      0x00\n        /* \"UniswapV2Router02.sol\":15558:15570  new bytes(0) */\n      dup1\n      dup3\n      mstore\n      0x20\n      dup3\n      add\n      swap3\n      dup4\n      swap1\n      mstore\n      shl(0xe0, 0x022c0d9f)\n        /* \"UniswapV2Router02.sol\":15520:15571  pair.swap(amount0Out, amount1Out, to, new bytes(0)) */\n      dup4\n      mstore\n      0x24\n      dup3\n      add\n      dup8\n      dup2\n      mstore\n      0x44\n      dup4\n      add\n      dup8\n      swap1\n      mstore\n      sub(shl(0xa0, 0x01), 0x01)\n      dup1\n      dup7\n      and\n      0x64\n      dup6\n      add\n      mstore\n      0x80\n      0x84\n      dup6\n      add\n      swap1\n      dup2\n      mstore\n      dup5\n      mload\n      0xa4\n      dup7\n      add\n      dup2\n      swap1\n      mstore\n        /* \"UniswapV2Router02.sol\":15410:15505  address to = i < path.length - 2 ? UniswapV2Library.pairFor(factory, output, path[i + 2]) : _to */\n      swap7\n      swap8\n      pop\n        /* \"UniswapV2Router02.sol\":15520:15529  pair.swap */\n      swap1\n      dup13\n      and\n      swap6\n      0x022c0d9f\n      swap6\n        /* \"UniswapV2Router02.sol\":15530:15540  amount0Out */\n      dup11\n      swap6\n        /* \"UniswapV2Router02.sol\":15542:15552  amount1Out */\n      dup11\n      swap6\n        /* \"UniswapV2Router02.sol\":15410:15505  address to = i < path.length - 2 ? UniswapV2Library.pairFor(factory, output, path[i + 2]) : _to */\n      dup11\n      swap6\n        /* \"UniswapV2Router02.sol\":15558:15570  new bytes(0) */\n      swap2\n      swap5\n        /* \"UniswapV2Router02.sol\":15520:15571  pair.swap(amount0Out, amount1Out, to, new bytes(0)) */\n      swap2\n      swap4\n      swap2\n      swap3\n      0xc4\n      dup7\n      add\n      swap3\n        /* \"UniswapV2Router02.sol\":15558:15570  new bytes(0) */\n      swap1\n      swap2\n        /* \"UniswapV2Router02.sol\":15520:15571  pair.swap(amount0Out, amount1Out, to, new bytes(0)) */\n      dup2\n      swap1\n      dup5\n      swap1\n        /* \"UniswapV2Router02.sol\":15558:15570  new bytes(0) */\n      dup5\n      swap1\n        /* \"UniswapV2Router02.sol\":15520:15571  pair.swap(amount0Out, amount1Out, to, new bytes(0)) */\n    tag_628:\n      dup4\n      dup2\n      lt\n      iszero\n      tag_630\n      jumpi\n      dup2\n      dup2\n      add\n      mload\n      dup4\n      dup3\n      add\n      mstore\n      0x20\n      add\n      jump(tag_628)\n    tag_630:\n      pop\n      pop\n      pop\n      pop\n      swap1\n      pop\n      swap1\n      dup2\n      add\n      swap1\n      0x1f\n      and\n      dup1\n      iszero\n      tag_631\n      jumpi\n      dup1\n      dup3\n      sub\n      dup1\n      mload\n      0x01\n      dup4\n      0x20\n      sub\n      0x0100\n      exp\n      sub\n      not\n      and\n      dup2\n      mstore\n      0x20\n      add\n      swap2\n      pop\n    tag_631:\n      pop\n      swap6\n      pop\n      pop\n      pop\n      pop\n      pop\n      pop\n      0x00\n      mload(0x40)\n      dup1\n      dup4\n      sub\n      dup2\n      0x00\n      dup8\n      dup1\n      extcodesize\n      iszero\n      dup1\n      iszero\n      tag_632\n      jumpi\n      0x00\n      dup1\n      revert\n    tag_632:\n      pop\n      gas\n      call\n      iszero\n      dup1\n      iszero\n      tag_634\n      jumpi\n      returndatasize\n      0x00\n      dup1\n      returndatacopy\n      revert(0x00, returndatasize)\n    tag_634:\n      pop\n      pop\n        /* \"UniswapV2Router02.sol\":14483:14486  i++ */\n      0x01\n      swap1\n      swap12\n      add\n      swap11\n      pop\n        /* \"UniswapV2Router02.sol\":14449:15583  for (uint i; i < path.length - 1; i++) {\r... */\n      tag_601\n      swap10\n      pop\n      pop\n      pop\n      pop\n      pop\n      pop\n      pop\n      pop\n      pop\n      pop\n      jump\n        /* \"libraries/SafeMath.sol\":333:462  function sub(uint x, uint y) internal pure returns (uint z) {\r... */\n    tag_310:\n        /* \"libraries/SafeMath.sol\":417:422  x - y */\n      dup1\n      dup3\n      sub\n        /* \"libraries/SafeMath.sol\":412:428  (z = x - y) <= x */\n      dup3\n      dup2\n      gt\n      iszero\n        /* \"libraries/SafeMath.sol\":404:454  require((z = x - y) <= x, 'ds-math-sub-underflow') */\n      tag_235\n      jumpi\n      0x40\n      dup1\n      mload\n      shl(0xe5, 0x461bcd)\n      dup2\n      mstore\n      0x20\n      0x04\n      dup3\n      add\n      mstore\n      0x15\n      0x24\n      dup3\n      add\n      mstore\n      shl(0x58, 0x64732d6d6174682d7375622d756e646572666c6f77)\n      0x44\n      dup3\n      add\n      mstore\n      swap1\n      mload\n      swap1\n      dup2\n      swap1\n      sub\n      0x64\n      add\n      swap1\n      revert\n        /* \"libraries/UniswapV2Library.sol\":3081:3553  function getAmountIn(uint amountOut, uint reserveIn, uint reserveOut) internal pure returns (uint amountIn) {\r... */\n    tag_356:\n        /* \"libraries/UniswapV2Library.sol\":3174:3187  uint amountIn */\n      0x00\n        /* \"libraries/UniswapV2Library.sol\":3220:3221  0 */\n      dup1\n        /* \"libraries/UniswapV2Library.sol\":3208:3217  amountOut */\n      dup5\n        /* \"libraries/UniswapV2Library.sol\":3208:3221  amountOut > 0 */\n      gt\n        /* \"libraries/UniswapV2Library.sol\":3200:3270  require(amountOut > 0, 'UniswapV2Library: INSUFFICIENT_OUTPUT_AMOUNT') */\n      tag_638\n      jumpi\n      mload(0x40)\n      shl(0xe5, 0x461bcd)\n      dup2\n      mstore\n      0x04\n      add\n      dup1\n      dup1\n      0x20\n      add\n      dup3\n      dup2\n      sub\n      dup3\n      mstore\n      0x2c\n      dup2\n      mstore\n      0x20\n      add\n      dup1\n      data_35fb781059090c30aacad20e29b2e40e67f217617fc46f86031ed4eb14923a82\n      0x2c\n      swap2\n      codecopy\n      0x40\n      add\n      swap2\n      pop\n      pop\n      mload(0x40)\n      dup1\n      swap2\n      sub\n      swap1\n      revert\n    tag_638:\n        /* \"libraries/UniswapV2Library.sol\":3301:3302  0 */\n      0x00\n        /* \"libraries/UniswapV2Library.sol\":3289:3298  reserveIn */\n      dup4\n        /* \"libraries/UniswapV2Library.sol\":3289:3302  reserveIn > 0 */\n      gt\n        /* \"libraries/UniswapV2Library.sol\":3289:3320  reserveIn > 0 && reserveOut > 0 */\n      dup1\n      iszero\n      tag_639\n      jumpi\n      pop\n        /* \"libraries/UniswapV2Library.sol\":3319:3320  0 */\n      0x00\n        /* \"libraries/UniswapV2Library.sol\":3306:3316  reserveOut */\n      dup3\n        /* \"libraries/UniswapV2Library.sol\":3306:3320  reserveOut > 0 */\n      gt\n        /* \"libraries/UniswapV2Library.sol\":3289:3320  reserveIn > 0 && reserveOut > 0 */\n    tag_639:\n        /* \"libraries/UniswapV2Library.sol\":3281:3365  require(reserveIn > 0 && reserveOut > 0, 'UniswapV2Library: INSUFFICIENT_LIQUIDITY') */\n      tag_640\n      jumpi\n      mload(0x40)\n      shl(0xe5, 0x461bcd)\n      dup2\n      mstore\n      0x04\n      add\n      dup1\n      dup1\n      0x20\n      add\n      dup3\n      dup2\n      sub\n      dup3\n      mstore\n      0x28\n      dup2\n      mstore\n      0x20\n      add\n      dup1\n      data_7e8d6b265173dbbd87b3b9e2bf4238bea6caf2b2bbeb63f859a738aec9e761c8\n      0x28\n      swap2\n      codecopy\n      0x40\n      add\n      swap2\n      pop\n      pop\n      mload(0x40)\n      dup1\n      swap2\n      sub\n      swap1\n      revert\n    tag_640:\n        /* \"libraries/UniswapV2Library.sol\":3376:3390  uint numerator */\n      0x00\n        /* \"libraries/UniswapV2Library.sol\":3393:3427  reserveIn.mul(amountOut).mul(1000) */\n      tag_641\n        /* \"libraries/UniswapV2Library.sol\":3422:3426  1000 */\n      0x03e8\n        /* \"libraries/UniswapV2Library.sol\":3393:3417  reserveIn.mul(amountOut) */\n      tag_642\n        /* \"libraries/UniswapV2Library.sol\":3393:3402  reserveIn */\n      dup7\n        /* \"libraries/UniswapV2Library.sol\":3407:3416  amountOut */\n      dup9\n        /* \"libraries/UniswapV2Library.sol\":3393:3406  reserveIn.mul */\n      tag_528\n        /* \"libraries/UniswapV2Library.sol\":3393:3417  reserveIn.mul(amountOut) */\n      jump\t// in\n    tag_642:\n        /* \"libraries/UniswapV2Library.sol\":3393:3421  reserveIn.mul(amountOut).mul */\n      swap1\n      tag_528\n        /* \"libraries/UniswapV2Library.sol\":3393:3427  reserveIn.mul(amountOut).mul(1000) */\n      jump\t// in\n    tag_641:\n        /* \"libraries/UniswapV2Library.sol\":3376:3427  uint numerator = reserveIn.mul(amountOut).mul(1000) */\n      swap1\n      pop\n        /* \"libraries/UniswapV2Library.sol\":3438:3454  uint denominator */\n      0x00\n        /* \"libraries/UniswapV2Library.sol\":3457:3491  reserveOut.sub(amountOut).mul(996) */\n      tag_643\n        /* \"libraries/UniswapV2Library.sol\":3487:3490  996 */\n      0x03e4\n        /* \"libraries/UniswapV2Library.sol\":3457:3482  reserveOut.sub(amountOut) */\n      tag_642\n        /* \"libraries/UniswapV2Library.sol\":3457:3467  reserveOut */\n      dup7\n        /* \"libraries/UniswapV2Library.sol\":3472:3481  amountOut */\n      dup10\n        /* \"libraries/UniswapV2Library.sol\":3457:3471  reserveOut.sub */\n      tag_310\n        /* \"libraries/UniswapV2Library.sol\":3457:3482  reserveOut.sub(amountOut) */\n      jump\t// in\n        /* \"libraries/UniswapV2Library.sol\":3457:3491  reserveOut.sub(amountOut).mul(996) */\n    tag_643:\n        /* \"libraries/UniswapV2Library.sol\":3438:3491  uint denominator = reserveOut.sub(amountOut).mul(996) */\n      swap1\n      pop\n        /* \"libraries/UniswapV2Library.sol\":3513:3545  (numerator / denominator).add(1) */\n      tag_645\n        /* \"libraries/UniswapV2Library.sol\":3543:3544  1 */\n      0x01\n        /* \"libraries/UniswapV2Library.sol\":3526:3537  denominator */\n      dup3\n        /* \"libraries/UniswapV2Library.sol\":3514:3523  numerator */\n      dup5\n        /* \"libraries/UniswapV2Library.sol\":3514:3537  numerator / denominator */\n      dup2\n      tag_646\n      jumpi\n      invalid\n    tag_646:\n      div\n      swap1\n        /* \"libraries/UniswapV2Library.sol\":3513:3542  (numerator / denominator).add */\n      tag_532\n        /* \"libraries/UniswapV2Library.sol\":3513:3545  (numerator / denominator).add(1) */\n      jump\t// in\n    tag_645:\n        /* \"libraries/UniswapV2Library.sol\":3502:3545  amountIn = (numerator / denominator).add(1) */\n      swap7\n        /* \"libraries/UniswapV2Library.sol\":3081:3553  function getAmountIn(uint amountOut, uint reserveIn, uint reserveOut) internal pure returns (uint amountIn) {\r... */\n      swap6\n      pop\n      pop\n      pop\n      pop\n      pop\n      pop\n      jump\t// out\n        /* \"libraries/UniswapV2Library.sol\":2000:2321  function quote(uint amountA, uint reserveA, uint reserveB) internal pure returns (uint amountB) {\r... */\n    tag_373:\n        /* \"libraries/UniswapV2Library.sol\":2082:2094  uint amountB */\n      0x00\n        /* \"libraries/UniswapV2Library.sol\":2125:2126  0 */\n      dup1\n        /* \"libraries/UniswapV2Library.sol\":2115:2122  amountA */\n      dup5\n        /* \"libraries/UniswapV2Library.sol\":2115:2126  amountA > 0 */\n      gt\n        /* \"libraries/UniswapV2Library.sol\":2107:2168  require(amountA > 0, 'UniswapV2Library: INSUFFICIENT_AMOUNT') */\n      tag_648\n      jumpi\n      mload(0x40)\n      shl(0xe5, 0x461bcd)\n      dup2\n      mstore\n      0x04\n      add\n      dup1\n      dup1\n      0x20\n      add\n      dup3\n      dup2\n      sub\n      dup3\n      mstore\n      0x25\n      dup2\n      mstore\n      0x20\n      add\n      dup1\n      data_b3ea0cd729028efbc737ad3cde1d4d854e6f2c136b354fbaea9389d68bc3a146\n      0x25\n      swap2\n      codecopy\n      0x40\n      add\n      swap2\n      pop\n      pop\n      mload(0x40)\n      dup1\n      swap2\n      sub\n      swap1\n      revert\n    tag_648:\n        /* \"libraries/UniswapV2Library.sol\":2198:2199  0 */\n      0x00\n        /* \"libraries/UniswapV2Library.sol\":2187:2195  reserveA */\n      dup4\n        /* \"libraries/UniswapV2Library.sol\":2187:2199  reserveA > 0 */\n      gt\n        /* \"libraries/UniswapV2Library.sol\":2187:2215  reserveA > 0 && reserveB > 0 */\n      dup1\n      iszero\n      tag_649\n      jumpi\n      pop\n        /* \"libraries/UniswapV2Library.sol\":2214:2215  0 */\n      0x00\n        /* \"libraries/UniswapV2Library.sol\":2203:2211  reserveB */\n      dup3\n        /* \"libraries/UniswapV2Library.sol\":2203:2215  reserveB > 0 */\n      gt\n        /* \"libraries/UniswapV2Library.sol\":2187:2215  reserveA > 0 && reserveB > 0 */\n    tag_649:\n        /* \"libraries/UniswapV2Library.sol\":2179:2260  require(reserveA > 0 && reserveB > 0, 'UniswapV2Library: INSUFFICIENT_LIQUIDITY') */\n      tag_650\n      jumpi\n      mload(0x40)\n      shl(0xe5, 0x461bcd)\n      dup2\n      mstore\n      0x04\n      add\n      dup1\n      dup1\n      0x20\n      add\n      dup3\n      dup2\n      sub\n      dup3\n      mstore\n      0x28\n      dup2\n      mstore\n      0x20\n      add\n      dup1\n      data_7e8d6b265173dbbd87b3b9e2bf4238bea6caf2b2bbeb63f859a738aec9e761c8\n      0x28\n      swap2\n      codecopy\n      0x40\n      add\n      swap2\n      pop\n      pop\n      mload(0x40)\n      dup1\n      swap2\n      sub\n      swap1\n      revert\n    tag_650:\n        /* \"libraries/UniswapV2Library.sol\":2305:2313  reserveA */\n      dup3\n        /* \"libraries/UniswapV2Library.sol\":2281:2302  amountA.mul(reserveB) */\n      tag_651\n        /* \"libraries/UniswapV2Library.sol\":2281:2288  amountA */\n      dup6\n        /* \"libraries/UniswapV2Library.sol\":2293:2301  reserveB */\n      dup5\n        /* \"libraries/UniswapV2Library.sol\":2281:2292  amountA.mul */\n      tag_528\n        /* \"libraries/UniswapV2Library.sol\":2281:2302  amountA.mul(reserveB) */\n      jump\t// in\n    tag_651:\n        /* \"libraries/UniswapV2Library.sol\":2281:2313  amountA.mul(reserveB) / reserveA */\n      dup2\n      tag_652\n      jumpi\n      invalid\n    tag_652:\n      div\n      swap5\n        /* \"libraries/UniswapV2Library.sol\":2000:2321  function quote(uint amountA, uint reserveA, uint reserveB) internal pure returns (uint amountB) {\r... */\n      swap4\n      pop\n      pop\n      pop\n      pop\n      jump\t// out\n        /* \"libraries/UniswapV2Library.sol\":326:675  function sortTokens(address tokenA, address tokenB) internal pure returns (address token0, address token1) {\r... */\n    tag_429:\n        /* \"libraries/UniswapV2Library.sol\":401:415  address token0 */\n      0x00\n        /* \"libraries/UniswapV2Library.sol\":417:431  address token1 */\n      dup1\n        /* \"libraries/UniswapV2Library.sol\":462:468  tokenB */\n      dup3\n      sub(shl(0xa0, 0x01), 0x01)\n        /* \"libraries/UniswapV2Library.sol\":452:468  tokenA != tokenB */\n      and\n        /* \"libraries/UniswapV2Library.sol\":452:458  tokenA */\n      dup5\n      sub(shl(0xa0, 0x01), 0x01)\n        /* \"libraries/UniswapV2Library.sol\":452:468  tokenA != tokenB */\n      and\n      eq\n      iszero\n        /* \"libraries/UniswapV2Library.sol\":444:510  require(tokenA != tokenB, 'UniswapV2Library: IDENTICAL_ADDRESSES') */\n      tag_654\n      jumpi\n      mload(0x40)\n      shl(0xe5, 0x461bcd)\n      dup2\n      mstore\n      0x04\n      add\n      dup1\n      dup1\n      0x20\n      add\n      dup3\n      dup2\n      sub\n      dup3\n      mstore\n      0x25\n      dup2\n      mstore\n      0x20\n      add\n      dup1\n      data_4ddc3ca35a8b7ccaa016ab70252fdf3396ded4f4fd8375f95b1e9d99790fcdca\n      0x25\n      swap2\n      codecopy\n      0x40\n      add\n      swap2\n      pop\n      pop\n      mload(0x40)\n      dup1\n      swap2\n      sub\n      swap1\n      revert\n    tag_654:\n        /* \"libraries/UniswapV2Library.sol\":549:555  tokenB */\n      dup3\n      sub(shl(0xa0, 0x01), 0x01)\n        /* \"libraries/UniswapV2Library.sol\":540:555  tokenA < tokenB */\n      and\n        /* \"libraries/UniswapV2Library.sol\":540:546  tokenA */\n      dup5\n      sub(shl(0xa0, 0x01), 0x01)\n        /* \"libraries/UniswapV2Library.sol\":540:555  tokenA < tokenB */\n      and\n      lt\n        /* \"libraries/UniswapV2Library.sol\":540:593  tokenA < tokenB ? (tokenA, tokenB) : (tokenB, tokenA) */\n      tag_655\n      jumpi\n        /* \"libraries/UniswapV2Library.sol\":578:584  tokenB */\n      dup3\n        /* \"libraries/UniswapV2Library.sol\":586:592  tokenA */\n      dup5\n        /* \"libraries/UniswapV2Library.sol\":540:593  tokenA < tokenB ? (tokenA, tokenB) : (tokenB, tokenA) */\n      jump(tag_656)\n    tag_655:\n        /* \"libraries/UniswapV2Library.sol\":559:565  tokenA */\n      dup4\n        /* \"libraries/UniswapV2Library.sol\":567:573  tokenB */\n      dup4\n        /* \"libraries/UniswapV2Library.sol\":540:593  tokenA < tokenB ? (tokenA, tokenB) : (tokenB, tokenA) */\n    tag_656:\n        /* \"libraries/UniswapV2Library.sol\":521:593  (token0, token1) = tokenA < tokenB ? (tokenA, tokenB) : (tokenB, tokenA) */\n      swap1\n      swap3\n      pop\n      swap1\n      pop\n      sub(shl(0xa0, 0x01), 0x01)\n        /* \"libraries/UniswapV2Library.sol\":612:632  token0 != address(0) */\n      dup3\n      and\n        /* \"libraries/UniswapV2Library.sol\":604:667  require(token0 != address(0), 'UniswapV2Library: ZERO_ADDRESS') */\n      tag_657\n      jumpi\n      0x40\n      dup1\n      mload\n      shl(0xe5, 0x461bcd)\n      dup2\n      mstore\n      0x20\n      0x04\n      dup3\n      add\n      mstore\n      0x1e\n      0x24\n      dup3\n      add\n      mstore\n      0x556e697377617056324c6962726172793a205a45524f5f414444524553530000\n      0x44\n      dup3\n      add\n      mstore\n      swap1\n      mload\n      swap1\n      dup2\n      swap1\n      sub\n      0x64\n      add\n      swap1\n      revert\n    tag_657:\n        /* \"libraries/UniswapV2Library.sol\":326:675  function sortTokens(address tokenA, address tokenB) internal pure returns (address token0, address token1) {\r... */\n      swap3\n      pop\n      swap3\n      swap1\n      pop\n      jump\t// out\n        /* \"UniswapV2Router02.sol\":1082:2472  function _addLiquidity(\r... */\n    tag_448:\n        /* \"UniswapV2Router02.sol\":1300:1312  uint amountA */\n      0x00\n        /* \"UniswapV2Router02.sol\":1314:1326  uint amountB */\n      dup1\n        /* \"UniswapV2Router02.sol\":1457:1458  0 */\n      0x00\n      sub(shl(0xa0, 0x01), 0x01)\n        /* \"UniswapV2Router02.sol\":1395:1459  IUniswapV2Factory(factory).getPair(tokenA, tokenB) == address(0) */\n      and\n        /* \"UniswapV2Router02.sol\":1413:1420  factory */\n      immutable(\"0xb4bf3508f2fd7bb126e7af9e4fe31dbb3cdf386df5936668ea4d8292a4a1b188\")\n      sub(shl(0xa0, 0x01), 0x01)\n        /* \"UniswapV2Router02.sol\":1395:1429  IUniswapV2Factory(factory).getPair */\n      and\n      0xe6a43905\n        /* \"UniswapV2Router02.sol\":1430:1436  tokenA */\n      dup11\n        /* \"UniswapV2Router02.sol\":1438:1444  tokenB */\n      dup11\n        /* \"UniswapV2Router02.sol\":1395:1445  IUniswapV2Factory(factory).getPair(tokenA, tokenB) */\n      mload(0x40)\n      dup4\n      0xffffffff\n      and\n      0xe0\n      shl\n      dup2\n      mstore\n      0x04\n      add\n      dup1\n      dup4\n      sub(shl(0xa0, 0x01), 0x01)\n      and\n      dup2\n      mstore\n      0x20\n      add\n      dup3\n      sub(shl(0xa0, 0x01), 0x01)\n      and\n      dup2\n      mstore\n      0x20\n      add\n      swap3\n      pop\n      pop\n      pop\n      0x20\n      mload(0x40)\n      dup1\n      dup4\n      sub\n      dup2\n      dup7\n      dup1\n      extcodesize\n      iszero\n      dup1\n      iszero\n      tag_659\n      jumpi\n      0x00\n      dup1\n      revert\n    tag_659:\n      pop\n      gas\n      staticcall\n      iszero\n      dup1\n      iszero\n      tag_661\n      jumpi\n      returndatasize\n      0x00\n      dup1\n      returndatacopy\n      revert(0x00, returndatasize)\n    tag_661:\n      pop\n      pop\n      pop\n      pop\n      mload(0x40)\n      returndatasize\n      0x20\n      dup2\n      lt\n      iszero\n      tag_662\n      jumpi\n      0x00\n      dup1\n      revert\n    tag_662:\n      pop\n      mload\n      sub(shl(0xa0, 0x01), 0x01)\n        /* \"UniswapV2Router02.sol\":1395:1459  IUniswapV2Factory(factory).getPair(tokenA, tokenB) == address(0) */\n      and\n      eq\n        /* \"UniswapV2Router02.sol\":1391:1541  if (IUniswapV2Factory(factory).getPair(tokenA, tokenB) == address(0)) {\r... */\n      iszero\n      tag_663\n      jumpi\n        /* \"UniswapV2Router02.sol\":1494:1501  factory */\n      immutable(\"0xb4bf3508f2fd7bb126e7af9e4fe31dbb3cdf386df5936668ea4d8292a4a1b188\")\n      sub(shl(0xa0, 0x01), 0x01)\n        /* \"UniswapV2Router02.sol\":1476:1513  IUniswapV2Factory(factory).createPair */\n      and\n      0xc9c65396\n        /* \"UniswapV2Router02.sol\":1514:1520  tokenA */\n      dup10\n        /* \"UniswapV2Router02.sol\":1522:1528  tokenB */\n      dup10\n        /* \"UniswapV2Router02.sol\":1476:1529  IUniswapV2Factory(factory).createPair(tokenA, tokenB) */\n      mload(0x40)\n      dup4\n      0xffffffff\n      and\n      0xe0\n      shl\n      dup2\n      mstore\n      0x04\n      add\n      dup1\n      dup4\n      sub(shl(0xa0, 0x01), 0x01)\n      and\n      dup2\n      mstore\n      0x20\n      add\n      dup3\n      sub(shl(0xa0, 0x01), 0x01)\n      and\n      dup2\n      mstore\n      0x20\n      add\n      swap3\n      pop\n      pop\n      pop\n      0x20\n      mload(0x40)\n      dup1\n      dup4\n      sub\n      dup2\n      0x00\n      dup8\n      dup1\n      extcodesize\n      iszero\n      dup1\n      iszero\n      tag_664\n      jumpi\n      0x00\n      dup1\n      revert\n    tag_664:\n      pop\n      gas\n      call\n      iszero\n      dup1\n      iszero\n      tag_666\n      jumpi\n      returndatasize\n      0x00\n      dup1\n      returndatacopy\n      revert(0x00, returndatasize)\n    tag_666:\n      pop\n      pop\n      pop\n      pop\n      mload(0x40)\n      returndatasize\n      0x20\n      dup2\n      lt\n      iszero\n      tag_667\n      jumpi\n      0x00\n      dup1\n      revert\n    tag_667:\n      pop\n      pop\n        /* \"UniswapV2Router02.sol\":1391:1541  if (IUniswapV2Factory(factory).getPair(tokenA, tokenB) == address(0)) {\r... */\n    tag_663:\n        /* \"UniswapV2Router02.sol\":1552:1565  uint reserveA */\n      0x00\n        /* \"UniswapV2Router02.sol\":1567:1580  uint reserveB */\n      dup1\n        /* \"UniswapV2Router02.sol\":1584:1637  UniswapV2Library.getReserves(factory, tokenA, tokenB) */\n      tag_668\n        /* \"UniswapV2Router02.sol\":1613:1620  factory */\n      immutable(\"0xb4bf3508f2fd7bb126e7af9e4fe31dbb3cdf386df5936668ea4d8292a4a1b188\")\n        /* \"UniswapV2Router02.sol\":1622:1628  tokenA */\n      dup12\n        /* \"UniswapV2Router02.sol\":1630:1636  tokenB */\n      dup12\n        /* \"UniswapV2Router02.sol\":1584:1612  UniswapV2Library.getReserves */\n      tag_545\n        /* \"UniswapV2Router02.sol\":1584:1637  UniswapV2Library.getReserves(factory, tokenA, tokenB) */\n      jump\t// in\n    tag_668:\n        /* \"UniswapV2Router02.sol\":1551:1637  (uint reserveA, uint reserveB) = UniswapV2Library.getReserves(factory, tokenA, tokenB) */\n      swap2\n      pop\n      swap2\n      pop\n        /* \"UniswapV2Router02.sol\":1652:1660  reserveA */\n      dup2\n        /* \"UniswapV2Router02.sol\":1664:1665  0 */\n      0x00\n        /* \"UniswapV2Router02.sol\":1652:1665  reserveA == 0 */\n      eq\n        /* \"UniswapV2Router02.sol\":1652:1682  reserveA == 0 && reserveB == 0 */\n      dup1\n      iszero\n      tag_669\n      jumpi\n      pop\n        /* \"UniswapV2Router02.sol\":1669:1682  reserveB == 0 */\n      dup1\n      iszero\n        /* \"UniswapV2Router02.sol\":1652:1682  reserveA == 0 && reserveB == 0 */\n    tag_669:\n        /* \"UniswapV2Router02.sol\":1648:2465  if (reserveA == 0 && reserveB == 0) {\r... */\n      iszero\n      tag_670\n      jumpi\n        /* \"UniswapV2Router02.sol\":1721:1735  amountADesired */\n      dup8\n      swap4\n      pop\n        /* \"UniswapV2Router02.sol\":1737:1751  amountBDesired */\n      dup7\n      swap3\n      pop\n        /* \"UniswapV2Router02.sol\":1648:2465  if (reserveA == 0 && reserveB == 0) {\r... */\n      jump(tag_671)\n    tag_670:\n        /* \"UniswapV2Router02.sol\":1785:1804  uint amountBOptimal */\n      0x00\n        /* \"UniswapV2Router02.sol\":1807:1865  UniswapV2Library.quote(amountADesired, reserveA, reserveB) */\n      tag_672\n        /* \"UniswapV2Router02.sol\":1830:1844  amountADesired */\n      dup10\n        /* \"UniswapV2Router02.sol\":1846:1854  reserveA */\n      dup5\n        /* \"UniswapV2Router02.sol\":1856:1864  reserveB */\n      dup5\n        /* \"UniswapV2Router02.sol\":1807:1829  UniswapV2Library.quote */\n      tag_373\n        /* \"UniswapV2Router02.sol\":1807:1865  UniswapV2Library.quote(amountADesired, reserveA, reserveB) */\n      jump\t// in\n    tag_672:\n        /* \"UniswapV2Router02.sol\":1785:1865  uint amountBOptimal = UniswapV2Library.quote(amountADesired, reserveA, reserveB) */\n      swap1\n      pop\n        /* \"UniswapV2Router02.sol\":1902:1916  amountBDesired */\n      dup8\n        /* \"UniswapV2Router02.sol\":1884:1898  amountBOptimal */\n      dup2\n        /* \"UniswapV2Router02.sol\":1884:1916  amountBOptimal <= amountBDesired */\n      gt\n        /* \"UniswapV2Router02.sol\":1880:2454  if (amountBOptimal <= amountBDesired) {\r... */\n      tag_673\n      jumpi\n        /* \"UniswapV2Router02.sol\":1963:1973  amountBMin */\n      dup6\n        /* \"UniswapV2Router02.sol\":1945:1959  amountBOptimal */\n      dup2\n        /* \"UniswapV2Router02.sol\":1945:1973  amountBOptimal >= amountBMin */\n      lt\n      iszero\n        /* \"UniswapV2Router02.sol\":1937:2016  require(amountBOptimal >= amountBMin, 'UniswapV2Router: INSUFFICIENT_B_AMOUNT') */\n      tag_674\n      jumpi\n      mload(0x40)\n      shl(0xe5, 0x461bcd)\n      dup2\n      mstore\n      0x04\n      add\n      dup1\n      dup1\n      0x20\n      add\n      dup3\n      dup2\n      sub\n      dup3\n      mstore\n      0x26\n      dup2\n      mstore\n      0x20\n      add\n      dup1\n      data_508673fa99dd55571c7741114b40754785309d1a2171022cd7c5caaae38fc7b6\n      0x26\n      swap2\n      codecopy\n      0x40\n      add\n      swap2\n      pop\n      pop\n      mload(0x40)\n      dup1\n      swap2\n      sub\n      swap1\n      revert\n    tag_674:\n        /* \"UniswapV2Router02.sol\":2057:2071  amountADesired */\n      dup9\n      swap5\n      pop\n        /* \"UniswapV2Router02.sol\":2073:2087  amountBOptimal */\n      swap3\n      pop\n      dup3\n        /* \"UniswapV2Router02.sol\":1880:2454  if (amountBOptimal <= amountBDesired) {\r... */\n      jump(tag_675)\n    tag_673:\n        /* \"UniswapV2Router02.sol\":2129:2148  uint amountAOptimal */\n      0x00\n        /* \"UniswapV2Router02.sol\":2151:2209  UniswapV2Library.quote(amountBDesired, reserveB, reserveA) */\n      tag_676\n        /* \"UniswapV2Router02.sol\":2174:2188  amountBDesired */\n      dup10\n        /* \"UniswapV2Router02.sol\":2190:2198  reserveB */\n      dup5\n        /* \"UniswapV2Router02.sol\":2200:2208  reserveA */\n      dup7\n        /* \"UniswapV2Router02.sol\":2151:2173  UniswapV2Library.quote */\n      tag_373\n        /* \"UniswapV2Router02.sol\":2151:2209  UniswapV2Library.quote(amountBDesired, reserveB, reserveA) */\n      jump\t// in\n    tag_676:\n        /* \"UniswapV2Router02.sol\":2129:2209  uint amountAOptimal = UniswapV2Library.quote(amountBDesired, reserveB, reserveA) */\n      swap1\n      pop\n        /* \"UniswapV2Router02.sol\":2253:2267  amountADesired */\n      dup10\n        /* \"UniswapV2Router02.sol\":2235:2249  amountAOptimal */\n      dup2\n        /* \"UniswapV2Router02.sol\":2235:2267  amountAOptimal <= amountADesired */\n      gt\n      iszero\n        /* \"UniswapV2Router02.sol\":2228:2268  assert(amountAOptimal <= amountADesired) */\n      tag_677\n      jumpi\n      invalid\n    tag_677:\n        /* \"UniswapV2Router02.sol\":2313:2323  amountAMin */\n      dup8\n        /* \"UniswapV2Router02.sol\":2295:2309  amountAOptimal */\n      dup2\n        /* \"UniswapV2Router02.sol\":2295:2323  amountAOptimal >= amountAMin */\n      lt\n      iszero\n        /* \"UniswapV2Router02.sol\":2287:2366  require(amountAOptimal >= amountAMin, 'UniswapV2Router: INSUFFICIENT_A_AMOUNT') */\n      tag_678\n      jumpi\n      mload(0x40)\n      shl(0xe5, 0x461bcd)\n      dup2\n      mstore\n      0x04\n      add\n      dup1\n      dup1\n      0x20\n      add\n      dup3\n      dup2\n      sub\n      dup3\n      mstore\n      0x26\n      dup2\n      mstore\n      0x20\n      add\n      dup1\n      data_d1d32edc232bc1da2150d590567c5d6321ade8a80edcd2485e6068d018c7fd67\n      0x26\n      swap2\n      codecopy\n      0x40\n      add\n      swap2\n      pop\n      pop\n      mload(0x40)\n      dup1\n      swap2\n      sub\n      swap1\n      revert\n    tag_678:\n        /* \"UniswapV2Router02.sol\":2407:2421  amountAOptimal */\n      swap5\n      pop\n        /* \"UniswapV2Router02.sol\":2423:2437  amountBDesired */\n      dup8\n      swap4\n      pop\n        /* \"UniswapV2Router02.sol\":1880:2454  if (amountBOptimal <= amountBDesired) {\r... */\n    tag_675:\n        /* \"UniswapV2Router02.sol\":1648:2465  if (reserveA == 0 && reserveB == 0) {\r... */\n      pop\n    tag_671:\n        /* \"UniswapV2Router02.sol\":1082:2472  function _addLiquidity(\r... */\n      pop\n      pop\n      swap7\n      pop\n      swap7\n      swap5\n      pop\n      pop\n      pop\n      pop\n      pop\n      jump\t// out\n        /* \"libraries/SafeMath.sol\":470:612  function mul(uint x, uint y) internal pure returns (uint z) {\r... */\n    tag_528:\n        /* \"libraries/SafeMath.sol\":522:528  uint z */\n      0x00\n        /* \"libraries/SafeMath.sol\":549:555  y == 0 */\n      dup2\n      iszero\n      dup1\n        /* \"libraries/SafeMath.sol\":549:579  y == 0 || (z = x * y) / y == x */\n      tag_680\n      jumpi\n      pop\n      pop\n        /* \"libraries/SafeMath.sol\":564:569  x * y */\n      dup1\n      dup3\n      mul\n        /* \"libraries/SafeMath.sol\":578:579  x */\n      dup3\n        /* \"libraries/SafeMath.sol\":573:574  y */\n      dup3\n        /* \"libraries/SafeMath.sol\":564:569  x * y */\n      dup3\n        /* \"libraries/SafeMath.sol\":573:574  y */\n      dup2\n        /* \"libraries/SafeMath.sol\":559:574  (z = x * y) / y */\n      tag_681\n      jumpi\n      invalid\n    tag_681:\n      div\n        /* \"libraries/SafeMath.sol\":559:579  (z = x * y) / y == x */\n      eq\n        /* \"libraries/SafeMath.sol\":549:579  y == 0 || (z = x * y) / y == x */\n    tag_680:\n        /* \"libraries/SafeMath.sol\":541:604  require(y == 0 || (z = x * y) / y == x, 'ds-math-mul-overflow') */\n      tag_235\n      jumpi\n      0x40\n      dup1\n      mload\n      shl(0xe5, 0x461bcd)\n      dup2\n      mstore\n      0x20\n      0x04\n      dup3\n      add\n      mstore\n      0x14\n      0x24\n      dup3\n      add\n      mstore\n      shl(0x60, 0x64732d6d6174682d6d756c2d6f766572666c6f77)\n      0x44\n      dup3\n      add\n      mstore\n      swap1\n      mload\n      swap1\n      dup2\n      swap1\n      sub\n      0x64\n      add\n      swap1\n      revert\n        /* \"libraries/SafeMath.sol\":197:325  function add(uint x, uint y) internal pure returns (uint z) {\r... */\n    tag_532:\n        /* \"libraries/SafeMath.sol\":281:286  x + y */\n      dup1\n      dup3\n      add\n        /* \"libraries/SafeMath.sol\":276:292  (z = x + y) >= x */\n      dup3\n      dup2\n      lt\n      iszero\n        /* \"libraries/SafeMath.sol\":268:317  require((z = x + y) >= x, 'ds-math-add-overflow') */\n      tag_235\n      jumpi\n      0x40\n      dup1\n      mload\n      shl(0xe5, 0x461bcd)\n      dup2\n      mstore\n      0x20\n      0x04\n      dup3\n      add\n      mstore\n      0x14\n      0x24\n      dup3\n      add\n      mstore\n      shl(0x60, 0x64732d6d6174682d6164642d6f766572666c6f77)\n      0x44\n      dup3\n      add\n      mstore\n      swap1\n      mload\n      swap1\n      dup2\n      swap1\n      sub\n      0x64\n      add\n      swap1\n      revert\n        /* \"libraries/UniswapV2Library.sol\":1460:1887  function getReserves(\r... */\n    tag_545:\n        /* \"libraries/UniswapV2Library.sol\":1587:1600  uint reserveA */\n      0x00\n        /* \"libraries/UniswapV2Library.sol\":1602:1615  uint reserveB */\n      dup1\n        /* \"libraries/UniswapV2Library.sol\":1629:1643  address token0 */\n      0x00\n        /* \"libraries/UniswapV2Library.sol\":1649:1675  sortTokens(tokenA, tokenB) */\n      tag_686\n        /* \"libraries/UniswapV2Library.sol\":1660:1666  tokenA */\n      dup6\n        /* \"libraries/UniswapV2Library.sol\":1668:1674  tokenB */\n      dup6\n        /* \"libraries/UniswapV2Library.sol\":1649:1659  sortTokens */\n      tag_429\n        /* \"libraries/UniswapV2Library.sol\":1649:1675  sortTokens(tokenA, tokenB) */\n      jump\t// in\n    tag_686:\n        /* \"libraries/UniswapV2Library.sol\":1628:1675  (address token0, ) = sortTokens(tokenA, tokenB) */\n      pop\n      swap1\n      pop\n        /* \"libraries/UniswapV2Library.sol\":1687:1700  uint reserve0 */\n      0x00\n        /* \"libraries/UniswapV2Library.sol\":1702:1715  uint reserve1 */\n      dup1\n        /* \"libraries/UniswapV2Library.sol\":1736:1768  pairFor(factory, tokenA, tokenB) */\n      tag_687\n        /* \"libraries/UniswapV2Library.sol\":1744:1751  factory */\n      dup9\n        /* \"libraries/UniswapV2Library.sol\":1753:1759  tokenA */\n      dup9\n        /* \"libraries/UniswapV2Library.sol\":1761:1767  tokenB */\n      dup9\n        /* \"libraries/UniswapV2Library.sol\":1736:1743  pairFor */\n      tag_224\n        /* \"libraries/UniswapV2Library.sol\":1736:1768  pairFor(factory, tokenA, tokenB) */\n      jump\t// in\n    tag_687:\n      sub(shl(0xa0, 0x01), 0x01)\n        /* \"libraries/UniswapV2Library.sol\":1721:1781  IUniswapV2Pair(pairFor(factory, tokenA, tokenB)).getReserves */\n      and\n      0x0902f1ac\n        /* \"libraries/UniswapV2Library.sol\":1721:1783  IUniswapV2Pair(pairFor(factory, tokenA, tokenB)).getReserves() */\n      mload(0x40)\n      dup2\n      0xffffffff\n      and\n      0xe0\n      shl\n      dup2\n      mstore\n      0x04\n      add\n      0x60\n      mload(0x40)\n      dup1\n      dup4\n      sub\n      dup2\n      dup7\n      dup1\n      extcodesize\n      iszero\n      dup1\n      iszero\n      tag_688\n      jumpi\n      0x00\n      dup1\n      revert\n    tag_688:\n      pop\n      gas\n      staticcall\n      iszero\n      dup1\n      iszero\n      tag_690\n      jumpi\n      returndatasize\n      0x00\n      dup1\n      returndatacopy\n      revert(0x00, returndatasize)\n    tag_690:\n      pop\n      pop\n      pop\n      pop\n      mload(0x40)\n      returndatasize\n      0x60\n      dup2\n      lt\n      iszero\n      tag_691\n      jumpi\n      0x00\n      dup1\n      revert\n    tag_691:\n      pop\n      dup1\n      mload\n      0x20\n      swap1\n      swap2\n      add\n      mload\n      sub(shl(0x70, 0x01), 0x01)\n        /* \"libraries/UniswapV2Library.sol\":1686:1783  (uint reserve0, uint reserve1, ) = IUniswapV2Pair(pairFor(factory, tokenA, tokenB)).getReserves() */\n      swap2\n      dup3\n      and\n      swap4\n      pop\n      and\n      swap1\n      pop\n      sub(shl(0xa0, 0x01), 0x01)\n        /* \"libraries/UniswapV2Library.sol\":1817:1833  tokenA == token0 */\n      dup8\n      dup2\n      and\n      swap1\n      dup5\n      and\n      eq\n        /* \"libraries/UniswapV2Library.sol\":1817:1879  tokenA == token0 ? (reserve0, reserve1) : (reserve1, reserve0) */\n      tag_692\n      jumpi\n        /* \"libraries/UniswapV2Library.sol\":1860:1868  reserve1 */\n      dup1\n        /* \"libraries/UniswapV2Library.sol\":1870:1878  reserve0 */\n      dup3\n        /* \"libraries/UniswapV2Library.sol\":1817:1879  tokenA == token0 ? (reserve0, reserve1) : (reserve1, reserve0) */\n      jump(tag_693)\n    tag_692:\n        /* \"libraries/UniswapV2Library.sol\":1837:1845  reserve0 */\n      dup2\n        /* \"libraries/UniswapV2Library.sol\":1847:1855  reserve1 */\n      dup2\n        /* \"libraries/UniswapV2Library.sol\":1817:1879  tokenA == token0 ? (reserve0, reserve1) : (reserve1, reserve0) */\n    tag_693:\n        /* \"libraries/UniswapV2Library.sol\":1794:1879  (reserveA, reserveB) = tokenA == token0 ? (reserve0, reserve1) : (reserve1, reserve0) */\n      swap1\n      swap10\n      swap1\n      swap9\n      pop\n        /* \"libraries/UniswapV2Library.sol\":1460:1887  function getReserves(\r... */\n      swap7\n      pop\n      pop\n      pop\n      pop\n      pop\n      pop\n      pop\n      jump\t// out\n    stop\n    data_35fb781059090c30aacad20e29b2e40e67f217617fc46f86031ed4eb14923a82 556e697377617056324c6962726172793a20494e53554646494349454e545f4f55545055545f414d4f554e54\n    data_3f8faf98afe9344b6d4b0e75b0101259bf282914b3b5a9320c6918b6e27ede1c 5472616e7366657248656c7065723a3a7472616e7366657246726f6d3a207472616e7366657246726f6d206661696c6564\n    data_43d7bec223ecf9eb06ea147e7d564bc71c2448662d62a4ea86ce71fc4518b350 5472616e7366657248656c7065723a3a736166655472616e736665724554483a20455448207472616e73666572206661696c6564\n    data_4ddc3ca35a8b7ccaa016ab70252fdf3396ded4f4fd8375f95b1e9d99790fcdca 556e697377617056324c6962726172793a204944454e544943414c5f414444524553534553\n    data_508673fa99dd55571c7741114b40754785309d1a2171022cd7c5caaae38fc7b6 556e69737761705632526f757465723a20494e53554646494349454e545f425f414d4f554e54\n    data_7e8d6b265173dbbd87b3b9e2bf4238bea6caf2b2bbeb63f859a738aec9e761c8 556e697377617056324c6962726172793a20494e53554646494349454e545f4c4951554944495459\n    data_b3ea0cd729028efbc737ad3cde1d4d854e6f2c136b354fbaea9389d68bc3a146 556e697377617056324c6962726172793a20494e53554646494349454e545f414d4f554e54\n    data_bb18004cd22eaad7ea393d184ea6ac1df1428db36bb6fbff8af486232d68ae2c 556e69737761705632526f757465723a204558434553534956455f494e5055545f414d4f554e54\n    data_c80e789ddaeb930b746bbbcb3afe8331d926679fd96f65d8c7468b735c0a14f2 556e69737761705632526f757465723a20494e56414c49445f50415448000000\n    data_d1d32edc232bc1da2150d590567c5d6321ade8a80edcd2485e6068d018c7fd67 556e69737761705632526f757465723a20494e53554646494349454e545f415f414d4f554e54\n    data_d4ea67bea551891ab36be726b8e631181246034dffcfd5c0bbfad1e9d1729432 556e69737761705632526f757465723a20494e53554646494349454e545f4f55545055545f414d4f554e54\n    data_daea69421eeb1164e163c36f3d4349f0db3ec4e0d1381bd5bf4faf53496c2611 5472616e7366657248656c7065723a3a736166655472616e736665723a207472616e73666572206661696c6564\n    data_ec21b006eb37ef20d0f4abcabd34de6854fa68af48294244e0263dc05c1dbbae 556e697377617056324c6962726172793a20494e53554646494349454e545f494e5055545f414d4f554e54\n    data_ee5734acb032ffb1bbaf889d52ccf9fbd1ce0f1ae12bee2c46068d51b910e2c5 556e69737761705632526f757465723a20455850495245440000000000000000\n\n    auxdata: 0xa26469706673582212200dd412022b492f875593f4c9b11989cd5c00bc2d7b36a25c5fed6dc82f8871a764736f6c634300060c0033\n}\n",
				"bytecode": {
					"linkReferences": {},
					"object": "60c060405234801561001057600080fd5b50604051620047e1380380620047e18339818101604052606081101561003557600080fd5b50805160208201516040909201516001600160601b0319606092831b81166080529290911b90911660a05260005560805160601c60a05160601c61465062000191600039806101b05280610d895280610dc45280610ebb52806110d9528061146952806115cf528061197e5280611a595280611b335280611c015280611d475280611dcf528061201952806120945280612148528061221452806122a9528061231d52806128005280612a6a5280612ac05280612af45280612b685280612cf65280612e395280612ec1525080610f495280611020528061119f52806111d8528061131952806114f752806115ad528061171d5280611c945280611e015280611f5b528061234f528061258d528061278552806127ae52806127de528061294b5280612a9e5280612d895280612ef3528061376352806137a65280613a805280613bf65280613fe752806140a0528061415352506146506000f3fe6080604052600436106101a05760003560e01c80638803dbee116100ec578063baa2abde1161008a578063ded9382a11610064578063ded9382a14610b7f578063e8e3370014610bf2578063f305d71914610c72578063fb3bdb4114610cb8576101d9565b8063baa2abde14610a58578063c45a015514610ab5578063d06ca61f14610aca576101d9565b8063ad5c4648116100c6578063ad5c46481461091a578063ad615dec1461094b578063af2979eb14610981578063b6f9de95146109d4576101d9565b80638803dbee146108455780638beb60b6146108db578063a0be06f914610905576101d9565b806338ed1739116101595780635c11d795116101335780635c11d7951461065f578063791ac947146106f55780637ff36ab51461078b57806385f8c2591461080f576101d9565b806338ed1739146104c05780634a25d94a146105565780635b0d5984146105ec576101d9565b806302751cec146101de578063054d50d41461024a57806318cbafe5146102925780631f00ca74146103785780632195995c1461042d5780632a905ccc146104ab576101d9565b366101d957336001600160a01b037f000000000000000000000000000000000000000000000000000000000000000016146101d757fe5b005b600080fd5b3480156101ea57600080fd5b50610231600480360360c081101561020157600080fd5b506001600160a01b0381358116916020810135916040820135916060810135916080820135169060a00135610d3c565b6040805192835260208301919091528051918290030190f35b34801561025657600080fd5b506102806004803603606081101561026d57600080fd5b5080359060208101359060400135610e56565b60408051918252519081900360200190f35b34801561029e57600080fd5b50610328600480360360a08110156102b557600080fd5b813591602081013591810190606081016040820135600160201b8111156102db57600080fd5b8201836020820111156102ed57600080fd5b803590602001918460208302840111600160201b8311171561030e57600080fd5b91935091506001600160a01b038135169060200135610e6b565b60408051602080825283518183015283519192839290830191858101910280838360005b8381101561036457818101518382015260200161034c565b505050509050019250505060405180910390f35b34801561038457600080fd5b506103286004803603604081101561039b57600080fd5b81359190810190604081016020820135600160201b8111156103bc57600080fd5b8201836020820111156103ce57600080fd5b803590602001918460208302840111600160201b831117156103ef57600080fd5b919080806020026020016040519081016040528093929190818152602001838360200280828437600092019190915250929550611198945050505050565b34801561043957600080fd5b50610231600480360361016081101561045157600080fd5b506001600160a01b038135811691602081013582169160408201359160608101359160808201359160a08101359091169060c08101359060e081013515159060ff61010082013516906101208101359061014001356111ce565b3480156104b757600080fd5b506102806112c8565b3480156104cc57600080fd5b50610328600480360360a08110156104e357600080fd5b813591602081013591810190606081016040820135600160201b81111561050957600080fd5b82018360208201111561051b57600080fd5b803590602001918460208302840111600160201b8311171561053c57600080fd5b91935091506001600160a01b0381351690602001356112ce565b34801561056257600080fd5b50610328600480360360a081101561057957600080fd5b813591602081013591810190606081016040820135600160201b81111561059f57600080fd5b8201836020820111156105b157600080fd5b803590602001918460208302840111600160201b831117156105d257600080fd5b91935091506001600160a01b038135169060200135611419565b3480156105f857600080fd5b50610280600480360361014081101561061057600080fd5b506001600160a01b0381358116916020810135916040820135916060810135916080820135169060a08101359060c081013515159060ff60e082013516906101008101359061012001356115a5565b34801561066b57600080fd5b506101d7600480360360a081101561068257600080fd5b813591602081013591810190606081016040820135600160201b8111156106a857600080fd5b8201836020820111156106ba57600080fd5b803590602001918460208302840111600160201b831117156106db57600080fd5b91935091506001600160a01b0381351690602001356116b3565b34801561070157600080fd5b506101d7600480360360a081101561071857600080fd5b813591602081013591810190606081016040820135600160201b81111561073e57600080fd5b82018360208201111561075057600080fd5b803590602001918460208302840111600160201b8311171561077157600080fd5b91935091506001600160a01b038135169060200135611930565b610328600480360360808110156107a157600080fd5b81359190810190604081016020820135600160201b8111156107c257600080fd5b8201836020820111156107d457600080fd5b803590602001918460208302840111600160201b831117156107f557600080fd5b91935091506001600160a01b038135169060200135611bb9565b34801561081b57600080fd5b506102806004803603606081101561083257600080fd5b5080359060208101359060400135611f03565b34801561085157600080fd5b50610328600480360360a081101561086857600080fd5b813591602081013591810190606081016040820135600160201b81111561088e57600080fd5b8201836020820111156108a057600080fd5b803590602001918460208302840111600160201b831117156108c157600080fd5b91935091506001600160a01b038135169060200135611f10565b3480156108e757600080fd5b50610280600480360360208110156108fe57600080fd5b5035612009565b34801561091157600080fd5b50610280612011565b34801561092657600080fd5b5061092f612017565b604080516001600160a01b039092168252519081900360200190f35b34801561095757600080fd5b506102806004803603606081101561096e57600080fd5b508035906020810135906040013561203b565b34801561098d57600080fd5b50610280600480360360c08110156109a457600080fd5b506001600160a01b0381358116916020810135916040820135916060810135916080820135169060a00135612048565b6101d7600480360360808110156109ea57600080fd5b81359190810190604081016020820135600160201b811115610a0b57600080fd5b820183602082011115610a1d57600080fd5b803590602001918460208302840111600160201b83111715610a3e57600080fd5b91935091506001600160a01b0381351690602001356121ce565b348015610a6457600080fd5b50610231600480360360e0811015610a7b57600080fd5b506001600160a01b038135811691602081013582169160408201359160608101359160808201359160a08101359091169060c0013561253f565b348015610ac157600080fd5b5061092f612783565b348015610ad657600080fd5b5061032860048036036040811015610aed57600080fd5b81359190810190604081016020820135600160201b811115610b0e57600080fd5b820183602082011115610b2057600080fd5b803590602001918460208302840111600160201b83111715610b4157600080fd5b9190808060200260200160405190810160405280939291908181526020018383602002808284376000920191909152509295506127a7945050505050565b348015610b8b57600080fd5b506102316004803603610140811015610ba357600080fd5b506001600160a01b0381358116916020810135916040820135916060810135916080820135169060a08101359060c081013515159060ff60e082013516906101008101359061012001356127d4565b348015610bfe57600080fd5b50610c546004803603610100811015610c1657600080fd5b506001600160a01b038135811691602081013582169160408201359160608101359160808201359160a08101359160c0820135169060e001356128e8565b60408051938452602084019290925282820152519081900360600190f35b610c54600480360360c0811015610c8857600080fd5b506001600160a01b0381358116916020810135916040820135916060810135916080820135169060a00135612a1b565b61032860048036036080811015610cce57600080fd5b81359190810190604081016020820135600160201b811115610cef57600080fd5b820183602082011115610d0157600080fd5b803590602001918460208302840111600160201b83111715610d2257600080fd5b91935091506001600160a01b038135169060200135612cae565b6000808242811015610d83576040805162461bcd60e51b815260206004820152601860248201526000805160206145fb833981519152604482015290519081900360640190fd5b610db2897f00000000000000000000000000000000000000000000000000000000000000008a8a8a308a61253f565b9093509150610dc2898685613027565b7f00000000000000000000000000000000000000000000000000000000000000006001600160a01b0316632e1a7d4d836040518263ffffffff1660e01b815260040180828152602001915050600060405180830381600087803b158015610e2857600080fd5b505af1158015610e3c573d6000803e3d6000fd5b50505050610e4a858361317b565b50965096945050505050565b6000610e63848484613273565b949350505050565b60608142811015610eb1576040805162461bcd60e51b815260206004820152601860248201526000805160206145fb833981519152604482015290519081900360640190fd5b6001600160a01b037f00000000000000000000000000000000000000000000000000000000000000001686866000198101818110610eeb57fe5b905060200201356001600160a01b03166001600160a01b031614610f44576040805162461bcd60e51b815260206004820152601d6024820152600080516020614532833981519152604482015290519081900360640190fd5b610fa27f00000000000000000000000000000000000000000000000000000000000000008988888080602002602001604051908101604052809392919081815260200183836020028082843760009201919091525061334b92505050565b91508682600184510381518110610fb557fe5b60200260200101511015610ffa5760405162461bcd60e51b815260040180806020018281038252602b815260200180614578602b913960400191505060405180910390fd5b6110988686600081811061100a57fe5b905060200201356001600160a01b03163361107e7f00000000000000000000000000000000000000000000000000000000000000008a8a600081811061104c57fe5b905060200201356001600160a01b03168b8b600181811061106957fe5b905060200201356001600160a01b0316613497565b8560008151811061108b57fe5b6020026020010151613557565b6110d7828787808060200260200160405190810160405280939291908181526020018383602002808284376000920191909152503092506136b4915050565b7f00000000000000000000000000000000000000000000000000000000000000006001600160a01b0316632e1a7d4d8360018551038151811061111657fe5b60200260200101516040518263ffffffff1660e01b815260040180828152602001915050600060405180830381600087803b15801561115457600080fd5b505af1158015611168573d6000803e3d6000fd5b5050505061118d848360018551038151811061118057fe5b602002602001015161317b565b509695505050505050565b60606111c57f000000000000000000000000000000000000000000000000000000000000000084846138f1565b90505b92915050565b60008060006111fe7f00000000000000000000000000000000000000000000000000000000000000008f8f613497565b905060008761120d578c611211565b6000195b6040805163d505accf60e01b815233600482015230602482015260448101839052606481018c905260ff8a16608482015260a4810189905260c4810188905290519192506001600160a01b0384169163d505accf9160e48082019260009290919082900301818387803b15801561128757600080fd5b505af115801561129b573d6000803e3d6000fd5b505050506112ae8f8f8f8f8f8f8f61253f565b809450819550505050509b509b9950505050505050505050565b60005490565b60608142811015611314576040805162461bcd60e51b815260206004820152601860248201526000805160206145fb833981519152604482015290519081900360640190fd5b6113727f00000000000000000000000000000000000000000000000000000000000000008988888080602002602001604051908101604052809392919081815260200183836020028082843760009201919091525061334b92505050565b9150868260018451038151811061138557fe5b602002602001015110156113ca5760405162461bcd60e51b815260040180806020018281038252602b815260200180614578602b913960400191505060405180910390fd5b6113da8686600081811061100a57fe5b61118d828787808060200260200160405190810160405280939291908181526020018383602002808284376000920191909152508992506136b4915050565b6060814281101561145f576040805162461bcd60e51b815260206004820152601860248201526000805160206145fb833981519152604482015290519081900360640190fd5b6001600160a01b037f0000000000000000000000000000000000000000000000000000000000000000168686600019810181811061149957fe5b905060200201356001600160a01b03166001600160a01b0316146114f2576040805162461bcd60e51b815260206004820152601d6024820152600080516020614532833981519152604482015290519081900360640190fd5b6115507f0000000000000000000000000000000000000000000000000000000000000000898888808060200260200160405190810160405280939291908181526020018383602002808284376000920191909152506138f192505050565b9150868260008151811061156057fe5b60200260200101511115610ffa5760405162461bcd60e51b815260040180806020018281038252602781526020018061450b6027913960400191505060405180910390fd5b6000806115f37f00000000000000000000000000000000000000000000000000000000000000008d7f0000000000000000000000000000000000000000000000000000000000000000613497565b9050600086611602578b611606565b6000195b6040805163d505accf60e01b815233600482015230602482015260448101839052606481018b905260ff8916608482015260a4810188905260c4810187905290519192506001600160a01b0384169163d505accf9160e48082019260009290919082900301818387803b15801561167c57600080fd5b505af1158015611690573d6000803e3d6000fd5b505050506116a28d8d8d8d8d8d612048565b9d9c50505050505050505050505050565b80428110156116f7576040805162461bcd60e51b815260206004820152601860248201526000805160206145fb833981519152604482015290519081900360640190fd5b61176c8585600081811061170757fe5b905060200201356001600160a01b0316336117667f00000000000000000000000000000000000000000000000000000000000000008989600081811061174957fe5b905060200201356001600160a01b03168a8a600181811061106957fe5b8a613557565b60008585600019810181811061177e57fe5b905060200201356001600160a01b03166001600160a01b03166370a08231856040518263ffffffff1660e01b815260040180826001600160a01b0316815260200191505060206040518083038186803b1580156117da57600080fd5b505afa1580156117ee573d6000803e3d6000fd5b505050506040513d602081101561180457600080fd5b50516040805160208881028281018201909352888252929350611846929091899189918291850190849080828437600092019190915250889250613a29915050565b866118e9828888600019810181811061185b57fe5b905060200201356001600160a01b03166001600160a01b03166370a08231886040518263ffffffff1660e01b815260040180826001600160a01b0316815260200191505060206040518083038186803b1580156118b757600080fd5b505afa1580156118cb573d6000803e3d6000fd5b505050506040513d60208110156118e157600080fd5b505190613d2b565b10156119265760405162461bcd60e51b815260040180806020018281038252602b815260200180614578602b913960400191505060405180910390fd5b5050505050505050565b8042811015611974576040805162461bcd60e51b815260206004820152601860248201526000805160206145fb833981519152604482015290519081900360640190fd5b6001600160a01b037f000000000000000000000000000000000000000000000000000000000000000016858560001981018181106119ae57fe5b905060200201356001600160a01b03166001600160a01b031614611a07576040805162461bcd60e51b815260206004820152601d6024820152600080516020614532833981519152604482015290519081900360640190fd5b611a178585600081811061170757fe5b611a55858580806020026020016040519081016040528093929190818152602001838360200280828437600092019190915250309250613a29915050565b60007f00000000000000000000000000000000000000000000000000000000000000006001600160a01b03166370a08231306040518263ffffffff1660e01b815260040180826001600160a01b0316815260200191505060206040518083038186803b158015611ac457600080fd5b505afa158015611ad8573d6000803e3d6000fd5b505050506040513d6020811015611aee57600080fd5b5051905086811015611b315760405162461bcd60e51b815260040180806020018281038252602b815260200180614578602b913960400191505060405180910390fd5b7f00000000000000000000000000000000000000000000000000000000000000006001600160a01b0316632e1a7d4d826040518263ffffffff1660e01b815260040180828152602001915050600060405180830381600087803b158015611b9757600080fd5b505af1158015611bab573d6000803e3d6000fd5b50505050611926848261317b565b60608142811015611bff576040805162461bcd60e51b815260206004820152601860248201526000805160206145fb833981519152604482015290519081900360640190fd5b7f00000000000000000000000000000000000000000000000000000000000000006001600160a01b031686866000818110611c3657fe5b905060200201356001600160a01b03166001600160a01b031614611c8f576040805162461bcd60e51b815260206004820152601d6024820152600080516020614532833981519152604482015290519081900360640190fd5b611ced7f00000000000000000000000000000000000000000000000000000000000000003488888080602002602001604051908101604052809392919081815260200183836020028082843760009201919091525061334b92505050565b91508682600184510381518110611d0057fe5b60200260200101511015611d455760405162461bcd60e51b815260040180806020018281038252602b815260200180614578602b913960400191505060405180910390fd5b7f00000000000000000000000000000000000000000000000000000000000000006001600160a01b031663d0e30db083600081518110611d8157fe5b60200260200101516040518263ffffffff1660e01b81526004016000604051808303818588803b158015611db457600080fd5b505af1158015611dc8573d6000803e3d6000fd5b50505050507f00000000000000000000000000000000000000000000000000000000000000006001600160a01b031663a9059cbb611e2d7f00000000000000000000000000000000000000000000000000000000000000008989600081811061174957fe5b84600081518110611e3a57fe5b60200260200101516040518363ffffffff1660e01b815260040180836001600160a01b0316815260200182815260200192505050602060405180830381600087803b158015611e8857600080fd5b505af1158015611e9c573d6000803e3d6000fd5b505050506040513d6020811015611eb257600080fd5b5051611eba57fe5b611ef9828787808060200260200160405190810160405280939291908181526020018383602002808284376000920191909152508992506136b4915050565b5095945050505050565b6000610e63848484613d7b565b60608142811015611f56576040805162461bcd60e51b815260206004820152601860248201526000805160206145fb833981519152604482015290519081900360640190fd5b611fb47f0000000000000000000000000000000000000000000000000000000000000000898888808060200260200160405190810160405280939291908181526020018383602002808284376000920191909152506138f192505050565b91508682600081518110611fc457fe5b602002602001015111156113ca5760405162461bcd60e51b815260040180806020018281038252602781526020018061450b6027913960400191505060405180910390fd5b600081905590565b60005481565b7f000000000000000000000000000000000000000000000000000000000000000081565b6000610e63848484613e53565b6000814281101561208e576040805162461bcd60e51b815260206004820152601860248201526000805160206145fb833981519152604482015290519081900360640190fd5b6120bd887f0000000000000000000000000000000000000000000000000000000000000000898989308961253f565b90508092505061214688858a6001600160a01b03166370a08231306040518263ffffffff1660e01b815260040180826001600160a01b0316815260200191505060206040518083038186803b15801561211557600080fd5b505afa158015612129573d6000803e3d6000fd5b505050506040513d602081101561213f57600080fd5b5051613027565b7f00000000000000000000000000000000000000000000000000000000000000006001600160a01b0316632e1a7d4d836040518263ffffffff1660e01b815260040180828152602001915050600060405180830381600087803b1580156121ac57600080fd5b505af11580156121c0573d6000803e3d6000fd5b5050505061118d848361317b565b8042811015612212576040805162461bcd60e51b815260206004820152601860248201526000805160206145fb833981519152604482015290519081900360640190fd5b7f00000000000000000000000000000000000000000000000000000000000000006001600160a01b03168585600081811061224957fe5b905060200201356001600160a01b03166001600160a01b0316146122a2576040805162461bcd60e51b815260206004820152601d6024820152600080516020614532833981519152604482015290519081900360640190fd5b60003490507f00000000000000000000000000000000000000000000000000000000000000006001600160a01b031663d0e30db0826040518263ffffffff1660e01b81526004016000604051808303818588803b15801561230257600080fd5b505af1158015612316573d6000803e3d6000fd5b50505050507f00000000000000000000000000000000000000000000000000000000000000006001600160a01b031663a9059cbb61237b7f00000000000000000000000000000000000000000000000000000000000000008989600081811061174957fe5b836040518363ffffffff1660e01b815260040180836001600160a01b0316815260200182815260200192505050602060405180830381600087803b1580156123c257600080fd5b505af11580156123d6573d6000803e3d6000fd5b505050506040513d60208110156123ec57600080fd5b50516123f457fe5b60008686600019810181811061240657fe5b905060200201356001600160a01b03166001600160a01b03166370a08231866040518263ffffffff1660e01b815260040180826001600160a01b0316815260200191505060206040518083038186803b15801561246257600080fd5b505afa158015612476573d6000803e3d6000fd5b505050506040513d602081101561248c57600080fd5b505160408051602089810282810182019093528982529293506124ce9290918a918a918291850190849080828437600092019190915250899250613a29915050565b876118e982898960001981018181106124e357fe5b905060200201356001600160a01b03166001600160a01b03166370a08231896040518263ffffffff1660e01b815260040180826001600160a01b0316815260200191505060206040518083038186803b1580156118b757600080fd5b6000808242811015612586576040805162461bcd60e51b815260206004820152601860248201526000805160206145fb833981519152604482015290519081900360640190fd5b60006125b37f00000000000000000000000000000000000000000000000000000000000000008c8c613497565b604080516323b872dd60e01b81523360048201526001600160a01b03831660248201819052604482018d9052915192935090916323b872dd916064808201926020929091908290030181600087803b15801561260e57600080fd5b505af1158015612622573d6000803e3d6000fd5b505050506040513d602081101561263857600080fd5b50506040805163226bf2d160e21b81526001600160a01b03888116600483015282516000938493928616926389afcb44926024808301939282900301818787803b15801561268557600080fd5b505af1158015612699573d6000803e3d6000fd5b505050506040513d60408110156126af57600080fd5b508051602090910151909250905060006126c98e8e613ef9565b509050806001600160a01b03168e6001600160a01b0316146126ec5781836126ef565b82825b90975095508a8710156127335760405162461bcd60e51b81526004018080602001828103825260268152602001806145526026913960400191505060405180910390fd5b898610156127725760405162461bcd60e51b81526004018080602001828103825260268152602001806144986026913960400191505060405180910390fd5b505050505097509795505050505050565b7f000000000000000000000000000000000000000000000000000000000000000081565b60606111c57f0000000000000000000000000000000000000000000000000000000000000000848461334b565b60008060006128247f00000000000000000000000000000000000000000000000000000000000000008e7f0000000000000000000000000000000000000000000000000000000000000000613497565b9050600087612833578c612837565b6000195b6040805163d505accf60e01b815233600482015230602482015260448101839052606481018c905260ff8a16608482015260a4810189905260c4810188905290519192506001600160a01b0384169163d505accf9160e48082019260009290919082900301818387803b1580156128ad57600080fd5b505af11580156128c1573d6000803e3d6000fd5b505050506128d38e8e8e8e8e8e610d3c565b909f909e509c50505050505050505050505050565b60008060008342811015612931576040805162461bcd60e51b815260206004820152601860248201526000805160206145fb833981519152604482015290519081900360640190fd5b61293f8c8c8c8c8c8c613fd7565b909450925060006129717f00000000000000000000000000000000000000000000000000000000000000008e8e613497565b905061297f8d338388613557565b61298b8c338387613557565b806001600160a01b0316636a627842886040518263ffffffff1660e01b815260040180826001600160a01b03168152602001915050602060405180830381600087803b1580156129da57600080fd5b505af11580156129ee573d6000803e3d6000fd5b505050506040513d6020811015612a0457600080fd5b5051949d939c50939a509198505050505050505050565b60008060008342811015612a64576040805162461bcd60e51b815260206004820152601860248201526000805160206145fb833981519152604482015290519081900360640190fd5b612a928a7f00000000000000000000000000000000000000000000000000000000000000008b348c8c613fd7565b90945092506000612ae47f00000000000000000000000000000000000000000000000000000000000000008c7f0000000000000000000000000000000000000000000000000000000000000000613497565b9050612af28b338388613557565b7f00000000000000000000000000000000000000000000000000000000000000006001600160a01b031663d0e30db0856040518263ffffffff1660e01b81526004016000604051808303818588803b158015612b4d57600080fd5b505af1158015612b61573d6000803e3d6000fd5b50505050507f00000000000000000000000000000000000000000000000000000000000000006001600160a01b031663a9059cbb82866040518363ffffffff1660e01b815260040180836001600160a01b0316815260200182815260200192505050602060405180830381600087803b158015612bdd57600080fd5b505af1158015612bf1573d6000803e3d6000fd5b505050506040513d6020811015612c0757600080fd5b5051612c0f57fe5b806001600160a01b0316636a627842886040518263ffffffff1660e01b815260040180826001600160a01b03168152602001915050602060405180830381600087803b158015612c5e57600080fd5b505af1158015612c72573d6000803e3d6000fd5b505050506040513d6020811015612c8857600080fd5b5051925034841015612ca057612ca03385340361317b565b505096509650969350505050565b60608142811015612cf4576040805162461bcd60e51b815260206004820152601860248201526000805160206145fb833981519152604482015290519081900360640190fd5b7f00000000000000000000000000000000000000000000000000000000000000006001600160a01b031686866000818110612d2b57fe5b905060200201356001600160a01b03166001600160a01b031614612d84576040805162461bcd60e51b815260206004820152601d6024820152600080516020614532833981519152604482015290519081900360640190fd5b612de27f0000000000000000000000000000000000000000000000000000000000000000888888808060200260200160405190810160405280939291908181526020018383602002808284376000920191909152506138f192505050565b91503482600081518110612df257fe5b60200260200101511115612e375760405162461bcd60e51b815260040180806020018281038252602781526020018061450b6027913960400191505060405180910390fd5b7f00000000000000000000000000000000000000000000000000000000000000006001600160a01b031663d0e30db083600081518110612e7357fe5b60200260200101516040518263ffffffff1660e01b81526004016000604051808303818588803b158015612ea657600080fd5b505af1158015612eba573d6000803e3d6000fd5b50505050507f00000000000000000000000000000000000000000000000000000000000000006001600160a01b031663a9059cbb612f1f7f00000000000000000000000000000000000000000000000000000000000000008989600081811061174957fe5b84600081518110612f2c57fe5b60200260200101516040518363ffffffff1660e01b815260040180836001600160a01b0316815260200182815260200192505050602060405180830381600087803b158015612f7a57600080fd5b505af1158015612f8e573d6000803e3d6000fd5b505050506040513d6020811015612fa457600080fd5b5051612fac57fe5b612feb828787808060200260200160405190810160405280939291908181526020018383602002808284376000920191909152508992506136b4915050565b81600081518110612ff857fe5b6020026020010151341115611ef957611ef9338360008151811061301857fe5b6020026020010151340361317b565b604080516001600160a01b038481166024830152604480830185905283518084039091018152606490920183526020820180516001600160e01b031663a9059cbb60e01b178152925182516000946060949389169392918291908083835b602083106130a45780518252601f199092019160209182019101613085565b6001836020036101000a0380198251168184511680821785525050505050509050019150506000604051808303816000865af19150503d8060008114613106576040519150601f19603f3d011682016040523d82523d6000602084013e61310b565b606091505b5091509150818015613139575080511580613139575080806020019051602081101561313657600080fd5b50515b6131745760405162461bcd60e51b815260040180806020018281038252602d8152602001806145a3602d913960400191505060405180910390fd5b5050505050565b604080516000808252602082019092526001600160a01b0384169083906040518082805190602001908083835b602083106131c75780518252601f1990920191602091820191016131a8565b6001836020036101000a03801982511681845116808217855250505050505090500191505060006040518083038185875af1925050503d8060008114613229576040519150601f19603f3d011682016040523d82523d6000602084013e61322e565b606091505b505090508061326e5760405162461bcd60e51b815260040180806020018281038252603481526020018061443f6034913960400191505060405180910390fd5b505050565b60008084116132b35760405162461bcd60e51b815260040180806020018281038252602b8152602001806145d0602b913960400191505060405180910390fd5b6000831180156132c35750600082115b6132fe5760405162461bcd60e51b81526004018080602001828103825260288152602001806144be6028913960400191505060405180910390fd5b600061330c856103e4614268565b9050600061331a8285614268565b905060006133348361332e886103e8614268565b906142cb565b905080828161333f57fe5b04979650505050505050565b60606002825110156133a4576040805162461bcd60e51b815260206004820152601e60248201527f556e697377617056324c6962726172793a20494e56414c49445f504154480000604482015290519081900360640190fd5b815167ffffffffffffffff811180156133bc57600080fd5b506040519080825280602002602001820160405280156133e6578160200160208202803683370190505b50905082816000815181106133f757fe5b60200260200101818152505060005b600183510381101561348f576000806134498786858151811061342557fe5b602002602001015187866001018151811061343c57fe5b602002602001015161431a565b9150915061346b84848151811061345c57fe5b60200260200101518383613273565b84846001018151811061347a57fe5b60209081029190910101525050600101613406565b509392505050565b60008060006134a68585613ef9565b604080516bffffffffffffffffffffffff19606094851b811660208084019190915293851b81166034830152825160288184030181526048830184528051908501206001600160f81b031960688401529a90941b9093166069840152607d8301989098527fda3c87f621c1b97923a5bb62c384d9aca75f055c0b1a27bdc273bde29edac15a609d808401919091528851808403909101815260bd909201909752805196019590952095945050505050565b604080516001600160a01b0385811660248301528481166044830152606480830185905283518084039091018152608490920183526020820180516001600160e01b03166323b872dd60e01b17815292518251600094606094938a169392918291908083835b602083106135dc5780518252601f1990920191602091820191016135bd565b6001836020036101000a0380198251168184511680821785525050505050509050019150506000604051808303816000865af19150503d806000811461363e576040519150601f19603f3d011682016040523d82523d6000602084013e613643565b606091505b5091509150818015613671575080511580613671575080806020019051602081101561366e57600080fd5b50515b6136ac5760405162461bcd60e51b815260040180806020018281038252603181526020018061440e6031913960400191505060405180910390fd5b505050505050565b60005b60018351038110156138eb576000808483815181106136d257fe5b60200260200101518584600101815181106136e957fe5b60200260200101519150915060006137018383613ef9565b509050600087856001018151811061371557fe5b60200260200101519050600080836001600160a01b0316866001600160a01b03161461374357826000613747565b6000835b91509150600060028a5103881061375e578861379f565b61379f7f0000000000000000000000000000000000000000000000000000000000000000878c8b6002018151811061379257fe5b6020026020010151613497565b90506137cc7f00000000000000000000000000000000000000000000000000000000000000008888613497565b6001600160a01b031663022c0d9f84848460006040519080825280601f01601f191660200182016040528015613809576020820181803683370190505b506040518563ffffffff1660e01b815260040180858152602001848152602001836001600160a01b0316815260200180602001828103825283818151815260200191508051906020019080838360005b83811015613871578181015183820152602001613859565b50505050905090810190601f16801561389e5780820380516001836020036101000a031916815260200191505b5095505050505050600060405180830381600087803b1580156138c057600080fd5b505af11580156138d4573d6000803e3d6000fd5b5050600190990198506136b7975050505050505050565b50505050565b606060028251101561394a576040805162461bcd60e51b815260206004820152601e60248201527f556e697377617056324c6962726172793a20494e56414c49445f504154480000604482015290519081900360640190fd5b815167ffffffffffffffff8111801561396257600080fd5b5060405190808252806020026020018201604052801561398c578160200160208202803683370190505b50905082816001835103815181106139a057fe5b60209081029190910101528151600019015b801561348f576000806139e2878660018603815181106139ce57fe5b602002602001015187868151811061343c57fe5b91509150613a048484815181106139f557fe5b60200260200101518383613d7b565b846001850381518110613a1357fe5b60209081029190910101525050600019016139b2565b60005b600183510381101561326e57600080848381518110613a4757fe5b6020026020010151858460010181518110613a5e57fe5b6020026020010151915091506000613a768383613ef9565b5090506000613aa67f00000000000000000000000000000000000000000000000000000000000000008585613497565b9050600080600080846001600160a01b0316630902f1ac6040518163ffffffff1660e01b815260040160606040518083038186803b158015613ae757600080fd5b505afa158015613afb573d6000803e3d6000fd5b505050506040513d6060811015613b1157600080fd5b5080516020909101516001600160701b0391821693501690506000806001600160a01b038a811690891614613b47578284613b4a565b83835b91509150613b9f828b6001600160a01b03166370a082318a6040518263ffffffff1660e01b815260040180826001600160a01b0316815260200191505060206040518083038186803b1580156118b757600080fd5b9550613bac868383613273565b945050505050600080856001600160a01b0316886001600160a01b031614613bd657826000613bda565b6000835b91509150600060028c51038a10613bf1578a613c25565b613c257f0000000000000000000000000000000000000000000000000000000000000000898e8d6002018151811061379257fe5b604080516000808252602082019283905263022c0d9f60e01b835260248201878152604483018790526001600160a01b038086166064850152608060848501908152845160a48601819052969750908c169563022c0d9f958a958a958a9591949193919260c486019290918190849084905b83811015613caf578181015183820152602001613c97565b50505050905090810190601f168015613cdc5780820380516001836020036101000a031916815260200191505b5095505050505050600060405180830381600087803b158015613cfe57600080fd5b505af1158015613d12573d6000803e3d6000fd5b50506001909b019a50613a2c9950505050505050505050565b808203828111156111c8576040805162461bcd60e51b815260206004820152601560248201527464732d6d6174682d7375622d756e646572666c6f7760581b604482015290519081900360640190fd5b6000808411613dbb5760405162461bcd60e51b815260040180806020018281038252602c8152602001806143e2602c913960400191505060405180910390fd5b600083118015613dcb5750600082115b613e065760405162461bcd60e51b81526004018080602001828103825260288152602001806144be6028913960400191505060405180910390fd5b6000613e1e6103e8613e188688614268565b90614268565b90506000613e326103e4613e188689613d2b565b9050613e496001828481613e4257fe5b04906142cb565b9695505050505050565b6000808411613e935760405162461bcd60e51b81526004018080602001828103825260258152602001806144e66025913960400191505060405180910390fd5b600083118015613ea35750600082115b613ede5760405162461bcd60e51b81526004018080602001828103825260288152602001806144be6028913960400191505060405180910390fd5b82613ee98584614268565b81613ef057fe5b04949350505050565b600080826001600160a01b0316846001600160a01b03161415613f4d5760405162461bcd60e51b81526004018080602001828103825260258152602001806144736025913960400191505060405180910390fd5b826001600160a01b0316846001600160a01b031610613f6d578284613f70565b83835b90925090506001600160a01b038216613fd0576040805162461bcd60e51b815260206004820152601e60248201527f556e697377617056324c6962726172793a205a45524f5f414444524553530000604482015290519081900360640190fd5b9250929050565b60008060006001600160a01b03167f00000000000000000000000000000000000000000000000000000000000000006001600160a01b031663e6a439058a8a6040518363ffffffff1660e01b815260040180836001600160a01b03168152602001826001600160a01b031681526020019250505060206040518083038186803b15801561406357600080fd5b505afa158015614077573d6000803e3d6000fd5b505050506040513d602081101561408d57600080fd5b50516001600160a01b0316141561414b577f00000000000000000000000000000000000000000000000000000000000000006001600160a01b031663c9c6539689896040518363ffffffff1660e01b815260040180836001600160a01b03168152602001826001600160a01b0316815260200192505050602060405180830381600087803b15801561411e57600080fd5b505af1158015614132573d6000803e3d6000fd5b505050506040513d602081101561414857600080fd5b50505b6000806141797f00000000000000000000000000000000000000000000000000000000000000008b8b61431a565b9150915081600014801561418b575080155b1561419b5787935086925061425b565b60006141a8898484613e53565b90508781116141fb57858110156141f05760405162461bcd60e51b81526004018080602001828103825260268152602001806144986026913960400191505060405180910390fd5b889450925082614259565b6000614208898486613e53565b90508981111561421457fe5b878110156142535760405162461bcd60e51b81526004018080602001828103825260268152602001806145526026913960400191505060405180910390fd5b94508793505b505b5050965096945050505050565b60008115806142835750508082028282828161428057fe5b04145b6111c8576040805162461bcd60e51b815260206004820152601460248201527364732d6d6174682d6d756c2d6f766572666c6f7760601b604482015290519081900360640190fd5b808201828110156111c8576040805162461bcd60e51b815260206004820152601460248201527364732d6d6174682d6164642d6f766572666c6f7760601b604482015290519081900360640190fd5b60008060006143298585613ef9565b50905060008061433a888888613497565b6001600160a01b0316630902f1ac6040518163ffffffff1660e01b815260040160606040518083038186803b15801561437257600080fd5b505afa158015614386573d6000803e3d6000fd5b505050506040513d606081101561439c57600080fd5b5080516020909101516001600160701b0391821693501690506001600160a01b03878116908416146143cf5780826143d2565b81815b9099909850965050505050505056fe556e697377617056324c6962726172793a20494e53554646494349454e545f4f55545055545f414d4f554e545472616e7366657248656c7065723a3a7472616e7366657246726f6d3a207472616e7366657246726f6d206661696c65645472616e7366657248656c7065723a3a736166655472616e736665724554483a20455448207472616e73666572206661696c6564556e697377617056324c6962726172793a204944454e544943414c5f414444524553534553556e69737761705632526f757465723a20494e53554646494349454e545f425f414d4f554e54556e697377617056324c6962726172793a20494e53554646494349454e545f4c4951554944495459556e697377617056324c6962726172793a20494e53554646494349454e545f414d4f554e54556e69737761705632526f757465723a204558434553534956455f494e5055545f414d4f554e54556e69737761705632526f757465723a20494e56414c49445f50415448000000556e69737761705632526f757465723a20494e53554646494349454e545f415f414d4f554e54556e69737761705632526f757465723a20494e53554646494349454e545f4f55545055545f414d4f554e545472616e7366657248656c7065723a3a736166655472616e736665723a207472616e73666572206661696c6564556e697377617056324c6962726172793a20494e53554646494349454e545f494e5055545f414d4f554e54556e69737761705632526f757465723a20455850495245440000000000000000a26469706673582212200dd412022b492f875593f4c9b11989cd5c00bc2d7b36a25c5fed6dc82f8871a764736f6c634300060c0033",
					"opcodes": "PUSH1 0xC0 PUSH1 0x40 MSTORE CALLVALUE DUP1 ISZERO PUSH2 0x10 JUMPI PUSH1 0x0 DUP1 REVERT JUMPDEST POP PUSH1 0x40 MLOAD PUSH3 0x47E1 CODESIZE SUB DUP1 PUSH3 0x47E1 DUP4 CODECOPY DUP2 DUP2 ADD PUSH1 0x40 MSTORE PUSH1 0x60 DUP2 LT ISZERO PUSH2 0x35 JUMPI PUSH1 0x0 DUP1 REVERT JUMPDEST POP DUP1 MLOAD PUSH1 0x20 DUP3 ADD MLOAD PUSH1 0x40 SWAP1 SWAP3 ADD MLOAD PUSH1 0x1 PUSH1 0x1 PUSH1 0x60 SHL SUB NOT PUSH1 0x60 SWAP3 DUP4 SHL DUP2 AND PUSH1 0x80 MSTORE SWAP3 SWAP1 SWAP2 SHL SWAP1 SWAP2 AND PUSH1 0xA0 MSTORE PUSH1 0x0 SSTORE PUSH1 0x80 MLOAD PUSH1 0x60 SHR PUSH1 0xA0 MLOAD PUSH1 0x60 SHR PUSH2 0x4650 PUSH3 0x191 PUSH1 0x0 CODECOPY DUP1 PUSH2 0x1B0 MSTORE DUP1 PUSH2 0xD89 MSTORE DUP1 PUSH2 0xDC4 MSTORE DUP1 PUSH2 0xEBB MSTORE DUP1 PUSH2 0x10D9 MSTORE DUP1 PUSH2 0x1469 MSTORE DUP1 PUSH2 0x15CF MSTORE DUP1 PUSH2 0x197E MSTORE DUP1 PUSH2 0x1A59 MSTORE DUP1 PUSH2 0x1B33 MSTORE DUP1 PUSH2 0x1C01 MSTORE DUP1 PUSH2 0x1D47 MSTORE DUP1 PUSH2 0x1DCF MSTORE DUP1 PUSH2 0x2019 MSTORE DUP1 PUSH2 0x2094 MSTORE DUP1 PUSH2 0x2148 MSTORE DUP1 PUSH2 0x2214 MSTORE DUP1 PUSH2 0x22A9 MSTORE DUP1 PUSH2 0x231D MSTORE DUP1 PUSH2 0x2800 MSTORE DUP1 PUSH2 0x2A6A MSTORE DUP1 PUSH2 0x2AC0 MSTORE DUP1 PUSH2 0x2AF4 MSTORE DUP1 PUSH2 0x2B68 MSTORE DUP1 PUSH2 0x2CF6 MSTORE DUP1 PUSH2 0x2E39 MSTORE DUP1 PUSH2 0x2EC1 MSTORE POP DUP1 PUSH2 0xF49 MSTORE DUP1 PUSH2 0x1020 MSTORE DUP1 PUSH2 0x119F MSTORE DUP1 PUSH2 0x11D8 MSTORE DUP1 PUSH2 0x1319 MSTORE DUP1 PUSH2 0x14F7 MSTORE DUP1 PUSH2 0x15AD MSTORE DUP1 PUSH2 0x171D MSTORE DUP1 PUSH2 0x1C94 MSTORE DUP1 PUSH2 0x1E01 MSTORE DUP1 PUSH2 0x1F5B MSTORE DUP1 PUSH2 0x234F MSTORE DUP1 PUSH2 0x258D MSTORE DUP1 PUSH2 0x2785 MSTORE DUP1 PUSH2 0x27AE MSTORE DUP1 PUSH2 0x27DE MSTORE DUP1 PUSH2 0x294B MSTORE DUP1 PUSH2 0x2A9E MSTORE DUP1 PUSH2 0x2D89 MSTORE DUP1 PUSH2 0x2EF3 MSTORE DUP1 PUSH2 0x3763 MSTORE DUP1 PUSH2 0x37A6 MSTORE DUP1 PUSH2 0x3A80 MSTORE DUP1 PUSH2 0x3BF6 MSTORE DUP1 PUSH2 0x3FE7 MSTORE DUP1 PUSH2 0x40A0 MSTORE DUP1 PUSH2 0x4153 MSTORE POP PUSH2 0x4650 PUSH1 0x0 RETURN INVALID PUSH1 0x80 PUSH1 0x40 MSTORE PUSH1 0x4 CALLDATASIZE LT PUSH2 0x1A0 JUMPI PUSH1 0x0 CALLDATALOAD PUSH1 0xE0 SHR DUP1 PUSH4 0x8803DBEE GT PUSH2 0xEC JUMPI DUP1 PUSH4 0xBAA2ABDE GT PUSH2 0x8A JUMPI DUP1 PUSH4 0xDED9382A GT PUSH2 0x64 JUMPI DUP1 PUSH4 0xDED9382A EQ PUSH2 0xB7F JUMPI DUP1 PUSH4 0xE8E33700 EQ PUSH2 0xBF2 JUMPI DUP1 PUSH4 0xF305D719 EQ PUSH2 0xC72 JUMPI DUP1 PUSH4 0xFB3BDB41 EQ PUSH2 0xCB8 JUMPI PUSH2 0x1D9 JUMP JUMPDEST DUP1 PUSH4 0xBAA2ABDE EQ PUSH2 0xA58 JUMPI DUP1 PUSH4 0xC45A0155 EQ PUSH2 0xAB5 JUMPI DUP1 PUSH4 0xD06CA61F EQ PUSH2 0xACA JUMPI PUSH2 0x1D9 JUMP JUMPDEST DUP1 PUSH4 0xAD5C4648 GT PUSH2 0xC6 JUMPI DUP1 PUSH4 0xAD5C4648 EQ PUSH2 0x91A JUMPI DUP1 PUSH4 0xAD615DEC EQ PUSH2 0x94B JUMPI DUP1 PUSH4 0xAF2979EB EQ PUSH2 0x981 JUMPI DUP1 PUSH4 0xB6F9DE95 EQ PUSH2 0x9D4 JUMPI PUSH2 0x1D9 JUMP JUMPDEST DUP1 PUSH4 0x8803DBEE EQ PUSH2 0x845 JUMPI DUP1 PUSH4 0x8BEB60B6 EQ PUSH2 0x8DB JUMPI DUP1 PUSH4 0xA0BE06F9 EQ PUSH2 0x905 JUMPI PUSH2 0x1D9 JUMP JUMPDEST DUP1 PUSH4 0x38ED1739 GT PUSH2 0x159 JUMPI DUP1 PUSH4 0x5C11D795 GT PUSH2 0x133 JUMPI DUP1 PUSH4 0x5C11D795 EQ PUSH2 0x65F JUMPI DUP1 PUSH4 0x791AC947 EQ PUSH2 0x6F5 JUMPI DUP1 PUSH4 0x7FF36AB5 EQ PUSH2 0x78B JUMPI DUP1 PUSH4 0x85F8C259 EQ PUSH2 0x80F JUMPI PUSH2 0x1D9 JUMP JUMPDEST DUP1 PUSH4 0x38ED1739 EQ PUSH2 0x4C0 JUMPI DUP1 PUSH4 0x4A25D94A EQ PUSH2 0x556 JUMPI DUP1 PUSH4 0x5B0D5984 EQ PUSH2 0x5EC JUMPI PUSH2 0x1D9 JUMP JUMPDEST DUP1 PUSH4 0x2751CEC EQ PUSH2 0x1DE JUMPI DUP1 PUSH4 0x54D50D4 EQ PUSH2 0x24A JUMPI DUP1 PUSH4 0x18CBAFE5 EQ PUSH2 0x292 JUMPI DUP1 PUSH4 0x1F00CA74 EQ PUSH2 0x378 JUMPI DUP1 PUSH4 0x2195995C EQ PUSH2 0x42D JUMPI DUP1 PUSH4 0x2A905CCC EQ PUSH2 0x4AB JUMPI PUSH2 0x1D9 JUMP JUMPDEST CALLDATASIZE PUSH2 0x1D9 JUMPI CALLER PUSH1 0x1 PUSH1 0x1 PUSH1 0xA0 SHL SUB PUSH32 0x0 AND EQ PUSH2 0x1D7 JUMPI INVALID JUMPDEST STOP JUMPDEST PUSH1 0x0 DUP1 REVERT JUMPDEST CALLVALUE DUP1 ISZERO PUSH2 0x1EA JUMPI PUSH1 0x0 DUP1 REVERT JUMPDEST POP PUSH2 0x231 PUSH1 0x4 DUP1 CALLDATASIZE SUB PUSH1 0xC0 DUP2 LT ISZERO PUSH2 0x201 JUMPI PUSH1 0x0 DUP1 REVERT JUMPDEST POP PUSH1 0x1 PUSH1 0x1 PUSH1 0xA0 SHL SUB DUP2 CALLDATALOAD DUP2 AND SWAP2 PUSH1 0x20 DUP2 ADD CALLDATALOAD SWAP2 PUSH1 0x40 DUP3 ADD CALLDATALOAD SWAP2 PUSH1 0x60 DUP2 ADD CALLDATALOAD SWAP2 PUSH1 0x80 DUP3 ADD CALLDATALOAD AND SWAP1 PUSH1 0xA0 ADD CALLDATALOAD PUSH2 0xD3C JUMP JUMPDEST PUSH1 0x40 DUP1 MLOAD SWAP3 DUP4 MSTORE PUSH1 0x20 DUP4 ADD SWAP2 SWAP1 SWAP2 MSTORE DUP1 MLOAD SWAP2 DUP3 SWAP1 SUB ADD SWAP1 RETURN JUMPDEST CALLVALUE DUP1 ISZERO PUSH2 0x256 JUMPI PUSH1 0x0 DUP1 REVERT JUMPDEST POP PUSH2 0x280 PUSH1 0x4 DUP1 CALLDATASIZE SUB PUSH1 0x60 DUP2 LT ISZERO PUSH2 0x26D JUMPI PUSH1 0x0 DUP1 REVERT JUMPDEST POP DUP1 CALLDATALOAD SWAP1 PUSH1 0x20 DUP2 ADD CALLDATALOAD SWAP1 PUSH1 0x40 ADD CALLDATALOAD PUSH2 0xE56 JUMP JUMPDEST PUSH1 0x40 DUP1 MLOAD SWAP2 DUP3 MSTORE MLOAD SWAP1 DUP2 SWAP1 SUB PUSH1 0x20 ADD SWAP1 RETURN JUMPDEST CALLVALUE DUP1 ISZERO PUSH2 0x29E JUMPI PUSH1 0x0 DUP1 REVERT JUMPDEST POP PUSH2 0x328 PUSH1 0x4 DUP1 CALLDATASIZE SUB PUSH1 0xA0 DUP2 LT ISZERO PUSH2 0x2B5 JUMPI PUSH1 0x0 DUP1 REVERT JUMPDEST DUP2 CALLDATALOAD SWAP2 PUSH1 0x20 DUP2 ADD CALLDATALOAD SWAP2 DUP2 ADD SWAP1 PUSH1 0x60 DUP2 ADD PUSH1 0x40 DUP3 ADD CALLDATALOAD PUSH1 0x1 PUSH1 0x20 SHL DUP2 GT ISZERO PUSH2 0x2DB JUMPI PUSH1 0x0 DUP1 REVERT JUMPDEST DUP3 ADD DUP4 PUSH1 0x20 DUP3 ADD GT ISZERO PUSH2 0x2ED JUMPI PUSH1 0x0 DUP1 REVERT JUMPDEST DUP1 CALLDATALOAD SWAP1 PUSH1 0x20 ADD SWAP2 DUP5 PUSH1 0x20 DUP4 MUL DUP5 ADD GT PUSH1 0x1 PUSH1 0x20 SHL DUP4 GT OR ISZERO PUSH2 0x30E JUMPI PUSH1 0x0 DUP1 REVERT JUMPDEST SWAP2 SWAP4 POP SWAP2 POP PUSH1 0x1 PUSH1 0x1 PUSH1 0xA0 SHL SUB DUP2 CALLDATALOAD AND SWAP1 PUSH1 0x20 ADD CALLDATALOAD PUSH2 0xE6B JUMP JUMPDEST PUSH1 0x40 DUP1 MLOAD PUSH1 0x20 DUP1 DUP3 MSTORE DUP4 MLOAD DUP2 DUP4 ADD MSTORE DUP4 MLOAD SWAP2 SWAP3 DUP4 SWAP3 SWAP1 DUP4 ADD SWAP2 DUP6 DUP2 ADD SWAP2 MUL DUP1 DUP4 DUP4 PUSH1 0x0 JUMPDEST DUP4 DUP2 LT ISZERO PUSH2 0x364 JUMPI DUP2 DUP2 ADD MLOAD DUP4 DUP3 ADD MSTORE PUSH1 0x20 ADD PUSH2 0x34C JUMP JUMPDEST POP POP POP POP SWAP1 POP ADD SWAP3 POP POP POP PUSH1 0x40 MLOAD DUP1 SWAP2 SUB SWAP1 RETURN JUMPDEST CALLVALUE DUP1 ISZERO PUSH2 0x384 JUMPI PUSH1 0x0 DUP1 REVERT JUMPDEST POP PUSH2 0x328 PUSH1 0x4 DUP1 CALLDATASIZE SUB PUSH1 0x40 DUP2 LT ISZERO PUSH2 0x39B JUMPI PUSH1 0x0 DUP1 REVERT JUMPDEST DUP2 CALLDATALOAD SWAP2 SWAP1 DUP2 ADD SWAP1 PUSH1 0x40 DUP2 ADD PUSH1 0x20 DUP3 ADD CALLDATALOAD PUSH1 0x1 PUSH1 0x20 SHL DUP2 GT ISZERO PUSH2 0x3BC JUMPI PUSH1 0x0 DUP1 REVERT JUMPDEST DUP3 ADD DUP4 PUSH1 0x20 DUP3 ADD GT ISZERO PUSH2 0x3CE JUMPI PUSH1 0x0 DUP1 REVERT JUMPDEST DUP1 CALLDATALOAD SWAP1 PUSH1 0x20 ADD SWAP2 DUP5 PUSH1 0x20 DUP4 MUL DUP5 ADD GT PUSH1 0x1 PUSH1 0x20 SHL DUP4 GT OR ISZERO PUSH2 0x3EF JUMPI PUSH1 0x0 DUP1 REVERT JUMPDEST SWAP2 SWAP1 DUP1 DUP1 PUSH1 0x20 MUL PUSH1 0x20 ADD PUSH1 0x40 MLOAD SWAP1 DUP2 ADD PUSH1 0x40 MSTORE DUP1 SWAP4 SWAP3 SWAP2 SWAP1 DUP2 DUP2 MSTORE PUSH1 0x20 ADD DUP4 DUP4 PUSH1 0x20 MUL DUP1 DUP3 DUP5 CALLDATACOPY PUSH1 0x0 SWAP3 ADD SWAP2 SWAP1 SWAP2 MSTORE POP SWAP3 SWAP6 POP PUSH2 0x1198 SWAP5 POP POP POP POP POP JUMP JUMPDEST CALLVALUE DUP1 ISZERO PUSH2 0x439 JUMPI PUSH1 0x0 DUP1 REVERT JUMPDEST POP PUSH2 0x231 PUSH1 0x4 DUP1 CALLDATASIZE SUB PUSH2 0x160 DUP2 LT ISZERO PUSH2 0x451 JUMPI PUSH1 0x0 DUP1 REVERT JUMPDEST POP PUSH1 0x1 PUSH1 0x1 PUSH1 0xA0 SHL SUB DUP2 CALLDATALOAD DUP2 AND SWAP2 PUSH1 0x20 DUP2 ADD CALLDATALOAD DUP3 AND SWAP2 PUSH1 0x40 DUP3 ADD CALLDATALOAD SWAP2 PUSH1 0x60 DUP2 ADD CALLDATALOAD SWAP2 PUSH1 0x80 DUP3 ADD CALLDATALOAD SWAP2 PUSH1 0xA0 DUP2 ADD CALLDATALOAD SWAP1 SWAP2 AND SWAP1 PUSH1 0xC0 DUP2 ADD CALLDATALOAD SWAP1 PUSH1 0xE0 DUP2 ADD CALLDATALOAD ISZERO ISZERO SWAP1 PUSH1 0xFF PUSH2 0x100 DUP3 ADD CALLDATALOAD AND SWAP1 PUSH2 0x120 DUP2 ADD CALLDATALOAD SWAP1 PUSH2 0x140 ADD CALLDATALOAD PUSH2 0x11CE JUMP JUMPDEST CALLVALUE DUP1 ISZERO PUSH2 0x4B7 JUMPI PUSH1 0x0 DUP1 REVERT JUMPDEST POP PUSH2 0x280 PUSH2 0x12C8 JUMP JUMPDEST CALLVALUE DUP1 ISZERO PUSH2 0x4CC JUMPI PUSH1 0x0 DUP1 REVERT JUMPDEST POP PUSH2 0x328 PUSH1 0x4 DUP1 CALLDATASIZE SUB PUSH1 0xA0 DUP2 LT ISZERO PUSH2 0x4E3 JUMPI PUSH1 0x0 DUP1 REVERT JUMPDEST DUP2 CALLDATALOAD SWAP2 PUSH1 0x20 DUP2 ADD CALLDATALOAD SWAP2 DUP2 ADD SWAP1 PUSH1 0x60 DUP2 ADD PUSH1 0x40 DUP3 ADD CALLDATALOAD PUSH1 0x1 PUSH1 0x20 SHL DUP2 GT ISZERO PUSH2 0x509 JUMPI PUSH1 0x0 DUP1 REVERT JUMPDEST DUP3 ADD DUP4 PUSH1 0x20 DUP3 ADD GT ISZERO PUSH2 0x51B JUMPI PUSH1 0x0 DUP1 REVERT JUMPDEST DUP1 CALLDATALOAD SWAP1 PUSH1 0x20 ADD SWAP2 DUP5 PUSH1 0x20 DUP4 MUL DUP5 ADD GT PUSH1 0x1 PUSH1 0x20 SHL DUP4 GT OR ISZERO PUSH2 0x53C JUMPI PUSH1 0x0 DUP1 REVERT JUMPDEST SWAP2 SWAP4 POP SWAP2 POP PUSH1 0x1 PUSH1 0x1 PUSH1 0xA0 SHL SUB DUP2 CALLDATALOAD AND SWAP1 PUSH1 0x20 ADD CALLDATALOAD PUSH2 0x12CE JUMP JUMPDEST CALLVALUE DUP1 ISZERO PUSH2 0x562 JUMPI PUSH1 0x0 DUP1 REVERT JUMPDEST POP PUSH2 0x328 PUSH1 0x4 DUP1 CALLDATASIZE SUB PUSH1 0xA0 DUP2 LT ISZERO PUSH2 0x579 JUMPI PUSH1 0x0 DUP1 REVERT JUMPDEST DUP2 CALLDATALOAD SWAP2 PUSH1 0x20 DUP2 ADD CALLDATALOAD SWAP2 DUP2 ADD SWAP1 PUSH1 0x60 DUP2 ADD PUSH1 0x40 DUP3 ADD CALLDATALOAD PUSH1 0x1 PUSH1 0x20 SHL DUP2 GT ISZERO PUSH2 0x59F JUMPI PUSH1 0x0 DUP1 REVERT JUMPDEST DUP3 ADD DUP4 PUSH1 0x20 DUP3 ADD GT ISZERO PUSH2 0x5B1 JUMPI PUSH1 0x0 DUP1 REVERT JUMPDEST DUP1 CALLDATALOAD SWAP1 PUSH1 0x20 ADD SWAP2 DUP5 PUSH1 0x20 DUP4 MUL DUP5 ADD GT PUSH1 0x1 PUSH1 0x20 SHL DUP4 GT OR ISZERO PUSH2 0x5D2 JUMPI PUSH1 0x0 DUP1 REVERT JUMPDEST SWAP2 SWAP4 POP SWAP2 POP PUSH1 0x1 PUSH1 0x1 PUSH1 0xA0 SHL SUB DUP2 CALLDATALOAD AND SWAP1 PUSH1 0x20 ADD CALLDATALOAD PUSH2 0x1419 JUMP JUMPDEST CALLVALUE DUP1 ISZERO PUSH2 0x5F8 JUMPI PUSH1 0x0 DUP1 REVERT JUMPDEST POP PUSH2 0x280 PUSH1 0x4 DUP1 CALLDATASIZE SUB PUSH2 0x140 DUP2 LT ISZERO PUSH2 0x610 JUMPI PUSH1 0x0 DUP1 REVERT JUMPDEST POP PUSH1 0x1 PUSH1 0x1 PUSH1 0xA0 SHL SUB DUP2 CALLDATALOAD DUP2 AND SWAP2 PUSH1 0x20 DUP2 ADD CALLDATALOAD SWAP2 PUSH1 0x40 DUP3 ADD CALLDATALOAD SWAP2 PUSH1 0x60 DUP2 ADD CALLDATALOAD SWAP2 PUSH1 0x80 DUP3 ADD CALLDATALOAD AND SWAP1 PUSH1 0xA0 DUP2 ADD CALLDATALOAD SWAP1 PUSH1 0xC0 DUP2 ADD CALLDATALOAD ISZERO ISZERO SWAP1 PUSH1 0xFF PUSH1 0xE0 DUP3 ADD CALLDATALOAD AND SWAP1 PUSH2 0x100 DUP2 ADD CALLDATALOAD SWAP1 PUSH2 0x120 ADD CALLDATALOAD PUSH2 0x15A5 JUMP JUMPDEST CALLVALUE DUP1 ISZERO PUSH2 0x66B JUMPI PUSH1 0x0 DUP1 REVERT JUMPDEST POP PUSH2 0x1D7 PUSH1 0x4 DUP1 CALLDATASIZE SUB PUSH1 0xA0 DUP2 LT ISZERO PUSH2 0x682 JUMPI PUSH1 0x0 DUP1 REVERT JUMPDEST DUP2 CALLDATALOAD SWAP2 PUSH1 0x20 DUP2 ADD CALLDATALOAD SWAP2 DUP2 ADD SWAP1 PUSH1 0x60 DUP2 ADD PUSH1 0x40 DUP3 ADD CALLDATALOAD PUSH1 0x1 PUSH1 0x20 SHL DUP2 GT ISZERO PUSH2 0x6A8 JUMPI PUSH1 0x0 DUP1 REVERT JUMPDEST DUP3 ADD DUP4 PUSH1 0x20 DUP3 ADD GT ISZERO PUSH2 0x6BA JUMPI PUSH1 0x0 DUP1 REVERT JUMPDEST DUP1 CALLDATALOAD SWAP1 PUSH1 0x20 ADD SWAP2 DUP5 PUSH1 0x20 DUP4 MUL DUP5 ADD GT PUSH1 0x1 PUSH1 0x20 SHL DUP4 GT OR ISZERO PUSH2 0x6DB JUMPI PUSH1 0x0 DUP1 REVERT JUMPDEST SWAP2 SWAP4 POP SWAP2 POP PUSH1 0x1 PUSH1 0x1 PUSH1 0xA0 SHL SUB DUP2 CALLDATALOAD AND SWAP1 PUSH1 0x20 ADD CALLDATALOAD PUSH2 0x16B3 JUMP JUMPDEST CALLVALUE DUP1 ISZERO PUSH2 0x701 JUMPI PUSH1 0x0 DUP1 REVERT JUMPDEST POP PUSH2 0x1D7 PUSH1 0x4 DUP1 CALLDATASIZE SUB PUSH1 0xA0 DUP2 LT ISZERO PUSH2 0x718 JUMPI PUSH1 0x0 DUP1 REVERT JUMPDEST DUP2 CALLDATALOAD SWAP2 PUSH1 0x20 DUP2 ADD CALLDATALOAD SWAP2 DUP2 ADD SWAP1 PUSH1 0x60 DUP2 ADD PUSH1 0x40 DUP3 ADD CALLDATALOAD PUSH1 0x1 PUSH1 0x20 SHL DUP2 GT ISZERO PUSH2 0x73E JUMPI PUSH1 0x0 DUP1 REVERT JUMPDEST DUP3 ADD DUP4 PUSH1 0x20 DUP3 ADD GT ISZERO PUSH2 0x750 JUMPI PUSH1 0x0 DUP1 REVERT JUMPDEST DUP1 CALLDATALOAD SWAP1 PUSH1 0x20 ADD SWAP2 DUP5 PUSH1 0x20 DUP4 MUL DUP5 ADD GT PUSH1 0x1 PUSH1 0x20 SHL DUP4 GT OR ISZERO PUSH2 0x771 JUMPI PUSH1 0x0 DUP1 REVERT JUMPDEST SWAP2 SWAP4 POP SWAP2 POP PUSH1 0x1 PUSH1 0x1 PUSH1 0xA0 SHL SUB DUP2 CALLDATALOAD AND SWAP1 PUSH1 0x20 ADD CALLDATALOAD PUSH2 0x1930 JUMP JUMPDEST PUSH2 0x328 PUSH1 0x4 DUP1 CALLDATASIZE SUB PUSH1 0x80 DUP2 LT ISZERO PUSH2 0x7A1 JUMPI PUSH1 0x0 DUP1 REVERT JUMPDEST DUP2 CALLDATALOAD SWAP2 SWAP1 DUP2 ADD SWAP1 PUSH1 0x40 DUP2 ADD PUSH1 0x20 DUP3 ADD CALLDATALOAD PUSH1 0x1 PUSH1 0x20 SHL DUP2 GT ISZERO PUSH2 0x7C2 JUMPI PUSH1 0x0 DUP1 REVERT JUMPDEST DUP3 ADD DUP4 PUSH1 0x20 DUP3 ADD GT ISZERO PUSH2 0x7D4 JUMPI PUSH1 0x0 DUP1 REVERT JUMPDEST DUP1 CALLDATALOAD SWAP1 PUSH1 0x20 ADD SWAP2 DUP5 PUSH1 0x20 DUP4 MUL DUP5 ADD GT PUSH1 0x1 PUSH1 0x20 SHL DUP4 GT OR ISZERO PUSH2 0x7F5 JUMPI PUSH1 0x0 DUP1 REVERT JUMPDEST SWAP2 SWAP4 POP SWAP2 POP PUSH1 0x1 PUSH1 0x1 PUSH1 0xA0 SHL SUB DUP2 CALLDATALOAD AND SWAP1 PUSH1 0x20 ADD CALLDATALOAD PUSH2 0x1BB9 JUMP JUMPDEST CALLVALUE DUP1 ISZERO PUSH2 0x81B JUMPI PUSH1 0x0 DUP1 REVERT JUMPDEST POP PUSH2 0x280 PUSH1 0x4 DUP1 CALLDATASIZE SUB PUSH1 0x60 DUP2 LT ISZERO PUSH2 0x832 JUMPI PUSH1 0x0 DUP1 REVERT JUMPDEST POP DUP1 CALLDATALOAD SWAP1 PUSH1 0x20 DUP2 ADD CALLDATALOAD SWAP1 PUSH1 0x40 ADD CALLDATALOAD PUSH2 0x1F03 JUMP JUMPDEST CALLVALUE DUP1 ISZERO PUSH2 0x851 JUMPI PUSH1 0x0 DUP1 REVERT JUMPDEST POP PUSH2 0x328 PUSH1 0x4 DUP1 CALLDATASIZE SUB PUSH1 0xA0 DUP2 LT ISZERO PUSH2 0x868 JUMPI PUSH1 0x0 DUP1 REVERT JUMPDEST DUP2 CALLDATALOAD SWAP2 PUSH1 0x20 DUP2 ADD CALLDATALOAD SWAP2 DUP2 ADD SWAP1 PUSH1 0x60 DUP2 ADD PUSH1 0x40 DUP3 ADD CALLDATALOAD PUSH1 0x1 PUSH1 0x20 SHL DUP2 GT ISZERO PUSH2 0x88E JUMPI PUSH1 0x0 DUP1 REVERT JUMPDEST DUP3 ADD DUP4 PUSH1 0x20 DUP3 ADD GT ISZERO PUSH2 0x8A0 JUMPI PUSH1 0x0 DUP1 REVERT JUMPDEST DUP1 CALLDATALOAD SWAP1 PUSH1 0x20 ADD SWAP2 DUP5 PUSH1 0x20 DUP4 MUL DUP5 ADD GT PUSH1 0x1 PUSH1 0x20 SHL DUP4 GT OR ISZERO PUSH2 0x8C1 JUMPI PUSH1 0x0 DUP1 REVERT JUMPDEST SWAP2 SWAP4 POP SWAP2 POP PUSH1 0x1 PUSH1 0x1 PUSH1 0xA0 SHL SUB DUP2 CALLDATALOAD AND SWAP1 PUSH1 0x20 ADD CALLDATALOAD PUSH2 0x1F10 JUMP JUMPDEST CALLVALUE DUP1 ISZERO PUSH2 0x8E7 JUMPI PUSH1 0x0 DUP1 REVERT JUMPDEST POP PUSH2 0x280 PUSH1 0x4 DUP1 CALLDATASIZE SUB PUSH1 0x20 DUP2 LT ISZERO PUSH2 0x8FE JUMPI PUSH1 0x0 DUP1 REVERT JUMPDEST POP CALLDATALOAD PUSH2 0x2009 JUMP JUMPDEST CALLVALUE DUP1 ISZERO PUSH2 0x911 JUMPI PUSH1 0x0 DUP1 REVERT JUMPDEST POP PUSH2 0x280 PUSH2 0x2011 JUMP JUMPDEST CALLVALUE DUP1 ISZERO PUSH2 0x926 JUMPI PUSH1 0x0 DUP1 REVERT JUMPDEST POP PUSH2 0x92F PUSH2 0x2017 JUMP JUMPDEST PUSH1 0x40 DUP1 MLOAD PUSH1 0x1 PUSH1 0x1 PUSH1 0xA0 SHL SUB SWAP1 SWAP3 AND DUP3 MSTORE MLOAD SWAP1 DUP2 SWAP1 SUB PUSH1 0x20 ADD SWAP1 RETURN JUMPDEST CALLVALUE DUP1 ISZERO PUSH2 0x957 JUMPI PUSH1 0x0 DUP1 REVERT JUMPDEST POP PUSH2 0x280 PUSH1 0x4 DUP1 CALLDATASIZE SUB PUSH1 0x60 DUP2 LT ISZERO PUSH2 0x96E JUMPI PUSH1 0x0 DUP1 REVERT JUMPDEST POP DUP1 CALLDATALOAD SWAP1 PUSH1 0x20 DUP2 ADD CALLDATALOAD SWAP1 PUSH1 0x40 ADD CALLDATALOAD PUSH2 0x203B JUMP JUMPDEST CALLVALUE DUP1 ISZERO PUSH2 0x98D JUMPI PUSH1 0x0 DUP1 REVERT JUMPDEST POP PUSH2 0x280 PUSH1 0x4 DUP1 CALLDATASIZE SUB PUSH1 0xC0 DUP2 LT ISZERO PUSH2 0x9A4 JUMPI PUSH1 0x0 DUP1 REVERT JUMPDEST POP PUSH1 0x1 PUSH1 0x1 PUSH1 0xA0 SHL SUB DUP2 CALLDATALOAD DUP2 AND SWAP2 PUSH1 0x20 DUP2 ADD CALLDATALOAD SWAP2 PUSH1 0x40 DUP3 ADD CALLDATALOAD SWAP2 PUSH1 0x60 DUP2 ADD CALLDATALOAD SWAP2 PUSH1 0x80 DUP3 ADD CALLDATALOAD AND SWAP1 PUSH1 0xA0 ADD CALLDATALOAD PUSH2 0x2048 JUMP JUMPDEST PUSH2 0x1D7 PUSH1 0x4 DUP1 CALLDATASIZE SUB PUSH1 0x80 DUP2 LT ISZERO PUSH2 0x9EA JUMPI PUSH1 0x0 DUP1 REVERT JUMPDEST DUP2 CALLDATALOAD SWAP2 SWAP1 DUP2 ADD SWAP1 PUSH1 0x40 DUP2 ADD PUSH1 0x20 DUP3 ADD CALLDATALOAD PUSH1 0x1 PUSH1 0x20 SHL DUP2 GT ISZERO PUSH2 0xA0B JUMPI PUSH1 0x0 DUP1 REVERT JUMPDEST DUP3 ADD DUP4 PUSH1 0x20 DUP3 ADD GT ISZERO PUSH2 0xA1D JUMPI PUSH1 0x0 DUP1 REVERT JUMPDEST DUP1 CALLDATALOAD SWAP1 PUSH1 0x20 ADD SWAP2 DUP5 PUSH1 0x20 DUP4 MUL DUP5 ADD GT PUSH1 0x1 PUSH1 0x20 SHL DUP4 GT OR ISZERO PUSH2 0xA3E JUMPI PUSH1 0x0 DUP1 REVERT JUMPDEST SWAP2 SWAP4 POP SWAP2 POP PUSH1 0x1 PUSH1 0x1 PUSH1 0xA0 SHL SUB DUP2 CALLDATALOAD AND SWAP1 PUSH1 0x20 ADD CALLDATALOAD PUSH2 0x21CE JUMP JUMPDEST CALLVALUE DUP1 ISZERO PUSH2 0xA64 JUMPI PUSH1 0x0 DUP1 REVERT JUMPDEST POP PUSH2 0x231 PUSH1 0x4 DUP1 CALLDATASIZE SUB PUSH1 0xE0 DUP2 LT ISZERO PUSH2 0xA7B JUMPI PUSH1 0x0 DUP1 REVERT JUMPDEST POP PUSH1 0x1 PUSH1 0x1 PUSH1 0xA0 SHL SUB DUP2 CALLDATALOAD DUP2 AND SWAP2 PUSH1 0x20 DUP2 ADD CALLDATALOAD DUP3 AND SWAP2 PUSH1 0x40 DUP3 ADD CALLDATALOAD SWAP2 PUSH1 0x60 DUP2 ADD CALLDATALOAD SWAP2 PUSH1 0x80 DUP3 ADD CALLDATALOAD SWAP2 PUSH1 0xA0 DUP2 ADD CALLDATALOAD SWAP1 SWAP2 AND SWAP1 PUSH1 0xC0 ADD CALLDATALOAD PUSH2 0x253F JUMP JUMPDEST CALLVALUE DUP1 ISZERO PUSH2 0xAC1 JUMPI PUSH1 0x0 DUP1 REVERT JUMPDEST POP PUSH2 0x92F PUSH2 0x2783 JUMP JUMPDEST CALLVALUE DUP1 ISZERO PUSH2 0xAD6 JUMPI PUSH1 0x0 DUP1 REVERT JUMPDEST POP PUSH2 0x328 PUSH1 0x4 DUP1 CALLDATASIZE SUB PUSH1 0x40 DUP2 LT ISZERO PUSH2 0xAED JUMPI PUSH1 0x0 DUP1 REVERT JUMPDEST DUP2 CALLDATALOAD SWAP2 SWAP1 DUP2 ADD SWAP1 PUSH1 0x40 DUP2 ADD PUSH1 0x20 DUP3 ADD CALLDATALOAD PUSH1 0x1 PUSH1 0x20 SHL DUP2 GT ISZERO PUSH2 0xB0E JUMPI PUSH1 0x0 DUP1 REVERT JUMPDEST DUP3 ADD DUP4 PUSH1 0x20 DUP3 ADD GT ISZERO PUSH2 0xB20 JUMPI PUSH1 0x0 DUP1 REVERT JUMPDEST DUP1 CALLDATALOAD SWAP1 PUSH1 0x20 ADD SWAP2 DUP5 PUSH1 0x20 DUP4 MUL DUP5 ADD GT PUSH1 0x1 PUSH1 0x20 SHL DUP4 GT OR ISZERO PUSH2 0xB41 JUMPI PUSH1 0x0 DUP1 REVERT JUMPDEST SWAP2 SWAP1 DUP1 DUP1 PUSH1 0x20 MUL PUSH1 0x20 ADD PUSH1 0x40 MLOAD SWAP1 DUP2 ADD PUSH1 0x40 MSTORE DUP1 SWAP4 SWAP3 SWAP2 SWAP1 DUP2 DUP2 MSTORE PUSH1 0x20 ADD DUP4 DUP4 PUSH1 0x20 MUL DUP1 DUP3 DUP5 CALLDATACOPY PUSH1 0x0 SWAP3 ADD SWAP2 SWAP1 SWAP2 MSTORE POP SWAP3 SWAP6 POP PUSH2 0x27A7 SWAP5 POP POP POP POP POP JUMP JUMPDEST CALLVALUE DUP1 ISZERO PUSH2 0xB8B JUMPI PUSH1 0x0 DUP1 REVERT JUMPDEST POP PUSH2 0x231 PUSH1 0x4 DUP1 CALLDATASIZE SUB PUSH2 0x140 DUP2 LT ISZERO PUSH2 0xBA3 JUMPI PUSH1 0x0 DUP1 REVERT JUMPDEST POP PUSH1 0x1 PUSH1 0x1 PUSH1 0xA0 SHL SUB DUP2 CALLDATALOAD DUP2 AND SWAP2 PUSH1 0x20 DUP2 ADD CALLDATALOAD SWAP2 PUSH1 0x40 DUP3 ADD CALLDATALOAD SWAP2 PUSH1 0x60 DUP2 ADD CALLDATALOAD SWAP2 PUSH1 0x80 DUP3 ADD CALLDATALOAD AND SWAP1 PUSH1 0xA0 DUP2 ADD CALLDATALOAD SWAP1 PUSH1 0xC0 DUP2 ADD CALLDATALOAD ISZERO ISZERO SWAP1 PUSH1 0xFF PUSH1 0xE0 DUP3 ADD CALLDATALOAD AND SWAP1 PUSH2 0x100 DUP2 ADD CALLDATALOAD SWAP1 PUSH2 0x120 ADD CALLDATALOAD PUSH2 0x27D4 JUMP JUMPDEST CALLVALUE DUP1 ISZERO PUSH2 0xBFE JUMPI PUSH1 0x0 DUP1 REVERT JUMPDEST POP PUSH2 0xC54 PUSH1 0x4 DUP1 CALLDATASIZE SUB PUSH2 0x100 DUP2 LT ISZERO PUSH2 0xC16 JUMPI PUSH1 0x0 DUP1 REVERT JUMPDEST POP PUSH1 0x1 PUSH1 0x1 PUSH1 0xA0 SHL SUB DUP2 CALLDATALOAD DUP2 AND SWAP2 PUSH1 0x20 DUP2 ADD CALLDATALOAD DUP3 AND SWAP2 PUSH1 0x40 DUP3 ADD CALLDATALOAD SWAP2 PUSH1 0x60 DUP2 ADD CALLDATALOAD SWAP2 PUSH1 0x80 DUP3 ADD CALLDATALOAD SWAP2 PUSH1 0xA0 DUP2 ADD CALLDATALOAD SWAP2 PUSH1 0xC0 DUP3 ADD CALLDATALOAD AND SWAP1 PUSH1 0xE0 ADD CALLDATALOAD PUSH2 0x28E8 JUMP JUMPDEST PUSH1 0x40 DUP1 MLOAD SWAP4 DUP5 MSTORE PUSH1 0x20 DUP5 ADD SWAP3 SWAP1 SWAP3 MSTORE DUP3 DUP3 ADD MSTORE MLOAD SWAP1 DUP2 SWAP1 SUB PUSH1 0x60 ADD SWAP1 RETURN JUMPDEST PUSH2 0xC54 PUSH1 0x4 DUP1 CALLDATASIZE SUB PUSH1 0xC0 DUP2 LT ISZERO PUSH2 0xC88 JUMPI PUSH1 0x0 DUP1 REVERT JUMPDEST POP PUSH1 0x1 PUSH1 0x1 PUSH1 0xA0 SHL SUB DUP2 CALLDATALOAD DUP2 AND SWAP2 PUSH1 0x20 DUP2 ADD CALLDATALOAD SWAP2 PUSH1 0x40 DUP3 ADD CALLDATALOAD SWAP2 PUSH1 0x60 DUP2 ADD CALLDATALOAD SWAP2 PUSH1 0x80 DUP3 ADD CALLDATALOAD AND SWAP1 PUSH1 0xA0 ADD CALLDATALOAD PUSH2 0x2A1B JUMP JUMPDEST PUSH2 0x328 PUSH1 0x4 DUP1 CALLDATASIZE SUB PUSH1 0x80 DUP2 LT ISZERO PUSH2 0xCCE JUMPI PUSH1 0x0 DUP1 REVERT JUMPDEST DUP2 CALLDATALOAD SWAP2 SWAP1 DUP2 ADD SWAP1 PUSH1 0x40 DUP2 ADD PUSH1 0x20 DUP3 ADD CALLDATALOAD PUSH1 0x1 PUSH1 0x20 SHL DUP2 GT ISZERO PUSH2 0xCEF JUMPI PUSH1 0x0 DUP1 REVERT JUMPDEST DUP3 ADD DUP4 PUSH1 0x20 DUP3 ADD GT ISZERO PUSH2 0xD01 JUMPI PUSH1 0x0 DUP1 REVERT JUMPDEST DUP1 CALLDATALOAD SWAP1 PUSH1 0x20 ADD SWAP2 DUP5 PUSH1 0x20 DUP4 MUL DUP5 ADD GT PUSH1 0x1 PUSH1 0x20 SHL DUP4 GT OR ISZERO PUSH2 0xD22 JUMPI PUSH1 0x0 DUP1 REVERT JUMPDEST SWAP2 SWAP4 POP SWAP2 POP PUSH1 0x1 PUSH1 0x1 PUSH1 0xA0 SHL SUB DUP2 CALLDATALOAD AND SWAP1 PUSH1 0x20 ADD CALLDATALOAD PUSH2 0x2CAE JUMP JUMPDEST PUSH1 0x0 DUP1 DUP3 TIMESTAMP DUP2 LT ISZERO PUSH2 0xD83 JUMPI PUSH1 0x40 DUP1 MLOAD PUSH3 0x461BCD PUSH1 0xE5 SHL DUP2 MSTORE PUSH1 0x20 PUSH1 0x4 DUP3 ADD MSTORE PUSH1 0x18 PUSH1 0x24 DUP3 ADD MSTORE PUSH1 0x0 DUP1 MLOAD PUSH1 0x20 PUSH2 0x45FB DUP4 CODECOPY DUP2 MLOAD SWAP2 MSTORE PUSH1 0x44 DUP3 ADD MSTORE SWAP1 MLOAD SWAP1 DUP2 SWAP1 SUB PUSH1 0x64 ADD SWAP1 REVERT JUMPDEST PUSH2 0xDB2 DUP10 PUSH32 0x0 DUP11 DUP11 DUP11 ADDRESS DUP11 PUSH2 0x253F JUMP JUMPDEST SWAP1 SWAP4 POP SWAP2 POP PUSH2 0xDC2 DUP10 DUP7 DUP6 PUSH2 0x3027 JUMP JUMPDEST PUSH32 0x0 PUSH1 0x1 PUSH1 0x1 PUSH1 0xA0 SHL SUB AND PUSH4 0x2E1A7D4D DUP4 PUSH1 0x40 MLOAD DUP3 PUSH4 0xFFFFFFFF AND PUSH1 0xE0 SHL DUP2 MSTORE PUSH1 0x4 ADD DUP1 DUP3 DUP2 MSTORE PUSH1 0x20 ADD SWAP2 POP POP PUSH1 0x0 PUSH1 0x40 MLOAD DUP1 DUP4 SUB DUP2 PUSH1 0x0 DUP8 DUP1 EXTCODESIZE ISZERO DUP1 ISZERO PUSH2 0xE28 JUMPI PUSH1 0x0 DUP1 REVERT JUMPDEST POP GAS CALL ISZERO DUP1 ISZERO PUSH2 0xE3C JUMPI RETURNDATASIZE PUSH1 0x0 DUP1 RETURNDATACOPY RETURNDATASIZE PUSH1 0x0 REVERT JUMPDEST POP POP POP POP PUSH2 0xE4A DUP6 DUP4 PUSH2 0x317B JUMP JUMPDEST POP SWAP7 POP SWAP7 SWAP5 POP POP POP POP POP JUMP JUMPDEST PUSH1 0x0 PUSH2 0xE63 DUP5 DUP5 DUP5 PUSH2 0x3273 JUMP JUMPDEST SWAP5 SWAP4 POP POP POP POP JUMP JUMPDEST PUSH1 0x60 DUP2 TIMESTAMP DUP2 LT ISZERO PUSH2 0xEB1 JUMPI PUSH1 0x40 DUP1 MLOAD PUSH3 0x461BCD PUSH1 0xE5 SHL DUP2 MSTORE PUSH1 0x20 PUSH1 0x4 DUP3 ADD MSTORE PUSH1 0x18 PUSH1 0x24 DUP3 ADD MSTORE PUSH1 0x0 DUP1 MLOAD PUSH1 0x20 PUSH2 0x45FB DUP4 CODECOPY DUP2 MLOAD SWAP2 MSTORE PUSH1 0x44 DUP3 ADD MSTORE SWAP1 MLOAD SWAP1 DUP2 SWAP1 SUB PUSH1 0x64 ADD SWAP1 REVERT JUMPDEST PUSH1 0x1 PUSH1 0x1 PUSH1 0xA0 SHL SUB PUSH32 0x0 AND DUP7 DUP7 PUSH1 0x0 NOT DUP2 ADD DUP2 DUP2 LT PUSH2 0xEEB JUMPI INVALID JUMPDEST SWAP1 POP PUSH1 0x20 MUL ADD CALLDATALOAD PUSH1 0x1 PUSH1 0x1 PUSH1 0xA0 SHL SUB AND PUSH1 0x1 PUSH1 0x1 PUSH1 0xA0 SHL SUB AND EQ PUSH2 0xF44 JUMPI PUSH1 0x40 DUP1 MLOAD PUSH3 0x461BCD PUSH1 0xE5 SHL DUP2 MSTORE PUSH1 0x20 PUSH1 0x4 DUP3 ADD MSTORE PUSH1 0x1D PUSH1 0x24 DUP3 ADD MSTORE PUSH1 0x0 DUP1 MLOAD PUSH1 0x20 PUSH2 0x4532 DUP4 CODECOPY DUP2 MLOAD SWAP2 MSTORE PUSH1 0x44 DUP3 ADD MSTORE SWAP1 MLOAD SWAP1 DUP2 SWAP1 SUB PUSH1 0x64 ADD SWAP1 REVERT JUMPDEST PUSH2 0xFA2 PUSH32 0x0 DUP10 DUP9 DUP9 DUP1 DUP1 PUSH1 0x20 MUL PUSH1 0x20 ADD PUSH1 0x40 MLOAD SWAP1 DUP2 ADD PUSH1 0x40 MSTORE DUP1 SWAP4 SWAP3 SWAP2 SWAP1 DUP2 DUP2 MSTORE PUSH1 0x20 ADD DUP4 DUP4 PUSH1 0x20 MUL DUP1 DUP3 DUP5 CALLDATACOPY PUSH1 0x0 SWAP3 ADD SWAP2 SWAP1 SWAP2 MSTORE POP PUSH2 0x334B SWAP3 POP POP POP JUMP JUMPDEST SWAP2 POP DUP7 DUP3 PUSH1 0x1 DUP5 MLOAD SUB DUP2 MLOAD DUP2 LT PUSH2 0xFB5 JUMPI INVALID JUMPDEST PUSH1 0x20 MUL PUSH1 0x20 ADD ADD MLOAD LT ISZERO PUSH2 0xFFA JUMPI PUSH1 0x40 MLOAD PUSH3 0x461BCD PUSH1 0xE5 SHL DUP2 MSTORE PUSH1 0x4 ADD DUP1 DUP1 PUSH1 0x20 ADD DUP3 DUP2 SUB DUP3 MSTORE PUSH1 0x2B DUP2 MSTORE PUSH1 0x20 ADD DUP1 PUSH2 0x4578 PUSH1 0x2B SWAP2 CODECOPY PUSH1 0x40 ADD SWAP2 POP POP PUSH1 0x40 MLOAD DUP1 SWAP2 SUB SWAP1 REVERT JUMPDEST PUSH2 0x1098 DUP7 DUP7 PUSH1 0x0 DUP2 DUP2 LT PUSH2 0x100A JUMPI INVALID JUMPDEST SWAP1 POP PUSH1 0x20 MUL ADD CALLDATALOAD PUSH1 0x1 PUSH1 0x1 PUSH1 0xA0 SHL SUB AND CALLER PUSH2 0x107E PUSH32 0x0 DUP11 DUP11 PUSH1 0x0 DUP2 DUP2 LT PUSH2 0x104C JUMPI INVALID JUMPDEST SWAP1 POP PUSH1 0x20 MUL ADD CALLDATALOAD PUSH1 0x1 PUSH1 0x1 PUSH1 0xA0 SHL SUB AND DUP12 DUP12 PUSH1 0x1 DUP2 DUP2 LT PUSH2 0x1069 JUMPI INVALID JUMPDEST SWAP1 POP PUSH1 0x20 MUL ADD CALLDATALOAD PUSH1 0x1 PUSH1 0x1 PUSH1 0xA0 SHL SUB AND PUSH2 0x3497 JUMP JUMPDEST DUP6 PUSH1 0x0 DUP2 MLOAD DUP2 LT PUSH2 0x108B JUMPI INVALID JUMPDEST PUSH1 0x20 MUL PUSH1 0x20 ADD ADD MLOAD PUSH2 0x3557 JUMP JUMPDEST PUSH2 0x10D7 DUP3 DUP8 DUP8 DUP1 DUP1 PUSH1 0x20 MUL PUSH1 0x20 ADD PUSH1 0x40 MLOAD SWAP1 DUP2 ADD PUSH1 0x40 MSTORE DUP1 SWAP4 SWAP3 SWAP2 SWAP1 DUP2 DUP2 MSTORE PUSH1 0x20 ADD DUP4 DUP4 PUSH1 0x20 MUL DUP1 DUP3 DUP5 CALLDATACOPY PUSH1 0x0 SWAP3 ADD SWAP2 SWAP1 SWAP2 MSTORE POP ADDRESS SWAP3 POP PUSH2 0x36B4 SWAP2 POP POP JUMP JUMPDEST PUSH32 0x0 PUSH1 0x1 PUSH1 0x1 PUSH1 0xA0 SHL SUB AND PUSH4 0x2E1A7D4D DUP4 PUSH1 0x1 DUP6 MLOAD SUB DUP2 MLOAD DUP2 LT PUSH2 0x1116 JUMPI INVALID JUMPDEST PUSH1 0x20 MUL PUSH1 0x20 ADD ADD MLOAD PUSH1 0x40 MLOAD DUP3 PUSH4 0xFFFFFFFF AND PUSH1 0xE0 SHL DUP2 MSTORE PUSH1 0x4 ADD DUP1 DUP3 DUP2 MSTORE PUSH1 0x20 ADD SWAP2 POP POP PUSH1 0x0 PUSH1 0x40 MLOAD DUP1 DUP4 SUB DUP2 PUSH1 0x0 DUP8 DUP1 EXTCODESIZE ISZERO DUP1 ISZERO PUSH2 0x1154 JUMPI PUSH1 0x0 DUP1 REVERT JUMPDEST POP GAS CALL ISZERO DUP1 ISZERO PUSH2 0x1168 JUMPI RETURNDATASIZE PUSH1 0x0 DUP1 RETURNDATACOPY RETURNDATASIZE PUSH1 0x0 REVERT JUMPDEST POP POP POP POP PUSH2 0x118D DUP5 DUP4 PUSH1 0x1 DUP6 MLOAD SUB DUP2 MLOAD DUP2 LT PUSH2 0x1180 JUMPI INVALID JUMPDEST PUSH1 0x20 MUL PUSH1 0x20 ADD ADD MLOAD PUSH2 0x317B JUMP JUMPDEST POP SWAP7 SWAP6 POP POP POP POP POP POP JUMP JUMPDEST PUSH1 0x60 PUSH2 0x11C5 PUSH32 0x0 DUP5 DUP5 PUSH2 0x38F1 JUMP JUMPDEST SWAP1 POP JUMPDEST SWAP3 SWAP2 POP POP JUMP JUMPDEST PUSH1 0x0 DUP1 PUSH1 0x0 PUSH2 0x11FE PUSH32 0x0 DUP16 DUP16 PUSH2 0x3497 JUMP JUMPDEST SWAP1 POP PUSH1 0x0 DUP8 PUSH2 0x120D JUMPI DUP13 PUSH2 0x1211 JUMP JUMPDEST PUSH1 0x0 NOT JUMPDEST PUSH1 0x40 DUP1 MLOAD PUSH4 0xD505ACCF PUSH1 0xE0 SHL DUP2 MSTORE CALLER PUSH1 0x4 DUP3 ADD MSTORE ADDRESS PUSH1 0x24 DUP3 ADD MSTORE PUSH1 0x44 DUP2 ADD DUP4 SWAP1 MSTORE PUSH1 0x64 DUP2 ADD DUP13 SWAP1 MSTORE PUSH1 0xFF DUP11 AND PUSH1 0x84 DUP3 ADD MSTORE PUSH1 0xA4 DUP2 ADD DUP10 SWAP1 MSTORE PUSH1 0xC4 DUP2 ADD DUP9 SWAP1 MSTORE SWAP1 MLOAD SWAP2 SWAP3 POP PUSH1 0x1 PUSH1 0x1 PUSH1 0xA0 SHL SUB DUP5 AND SWAP2 PUSH4 0xD505ACCF SWAP2 PUSH1 0xE4 DUP1 DUP3 ADD SWAP3 PUSH1 0x0 SWAP3 SWAP1 SWAP2 SWAP1 DUP3 SWAP1 SUB ADD DUP2 DUP4 DUP8 DUP1 EXTCODESIZE ISZERO DUP1 ISZERO PUSH2 0x1287 JUMPI PUSH1 0x0 DUP1 REVERT JUMPDEST POP GAS CALL ISZERO DUP1 ISZERO PUSH2 0x129B JUMPI RETURNDATASIZE PUSH1 0x0 DUP1 RETURNDATACOPY RETURNDATASIZE PUSH1 0x0 REVERT JUMPDEST POP POP POP POP PUSH2 0x12AE DUP16 DUP16 DUP16 DUP16 DUP16 DUP16 DUP16 PUSH2 0x253F JUMP JUMPDEST DUP1 SWAP5 POP DUP2 SWAP6 POP POP POP POP POP SWAP12 POP SWAP12 SWAP10 POP POP POP POP POP POP POP POP POP POP JUMP JUMPDEST PUSH1 0x0 SLOAD SWAP1 JUMP JUMPDEST PUSH1 0x60 DUP2 TIMESTAMP DUP2 LT ISZERO PUSH2 0x1314 JUMPI PUSH1 0x40 DUP1 MLOAD PUSH3 0x461BCD PUSH1 0xE5 SHL DUP2 MSTORE PUSH1 0x20 PUSH1 0x4 DUP3 ADD MSTORE PUSH1 0x18 PUSH1 0x24 DUP3 ADD MSTORE PUSH1 0x0 DUP1 MLOAD PUSH1 0x20 PUSH2 0x45FB DUP4 CODECOPY DUP2 MLOAD SWAP2 MSTORE PUSH1 0x44 DUP3 ADD MSTORE SWAP1 MLOAD SWAP1 DUP2 SWAP1 SUB PUSH1 0x64 ADD SWAP1 REVERT JUMPDEST PUSH2 0x1372 PUSH32 0x0 DUP10 DUP9 DUP9 DUP1 DUP1 PUSH1 0x20 MUL PUSH1 0x20 ADD PUSH1 0x40 MLOAD SWAP1 DUP2 ADD PUSH1 0x40 MSTORE DUP1 SWAP4 SWAP3 SWAP2 SWAP1 DUP2 DUP2 MSTORE PUSH1 0x20 ADD DUP4 DUP4 PUSH1 0x20 MUL DUP1 DUP3 DUP5 CALLDATACOPY PUSH1 0x0 SWAP3 ADD SWAP2 SWAP1 SWAP2 MSTORE POP PUSH2 0x334B SWAP3 POP POP POP JUMP JUMPDEST SWAP2 POP DUP7 DUP3 PUSH1 0x1 DUP5 MLOAD SUB DUP2 MLOAD DUP2 LT PUSH2 0x1385 JUMPI INVALID JUMPDEST PUSH1 0x20 MUL PUSH1 0x20 ADD ADD MLOAD LT ISZERO PUSH2 0x13CA JUMPI PUSH1 0x40 MLOAD PUSH3 0x461BCD PUSH1 0xE5 SHL DUP2 MSTORE PUSH1 0x4 ADD DUP1 DUP1 PUSH1 0x20 ADD DUP3 DUP2 SUB DUP3 MSTORE PUSH1 0x2B DUP2 MSTORE PUSH1 0x20 ADD DUP1 PUSH2 0x4578 PUSH1 0x2B SWAP2 CODECOPY PUSH1 0x40 ADD SWAP2 POP POP PUSH1 0x40 MLOAD DUP1 SWAP2 SUB SWAP1 REVERT JUMPDEST PUSH2 0x13DA DUP7 DUP7 PUSH1 0x0 DUP2 DUP2 LT PUSH2 0x100A JUMPI INVALID JUMPDEST PUSH2 0x118D DUP3 DUP8 DUP8 DUP1 DUP1 PUSH1 0x20 MUL PUSH1 0x20 ADD PUSH1 0x40 MLOAD SWAP1 DUP2 ADD PUSH1 0x40 MSTORE DUP1 SWAP4 SWAP3 SWAP2 SWAP1 DUP2 DUP2 MSTORE PUSH1 0x20 ADD DUP4 DUP4 PUSH1 0x20 MUL DUP1 DUP3 DUP5 CALLDATACOPY PUSH1 0x0 SWAP3 ADD SWAP2 SWAP1 SWAP2 MSTORE POP DUP10 SWAP3 POP PUSH2 0x36B4 SWAP2 POP POP JUMP JUMPDEST PUSH1 0x60 DUP2 TIMESTAMP DUP2 LT ISZERO PUSH2 0x145F JUMPI PUSH1 0x40 DUP1 MLOAD PUSH3 0x461BCD PUSH1 0xE5 SHL DUP2 MSTORE PUSH1 0x20 PUSH1 0x4 DUP3 ADD MSTORE PUSH1 0x18 PUSH1 0x24 DUP3 ADD MSTORE PUSH1 0x0 DUP1 MLOAD PUSH1 0x20 PUSH2 0x45FB DUP4 CODECOPY DUP2 MLOAD SWAP2 MSTORE PUSH1 0x44 DUP3 ADD MSTORE SWAP1 MLOAD SWAP1 DUP2 SWAP1 SUB PUSH1 0x64 ADD SWAP1 REVERT JUMPDEST PUSH1 0x1 PUSH1 0x1 PUSH1 0xA0 SHL SUB PUSH32 0x0 AND DUP7 DUP7 PUSH1 0x0 NOT DUP2 ADD DUP2 DUP2 LT PUSH2 0x1499 JUMPI INVALID JUMPDEST SWAP1 POP PUSH1 0x20 MUL ADD CALLDATALOAD PUSH1 0x1 PUSH1 0x1 PUSH1 0xA0 SHL SUB AND PUSH1 0x1 PUSH1 0x1 PUSH1 0xA0 SHL SUB AND EQ PUSH2 0x14F2 JUMPI PUSH1 0x40 DUP1 MLOAD PUSH3 0x461BCD PUSH1 0xE5 SHL DUP2 MSTORE PUSH1 0x20 PUSH1 0x4 DUP3 ADD MSTORE PUSH1 0x1D PUSH1 0x24 DUP3 ADD MSTORE PUSH1 0x0 DUP1 MLOAD PUSH1 0x20 PUSH2 0x4532 DUP4 CODECOPY DUP2 MLOAD SWAP2 MSTORE PUSH1 0x44 DUP3 ADD MSTORE SWAP1 MLOAD SWAP1 DUP2 SWAP1 SUB PUSH1 0x64 ADD SWAP1 REVERT JUMPDEST PUSH2 0x1550 PUSH32 0x0 DUP10 DUP9 DUP9 DUP1 DUP1 PUSH1 0x20 MUL PUSH1 0x20 ADD PUSH1 0x40 MLOAD SWAP1 DUP2 ADD PUSH1 0x40 MSTORE DUP1 SWAP4 SWAP3 SWAP2 SWAP1 DUP2 DUP2 MSTORE PUSH1 0x20 ADD DUP4 DUP4 PUSH1 0x20 MUL DUP1 DUP3 DUP5 CALLDATACOPY PUSH1 0x0 SWAP3 ADD SWAP2 SWAP1 SWAP2 MSTORE POP PUSH2 0x38F1 SWAP3 POP POP POP JUMP JUMPDEST SWAP2 POP DUP7 DUP3 PUSH1 0x0 DUP2 MLOAD DUP2 LT PUSH2 0x1560 JUMPI INVALID JUMPDEST PUSH1 0x20 MUL PUSH1 0x20 ADD ADD MLOAD GT ISZERO PUSH2 0xFFA JUMPI PUSH1 0x40 MLOAD PUSH3 0x461BCD PUSH1 0xE5 SHL DUP2 MSTORE PUSH1 0x4 ADD DUP1 DUP1 PUSH1 0x20 ADD DUP3 DUP2 SUB DUP3 MSTORE PUSH1 0x27 DUP2 MSTORE PUSH1 0x20 ADD DUP1 PUSH2 0x450B PUSH1 0x27 SWAP2 CODECOPY PUSH1 0x40 ADD SWAP2 POP POP PUSH1 0x40 MLOAD DUP1 SWAP2 SUB SWAP1 REVERT JUMPDEST PUSH1 0x0 DUP1 PUSH2 0x15F3 PUSH32 0x0 DUP14 PUSH32 0x0 PUSH2 0x3497 JUMP JUMPDEST SWAP1 POP PUSH1 0x0 DUP7 PUSH2 0x1602 JUMPI DUP12 PUSH2 0x1606 JUMP JUMPDEST PUSH1 0x0 NOT JUMPDEST PUSH1 0x40 DUP1 MLOAD PUSH4 0xD505ACCF PUSH1 0xE0 SHL DUP2 MSTORE CALLER PUSH1 0x4 DUP3 ADD MSTORE ADDRESS PUSH1 0x24 DUP3 ADD MSTORE PUSH1 0x44 DUP2 ADD DUP4 SWAP1 MSTORE PUSH1 0x64 DUP2 ADD DUP12 SWAP1 MSTORE PUSH1 0xFF DUP10 AND PUSH1 0x84 DUP3 ADD MSTORE PUSH1 0xA4 DUP2 ADD DUP9 SWAP1 MSTORE PUSH1 0xC4 DUP2 ADD DUP8 SWAP1 MSTORE SWAP1 MLOAD SWAP2 SWAP3 POP PUSH1 0x1 PUSH1 0x1 PUSH1 0xA0 SHL SUB DUP5 AND SWAP2 PUSH4 0xD505ACCF SWAP2 PUSH1 0xE4 DUP1 DUP3 ADD SWAP3 PUSH1 0x0 SWAP3 SWAP1 SWAP2 SWAP1 DUP3 SWAP1 SUB ADD DUP2 DUP4 DUP8 DUP1 EXTCODESIZE ISZERO DUP1 ISZERO PUSH2 0x167C JUMPI PUSH1 0x0 DUP1 REVERT JUMPDEST POP GAS CALL ISZERO DUP1 ISZERO PUSH2 0x1690 JUMPI RETURNDATASIZE PUSH1 0x0 DUP1 RETURNDATACOPY RETURNDATASIZE PUSH1 0x0 REVERT JUMPDEST POP POP POP POP PUSH2 0x16A2 DUP14 DUP14 DUP14 DUP14 DUP14 DUP14 PUSH2 0x2048 JUMP JUMPDEST SWAP14 SWAP13 POP POP POP POP POP POP POP POP POP POP POP POP POP JUMP JUMPDEST DUP1 TIMESTAMP DUP2 LT ISZERO PUSH2 0x16F7 JUMPI PUSH1 0x40 DUP1 MLOAD PUSH3 0x461BCD PUSH1 0xE5 SHL DUP2 MSTORE PUSH1 0x20 PUSH1 0x4 DUP3 ADD MSTORE PUSH1 0x18 PUSH1 0x24 DUP3 ADD MSTORE PUSH1 0x0 DUP1 MLOAD PUSH1 0x20 PUSH2 0x45FB DUP4 CODECOPY DUP2 MLOAD SWAP2 MSTORE PUSH1 0x44 DUP3 ADD MSTORE SWAP1 MLOAD SWAP1 DUP2 SWAP1 SUB PUSH1 0x64 ADD SWAP1 REVERT JUMPDEST PUSH2 0x176C DUP6 DUP6 PUSH1 0x0 DUP2 DUP2 LT PUSH2 0x1707 JUMPI INVALID JUMPDEST SWAP1 POP PUSH1 0x20 MUL ADD CALLDATALOAD PUSH1 0x1 PUSH1 0x1 PUSH1 0xA0 SHL SUB AND CALLER PUSH2 0x1766 PUSH32 0x0 DUP10 DUP10 PUSH1 0x0 DUP2 DUP2 LT PUSH2 0x1749 JUMPI INVALID JUMPDEST SWAP1 POP PUSH1 0x20 MUL ADD CALLDATALOAD PUSH1 0x1 PUSH1 0x1 PUSH1 0xA0 SHL SUB AND DUP11 DUP11 PUSH1 0x1 DUP2 DUP2 LT PUSH2 0x1069 JUMPI INVALID JUMPDEST DUP11 PUSH2 0x3557 JUMP JUMPDEST PUSH1 0x0 DUP6 DUP6 PUSH1 0x0 NOT DUP2 ADD DUP2 DUP2 LT PUSH2 0x177E JUMPI INVALID JUMPDEST SWAP1 POP PUSH1 0x20 MUL ADD CALLDATALOAD PUSH1 0x1 PUSH1 0x1 PUSH1 0xA0 SHL SUB AND PUSH1 0x1 PUSH1 0x1 PUSH1 0xA0 SHL SUB AND PUSH4 0x70A08231 DUP6 PUSH1 0x40 MLOAD DUP3 PUSH4 0xFFFFFFFF AND PUSH1 0xE0 SHL DUP2 MSTORE PUSH1 0x4 ADD DUP1 DUP3 PUSH1 0x1 PUSH1 0x1 PUSH1 0xA0 SHL SUB AND DUP2 MSTORE PUSH1 0x20 ADD SWAP2 POP POP PUSH1 0x20 PUSH1 0x40 MLOAD DUP1 DUP4 SUB DUP2 DUP7 DUP1 EXTCODESIZE ISZERO DUP1 ISZERO PUSH2 0x17DA JUMPI PUSH1 0x0 DUP1 REVERT JUMPDEST POP GAS STATICCALL ISZERO DUP1 ISZERO PUSH2 0x17EE JUMPI RETURNDATASIZE PUSH1 0x0 DUP1 RETURNDATACOPY RETURNDATASIZE PUSH1 0x0 REVERT JUMPDEST POP POP POP POP PUSH1 0x40 MLOAD RETURNDATASIZE PUSH1 0x20 DUP2 LT ISZERO PUSH2 0x1804 JUMPI PUSH1 0x0 DUP1 REVERT JUMPDEST POP MLOAD PUSH1 0x40 DUP1 MLOAD PUSH1 0x20 DUP9 DUP2 MUL DUP3 DUP2 ADD DUP3 ADD SWAP1 SWAP4 MSTORE DUP9 DUP3 MSTORE SWAP3 SWAP4 POP PUSH2 0x1846 SWAP3 SWAP1 SWAP2 DUP10 SWAP2 DUP10 SWAP2 DUP3 SWAP2 DUP6 ADD SWAP1 DUP5 SWAP1 DUP1 DUP3 DUP5 CALLDATACOPY PUSH1 0x0 SWAP3 ADD SWAP2 SWAP1 SWAP2 MSTORE POP DUP9 SWAP3 POP PUSH2 0x3A29 SWAP2 POP POP JUMP JUMPDEST DUP7 PUSH2 0x18E9 DUP3 DUP9 DUP9 PUSH1 0x0 NOT DUP2 ADD DUP2 DUP2 LT PUSH2 0x185B JUMPI INVALID JUMPDEST SWAP1 POP PUSH1 0x20 MUL ADD CALLDATALOAD PUSH1 0x1 PUSH1 0x1 PUSH1 0xA0 SHL SUB AND PUSH1 0x1 PUSH1 0x1 PUSH1 0xA0 SHL SUB AND PUSH4 0x70A08231 DUP9 PUSH1 0x40 MLOAD DUP3 PUSH4 0xFFFFFFFF AND PUSH1 0xE0 SHL DUP2 MSTORE PUSH1 0x4 ADD DUP1 DUP3 PUSH1 0x1 PUSH1 0x1 PUSH1 0xA0 SHL SUB AND DUP2 MSTORE PUSH1 0x20 ADD SWAP2 POP POP PUSH1 0x20 PUSH1 0x40 MLOAD DUP1 DUP4 SUB DUP2 DUP7 DUP1 EXTCODESIZE ISZERO DUP1 ISZERO PUSH2 0x18B7 JUMPI PUSH1 0x0 DUP1 REVERT JUMPDEST POP GAS STATICCALL ISZERO DUP1 ISZERO PUSH2 0x18CB JUMPI RETURNDATASIZE PUSH1 0x0 DUP1 RETURNDATACOPY RETURNDATASIZE PUSH1 0x0 REVERT JUMPDEST POP POP POP POP PUSH1 0x40 MLOAD RETURNDATASIZE PUSH1 0x20 DUP2 LT ISZERO PUSH2 0x18E1 JUMPI PUSH1 0x0 DUP1 REVERT JUMPDEST POP MLOAD SWAP1 PUSH2 0x3D2B JUMP JUMPDEST LT ISZERO PUSH2 0x1926 JUMPI PUSH1 0x40 MLOAD PUSH3 0x461BCD PUSH1 0xE5 SHL DUP2 MSTORE PUSH1 0x4 ADD DUP1 DUP1 PUSH1 0x20 ADD DUP3 DUP2 SUB DUP3 MSTORE PUSH1 0x2B DUP2 MSTORE PUSH1 0x20 ADD DUP1 PUSH2 0x4578 PUSH1 0x2B SWAP2 CODECOPY PUSH1 0x40 ADD SWAP2 POP POP PUSH1 0x40 MLOAD DUP1 SWAP2 SUB SWAP1 REVERT JUMPDEST POP POP POP POP POP POP POP POP JUMP JUMPDEST DUP1 TIMESTAMP DUP2 LT ISZERO PUSH2 0x1974 JUMPI PUSH1 0x40 DUP1 MLOAD PUSH3 0x461BCD PUSH1 0xE5 SHL DUP2 MSTORE PUSH1 0x20 PUSH1 0x4 DUP3 ADD MSTORE PUSH1 0x18 PUSH1 0x24 DUP3 ADD MSTORE PUSH1 0x0 DUP1 MLOAD PUSH1 0x20 PUSH2 0x45FB DUP4 CODECOPY DUP2 MLOAD SWAP2 MSTORE PUSH1 0x44 DUP3 ADD MSTORE SWAP1 MLOAD SWAP1 DUP2 SWAP1 SUB PUSH1 0x64 ADD SWAP1 REVERT JUMPDEST PUSH1 0x1 PUSH1 0x1 PUSH1 0xA0 SHL SUB PUSH32 0x0 AND DUP6 DUP6 PUSH1 0x0 NOT DUP2 ADD DUP2 DUP2 LT PUSH2 0x19AE JUMPI INVALID JUMPDEST SWAP1 POP PUSH1 0x20 MUL ADD CALLDATALOAD PUSH1 0x1 PUSH1 0x1 PUSH1 0xA0 SHL SUB AND PUSH1 0x1 PUSH1 0x1 PUSH1 0xA0 SHL SUB AND EQ PUSH2 0x1A07 JUMPI PUSH1 0x40 DUP1 MLOAD PUSH3 0x461BCD PUSH1 0xE5 SHL DUP2 MSTORE PUSH1 0x20 PUSH1 0x4 DUP3 ADD MSTORE PUSH1 0x1D PUSH1 0x24 DUP3 ADD MSTORE PUSH1 0x0 DUP1 MLOAD PUSH1 0x20 PUSH2 0x4532 DUP4 CODECOPY DUP2 MLOAD SWAP2 MSTORE PUSH1 0x44 DUP3 ADD MSTORE SWAP1 MLOAD SWAP1 DUP2 SWAP1 SUB PUSH1 0x64 ADD SWAP1 REVERT JUMPDEST PUSH2 0x1A17 DUP6 DUP6 PUSH1 0x0 DUP2 DUP2 LT PUSH2 0x1707 JUMPI INVALID JUMPDEST PUSH2 0x1A55 DUP6 DUP6 DUP1 DUP1 PUSH1 0x20 MUL PUSH1 0x20 ADD PUSH1 0x40 MLOAD SWAP1 DUP2 ADD PUSH1 0x40 MSTORE DUP1 SWAP4 SWAP3 SWAP2 SWAP1 DUP2 DUP2 MSTORE PUSH1 0x20 ADD DUP4 DUP4 PUSH1 0x20 MUL DUP1 DUP3 DUP5 CALLDATACOPY PUSH1 0x0 SWAP3 ADD SWAP2 SWAP1 SWAP2 MSTORE POP ADDRESS SWAP3 POP PUSH2 0x3A29 SWAP2 POP POP JUMP JUMPDEST PUSH1 0x0 PUSH32 0x0 PUSH1 0x1 PUSH1 0x1 PUSH1 0xA0 SHL SUB AND PUSH4 0x70A08231 ADDRESS PUSH1 0x40 MLOAD DUP3 PUSH4 0xFFFFFFFF AND PUSH1 0xE0 SHL DUP2 MSTORE PUSH1 0x4 ADD DUP1 DUP3 PUSH1 0x1 PUSH1 0x1 PUSH1 0xA0 SHL SUB AND DUP2 MSTORE PUSH1 0x20 ADD SWAP2 POP POP PUSH1 0x20 PUSH1 0x40 MLOAD DUP1 DUP4 SUB DUP2 DUP7 DUP1 EXTCODESIZE ISZERO DUP1 ISZERO PUSH2 0x1AC4 JUMPI PUSH1 0x0 DUP1 REVERT JUMPDEST POP GAS STATICCALL ISZERO DUP1 ISZERO PUSH2 0x1AD8 JUMPI RETURNDATASIZE PUSH1 0x0 DUP1 RETURNDATACOPY RETURNDATASIZE PUSH1 0x0 REVERT JUMPDEST POP POP POP POP PUSH1 0x40 MLOAD RETURNDATASIZE PUSH1 0x20 DUP2 LT ISZERO PUSH2 0x1AEE JUMPI PUSH1 0x0 DUP1 REVERT JUMPDEST POP MLOAD SWAP1 POP DUP7 DUP2 LT ISZERO PUSH2 0x1B31 JUMPI PUSH1 0x40 MLOAD PUSH3 0x461BCD PUSH1 0xE5 SHL DUP2 MSTORE PUSH1 0x4 ADD DUP1 DUP1 PUSH1 0x20 ADD DUP3 DUP2 SUB DUP3 MSTORE PUSH1 0x2B DUP2 MSTORE PUSH1 0x20 ADD DUP1 PUSH2 0x4578 PUSH1 0x2B SWAP2 CODECOPY PUSH1 0x40 ADD SWAP2 POP POP PUSH1 0x40 MLOAD DUP1 SWAP2 SUB SWAP1 REVERT JUMPDEST PUSH32 0x0 PUSH1 0x1 PUSH1 0x1 PUSH1 0xA0 SHL SUB AND PUSH4 0x2E1A7D4D DUP3 PUSH1 0x40 MLOAD DUP3 PUSH4 0xFFFFFFFF AND PUSH1 0xE0 SHL DUP2 MSTORE PUSH1 0x4 ADD DUP1 DUP3 DUP2 MSTORE PUSH1 0x20 ADD SWAP2 POP POP PUSH1 0x0 PUSH1 0x40 MLOAD DUP1 DUP4 SUB DUP2 PUSH1 0x0 DUP8 DUP1 EXTCODESIZE ISZERO DUP1 ISZERO PUSH2 0x1B97 JUMPI PUSH1 0x0 DUP1 REVERT JUMPDEST POP GAS CALL ISZERO DUP1 ISZERO PUSH2 0x1BAB JUMPI RETURNDATASIZE PUSH1 0x0 DUP1 RETURNDATACOPY RETURNDATASIZE PUSH1 0x0 REVERT JUMPDEST POP POP POP POP PUSH2 0x1926 DUP5 DUP3 PUSH2 0x317B JUMP JUMPDEST PUSH1 0x60 DUP2 TIMESTAMP DUP2 LT ISZERO PUSH2 0x1BFF JUMPI PUSH1 0x40 DUP1 MLOAD PUSH3 0x461BCD PUSH1 0xE5 SHL DUP2 MSTORE PUSH1 0x20 PUSH1 0x4 DUP3 ADD MSTORE PUSH1 0x18 PUSH1 0x24 DUP3 ADD MSTORE PUSH1 0x0 DUP1 MLOAD PUSH1 0x20 PUSH2 0x45FB DUP4 CODECOPY DUP2 MLOAD SWAP2 MSTORE PUSH1 0x44 DUP3 ADD MSTORE SWAP1 MLOAD SWAP1 DUP2 SWAP1 SUB PUSH1 0x64 ADD SWAP1 REVERT JUMPDEST PUSH32 0x0 PUSH1 0x1 PUSH1 0x1 PUSH1 0xA0 SHL SUB AND DUP7 DUP7 PUSH1 0x0 DUP2 DUP2 LT PUSH2 0x1C36 JUMPI INVALID JUMPDEST SWAP1 POP PUSH1 0x20 MUL ADD CALLDATALOAD PUSH1 0x1 PUSH1 0x1 PUSH1 0xA0 SHL SUB AND PUSH1 0x1 PUSH1 0x1 PUSH1 0xA0 SHL SUB AND EQ PUSH2 0x1C8F JUMPI PUSH1 0x40 DUP1 MLOAD PUSH3 0x461BCD PUSH1 0xE5 SHL DUP2 MSTORE PUSH1 0x20 PUSH1 0x4 DUP3 ADD MSTORE PUSH1 0x1D PUSH1 0x24 DUP3 ADD MSTORE PUSH1 0x0 DUP1 MLOAD PUSH1 0x20 PUSH2 0x4532 DUP4 CODECOPY DUP2 MLOAD SWAP2 MSTORE PUSH1 0x44 DUP3 ADD MSTORE SWAP1 MLOAD SWAP1 DUP2 SWAP1 SUB PUSH1 0x64 ADD SWAP1 REVERT JUMPDEST PUSH2 0x1CED PUSH32 0x0 CALLVALUE DUP9 DUP9 DUP1 DUP1 PUSH1 0x20 MUL PUSH1 0x20 ADD PUSH1 0x40 MLOAD SWAP1 DUP2 ADD PUSH1 0x40 MSTORE DUP1 SWAP4 SWAP3 SWAP2 SWAP1 DUP2 DUP2 MSTORE PUSH1 0x20 ADD DUP4 DUP4 PUSH1 0x20 MUL DUP1 DUP3 DUP5 CALLDATACOPY PUSH1 0x0 SWAP3 ADD SWAP2 SWAP1 SWAP2 MSTORE POP PUSH2 0x334B SWAP3 POP POP POP JUMP JUMPDEST SWAP2 POP DUP7 DUP3 PUSH1 0x1 DUP5 MLOAD SUB DUP2 MLOAD DUP2 LT PUSH2 0x1D00 JUMPI INVALID JUMPDEST PUSH1 0x20 MUL PUSH1 0x20 ADD ADD MLOAD LT ISZERO PUSH2 0x1D45 JUMPI PUSH1 0x40 MLOAD PUSH3 0x461BCD PUSH1 0xE5 SHL DUP2 MSTORE PUSH1 0x4 ADD DUP1 DUP1 PUSH1 0x20 ADD DUP3 DUP2 SUB DUP3 MSTORE PUSH1 0x2B DUP2 MSTORE PUSH1 0x20 ADD DUP1 PUSH2 0x4578 PUSH1 0x2B SWAP2 CODECOPY PUSH1 0x40 ADD SWAP2 POP POP PUSH1 0x40 MLOAD DUP1 SWAP2 SUB SWAP1 REVERT JUMPDEST PUSH32 0x0 PUSH1 0x1 PUSH1 0x1 PUSH1 0xA0 SHL SUB AND PUSH4 0xD0E30DB0 DUP4 PUSH1 0x0 DUP2 MLOAD DUP2 LT PUSH2 0x1D81 JUMPI INVALID JUMPDEST PUSH1 0x20 MUL PUSH1 0x20 ADD ADD MLOAD PUSH1 0x40 MLOAD DUP3 PUSH4 0xFFFFFFFF AND PUSH1 0xE0 SHL DUP2 MSTORE PUSH1 0x4 ADD PUSH1 0x0 PUSH1 0x40 MLOAD DUP1 DUP4 SUB DUP2 DUP6 DUP9 DUP1 EXTCODESIZE ISZERO DUP1 ISZERO PUSH2 0x1DB4 JUMPI PUSH1 0x0 DUP1 REVERT JUMPDEST POP GAS CALL ISZERO DUP1 ISZERO PUSH2 0x1DC8 JUMPI RETURNDATASIZE PUSH1 0x0 DUP1 RETURNDATACOPY RETURNDATASIZE PUSH1 0x0 REVERT JUMPDEST POP POP POP POP POP PUSH32 0x0 PUSH1 0x1 PUSH1 0x1 PUSH1 0xA0 SHL SUB AND PUSH4 0xA9059CBB PUSH2 0x1E2D PUSH32 0x0 DUP10 DUP10 PUSH1 0x0 DUP2 DUP2 LT PUSH2 0x1749 JUMPI INVALID JUMPDEST DUP5 PUSH1 0x0 DUP2 MLOAD DUP2 LT PUSH2 0x1E3A JUMPI INVALID JUMPDEST PUSH1 0x20 MUL PUSH1 0x20 ADD ADD MLOAD PUSH1 0x40 MLOAD DUP4 PUSH4 0xFFFFFFFF AND PUSH1 0xE0 SHL DUP2 MSTORE PUSH1 0x4 ADD DUP1 DUP4 PUSH1 0x1 PUSH1 0x1 PUSH1 0xA0 SHL SUB AND DUP2 MSTORE PUSH1 0x20 ADD DUP3 DUP2 MSTORE PUSH1 0x20 ADD SWAP3 POP POP POP PUSH1 0x20 PUSH1 0x40 MLOAD DUP1 DUP4 SUB DUP2 PUSH1 0x0 DUP8 DUP1 EXTCODESIZE ISZERO DUP1 ISZERO PUSH2 0x1E88 JUMPI PUSH1 0x0 DUP1 REVERT JUMPDEST POP GAS CALL ISZERO DUP1 ISZERO PUSH2 0x1E9C JUMPI RETURNDATASIZE PUSH1 0x0 DUP1 RETURNDATACOPY RETURNDATASIZE PUSH1 0x0 REVERT JUMPDEST POP POP POP POP PUSH1 0x40 MLOAD RETURNDATASIZE PUSH1 0x20 DUP2 LT ISZERO PUSH2 0x1EB2 JUMPI PUSH1 0x0 DUP1 REVERT JUMPDEST POP MLOAD PUSH2 0x1EBA JUMPI INVALID JUMPDEST PUSH2 0x1EF9 DUP3 DUP8 DUP8 DUP1 DUP1 PUSH1 0x20 MUL PUSH1 0x20 ADD PUSH1 0x40 MLOAD SWAP1 DUP2 ADD PUSH1 0x40 MSTORE DUP1 SWAP4 SWAP3 SWAP2 SWAP1 DUP2 DUP2 MSTORE PUSH1 0x20 ADD DUP4 DUP4 PUSH1 0x20 MUL DUP1 DUP3 DUP5 CALLDATACOPY PUSH1 0x0 SWAP3 ADD SWAP2 SWAP1 SWAP2 MSTORE POP DUP10 SWAP3 POP PUSH2 0x36B4 SWAP2 POP POP JUMP JUMPDEST POP SWAP6 SWAP5 POP POP POP POP POP JUMP JUMPDEST PUSH1 0x0 PUSH2 0xE63 DUP5 DUP5 DUP5 PUSH2 0x3D7B JUMP JUMPDEST PUSH1 0x60 DUP2 TIMESTAMP DUP2 LT ISZERO PUSH2 0x1F56 JUMPI PUSH1 0x40 DUP1 MLOAD PUSH3 0x461BCD PUSH1 0xE5 SHL DUP2 MSTORE PUSH1 0x20 PUSH1 0x4 DUP3 ADD MSTORE PUSH1 0x18 PUSH1 0x24 DUP3 ADD MSTORE PUSH1 0x0 DUP1 MLOAD PUSH1 0x20 PUSH2 0x45FB DUP4 CODECOPY DUP2 MLOAD SWAP2 MSTORE PUSH1 0x44 DUP3 ADD MSTORE SWAP1 MLOAD SWAP1 DUP2 SWAP1 SUB PUSH1 0x64 ADD SWAP1 REVERT JUMPDEST PUSH2 0x1FB4 PUSH32 0x0 DUP10 DUP9 DUP9 DUP1 DUP1 PUSH1 0x20 MUL PUSH1 0x20 ADD PUSH1 0x40 MLOAD SWAP1 DUP2 ADD PUSH1 0x40 MSTORE DUP1 SWAP4 SWAP3 SWAP2 SWAP1 DUP2 DUP2 MSTORE PUSH1 0x20 ADD DUP4 DUP4 PUSH1 0x20 MUL DUP1 DUP3 DUP5 CALLDATACOPY PUSH1 0x0 SWAP3 ADD SWAP2 SWAP1 SWAP2 MSTORE POP PUSH2 0x38F1 SWAP3 POP POP POP JUMP JUMPDEST SWAP2 POP DUP7 DUP3 PUSH1 0x0 DUP2 MLOAD DUP2 LT PUSH2 0x1FC4 JUMPI INVALID JUMPDEST PUSH1 0x20 MUL PUSH1 0x20 ADD ADD MLOAD GT ISZERO PUSH2 0x13CA JUMPI PUSH1 0x40 MLOAD PUSH3 0x461BCD PUSH1 0xE5 SHL DUP2 MSTORE PUSH1 0x4 ADD DUP1 DUP1 PUSH1 0x20 ADD DUP3 DUP2 SUB DUP3 MSTORE PUSH1 0x27 DUP2 MSTORE PUSH1 0x20 ADD DUP1 PUSH2 0x450B PUSH1 0x27 SWAP2 CODECOPY PUSH1 0x40 ADD SWAP2 POP POP PUSH1 0x40 MLOAD DUP1 SWAP2 SUB SWAP1 REVERT JUMPDEST PUSH1 0x0 DUP2 SWAP1 SSTORE SWAP1 JUMP JUMPDEST PUSH1 0x0 SLOAD DUP2 JUMP JUMPDEST PUSH32 0x0 DUP2 JUMP JUMPDEST PUSH1 0x0 PUSH2 0xE63 DUP5 DUP5 DUP5 PUSH2 0x3E53 JUMP JUMPDEST PUSH1 0x0 DUP2 TIMESTAMP DUP2 LT ISZERO PUSH2 0x208E JUMPI PUSH1 0x40 DUP1 MLOAD PUSH3 0x461BCD PUSH1 0xE5 SHL DUP2 MSTORE PUSH1 0x20 PUSH1 0x4 DUP3 ADD MSTORE PUSH1 0x18 PUSH1 0x24 DUP3 ADD MSTORE PUSH1 0x0 DUP1 MLOAD PUSH1 0x20 PUSH2 0x45FB DUP4 CODECOPY DUP2 MLOAD SWAP2 MSTORE PUSH1 0x44 DUP3 ADD MSTORE SWAP1 MLOAD SWAP1 DUP2 SWAP1 SUB PUSH1 0x64 ADD SWAP1 REVERT JUMPDEST PUSH2 0x20BD DUP9 PUSH32 0x0 DUP10 DUP10 DUP10 ADDRESS DUP10 PUSH2 0x253F JUMP JUMPDEST SWAP1 POP DUP1 SWAP3 POP POP PUSH2 0x2146 DUP9 DUP6 DUP11 PUSH1 0x1 PUSH1 0x1 PUSH1 0xA0 SHL SUB AND PUSH4 0x70A08231 ADDRESS PUSH1 0x40 MLOAD DUP3 PUSH4 0xFFFFFFFF AND PUSH1 0xE0 SHL DUP2 MSTORE PUSH1 0x4 ADD DUP1 DUP3 PUSH1 0x1 PUSH1 0x1 PUSH1 0xA0 SHL SUB AND DUP2 MSTORE PUSH1 0x20 ADD SWAP2 POP POP PUSH1 0x20 PUSH1 0x40 MLOAD DUP1 DUP4 SUB DUP2 DUP7 DUP1 EXTCODESIZE ISZERO DUP1 ISZERO PUSH2 0x2115 JUMPI PUSH1 0x0 DUP1 REVERT JUMPDEST POP GAS STATICCALL ISZERO DUP1 ISZERO PUSH2 0x2129 JUMPI RETURNDATASIZE PUSH1 0x0 DUP1 RETURNDATACOPY RETURNDATASIZE PUSH1 0x0 REVERT JUMPDEST POP POP POP POP PUSH1 0x40 MLOAD RETURNDATASIZE PUSH1 0x20 DUP2 LT ISZERO PUSH2 0x213F JUMPI PUSH1 0x0 DUP1 REVERT JUMPDEST POP MLOAD PUSH2 0x3027 JUMP JUMPDEST PUSH32 0x0 PUSH1 0x1 PUSH1 0x1 PUSH1 0xA0 SHL SUB AND PUSH4 0x2E1A7D4D DUP4 PUSH1 0x40 MLOAD DUP3 PUSH4 0xFFFFFFFF AND PUSH1 0xE0 SHL DUP2 MSTORE PUSH1 0x4 ADD DUP1 DUP3 DUP2 MSTORE PUSH1 0x20 ADD SWAP2 POP POP PUSH1 0x0 PUSH1 0x40 MLOAD DUP1 DUP4 SUB DUP2 PUSH1 0x0 DUP8 DUP1 EXTCODESIZE ISZERO DUP1 ISZERO PUSH2 0x21AC JUMPI PUSH1 0x0 DUP1 REVERT JUMPDEST POP GAS CALL ISZERO DUP1 ISZERO PUSH2 0x21C0 JUMPI RETURNDATASIZE PUSH1 0x0 DUP1 RETURNDATACOPY RETURNDATASIZE PUSH1 0x0 REVERT JUMPDEST POP POP POP POP PUSH2 0x118D DUP5 DUP4 PUSH2 0x317B JUMP JUMPDEST DUP1 TIMESTAMP DUP2 LT ISZERO PUSH2 0x2212 JUMPI PUSH1 0x40 DUP1 MLOAD PUSH3 0x461BCD PUSH1 0xE5 SHL DUP2 MSTORE PUSH1 0x20 PUSH1 0x4 DUP3 ADD MSTORE PUSH1 0x18 PUSH1 0x24 DUP3 ADD MSTORE PUSH1 0x0 DUP1 MLOAD PUSH1 0x20 PUSH2 0x45FB DUP4 CODECOPY DUP2 MLOAD SWAP2 MSTORE PUSH1 0x44 DUP3 ADD MSTORE SWAP1 MLOAD SWAP1 DUP2 SWAP1 SUB PUSH1 0x64 ADD SWAP1 REVERT JUMPDEST PUSH32 0x0 PUSH1 0x1 PUSH1 0x1 PUSH1 0xA0 SHL SUB AND DUP6 DUP6 PUSH1 0x0 DUP2 DUP2 LT PUSH2 0x2249 JUMPI INVALID JUMPDEST SWAP1 POP PUSH1 0x20 MUL ADD CALLDATALOAD PUSH1 0x1 PUSH1 0x1 PUSH1 0xA0 SHL SUB AND PUSH1 0x1 PUSH1 0x1 PUSH1 0xA0 SHL SUB AND EQ PUSH2 0x22A2 JUMPI PUSH1 0x40 DUP1 MLOAD PUSH3 0x461BCD PUSH1 0xE5 SHL DUP2 MSTORE PUSH1 0x20 PUSH1 0x4 DUP3 ADD MSTORE PUSH1 0x1D PUSH1 0x24 DUP3 ADD MSTORE PUSH1 0x0 DUP1 MLOAD PUSH1 0x20 PUSH2 0x4532 DUP4 CODECOPY DUP2 MLOAD SWAP2 MSTORE PUSH1 0x44 DUP3 ADD MSTORE SWAP1 MLOAD SWAP1 DUP2 SWAP1 SUB PUSH1 0x64 ADD SWAP1 REVERT JUMPDEST PUSH1 0x0 CALLVALUE SWAP1 POP PUSH32 0x0 PUSH1 0x1 PUSH1 0x1 PUSH1 0xA0 SHL SUB AND PUSH4 0xD0E30DB0 DUP3 PUSH1 0x40 MLOAD DUP3 PUSH4 0xFFFFFFFF AND PUSH1 0xE0 SHL DUP2 MSTORE PUSH1 0x4 ADD PUSH1 0x0 PUSH1 0x40 MLOAD DUP1 DUP4 SUB DUP2 DUP6 DUP9 DUP1 EXTCODESIZE ISZERO DUP1 ISZERO PUSH2 0x2302 JUMPI PUSH1 0x0 DUP1 REVERT JUMPDEST POP GAS CALL ISZERO DUP1 ISZERO PUSH2 0x2316 JUMPI RETURNDATASIZE PUSH1 0x0 DUP1 RETURNDATACOPY RETURNDATASIZE PUSH1 0x0 REVERT JUMPDEST POP POP POP POP POP PUSH32 0x0 PUSH1 0x1 PUSH1 0x1 PUSH1 0xA0 SHL SUB AND PUSH4 0xA9059CBB PUSH2 0x237B PUSH32 0x0 DUP10 DUP10 PUSH1 0x0 DUP2 DUP2 LT PUSH2 0x1749 JUMPI INVALID JUMPDEST DUP4 PUSH1 0x40 MLOAD DUP4 PUSH4 0xFFFFFFFF AND PUSH1 0xE0 SHL DUP2 MSTORE PUSH1 0x4 ADD DUP1 DUP4 PUSH1 0x1 PUSH1 0x1 PUSH1 0xA0 SHL SUB AND DUP2 MSTORE PUSH1 0x20 ADD DUP3 DUP2 MSTORE PUSH1 0x20 ADD SWAP3 POP POP POP PUSH1 0x20 PUSH1 0x40 MLOAD DUP1 DUP4 SUB DUP2 PUSH1 0x0 DUP8 DUP1 EXTCODESIZE ISZERO DUP1 ISZERO PUSH2 0x23C2 JUMPI PUSH1 0x0 DUP1 REVERT JUMPDEST POP GAS CALL ISZERO DUP1 ISZERO PUSH2 0x23D6 JUMPI RETURNDATASIZE PUSH1 0x0 DUP1 RETURNDATACOPY RETURNDATASIZE PUSH1 0x0 REVERT JUMPDEST POP POP POP POP PUSH1 0x40 MLOAD RETURNDATASIZE PUSH1 0x20 DUP2 LT ISZERO PUSH2 0x23EC JUMPI PUSH1 0x0 DUP1 REVERT JUMPDEST POP MLOAD PUSH2 0x23F4 JUMPI INVALID JUMPDEST PUSH1 0x0 DUP7 DUP7 PUSH1 0x0 NOT DUP2 ADD DUP2 DUP2 LT PUSH2 0x2406 JUMPI INVALID JUMPDEST SWAP1 POP PUSH1 0x20 MUL ADD CALLDATALOAD PUSH1 0x1 PUSH1 0x1 PUSH1 0xA0 SHL SUB AND PUSH1 0x1 PUSH1 0x1 PUSH1 0xA0 SHL SUB AND PUSH4 0x70A08231 DUP7 PUSH1 0x40 MLOAD DUP3 PUSH4 0xFFFFFFFF AND PUSH1 0xE0 SHL DUP2 MSTORE PUSH1 0x4 ADD DUP1 DUP3 PUSH1 0x1 PUSH1 0x1 PUSH1 0xA0 SHL SUB AND DUP2 MSTORE PUSH1 0x20 ADD SWAP2 POP POP PUSH1 0x20 PUSH1 0x40 MLOAD DUP1 DUP4 SUB DUP2 DUP7 DUP1 EXTCODESIZE ISZERO DUP1 ISZERO PUSH2 0x2462 JUMPI PUSH1 0x0 DUP1 REVERT JUMPDEST POP GAS STATICCALL ISZERO DUP1 ISZERO PUSH2 0x2476 JUMPI RETURNDATASIZE PUSH1 0x0 DUP1 RETURNDATACOPY RETURNDATASIZE PUSH1 0x0 REVERT JUMPDEST POP POP POP POP PUSH1 0x40 MLOAD RETURNDATASIZE PUSH1 0x20 DUP2 LT ISZERO PUSH2 0x248C JUMPI PUSH1 0x0 DUP1 REVERT JUMPDEST POP MLOAD PUSH1 0x40 DUP1 MLOAD PUSH1 0x20 DUP10 DUP2 MUL DUP3 DUP2 ADD DUP3 ADD SWAP1 SWAP4 MSTORE DUP10 DUP3 MSTORE SWAP3 SWAP4 POP PUSH2 0x24CE SWAP3 SWAP1 SWAP2 DUP11 SWAP2 DUP11 SWAP2 DUP3 SWAP2 DUP6 ADD SWAP1 DUP5 SWAP1 DUP1 DUP3 DUP5 CALLDATACOPY PUSH1 0x0 SWAP3 ADD SWAP2 SWAP1 SWAP2 MSTORE POP DUP10 SWAP3 POP PUSH2 0x3A29 SWAP2 POP POP JUMP JUMPDEST DUP8 PUSH2 0x18E9 DUP3 DUP10 DUP10 PUSH1 0x0 NOT DUP2 ADD DUP2 DUP2 LT PUSH2 0x24E3 JUMPI INVALID JUMPDEST SWAP1 POP PUSH1 0x20 MUL ADD CALLDATALOAD PUSH1 0x1 PUSH1 0x1 PUSH1 0xA0 SHL SUB AND PUSH1 0x1 PUSH1 0x1 PUSH1 0xA0 SHL SUB AND PUSH4 0x70A08231 DUP10 PUSH1 0x40 MLOAD DUP3 PUSH4 0xFFFFFFFF AND PUSH1 0xE0 SHL DUP2 MSTORE PUSH1 0x4 ADD DUP1 DUP3 PUSH1 0x1 PUSH1 0x1 PUSH1 0xA0 SHL SUB AND DUP2 MSTORE PUSH1 0x20 ADD SWAP2 POP POP PUSH1 0x20 PUSH1 0x40 MLOAD DUP1 DUP4 SUB DUP2 DUP7 DUP1 EXTCODESIZE ISZERO DUP1 ISZERO PUSH2 0x18B7 JUMPI PUSH1 0x0 DUP1 REVERT JUMPDEST PUSH1 0x0 DUP1 DUP3 TIMESTAMP DUP2 LT ISZERO PUSH2 0x2586 JUMPI PUSH1 0x40 DUP1 MLOAD PUSH3 0x461BCD PUSH1 0xE5 SHL DUP2 MSTORE PUSH1 0x20 PUSH1 0x4 DUP3 ADD MSTORE PUSH1 0x18 PUSH1 0x24 DUP3 ADD MSTORE PUSH1 0x0 DUP1 MLOAD PUSH1 0x20 PUSH2 0x45FB DUP4 CODECOPY DUP2 MLOAD SWAP2 MSTORE PUSH1 0x44 DUP3 ADD MSTORE SWAP1 MLOAD SWAP1 DUP2 SWAP1 SUB PUSH1 0x64 ADD SWAP1 REVERT JUMPDEST PUSH1 0x0 PUSH2 0x25B3 PUSH32 0x0 DUP13 DUP13 PUSH2 0x3497 JUMP JUMPDEST PUSH1 0x40 DUP1 MLOAD PUSH4 0x23B872DD PUSH1 0xE0 SHL DUP2 MSTORE CALLER PUSH1 0x4 DUP3 ADD MSTORE PUSH1 0x1 PUSH1 0x1 PUSH1 0xA0 SHL SUB DUP4 AND PUSH1 0x24 DUP3 ADD DUP2 SWAP1 MSTORE PUSH1 0x44 DUP3 ADD DUP14 SWAP1 MSTORE SWAP2 MLOAD SWAP3 SWAP4 POP SWAP1 SWAP2 PUSH4 0x23B872DD SWAP2 PUSH1 0x64 DUP1 DUP3 ADD SWAP3 PUSH1 0x20 SWAP3 SWAP1 SWAP2 SWAP1 DUP3 SWAP1 SUB ADD DUP2 PUSH1 0x0 DUP8 DUP1 EXTCODESIZE ISZERO DUP1 ISZERO PUSH2 0x260E JUMPI PUSH1 0x0 DUP1 REVERT JUMPDEST POP GAS CALL ISZERO DUP1 ISZERO PUSH2 0x2622 JUMPI RETURNDATASIZE PUSH1 0x0 DUP1 RETURNDATACOPY RETURNDATASIZE PUSH1 0x0 REVERT JUMPDEST POP POP POP POP PUSH1 0x40 MLOAD RETURNDATASIZE PUSH1 0x20 DUP2 LT ISZERO PUSH2 0x2638 JUMPI PUSH1 0x0 DUP1 REVERT JUMPDEST POP POP PUSH1 0x40 DUP1 MLOAD PUSH4 0x226BF2D1 PUSH1 0xE2 SHL DUP2 MSTORE PUSH1 0x1 PUSH1 0x1 PUSH1 0xA0 SHL SUB DUP9 DUP2 AND PUSH1 0x4 DUP4 ADD MSTORE DUP3 MLOAD PUSH1 0x0 SWAP4 DUP5 SWAP4 SWAP3 DUP7 AND SWAP3 PUSH4 0x89AFCB44 SWAP3 PUSH1 0x24 DUP1 DUP4 ADD SWAP4 SWAP3 DUP3 SWAP1 SUB ADD DUP2 DUP8 DUP8 DUP1 EXTCODESIZE ISZERO DUP1 ISZERO PUSH2 0x2685 JUMPI PUSH1 0x0 DUP1 REVERT JUMPDEST POP GAS CALL ISZERO DUP1 ISZERO PUSH2 0x2699 JUMPI RETURNDATASIZE PUSH1 0x0 DUP1 RETURNDATACOPY RETURNDATASIZE PUSH1 0x0 REVERT JUMPDEST POP POP POP POP PUSH1 0x40 MLOAD RETURNDATASIZE PUSH1 0x40 DUP2 LT ISZERO PUSH2 0x26AF JUMPI PUSH1 0x0 DUP1 REVERT JUMPDEST POP DUP1 MLOAD PUSH1 0x20 SWAP1 SWAP2 ADD MLOAD SWAP1 SWAP3 POP SWAP1 POP PUSH1 0x0 PUSH2 0x26C9 DUP15 DUP15 PUSH2 0x3EF9 JUMP JUMPDEST POP SWAP1 POP DUP1 PUSH1 0x1 PUSH1 0x1 PUSH1 0xA0 SHL SUB AND DUP15 PUSH1 0x1 PUSH1 0x1 PUSH1 0xA0 SHL SUB AND EQ PUSH2 0x26EC JUMPI DUP2 DUP4 PUSH2 0x26EF JUMP JUMPDEST DUP3 DUP3 JUMPDEST SWAP1 SWAP8 POP SWAP6 POP DUP11 DUP8 LT ISZERO PUSH2 0x2733 JUMPI PUSH1 0x40 MLOAD PUSH3 0x461BCD PUSH1 0xE5 SHL DUP2 MSTORE PUSH1 0x4 ADD DUP1 DUP1 PUSH1 0x20 ADD DUP3 DUP2 SUB DUP3 MSTORE PUSH1 0x26 DUP2 MSTORE PUSH1 0x20 ADD DUP1 PUSH2 0x4552 PUSH1 0x26 SWAP2 CODECOPY PUSH1 0x40 ADD SWAP2 POP POP PUSH1 0x40 MLOAD DUP1 SWAP2 SUB SWAP1 REVERT JUMPDEST DUP10 DUP7 LT ISZERO PUSH2 0x2772 JUMPI PUSH1 0x40 MLOAD PUSH3 0x461BCD PUSH1 0xE5 SHL DUP2 MSTORE PUSH1 0x4 ADD DUP1 DUP1 PUSH1 0x20 ADD DUP3 DUP2 SUB DUP3 MSTORE PUSH1 0x26 DUP2 MSTORE PUSH1 0x20 ADD DUP1 PUSH2 0x4498 PUSH1 0x26 SWAP2 CODECOPY PUSH1 0x40 ADD SWAP2 POP POP PUSH1 0x40 MLOAD DUP1 SWAP2 SUB SWAP1 REVERT JUMPDEST POP POP POP POP POP SWAP8 POP SWAP8 SWAP6 POP POP POP POP POP POP JUMP JUMPDEST PUSH32 0x0 DUP2 JUMP JUMPDEST PUSH1 0x60 PUSH2 0x11C5 PUSH32 0x0 DUP5 DUP5 PUSH2 0x334B JUMP JUMPDEST PUSH1 0x0 DUP1 PUSH1 0x0 PUSH2 0x2824 PUSH32 0x0 DUP15 PUSH32 0x0 PUSH2 0x3497 JUMP JUMPDEST SWAP1 POP PUSH1 0x0 DUP8 PUSH2 0x2833 JUMPI DUP13 PUSH2 0x2837 JUMP JUMPDEST PUSH1 0x0 NOT JUMPDEST PUSH1 0x40 DUP1 MLOAD PUSH4 0xD505ACCF PUSH1 0xE0 SHL DUP2 MSTORE CALLER PUSH1 0x4 DUP3 ADD MSTORE ADDRESS PUSH1 0x24 DUP3 ADD MSTORE PUSH1 0x44 DUP2 ADD DUP4 SWAP1 MSTORE PUSH1 0x64 DUP2 ADD DUP13 SWAP1 MSTORE PUSH1 0xFF DUP11 AND PUSH1 0x84 DUP3 ADD MSTORE PUSH1 0xA4 DUP2 ADD DUP10 SWAP1 MSTORE PUSH1 0xC4 DUP2 ADD DUP9 SWAP1 MSTORE SWAP1 MLOAD SWAP2 SWAP3 POP PUSH1 0x1 PUSH1 0x1 PUSH1 0xA0 SHL SUB DUP5 AND SWAP2 PUSH4 0xD505ACCF SWAP2 PUSH1 0xE4 DUP1 DUP3 ADD SWAP3 PUSH1 0x0 SWAP3 SWAP1 SWAP2 SWAP1 DUP3 SWAP1 SUB ADD DUP2 DUP4 DUP8 DUP1 EXTCODESIZE ISZERO DUP1 ISZERO PUSH2 0x28AD JUMPI PUSH1 0x0 DUP1 REVERT JUMPDEST POP GAS CALL ISZERO DUP1 ISZERO PUSH2 0x28C1 JUMPI RETURNDATASIZE PUSH1 0x0 DUP1 RETURNDATACOPY RETURNDATASIZE PUSH1 0x0 REVERT JUMPDEST POP POP POP POP PUSH2 0x28D3 DUP15 DUP15 DUP15 DUP15 DUP15 DUP15 PUSH2 0xD3C JUMP JUMPDEST SWAP1 SWAP16 SWAP1 SWAP15 POP SWAP13 POP POP POP POP POP POP POP POP POP POP POP POP POP JUMP JUMPDEST PUSH1 0x0 DUP1 PUSH1 0x0 DUP4 TIMESTAMP DUP2 LT ISZERO PUSH2 0x2931 JUMPI PUSH1 0x40 DUP1 MLOAD PUSH3 0x461BCD PUSH1 0xE5 SHL DUP2 MSTORE PUSH1 0x20 PUSH1 0x4 DUP3 ADD MSTORE PUSH1 0x18 PUSH1 0x24 DUP3 ADD MSTORE PUSH1 0x0 DUP1 MLOAD PUSH1 0x20 PUSH2 0x45FB DUP4 CODECOPY DUP2 MLOAD SWAP2 MSTORE PUSH1 0x44 DUP3 ADD MSTORE SWAP1 MLOAD SWAP1 DUP2 SWAP1 SUB PUSH1 0x64 ADD SWAP1 REVERT JUMPDEST PUSH2 0x293F DUP13 DUP13 DUP13 DUP13 DUP13 DUP13 PUSH2 0x3FD7 JUMP JUMPDEST SWAP1 SWAP5 POP SWAP3 POP PUSH1 0x0 PUSH2 0x2971 PUSH32 0x0 DUP15 DUP15 PUSH2 0x3497 JUMP JUMPDEST SWAP1 POP PUSH2 0x297F DUP14 CALLER DUP4 DUP9 PUSH2 0x3557 JUMP JUMPDEST PUSH2 0x298B DUP13 CALLER DUP4 DUP8 PUSH2 0x3557 JUMP JUMPDEST DUP1 PUSH1 0x1 PUSH1 0x1 PUSH1 0xA0 SHL SUB AND PUSH4 0x6A627842 DUP9 PUSH1 0x40 MLOAD DUP3 PUSH4 0xFFFFFFFF AND PUSH1 0xE0 SHL DUP2 MSTORE PUSH1 0x4 ADD DUP1 DUP3 PUSH1 0x1 PUSH1 0x1 PUSH1 0xA0 SHL SUB AND DUP2 MSTORE PUSH1 0x20 ADD SWAP2 POP POP PUSH1 0x20 PUSH1 0x40 MLOAD DUP1 DUP4 SUB DUP2 PUSH1 0x0 DUP8 DUP1 EXTCODESIZE ISZERO DUP1 ISZERO PUSH2 0x29DA JUMPI PUSH1 0x0 DUP1 REVERT JUMPDEST POP GAS CALL ISZERO DUP1 ISZERO PUSH2 0x29EE JUMPI RETURNDATASIZE PUSH1 0x0 DUP1 RETURNDATACOPY RETURNDATASIZE PUSH1 0x0 REVERT JUMPDEST POP POP POP POP PUSH1 0x40 MLOAD RETURNDATASIZE PUSH1 0x20 DUP2 LT ISZERO PUSH2 0x2A04 JUMPI PUSH1 0x0 DUP1 REVERT JUMPDEST POP MLOAD SWAP5 SWAP14 SWAP4 SWAP13 POP SWAP4 SWAP11 POP SWAP2 SWAP9 POP POP POP POP POP POP POP POP POP JUMP JUMPDEST PUSH1 0x0 DUP1 PUSH1 0x0 DUP4 TIMESTAMP DUP2 LT ISZERO PUSH2 0x2A64 JUMPI PUSH1 0x40 DUP1 MLOAD PUSH3 0x461BCD PUSH1 0xE5 SHL DUP2 MSTORE PUSH1 0x20 PUSH1 0x4 DUP3 ADD MSTORE PUSH1 0x18 PUSH1 0x24 DUP3 ADD MSTORE PUSH1 0x0 DUP1 MLOAD PUSH1 0x20 PUSH2 0x45FB DUP4 CODECOPY DUP2 MLOAD SWAP2 MSTORE PUSH1 0x44 DUP3 ADD MSTORE SWAP1 MLOAD SWAP1 DUP2 SWAP1 SUB PUSH1 0x64 ADD SWAP1 REVERT JUMPDEST PUSH2 0x2A92 DUP11 PUSH32 0x0 DUP12 CALLVALUE DUP13 DUP13 PUSH2 0x3FD7 JUMP JUMPDEST SWAP1 SWAP5 POP SWAP3 POP PUSH1 0x0 PUSH2 0x2AE4 PUSH32 0x0 DUP13 PUSH32 0x0 PUSH2 0x3497 JUMP JUMPDEST SWAP1 POP PUSH2 0x2AF2 DUP12 CALLER DUP4 DUP9 PUSH2 0x3557 JUMP JUMPDEST PUSH32 0x0 PUSH1 0x1 PUSH1 0x1 PUSH1 0xA0 SHL SUB AND PUSH4 0xD0E30DB0 DUP6 PUSH1 0x40 MLOAD DUP3 PUSH4 0xFFFFFFFF AND PUSH1 0xE0 SHL DUP2 MSTORE PUSH1 0x4 ADD PUSH1 0x0 PUSH1 0x40 MLOAD DUP1 DUP4 SUB DUP2 DUP6 DUP9 DUP1 EXTCODESIZE ISZERO DUP1 ISZERO PUSH2 0x2B4D JUMPI PUSH1 0x0 DUP1 REVERT JUMPDEST POP GAS CALL ISZERO DUP1 ISZERO PUSH2 0x2B61 JUMPI RETURNDATASIZE PUSH1 0x0 DUP1 RETURNDATACOPY RETURNDATASIZE PUSH1 0x0 REVERT JUMPDEST POP POP POP POP POP PUSH32 0x0 PUSH1 0x1 PUSH1 0x1 PUSH1 0xA0 SHL SUB AND PUSH4 0xA9059CBB DUP3 DUP7 PUSH1 0x40 MLOAD DUP4 PUSH4 0xFFFFFFFF AND PUSH1 0xE0 SHL DUP2 MSTORE PUSH1 0x4 ADD DUP1 DUP4 PUSH1 0x1 PUSH1 0x1 PUSH1 0xA0 SHL SUB AND DUP2 MSTORE PUSH1 0x20 ADD DUP3 DUP2 MSTORE PUSH1 0x20 ADD SWAP3 POP POP POP PUSH1 0x20 PUSH1 0x40 MLOAD DUP1 DUP4 SUB DUP2 PUSH1 0x0 DUP8 DUP1 EXTCODESIZE ISZERO DUP1 ISZERO PUSH2 0x2BDD JUMPI PUSH1 0x0 DUP1 REVERT JUMPDEST POP GAS CALL ISZERO DUP1 ISZERO PUSH2 0x2BF1 JUMPI RETURNDATASIZE PUSH1 0x0 DUP1 RETURNDATACOPY RETURNDATASIZE PUSH1 0x0 REVERT JUMPDEST POP POP POP POP PUSH1 0x40 MLOAD RETURNDATASIZE PUSH1 0x20 DUP2 LT ISZERO PUSH2 0x2C07 JUMPI PUSH1 0x0 DUP1 REVERT JUMPDEST POP MLOAD PUSH2 0x2C0F JUMPI INVALID JUMPDEST DUP1 PUSH1 0x1 PUSH1 0x1 PUSH1 0xA0 SHL SUB AND PUSH4 0x6A627842 DUP9 PUSH1 0x40 MLOAD DUP3 PUSH4 0xFFFFFFFF AND PUSH1 0xE0 SHL DUP2 MSTORE PUSH1 0x4 ADD DUP1 DUP3 PUSH1 0x1 PUSH1 0x1 PUSH1 0xA0 SHL SUB AND DUP2 MSTORE PUSH1 0x20 ADD SWAP2 POP POP PUSH1 0x20 PUSH1 0x40 MLOAD DUP1 DUP4 SUB DUP2 PUSH1 0x0 DUP8 DUP1 EXTCODESIZE ISZERO DUP1 ISZERO PUSH2 0x2C5E JUMPI PUSH1 0x0 DUP1 REVERT JUMPDEST POP GAS CALL ISZERO DUP1 ISZERO PUSH2 0x2C72 JUMPI RETURNDATASIZE PUSH1 0x0 DUP1 RETURNDATACOPY RETURNDATASIZE PUSH1 0x0 REVERT JUMPDEST POP POP POP POP PUSH1 0x40 MLOAD RETURNDATASIZE PUSH1 0x20 DUP2 LT ISZERO PUSH2 0x2C88 JUMPI PUSH1 0x0 DUP1 REVERT JUMPDEST POP MLOAD SWAP3 POP CALLVALUE DUP5 LT ISZERO PUSH2 0x2CA0 JUMPI PUSH2 0x2CA0 CALLER DUP6 CALLVALUE SUB PUSH2 0x317B JUMP JUMPDEST POP POP SWAP7 POP SWAP7 POP SWAP7 SWAP4 POP POP POP POP JUMP JUMPDEST PUSH1 0x60 DUP2 TIMESTAMP DUP2 LT ISZERO PUSH2 0x2CF4 JUMPI PUSH1 0x40 DUP1 MLOAD PUSH3 0x461BCD PUSH1 0xE5 SHL DUP2 MSTORE PUSH1 0x20 PUSH1 0x4 DUP3 ADD MSTORE PUSH1 0x18 PUSH1 0x24 DUP3 ADD MSTORE PUSH1 0x0 DUP1 MLOAD PUSH1 0x20 PUSH2 0x45FB DUP4 CODECOPY DUP2 MLOAD SWAP2 MSTORE PUSH1 0x44 DUP3 ADD MSTORE SWAP1 MLOAD SWAP1 DUP2 SWAP1 SUB PUSH1 0x64 ADD SWAP1 REVERT JUMPDEST PUSH32 0x0 PUSH1 0x1 PUSH1 0x1 PUSH1 0xA0 SHL SUB AND DUP7 DUP7 PUSH1 0x0 DUP2 DUP2 LT PUSH2 0x2D2B JUMPI INVALID JUMPDEST SWAP1 POP PUSH1 0x20 MUL ADD CALLDATALOAD PUSH1 0x1 PUSH1 0x1 PUSH1 0xA0 SHL SUB AND PUSH1 0x1 PUSH1 0x1 PUSH1 0xA0 SHL SUB AND EQ PUSH2 0x2D84 JUMPI PUSH1 0x40 DUP1 MLOAD PUSH3 0x461BCD PUSH1 0xE5 SHL DUP2 MSTORE PUSH1 0x20 PUSH1 0x4 DUP3 ADD MSTORE PUSH1 0x1D PUSH1 0x24 DUP3 ADD MSTORE PUSH1 0x0 DUP1 MLOAD PUSH1 0x20 PUSH2 0x4532 DUP4 CODECOPY DUP2 MLOAD SWAP2 MSTORE PUSH1 0x44 DUP3 ADD MSTORE SWAP1 MLOAD SWAP1 DUP2 SWAP1 SUB PUSH1 0x64 ADD SWAP1 REVERT JUMPDEST PUSH2 0x2DE2 PUSH32 0x0 DUP9 DUP9 DUP9 DUP1 DUP1 PUSH1 0x20 MUL PUSH1 0x20 ADD PUSH1 0x40 MLOAD SWAP1 DUP2 ADD PUSH1 0x40 MSTORE DUP1 SWAP4 SWAP3 SWAP2 SWAP1 DUP2 DUP2 MSTORE PUSH1 0x20 ADD DUP4 DUP4 PUSH1 0x20 MUL DUP1 DUP3 DUP5 CALLDATACOPY PUSH1 0x0 SWAP3 ADD SWAP2 SWAP1 SWAP2 MSTORE POP PUSH2 0x38F1 SWAP3 POP POP POP JUMP JUMPDEST SWAP2 POP CALLVALUE DUP3 PUSH1 0x0 DUP2 MLOAD DUP2 LT PUSH2 0x2DF2 JUMPI INVALID JUMPDEST PUSH1 0x20 MUL PUSH1 0x20 ADD ADD MLOAD GT ISZERO PUSH2 0x2E37 JUMPI PUSH1 0x40 MLOAD PUSH3 0x461BCD PUSH1 0xE5 SHL DUP2 MSTORE PUSH1 0x4 ADD DUP1 DUP1 PUSH1 0x20 ADD DUP3 DUP2 SUB DUP3 MSTORE PUSH1 0x27 DUP2 MSTORE PUSH1 0x20 ADD DUP1 PUSH2 0x450B PUSH1 0x27 SWAP2 CODECOPY PUSH1 0x40 ADD SWAP2 POP POP PUSH1 0x40 MLOAD DUP1 SWAP2 SUB SWAP1 REVERT JUMPDEST PUSH32 0x0 PUSH1 0x1 PUSH1 0x1 PUSH1 0xA0 SHL SUB AND PUSH4 0xD0E30DB0 DUP4 PUSH1 0x0 DUP2 MLOAD DUP2 LT PUSH2 0x2E73 JUMPI INVALID JUMPDEST PUSH1 0x20 MUL PUSH1 0x20 ADD ADD MLOAD PUSH1 0x40 MLOAD DUP3 PUSH4 0xFFFFFFFF AND PUSH1 0xE0 SHL DUP2 MSTORE PUSH1 0x4 ADD PUSH1 0x0 PUSH1 0x40 MLOAD DUP1 DUP4 SUB DUP2 DUP6 DUP9 DUP1 EXTCODESIZE ISZERO DUP1 ISZERO PUSH2 0x2EA6 JUMPI PUSH1 0x0 DUP1 REVERT JUMPDEST POP GAS CALL ISZERO DUP1 ISZERO PUSH2 0x2EBA JUMPI RETURNDATASIZE PUSH1 0x0 DUP1 RETURNDATACOPY RETURNDATASIZE PUSH1 0x0 REVERT JUMPDEST POP POP POP POP POP PUSH32 0x0 PUSH1 0x1 PUSH1 0x1 PUSH1 0xA0 SHL SUB AND PUSH4 0xA9059CBB PUSH2 0x2F1F PUSH32 0x0 DUP10 DUP10 PUSH1 0x0 DUP2 DUP2 LT PUSH2 0x1749 JUMPI INVALID JUMPDEST DUP5 PUSH1 0x0 DUP2 MLOAD DUP2 LT PUSH2 0x2F2C JUMPI INVALID JUMPDEST PUSH1 0x20 MUL PUSH1 0x20 ADD ADD MLOAD PUSH1 0x40 MLOAD DUP4 PUSH4 0xFFFFFFFF AND PUSH1 0xE0 SHL DUP2 MSTORE PUSH1 0x4 ADD DUP1 DUP4 PUSH1 0x1 PUSH1 0x1 PUSH1 0xA0 SHL SUB AND DUP2 MSTORE PUSH1 0x20 ADD DUP3 DUP2 MSTORE PUSH1 0x20 ADD SWAP3 POP POP POP PUSH1 0x20 PUSH1 0x40 MLOAD DUP1 DUP4 SUB DUP2 PUSH1 0x0 DUP8 DUP1 EXTCODESIZE ISZERO DUP1 ISZERO PUSH2 0x2F7A JUMPI PUSH1 0x0 DUP1 REVERT JUMPDEST POP GAS CALL ISZERO DUP1 ISZERO PUSH2 0x2F8E JUMPI RETURNDATASIZE PUSH1 0x0 DUP1 RETURNDATACOPY RETURNDATASIZE PUSH1 0x0 REVERT JUMPDEST POP POP POP POP PUSH1 0x40 MLOAD RETURNDATASIZE PUSH1 0x20 DUP2 LT ISZERO PUSH2 0x2FA4 JUMPI PUSH1 0x0 DUP1 REVERT JUMPDEST POP MLOAD PUSH2 0x2FAC JUMPI INVALID JUMPDEST PUSH2 0x2FEB DUP3 DUP8 DUP8 DUP1 DUP1 PUSH1 0x20 MUL PUSH1 0x20 ADD PUSH1 0x40 MLOAD SWAP1 DUP2 ADD PUSH1 0x40 MSTORE DUP1 SWAP4 SWAP3 SWAP2 SWAP1 DUP2 DUP2 MSTORE PUSH1 0x20 ADD DUP4 DUP4 PUSH1 0x20 MUL DUP1 DUP3 DUP5 CALLDATACOPY PUSH1 0x0 SWAP3 ADD SWAP2 SWAP1 SWAP2 MSTORE POP DUP10 SWAP3 POP PUSH2 0x36B4 SWAP2 POP POP JUMP JUMPDEST DUP2 PUSH1 0x0 DUP2 MLOAD DUP2 LT PUSH2 0x2FF8 JUMPI INVALID JUMPDEST PUSH1 0x20 MUL PUSH1 0x20 ADD ADD MLOAD CALLVALUE GT ISZERO PUSH2 0x1EF9 JUMPI PUSH2 0x1EF9 CALLER DUP4 PUSH1 0x0 DUP2 MLOAD DUP2 LT PUSH2 0x3018 JUMPI INVALID JUMPDEST PUSH1 0x20 MUL PUSH1 0x20 ADD ADD MLOAD CALLVALUE SUB PUSH2 0x317B JUMP JUMPDEST PUSH1 0x40 DUP1 MLOAD PUSH1 0x1 PUSH1 0x1 PUSH1 0xA0 SHL SUB DUP5 DUP2 AND PUSH1 0x24 DUP4 ADD MSTORE PUSH1 0x44 DUP1 DUP4 ADD DUP6 SWAP1 MSTORE DUP4 MLOAD DUP1 DUP5 SUB SWAP1 SWAP2 ADD DUP2 MSTORE PUSH1 0x64 SWAP1 SWAP3 ADD DUP4 MSTORE PUSH1 0x20 DUP3 ADD DUP1 MLOAD PUSH1 0x1 PUSH1 0x1 PUSH1 0xE0 SHL SUB AND PUSH4 0xA9059CBB PUSH1 0xE0 SHL OR DUP2 MSTORE SWAP3 MLOAD DUP3 MLOAD PUSH1 0x0 SWAP5 PUSH1 0x60 SWAP5 SWAP4 DUP10 AND SWAP4 SWAP3 SWAP2 DUP3 SWAP2 SWAP1 DUP1 DUP4 DUP4 JUMPDEST PUSH1 0x20 DUP4 LT PUSH2 0x30A4 JUMPI DUP1 MLOAD DUP3 MSTORE PUSH1 0x1F NOT SWAP1 SWAP3 ADD SWAP2 PUSH1 0x20 SWAP2 DUP3 ADD SWAP2 ADD PUSH2 0x3085 JUMP JUMPDEST PUSH1 0x1 DUP4 PUSH1 0x20 SUB PUSH2 0x100 EXP SUB DUP1 NOT DUP3 MLOAD AND DUP2 DUP5 MLOAD AND DUP1 DUP3 OR DUP6 MSTORE POP POP POP POP POP POP SWAP1 POP ADD SWAP2 POP POP PUSH1 0x0 PUSH1 0x40 MLOAD DUP1 DUP4 SUB DUP2 PUSH1 0x0 DUP7 GAS CALL SWAP2 POP POP RETURNDATASIZE DUP1 PUSH1 0x0 DUP2 EQ PUSH2 0x3106 JUMPI PUSH1 0x40 MLOAD SWAP2 POP PUSH1 0x1F NOT PUSH1 0x3F RETURNDATASIZE ADD AND DUP3 ADD PUSH1 0x40 MSTORE RETURNDATASIZE DUP3 MSTORE RETURNDATASIZE PUSH1 0x0 PUSH1 0x20 DUP5 ADD RETURNDATACOPY PUSH2 0x310B JUMP JUMPDEST PUSH1 0x60 SWAP2 POP JUMPDEST POP SWAP2 POP SWAP2 POP DUP2 DUP1 ISZERO PUSH2 0x3139 JUMPI POP DUP1 MLOAD ISZERO DUP1 PUSH2 0x3139 JUMPI POP DUP1 DUP1 PUSH1 0x20 ADD SWAP1 MLOAD PUSH1 0x20 DUP2 LT ISZERO PUSH2 0x3136 JUMPI PUSH1 0x0 DUP1 REVERT JUMPDEST POP MLOAD JUMPDEST PUSH2 0x3174 JUMPI PUSH1 0x40 MLOAD PUSH3 0x461BCD PUSH1 0xE5 SHL DUP2 MSTORE PUSH1 0x4 ADD DUP1 DUP1 PUSH1 0x20 ADD DUP3 DUP2 SUB DUP3 MSTORE PUSH1 0x2D DUP2 MSTORE PUSH1 0x20 ADD DUP1 PUSH2 0x45A3 PUSH1 0x2D SWAP2 CODECOPY PUSH1 0x40 ADD SWAP2 POP POP PUSH1 0x40 MLOAD DUP1 SWAP2 SUB SWAP1 REVERT JUMPDEST POP POP POP POP POP JUMP JUMPDEST PUSH1 0x40 DUP1 MLOAD PUSH1 0x0 DUP1 DUP3 MSTORE PUSH1 0x20 DUP3 ADD SWAP1 SWAP3 MSTORE PUSH1 0x1 PUSH1 0x1 PUSH1 0xA0 SHL SUB DUP5 AND SWAP1 DUP4 SWAP1 PUSH1 0x40 MLOAD DUP1 DUP3 DUP1 MLOAD SWAP1 PUSH1 0x20 ADD SWAP1 DUP1 DUP4 DUP4 JUMPDEST PUSH1 0x20 DUP4 LT PUSH2 0x31C7 JUMPI DUP1 MLOAD DUP3 MSTORE PUSH1 0x1F NOT SWAP1 SWAP3 ADD SWAP2 PUSH1 0x20 SWAP2 DUP3 ADD SWAP2 ADD PUSH2 0x31A8 JUMP JUMPDEST PUSH1 0x1 DUP4 PUSH1 0x20 SUB PUSH2 0x100 EXP SUB DUP1 NOT DUP3 MLOAD AND DUP2 DUP5 MLOAD AND DUP1 DUP3 OR DUP6 MSTORE POP POP POP POP POP POP SWAP1 POP ADD SWAP2 POP POP PUSH1 0x0 PUSH1 0x40 MLOAD DUP1 DUP4 SUB DUP2 DUP6 DUP8 GAS CALL SWAP3 POP POP POP RETURNDATASIZE DUP1 PUSH1 0x0 DUP2 EQ PUSH2 0x3229 JUMPI PUSH1 0x40 MLOAD SWAP2 POP PUSH1 0x1F NOT PUSH1 0x3F RETURNDATASIZE ADD AND DUP3 ADD PUSH1 0x40 MSTORE RETURNDATASIZE DUP3 MSTORE RETURNDATASIZE PUSH1 0x0 PUSH1 0x20 DUP5 ADD RETURNDATACOPY PUSH2 0x322E JUMP JUMPDEST PUSH1 0x60 SWAP2 POP JUMPDEST POP POP SWAP1 POP DUP1 PUSH2 0x326E JUMPI PUSH1 0x40 MLOAD PUSH3 0x461BCD PUSH1 0xE5 SHL DUP2 MSTORE PUSH1 0x4 ADD DUP1 DUP1 PUSH1 0x20 ADD DUP3 DUP2 SUB DUP3 MSTORE PUSH1 0x34 DUP2 MSTORE PUSH1 0x20 ADD DUP1 PUSH2 0x443F PUSH1 0x34 SWAP2 CODECOPY PUSH1 0x40 ADD SWAP2 POP POP PUSH1 0x40 MLOAD DUP1 SWAP2 SUB SWAP1 REVERT JUMPDEST POP POP POP JUMP JUMPDEST PUSH1 0x0 DUP1 DUP5 GT PUSH2 0x32B3 JUMPI PUSH1 0x40 MLOAD PUSH3 0x461BCD PUSH1 0xE5 SHL DUP2 MSTORE PUSH1 0x4 ADD DUP1 DUP1 PUSH1 0x20 ADD DUP3 DUP2 SUB DUP3 MSTORE PUSH1 0x2B DUP2 MSTORE PUSH1 0x20 ADD DUP1 PUSH2 0x45D0 PUSH1 0x2B SWAP2 CODECOPY PUSH1 0x40 ADD SWAP2 POP POP PUSH1 0x40 MLOAD DUP1 SWAP2 SUB SWAP1 REVERT JUMPDEST PUSH1 0x0 DUP4 GT DUP1 ISZERO PUSH2 0x32C3 JUMPI POP PUSH1 0x0 DUP3 GT JUMPDEST PUSH2 0x32FE JUMPI PUSH1 0x40 MLOAD PUSH3 0x461BCD PUSH1 0xE5 SHL DUP2 MSTORE PUSH1 0x4 ADD DUP1 DUP1 PUSH1 0x20 ADD DUP3 DUP2 SUB DUP3 MSTORE PUSH1 0x28 DUP2 MSTORE PUSH1 0x20 ADD DUP1 PUSH2 0x44BE PUSH1 0x28 SWAP2 CODECOPY PUSH1 0x40 ADD SWAP2 POP POP PUSH1 0x40 MLOAD DUP1 SWAP2 SUB SWAP1 REVERT JUMPDEST PUSH1 0x0 PUSH2 0x330C DUP6 PUSH2 0x3E4 PUSH2 0x4268 JUMP JUMPDEST SWAP1 POP PUSH1 0x0 PUSH2 0x331A DUP3 DUP6 PUSH2 0x4268 JUMP JUMPDEST SWAP1 POP PUSH1 0x0 PUSH2 0x3334 DUP4 PUSH2 0x332E DUP9 PUSH2 0x3E8 PUSH2 0x4268 JUMP JUMPDEST SWAP1 PUSH2 0x42CB JUMP JUMPDEST SWAP1 POP DUP1 DUP3 DUP2 PUSH2 0x333F JUMPI INVALID JUMPDEST DIV SWAP8 SWAP7 POP POP POP POP POP POP POP JUMP JUMPDEST PUSH1 0x60 PUSH1 0x2 DUP3 MLOAD LT ISZERO PUSH2 0x33A4 JUMPI PUSH1 0x40 DUP1 MLOAD PUSH3 0x461BCD PUSH1 0xE5 SHL DUP2 MSTORE PUSH1 0x20 PUSH1 0x4 DUP3 ADD MSTORE PUSH1 0x1E PUSH1 0x24 DUP3 ADD MSTORE PUSH32 0x556E697377617056324C6962726172793A20494E56414C49445F504154480000 PUSH1 0x44 DUP3 ADD MSTORE SWAP1 MLOAD SWAP1 DUP2 SWAP1 SUB PUSH1 0x64 ADD SWAP1 REVERT JUMPDEST DUP2 MLOAD PUSH8 0xFFFFFFFFFFFFFFFF DUP2 GT DUP1 ISZERO PUSH2 0x33BC JUMPI PUSH1 0x0 DUP1 REVERT JUMPDEST POP PUSH1 0x40 MLOAD SWAP1 DUP1 DUP3 MSTORE DUP1 PUSH1 0x20 MUL PUSH1 0x20 ADD DUP3 ADD PUSH1 0x40 MSTORE DUP1 ISZERO PUSH2 0x33E6 JUMPI DUP2 PUSH1 0x20 ADD PUSH1 0x20 DUP3 MUL DUP1 CALLDATASIZE DUP4 CALLDATACOPY ADD SWAP1 POP JUMPDEST POP SWAP1 POP DUP3 DUP2 PUSH1 0x0 DUP2 MLOAD DUP2 LT PUSH2 0x33F7 JUMPI INVALID JUMPDEST PUSH1 0x20 MUL PUSH1 0x20 ADD ADD DUP2 DUP2 MSTORE POP POP PUSH1 0x0 JUMPDEST PUSH1 0x1 DUP4 MLOAD SUB DUP2 LT ISZERO PUSH2 0x348F JUMPI PUSH1 0x0 DUP1 PUSH2 0x3449 DUP8 DUP7 DUP6 DUP2 MLOAD DUP2 LT PUSH2 0x3425 JUMPI INVALID JUMPDEST PUSH1 0x20 MUL PUSH1 0x20 ADD ADD MLOAD DUP8 DUP7 PUSH1 0x1 ADD DUP2 MLOAD DUP2 LT PUSH2 0x343C JUMPI INVALID JUMPDEST PUSH1 0x20 MUL PUSH1 0x20 ADD ADD MLOAD PUSH2 0x431A JUMP JUMPDEST SWAP2 POP SWAP2 POP PUSH2 0x346B DUP5 DUP5 DUP2 MLOAD DUP2 LT PUSH2 0x345C JUMPI INVALID JUMPDEST PUSH1 0x20 MUL PUSH1 0x20 ADD ADD MLOAD DUP4 DUP4 PUSH2 0x3273 JUMP JUMPDEST DUP5 DUP5 PUSH1 0x1 ADD DUP2 MLOAD DUP2 LT PUSH2 0x347A JUMPI INVALID JUMPDEST PUSH1 0x20 SWAP1 DUP2 MUL SWAP2 SWAP1 SWAP2 ADD ADD MSTORE POP POP PUSH1 0x1 ADD PUSH2 0x3406 JUMP JUMPDEST POP SWAP4 SWAP3 POP POP POP JUMP JUMPDEST PUSH1 0x0 DUP1 PUSH1 0x0 PUSH2 0x34A6 DUP6 DUP6 PUSH2 0x3EF9 JUMP JUMPDEST PUSH1 0x40 DUP1 MLOAD PUSH12 0xFFFFFFFFFFFFFFFFFFFFFFFF NOT PUSH1 0x60 SWAP5 DUP6 SHL DUP2 AND PUSH1 0x20 DUP1 DUP5 ADD SWAP2 SWAP1 SWAP2 MSTORE SWAP4 DUP6 SHL DUP2 AND PUSH1 0x34 DUP4 ADD MSTORE DUP3 MLOAD PUSH1 0x28 DUP2 DUP5 SUB ADD DUP2 MSTORE PUSH1 0x48 DUP4 ADD DUP5 MSTORE DUP1 MLOAD SWAP1 DUP6 ADD KECCAK256 PUSH1 0x1 PUSH1 0x1 PUSH1 0xF8 SHL SUB NOT PUSH1 0x68 DUP5 ADD MSTORE SWAP11 SWAP1 SWAP5 SHL SWAP1 SWAP4 AND PUSH1 0x69 DUP5 ADD MSTORE PUSH1 0x7D DUP4 ADD SWAP9 SWAP1 SWAP9 MSTORE PUSH32 0xDA3C87F621C1B97923A5BB62C384D9ACA75F055C0B1A27BDC273BDE29EDAC15A PUSH1 0x9D DUP1 DUP5 ADD SWAP2 SWAP1 SWAP2 MSTORE DUP9 MLOAD DUP1 DUP5 SUB SWAP1 SWAP2 ADD DUP2 MSTORE PUSH1 0xBD SWAP1 SWAP3 ADD SWAP1 SWAP8 MSTORE DUP1 MLOAD SWAP7 ADD SWAP6 SWAP1 SWAP6 KECCAK256 SWAP6 SWAP5 POP POP POP POP POP JUMP JUMPDEST PUSH1 0x40 DUP1 MLOAD PUSH1 0x1 PUSH1 0x1 PUSH1 0xA0 SHL SUB DUP6 DUP2 AND PUSH1 0x24 DUP4 ADD MSTORE DUP5 DUP2 AND PUSH1 0x44 DUP4 ADD MSTORE PUSH1 0x64 DUP1 DUP4 ADD DUP6 SWAP1 MSTORE DUP4 MLOAD DUP1 DUP5 SUB SWAP1 SWAP2 ADD DUP2 MSTORE PUSH1 0x84 SWAP1 SWAP3 ADD DUP4 MSTORE PUSH1 0x20 DUP3 ADD DUP1 MLOAD PUSH1 0x1 PUSH1 0x1 PUSH1 0xE0 SHL SUB AND PUSH4 0x23B872DD PUSH1 0xE0 SHL OR DUP2 MSTORE SWAP3 MLOAD DUP3 MLOAD PUSH1 0x0 SWAP5 PUSH1 0x60 SWAP5 SWAP4 DUP11 AND SWAP4 SWAP3 SWAP2 DUP3 SWAP2 SWAP1 DUP1 DUP4 DUP4 JUMPDEST PUSH1 0x20 DUP4 LT PUSH2 0x35DC JUMPI DUP1 MLOAD DUP3 MSTORE PUSH1 0x1F NOT SWAP1 SWAP3 ADD SWAP2 PUSH1 0x20 SWAP2 DUP3 ADD SWAP2 ADD PUSH2 0x35BD JUMP JUMPDEST PUSH1 0x1 DUP4 PUSH1 0x20 SUB PUSH2 0x100 EXP SUB DUP1 NOT DUP3 MLOAD AND DUP2 DUP5 MLOAD AND DUP1 DUP3 OR DUP6 MSTORE POP POP POP POP POP POP SWAP1 POP ADD SWAP2 POP POP PUSH1 0x0 PUSH1 0x40 MLOAD DUP1 DUP4 SUB DUP2 PUSH1 0x0 DUP7 GAS CALL SWAP2 POP POP RETURNDATASIZE DUP1 PUSH1 0x0 DUP2 EQ PUSH2 0x363E JUMPI PUSH1 0x40 MLOAD SWAP2 POP PUSH1 0x1F NOT PUSH1 0x3F RETURNDATASIZE ADD AND DUP3 ADD PUSH1 0x40 MSTORE RETURNDATASIZE DUP3 MSTORE RETURNDATASIZE PUSH1 0x0 PUSH1 0x20 DUP5 ADD RETURNDATACOPY PUSH2 0x3643 JUMP JUMPDEST PUSH1 0x60 SWAP2 POP JUMPDEST POP SWAP2 POP SWAP2 POP DUP2 DUP1 ISZERO PUSH2 0x3671 JUMPI POP DUP1 MLOAD ISZERO DUP1 PUSH2 0x3671 JUMPI POP DUP1 DUP1 PUSH1 0x20 ADD SWAP1 MLOAD PUSH1 0x20 DUP2 LT ISZERO PUSH2 0x366E JUMPI PUSH1 0x0 DUP1 REVERT JUMPDEST POP MLOAD JUMPDEST PUSH2 0x36AC JUMPI PUSH1 0x40 MLOAD PUSH3 0x461BCD PUSH1 0xE5 SHL DUP2 MSTORE PUSH1 0x4 ADD DUP1 DUP1 PUSH1 0x20 ADD DUP3 DUP2 SUB DUP3 MSTORE PUSH1 0x31 DUP2 MSTORE PUSH1 0x20 ADD DUP1 PUSH2 0x440E PUSH1 0x31 SWAP2 CODECOPY PUSH1 0x40 ADD SWAP2 POP POP PUSH1 0x40 MLOAD DUP1 SWAP2 SUB SWAP1 REVERT JUMPDEST POP POP POP POP POP POP JUMP JUMPDEST PUSH1 0x0 JUMPDEST PUSH1 0x1 DUP4 MLOAD SUB DUP2 LT ISZERO PUSH2 0x38EB JUMPI PUSH1 0x0 DUP1 DUP5 DUP4 DUP2 MLOAD DUP2 LT PUSH2 0x36D2 JUMPI INVALID JUMPDEST PUSH1 0x20 MUL PUSH1 0x20 ADD ADD MLOAD DUP6 DUP5 PUSH1 0x1 ADD DUP2 MLOAD DUP2 LT PUSH2 0x36E9 JUMPI INVALID JUMPDEST PUSH1 0x20 MUL PUSH1 0x20 ADD ADD MLOAD SWAP2 POP SWAP2 POP PUSH1 0x0 PUSH2 0x3701 DUP4 DUP4 PUSH2 0x3EF9 JUMP JUMPDEST POP SWAP1 POP PUSH1 0x0 DUP8 DUP6 PUSH1 0x1 ADD DUP2 MLOAD DUP2 LT PUSH2 0x3715 JUMPI INVALID JUMPDEST PUSH1 0x20 MUL PUSH1 0x20 ADD ADD MLOAD SWAP1 POP PUSH1 0x0 DUP1 DUP4 PUSH1 0x1 PUSH1 0x1 PUSH1 0xA0 SHL SUB AND DUP7 PUSH1 0x1 PUSH1 0x1 PUSH1 0xA0 SHL SUB AND EQ PUSH2 0x3743 JUMPI DUP3 PUSH1 0x0 PUSH2 0x3747 JUMP JUMPDEST PUSH1 0x0 DUP4 JUMPDEST SWAP2 POP SWAP2 POP PUSH1 0x0 PUSH1 0x2 DUP11 MLOAD SUB DUP9 LT PUSH2 0x375E JUMPI DUP9 PUSH2 0x379F JUMP JUMPDEST PUSH2 0x379F PUSH32 0x0 DUP8 DUP13 DUP12 PUSH1 0x2 ADD DUP2 MLOAD DUP2 LT PUSH2 0x3792 JUMPI INVALID JUMPDEST PUSH1 0x20 MUL PUSH1 0x20 ADD ADD MLOAD PUSH2 0x3497 JUMP JUMPDEST SWAP1 POP PUSH2 0x37CC PUSH32 0x0 DUP9 DUP9 PUSH2 0x3497 JUMP JUMPDEST PUSH1 0x1 PUSH1 0x1 PUSH1 0xA0 SHL SUB AND PUSH4 0x22C0D9F DUP5 DUP5 DUP5 PUSH1 0x0 PUSH1 0x40 MLOAD SWAP1 DUP1 DUP3 MSTORE DUP1 PUSH1 0x1F ADD PUSH1 0x1F NOT AND PUSH1 0x20 ADD DUP3 ADD PUSH1 0x40 MSTORE DUP1 ISZERO PUSH2 0x3809 JUMPI PUSH1 0x20 DUP3 ADD DUP2 DUP1 CALLDATASIZE DUP4 CALLDATACOPY ADD SWAP1 POP JUMPDEST POP PUSH1 0x40 MLOAD DUP6 PUSH4 0xFFFFFFFF AND PUSH1 0xE0 SHL DUP2 MSTORE PUSH1 0x4 ADD DUP1 DUP6 DUP2 MSTORE PUSH1 0x20 ADD DUP5 DUP2 MSTORE PUSH1 0x20 ADD DUP4 PUSH1 0x1 PUSH1 0x1 PUSH1 0xA0 SHL SUB AND DUP2 MSTORE PUSH1 0x20 ADD DUP1 PUSH1 0x20 ADD DUP3 DUP2 SUB DUP3 MSTORE DUP4 DUP2 DUP2 MLOAD DUP2 MSTORE PUSH1 0x20 ADD SWAP2 POP DUP1 MLOAD SWAP1 PUSH1 0x20 ADD SWAP1 DUP1 DUP4 DUP4 PUSH1 0x0 JUMPDEST DUP4 DUP2 LT ISZERO PUSH2 0x3871 JUMPI DUP2 DUP2 ADD MLOAD DUP4 DUP3 ADD MSTORE PUSH1 0x20 ADD PUSH2 0x3859 JUMP JUMPDEST POP POP POP POP SWAP1 POP SWAP1 DUP2 ADD SWAP1 PUSH1 0x1F AND DUP1 ISZERO PUSH2 0x389E JUMPI DUP1 DUP3 SUB DUP1 MLOAD PUSH1 0x1 DUP4 PUSH1 0x20 SUB PUSH2 0x100 EXP SUB NOT AND DUP2 MSTORE PUSH1 0x20 ADD SWAP2 POP JUMPDEST POP SWAP6 POP POP POP POP POP POP PUSH1 0x0 PUSH1 0x40 MLOAD DUP1 DUP4 SUB DUP2 PUSH1 0x0 DUP8 DUP1 EXTCODESIZE ISZERO DUP1 ISZERO PUSH2 0x38C0 JUMPI PUSH1 0x0 DUP1 REVERT JUMPDEST POP GAS CALL ISZERO DUP1 ISZERO PUSH2 0x38D4 JUMPI RETURNDATASIZE PUSH1 0x0 DUP1 RETURNDATACOPY RETURNDATASIZE PUSH1 0x0 REVERT JUMPDEST POP POP PUSH1 0x1 SWAP1 SWAP10 ADD SWAP9 POP PUSH2 0x36B7 SWAP8 POP POP POP POP POP POP POP POP JUMP JUMPDEST POP POP POP POP JUMP JUMPDEST PUSH1 0x60 PUSH1 0x2 DUP3 MLOAD LT ISZERO PUSH2 0x394A JUMPI PUSH1 0x40 DUP1 MLOAD PUSH3 0x461BCD PUSH1 0xE5 SHL DUP2 MSTORE PUSH1 0x20 PUSH1 0x4 DUP3 ADD MSTORE PUSH1 0x1E PUSH1 0x24 DUP3 ADD MSTORE PUSH32 0x556E697377617056324C6962726172793A20494E56414C49445F504154480000 PUSH1 0x44 DUP3 ADD MSTORE SWAP1 MLOAD SWAP1 DUP2 SWAP1 SUB PUSH1 0x64 ADD SWAP1 REVERT JUMPDEST DUP2 MLOAD PUSH8 0xFFFFFFFFFFFFFFFF DUP2 GT DUP1 ISZERO PUSH2 0x3962 JUMPI PUSH1 0x0 DUP1 REVERT JUMPDEST POP PUSH1 0x40 MLOAD SWAP1 DUP1 DUP3 MSTORE DUP1 PUSH1 0x20 MUL PUSH1 0x20 ADD DUP3 ADD PUSH1 0x40 MSTORE DUP1 ISZERO PUSH2 0x398C JUMPI DUP2 PUSH1 0x20 ADD PUSH1 0x20 DUP3 MUL DUP1 CALLDATASIZE DUP4 CALLDATACOPY ADD SWAP1 POP JUMPDEST POP SWAP1 POP DUP3 DUP2 PUSH1 0x1 DUP4 MLOAD SUB DUP2 MLOAD DUP2 LT PUSH2 0x39A0 JUMPI INVALID JUMPDEST PUSH1 0x20 SWAP1 DUP2 MUL SWAP2 SWAP1 SWAP2 ADD ADD MSTORE DUP2 MLOAD PUSH1 0x0 NOT ADD JUMPDEST DUP1 ISZERO PUSH2 0x348F JUMPI PUSH1 0x0 DUP1 PUSH2 0x39E2 DUP8 DUP7 PUSH1 0x1 DUP7 SUB DUP2 MLOAD DUP2 LT PUSH2 0x39CE JUMPI INVALID JUMPDEST PUSH1 0x20 MUL PUSH1 0x20 ADD ADD MLOAD DUP8 DUP7 DUP2 MLOAD DUP2 LT PUSH2 0x343C JUMPI INVALID JUMPDEST SWAP2 POP SWAP2 POP PUSH2 0x3A04 DUP5 DUP5 DUP2 MLOAD DUP2 LT PUSH2 0x39F5 JUMPI INVALID JUMPDEST PUSH1 0x20 MUL PUSH1 0x20 ADD ADD MLOAD DUP4 DUP4 PUSH2 0x3D7B JUMP JUMPDEST DUP5 PUSH1 0x1 DUP6 SUB DUP2 MLOAD DUP2 LT PUSH2 0x3A13 JUMPI INVALID JUMPDEST PUSH1 0x20 SWAP1 DUP2 MUL SWAP2 SWAP1 SWAP2 ADD ADD MSTORE POP POP PUSH1 0x0 NOT ADD PUSH2 0x39B2 JUMP JUMPDEST PUSH1 0x0 JUMPDEST PUSH1 0x1 DUP4 MLOAD SUB DUP2 LT ISZERO PUSH2 0x326E JUMPI PUSH1 0x0 DUP1 DUP5 DUP4 DUP2 MLOAD DUP2 LT PUSH2 0x3A47 JUMPI INVALID JUMPDEST PUSH1 0x20 MUL PUSH1 0x20 ADD ADD MLOAD DUP6 DUP5 PUSH1 0x1 ADD DUP2 MLOAD DUP2 LT PUSH2 0x3A5E JUMPI INVALID JUMPDEST PUSH1 0x20 MUL PUSH1 0x20 ADD ADD MLOAD SWAP2 POP SWAP2 POP PUSH1 0x0 PUSH2 0x3A76 DUP4 DUP4 PUSH2 0x3EF9 JUMP JUMPDEST POP SWAP1 POP PUSH1 0x0 PUSH2 0x3AA6 PUSH32 0x0 DUP6 DUP6 PUSH2 0x3497 JUMP JUMPDEST SWAP1 POP PUSH1 0x0 DUP1 PUSH1 0x0 DUP1 DUP5 PUSH1 0x1 PUSH1 0x1 PUSH1 0xA0 SHL SUB AND PUSH4 0x902F1AC PUSH1 0x40 MLOAD DUP2 PUSH4 0xFFFFFFFF AND PUSH1 0xE0 SHL DUP2 MSTORE PUSH1 0x4 ADD PUSH1 0x60 PUSH1 0x40 MLOAD DUP1 DUP4 SUB DUP2 DUP7 DUP1 EXTCODESIZE ISZERO DUP1 ISZERO PUSH2 0x3AE7 JUMPI PUSH1 0x0 DUP1 REVERT JUMPDEST POP GAS STATICCALL ISZERO DUP1 ISZERO PUSH2 0x3AFB JUMPI RETURNDATASIZE PUSH1 0x0 DUP1 RETURNDATACOPY RETURNDATASIZE PUSH1 0x0 REVERT JUMPDEST POP POP POP POP PUSH1 0x40 MLOAD RETURNDATASIZE PUSH1 0x60 DUP2 LT ISZERO PUSH2 0x3B11 JUMPI PUSH1 0x0 DUP1 REVERT JUMPDEST POP DUP1 MLOAD PUSH1 0x20 SWAP1 SWAP2 ADD MLOAD PUSH1 0x1 PUSH1 0x1 PUSH1 0x70 SHL SUB SWAP2 DUP3 AND SWAP4 POP AND SWAP1 POP PUSH1 0x0 DUP1 PUSH1 0x1 PUSH1 0x1 PUSH1 0xA0 SHL SUB DUP11 DUP2 AND SWAP1 DUP10 AND EQ PUSH2 0x3B47 JUMPI DUP3 DUP5 PUSH2 0x3B4A JUMP JUMPDEST DUP4 DUP4 JUMPDEST SWAP2 POP SWAP2 POP PUSH2 0x3B9F DUP3 DUP12 PUSH1 0x1 PUSH1 0x1 PUSH1 0xA0 SHL SUB AND PUSH4 0x70A08231 DUP11 PUSH1 0x40 MLOAD DUP3 PUSH4 0xFFFFFFFF AND PUSH1 0xE0 SHL DUP2 MSTORE PUSH1 0x4 ADD DUP1 DUP3 PUSH1 0x1 PUSH1 0x1 PUSH1 0xA0 SHL SUB AND DUP2 MSTORE PUSH1 0x20 ADD SWAP2 POP POP PUSH1 0x20 PUSH1 0x40 MLOAD DUP1 DUP4 SUB DUP2 DUP7 DUP1 EXTCODESIZE ISZERO DUP1 ISZERO PUSH2 0x18B7 JUMPI PUSH1 0x0 DUP1 REVERT JUMPDEST SWAP6 POP PUSH2 0x3BAC DUP7 DUP4 DUP4 PUSH2 0x3273 JUMP JUMPDEST SWAP5 POP POP POP POP POP PUSH1 0x0 DUP1 DUP6 PUSH1 0x1 PUSH1 0x1 PUSH1 0xA0 SHL SUB AND DUP9 PUSH1 0x1 PUSH1 0x1 PUSH1 0xA0 SHL SUB AND EQ PUSH2 0x3BD6 JUMPI DUP3 PUSH1 0x0 PUSH2 0x3BDA JUMP JUMPDEST PUSH1 0x0 DUP4 JUMPDEST SWAP2 POP SWAP2 POP PUSH1 0x0 PUSH1 0x2 DUP13 MLOAD SUB DUP11 LT PUSH2 0x3BF1 JUMPI DUP11 PUSH2 0x3C25 JUMP JUMPDEST PUSH2 0x3C25 PUSH32 0x0 DUP10 DUP15 DUP14 PUSH1 0x2 ADD DUP2 MLOAD DUP2 LT PUSH2 0x3792 JUMPI INVALID JUMPDEST PUSH1 0x40 DUP1 MLOAD PUSH1 0x0 DUP1 DUP3 MSTORE PUSH1 0x20 DUP3 ADD SWAP3 DUP4 SWAP1 MSTORE PUSH4 0x22C0D9F PUSH1 0xE0 SHL DUP4 MSTORE PUSH1 0x24 DUP3 ADD DUP8 DUP2 MSTORE PUSH1 0x44 DUP4 ADD DUP8 SWAP1 MSTORE PUSH1 0x1 PUSH1 0x1 PUSH1 0xA0 SHL SUB DUP1 DUP7 AND PUSH1 0x64 DUP6 ADD MSTORE PUSH1 0x80 PUSH1 0x84 DUP6 ADD SWAP1 DUP2 MSTORE DUP5 MLOAD PUSH1 0xA4 DUP7 ADD DUP2 SWAP1 MSTORE SWAP7 SWAP8 POP SWAP1 DUP13 AND SWAP6 PUSH4 0x22C0D9F SWAP6 DUP11 SWAP6 DUP11 SWAP6 DUP11 SWAP6 SWAP2 SWAP5 SWAP2 SWAP4 SWAP2 SWAP3 PUSH1 0xC4 DUP7 ADD SWAP3 SWAP1 SWAP2 DUP2 SWAP1 DUP5 SWAP1 DUP5 SWAP1 JUMPDEST DUP4 DUP2 LT ISZERO PUSH2 0x3CAF JUMPI DUP2 DUP2 ADD MLOAD DUP4 DUP3 ADD MSTORE PUSH1 0x20 ADD PUSH2 0x3C97 JUMP JUMPDEST POP POP POP POP SWAP1 POP SWAP1 DUP2 ADD SWAP1 PUSH1 0x1F AND DUP1 ISZERO PUSH2 0x3CDC JUMPI DUP1 DUP3 SUB DUP1 MLOAD PUSH1 0x1 DUP4 PUSH1 0x20 SUB PUSH2 0x100 EXP SUB NOT AND DUP2 MSTORE PUSH1 0x20 ADD SWAP2 POP JUMPDEST POP SWAP6 POP POP POP POP POP POP PUSH1 0x0 PUSH1 0x40 MLOAD DUP1 DUP4 SUB DUP2 PUSH1 0x0 DUP8 DUP1 EXTCODESIZE ISZERO DUP1 ISZERO PUSH2 0x3CFE JUMPI PUSH1 0x0 DUP1 REVERT JUMPDEST POP GAS CALL ISZERO DUP1 ISZERO PUSH2 0x3D12 JUMPI RETURNDATASIZE PUSH1 0x0 DUP1 RETURNDATACOPY RETURNDATASIZE PUSH1 0x0 REVERT JUMPDEST POP POP PUSH1 0x1 SWAP1 SWAP12 ADD SWAP11 POP PUSH2 0x3A2C SWAP10 POP POP POP POP POP POP POP POP POP POP JUMP JUMPDEST DUP1 DUP3 SUB DUP3 DUP2 GT ISZERO PUSH2 0x11C8 JUMPI PUSH1 0x40 DUP1 MLOAD PUSH3 0x461BCD PUSH1 0xE5 SHL DUP2 MSTORE PUSH1 0x20 PUSH1 0x4 DUP3 ADD MSTORE PUSH1 0x15 PUSH1 0x24 DUP3 ADD MSTORE PUSH21 0x64732D6D6174682D7375622D756E646572666C6F77 PUSH1 0x58 SHL PUSH1 0x44 DUP3 ADD MSTORE SWAP1 MLOAD SWAP1 DUP2 SWAP1 SUB PUSH1 0x64 ADD SWAP1 REVERT JUMPDEST PUSH1 0x0 DUP1 DUP5 GT PUSH2 0x3DBB JUMPI PUSH1 0x40 MLOAD PUSH3 0x461BCD PUSH1 0xE5 SHL DUP2 MSTORE PUSH1 0x4 ADD DUP1 DUP1 PUSH1 0x20 ADD DUP3 DUP2 SUB DUP3 MSTORE PUSH1 0x2C DUP2 MSTORE PUSH1 0x20 ADD DUP1 PUSH2 0x43E2 PUSH1 0x2C SWAP2 CODECOPY PUSH1 0x40 ADD SWAP2 POP POP PUSH1 0x40 MLOAD DUP1 SWAP2 SUB SWAP1 REVERT JUMPDEST PUSH1 0x0 DUP4 GT DUP1 ISZERO PUSH2 0x3DCB JUMPI POP PUSH1 0x0 DUP3 GT JUMPDEST PUSH2 0x3E06 JUMPI PUSH1 0x40 MLOAD PUSH3 0x461BCD PUSH1 0xE5 SHL DUP2 MSTORE PUSH1 0x4 ADD DUP1 DUP1 PUSH1 0x20 ADD DUP3 DUP2 SUB DUP3 MSTORE PUSH1 0x28 DUP2 MSTORE PUSH1 0x20 ADD DUP1 PUSH2 0x44BE PUSH1 0x28 SWAP2 CODECOPY PUSH1 0x40 ADD SWAP2 POP POP PUSH1 0x40 MLOAD DUP1 SWAP2 SUB SWAP1 REVERT JUMPDEST PUSH1 0x0 PUSH2 0x3E1E PUSH2 0x3E8 PUSH2 0x3E18 DUP7 DUP9 PUSH2 0x4268 JUMP JUMPDEST SWAP1 PUSH2 0x4268 JUMP JUMPDEST SWAP1 POP PUSH1 0x0 PUSH2 0x3E32 PUSH2 0x3E4 PUSH2 0x3E18 DUP7 DUP10 PUSH2 0x3D2B JUMP JUMPDEST SWAP1 POP PUSH2 0x3E49 PUSH1 0x1 DUP3 DUP5 DUP2 PUSH2 0x3E42 JUMPI INVALID JUMPDEST DIV SWAP1 PUSH2 0x42CB JUMP JUMPDEST SWAP7 SWAP6 POP POP POP POP POP POP JUMP JUMPDEST PUSH1 0x0 DUP1 DUP5 GT PUSH2 0x3E93 JUMPI PUSH1 0x40 MLOAD PUSH3 0x461BCD PUSH1 0xE5 SHL DUP2 MSTORE PUSH1 0x4 ADD DUP1 DUP1 PUSH1 0x20 ADD DUP3 DUP2 SUB DUP3 MSTORE PUSH1 0x25 DUP2 MSTORE PUSH1 0x20 ADD DUP1 PUSH2 0x44E6 PUSH1 0x25 SWAP2 CODECOPY PUSH1 0x40 ADD SWAP2 POP POP PUSH1 0x40 MLOAD DUP1 SWAP2 SUB SWAP1 REVERT JUMPDEST PUSH1 0x0 DUP4 GT DUP1 ISZERO PUSH2 0x3EA3 JUMPI POP PUSH1 0x0 DUP3 GT JUMPDEST PUSH2 0x3EDE JUMPI PUSH1 0x40 MLOAD PUSH3 0x461BCD PUSH1 0xE5 SHL DUP2 MSTORE PUSH1 0x4 ADD DUP1 DUP1 PUSH1 0x20 ADD DUP3 DUP2 SUB DUP3 MSTORE PUSH1 0x28 DUP2 MSTORE PUSH1 0x20 ADD DUP1 PUSH2 0x44BE PUSH1 0x28 SWAP2 CODECOPY PUSH1 0x40 ADD SWAP2 POP POP PUSH1 0x40 MLOAD DUP1 SWAP2 SUB SWAP1 REVERT JUMPDEST DUP3 PUSH2 0x3EE9 DUP6 DUP5 PUSH2 0x4268 JUMP JUMPDEST DUP2 PUSH2 0x3EF0 JUMPI INVALID JUMPDEST DIV SWAP5 SWAP4 POP POP POP POP JUMP JUMPDEST PUSH1 0x0 DUP1 DUP3 PUSH1 0x1 PUSH1 0x1 PUSH1 0xA0 SHL SUB AND DUP5 PUSH1 0x1 PUSH1 0x1 PUSH1 0xA0 SHL SUB AND EQ ISZERO PUSH2 0x3F4D JUMPI PUSH1 0x40 MLOAD PUSH3 0x461BCD PUSH1 0xE5 SHL DUP2 MSTORE PUSH1 0x4 ADD DUP1 DUP1 PUSH1 0x20 ADD DUP3 DUP2 SUB DUP3 MSTORE PUSH1 0x25 DUP2 MSTORE PUSH1 0x20 ADD DUP1 PUSH2 0x4473 PUSH1 0x25 SWAP2 CODECOPY PUSH1 0x40 ADD SWAP2 POP POP PUSH1 0x40 MLOAD DUP1 SWAP2 SUB SWAP1 REVERT JUMPDEST DUP3 PUSH1 0x1 PUSH1 0x1 PUSH1 0xA0 SHL SUB AND DUP5 PUSH1 0x1 PUSH1 0x1 PUSH1 0xA0 SHL SUB AND LT PUSH2 0x3F6D JUMPI DUP3 DUP5 PUSH2 0x3F70 JUMP JUMPDEST DUP4 DUP4 JUMPDEST SWAP1 SWAP3 POP SWAP1 POP PUSH1 0x1 PUSH1 0x1 PUSH1 0xA0 SHL SUB DUP3 AND PUSH2 0x3FD0 JUMPI PUSH1 0x40 DUP1 MLOAD PUSH3 0x461BCD PUSH1 0xE5 SHL DUP2 MSTORE PUSH1 0x20 PUSH1 0x4 DUP3 ADD MSTORE PUSH1 0x1E PUSH1 0x24 DUP3 ADD MSTORE PUSH32 0x556E697377617056324C6962726172793A205A45524F5F414444524553530000 PUSH1 0x44 DUP3 ADD MSTORE SWAP1 MLOAD SWAP1 DUP2 SWAP1 SUB PUSH1 0x64 ADD SWAP1 REVERT JUMPDEST SWAP3 POP SWAP3 SWAP1 POP JUMP JUMPDEST PUSH1 0x0 DUP1 PUSH1 0x0 PUSH1 0x1 PUSH1 0x1 PUSH1 0xA0 SHL SUB AND PUSH32 0x0 PUSH1 0x1 PUSH1 0x1 PUSH1 0xA0 SHL SUB AND PUSH4 0xE6A43905 DUP11 DUP11 PUSH1 0x40 MLOAD DUP4 PUSH4 0xFFFFFFFF AND PUSH1 0xE0 SHL DUP2 MSTORE PUSH1 0x4 ADD DUP1 DUP4 PUSH1 0x1 PUSH1 0x1 PUSH1 0xA0 SHL SUB AND DUP2 MSTORE PUSH1 0x20 ADD DUP3 PUSH1 0x1 PUSH1 0x1 PUSH1 0xA0 SHL SUB AND DUP2 MSTORE PUSH1 0x20 ADD SWAP3 POP POP POP PUSH1 0x20 PUSH1 0x40 MLOAD DUP1 DUP4 SUB DUP2 DUP7 DUP1 EXTCODESIZE ISZERO DUP1 ISZERO PUSH2 0x4063 JUMPI PUSH1 0x0 DUP1 REVERT JUMPDEST POP GAS STATICCALL ISZERO DUP1 ISZERO PUSH2 0x4077 JUMPI RETURNDATASIZE PUSH1 0x0 DUP1 RETURNDATACOPY RETURNDATASIZE PUSH1 0x0 REVERT JUMPDEST POP POP POP POP PUSH1 0x40 MLOAD RETURNDATASIZE PUSH1 0x20 DUP2 LT ISZERO PUSH2 0x408D JUMPI PUSH1 0x0 DUP1 REVERT JUMPDEST POP MLOAD PUSH1 0x1 PUSH1 0x1 PUSH1 0xA0 SHL SUB AND EQ ISZERO PUSH2 0x414B JUMPI PUSH32 0x0 PUSH1 0x1 PUSH1 0x1 PUSH1 0xA0 SHL SUB AND PUSH4 0xC9C65396 DUP10 DUP10 PUSH1 0x40 MLOAD DUP4 PUSH4 0xFFFFFFFF AND PUSH1 0xE0 SHL DUP2 MSTORE PUSH1 0x4 ADD DUP1 DUP4 PUSH1 0x1 PUSH1 0x1 PUSH1 0xA0 SHL SUB AND DUP2 MSTORE PUSH1 0x20 ADD DUP3 PUSH1 0x1 PUSH1 0x1 PUSH1 0xA0 SHL SUB AND DUP2 MSTORE PUSH1 0x20 ADD SWAP3 POP POP POP PUSH1 0x20 PUSH1 0x40 MLOAD DUP1 DUP4 SUB DUP2 PUSH1 0x0 DUP8 DUP1 EXTCODESIZE ISZERO DUP1 ISZERO PUSH2 0x411E JUMPI PUSH1 0x0 DUP1 REVERT JUMPDEST POP GAS CALL ISZERO DUP1 ISZERO PUSH2 0x4132 JUMPI RETURNDATASIZE PUSH1 0x0 DUP1 RETURNDATACOPY RETURNDATASIZE PUSH1 0x0 REVERT JUMPDEST POP POP POP POP PUSH1 0x40 MLOAD RETURNDATASIZE PUSH1 0x20 DUP2 LT ISZERO PUSH2 0x4148 JUMPI PUSH1 0x0 DUP1 REVERT JUMPDEST POP POP JUMPDEST PUSH1 0x0 DUP1 PUSH2 0x4179 PUSH32 0x0 DUP12 DUP12 PUSH2 0x431A JUMP JUMPDEST SWAP2 POP SWAP2 POP DUP2 PUSH1 0x0 EQ DUP1 ISZERO PUSH2 0x418B JUMPI POP DUP1 ISZERO JUMPDEST ISZERO PUSH2 0x419B JUMPI DUP8 SWAP4 POP DUP7 SWAP3 POP PUSH2 0x425B JUMP JUMPDEST PUSH1 0x0 PUSH2 0x41A8 DUP10 DUP5 DUP5 PUSH2 0x3E53 JUMP JUMPDEST SWAP1 POP DUP8 DUP2 GT PUSH2 0x41FB JUMPI DUP6 DUP2 LT ISZERO PUSH2 0x41F0 JUMPI PUSH1 0x40 MLOAD PUSH3 0x461BCD PUSH1 0xE5 SHL DUP2 MSTORE PUSH1 0x4 ADD DUP1 DUP1 PUSH1 0x20 ADD DUP3 DUP2 SUB DUP3 MSTORE PUSH1 0x26 DUP2 MSTORE PUSH1 0x20 ADD DUP1 PUSH2 0x4498 PUSH1 0x26 SWAP2 CODECOPY PUSH1 0x40 ADD SWAP2 POP POP PUSH1 0x40 MLOAD DUP1 SWAP2 SUB SWAP1 REVERT JUMPDEST DUP9 SWAP5 POP SWAP3 POP DUP3 PUSH2 0x4259 JUMP JUMPDEST PUSH1 0x0 PUSH2 0x4208 DUP10 DUP5 DUP7 PUSH2 0x3E53 JUMP JUMPDEST SWAP1 POP DUP10 DUP2 GT ISZERO PUSH2 0x4214 JUMPI INVALID JUMPDEST DUP8 DUP2 LT ISZERO PUSH2 0x4253 JUMPI PUSH1 0x40 MLOAD PUSH3 0x461BCD PUSH1 0xE5 SHL DUP2 MSTORE PUSH1 0x4 ADD DUP1 DUP1 PUSH1 0x20 ADD DUP3 DUP2 SUB DUP3 MSTORE PUSH1 0x26 DUP2 MSTORE PUSH1 0x20 ADD DUP1 PUSH2 0x4552 PUSH1 0x26 SWAP2 CODECOPY PUSH1 0x40 ADD SWAP2 POP POP PUSH1 0x40 MLOAD DUP1 SWAP2 SUB SWAP1 REVERT JUMPDEST SWAP5 POP DUP8 SWAP4 POP JUMPDEST POP JUMPDEST POP POP SWAP7 POP SWAP7 SWAP5 POP POP POP POP POP JUMP JUMPDEST PUSH1 0x0 DUP2 ISZERO DUP1 PUSH2 0x4283 JUMPI POP POP DUP1 DUP3 MUL DUP3 DUP3 DUP3 DUP2 PUSH2 0x4280 JUMPI INVALID JUMPDEST DIV EQ JUMPDEST PUSH2 0x11C8 JUMPI PUSH1 0x40 DUP1 MLOAD PUSH3 0x461BCD PUSH1 0xE5 SHL DUP2 MSTORE PUSH1 0x20 PUSH1 0x4 DUP3 ADD MSTORE PUSH1 0x14 PUSH1 0x24 DUP3 ADD MSTORE PUSH20 0x64732D6D6174682D6D756C2D6F766572666C6F77 PUSH1 0x60 SHL PUSH1 0x44 DUP3 ADD MSTORE SWAP1 MLOAD SWAP1 DUP2 SWAP1 SUB PUSH1 0x64 ADD SWAP1 REVERT JUMPDEST DUP1 DUP3 ADD DUP3 DUP2 LT ISZERO PUSH2 0x11C8 JUMPI PUSH1 0x40 DUP1 MLOAD PUSH3 0x461BCD PUSH1 0xE5 SHL DUP2 MSTORE PUSH1 0x20 PUSH1 0x4 DUP3 ADD MSTORE PUSH1 0x14 PUSH1 0x24 DUP3 ADD MSTORE PUSH20 0x64732D6D6174682D6164642D6F766572666C6F77 PUSH1 0x60 SHL PUSH1 0x44 DUP3 ADD MSTORE SWAP1 MLOAD SWAP1 DUP2 SWAP1 SUB PUSH1 0x64 ADD SWAP1 REVERT JUMPDEST PUSH1 0x0 DUP1 PUSH1 0x0 PUSH2 0x4329 DUP6 DUP6 PUSH2 0x3EF9 JUMP JUMPDEST POP SWAP1 POP PUSH1 0x0 DUP1 PUSH2 0x433A DUP9 DUP9 DUP9 PUSH2 0x3497 JUMP JUMPDEST PUSH1 0x1 PUSH1 0x1 PUSH1 0xA0 SHL SUB AND PUSH4 0x902F1AC PUSH1 0x40 MLOAD DUP2 PUSH4 0xFFFFFFFF AND PUSH1 0xE0 SHL DUP2 MSTORE PUSH1 0x4 ADD PUSH1 0x60 PUSH1 0x40 MLOAD DUP1 DUP4 SUB DUP2 DUP7 DUP1 EXTCODESIZE ISZERO DUP1 ISZERO PUSH2 0x4372 JUMPI PUSH1 0x0 DUP1 REVERT JUMPDEST POP GAS STATICCALL ISZERO DUP1 ISZERO PUSH2 0x4386 JUMPI RETURNDATASIZE PUSH1 0x0 DUP1 RETURNDATACOPY RETURNDATASIZE PUSH1 0x0 REVERT JUMPDEST POP POP POP POP PUSH1 0x40 MLOAD RETURNDATASIZE PUSH1 0x60 DUP2 LT ISZERO PUSH2 0x439C JUMPI PUSH1 0x0 DUP1 REVERT JUMPDEST POP DUP1 MLOAD PUSH1 0x20 SWAP1 SWAP2 ADD MLOAD PUSH1 0x1 PUSH1 0x1 PUSH1 0x70 SHL SUB SWAP2 DUP3 AND SWAP4 POP AND SWAP1 POP PUSH1 0x1 PUSH1 0x1 PUSH1 0xA0 SHL SUB DUP8 DUP2 AND SWAP1 DUP5 AND EQ PUSH2 0x43CF JUMPI DUP1 DUP3 PUSH2 0x43D2 JUMP JUMPDEST DUP2 DUP2 JUMPDEST SWAP1 SWAP10 SWAP1 SWAP9 POP SWAP7 POP POP POP POP POP POP POP JUMP INVALID SSTORE PUSH15 0x697377617056324C6962726172793A KECCAK256 0x49 0x4E MSTORE8 SSTORE CHAINID CHAINID 0x49 NUMBER 0x49 GASLIMIT 0x4E SLOAD 0x5F 0x4F SSTORE SLOAD POP SSTORE SLOAD 0x5F COINBASE 0x4D 0x4F SSTORE 0x4E SLOAD SLOAD PUSH19 0x616E7366657248656C7065723A3A7472616E73 PUSH7 0x657246726F6D3A KECCAK256 PUSH21 0x72616E7366657246726F6D206661696C6564547261 PUSH15 0x7366657248656C7065723A3A736166 PUSH6 0x5472616E7366 PUSH6 0x724554483A20 GASLIMIT SLOAD 0x48 KECCAK256 PUSH21 0x72616E73666572206661696C6564556E6973776170 JUMP ORIGIN 0x4C PUSH10 0x62726172793A20494445 0x4E SLOAD 0x49 NUMBER COINBASE 0x4C 0x5F COINBASE DIFFICULTY DIFFICULTY MSTORE GASLIMIT MSTORE8 MSTORE8 GASLIMIT MSTORE8 SSTORE PUSH15 0x69737761705632526F757465723A20 0x49 0x4E MSTORE8 SSTORE CHAINID CHAINID 0x49 NUMBER 0x49 GASLIMIT 0x4E SLOAD 0x5F TIMESTAMP 0x5F COINBASE 0x4D 0x4F SSTORE 0x4E SLOAD SSTORE PUSH15 0x697377617056324C6962726172793A KECCAK256 0x49 0x4E MSTORE8 SSTORE CHAINID CHAINID 0x49 NUMBER 0x49 GASLIMIT 0x4E SLOAD 0x5F 0x4C 0x49 MLOAD SSTORE 0x49 DIFFICULTY 0x49 SLOAD MSIZE SSTORE PUSH15 0x697377617056324C6962726172793A KECCAK256 0x49 0x4E MSTORE8 SSTORE CHAINID CHAINID 0x49 NUMBER 0x49 GASLIMIT 0x4E SLOAD 0x5F COINBASE 0x4D 0x4F SSTORE 0x4E SLOAD SSTORE PUSH15 0x69737761705632526F757465723A20 GASLIMIT PC NUMBER GASLIMIT MSTORE8 MSTORE8 0x49 JUMP GASLIMIT 0x5F 0x49 0x4E POP SSTORE SLOAD 0x5F COINBASE 0x4D 0x4F SSTORE 0x4E SLOAD SSTORE PUSH15 0x69737761705632526F757465723A20 0x49 0x4E JUMP COINBASE 0x4C 0x49 DIFFICULTY 0x5F POP COINBASE SLOAD 0x48 STOP STOP STOP SSTORE PUSH15 0x69737761705632526F757465723A20 0x49 0x4E MSTORE8 SSTORE CHAINID CHAINID 0x49 NUMBER 0x49 GASLIMIT 0x4E SLOAD 0x5F COINBASE 0x5F COINBASE 0x4D 0x4F SSTORE 0x4E SLOAD SSTORE PUSH15 0x69737761705632526F757465723A20 0x49 0x4E MSTORE8 SSTORE CHAINID CHAINID 0x49 NUMBER 0x49 GASLIMIT 0x4E SLOAD 0x5F 0x4F SSTORE SLOAD POP SSTORE SLOAD 0x5F COINBASE 0x4D 0x4F SSTORE 0x4E SLOAD SLOAD PUSH19 0x616E7366657248656C7065723A3A7361666554 PUSH19 0x616E736665723A207472616E73666572206661 PUSH10 0x6C6564556E6973776170 JUMP ORIGIN 0x4C PUSH10 0x62726172793A20494E53 SSTORE CHAINID CHAINID 0x49 NUMBER 0x49 GASLIMIT 0x4E SLOAD 0x5F 0x49 0x4E POP SSTORE SLOAD 0x5F COINBASE 0x4D 0x4F SSTORE 0x4E SLOAD SSTORE PUSH15 0x69737761705632526F757465723A20 GASLIMIT PC POP 0x49 MSTORE GASLIMIT DIFFICULTY STOP STOP STOP STOP STOP STOP STOP STOP LOG2 PUSH5 0x6970667358 0x22 SLT KECCAK256 0xD 0xD4 SLT MUL 0x2B 0x49 0x2F DUP8 SSTORE SWAP4 DELEGATECALL 0xC9 0xB1 NOT DUP10 0xCD 0x5C STOP 0xBC 0x2D PUSH28 0x36A25C5FED6DC82F8871A764736F6C634300060C0033000000000000 "
				},
				"gasEstimates": {
					"creation": {
						"codeDepositCost": "3600000",
						"executionCost": "infinite",
						"totalCost": "infinite"
					},
					"external": {
						"WETH()": "infinite",
						"addLiquidity(address,address,uint256,uint256,uint256,uint256,address,uint256)": "infinite",
						"addLiquidityETH(address,uint256,uint256,uint256,address,uint256)": "infinite",
						"adminFee()": "1088",
						"factory()": "infinite",
						"getAdminFee()": "1132",
						"getAmountIn(uint256,uint256,uint256)": "infinite",
						"getAmountOut(uint256,uint256,uint256)": "infinite",
						"getAmountsIn(uint256,address[])": "infinite",
						"getAmountsOut(uint256,address[])": "infinite",
						"quote(uint256,uint256,uint256)": "infinite",
						"removeLiquidity(address,address,uint256,uint256,uint256,address,uint256)": "infinite",
						"removeLiquidityETH(address,uint256,uint256,uint256,address,uint256)": "infinite",
						"removeLiquidityETHSupportingFeeOnTransferTokens(address,uint256,uint256,uint256,address,uint256)": "infinite",
						"removeLiquidityETHWithPermit(address,uint256,uint256,uint256,address,uint256,bool,uint8,bytes32,bytes32)": "infinite",
						"removeLiquidityETHWithPermitSupportingFeeOnTransferTokens(address,uint256,uint256,uint256,address,uint256,bool,uint8,bytes32,bytes32)": "infinite",
						"removeLiquidityWithPermit(address,address,uint256,uint256,uint256,address,uint256,bool,uint8,bytes32,bytes32)": "infinite",
						"setAdminFee(uint256)": "20314",
						"swapETHForExactTokens(uint256,address[],address,uint256)": "infinite",
						"swapExactETHForTokens(uint256,address[],address,uint256)": "infinite",
						"swapExactETHForTokensSupportingFeeOnTransferTokens(uint256,address[],address,uint256)": "infinite",
						"swapExactTokensForETH(uint256,uint256,address[],address,uint256)": "infinite",
						"swapExactTokensForETHSupportingFeeOnTransferTokens(uint256,uint256,address[],address,uint256)": "infinite",
						"swapExactTokensForTokens(uint256,uint256,address[],address,uint256)": "infinite",
						"swapExactTokensForTokensSupportingFeeOnTransferTokens(uint256,uint256,address[],address,uint256)": "infinite",
						"swapTokensForExactETH(uint256,uint256,address[],address,uint256)": "infinite",
						"swapTokensForExactTokens(uint256,uint256,address[],address,uint256)": "infinite"
					},
					"internal": {
						"_addLiquidity(address,address,uint256,uint256,uint256,uint256)": "infinite",
						"_swap(uint256[] memory,address[] memory,address)": "infinite",
						"_swapSupportingFeeOnTransferTokens(address[] memory,address)": "infinite"
					}
				},
				"methodIdentifiers": {
					"WETH()": "ad5c4648",
					"addLiquidity(address,address,uint256,uint256,uint256,uint256,address,uint256)": "e8e33700",
					"addLiquidityETH(address,uint256,uint256,uint256,address,uint256)": "f305d719",
					"adminFee()": "a0be06f9",
					"factory()": "c45a0155",
					"getAdminFee()": "2a905ccc",
					"getAmountIn(uint256,uint256,uint256)": "85f8c259",
					"getAmountOut(uint256,uint256,uint256)": "054d50d4",
					"getAmountsIn(uint256,address[])": "1f00ca74",
					"getAmountsOut(uint256,address[])": "d06ca61f",
					"quote(uint256,uint256,uint256)": "ad615dec",
					"removeLiquidity(address,address,uint256,uint256,uint256,address,uint256)": "baa2abde",
					"removeLiquidityETH(address,uint256,uint256,uint256,address,uint256)": "02751cec",
					"removeLiquidityETHSupportingFeeOnTransferTokens(address,uint256,uint256,uint256,address,uint256)": "af2979eb",
					"removeLiquidityETHWithPermit(address,uint256,uint256,uint256,address,uint256,bool,uint8,bytes32,bytes32)": "ded9382a",
					"removeLiquidityETHWithPermitSupportingFeeOnTransferTokens(address,uint256,uint256,uint256,address,uint256,bool,uint8,bytes32,bytes32)": "5b0d5984",
					"removeLiquidityWithPermit(address,address,uint256,uint256,uint256,address,uint256,bool,uint8,bytes32,bytes32)": "2195995c",
					"setAdminFee(uint256)": "8beb60b6",
					"swapETHForExactTokens(uint256,address[],address,uint256)": "fb3bdb41",
					"swapExactETHForTokens(uint256,address[],address,uint256)": "7ff36ab5",
					"swapExactETHForTokensSupportingFeeOnTransferTokens(uint256,address[],address,uint256)": "b6f9de95",
					"swapExactTokensForETH(uint256,uint256,address[],address,uint256)": "18cbafe5",
					"swapExactTokensForETHSupportingFeeOnTransferTokens(uint256,uint256,address[],address,uint256)": "791ac947",
					"swapExactTokensForTokens(uint256,uint256,address[],address,uint256)": "38ed1739",
					"swapExactTokensForTokensSupportingFeeOnTransferTokens(uint256,uint256,address[],address,uint256)": "5c11d795",
					"swapTokensForExactETH(uint256,uint256,address[],address,uint256)": "4a25d94a",
					"swapTokensForExactTokens(uint256,uint256,address[],address,uint256)": "8803dbee"
				}
			},
			"storageLayout": {
				"storage": [
					{
						"astId": 491,
						"contract": "UniswapV2Router02.sol:UniswapV2Router02",
						"label": "adminFee",
						"offset": 0,
						"slot": "0",
						"type": "t_uint256"
					}
				],
				"types": {
					"t_uint256": {
						"encoding": "inplace",
						"label": "uint256",
						"numberOfBytes": "32"
					}
				}
			},
			"userdoc": {
				"kind": "user",
				"methods": {},
				"version": 1
			}
		}
	}
}